{
	"challenges/Consorcio/Consorcio.sol": {
		"Consorcio": {
			"abi": [
				{
					"anonymous": false,
					"inputs": [
						{
							"indexed": true,
							"internalType": "address",
							"name": "previousOwner",
							"type": "address"
						},
						{
							"indexed": true,
							"internalType": "address",
							"name": "newOwner",
							"type": "address"
						}
					],
					"name": "OwnershipTransferred",
					"type": "event"
				},
				{
					"stateMutability": "payable",
					"type": "fallback"
				},
				{
					"inputs": [
						{
							"internalType": "uint256",
							"name": "_id",
							"type": "uint256"
						},
						{
							"internalType": "address",
							"name": "_address",
							"type": "address"
						},
						{
							"internalType": "string",
							"name": "_profession",
							"type": "string"
						},
						{
							"internalType": "string",
							"name": "_schedule",
							"type": "string"
						},
						{
							"internalType": "uint256",
							"name": "_salary",
							"type": "uint256"
						}
					],
					"name": "addNewEmployee",
					"outputs": [],
					"stateMutability": "nonpayable",
					"type": "function"
				},
				{
					"inputs": [
						{
							"internalType": "string",
							"name": "_service",
							"type": "string"
						},
						{
							"internalType": "uint256",
							"name": "_price",
							"type": "uint256"
						}
					],
					"name": "addNewService",
					"outputs": [],
					"stateMutability": "nonpayable",
					"type": "function"
				},
				{
					"inputs": [
						{
							"internalType": "uint256",
							"name": "_id",
							"type": "uint256"
						},
						{
							"internalType": "address",
							"name": "_address",
							"type": "address"
						},
						{
							"internalType": "uint256",
							"name": "_expenses",
							"type": "uint256"
						},
						{
							"internalType": "uint256",
							"name": "_aptAddress",
							"type": "uint256"
						}
					],
					"name": "addNewTenant",
					"outputs": [],
					"stateMutability": "nonpayable",
					"type": "function"
				},
				{
					"inputs": [],
					"name": "depositEmployee",
					"outputs": [],
					"stateMutability": "payable",
					"type": "function"
				},
				{
					"inputs": [],
					"name": "depositTenant",
					"outputs": [],
					"stateMutability": "payable",
					"type": "function"
				},
				{
					"inputs": [],
					"name": "getEmployeeList",
					"outputs": [
						{
							"internalType": "contract Employee[]",
							"name": "",
							"type": "address[]"
						}
					],
					"stateMutability": "view",
					"type": "function"
				},
				{
					"inputs": [],
					"name": "owner",
					"outputs": [
						{
							"internalType": "address",
							"name": "",
							"type": "address"
						}
					],
					"stateMutability": "view",
					"type": "function"
				},
				{
					"inputs": [],
					"name": "payAllServices",
					"outputs": [],
					"stateMutability": "nonpayable",
					"type": "function"
				},
				{
					"inputs": [],
					"name": "paySalaries",
					"outputs": [],
					"stateMutability": "nonpayable",
					"type": "function"
				},
				{
					"inputs": [
						{
							"internalType": "uint256",
							"name": "index",
							"type": "uint256"
						}
					],
					"name": "payService",
					"outputs": [],
					"stateMutability": "nonpayable",
					"type": "function"
				},
				{
					"inputs": [],
					"name": "renounceOwnership",
					"outputs": [],
					"stateMutability": "nonpayable",
					"type": "function"
				},
				{
					"inputs": [],
					"name": "showAddress",
					"outputs": [
						{
							"internalType": "address",
							"name": "",
							"type": "address"
						}
					],
					"stateMutability": "view",
					"type": "function"
				},
				{
					"inputs": [],
					"name": "tenantWithdrawal",
					"outputs": [],
					"stateMutability": "nonpayable",
					"type": "function"
				},
				{
					"inputs": [
						{
							"internalType": "address",
							"name": "newOwner",
							"type": "address"
						}
					],
					"name": "transferOwnership",
					"outputs": [],
					"stateMutability": "nonpayable",
					"type": "function"
				},
				{
					"stateMutability": "payable",
					"type": "receive"
				}
			],
			"devdoc": {
				"kind": "dev",
				"methods": {
					"owner()": {
						"details": "Returns the address of the current owner."
					},
					"renounceOwnership()": {
						"details": "Leaves the contract without owner. It will not be possible to call `onlyOwner` functions anymore. Can only be called by the current owner. NOTE: Renouncing ownership will leave the contract without an owner, thereby removing any functionality that is only available to the owner."
					},
					"transferOwnership(address)": {
						"details": "Transfers ownership of the contract to a new account (`newOwner`). Can only be called by the current owner."
					}
				},
				"version": 1
			},
			"evm": {
				"assembly": "    /* \"challenges/Consorcio/Consorcio.sol\":188:3163  contract Consorcio is Ownable {\r... */\n  mstore(0x40, 0x80)\n  callvalue\n  dup1\n  iszero\n  tag_1\n  jumpi\n  0x00\n  dup1\n  revert\ntag_1:\n  pop\n    /* \"@openzeppelin/contracts/access/Ownable.sol\":936:968  _transferOwnership(_msgSender()) */\n  tag_4\n    /* \"@openzeppelin/contracts/access/Ownable.sol\":955:967  _msgSender() */\n  tag_5\n    /* \"@openzeppelin/contracts/access/Ownable.sol\":955:965  _msgSender */\n  shl(0x20, tag_6)\n    /* \"@openzeppelin/contracts/access/Ownable.sol\":955:967  _msgSender() */\n  0x20\n  shr\n  jump\t// in\ntag_5:\n    /* \"@openzeppelin/contracts/access/Ownable.sol\":936:954  _transferOwnership */\n  shl(0x20, tag_7)\n    /* \"@openzeppelin/contracts/access/Ownable.sol\":936:968  _transferOwnership(_msgSender()) */\n  0x20\n  shr\n  jump\t// in\ntag_4:\n    /* \"challenges/Consorcio/Consorcio.sol\":188:3163  contract Consorcio is Ownable {\r... */\n  jump(tag_8)\n    /* \"@openzeppelin/contracts/utils/Context.sol\":640:736  function _msgSender() internal view virtual returns (address) {... */\ntag_6:\n    /* \"@openzeppelin/contracts/utils/Context.sol\":693:700  address */\n  0x00\n    /* \"@openzeppelin/contracts/utils/Context.sol\":719:729  msg.sender */\n  caller\n    /* \"@openzeppelin/contracts/utils/Context.sol\":712:729  return msg.sender */\n  swap1\n  pop\n    /* \"@openzeppelin/contracts/utils/Context.sol\":640:736  function _msgSender() internal view virtual returns (address) {... */\n  swap1\n  jump\t// out\n    /* \"@openzeppelin/contracts/access/Ownable.sol\":2433:2620  function _transferOwnership(address newOwner) internal virtual {... */\ntag_7:\n    /* \"@openzeppelin/contracts/access/Ownable.sol\":2506:2522  address oldOwner */\n  0x00\n    /* \"@openzeppelin/contracts/access/Ownable.sol\":2525:2531  _owner */\n  dup1\n  0x00\n  swap1\n  sload\n  swap1\n  0x0100\n  exp\n  swap1\n  div\n  0xffffffffffffffffffffffffffffffffffffffff\n  and\n    /* \"@openzeppelin/contracts/access/Ownable.sol\":2506:2531  address oldOwner = _owner */\n  swap1\n  pop\n    /* \"@openzeppelin/contracts/access/Ownable.sol\":2550:2558  newOwner */\n  dup2\n    /* \"@openzeppelin/contracts/access/Ownable.sol\":2541:2547  _owner */\n  0x00\n  dup1\n    /* \"@openzeppelin/contracts/access/Ownable.sol\":2541:2558  _owner = newOwner */\n  0x0100\n  exp\n  dup2\n  sload\n  dup2\n  0xffffffffffffffffffffffffffffffffffffffff\n  mul\n  not\n  and\n  swap1\n  dup4\n  0xffffffffffffffffffffffffffffffffffffffff\n  and\n  mul\n  or\n  swap1\n  sstore\n  pop\n    /* \"@openzeppelin/contracts/access/Ownable.sol\":2604:2612  newOwner */\n  dup2\n    /* \"@openzeppelin/contracts/access/Ownable.sol\":2573:2613  OwnershipTransferred(oldOwner, newOwner) */\n  0xffffffffffffffffffffffffffffffffffffffff\n  and\n    /* \"@openzeppelin/contracts/access/Ownable.sol\":2594:2602  oldOwner */\n  dup2\n    /* \"@openzeppelin/contracts/access/Ownable.sol\":2573:2613  OwnershipTransferred(oldOwner, newOwner) */\n  0xffffffffffffffffffffffffffffffffffffffff\n  and\n  0x8be0079c531659141344cd1fd0a4f28419497f9722a3daafe3b4186f6b6457e0\n  mload(0x40)\n  mload(0x40)\n  dup1\n  swap2\n  sub\n  swap1\n  log3\n    /* \"@openzeppelin/contracts/access/Ownable.sol\":2496:2620  {... */\n  pop\n    /* \"@openzeppelin/contracts/access/Ownable.sol\":2433:2620  function _transferOwnership(address newOwner) internal virtual {... */\n  pop\n  jump\t// out\n    /* \"challenges/Consorcio/Consorcio.sol\":188:3163  contract Consorcio is Ownable {\r... */\ntag_8:\n  dataSize(sub_0)\n  dup1\n  dataOffset(sub_0)\n  0x00\n  codecopy\n  0x00\n  return\nstop\n\nsub_0: assembly {\n        /* \"challenges/Consorcio/Consorcio.sol\":188:3163  contract Consorcio is Ownable {\r... */\n      mstore(0x40, 0x80)\n      jumpi(tag_1, lt(calldatasize, 0x04))\n      shr(0xe0, calldataload(0x00))\n      dup1\n      0x8da5cb5b\n      gt\n      tag_17\n      jumpi\n      dup1\n      0xcd7d77c5\n      gt\n      tag_18\n      jumpi\n      dup1\n      0xcd7d77c5\n      eq\n      tag_13\n      jumpi\n      dup1\n      0xeb20f21a\n      eq\n      tag_14\n      jumpi\n      dup1\n      0xec3ab274\n      eq\n      tag_15\n      jumpi\n      dup1\n      0xf2fde38b\n      eq\n      tag_16\n      jumpi\n      jump(tag_2)\n    tag_18:\n      dup1\n      0x8da5cb5b\n      eq\n      tag_10\n      jumpi\n      dup1\n      0xbce58703\n      eq\n      tag_11\n      jumpi\n      dup1\n      0xc2d2a83c\n      eq\n      tag_12\n      jumpi\n      jump(tag_2)\n    tag_17:\n      dup1\n      0x42e36b3b\n      gt\n      tag_19\n      jumpi\n      dup1\n      0x42e36b3b\n      eq\n      tag_6\n      jumpi\n      dup1\n      0x715018a6\n      eq\n      tag_7\n      jumpi\n      dup1\n      0x72673e31\n      eq\n      tag_8\n      jumpi\n      dup1\n      0x85ffebd7\n      eq\n      tag_9\n      jumpi\n      jump(tag_2)\n    tag_19:\n      dup1\n      0x08b567fc\n      eq\n      tag_3\n      jumpi\n      dup1\n      0x0b9362a2\n      eq\n      tag_4\n      jumpi\n      dup1\n      0x2db3361b\n      eq\n      tag_5\n      jumpi\n      jump(tag_2)\n    tag_1:\n      jumpi(tag_2, calldatasize)\n      stop\n    tag_2:\n      stop\n        /* \"challenges/Consorcio/Consorcio.sol\":2597:2854  function addNewEmployee(uint _id, address _address, string memory _profession, string memory _schedule, uint _salary) public {\r... */\n    tag_3:\n      callvalue\n      dup1\n      iszero\n      tag_24\n      jumpi\n      0x00\n      dup1\n      revert\n    tag_24:\n      pop\n      tag_25\n      0x04\n      dup1\n      calldatasize\n      sub\n      dup2\n      add\n      swap1\n      tag_26\n      swap2\n      swap1\n      tag_27\n      jump\t// in\n    tag_26:\n      tag_28\n      jump\t// in\n    tag_25:\n      stop\n        /* \"challenges/Consorcio/Consorcio.sol\":414:518  function getEmployeeList() public view returns(Employee[] memory) {\r... */\n    tag_4:\n      callvalue\n      dup1\n      iszero\n      tag_29\n      jumpi\n      0x00\n      dup1\n      revert\n    tag_29:\n      pop\n      tag_30\n      tag_31\n      jump\t// in\n    tag_30:\n      mload(0x40)\n      tag_32\n      swap2\n      swap1\n      tag_33\n      jump\t// in\n    tag_32:\n      mload(0x40)\n      dup1\n      swap2\n      sub\n      swap1\n      return\n        /* \"challenges/Consorcio/Consorcio.sol\":2360:2589  function depositTenant() public payable {\r... */\n    tag_5:\n      tag_34\n      tag_35\n      jump\t// in\n    tag_34:\n      stop\n        /* \"challenges/Consorcio/Consorcio.sol\":695:1403  function paySalaries() public onlyOwner {\r... */\n    tag_6:\n      callvalue\n      dup1\n      iszero\n      tag_36\n      jumpi\n      0x00\n      dup1\n      revert\n    tag_36:\n      pop\n      tag_37\n      tag_38\n      jump\t// in\n    tag_37:\n      stop\n        /* \"@openzeppelin/contracts/access/Ownable.sol\":1831:1932  function renounceOwnership() public virtual onlyOwner {... */\n    tag_7:\n      callvalue\n      dup1\n      iszero\n      tag_39\n      jumpi\n      0x00\n      dup1\n      revert\n    tag_39:\n      pop\n      tag_40\n      tag_41\n      jump\t// in\n    tag_40:\n      stop\n        /* \"challenges/Consorcio/Consorcio.sol\":1847:2016  function addNewService(string memory _service, uint _price) public onlyOwner {\r... */\n    tag_8:\n      callvalue\n      dup1\n      iszero\n      tag_42\n      jumpi\n      0x00\n      dup1\n      revert\n    tag_42:\n      pop\n      tag_43\n      0x04\n      dup1\n      calldatasize\n      sub\n      dup2\n      add\n      swap1\n      tag_44\n      swap2\n      swap1\n      tag_45\n      jump\t// in\n    tag_44:\n      tag_46\n      jump\t// in\n    tag_43:\n      stop\n        /* \"challenges/Consorcio/Consorcio.sol\":2024:2115  function showAddress() public view returns(address) {\r... */\n    tag_9:\n      callvalue\n      dup1\n      iszero\n      tag_47\n      jumpi\n      0x00\n      dup1\n      revert\n    tag_47:\n      pop\n      tag_48\n      tag_49\n      jump\t// in\n    tag_48:\n      mload(0x40)\n      tag_50\n      swap2\n      swap1\n      tag_51\n      jump\t// in\n    tag_50:\n      mload(0x40)\n      dup1\n      swap2\n      sub\n      swap1\n      return\n        /* \"@openzeppelin/contracts/access/Ownable.sol\":1201:1286  function owner() public view virtual returns (address) {... */\n    tag_10:\n      callvalue\n      dup1\n      iszero\n      tag_52\n      jumpi\n      0x00\n      dup1\n      revert\n    tag_52:\n      pop\n      tag_53\n      tag_54\n      jump\t// in\n    tag_53:\n      mload(0x40)\n      tag_55\n      swap2\n      swap1\n      tag_51\n      jump\t// in\n    tag_55:\n      mload(0x40)\n      dup1\n      swap2\n      sub\n      swap1\n      return\n        /* \"challenges/Consorcio/Consorcio.sol\":2123:2352  function addNewTenant(uint _id, address _address, uint _expenses, uint _aptAddress) public onlyOwner {\r... */\n    tag_11:\n      callvalue\n      dup1\n      iszero\n      tag_56\n      jumpi\n      0x00\n      dup1\n      revert\n    tag_56:\n      pop\n      tag_57\n      0x04\n      dup1\n      calldatasize\n      sub\n      dup2\n      add\n      swap1\n      tag_58\n      swap2\n      swap1\n      tag_59\n      jump\t// in\n    tag_58:\n      tag_60\n      jump\t// in\n    tag_57:\n      stop\n        /* \"challenges/Consorcio/Consorcio.sol\":2862:3070  function depositEmployee() public payable {\r... */\n    tag_12:\n      tag_61\n      tag_62\n      jump\t// in\n    tag_61:\n      stop\n        /* \"challenges/Consorcio/Consorcio.sol\":1771:1839  function payService(uint index) public {\r... */\n    tag_13:\n      callvalue\n      dup1\n      iszero\n      tag_63\n      jumpi\n      0x00\n      dup1\n      revert\n    tag_63:\n      pop\n      tag_64\n      0x04\n      dup1\n      calldatasize\n      sub\n      dup2\n      add\n      swap1\n      tag_65\n      swap2\n      swap1\n      tag_66\n      jump\t// in\n    tag_65:\n      tag_67\n      jump\t// in\n    tag_64:\n      stop\n        /* \"challenges/Consorcio/Consorcio.sol\":3078:3158  function tenantWithdrawal() public {\r... */\n    tag_14:\n      callvalue\n      dup1\n      iszero\n      tag_68\n      jumpi\n      0x00\n      dup1\n      revert\n    tag_68:\n      pop\n      tag_69\n      tag_70\n      jump\t// in\n    tag_69:\n      stop\n        /* \"challenges/Consorcio/Consorcio.sol\":1411:1763  function payAllServices() public {\r... */\n    tag_15:\n      callvalue\n      dup1\n      iszero\n      tag_71\n      jumpi\n      0x00\n      dup1\n      revert\n    tag_71:\n      pop\n      tag_72\n      tag_73\n      jump\t// in\n    tag_72:\n      stop\n        /* \"@openzeppelin/contracts/access/Ownable.sol\":2081:2279  function transferOwnership(address newOwner) public virtual onlyOwner {... */\n    tag_16:\n      callvalue\n      dup1\n      iszero\n      tag_74\n      jumpi\n      0x00\n      dup1\n      revert\n    tag_74:\n      pop\n      tag_75\n      0x04\n      dup1\n      calldatasize\n      sub\n      dup2\n      add\n      swap1\n      tag_76\n      swap2\n      swap1\n      tag_77\n      jump\t// in\n    tag_76:\n      tag_78\n      jump\t// in\n    tag_75:\n      stop\n        /* \"challenges/Consorcio/Consorcio.sol\":2597:2854  function addNewEmployee(uint _id, address _address, string memory _profession, string memory _schedule, uint _salary) public {\r... */\n    tag_28:\n        /* \"challenges/Consorcio/Consorcio.sol\":2759:2762  _id */\n      dup5\n        /* \"challenges/Consorcio/Consorcio.sol\":2764:2772  _address */\n      dup5\n        /* \"challenges/Consorcio/Consorcio.sol\":2774:2785  _profession */\n      dup5\n        /* \"challenges/Consorcio/Consorcio.sol\":2787:2796  _schedule */\n      dup5\n        /* \"challenges/Consorcio/Consorcio.sol\":2798:2805  _salary */\n      dup5\n        /* \"challenges/Consorcio/Consorcio.sol\":2746:2806  new Employee(_id, _address, _profession, _schedule, _salary) */\n      mload(0x40)\n      tag_80\n      swap1\n      tag_81\n      jump\t// in\n    tag_80:\n      tag_82\n      swap6\n      swap5\n      swap4\n      swap3\n      swap2\n      swap1\n      tag_83\n      jump\t// in\n    tag_82:\n      mload(0x40)\n      dup1\n      swap2\n      sub\n      swap1\n      0x00\n      create\n      dup1\n      iszero\n      dup1\n      iszero\n      tag_84\n      jumpi\n      returndatasize\n      0x00\n      dup1\n      returndatacopy\n      revert(0x00, returndatasize)\n    tag_84:\n      pop\n        /* \"challenges/Consorcio/Consorcio.sol\":2733:2743  anEmployee */\n      0x04\n      0x00\n        /* \"challenges/Consorcio/Consorcio.sol\":2733:2806  anEmployee = new Employee(_id, _address, _profession, _schedule, _salary) */\n      0x0100\n      exp\n      dup2\n      sload\n      dup2\n      0xffffffffffffffffffffffffffffffffffffffff\n      mul\n      not\n      and\n      swap1\n      dup4\n      0xffffffffffffffffffffffffffffffffffffffff\n      and\n      mul\n      or\n      swap1\n      sstore\n      pop\n        /* \"challenges/Consorcio/Consorcio.sol\":2817:2829  employeeList */\n      0x01\n        /* \"challenges/Consorcio/Consorcio.sol\":2835:2845  anEmployee */\n      0x04\n      0x00\n      swap1\n      sload\n      swap1\n      0x0100\n      exp\n      swap1\n      div\n      0xffffffffffffffffffffffffffffffffffffffff\n      and\n        /* \"challenges/Consorcio/Consorcio.sol\":2817:2846  employeeList.push(anEmployee) */\n      swap1\n      dup1\n      0x01\n      dup2\n      sload\n      add\n      dup1\n      dup3\n      sstore\n      dup1\n      swap2\n      pop\n      pop\n      0x01\n      swap1\n      sub\n      swap1\n      0x00\n      mstore\n      keccak256(0x00, 0x20)\n      add\n      0x00\n      swap1\n      swap2\n      swap1\n      swap2\n      swap1\n      swap2\n      0x0100\n      exp\n      dup2\n      sload\n      dup2\n      0xffffffffffffffffffffffffffffffffffffffff\n      mul\n      not\n      and\n      swap1\n      dup4\n      0xffffffffffffffffffffffffffffffffffffffff\n      and\n      mul\n      or\n      swap1\n      sstore\n      pop\n        /* \"challenges/Consorcio/Consorcio.sol\":2597:2854  function addNewEmployee(uint _id, address _address, string memory _profession, string memory _schedule, uint _salary) public {\r... */\n      pop\n      pop\n      pop\n      pop\n      pop\n      jump\t// out\n        /* \"challenges/Consorcio/Consorcio.sol\":414:518  function getEmployeeList() public view returns(Employee[] memory) {\r... */\n    tag_31:\n        /* \"challenges/Consorcio/Consorcio.sol\":461:478  Employee[] memory */\n      0x60\n        /* \"challenges/Consorcio/Consorcio.sol\":498:510  employeeList */\n      0x01\n        /* \"challenges/Consorcio/Consorcio.sol\":491:510  return employeeList */\n      dup1\n      sload\n      dup1\n      0x20\n      mul\n      0x20\n      add\n      mload(0x40)\n      swap1\n      dup2\n      add\n      0x40\n      mstore\n      dup1\n      swap3\n      swap2\n      swap1\n      dup2\n      dup2\n      mstore\n      0x20\n      add\n      dup3\n      dup1\n      sload\n      dup1\n      iszero\n      tag_87\n      jumpi\n      0x20\n      mul\n      dup3\n      add\n      swap2\n      swap1\n      0x00\n      mstore\n      keccak256(0x00, 0x20)\n      swap1\n    tag_88:\n      dup2\n      0x00\n      swap1\n      sload\n      swap1\n      0x0100\n      exp\n      swap1\n      div\n      0xffffffffffffffffffffffffffffffffffffffff\n      and\n      0xffffffffffffffffffffffffffffffffffffffff\n      and\n      dup2\n      mstore\n      0x20\n      add\n      swap1\n      0x01\n      add\n      swap1\n      dup1\n      dup4\n      gt\n      tag_88\n      jumpi\n    tag_87:\n      pop\n      pop\n      pop\n      pop\n      pop\n      swap1\n      pop\n        /* \"challenges/Consorcio/Consorcio.sol\":414:518  function getEmployeeList() public view returns(Employee[] memory) {\r... */\n      swap1\n      jump\t// out\n        /* \"challenges/Consorcio/Consorcio.sol\":2360:2589  function depositTenant() public payable {\r... */\n    tag_35:\n        /* \"challenges/Consorcio/Consorcio.sol\":2412:2421  bool sent */\n      0x00\n        /* \"challenges/Consorcio/Consorcio.sol\":2427:2434  aTenant */\n      0x05\n      0x00\n      swap1\n      sload\n      swap1\n      0x0100\n      exp\n      swap1\n      div\n      0xffffffffffffffffffffffffffffffffffffffff\n      and\n        /* \"challenges/Consorcio/Consorcio.sol\":2427:2445  aTenant.getAddress */\n      0xffffffffffffffffffffffffffffffffffffffff\n      and\n      0x38cc4831\n        /* \"challenges/Consorcio/Consorcio.sol\":2427:2447  aTenant.getAddress() */\n      mload(0x40)\n      dup2\n      0xffffffff\n      and\n      0xe0\n      shl\n      dup2\n      mstore\n      0x04\n      add\n      0x20\n      mload(0x40)\n      dup1\n      dup4\n      sub\n      dup2\n      dup7\n      dup1\n      extcodesize\n      iszero\n      dup1\n      iszero\n      tag_90\n      jumpi\n      0x00\n      dup1\n      revert\n    tag_90:\n      pop\n      gas\n      staticcall\n      iszero\n      dup1\n      iszero\n      tag_92\n      jumpi\n      returndatasize\n      0x00\n      dup1\n      returndatacopy\n      revert(0x00, returndatasize)\n    tag_92:\n      pop\n      pop\n      pop\n      pop\n      mload(0x40)\n      returndatasize\n      not(0x1f)\n      0x1f\n      dup3\n      add\n      and\n      dup3\n      add\n      dup1\n      0x40\n      mstore\n      pop\n      dup2\n      add\n      swap1\n      tag_93\n      swap2\n      swap1\n      tag_94\n      jump\t// in\n    tag_93:\n        /* \"challenges/Consorcio/Consorcio.sol\":2427:2452  aTenant.getAddress().call */\n      0xffffffffffffffffffffffffffffffffffffffff\n      and\n        /* \"challenges/Consorcio/Consorcio.sol\":2475:2484  msg.value */\n      callvalue\n        /* \"challenges/Consorcio/Consorcio.sol\":2427:2499  aTenant.getAddress().call {\r... */\n      mload(0x40)\n      tag_95\n      swap1\n      tag_96\n      jump\t// in\n    tag_95:\n      0x00\n      mload(0x40)\n      dup1\n      dup4\n      sub\n      dup2\n      dup6\n      dup8\n      gas\n      call\n      swap3\n      pop\n      pop\n      pop\n      returndatasize\n      dup1\n      0x00\n      dup2\n      eq\n      tag_99\n      jumpi\n      mload(0x40)\n      swap2\n      pop\n      and(add(returndatasize, 0x3f), not(0x1f))\n      dup3\n      add\n      0x40\n      mstore\n      returndatasize\n      dup3\n      mstore\n      returndatasize\n      0x00\n      0x20\n      dup5\n      add\n      returndatacopy\n      jump(tag_98)\n    tag_99:\n      0x60\n      swap2\n      pop\n    tag_98:\n      pop\n        /* \"challenges/Consorcio/Consorcio.sol\":2411:2499  (bool sent, ) = aTenant.getAddress().call {\r... */\n      pop\n      swap1\n      pop\n        /* \"challenges/Consorcio/Consorcio.sol\":2529:2533  true */\n      0x01\n        /* \"challenges/Consorcio/Consorcio.sol\":2521:2533  sent == true */\n      iszero\n      iszero\n        /* \"challenges/Consorcio/Consorcio.sol\":2521:2525  sent */\n      dup2\n        /* \"challenges/Consorcio/Consorcio.sol\":2521:2533  sent == true */\n      iszero\n      iszero\n      eq\n        /* \"challenges/Consorcio/Consorcio.sol\":2512:2581  require (sent == true, \"Deposit failed. Try again in some mminutes.\") */\n      tag_100\n      jumpi\n      mload(0x40)\n      0x08c379a000000000000000000000000000000000000000000000000000000000\n      dup2\n      mstore\n      0x04\n      add\n      tag_101\n      swap1\n      tag_102\n      jump\t// in\n    tag_101:\n      mload(0x40)\n      dup1\n      swap2\n      sub\n      swap1\n      revert\n    tag_100:\n        /* \"challenges/Consorcio/Consorcio.sol\":2400:2589  {\r... */\n      pop\n        /* \"challenges/Consorcio/Consorcio.sol\":2360:2589  function depositTenant() public payable {\r... */\n      jump\t// out\n        /* \"challenges/Consorcio/Consorcio.sol\":695:1403  function paySalaries() public onlyOwner {\r... */\n    tag_38:\n        /* \"@openzeppelin/contracts/access/Ownable.sol\":1094:1107  _checkOwner() */\n      tag_104\n        /* \"@openzeppelin/contracts/access/Ownable.sol\":1094:1105  _checkOwner */\n      tag_105\n        /* \"@openzeppelin/contracts/access/Ownable.sol\":1094:1107  _checkOwner() */\n      jump\t// in\n    tag_104:\n        /* \"challenges/Consorcio/Consorcio.sol\":964:980  uint totalAmount */\n      0x00\n        /* \"challenges/Consorcio/Consorcio.sol\":1174:1185  totalAmount */\n      dup1\n        /* \"challenges/Consorcio/Consorcio.sol\":1149:1170  address(this).balance */\n      selfbalance\n        /* \"challenges/Consorcio/Consorcio.sol\":1149:1185  address(this).balance >= totalAmount */\n      lt\n      iszero\n        /* \"challenges/Consorcio/Consorcio.sol\":1141:1208  require(address(this).balance >= totalAmount, \"Insufficient funds\") */\n      tag_107\n      jumpi\n      mload(0x40)\n      0x08c379a000000000000000000000000000000000000000000000000000000000\n      dup2\n      mstore\n      0x04\n      add\n      tag_108\n      swap1\n      tag_109\n      jump\t// in\n    tag_108:\n      mload(0x40)\n      dup1\n      swap2\n      sub\n      swap1\n      revert\n    tag_107:\n        /* \"challenges/Consorcio/Consorcio.sol\":735:1403  {\r... */\n      pop\n        /* \"challenges/Consorcio/Consorcio.sol\":695:1403  function paySalaries() public onlyOwner {\r... */\n      jump\t// out\n        /* \"@openzeppelin/contracts/access/Ownable.sol\":1831:1932  function renounceOwnership() public virtual onlyOwner {... */\n    tag_41:\n        /* \"@openzeppelin/contracts/access/Ownable.sol\":1094:1107  _checkOwner() */\n      tag_111\n        /* \"@openzeppelin/contracts/access/Ownable.sol\":1094:1105  _checkOwner */\n      tag_105\n        /* \"@openzeppelin/contracts/access/Ownable.sol\":1094:1107  _checkOwner() */\n      jump\t// in\n    tag_111:\n        /* \"@openzeppelin/contracts/access/Ownable.sol\":1895:1925  _transferOwnership(address(0)) */\n      tag_113\n        /* \"@openzeppelin/contracts/access/Ownable.sol\":1922:1923  0 */\n      0x00\n        /* \"@openzeppelin/contracts/access/Ownable.sol\":1895:1913  _transferOwnership */\n      tag_114\n        /* \"@openzeppelin/contracts/access/Ownable.sol\":1895:1925  _transferOwnership(address(0)) */\n      jump\t// in\n    tag_113:\n        /* \"@openzeppelin/contracts/access/Ownable.sol\":1831:1932  function renounceOwnership() public virtual onlyOwner {... */\n      jump\t// out\n        /* \"challenges/Consorcio/Consorcio.sol\":1847:2016  function addNewService(string memory _service, uint _price) public onlyOwner {\r... */\n    tag_46:\n        /* \"@openzeppelin/contracts/access/Ownable.sol\":1094:1107  _checkOwner() */\n      tag_116\n        /* \"@openzeppelin/contracts/access/Ownable.sol\":1094:1105  _checkOwner */\n      tag_105\n        /* \"@openzeppelin/contracts/access/Ownable.sol\":1094:1107  _checkOwner() */\n      jump\t// in\n    tag_116:\n        /* \"challenges/Consorcio/Consorcio.sol\":1946:1971  Service(_service, _price) */\n      mload(0x40)\n      dup1\n      0x40\n      add\n      0x40\n      mstore\n      dup1\n        /* \"challenges/Consorcio/Consorcio.sol\":1954:1962  _service */\n      dup4\n        /* \"challenges/Consorcio/Consorcio.sol\":1946:1971  Service(_service, _price) */\n      dup2\n      mstore\n      0x20\n      add\n        /* \"challenges/Consorcio/Consorcio.sol\":1964:1970  _price */\n      dup3\n        /* \"challenges/Consorcio/Consorcio.sol\":1946:1971  Service(_service, _price) */\n      dup2\n      mstore\n      pop\n        /* \"challenges/Consorcio/Consorcio.sol\":1935:1943  aService */\n      0x06\n        /* \"challenges/Consorcio/Consorcio.sol\":1935:1971  aService = Service(_service, _price) */\n      0x00\n      dup3\n      add\n      mload\n      dup2\n      0x00\n      add\n      swap1\n      dup1\n      mload\n      swap1\n      0x20\n      add\n      swap1\n      tag_118\n      swap3\n      swap2\n      swap1\n      tag_119\n      jump\t// in\n    tag_118:\n      pop\n      0x20\n      dup3\n      add\n      mload\n      dup2\n      0x01\n      add\n      sstore\n      swap1\n      pop\n      pop\n        /* \"challenges/Consorcio/Consorcio.sol\":1982:1993  serviceList */\n      0x03\n        /* \"challenges/Consorcio/Consorcio.sol\":1999:2007  aService */\n      0x06\n        /* \"challenges/Consorcio/Consorcio.sol\":1982:2008  serviceList.push(aService) */\n      swap1\n      dup1\n      0x01\n      dup2\n      sload\n      add\n      dup1\n      dup3\n      sstore\n      dup1\n      swap2\n      pop\n      pop\n      0x01\n      swap1\n      sub\n      swap1\n      0x00\n      mstore\n      keccak256(0x00, 0x20)\n      swap1\n      0x02\n      mul\n      add\n      0x00\n      swap1\n      swap2\n      swap1\n      swap2\n      swap1\n      swap2\n      pop\n      0x00\n      dup3\n      add\n      dup2\n      0x00\n      add\n      swap1\n      dup1\n      sload\n      tag_121\n      swap1\n      tag_122\n      jump\t// in\n    tag_121:\n      tag_123\n      swap3\n      swap2\n      swap1\n      tag_124\n      jump\t// in\n    tag_123:\n      pop\n      0x01\n      dup3\n      add\n      sload\n      dup2\n      0x01\n      add\n      sstore\n      pop\n      pop\n        /* \"challenges/Consorcio/Consorcio.sol\":1847:2016  function addNewService(string memory _service, uint _price) public onlyOwner {\r... */\n      pop\n      pop\n      jump\t// out\n        /* \"challenges/Consorcio/Consorcio.sol\":2024:2115  function showAddress() public view returns(address) {\r... */\n    tag_49:\n        /* \"challenges/Consorcio/Consorcio.sol\":2067:2074  address */\n      0x00\n        /* \"challenges/Consorcio/Consorcio.sol\":2102:2106  this */\n      address\n        /* \"challenges/Consorcio/Consorcio.sol\":2087:2107  return address(this) */\n      swap1\n      pop\n        /* \"challenges/Consorcio/Consorcio.sol\":2024:2115  function showAddress() public view returns(address) {\r... */\n      swap1\n      jump\t// out\n        /* \"@openzeppelin/contracts/access/Ownable.sol\":1201:1286  function owner() public view virtual returns (address) {... */\n    tag_54:\n        /* \"@openzeppelin/contracts/access/Ownable.sol\":1247:1254  address */\n      0x00\n        /* \"@openzeppelin/contracts/access/Ownable.sol\":1273:1279  _owner */\n      dup1\n      0x00\n      swap1\n      sload\n      swap1\n      0x0100\n      exp\n      swap1\n      div\n      0xffffffffffffffffffffffffffffffffffffffff\n      and\n        /* \"@openzeppelin/contracts/access/Ownable.sol\":1266:1279  return _owner */\n      swap1\n      pop\n        /* \"@openzeppelin/contracts/access/Ownable.sol\":1201:1286  function owner() public view virtual returns (address) {... */\n      swap1\n      jump\t// out\n        /* \"challenges/Consorcio/Consorcio.sol\":2123:2352  function addNewTenant(uint _id, address _address, uint _expenses, uint _aptAddress) public onlyOwner {\r... */\n    tag_60:\n        /* \"@openzeppelin/contracts/access/Ownable.sol\":1094:1107  _checkOwner() */\n      tag_128\n        /* \"@openzeppelin/contracts/access/Ownable.sol\":1094:1105  _checkOwner */\n      tag_105\n        /* \"@openzeppelin/contracts/access/Ownable.sol\":1094:1107  _checkOwner() */\n      jump\t// in\n    tag_128:\n        /* \"challenges/Consorcio/Consorcio.sol\":2256:2259  _id */\n      dup4\n        /* \"challenges/Consorcio/Consorcio.sol\":2261:2269  _address */\n      dup4\n        /* \"challenges/Consorcio/Consorcio.sol\":2271:2280  _expenses */\n      dup4\n        /* \"challenges/Consorcio/Consorcio.sol\":2282:2293  _aptAddress */\n      dup4\n        /* \"challenges/Consorcio/Consorcio.sol\":2303:2307  this */\n      address\n        /* \"challenges/Consorcio/Consorcio.sol\":2245:2309  new Tenant(_id, _address, _expenses, _aptAddress, address(this)) */\n      mload(0x40)\n      tag_130\n      swap1\n      tag_131\n      jump\t// in\n    tag_130:\n      tag_132\n      swap6\n      swap5\n      swap4\n      swap3\n      swap2\n      swap1\n      tag_133\n      jump\t// in\n    tag_132:\n      mload(0x40)\n      dup1\n      swap2\n      sub\n      swap1\n      0x00\n      create\n      dup1\n      iszero\n      dup1\n      iszero\n      tag_134\n      jumpi\n      returndatasize\n      0x00\n      dup1\n      returndatacopy\n      revert(0x00, returndatasize)\n    tag_134:\n      pop\n        /* \"challenges/Consorcio/Consorcio.sol\":2235:2242  aTenant */\n      0x05\n      0x00\n        /* \"challenges/Consorcio/Consorcio.sol\":2235:2309  aTenant = new Tenant(_id, _address, _expenses, _aptAddress, address(this)) */\n      0x0100\n      exp\n      dup2\n      sload\n      dup2\n      0xffffffffffffffffffffffffffffffffffffffff\n      mul\n      not\n      and\n      swap1\n      dup4\n      0xffffffffffffffffffffffffffffffffffffffff\n      and\n      mul\n      or\n      swap1\n      sstore\n      pop\n        /* \"challenges/Consorcio/Consorcio.sol\":2320:2330  tenantList */\n      0x02\n        /* \"challenges/Consorcio/Consorcio.sol\":2336:2343  aTenant */\n      0x05\n      0x00\n      swap1\n      sload\n      swap1\n      0x0100\n      exp\n      swap1\n      div\n      0xffffffffffffffffffffffffffffffffffffffff\n      and\n        /* \"challenges/Consorcio/Consorcio.sol\":2320:2344  tenantList.push(aTenant) */\n      swap1\n      dup1\n      0x01\n      dup2\n      sload\n      add\n      dup1\n      dup3\n      sstore\n      dup1\n      swap2\n      pop\n      pop\n      0x01\n      swap1\n      sub\n      swap1\n      0x00\n      mstore\n      keccak256(0x00, 0x20)\n      add\n      0x00\n      swap1\n      swap2\n      swap1\n      swap2\n      swap1\n      swap2\n      0x0100\n      exp\n      dup2\n      sload\n      dup2\n      0xffffffffffffffffffffffffffffffffffffffff\n      mul\n      not\n      and\n      swap1\n      dup4\n      0xffffffffffffffffffffffffffffffffffffffff\n      and\n      mul\n      or\n      swap1\n      sstore\n      pop\n        /* \"challenges/Consorcio/Consorcio.sol\":2123:2352  function addNewTenant(uint _id, address _address, uint _expenses, uint _aptAddress) public onlyOwner {\r... */\n      pop\n      pop\n      pop\n      pop\n      jump\t// out\n        /* \"challenges/Consorcio/Consorcio.sol\":2862:3070  function depositEmployee() public payable {\r... */\n    tag_62:\n        /* \"challenges/Consorcio/Consorcio.sol\":2916:2925  bool sent */\n      0x00\n        /* \"challenges/Consorcio/Consorcio.sol\":2930:2940  anEmployee */\n      0x04\n      0x00\n      swap1\n      sload\n      swap1\n      0x0100\n      exp\n      swap1\n      div\n      0xffffffffffffffffffffffffffffffffffffffff\n      and\n        /* \"challenges/Consorcio/Consorcio.sol\":2930:2951  anEmployee.getAddress */\n      0xffffffffffffffffffffffffffffffffffffffff\n      and\n      0x38cc4831\n        /* \"challenges/Consorcio/Consorcio.sol\":2930:2953  anEmployee.getAddress() */\n      mload(0x40)\n      dup2\n      0xffffffff\n      and\n      0xe0\n      shl\n      dup2\n      mstore\n      0x04\n      add\n      0x20\n      mload(0x40)\n      dup1\n      dup4\n      sub\n      dup2\n      dup7\n      dup1\n      extcodesize\n      iszero\n      dup1\n      iszero\n      tag_137\n      jumpi\n      0x00\n      dup1\n      revert\n    tag_137:\n      pop\n      gas\n      staticcall\n      iszero\n      dup1\n      iszero\n      tag_139\n      jumpi\n      returndatasize\n      0x00\n      dup1\n      returndatacopy\n      revert(0x00, returndatasize)\n    tag_139:\n      pop\n      pop\n      pop\n      pop\n      mload(0x40)\n      returndatasize\n      not(0x1f)\n      0x1f\n      dup3\n      add\n      and\n      dup3\n      add\n      dup1\n      0x40\n      mstore\n      pop\n      dup2\n      add\n      swap1\n      tag_140\n      swap2\n      swap1\n      tag_94\n      jump\t// in\n    tag_140:\n        /* \"challenges/Consorcio/Consorcio.sol\":2930:2958  anEmployee.getAddress().call */\n      0xffffffffffffffffffffffffffffffffffffffff\n      and\n        /* \"challenges/Consorcio/Consorcio.sol\":2967:2976  msg.value */\n      callvalue\n        /* \"challenges/Consorcio/Consorcio.sol\":2930:2981  anEmployee.getAddress().call {value: msg.value}(\"\") */\n      mload(0x40)\n      tag_141\n      swap1\n      tag_96\n      jump\t// in\n    tag_141:\n      0x00\n      mload(0x40)\n      dup1\n      dup4\n      sub\n      dup2\n      dup6\n      dup8\n      gas\n      call\n      swap3\n      pop\n      pop\n      pop\n      returndatasize\n      dup1\n      0x00\n      dup2\n      eq\n      tag_144\n      jumpi\n      mload(0x40)\n      swap2\n      pop\n      and(add(returndatasize, 0x3f), not(0x1f))\n      dup3\n      add\n      0x40\n      mstore\n      returndatasize\n      dup3\n      mstore\n      returndatasize\n      0x00\n      0x20\n      dup5\n      add\n      returndatacopy\n      jump(tag_143)\n    tag_144:\n      0x60\n      swap2\n      pop\n    tag_143:\n      pop\n        /* \"challenges/Consorcio/Consorcio.sol\":2915:2981  (bool sent,) = anEmployee.getAddress().call {value: msg.value}(\"\") */\n      pop\n      swap1\n      pop\n        /* \"challenges/Consorcio/Consorcio.sol\":3011:3015  true */\n      0x01\n        /* \"challenges/Consorcio/Consorcio.sol\":3003:3015  sent == true */\n      iszero\n      iszero\n        /* \"challenges/Consorcio/Consorcio.sol\":3003:3007  sent */\n      dup2\n        /* \"challenges/Consorcio/Consorcio.sol\":3003:3015  sent == true */\n      iszero\n      iszero\n      eq\n        /* \"challenges/Consorcio/Consorcio.sol\":2994:3062  require (sent == true, \"Deposit failed. Try again in some minutes.\") */\n      tag_145\n      jumpi\n      mload(0x40)\n      0x08c379a000000000000000000000000000000000000000000000000000000000\n      dup2\n      mstore\n      0x04\n      add\n      tag_146\n      swap1\n      tag_147\n      jump\t// in\n    tag_146:\n      mload(0x40)\n      dup1\n      swap2\n      sub\n      swap1\n      revert\n    tag_145:\n        /* \"challenges/Consorcio/Consorcio.sol\":2904:3070  {\r... */\n      pop\n        /* \"challenges/Consorcio/Consorcio.sol\":2862:3070  function depositEmployee() public payable {\r... */\n      jump\t// out\n        /* \"challenges/Consorcio/Consorcio.sol\":1771:1839  function payService(uint index) public {\r... */\n    tag_67:\n      pop\n      jump\t// out\n        /* \"challenges/Consorcio/Consorcio.sol\":3078:3158  function tenantWithdrawal() public {\r... */\n    tag_70:\n        /* \"challenges/Consorcio/Consorcio.sol\":3124:3131  aTenant */\n      0x05\n      0x00\n      swap1\n      sload\n      swap1\n      0x0100\n      exp\n      swap1\n      div\n      0xffffffffffffffffffffffffffffffffffffffff\n      and\n        /* \"challenges/Consorcio/Consorcio.sol\":3124:3142  aTenant.withdrawal */\n      0xffffffffffffffffffffffffffffffffffffffff\n      and\n      0x835fc6ca\n        /* \"challenges/Consorcio/Consorcio.sol\":3143:3149  100000 */\n      0x0186a0\n        /* \"challenges/Consorcio/Consorcio.sol\":3124:3150  aTenant.withdrawal(100000) */\n      mload(0x40)\n      dup3\n      0xffffffff\n      and\n      0xe0\n      shl\n      dup2\n      mstore\n      0x04\n      add\n      tag_150\n      swap2\n      swap1\n      tag_151\n      jump\t// in\n    tag_150:\n      0x00\n      mload(0x40)\n      dup1\n      dup4\n      sub\n      dup2\n      0x00\n      dup8\n      dup1\n      extcodesize\n      iszero\n      dup1\n      iszero\n      tag_152\n      jumpi\n      0x00\n      dup1\n      revert\n    tag_152:\n      pop\n      gas\n      call\n      iszero\n      dup1\n      iszero\n      tag_154\n      jumpi\n      returndatasize\n      0x00\n      dup1\n      returndatacopy\n      revert(0x00, returndatasize)\n    tag_154:\n      pop\n      pop\n      pop\n      pop\n        /* \"challenges/Consorcio/Consorcio.sol\":3078:3158  function tenantWithdrawal() public {\r... */\n      jump\t// out\n        /* \"challenges/Consorcio/Consorcio.sol\":1411:1763  function payAllServices() public {\r... */\n    tag_73:\n      jump\t// out\n        /* \"@openzeppelin/contracts/access/Ownable.sol\":2081:2279  function transferOwnership(address newOwner) public virtual onlyOwner {... */\n    tag_78:\n        /* \"@openzeppelin/contracts/access/Ownable.sol\":1094:1107  _checkOwner() */\n      tag_157\n        /* \"@openzeppelin/contracts/access/Ownable.sol\":1094:1105  _checkOwner */\n      tag_105\n        /* \"@openzeppelin/contracts/access/Ownable.sol\":1094:1107  _checkOwner() */\n      jump\t// in\n    tag_157:\n        /* \"@openzeppelin/contracts/access/Ownable.sol\":2189:2190  0 */\n      0x00\n        /* \"@openzeppelin/contracts/access/Ownable.sol\":2169:2191  newOwner != address(0) */\n      0xffffffffffffffffffffffffffffffffffffffff\n      and\n        /* \"@openzeppelin/contracts/access/Ownable.sol\":2169:2177  newOwner */\n      dup2\n        /* \"@openzeppelin/contracts/access/Ownable.sol\":2169:2191  newOwner != address(0) */\n      0xffffffffffffffffffffffffffffffffffffffff\n      and\n      eq\n      iszero\n        /* \"@openzeppelin/contracts/access/Ownable.sol\":2161:2234  require(newOwner != address(0), \"Ownable: new owner is the zero address\") */\n      tag_159\n      jumpi\n      mload(0x40)\n      0x08c379a000000000000000000000000000000000000000000000000000000000\n      dup2\n      mstore\n      0x04\n      add\n      tag_160\n      swap1\n      tag_161\n      jump\t// in\n    tag_160:\n      mload(0x40)\n      dup1\n      swap2\n      sub\n      swap1\n      revert\n    tag_159:\n        /* \"@openzeppelin/contracts/access/Ownable.sol\":2244:2272  _transferOwnership(newOwner) */\n      tag_162\n        /* \"@openzeppelin/contracts/access/Ownable.sol\":2263:2271  newOwner */\n      dup2\n        /* \"@openzeppelin/contracts/access/Ownable.sol\":2244:2262  _transferOwnership */\n      tag_114\n        /* \"@openzeppelin/contracts/access/Ownable.sol\":2244:2272  _transferOwnership(newOwner) */\n      jump\t// in\n    tag_162:\n        /* \"@openzeppelin/contracts/access/Ownable.sol\":2081:2279  function transferOwnership(address newOwner) public virtual onlyOwner {... */\n      pop\n      jump\t// out\n        /* \"@openzeppelin/contracts/access/Ownable.sol\":1359:1489  function _checkOwner() internal view virtual {... */\n    tag_105:\n        /* \"@openzeppelin/contracts/access/Ownable.sol\":1433:1445  _msgSender() */\n      tag_164\n        /* \"@openzeppelin/contracts/access/Ownable.sol\":1433:1443  _msgSender */\n      tag_165\n        /* \"@openzeppelin/contracts/access/Ownable.sol\":1433:1445  _msgSender() */\n      jump\t// in\n    tag_164:\n        /* \"@openzeppelin/contracts/access/Ownable.sol\":1422:1445  owner() == _msgSender() */\n      0xffffffffffffffffffffffffffffffffffffffff\n      and\n        /* \"@openzeppelin/contracts/access/Ownable.sol\":1422:1429  owner() */\n      tag_166\n        /* \"@openzeppelin/contracts/access/Ownable.sol\":1422:1427  owner */\n      tag_54\n        /* \"@openzeppelin/contracts/access/Ownable.sol\":1422:1429  owner() */\n      jump\t// in\n    tag_166:\n        /* \"@openzeppelin/contracts/access/Ownable.sol\":1422:1445  owner() == _msgSender() */\n      0xffffffffffffffffffffffffffffffffffffffff\n      and\n      eq\n        /* \"@openzeppelin/contracts/access/Ownable.sol\":1414:1482  require(owner() == _msgSender(), \"Ownable: caller is not the owner\") */\n      tag_167\n      jumpi\n      mload(0x40)\n      0x08c379a000000000000000000000000000000000000000000000000000000000\n      dup2\n      mstore\n      0x04\n      add\n      tag_168\n      swap1\n      tag_169\n      jump\t// in\n    tag_168:\n      mload(0x40)\n      dup1\n      swap2\n      sub\n      swap1\n      revert\n    tag_167:\n        /* \"@openzeppelin/contracts/access/Ownable.sol\":1359:1489  function _checkOwner() internal view virtual {... */\n      jump\t// out\n        /* \"@openzeppelin/contracts/access/Ownable.sol\":2433:2620  function _transferOwnership(address newOwner) internal virtual {... */\n    tag_114:\n        /* \"@openzeppelin/contracts/access/Ownable.sol\":2506:2522  address oldOwner */\n      0x00\n        /* \"@openzeppelin/contracts/access/Ownable.sol\":2525:2531  _owner */\n      dup1\n      0x00\n      swap1\n      sload\n      swap1\n      0x0100\n      exp\n      swap1\n      div\n      0xffffffffffffffffffffffffffffffffffffffff\n      and\n        /* \"@openzeppelin/contracts/access/Ownable.sol\":2506:2531  address oldOwner = _owner */\n      swap1\n      pop\n        /* \"@openzeppelin/contracts/access/Ownable.sol\":2550:2558  newOwner */\n      dup2\n        /* \"@openzeppelin/contracts/access/Ownable.sol\":2541:2547  _owner */\n      0x00\n      dup1\n        /* \"@openzeppelin/contracts/access/Ownable.sol\":2541:2558  _owner = newOwner */\n      0x0100\n      exp\n      dup2\n      sload\n      dup2\n      0xffffffffffffffffffffffffffffffffffffffff\n      mul\n      not\n      and\n      swap1\n      dup4\n      0xffffffffffffffffffffffffffffffffffffffff\n      and\n      mul\n      or\n      swap1\n      sstore\n      pop\n        /* \"@openzeppelin/contracts/access/Ownable.sol\":2604:2612  newOwner */\n      dup2\n        /* \"@openzeppelin/contracts/access/Ownable.sol\":2573:2613  OwnershipTransferred(oldOwner, newOwner) */\n      0xffffffffffffffffffffffffffffffffffffffff\n      and\n        /* \"@openzeppelin/contracts/access/Ownable.sol\":2594:2602  oldOwner */\n      dup2\n        /* \"@openzeppelin/contracts/access/Ownable.sol\":2573:2613  OwnershipTransferred(oldOwner, newOwner) */\n      0xffffffffffffffffffffffffffffffffffffffff\n      and\n      0x8be0079c531659141344cd1fd0a4f28419497f9722a3daafe3b4186f6b6457e0\n      mload(0x40)\n      mload(0x40)\n      dup1\n      swap2\n      sub\n      swap1\n      log3\n        /* \"@openzeppelin/contracts/access/Ownable.sol\":2496:2620  {... */\n      pop\n        /* \"@openzeppelin/contracts/access/Ownable.sol\":2433:2620  function _transferOwnership(address newOwner) internal virtual {... */\n      pop\n      jump\t// out\n        /* \"@openzeppelin/contracts/utils/Context.sol\":640:736  function _msgSender() internal view virtual returns (address) {... */\n    tag_165:\n        /* \"@openzeppelin/contracts/utils/Context.sol\":693:700  address */\n      0x00\n        /* \"@openzeppelin/contracts/utils/Context.sol\":719:729  msg.sender */\n      caller\n        /* \"@openzeppelin/contracts/utils/Context.sol\":712:729  return msg.sender */\n      swap1\n      pop\n        /* \"@openzeppelin/contracts/utils/Context.sol\":640:736  function _msgSender() internal view virtual returns (address) {... */\n      swap1\n      jump\t// out\n    tag_81:\n      dataSize(sub_0)\n      dup1\n      dataOffset(sub_0)\n      dup4\n      codecopy\n      add\n      swap1\n      jump\t// out\n    tag_119:\n      dup3\n      dup1\n      sload\n      tag_172\n      swap1\n      tag_122\n      jump\t// in\n    tag_172:\n      swap1\n      0x00\n      mstore\n      keccak256(0x00, 0x20)\n      swap1\n      0x1f\n      add\n      0x20\n      swap1\n      div\n      dup2\n      add\n      swap3\n      dup3\n      tag_174\n      jumpi\n      0x00\n      dup6\n      sstore\n      jump(tag_173)\n    tag_174:\n      dup3\n      0x1f\n      lt\n      tag_175\n      jumpi\n      dup1\n      mload\n      not(0xff)\n      and\n      dup4\n      dup1\n      add\n      or\n      dup6\n      sstore\n      jump(tag_173)\n    tag_175:\n      dup3\n      dup1\n      add\n      0x01\n      add\n      dup6\n      sstore\n      dup3\n      iszero\n      tag_173\n      jumpi\n      swap2\n      dup3\n      add\n    tag_176:\n      dup3\n      dup2\n      gt\n      iszero\n      tag_177\n      jumpi\n      dup3\n      mload\n      dup3\n      sstore\n      swap2\n      0x20\n      add\n      swap2\n      swap1\n      0x01\n      add\n      swap1\n      jump(tag_176)\n    tag_177:\n    tag_173:\n      pop\n      swap1\n      pop\n      tag_178\n      swap2\n      swap1\n      tag_179\n      jump\t// in\n    tag_178:\n      pop\n      swap1\n      jump\t// out\n    tag_124:\n      dup3\n      dup1\n      sload\n      tag_180\n      swap1\n      tag_122\n      jump\t// in\n    tag_180:\n      swap1\n      0x00\n      mstore\n      keccak256(0x00, 0x20)\n      swap1\n      0x1f\n      add\n      0x20\n      swap1\n      div\n      dup2\n      add\n      swap3\n      dup3\n      tag_182\n      jumpi\n      0x00\n      dup6\n      sstore\n      jump(tag_181)\n    tag_182:\n      dup3\n      0x1f\n      lt\n      tag_183\n      jumpi\n      dup1\n      sload\n      dup6\n      sstore\n      jump(tag_181)\n    tag_183:\n      dup3\n      dup1\n      add\n      0x01\n      add\n      dup6\n      sstore\n      dup3\n      iszero\n      tag_181\n      jumpi\n      0x00\n      mstore\n      keccak256(0x00, 0x20)\n      swap2\n      0x1f\n      add\n      0x20\n      swap1\n      div\n      dup3\n      add\n    tag_184:\n      dup3\n      dup2\n      gt\n      iszero\n      tag_185\n      jumpi\n      dup3\n      sload\n      dup3\n      sstore\n      swap2\n      0x01\n      add\n      swap2\n      swap1\n      0x01\n      add\n      swap1\n      jump(tag_184)\n    tag_185:\n    tag_181:\n      pop\n      swap1\n      pop\n      tag_186\n      swap2\n      swap1\n      tag_179\n      jump\t// in\n    tag_186:\n      pop\n      swap1\n      jump\t// out\n    tag_131:\n      dataSize(sub_1)\n      dup1\n      dataOffset(sub_1)\n      dup4\n      codecopy\n      add\n      swap1\n      jump\t// out\n    tag_179:\n    tag_187:\n      dup1\n      dup3\n      gt\n      iszero\n      tag_188\n      jumpi\n      0x00\n      dup2\n      0x00\n      swap1\n      sstore\n      pop\n      0x01\n      add\n      jump(tag_187)\n    tag_188:\n      pop\n      swap1\n      jump\t// out\n        /* \"#utility.yul\":7:419   */\n    tag_190:\n        /* \"#utility.yul\":85:90   */\n      0x00\n        /* \"#utility.yul\":110:176   */\n      tag_192\n        /* \"#utility.yul\":126:175   */\n      tag_193\n        /* \"#utility.yul\":168:174   */\n      dup5\n        /* \"#utility.yul\":126:175   */\n      tag_194\n      jump\t// in\n    tag_193:\n        /* \"#utility.yul\":110:176   */\n      tag_195\n      jump\t// in\n    tag_192:\n        /* \"#utility.yul\":101:176   */\n      swap1\n      pop\n        /* \"#utility.yul\":199:205   */\n      dup3\n        /* \"#utility.yul\":192:197   */\n      dup2\n        /* \"#utility.yul\":185:206   */\n      mstore\n        /* \"#utility.yul\":237:241   */\n      0x20\n        /* \"#utility.yul\":230:235   */\n      dup2\n        /* \"#utility.yul\":226:242   */\n      add\n        /* \"#utility.yul\":275:278   */\n      dup5\n        /* \"#utility.yul\":266:272   */\n      dup5\n        /* \"#utility.yul\":261:264   */\n      dup5\n        /* \"#utility.yul\":257:273   */\n      add\n        /* \"#utility.yul\":254:279   */\n      gt\n        /* \"#utility.yul\":251:363   */\n      iszero\n      tag_196\n      jumpi\n        /* \"#utility.yul\":282:361   */\n      tag_197\n      tag_198\n      jump\t// in\n    tag_197:\n        /* \"#utility.yul\":251:363   */\n    tag_196:\n        /* \"#utility.yul\":372:413   */\n      tag_199\n        /* \"#utility.yul\":406:412   */\n      dup5\n        /* \"#utility.yul\":401:404   */\n      dup3\n        /* \"#utility.yul\":396:399   */\n      dup6\n        /* \"#utility.yul\":372:413   */\n      tag_200\n      jump\t// in\n    tag_199:\n        /* \"#utility.yul\":91:419   */\n      pop\n        /* \"#utility.yul\":7:419   */\n      swap4\n      swap3\n      pop\n      pop\n      pop\n      jump\t// out\n        /* \"#utility.yul\":425:564   */\n    tag_201:\n        /* \"#utility.yul\":471:476   */\n      0x00\n        /* \"#utility.yul\":509:515   */\n      dup2\n        /* \"#utility.yul\":496:516   */\n      calldataload\n        /* \"#utility.yul\":487:516   */\n      swap1\n      pop\n        /* \"#utility.yul\":525:558   */\n      tag_203\n        /* \"#utility.yul\":552:557   */\n      dup2\n        /* \"#utility.yul\":525:558   */\n      tag_204\n      jump\t// in\n    tag_203:\n        /* \"#utility.yul\":425:564   */\n      swap3\n      swap2\n      pop\n      pop\n      jump\t// out\n        /* \"#utility.yul\":570:713   */\n    tag_205:\n        /* \"#utility.yul\":627:632   */\n      0x00\n        /* \"#utility.yul\":658:664   */\n      dup2\n        /* \"#utility.yul\":652:665   */\n      mload\n        /* \"#utility.yul\":643:665   */\n      swap1\n      pop\n        /* \"#utility.yul\":674:707   */\n      tag_207\n        /* \"#utility.yul\":701:706   */\n      dup2\n        /* \"#utility.yul\":674:707   */\n      tag_204\n      jump\t// in\n    tag_207:\n        /* \"#utility.yul\":570:713   */\n      swap3\n      swap2\n      pop\n      pop\n      jump\t// out\n        /* \"#utility.yul\":733:1073   */\n    tag_208:\n        /* \"#utility.yul\":789:794   */\n      0x00\n        /* \"#utility.yul\":838:841   */\n      dup3\n        /* \"#utility.yul\":831:835   */\n      0x1f\n        /* \"#utility.yul\":823:829   */\n      dup4\n        /* \"#utility.yul\":819:836   */\n      add\n        /* \"#utility.yul\":815:842   */\n      slt\n        /* \"#utility.yul\":805:927   */\n      tag_210\n      jumpi\n        /* \"#utility.yul\":846:925   */\n      tag_211\n      tag_212\n      jump\t// in\n    tag_211:\n        /* \"#utility.yul\":805:927   */\n    tag_210:\n        /* \"#utility.yul\":963:969   */\n      dup2\n        /* \"#utility.yul\":950:970   */\n      calldataload\n        /* \"#utility.yul\":988:1067   */\n      tag_213\n        /* \"#utility.yul\":1063:1066   */\n      dup5\n        /* \"#utility.yul\":1055:1061   */\n      dup3\n        /* \"#utility.yul\":1048:1052   */\n      0x20\n        /* \"#utility.yul\":1040:1046   */\n      dup7\n        /* \"#utility.yul\":1036:1053   */\n      add\n        /* \"#utility.yul\":988:1067   */\n      tag_190\n      jump\t// in\n    tag_213:\n        /* \"#utility.yul\":979:1067   */\n      swap2\n      pop\n        /* \"#utility.yul\":795:1073   */\n      pop\n        /* \"#utility.yul\":733:1073   */\n      swap3\n      swap2\n      pop\n      pop\n      jump\t// out\n        /* \"#utility.yul\":1079:1218   */\n    tag_214:\n        /* \"#utility.yul\":1125:1130   */\n      0x00\n        /* \"#utility.yul\":1163:1169   */\n      dup2\n        /* \"#utility.yul\":1150:1170   */\n      calldataload\n        /* \"#utility.yul\":1141:1170   */\n      swap1\n      pop\n        /* \"#utility.yul\":1179:1212   */\n      tag_216\n        /* \"#utility.yul\":1206:1211   */\n      dup2\n        /* \"#utility.yul\":1179:1212   */\n      tag_217\n      jump\t// in\n    tag_216:\n        /* \"#utility.yul\":1079:1218   */\n      swap3\n      swap2\n      pop\n      pop\n      jump\t// out\n        /* \"#utility.yul\":1224:1553   */\n    tag_77:\n        /* \"#utility.yul\":1283:1289   */\n      0x00\n        /* \"#utility.yul\":1332:1334   */\n      0x20\n        /* \"#utility.yul\":1320:1329   */\n      dup3\n        /* \"#utility.yul\":1311:1318   */\n      dup5\n        /* \"#utility.yul\":1307:1330   */\n      sub\n        /* \"#utility.yul\":1303:1335   */\n      slt\n        /* \"#utility.yul\":1300:1419   */\n      iszero\n      tag_219\n      jumpi\n        /* \"#utility.yul\":1338:1417   */\n      tag_220\n      tag_221\n      jump\t// in\n    tag_220:\n        /* \"#utility.yul\":1300:1419   */\n    tag_219:\n        /* \"#utility.yul\":1458:1459   */\n      0x00\n        /* \"#utility.yul\":1483:1536   */\n      tag_222\n        /* \"#utility.yul\":1528:1535   */\n      dup5\n        /* \"#utility.yul\":1519:1525   */\n      dup3\n        /* \"#utility.yul\":1508:1517   */\n      dup6\n        /* \"#utility.yul\":1504:1526   */\n      add\n        /* \"#utility.yul\":1483:1536   */\n      tag_201\n      jump\t// in\n    tag_222:\n        /* \"#utility.yul\":1473:1536   */\n      swap2\n      pop\n        /* \"#utility.yul\":1429:1546   */\n      pop\n        /* \"#utility.yul\":1224:1553   */\n      swap3\n      swap2\n      pop\n      pop\n      jump\t// out\n        /* \"#utility.yul\":1559:1910   */\n    tag_94:\n        /* \"#utility.yul\":1629:1635   */\n      0x00\n        /* \"#utility.yul\":1678:1680   */\n      0x20\n        /* \"#utility.yul\":1666:1675   */\n      dup3\n        /* \"#utility.yul\":1657:1664   */\n      dup5\n        /* \"#utility.yul\":1653:1676   */\n      sub\n        /* \"#utility.yul\":1649:1681   */\n      slt\n        /* \"#utility.yul\":1646:1765   */\n      iszero\n      tag_224\n      jumpi\n        /* \"#utility.yul\":1684:1763   */\n      tag_225\n      tag_221\n      jump\t// in\n    tag_225:\n        /* \"#utility.yul\":1646:1765   */\n    tag_224:\n        /* \"#utility.yul\":1804:1805   */\n      0x00\n        /* \"#utility.yul\":1829:1893   */\n      tag_226\n        /* \"#utility.yul\":1885:1892   */\n      dup5\n        /* \"#utility.yul\":1876:1882   */\n      dup3\n        /* \"#utility.yul\":1865:1874   */\n      dup6\n        /* \"#utility.yul\":1861:1883   */\n      add\n        /* \"#utility.yul\":1829:1893   */\n      tag_205\n      jump\t// in\n    tag_226:\n        /* \"#utility.yul\":1819:1893   */\n      swap2\n      pop\n        /* \"#utility.yul\":1775:1903   */\n      pop\n        /* \"#utility.yul\":1559:1910   */\n      swap3\n      swap2\n      pop\n      pop\n      jump\t// out\n        /* \"#utility.yul\":1916:2570   */\n    tag_45:\n        /* \"#utility.yul\":1994:2000   */\n      0x00\n        /* \"#utility.yul\":2002:2008   */\n      dup1\n        /* \"#utility.yul\":2051:2053   */\n      0x40\n        /* \"#utility.yul\":2039:2048   */\n      dup4\n        /* \"#utility.yul\":2030:2037   */\n      dup6\n        /* \"#utility.yul\":2026:2049   */\n      sub\n        /* \"#utility.yul\":2022:2054   */\n      slt\n        /* \"#utility.yul\":2019:2138   */\n      iszero\n      tag_228\n      jumpi\n        /* \"#utility.yul\":2057:2136   */\n      tag_229\n      tag_221\n      jump\t// in\n    tag_229:\n        /* \"#utility.yul\":2019:2138   */\n    tag_228:\n        /* \"#utility.yul\":2205:2206   */\n      0x00\n        /* \"#utility.yul\":2194:2203   */\n      dup4\n        /* \"#utility.yul\":2190:2207   */\n      add\n        /* \"#utility.yul\":2177:2208   */\n      calldataload\n        /* \"#utility.yul\":2235:2253   */\n      0xffffffffffffffff\n        /* \"#utility.yul\":2227:2233   */\n      dup2\n        /* \"#utility.yul\":2224:2254   */\n      gt\n        /* \"#utility.yul\":2221:2338   */\n      iszero\n      tag_230\n      jumpi\n        /* \"#utility.yul\":2257:2336   */\n      tag_231\n      tag_232\n      jump\t// in\n    tag_231:\n        /* \"#utility.yul\":2221:2338   */\n    tag_230:\n        /* \"#utility.yul\":2362:2425   */\n      tag_233\n        /* \"#utility.yul\":2417:2424   */\n      dup6\n        /* \"#utility.yul\":2408:2414   */\n      dup3\n        /* \"#utility.yul\":2397:2406   */\n      dup7\n        /* \"#utility.yul\":2393:2415   */\n      add\n        /* \"#utility.yul\":2362:2425   */\n      tag_208\n      jump\t// in\n    tag_233:\n        /* \"#utility.yul\":2352:2425   */\n      swap3\n      pop\n        /* \"#utility.yul\":2148:2435   */\n      pop\n        /* \"#utility.yul\":2474:2476   */\n      0x20\n        /* \"#utility.yul\":2500:2553   */\n      tag_234\n        /* \"#utility.yul\":2545:2552   */\n      dup6\n        /* \"#utility.yul\":2536:2542   */\n      dup3\n        /* \"#utility.yul\":2525:2534   */\n      dup7\n        /* \"#utility.yul\":2521:2543   */\n      add\n        /* \"#utility.yul\":2500:2553   */\n      tag_214\n      jump\t// in\n    tag_234:\n        /* \"#utility.yul\":2490:2553   */\n      swap2\n      pop\n        /* \"#utility.yul\":2445:2563   */\n      pop\n        /* \"#utility.yul\":1916:2570   */\n      swap3\n      pop\n      swap3\n      swap1\n      pop\n      jump\t// out\n        /* \"#utility.yul\":2576:2905   */\n    tag_66:\n        /* \"#utility.yul\":2635:2641   */\n      0x00\n        /* \"#utility.yul\":2684:2686   */\n      0x20\n        /* \"#utility.yul\":2672:2681   */\n      dup3\n        /* \"#utility.yul\":2663:2670   */\n      dup5\n        /* \"#utility.yul\":2659:2682   */\n      sub\n        /* \"#utility.yul\":2655:2687   */\n      slt\n        /* \"#utility.yul\":2652:2771   */\n      iszero\n      tag_236\n      jumpi\n        /* \"#utility.yul\":2690:2769   */\n      tag_237\n      tag_221\n      jump\t// in\n    tag_237:\n        /* \"#utility.yul\":2652:2771   */\n    tag_236:\n        /* \"#utility.yul\":2810:2811   */\n      0x00\n        /* \"#utility.yul\":2835:2888   */\n      tag_238\n        /* \"#utility.yul\":2880:2887   */\n      dup5\n        /* \"#utility.yul\":2871:2877   */\n      dup3\n        /* \"#utility.yul\":2860:2869   */\n      dup6\n        /* \"#utility.yul\":2856:2878   */\n      add\n        /* \"#utility.yul\":2835:2888   */\n      tag_214\n      jump\t// in\n    tag_238:\n        /* \"#utility.yul\":2825:2888   */\n      swap2\n      pop\n        /* \"#utility.yul\":2781:2898   */\n      pop\n        /* \"#utility.yul\":2576:2905   */\n      swap3\n      swap2\n      pop\n      pop\n      jump\t// out\n        /* \"#utility.yul\":2911:4182   */\n    tag_27:\n        /* \"#utility.yul\":3026:3032   */\n      0x00\n        /* \"#utility.yul\":3034:3040   */\n      dup1\n        /* \"#utility.yul\":3042:3048   */\n      0x00\n        /* \"#utility.yul\":3050:3056   */\n      dup1\n        /* \"#utility.yul\":3058:3064   */\n      0x00\n        /* \"#utility.yul\":3107:3110   */\n      0xa0\n        /* \"#utility.yul\":3095:3104   */\n      dup7\n        /* \"#utility.yul\":3086:3093   */\n      dup9\n        /* \"#utility.yul\":3082:3105   */\n      sub\n        /* \"#utility.yul\":3078:3111   */\n      slt\n        /* \"#utility.yul\":3075:3195   */\n      iszero\n      tag_240\n      jumpi\n        /* \"#utility.yul\":3114:3193   */\n      tag_241\n      tag_221\n      jump\t// in\n    tag_241:\n        /* \"#utility.yul\":3075:3195   */\n    tag_240:\n        /* \"#utility.yul\":3234:3235   */\n      0x00\n        /* \"#utility.yul\":3259:3312   */\n      tag_242\n        /* \"#utility.yul\":3304:3311   */\n      dup9\n        /* \"#utility.yul\":3295:3301   */\n      dup3\n        /* \"#utility.yul\":3284:3293   */\n      dup10\n        /* \"#utility.yul\":3280:3302   */\n      add\n        /* \"#utility.yul\":3259:3312   */\n      tag_214\n      jump\t// in\n    tag_242:\n        /* \"#utility.yul\":3249:3312   */\n      swap6\n      pop\n        /* \"#utility.yul\":3205:3322   */\n      pop\n        /* \"#utility.yul\":3361:3363   */\n      0x20\n        /* \"#utility.yul\":3387:3440   */\n      tag_243\n        /* \"#utility.yul\":3432:3439   */\n      dup9\n        /* \"#utility.yul\":3423:3429   */\n      dup3\n        /* \"#utility.yul\":3412:3421   */\n      dup10\n        /* \"#utility.yul\":3408:3430   */\n      add\n        /* \"#utility.yul\":3387:3440   */\n      tag_201\n      jump\t// in\n    tag_243:\n        /* \"#utility.yul\":3377:3440   */\n      swap5\n      pop\n        /* \"#utility.yul\":3332:3450   */\n      pop\n        /* \"#utility.yul\":3517:3519   */\n      0x40\n        /* \"#utility.yul\":3506:3515   */\n      dup7\n        /* \"#utility.yul\":3502:3520   */\n      add\n        /* \"#utility.yul\":3489:3521   */\n      calldataload\n        /* \"#utility.yul\":3548:3566   */\n      0xffffffffffffffff\n        /* \"#utility.yul\":3540:3546   */\n      dup2\n        /* \"#utility.yul\":3537:3567   */\n      gt\n        /* \"#utility.yul\":3534:3651   */\n      iszero\n      tag_244\n      jumpi\n        /* \"#utility.yul\":3570:3649   */\n      tag_245\n      tag_232\n      jump\t// in\n    tag_245:\n        /* \"#utility.yul\":3534:3651   */\n    tag_244:\n        /* \"#utility.yul\":3675:3738   */\n      tag_246\n        /* \"#utility.yul\":3730:3737   */\n      dup9\n        /* \"#utility.yul\":3721:3727   */\n      dup3\n        /* \"#utility.yul\":3710:3719   */\n      dup10\n        /* \"#utility.yul\":3706:3728   */\n      add\n        /* \"#utility.yul\":3675:3738   */\n      tag_208\n      jump\t// in\n    tag_246:\n        /* \"#utility.yul\":3665:3738   */\n      swap4\n      pop\n        /* \"#utility.yul\":3460:3748   */\n      pop\n        /* \"#utility.yul\":3815:3817   */\n      0x60\n        /* \"#utility.yul\":3804:3813   */\n      dup7\n        /* \"#utility.yul\":3800:3818   */\n      add\n        /* \"#utility.yul\":3787:3819   */\n      calldataload\n        /* \"#utility.yul\":3846:3864   */\n      0xffffffffffffffff\n        /* \"#utility.yul\":3838:3844   */\n      dup2\n        /* \"#utility.yul\":3835:3865   */\n      gt\n        /* \"#utility.yul\":3832:3949   */\n      iszero\n      tag_247\n      jumpi\n        /* \"#utility.yul\":3868:3947   */\n      tag_248\n      tag_232\n      jump\t// in\n    tag_248:\n        /* \"#utility.yul\":3832:3949   */\n    tag_247:\n        /* \"#utility.yul\":3973:4036   */\n      tag_249\n        /* \"#utility.yul\":4028:4035   */\n      dup9\n        /* \"#utility.yul\":4019:4025   */\n      dup3\n        /* \"#utility.yul\":4008:4017   */\n      dup10\n        /* \"#utility.yul\":4004:4026   */\n      add\n        /* \"#utility.yul\":3973:4036   */\n      tag_208\n      jump\t// in\n    tag_249:\n        /* \"#utility.yul\":3963:4036   */\n      swap3\n      pop\n        /* \"#utility.yul\":3758:4046   */\n      pop\n        /* \"#utility.yul\":4085:4088   */\n      0x80\n        /* \"#utility.yul\":4112:4165   */\n      tag_250\n        /* \"#utility.yul\":4157:4164   */\n      dup9\n        /* \"#utility.yul\":4148:4154   */\n      dup3\n        /* \"#utility.yul\":4137:4146   */\n      dup10\n        /* \"#utility.yul\":4133:4155   */\n      add\n        /* \"#utility.yul\":4112:4165   */\n      tag_214\n      jump\t// in\n    tag_250:\n        /* \"#utility.yul\":4102:4165   */\n      swap2\n      pop\n        /* \"#utility.yul\":4056:4175   */\n      pop\n        /* \"#utility.yul\":2911:4182   */\n      swap3\n      swap6\n      pop\n      swap3\n      swap6\n      swap1\n      swap4\n      pop\n      jump\t// out\n        /* \"#utility.yul\":4188:4953   */\n    tag_59:\n        /* \"#utility.yul\":4274:4280   */\n      0x00\n        /* \"#utility.yul\":4282:4288   */\n      dup1\n        /* \"#utility.yul\":4290:4296   */\n      0x00\n        /* \"#utility.yul\":4298:4304   */\n      dup1\n        /* \"#utility.yul\":4347:4350   */\n      0x80\n        /* \"#utility.yul\":4335:4344   */\n      dup6\n        /* \"#utility.yul\":4326:4333   */\n      dup8\n        /* \"#utility.yul\":4322:4345   */\n      sub\n        /* \"#utility.yul\":4318:4351   */\n      slt\n        /* \"#utility.yul\":4315:4435   */\n      iszero\n      tag_252\n      jumpi\n        /* \"#utility.yul\":4354:4433   */\n      tag_253\n      tag_221\n      jump\t// in\n    tag_253:\n        /* \"#utility.yul\":4315:4435   */\n    tag_252:\n        /* \"#utility.yul\":4474:4475   */\n      0x00\n        /* \"#utility.yul\":4499:4552   */\n      tag_254\n        /* \"#utility.yul\":4544:4551   */\n      dup8\n        /* \"#utility.yul\":4535:4541   */\n      dup3\n        /* \"#utility.yul\":4524:4533   */\n      dup9\n        /* \"#utility.yul\":4520:4542   */\n      add\n        /* \"#utility.yul\":4499:4552   */\n      tag_214\n      jump\t// in\n    tag_254:\n        /* \"#utility.yul\":4489:4552   */\n      swap5\n      pop\n        /* \"#utility.yul\":4445:4562   */\n      pop\n        /* \"#utility.yul\":4601:4603   */\n      0x20\n        /* \"#utility.yul\":4627:4680   */\n      tag_255\n        /* \"#utility.yul\":4672:4679   */\n      dup8\n        /* \"#utility.yul\":4663:4669   */\n      dup3\n        /* \"#utility.yul\":4652:4661   */\n      dup9\n        /* \"#utility.yul\":4648:4670   */\n      add\n        /* \"#utility.yul\":4627:4680   */\n      tag_201\n      jump\t// in\n    tag_255:\n        /* \"#utility.yul\":4617:4680   */\n      swap4\n      pop\n        /* \"#utility.yul\":4572:4690   */\n      pop\n        /* \"#utility.yul\":4729:4731   */\n      0x40\n        /* \"#utility.yul\":4755:4808   */\n      tag_256\n        /* \"#utility.yul\":4800:4807   */\n      dup8\n        /* \"#utility.yul\":4791:4797   */\n      dup3\n        /* \"#utility.yul\":4780:4789   */\n      dup9\n        /* \"#utility.yul\":4776:4798   */\n      add\n        /* \"#utility.yul\":4755:4808   */\n      tag_214\n      jump\t// in\n    tag_256:\n        /* \"#utility.yul\":4745:4808   */\n      swap3\n      pop\n        /* \"#utility.yul\":4700:4818   */\n      pop\n        /* \"#utility.yul\":4857:4859   */\n      0x60\n        /* \"#utility.yul\":4883:4936   */\n      tag_257\n        /* \"#utility.yul\":4928:4935   */\n      dup8\n        /* \"#utility.yul\":4919:4925   */\n      dup3\n        /* \"#utility.yul\":4908:4917   */\n      dup9\n        /* \"#utility.yul\":4904:4926   */\n      add\n        /* \"#utility.yul\":4883:4936   */\n      tag_214\n      jump\t// in\n    tag_257:\n        /* \"#utility.yul\":4873:4936   */\n      swap2\n      pop\n        /* \"#utility.yul\":4828:4946   */\n      pop\n        /* \"#utility.yul\":4188:4953   */\n      swap3\n      swap6\n      swap2\n      swap5\n      pop\n      swap3\n      pop\n      jump\t// out\n        /* \"#utility.yul\":4959:5186   */\n    tag_258:\n        /* \"#utility.yul\":5052:5062   */\n      0x00\n        /* \"#utility.yul\":5073:5143   */\n      tag_260\n        /* \"#utility.yul\":5139:5142   */\n      dup4\n        /* \"#utility.yul\":5131:5137   */\n      dup4\n        /* \"#utility.yul\":5073:5143   */\n      tag_261\n      jump\t// in\n    tag_260:\n        /* \"#utility.yul\":5175:5179   */\n      0x20\n        /* \"#utility.yul\":5170:5173   */\n      dup4\n        /* \"#utility.yul\":5166:5180   */\n      add\n        /* \"#utility.yul\":5152:5180   */\n      swap1\n      pop\n        /* \"#utility.yul\":4959:5186   */\n      swap3\n      swap2\n      pop\n      pop\n      jump\t// out\n        /* \"#utility.yul\":5192:5310   */\n    tag_262:\n        /* \"#utility.yul\":5279:5303   */\n      tag_264\n        /* \"#utility.yul\":5297:5302   */\n      dup2\n        /* \"#utility.yul\":5279:5303   */\n      tag_265\n      jump\t// in\n    tag_264:\n        /* \"#utility.yul\":5274:5277   */\n      dup3\n        /* \"#utility.yul\":5267:5304   */\n      mstore\n        /* \"#utility.yul\":5192:5310   */\n      pop\n      pop\n      jump\t// out\n        /* \"#utility.yul\":5364:6200   */\n    tag_266:\n        /* \"#utility.yul\":5507:5510   */\n      0x00\n        /* \"#utility.yul\":5536:5606   */\n      tag_268\n        /* \"#utility.yul\":5600:5605   */\n      dup3\n        /* \"#utility.yul\":5536:5606   */\n      tag_269\n      jump\t// in\n    tag_268:\n        /* \"#utility.yul\":5622:5716   */\n      tag_270\n        /* \"#utility.yul\":5709:5715   */\n      dup2\n        /* \"#utility.yul\":5704:5707   */\n      dup6\n        /* \"#utility.yul\":5622:5716   */\n      tag_271\n      jump\t// in\n    tag_270:\n        /* \"#utility.yul\":5615:5716   */\n      swap4\n      pop\n        /* \"#utility.yul\":5740:5812   */\n      tag_272\n        /* \"#utility.yul\":5806:5811   */\n      dup4\n        /* \"#utility.yul\":5740:5812   */\n      tag_273\n      jump\t// in\n    tag_272:\n        /* \"#utility.yul\":5835:5842   */\n      dup1\n        /* \"#utility.yul\":5866:5867   */\n      0x00\n        /* \"#utility.yul\":5851:6175   */\n    tag_274:\n        /* \"#utility.yul\":5876:5882   */\n      dup4\n        /* \"#utility.yul\":5873:5874   */\n      dup2\n        /* \"#utility.yul\":5870:5883   */\n      lt\n        /* \"#utility.yul\":5851:6175   */\n      iszero\n      tag_276\n      jumpi\n        /* \"#utility.yul\":5952:5958   */\n      dup2\n        /* \"#utility.yul\":5946:5959   */\n      mload\n        /* \"#utility.yul\":5979:6066   */\n      tag_277\n        /* \"#utility.yul\":6062:6065   */\n      dup9\n        /* \"#utility.yul\":6047:6060   */\n      dup3\n        /* \"#utility.yul\":5979:6066   */\n      tag_258\n      jump\t// in\n    tag_277:\n        /* \"#utility.yul\":5972:6066   */\n      swap8\n      pop\n        /* \"#utility.yul\":6089:6165   */\n      tag_278\n        /* \"#utility.yul\":6158:6164   */\n      dup4\n        /* \"#utility.yul\":6089:6165   */\n      tag_279\n      jump\t// in\n    tag_278:\n        /* \"#utility.yul\":6079:6165   */\n      swap3\n      pop\n        /* \"#utility.yul\":5911:6175   */\n      pop\n        /* \"#utility.yul\":5898:5899   */\n      0x01\n        /* \"#utility.yul\":5895:5896   */\n      dup2\n        /* \"#utility.yul\":5891:5900   */\n      add\n        /* \"#utility.yul\":5886:5900   */\n      swap1\n      pop\n        /* \"#utility.yul\":5851:6175   */\n      jump(tag_274)\n    tag_276:\n        /* \"#utility.yul\":5855:5869   */\n      pop\n        /* \"#utility.yul\":6191:6194   */\n      dup6\n        /* \"#utility.yul\":6184:6194   */\n      swap4\n      pop\n        /* \"#utility.yul\":5512:6200   */\n      pop\n      pop\n      pop\n        /* \"#utility.yul\":5364:6200   */\n      swap3\n      swap2\n      pop\n      pop\n      jump\t// out\n        /* \"#utility.yul\":6206:6375   */\n    tag_261:\n        /* \"#utility.yul\":6307:6368   */\n      tag_281\n        /* \"#utility.yul\":6362:6367   */\n      dup2\n        /* \"#utility.yul\":6307:6368   */\n      tag_282\n      jump\t// in\n    tag_281:\n        /* \"#utility.yul\":6302:6305   */\n      dup3\n        /* \"#utility.yul\":6295:6369   */\n      mstore\n        /* \"#utility.yul\":6206:6375   */\n      pop\n      pop\n      jump\t// out\n        /* \"#utility.yul\":6381:6538   */\n    tag_283:\n        /* \"#utility.yul\":6481:6531   */\n      tag_285\n        /* \"#utility.yul\":6525:6530   */\n      dup2\n        /* \"#utility.yul\":6481:6531   */\n      tag_286\n      jump\t// in\n    tag_285:\n        /* \"#utility.yul\":6476:6479   */\n      dup3\n        /* \"#utility.yul\":6469:6532   */\n      mstore\n        /* \"#utility.yul\":6381:6538   */\n      pop\n      pop\n      jump\t// out\n        /* \"#utility.yul\":6544:6908   */\n    tag_287:\n        /* \"#utility.yul\":6632:6635   */\n      0x00\n        /* \"#utility.yul\":6660:6699   */\n      tag_289\n        /* \"#utility.yul\":6693:6698   */\n      dup3\n        /* \"#utility.yul\":6660:6699   */\n      tag_290\n      jump\t// in\n    tag_289:\n        /* \"#utility.yul\":6715:6786   */\n      tag_291\n        /* \"#utility.yul\":6779:6785   */\n      dup2\n        /* \"#utility.yul\":6774:6777   */\n      dup6\n        /* \"#utility.yul\":6715:6786   */\n      tag_292\n      jump\t// in\n    tag_291:\n        /* \"#utility.yul\":6708:6786   */\n      swap4\n      pop\n        /* \"#utility.yul\":6795:6847   */\n      tag_293\n        /* \"#utility.yul\":6840:6846   */\n      dup2\n        /* \"#utility.yul\":6835:6838   */\n      dup6\n        /* \"#utility.yul\":6828:6832   */\n      0x20\n        /* \"#utility.yul\":6821:6826   */\n      dup7\n        /* \"#utility.yul\":6817:6833   */\n      add\n        /* \"#utility.yul\":6795:6847   */\n      tag_294\n      jump\t// in\n    tag_293:\n        /* \"#utility.yul\":6872:6901   */\n      tag_295\n        /* \"#utility.yul\":6894:6900   */\n      dup2\n        /* \"#utility.yul\":6872:6901   */\n      tag_296\n      jump\t// in\n    tag_295:\n        /* \"#utility.yul\":6867:6870   */\n      dup5\n        /* \"#utility.yul\":6863:6902   */\n      add\n        /* \"#utility.yul\":6856:6902   */\n      swap2\n      pop\n        /* \"#utility.yul\":6636:6908   */\n      pop\n        /* \"#utility.yul\":6544:6908   */\n      swap3\n      swap2\n      pop\n      pop\n      jump\t// out\n        /* \"#utility.yul\":6914:7280   */\n    tag_297:\n        /* \"#utility.yul\":7056:7059   */\n      0x00\n        /* \"#utility.yul\":7077:7144   */\n      tag_299\n        /* \"#utility.yul\":7141:7143   */\n      0x26\n        /* \"#utility.yul\":7136:7139   */\n      dup4\n        /* \"#utility.yul\":7077:7144   */\n      tag_292\n      jump\t// in\n    tag_299:\n        /* \"#utility.yul\":7070:7144   */\n      swap2\n      pop\n        /* \"#utility.yul\":7153:7246   */\n      tag_300\n        /* \"#utility.yul\":7242:7245   */\n      dup3\n        /* \"#utility.yul\":7153:7246   */\n      tag_301\n      jump\t// in\n    tag_300:\n        /* \"#utility.yul\":7271:7273   */\n      0x40\n        /* \"#utility.yul\":7266:7269   */\n      dup3\n        /* \"#utility.yul\":7262:7274   */\n      add\n        /* \"#utility.yul\":7255:7274   */\n      swap1\n      pop\n        /* \"#utility.yul\":6914:7280   */\n      swap2\n      swap1\n      pop\n      jump\t// out\n        /* \"#utility.yul\":7286:7652   */\n    tag_302:\n        /* \"#utility.yul\":7428:7431   */\n      0x00\n        /* \"#utility.yul\":7449:7516   */\n      tag_304\n        /* \"#utility.yul\":7513:7515   */\n      0x2b\n        /* \"#utility.yul\":7508:7511   */\n      dup4\n        /* \"#utility.yul\":7449:7516   */\n      tag_292\n      jump\t// in\n    tag_304:\n        /* \"#utility.yul\":7442:7516   */\n      swap2\n      pop\n        /* \"#utility.yul\":7525:7618   */\n      tag_305\n        /* \"#utility.yul\":7614:7617   */\n      dup3\n        /* \"#utility.yul\":7525:7618   */\n      tag_306\n      jump\t// in\n    tag_305:\n        /* \"#utility.yul\":7643:7645   */\n      0x40\n        /* \"#utility.yul\":7638:7641   */\n      dup3\n        /* \"#utility.yul\":7634:7646   */\n      add\n        /* \"#utility.yul\":7627:7646   */\n      swap1\n      pop\n        /* \"#utility.yul\":7286:7652   */\n      swap2\n      swap1\n      pop\n      jump\t// out\n        /* \"#utility.yul\":7658:8024   */\n    tag_307:\n        /* \"#utility.yul\":7800:7803   */\n      0x00\n        /* \"#utility.yul\":7821:7888   */\n      tag_309\n        /* \"#utility.yul\":7885:7887   */\n      0x2a\n        /* \"#utility.yul\":7880:7883   */\n      dup4\n        /* \"#utility.yul\":7821:7888   */\n      tag_292\n      jump\t// in\n    tag_309:\n        /* \"#utility.yul\":7814:7888   */\n      swap2\n      pop\n        /* \"#utility.yul\":7897:7990   */\n      tag_310\n        /* \"#utility.yul\":7986:7989   */\n      dup3\n        /* \"#utility.yul\":7897:7990   */\n      tag_311\n      jump\t// in\n    tag_310:\n        /* \"#utility.yul\":8015:8017   */\n      0x40\n        /* \"#utility.yul\":8010:8013   */\n      dup3\n        /* \"#utility.yul\":8006:8018   */\n      add\n        /* \"#utility.yul\":7999:8018   */\n      swap1\n      pop\n        /* \"#utility.yul\":7658:8024   */\n      swap2\n      swap1\n      pop\n      jump\t// out\n        /* \"#utility.yul\":8030:8396   */\n    tag_312:\n        /* \"#utility.yul\":8172:8175   */\n      0x00\n        /* \"#utility.yul\":8193:8260   */\n      tag_314\n        /* \"#utility.yul\":8257:8259   */\n      0x12\n        /* \"#utility.yul\":8252:8255   */\n      dup4\n        /* \"#utility.yul\":8193:8260   */\n      tag_292\n      jump\t// in\n    tag_314:\n        /* \"#utility.yul\":8186:8260   */\n      swap2\n      pop\n        /* \"#utility.yul\":8269:8362   */\n      tag_315\n        /* \"#utility.yul\":8358:8361   */\n      dup3\n        /* \"#utility.yul\":8269:8362   */\n      tag_316\n      jump\t// in\n    tag_315:\n        /* \"#utility.yul\":8387:8389   */\n      0x20\n        /* \"#utility.yul\":8382:8385   */\n      dup3\n        /* \"#utility.yul\":8378:8390   */\n      add\n        /* \"#utility.yul\":8371:8390   */\n      swap1\n      pop\n        /* \"#utility.yul\":8030:8396   */\n      swap2\n      swap1\n      pop\n      jump\t// out\n        /* \"#utility.yul\":8402:8768   */\n    tag_317:\n        /* \"#utility.yul\":8544:8547   */\n      0x00\n        /* \"#utility.yul\":8565:8632   */\n      tag_319\n        /* \"#utility.yul\":8629:8631   */\n      0x20\n        /* \"#utility.yul\":8624:8627   */\n      dup4\n        /* \"#utility.yul\":8565:8632   */\n      tag_292\n      jump\t// in\n    tag_319:\n        /* \"#utility.yul\":8558:8632   */\n      swap2\n      pop\n        /* \"#utility.yul\":8641:8734   */\n      tag_320\n        /* \"#utility.yul\":8730:8733   */\n      dup3\n        /* \"#utility.yul\":8641:8734   */\n      tag_321\n      jump\t// in\n    tag_320:\n        /* \"#utility.yul\":8759:8761   */\n      0x20\n        /* \"#utility.yul\":8754:8757   */\n      dup3\n        /* \"#utility.yul\":8750:8762   */\n      add\n        /* \"#utility.yul\":8743:8762   */\n      swap1\n      pop\n        /* \"#utility.yul\":8402:8768   */\n      swap2\n      swap1\n      pop\n      jump\t// out\n        /* \"#utility.yul\":8774:9172   */\n    tag_322:\n        /* \"#utility.yul\":8933:8936   */\n      0x00\n        /* \"#utility.yul\":8954:9037   */\n      tag_324\n        /* \"#utility.yul\":9035:9036   */\n      0x00\n        /* \"#utility.yul\":9030:9033   */\n      dup4\n        /* \"#utility.yul\":8954:9037   */\n      tag_325\n      jump\t// in\n    tag_324:\n        /* \"#utility.yul\":8947:9037   */\n      swap2\n      pop\n        /* \"#utility.yul\":9046:9139   */\n      tag_326\n        /* \"#utility.yul\":9135:9138   */\n      dup3\n        /* \"#utility.yul\":9046:9139   */\n      tag_327\n      jump\t// in\n    tag_326:\n        /* \"#utility.yul\":9164:9165   */\n      0x00\n        /* \"#utility.yul\":9159:9162   */\n      dup3\n        /* \"#utility.yul\":9155:9166   */\n      add\n        /* \"#utility.yul\":9148:9166   */\n      swap1\n      pop\n        /* \"#utility.yul\":8774:9172   */\n      swap2\n      swap1\n      pop\n      jump\t// out\n        /* \"#utility.yul\":9178:9296   */\n    tag_328:\n        /* \"#utility.yul\":9265:9289   */\n      tag_330\n        /* \"#utility.yul\":9283:9288   */\n      dup2\n        /* \"#utility.yul\":9265:9289   */\n      tag_331\n      jump\t// in\n    tag_330:\n        /* \"#utility.yul\":9260:9263   */\n      dup3\n        /* \"#utility.yul\":9253:9290   */\n      mstore\n        /* \"#utility.yul\":9178:9296   */\n      pop\n      pop\n      jump\t// out\n        /* \"#utility.yul\":9302:9681   */\n    tag_96:\n        /* \"#utility.yul\":9486:9489   */\n      0x00\n        /* \"#utility.yul\":9508:9655   */\n      tag_333\n        /* \"#utility.yul\":9651:9654   */\n      dup3\n        /* \"#utility.yul\":9508:9655   */\n      tag_322\n      jump\t// in\n    tag_333:\n        /* \"#utility.yul\":9501:9655   */\n      swap2\n      pop\n        /* \"#utility.yul\":9672:9675   */\n      dup2\n        /* \"#utility.yul\":9665:9675   */\n      swap1\n      pop\n        /* \"#utility.yul\":9302:9681   */\n      swap2\n      swap1\n      pop\n      jump\t// out\n        /* \"#utility.yul\":9687:9909   */\n    tag_51:\n        /* \"#utility.yul\":9780:9784   */\n      0x00\n        /* \"#utility.yul\":9818:9820   */\n      0x20\n        /* \"#utility.yul\":9807:9816   */\n      dup3\n        /* \"#utility.yul\":9803:9821   */\n      add\n        /* \"#utility.yul\":9795:9821   */\n      swap1\n      pop\n        /* \"#utility.yul\":9831:9902   */\n      tag_335\n        /* \"#utility.yul\":9899:9900   */\n      0x00\n        /* \"#utility.yul\":9888:9897   */\n      dup4\n        /* \"#utility.yul\":9884:9901   */\n      add\n        /* \"#utility.yul\":9875:9881   */\n      dup5\n        /* \"#utility.yul\":9831:9902   */\n      tag_262\n      jump\t// in\n    tag_335:\n        /* \"#utility.yul\":9687:9909   */\n      swap3\n      swap2\n      pop\n      pop\n      jump\t// out\n        /* \"#utility.yul\":9915:10336   */\n    tag_33:\n        /* \"#utility.yul\":10082:10086   */\n      0x00\n        /* \"#utility.yul\":10120:10122   */\n      0x20\n        /* \"#utility.yul\":10109:10118   */\n      dup3\n        /* \"#utility.yul\":10105:10123   */\n      add\n        /* \"#utility.yul\":10097:10123   */\n      swap1\n      pop\n        /* \"#utility.yul\":10169:10178   */\n      dup2\n        /* \"#utility.yul\":10163:10167   */\n      dup2\n        /* \"#utility.yul\":10159:10179   */\n      sub\n        /* \"#utility.yul\":10155:10156   */\n      0x00\n        /* \"#utility.yul\":10144:10153   */\n      dup4\n        /* \"#utility.yul\":10140:10157   */\n      add\n        /* \"#utility.yul\":10133:10180   */\n      mstore\n        /* \"#utility.yul\":10197:10329   */\n      tag_337\n        /* \"#utility.yul\":10324:10328   */\n      dup2\n        /* \"#utility.yul\":10315:10321   */\n      dup5\n        /* \"#utility.yul\":10197:10329   */\n      tag_266\n      jump\t// in\n    tag_337:\n        /* \"#utility.yul\":10189:10329   */\n      swap1\n      pop\n        /* \"#utility.yul\":9915:10336   */\n      swap3\n      swap2\n      pop\n      pop\n      jump\t// out\n        /* \"#utility.yul\":10342:10590   */\n    tag_151:\n        /* \"#utility.yul\":10448:10452   */\n      0x00\n        /* \"#utility.yul\":10486:10488   */\n      0x20\n        /* \"#utility.yul\":10475:10484   */\n      dup3\n        /* \"#utility.yul\":10471:10489   */\n      add\n        /* \"#utility.yul\":10463:10489   */\n      swap1\n      pop\n        /* \"#utility.yul\":10499:10583   */\n      tag_339\n        /* \"#utility.yul\":10580:10581   */\n      0x00\n        /* \"#utility.yul\":10569:10578   */\n      dup4\n        /* \"#utility.yul\":10565:10582   */\n      add\n        /* \"#utility.yul\":10556:10562   */\n      dup5\n        /* \"#utility.yul\":10499:10583   */\n      tag_283\n      jump\t// in\n    tag_339:\n        /* \"#utility.yul\":10342:10590   */\n      swap3\n      swap2\n      pop\n      pop\n      jump\t// out\n        /* \"#utility.yul\":10596:11015   */\n    tag_161:\n        /* \"#utility.yul\":10762:10766   */\n      0x00\n        /* \"#utility.yul\":10800:10802   */\n      0x20\n        /* \"#utility.yul\":10789:10798   */\n      dup3\n        /* \"#utility.yul\":10785:10803   */\n      add\n        /* \"#utility.yul\":10777:10803   */\n      swap1\n      pop\n        /* \"#utility.yul\":10849:10858   */\n      dup2\n        /* \"#utility.yul\":10843:10847   */\n      dup2\n        /* \"#utility.yul\":10839:10859   */\n      sub\n        /* \"#utility.yul\":10835:10836   */\n      0x00\n        /* \"#utility.yul\":10824:10833   */\n      dup4\n        /* \"#utility.yul\":10820:10837   */\n      add\n        /* \"#utility.yul\":10813:10860   */\n      mstore\n        /* \"#utility.yul\":10877:11008   */\n      tag_341\n        /* \"#utility.yul\":11003:11007   */\n      dup2\n        /* \"#utility.yul\":10877:11008   */\n      tag_297\n      jump\t// in\n    tag_341:\n        /* \"#utility.yul\":10869:11008   */\n      swap1\n      pop\n        /* \"#utility.yul\":10596:11015   */\n      swap2\n      swap1\n      pop\n      jump\t// out\n        /* \"#utility.yul\":11021:11440   */\n    tag_102:\n        /* \"#utility.yul\":11187:11191   */\n      0x00\n        /* \"#utility.yul\":11225:11227   */\n      0x20\n        /* \"#utility.yul\":11214:11223   */\n      dup3\n        /* \"#utility.yul\":11210:11228   */\n      add\n        /* \"#utility.yul\":11202:11228   */\n      swap1\n      pop\n        /* \"#utility.yul\":11274:11283   */\n      dup2\n        /* \"#utility.yul\":11268:11272   */\n      dup2\n        /* \"#utility.yul\":11264:11284   */\n      sub\n        /* \"#utility.yul\":11260:11261   */\n      0x00\n        /* \"#utility.yul\":11249:11258   */\n      dup4\n        /* \"#utility.yul\":11245:11262   */\n      add\n        /* \"#utility.yul\":11238:11285   */\n      mstore\n        /* \"#utility.yul\":11302:11433   */\n      tag_343\n        /* \"#utility.yul\":11428:11432   */\n      dup2\n        /* \"#utility.yul\":11302:11433   */\n      tag_302\n      jump\t// in\n    tag_343:\n        /* \"#utility.yul\":11294:11433   */\n      swap1\n      pop\n        /* \"#utility.yul\":11021:11440   */\n      swap2\n      swap1\n      pop\n      jump\t// out\n        /* \"#utility.yul\":11446:11865   */\n    tag_147:\n        /* \"#utility.yul\":11612:11616   */\n      0x00\n        /* \"#utility.yul\":11650:11652   */\n      0x20\n        /* \"#utility.yul\":11639:11648   */\n      dup3\n        /* \"#utility.yul\":11635:11653   */\n      add\n        /* \"#utility.yul\":11627:11653   */\n      swap1\n      pop\n        /* \"#utility.yul\":11699:11708   */\n      dup2\n        /* \"#utility.yul\":11693:11697   */\n      dup2\n        /* \"#utility.yul\":11689:11709   */\n      sub\n        /* \"#utility.yul\":11685:11686   */\n      0x00\n        /* \"#utility.yul\":11674:11683   */\n      dup4\n        /* \"#utility.yul\":11670:11687   */\n      add\n        /* \"#utility.yul\":11663:11710   */\n      mstore\n        /* \"#utility.yul\":11727:11858   */\n      tag_345\n        /* \"#utility.yul\":11853:11857   */\n      dup2\n        /* \"#utility.yul\":11727:11858   */\n      tag_307\n      jump\t// in\n    tag_345:\n        /* \"#utility.yul\":11719:11858   */\n      swap1\n      pop\n        /* \"#utility.yul\":11446:11865   */\n      swap2\n      swap1\n      pop\n      jump\t// out\n        /* \"#utility.yul\":11871:12290   */\n    tag_109:\n        /* \"#utility.yul\":12037:12041   */\n      0x00\n        /* \"#utility.yul\":12075:12077   */\n      0x20\n        /* \"#utility.yul\":12064:12073   */\n      dup3\n        /* \"#utility.yul\":12060:12078   */\n      add\n        /* \"#utility.yul\":12052:12078   */\n      swap1\n      pop\n        /* \"#utility.yul\":12124:12133   */\n      dup2\n        /* \"#utility.yul\":12118:12122   */\n      dup2\n        /* \"#utility.yul\":12114:12134   */\n      sub\n        /* \"#utility.yul\":12110:12111   */\n      0x00\n        /* \"#utility.yul\":12099:12108   */\n      dup4\n        /* \"#utility.yul\":12095:12112   */\n      add\n        /* \"#utility.yul\":12088:12135   */\n      mstore\n        /* \"#utility.yul\":12152:12283   */\n      tag_347\n        /* \"#utility.yul\":12278:12282   */\n      dup2\n        /* \"#utility.yul\":12152:12283   */\n      tag_312\n      jump\t// in\n    tag_347:\n        /* \"#utility.yul\":12144:12283   */\n      swap1\n      pop\n        /* \"#utility.yul\":11871:12290   */\n      swap2\n      swap1\n      pop\n      jump\t// out\n        /* \"#utility.yul\":12296:12715   */\n    tag_169:\n        /* \"#utility.yul\":12462:12466   */\n      0x00\n        /* \"#utility.yul\":12500:12502   */\n      0x20\n        /* \"#utility.yul\":12489:12498   */\n      dup3\n        /* \"#utility.yul\":12485:12503   */\n      add\n        /* \"#utility.yul\":12477:12503   */\n      swap1\n      pop\n        /* \"#utility.yul\":12549:12558   */\n      dup2\n        /* \"#utility.yul\":12543:12547   */\n      dup2\n        /* \"#utility.yul\":12539:12559   */\n      sub\n        /* \"#utility.yul\":12535:12536   */\n      0x00\n        /* \"#utility.yul\":12524:12533   */\n      dup4\n        /* \"#utility.yul\":12520:12537   */\n      add\n        /* \"#utility.yul\":12513:12560   */\n      mstore\n        /* \"#utility.yul\":12577:12708   */\n      tag_349\n        /* \"#utility.yul\":12703:12707   */\n      dup2\n        /* \"#utility.yul\":12577:12708   */\n      tag_317\n      jump\t// in\n    tag_349:\n        /* \"#utility.yul\":12569:12708   */\n      swap1\n      pop\n        /* \"#utility.yul\":12296:12715   */\n      swap2\n      swap1\n      pop\n      jump\t// out\n        /* \"#utility.yul\":12721:13567   */\n    tag_83:\n        /* \"#utility.yul\":12966:12970   */\n      0x00\n        /* \"#utility.yul\":13004:13007   */\n      0xa0\n        /* \"#utility.yul\":12993:13002   */\n      dup3\n        /* \"#utility.yul\":12989:13008   */\n      add\n        /* \"#utility.yul\":12981:13008   */\n      swap1\n      pop\n        /* \"#utility.yul\":13018:13089   */\n      tag_351\n        /* \"#utility.yul\":13086:13087   */\n      0x00\n        /* \"#utility.yul\":13075:13084   */\n      dup4\n        /* \"#utility.yul\":13071:13088   */\n      add\n        /* \"#utility.yul\":13062:13068   */\n      dup9\n        /* \"#utility.yul\":13018:13089   */\n      tag_328\n      jump\t// in\n    tag_351:\n        /* \"#utility.yul\":13099:13171   */\n      tag_352\n        /* \"#utility.yul\":13167:13169   */\n      0x20\n        /* \"#utility.yul\":13156:13165   */\n      dup4\n        /* \"#utility.yul\":13152:13170   */\n      add\n        /* \"#utility.yul\":13143:13149   */\n      dup8\n        /* \"#utility.yul\":13099:13171   */\n      tag_262\n      jump\t// in\n    tag_352:\n        /* \"#utility.yul\":13218:13227   */\n      dup2\n        /* \"#utility.yul\":13212:13216   */\n      dup2\n        /* \"#utility.yul\":13208:13228   */\n      sub\n        /* \"#utility.yul\":13203:13205   */\n      0x40\n        /* \"#utility.yul\":13192:13201   */\n      dup4\n        /* \"#utility.yul\":13188:13206   */\n      add\n        /* \"#utility.yul\":13181:13229   */\n      mstore\n        /* \"#utility.yul\":13246:13324   */\n      tag_353\n        /* \"#utility.yul\":13319:13323   */\n      dup2\n        /* \"#utility.yul\":13310:13316   */\n      dup7\n        /* \"#utility.yul\":13246:13324   */\n      tag_287\n      jump\t// in\n    tag_353:\n        /* \"#utility.yul\":13238:13324   */\n      swap1\n      pop\n        /* \"#utility.yul\":13371:13380   */\n      dup2\n        /* \"#utility.yul\":13365:13369   */\n      dup2\n        /* \"#utility.yul\":13361:13381   */\n      sub\n        /* \"#utility.yul\":13356:13358   */\n      0x60\n        /* \"#utility.yul\":13345:13354   */\n      dup4\n        /* \"#utility.yul\":13341:13359   */\n      add\n        /* \"#utility.yul\":13334:13382   */\n      mstore\n        /* \"#utility.yul\":13399:13477   */\n      tag_354\n        /* \"#utility.yul\":13472:13476   */\n      dup2\n        /* \"#utility.yul\":13463:13469   */\n      dup6\n        /* \"#utility.yul\":13399:13477   */\n      tag_287\n      jump\t// in\n    tag_354:\n        /* \"#utility.yul\":13391:13477   */\n      swap1\n      pop\n        /* \"#utility.yul\":13487:13560   */\n      tag_355\n        /* \"#utility.yul\":13555:13558   */\n      0x80\n        /* \"#utility.yul\":13544:13553   */\n      dup4\n        /* \"#utility.yul\":13540:13559   */\n      add\n        /* \"#utility.yul\":13531:13537   */\n      dup5\n        /* \"#utility.yul\":13487:13560   */\n      tag_328\n      jump\t// in\n    tag_355:\n        /* \"#utility.yul\":12721:13567   */\n      swap7\n      swap6\n      pop\n      pop\n      pop\n      pop\n      pop\n      pop\n      jump\t// out\n        /* \"#utility.yul\":13573:14237   */\n    tag_133:\n        /* \"#utility.yul\":13778:13782   */\n      0x00\n        /* \"#utility.yul\":13816:13819   */\n      0xa0\n        /* \"#utility.yul\":13805:13814   */\n      dup3\n        /* \"#utility.yul\":13801:13820   */\n      add\n        /* \"#utility.yul\":13793:13820   */\n      swap1\n      pop\n        /* \"#utility.yul\":13830:13901   */\n      tag_357\n        /* \"#utility.yul\":13898:13899   */\n      0x00\n        /* \"#utility.yul\":13887:13896   */\n      dup4\n        /* \"#utility.yul\":13883:13900   */\n      add\n        /* \"#utility.yul\":13874:13880   */\n      dup9\n        /* \"#utility.yul\":13830:13901   */\n      tag_328\n      jump\t// in\n    tag_357:\n        /* \"#utility.yul\":13911:13983   */\n      tag_358\n        /* \"#utility.yul\":13979:13981   */\n      0x20\n        /* \"#utility.yul\":13968:13977   */\n      dup4\n        /* \"#utility.yul\":13964:13982   */\n      add\n        /* \"#utility.yul\":13955:13961   */\n      dup8\n        /* \"#utility.yul\":13911:13983   */\n      tag_262\n      jump\t// in\n    tag_358:\n        /* \"#utility.yul\":13993:14065   */\n      tag_359\n        /* \"#utility.yul\":14061:14063   */\n      0x40\n        /* \"#utility.yul\":14050:14059   */\n      dup4\n        /* \"#utility.yul\":14046:14064   */\n      add\n        /* \"#utility.yul\":14037:14043   */\n      dup7\n        /* \"#utility.yul\":13993:14065   */\n      tag_328\n      jump\t// in\n    tag_359:\n        /* \"#utility.yul\":14075:14147   */\n      tag_360\n        /* \"#utility.yul\":14143:14145   */\n      0x60\n        /* \"#utility.yul\":14132:14141   */\n      dup4\n        /* \"#utility.yul\":14128:14146   */\n      add\n        /* \"#utility.yul\":14119:14125   */\n      dup6\n        /* \"#utility.yul\":14075:14147   */\n      tag_328\n      jump\t// in\n    tag_360:\n        /* \"#utility.yul\":14157:14230   */\n      tag_361\n        /* \"#utility.yul\":14225:14228   */\n      0x80\n        /* \"#utility.yul\":14214:14223   */\n      dup4\n        /* \"#utility.yul\":14210:14229   */\n      add\n        /* \"#utility.yul\":14201:14207   */\n      dup5\n        /* \"#utility.yul\":14157:14230   */\n      tag_262\n      jump\t// in\n    tag_361:\n        /* \"#utility.yul\":13573:14237   */\n      swap7\n      swap6\n      pop\n      pop\n      pop\n      pop\n      pop\n      pop\n      jump\t// out\n        /* \"#utility.yul\":14243:14372   */\n    tag_195:\n        /* \"#utility.yul\":14277:14283   */\n      0x00\n        /* \"#utility.yul\":14304:14324   */\n      tag_363\n      tag_364\n      jump\t// in\n    tag_363:\n        /* \"#utility.yul\":14294:14324   */\n      swap1\n      pop\n        /* \"#utility.yul\":14333:14366   */\n      tag_365\n        /* \"#utility.yul\":14361:14365   */\n      dup3\n        /* \"#utility.yul\":14353:14359   */\n      dup3\n        /* \"#utility.yul\":14333:14366   */\n      tag_366\n      jump\t// in\n    tag_365:\n        /* \"#utility.yul\":14243:14372   */\n      swap2\n      swap1\n      pop\n      jump\t// out\n        /* \"#utility.yul\":14378:14453   */\n    tag_364:\n        /* \"#utility.yul\":14411:14417   */\n      0x00\n        /* \"#utility.yul\":14444:14446   */\n      0x40\n        /* \"#utility.yul\":14438:14447   */\n      mload\n        /* \"#utility.yul\":14428:14447   */\n      swap1\n      pop\n        /* \"#utility.yul\":14378:14453   */\n      swap1\n      jump\t// out\n        /* \"#utility.yul\":14459:14767   */\n    tag_194:\n        /* \"#utility.yul\":14521:14525   */\n      0x00\n        /* \"#utility.yul\":14611:14629   */\n      0xffffffffffffffff\n        /* \"#utility.yul\":14603:14609   */\n      dup3\n        /* \"#utility.yul\":14600:14630   */\n      gt\n        /* \"#utility.yul\":14597:14653   */\n      iszero\n      tag_369\n      jumpi\n        /* \"#utility.yul\":14633:14651   */\n      tag_370\n      tag_371\n      jump\t// in\n    tag_370:\n        /* \"#utility.yul\":14597:14653   */\n    tag_369:\n        /* \"#utility.yul\":14671:14700   */\n      tag_372\n        /* \"#utility.yul\":14693:14699   */\n      dup3\n        /* \"#utility.yul\":14671:14700   */\n      tag_296\n      jump\t// in\n    tag_372:\n        /* \"#utility.yul\":14663:14700   */\n      swap1\n      pop\n        /* \"#utility.yul\":14755:14759   */\n      0x20\n        /* \"#utility.yul\":14749:14753   */\n      dup2\n        /* \"#utility.yul\":14745:14760   */\n      add\n        /* \"#utility.yul\":14737:14760   */\n      swap1\n      pop\n        /* \"#utility.yul\":14459:14767   */\n      swap2\n      swap1\n      pop\n      jump\t// out\n        /* \"#utility.yul\":14773:14921   */\n    tag_273:\n        /* \"#utility.yul\":14856:14860   */\n      0x00\n        /* \"#utility.yul\":14879:14882   */\n      dup2\n        /* \"#utility.yul\":14871:14882   */\n      swap1\n      pop\n        /* \"#utility.yul\":14909:14913   */\n      0x20\n        /* \"#utility.yul\":14904:14907   */\n      dup3\n        /* \"#utility.yul\":14900:14914   */\n      add\n        /* \"#utility.yul\":14892:14914   */\n      swap1\n      pop\n        /* \"#utility.yul\":14773:14921   */\n      swap2\n      swap1\n      pop\n      jump\t// out\n        /* \"#utility.yul\":14927:15057   */\n    tag_269:\n        /* \"#utility.yul\":15010:15016   */\n      0x00\n        /* \"#utility.yul\":15044:15049   */\n      dup2\n        /* \"#utility.yul\":15038:15050   */\n      mload\n        /* \"#utility.yul\":15028:15050   */\n      swap1\n      pop\n        /* \"#utility.yul\":14927:15057   */\n      swap2\n      swap1\n      pop\n      jump\t// out\n        /* \"#utility.yul\":15063:15162   */\n    tag_290:\n        /* \"#utility.yul\":15115:15121   */\n      0x00\n        /* \"#utility.yul\":15149:15154   */\n      dup2\n        /* \"#utility.yul\":15143:15155   */\n      mload\n        /* \"#utility.yul\":15133:15155   */\n      swap1\n      pop\n        /* \"#utility.yul\":15063:15162   */\n      swap2\n      swap1\n      pop\n      jump\t// out\n        /* \"#utility.yul\":15168:15297   */\n    tag_279:\n        /* \"#utility.yul\":15254:15258   */\n      0x00\n        /* \"#utility.yul\":15286:15290   */\n      0x20\n        /* \"#utility.yul\":15281:15284   */\n      dup3\n        /* \"#utility.yul\":15277:15291   */\n      add\n        /* \"#utility.yul\":15269:15291   */\n      swap1\n      pop\n        /* \"#utility.yul\":15168:15297   */\n      swap2\n      swap1\n      pop\n      jump\t// out\n        /* \"#utility.yul\":15303:15495   */\n    tag_271:\n        /* \"#utility.yul\":15410:15421   */\n      0x00\n        /* \"#utility.yul\":15444:15450   */\n      dup3\n        /* \"#utility.yul\":15439:15442   */\n      dup3\n        /* \"#utility.yul\":15432:15451   */\n      mstore\n        /* \"#utility.yul\":15484:15488   */\n      0x20\n        /* \"#utility.yul\":15479:15482   */\n      dup3\n        /* \"#utility.yul\":15475:15489   */\n      add\n        /* \"#utility.yul\":15460:15489   */\n      swap1\n      pop\n        /* \"#utility.yul\":15303:15495   */\n      swap3\n      swap2\n      pop\n      pop\n      jump\t// out\n        /* \"#utility.yul\":15501:15648   */\n    tag_325:\n        /* \"#utility.yul\":15602:15613   */\n      0x00\n        /* \"#utility.yul\":15639:15642   */\n      dup2\n        /* \"#utility.yul\":15624:15642   */\n      swap1\n      pop\n        /* \"#utility.yul\":15501:15648   */\n      swap3\n      swap2\n      pop\n      pop\n      jump\t// out\n        /* \"#utility.yul\":15654:15823   */\n    tag_292:\n        /* \"#utility.yul\":15738:15749   */\n      0x00\n        /* \"#utility.yul\":15772:15778   */\n      dup3\n        /* \"#utility.yul\":15767:15770   */\n      dup3\n        /* \"#utility.yul\":15760:15779   */\n      mstore\n        /* \"#utility.yul\":15812:15816   */\n      0x20\n        /* \"#utility.yul\":15807:15810   */\n      dup3\n        /* \"#utility.yul\":15803:15817   */\n      add\n        /* \"#utility.yul\":15788:15817   */\n      swap1\n      pop\n        /* \"#utility.yul\":15654:15823   */\n      swap3\n      swap2\n      pop\n      pop\n      jump\t// out\n        /* \"#utility.yul\":15829:15925   */\n    tag_265:\n        /* \"#utility.yul\":15866:15873   */\n      0x00\n        /* \"#utility.yul\":15895:15919   */\n      tag_381\n        /* \"#utility.yul\":15913:15918   */\n      dup3\n        /* \"#utility.yul\":15895:15919   */\n      tag_382\n      jump\t// in\n    tag_381:\n        /* \"#utility.yul\":15884:15919   */\n      swap1\n      pop\n        /* \"#utility.yul\":15829:15925   */\n      swap2\n      swap1\n      pop\n      jump\t// out\n        /* \"#utility.yul\":15931:16057   */\n    tag_382:\n        /* \"#utility.yul\":15968:15975   */\n      0x00\n        /* \"#utility.yul\":16008:16050   */\n      0xffffffffffffffffffffffffffffffffffffffff\n        /* \"#utility.yul\":16001:16006   */\n      dup3\n        /* \"#utility.yul\":15997:16051   */\n      and\n        /* \"#utility.yul\":15986:16051   */\n      swap1\n      pop\n        /* \"#utility.yul\":15931:16057   */\n      swap2\n      swap1\n      pop\n      jump\t// out\n        /* \"#utility.yul\":16063:16140   */\n    tag_331:\n        /* \"#utility.yul\":16100:16107   */\n      0x00\n        /* \"#utility.yul\":16129:16134   */\n      dup2\n        /* \"#utility.yul\":16118:16134   */\n      swap1\n      pop\n        /* \"#utility.yul\":16063:16140   */\n      swap2\n      swap1\n      pop\n      jump\t// out\n        /* \"#utility.yul\":16146:16304   */\n    tag_282:\n        /* \"#utility.yul\":16220:16229   */\n      0x00\n        /* \"#utility.yul\":16253:16298   */\n      tag_386\n        /* \"#utility.yul\":16292:16297   */\n      dup3\n        /* \"#utility.yul\":16253:16298   */\n      tag_387\n      jump\t// in\n    tag_386:\n        /* \"#utility.yul\":16240:16298   */\n      swap1\n      pop\n        /* \"#utility.yul\":16146:16304   */\n      swap2\n      swap1\n      pop\n      jump\t// out\n        /* \"#utility.yul\":16310:16436   */\n    tag_286:\n        /* \"#utility.yul\":16373:16382   */\n      0x00\n        /* \"#utility.yul\":16406:16430   */\n      tag_389\n        /* \"#utility.yul\":16424:16429   */\n      dup3\n        /* \"#utility.yul\":16406:16430   */\n      tag_331\n      jump\t// in\n    tag_389:\n        /* \"#utility.yul\":16393:16430   */\n      swap1\n      pop\n        /* \"#utility.yul\":16310:16436   */\n      swap2\n      swap1\n      pop\n      jump\t// out\n        /* \"#utility.yul\":16442:16576   */\n    tag_387:\n        /* \"#utility.yul\":16500:16509   */\n      0x00\n        /* \"#utility.yul\":16533:16570   */\n      tag_391\n        /* \"#utility.yul\":16564:16569   */\n      dup3\n        /* \"#utility.yul\":16533:16570   */\n      tag_392\n      jump\t// in\n    tag_391:\n        /* \"#utility.yul\":16520:16570   */\n      swap1\n      pop\n        /* \"#utility.yul\":16442:16576   */\n      swap2\n      swap1\n      pop\n      jump\t// out\n        /* \"#utility.yul\":16582:16695   */\n    tag_392:\n        /* \"#utility.yul\":16632:16641   */\n      0x00\n        /* \"#utility.yul\":16665:16689   */\n      tag_394\n        /* \"#utility.yul\":16683:16688   */\n      dup3\n        /* \"#utility.yul\":16665:16689   */\n      tag_382\n      jump\t// in\n    tag_394:\n        /* \"#utility.yul\":16652:16689   */\n      swap1\n      pop\n        /* \"#utility.yul\":16582:16695   */\n      swap2\n      swap1\n      pop\n      jump\t// out\n        /* \"#utility.yul\":16701:16855   */\n    tag_200:\n        /* \"#utility.yul\":16785:16791   */\n      dup3\n        /* \"#utility.yul\":16780:16783   */\n      dup2\n        /* \"#utility.yul\":16775:16778   */\n      dup4\n        /* \"#utility.yul\":16762:16792   */\n      calldatacopy\n        /* \"#utility.yul\":16847:16848   */\n      0x00\n        /* \"#utility.yul\":16838:16844   */\n      dup4\n        /* \"#utility.yul\":16833:16836   */\n      dup4\n        /* \"#utility.yul\":16829:16845   */\n      add\n        /* \"#utility.yul\":16822:16849   */\n      mstore\n        /* \"#utility.yul\":16701:16855   */\n      pop\n      pop\n      pop\n      jump\t// out\n        /* \"#utility.yul\":16861:17168   */\n    tag_294:\n        /* \"#utility.yul\":16929:16930   */\n      0x00\n        /* \"#utility.yul\":16939:17052   */\n    tag_397:\n        /* \"#utility.yul\":16953:16959   */\n      dup4\n        /* \"#utility.yul\":16950:16951   */\n      dup2\n        /* \"#utility.yul\":16947:16960   */\n      lt\n        /* \"#utility.yul\":16939:17052   */\n      iszero\n      tag_399\n      jumpi\n        /* \"#utility.yul\":17038:17039   */\n      dup1\n        /* \"#utility.yul\":17033:17036   */\n      dup3\n        /* \"#utility.yul\":17029:17040   */\n      add\n        /* \"#utility.yul\":17023:17041   */\n      mload\n        /* \"#utility.yul\":17019:17020   */\n      dup2\n        /* \"#utility.yul\":17014:17017   */\n      dup5\n        /* \"#utility.yul\":17010:17021   */\n      add\n        /* \"#utility.yul\":17003:17042   */\n      mstore\n        /* \"#utility.yul\":16975:16977   */\n      0x20\n        /* \"#utility.yul\":16972:16973   */\n      dup2\n        /* \"#utility.yul\":16968:16978   */\n      add\n        /* \"#utility.yul\":16963:16978   */\n      swap1\n      pop\n        /* \"#utility.yul\":16939:17052   */\n      jump(tag_397)\n    tag_399:\n        /* \"#utility.yul\":17070:17076   */\n      dup4\n        /* \"#utility.yul\":17067:17068   */\n      dup2\n        /* \"#utility.yul\":17064:17077   */\n      gt\n        /* \"#utility.yul\":17061:17162   */\n      iszero\n      tag_400\n      jumpi\n        /* \"#utility.yul\":17150:17151   */\n      0x00\n        /* \"#utility.yul\":17141:17147   */\n      dup5\n        /* \"#utility.yul\":17136:17139   */\n      dup5\n        /* \"#utility.yul\":17132:17148   */\n      add\n        /* \"#utility.yul\":17125:17152   */\n      mstore\n        /* \"#utility.yul\":17061:17162   */\n    tag_400:\n        /* \"#utility.yul\":16910:17168   */\n      pop\n        /* \"#utility.yul\":16861:17168   */\n      pop\n      pop\n      pop\n      jump\t// out\n        /* \"#utility.yul\":17174:17494   */\n    tag_122:\n        /* \"#utility.yul\":17218:17224   */\n      0x00\n        /* \"#utility.yul\":17255:17256   */\n      0x02\n        /* \"#utility.yul\":17249:17253   */\n      dup3\n        /* \"#utility.yul\":17245:17257   */\n      div\n        /* \"#utility.yul\":17235:17257   */\n      swap1\n      pop\n        /* \"#utility.yul\":17302:17303   */\n      0x01\n        /* \"#utility.yul\":17296:17300   */\n      dup3\n        /* \"#utility.yul\":17292:17304   */\n      and\n        /* \"#utility.yul\":17323:17341   */\n      dup1\n        /* \"#utility.yul\":17313:17394   */\n      tag_402\n      jumpi\n        /* \"#utility.yul\":17379:17383   */\n      0x7f\n        /* \"#utility.yul\":17371:17377   */\n      dup3\n        /* \"#utility.yul\":17367:17384   */\n      and\n        /* \"#utility.yul\":17357:17384   */\n      swap2\n      pop\n        /* \"#utility.yul\":17313:17394   */\n    tag_402:\n        /* \"#utility.yul\":17441:17443   */\n      0x20\n        /* \"#utility.yul\":17433:17439   */\n      dup3\n        /* \"#utility.yul\":17430:17444   */\n      lt\n        /* \"#utility.yul\":17410:17428   */\n      dup2\n        /* \"#utility.yul\":17407:17445   */\n      eq\n        /* \"#utility.yul\":17404:17488   */\n      iszero\n      tag_403\n      jumpi\n        /* \"#utility.yul\":17460:17478   */\n      tag_404\n      tag_405\n      jump\t// in\n    tag_404:\n        /* \"#utility.yul\":17404:17488   */\n    tag_403:\n        /* \"#utility.yul\":17225:17494   */\n      pop\n        /* \"#utility.yul\":17174:17494   */\n      swap2\n      swap1\n      pop\n      jump\t// out\n        /* \"#utility.yul\":17500:17781   */\n    tag_366:\n        /* \"#utility.yul\":17583:17610   */\n      tag_407\n        /* \"#utility.yul\":17605:17609   */\n      dup3\n        /* \"#utility.yul\":17583:17610   */\n      tag_296\n      jump\t// in\n    tag_407:\n        /* \"#utility.yul\":17575:17581   */\n      dup2\n        /* \"#utility.yul\":17571:17611   */\n      add\n        /* \"#utility.yul\":17713:17719   */\n      dup2\n        /* \"#utility.yul\":17701:17711   */\n      dup2\n        /* \"#utility.yul\":17698:17720   */\n      lt\n        /* \"#utility.yul\":17677:17695   */\n      0xffffffffffffffff\n        /* \"#utility.yul\":17665:17675   */\n      dup3\n        /* \"#utility.yul\":17662:17696   */\n      gt\n        /* \"#utility.yul\":17659:17721   */\n      or\n        /* \"#utility.yul\":17656:17744   */\n      iszero\n      tag_408\n      jumpi\n        /* \"#utility.yul\":17724:17742   */\n      tag_409\n      tag_371\n      jump\t// in\n    tag_409:\n        /* \"#utility.yul\":17656:17744   */\n    tag_408:\n        /* \"#utility.yul\":17764:17774   */\n      dup1\n        /* \"#utility.yul\":17760:17762   */\n      0x40\n        /* \"#utility.yul\":17753:17775   */\n      mstore\n        /* \"#utility.yul\":17543:17781   */\n      pop\n        /* \"#utility.yul\":17500:17781   */\n      pop\n      pop\n      jump\t// out\n        /* \"#utility.yul\":17787:17967   */\n    tag_405:\n        /* \"#utility.yul\":17835:17912   */\n      0x4e487b7100000000000000000000000000000000000000000000000000000000\n        /* \"#utility.yul\":17832:17833   */\n      0x00\n        /* \"#utility.yul\":17825:17913   */\n      mstore\n        /* \"#utility.yul\":17932:17936   */\n      0x22\n        /* \"#utility.yul\":17929:17930   */\n      0x04\n        /* \"#utility.yul\":17922:17937   */\n      mstore\n        /* \"#utility.yul\":17956:17960   */\n      0x24\n        /* \"#utility.yul\":17953:17954   */\n      0x00\n        /* \"#utility.yul\":17946:17961   */\n      revert\n        /* \"#utility.yul\":17973:18153   */\n    tag_371:\n        /* \"#utility.yul\":18021:18098   */\n      0x4e487b7100000000000000000000000000000000000000000000000000000000\n        /* \"#utility.yul\":18018:18019   */\n      0x00\n        /* \"#utility.yul\":18011:18099   */\n      mstore\n        /* \"#utility.yul\":18118:18122   */\n      0x41\n        /* \"#utility.yul\":18115:18116   */\n      0x04\n        /* \"#utility.yul\":18108:18123   */\n      mstore\n        /* \"#utility.yul\":18142:18146   */\n      0x24\n        /* \"#utility.yul\":18139:18140   */\n      0x00\n        /* \"#utility.yul\":18132:18147   */\n      revert\n        /* \"#utility.yul\":18159:18276   */\n    tag_212:\n        /* \"#utility.yul\":18268:18269   */\n      0x00\n        /* \"#utility.yul\":18265:18266   */\n      dup1\n        /* \"#utility.yul\":18258:18270   */\n      revert\n        /* \"#utility.yul\":18282:18399   */\n    tag_198:\n        /* \"#utility.yul\":18391:18392   */\n      0x00\n        /* \"#utility.yul\":18388:18389   */\n      dup1\n        /* \"#utility.yul\":18381:18393   */\n      revert\n        /* \"#utility.yul\":18405:18522   */\n    tag_232:\n        /* \"#utility.yul\":18514:18515   */\n      0x00\n        /* \"#utility.yul\":18511:18512   */\n      dup1\n        /* \"#utility.yul\":18504:18516   */\n      revert\n        /* \"#utility.yul\":18528:18645   */\n    tag_221:\n        /* \"#utility.yul\":18637:18638   */\n      0x00\n        /* \"#utility.yul\":18634:18635   */\n      dup1\n        /* \"#utility.yul\":18627:18639   */\n      revert\n        /* \"#utility.yul\":18651:18753   */\n    tag_296:\n        /* \"#utility.yul\":18692:18698   */\n      0x00\n        /* \"#utility.yul\":18743:18745   */\n      0x1f\n        /* \"#utility.yul\":18739:18746   */\n      not\n        /* \"#utility.yul\":18734:18736   */\n      0x1f\n        /* \"#utility.yul\":18727:18732   */\n      dup4\n        /* \"#utility.yul\":18723:18737   */\n      add\n        /* \"#utility.yul\":18719:18747   */\n      and\n        /* \"#utility.yul\":18709:18747   */\n      swap1\n      pop\n        /* \"#utility.yul\":18651:18753   */\n      swap2\n      swap1\n      pop\n      jump\t// out\n        /* \"#utility.yul\":18759:18984   */\n    tag_301:\n        /* \"#utility.yul\":18899:18933   */\n      0x4f776e61626c653a206e6577206f776e657220697320746865207a65726f2061\n        /* \"#utility.yul\":18895:18896   */\n      0x00\n        /* \"#utility.yul\":18887:18893   */\n      dup3\n        /* \"#utility.yul\":18883:18897   */\n      add\n        /* \"#utility.yul\":18876:18934   */\n      mstore\n        /* \"#utility.yul\":18968:18976   */\n      0x6464726573730000000000000000000000000000000000000000000000000000\n        /* \"#utility.yul\":18963:18965   */\n      0x20\n        /* \"#utility.yul\":18955:18961   */\n      dup3\n        /* \"#utility.yul\":18951:18966   */\n      add\n        /* \"#utility.yul\":18944:18977   */\n      mstore\n        /* \"#utility.yul\":18759:18984   */\n      pop\n      jump\t// out\n        /* \"#utility.yul\":18990:19220   */\n    tag_306:\n        /* \"#utility.yul\":19130:19164   */\n      0x4465706f736974206661696c65642e2054727920616761696e20696e20736f6d\n        /* \"#utility.yul\":19126:19127   */\n      0x00\n        /* \"#utility.yul\":19118:19124   */\n      dup3\n        /* \"#utility.yul\":19114:19128   */\n      add\n        /* \"#utility.yul\":19107:19165   */\n      mstore\n        /* \"#utility.yul\":19199:19212   */\n      0x65206d6d696e757465732e000000000000000000000000000000000000000000\n        /* \"#utility.yul\":19194:19196   */\n      0x20\n        /* \"#utility.yul\":19186:19192   */\n      dup3\n        /* \"#utility.yul\":19182:19197   */\n      add\n        /* \"#utility.yul\":19175:19213   */\n      mstore\n        /* \"#utility.yul\":18990:19220   */\n      pop\n      jump\t// out\n        /* \"#utility.yul\":19226:19455   */\n    tag_311:\n        /* \"#utility.yul\":19366:19400   */\n      0x4465706f736974206661696c65642e2054727920616761696e20696e20736f6d\n        /* \"#utility.yul\":19362:19363   */\n      0x00\n        /* \"#utility.yul\":19354:19360   */\n      dup3\n        /* \"#utility.yul\":19350:19364   */\n      add\n        /* \"#utility.yul\":19343:19401   */\n      mstore\n        /* \"#utility.yul\":19435:19447   */\n      0x65206d696e757465732e00000000000000000000000000000000000000000000\n        /* \"#utility.yul\":19430:19432   */\n      0x20\n        /* \"#utility.yul\":19422:19428   */\n      dup3\n        /* \"#utility.yul\":19418:19433   */\n      add\n        /* \"#utility.yul\":19411:19448   */\n      mstore\n        /* \"#utility.yul\":19226:19455   */\n      pop\n      jump\t// out\n        /* \"#utility.yul\":19461:19629   */\n    tag_316:\n        /* \"#utility.yul\":19601:19621   */\n      0x496e73756666696369656e742066756e64730000000000000000000000000000\n        /* \"#utility.yul\":19597:19598   */\n      0x00\n        /* \"#utility.yul\":19589:19595   */\n      dup3\n        /* \"#utility.yul\":19585:19599   */\n      add\n        /* \"#utility.yul\":19578:19622   */\n      mstore\n        /* \"#utility.yul\":19461:19629   */\n      pop\n      jump\t// out\n        /* \"#utility.yul\":19635:19817   */\n    tag_321:\n        /* \"#utility.yul\":19775:19809   */\n      0x4f776e61626c653a2063616c6c6572206973206e6f7420746865206f776e6572\n        /* \"#utility.yul\":19771:19772   */\n      0x00\n        /* \"#utility.yul\":19763:19769   */\n      dup3\n        /* \"#utility.yul\":19759:19773   */\n      add\n        /* \"#utility.yul\":19752:19810   */\n      mstore\n        /* \"#utility.yul\":19635:19817   */\n      pop\n      jump\t// out\n        /* \"#utility.yul\":19823:19937   */\n    tag_327:\n      pop\n      jump\t// out\n        /* \"#utility.yul\":19943:20065   */\n    tag_204:\n        /* \"#utility.yul\":20016:20040   */\n      tag_424\n        /* \"#utility.yul\":20034:20039   */\n      dup2\n        /* \"#utility.yul\":20016:20040   */\n      tag_265\n      jump\t// in\n    tag_424:\n        /* \"#utility.yul\":20009:20014   */\n      dup2\n        /* \"#utility.yul\":20006:20041   */\n      eq\n        /* \"#utility.yul\":19996:20059   */\n      tag_425\n      jumpi\n        /* \"#utility.yul\":20055:20056   */\n      0x00\n        /* \"#utility.yul\":20052:20053   */\n      dup1\n        /* \"#utility.yul\":20045:20057   */\n      revert\n        /* \"#utility.yul\":19996:20059   */\n    tag_425:\n        /* \"#utility.yul\":19943:20065   */\n      pop\n      jump\t// out\n        /* \"#utility.yul\":20071:20193   */\n    tag_217:\n        /* \"#utility.yul\":20144:20168   */\n      tag_427\n        /* \"#utility.yul\":20162:20167   */\n      dup2\n        /* \"#utility.yul\":20144:20168   */\n      tag_331\n      jump\t// in\n    tag_427:\n        /* \"#utility.yul\":20137:20142   */\n      dup2\n        /* \"#utility.yul\":20134:20169   */\n      eq\n        /* \"#utility.yul\":20124:20187   */\n      tag_428\n      jumpi\n        /* \"#utility.yul\":20183:20184   */\n      0x00\n        /* \"#utility.yul\":20180:20181   */\n      dup1\n        /* \"#utility.yul\":20173:20185   */\n      revert\n        /* \"#utility.yul\":20124:20187   */\n    tag_428:\n        /* \"#utility.yul\":20071:20193   */\n      pop\n      jump\t// out\n    stop\n\n    sub_0: assembly {\n            /* \"challenges/Consorcio/Employee.sol\":84:693  contract Employee is User {\r... */\n          mstore(0x40, 0x80)\n            /* \"challenges/Consorcio/Employee.sol\":250:586  constructor(\r... */\n          callvalue\n          dup1\n          iszero\n          tag_1\n          jumpi\n          0x00\n          dup1\n          revert\n        tag_1:\n          pop\n          mload(0x40)\n          sub(codesize, bytecodeSize)\n          dup1\n          bytecodeSize\n          dup4\n          codecopy\n          dup2\n          dup2\n          add\n          0x40\n          mstore\n          dup2\n          add\n          swap1\n          tag_2\n          swap2\n          swap1\n          tag_3\n          jump\t// in\n        tag_2:\n            /* \"challenges/Consorcio/Employee.sol\":423:428  newId */\n          dup5\n            /* \"challenges/Consorcio/Employee.sol\":430:440  newAddress */\n          dup5\n            /* \"challenges/Consorcio/User.sol\":587:592  newId */\n          dup2\n            /* \"challenges/Consorcio/User.sol\":582:584  id */\n          0x00\n            /* \"challenges/Consorcio/User.sol\":582:592  id = newId */\n          dup2\n          swap1\n          sstore\n          pop\n            /* \"challenges/Consorcio/User.sol\":623:633  newAddress */\n          dup1\n            /* \"challenges/Consorcio/User.sol\":603:620  withdrawalAddress */\n          0x01\n          0x00\n            /* \"challenges/Consorcio/User.sol\":603:633  withdrawalAddress = newAddress */\n          0x0100\n          exp\n          dup2\n          sload\n          dup2\n          0xffffffffffffffffffffffffffffffffffffffff\n          mul\n          not\n          and\n          swap1\n          dup4\n          0xffffffffffffffffffffffffffffffffffffffff\n          and\n          mul\n          or\n          swap1\n          sstore\n          pop\n            /* \"challenges/Consorcio/User.sol\":527:641  constructor(uint newId, address newAddress) {\r... */\n          pop\n          pop\n            /* \"challenges/Consorcio/Employee.sol\":466:479  newProfession */\n          dup3\n            /* \"challenges/Consorcio/Employee.sol\":453:463  profession */\n          0x02\n            /* \"challenges/Consorcio/Employee.sol\":453:479  profession = newProfession */\n          swap1\n          dup1\n          mload\n          swap1\n          0x20\n          add\n          swap1\n          tag_8\n          swap3\n          swap2\n          swap1\n          tag_9\n          jump\t// in\n        tag_8:\n          pop\n            /* \"challenges/Consorcio/Employee.sol\":501:512  newSchedule */\n          dup2\n            /* \"challenges/Consorcio/Employee.sol\":490:498  schedule */\n          0x03\n            /* \"challenges/Consorcio/Employee.sol\":490:512  schedule = newSchedule */\n          swap1\n          dup1\n          mload\n          swap1\n          0x20\n          add\n          swap1\n          tag_10\n          swap3\n          swap2\n          swap1\n          tag_9\n          jump\t// in\n        tag_10:\n          pop\n            /* \"challenges/Consorcio/Employee.sol\":532:541  newSalary */\n          dup1\n            /* \"challenges/Consorcio/Employee.sol\":523:529  salary */\n          0x04\n            /* \"challenges/Consorcio/Employee.sol\":523:541  salary = newSalary */\n          dup2\n          swap1\n          sstore\n          pop\n            /* \"challenges/Consorcio/Employee.sol\":572:578  salary */\n          sload(0x04)\n            /* \"challenges/Consorcio/Employee.sol\":552:562  salaryById */\n          0x05\n            /* \"challenges/Consorcio/Employee.sol\":552:569  salaryById[newId] */\n          0x00\n            /* \"challenges/Consorcio/Employee.sol\":563:568  newId */\n          dup8\n            /* \"challenges/Consorcio/Employee.sol\":552:569  salaryById[newId] */\n          dup2\n          mstore\n          0x20\n          add\n          swap1\n          dup2\n          mstore\n          0x20\n          add\n          0x00\n          keccak256\n            /* \"challenges/Consorcio/Employee.sol\":552:578  salaryById[newId] = salary */\n          dup2\n          swap1\n          sstore\n          pop\n            /* \"challenges/Consorcio/Employee.sol\":250:586  constructor(\r... */\n          pop\n          pop\n          pop\n          pop\n          pop\n            /* \"challenges/Consorcio/Employee.sol\":84:693  contract Employee is User {\r... */\n          jump(tag_11)\n        tag_9:\n          dup3\n          dup1\n          sload\n          tag_12\n          swap1\n          tag_13\n          jump\t// in\n        tag_12:\n          swap1\n          0x00\n          mstore\n          keccak256(0x00, 0x20)\n          swap1\n          0x1f\n          add\n          0x20\n          swap1\n          div\n          dup2\n          add\n          swap3\n          dup3\n          tag_15\n          jumpi\n          0x00\n          dup6\n          sstore\n          jump(tag_14)\n        tag_15:\n          dup3\n          0x1f\n          lt\n          tag_16\n          jumpi\n          dup1\n          mload\n          not(0xff)\n          and\n          dup4\n          dup1\n          add\n          or\n          dup6\n          sstore\n          jump(tag_14)\n        tag_16:\n          dup3\n          dup1\n          add\n          0x01\n          add\n          dup6\n          sstore\n          dup3\n          iszero\n          tag_14\n          jumpi\n          swap2\n          dup3\n          add\n        tag_17:\n          dup3\n          dup2\n          gt\n          iszero\n          tag_18\n          jumpi\n          dup3\n          mload\n          dup3\n          sstore\n          swap2\n          0x20\n          add\n          swap2\n          swap1\n          0x01\n          add\n          swap1\n          jump(tag_17)\n        tag_18:\n        tag_14:\n          pop\n          swap1\n          pop\n          tag_19\n          swap2\n          swap1\n          tag_20\n          jump\t// in\n        tag_19:\n          pop\n          swap1\n          jump\t// out\n        tag_20:\n        tag_21:\n          dup1\n          dup3\n          gt\n          iszero\n          tag_22\n          jumpi\n          0x00\n          dup2\n          0x00\n          swap1\n          sstore\n          pop\n          0x01\n          add\n          jump(tag_21)\n        tag_22:\n          pop\n          swap1\n          jump\t// out\n            /* \"#utility.yul\":7:428   */\n        tag_24:\n            /* \"#utility.yul\":96:101   */\n          0x00\n            /* \"#utility.yul\":121:187   */\n          tag_26\n            /* \"#utility.yul\":137:186   */\n          tag_27\n            /* \"#utility.yul\":179:185   */\n          dup5\n            /* \"#utility.yul\":137:186   */\n          tag_28\n          jump\t// in\n        tag_27:\n            /* \"#utility.yul\":121:187   */\n          tag_29\n          jump\t// in\n        tag_26:\n            /* \"#utility.yul\":112:187   */\n          swap1\n          pop\n            /* \"#utility.yul\":210:216   */\n          dup3\n            /* \"#utility.yul\":203:208   */\n          dup2\n            /* \"#utility.yul\":196:217   */\n          mstore\n            /* \"#utility.yul\":248:252   */\n          0x20\n            /* \"#utility.yul\":241:246   */\n          dup2\n            /* \"#utility.yul\":237:253   */\n          add\n            /* \"#utility.yul\":286:289   */\n          dup5\n            /* \"#utility.yul\":277:283   */\n          dup5\n            /* \"#utility.yul\":272:275   */\n          dup5\n            /* \"#utility.yul\":268:284   */\n          add\n            /* \"#utility.yul\":265:290   */\n          gt\n            /* \"#utility.yul\":262:374   */\n          iszero\n          tag_30\n          jumpi\n            /* \"#utility.yul\":293:372   */\n          tag_31\n          tag_32\n          jump\t// in\n        tag_31:\n            /* \"#utility.yul\":262:374   */\n        tag_30:\n            /* \"#utility.yul\":383:422   */\n          tag_33\n            /* \"#utility.yul\":415:421   */\n          dup5\n            /* \"#utility.yul\":410:413   */\n          dup3\n            /* \"#utility.yul\":405:408   */\n          dup6\n            /* \"#utility.yul\":383:422   */\n          tag_34\n          jump\t// in\n        tag_33:\n            /* \"#utility.yul\":102:428   */\n          pop\n            /* \"#utility.yul\":7:428   */\n          swap4\n          swap3\n          pop\n          pop\n          pop\n          jump\t// out\n            /* \"#utility.yul\":434:577   */\n        tag_35:\n            /* \"#utility.yul\":491:496   */\n          0x00\n            /* \"#utility.yul\":522:528   */\n          dup2\n            /* \"#utility.yul\":516:529   */\n          mload\n            /* \"#utility.yul\":507:529   */\n          swap1\n          pop\n            /* \"#utility.yul\":538:571   */\n          tag_37\n            /* \"#utility.yul\":565:570   */\n          dup2\n            /* \"#utility.yul\":538:571   */\n          tag_38\n          jump\t// in\n        tag_37:\n            /* \"#utility.yul\":434:577   */\n          swap3\n          swap2\n          pop\n          pop\n          jump\t// out\n            /* \"#utility.yul\":597:952   */\n        tag_39:\n            /* \"#utility.yul\":664:669   */\n          0x00\n            /* \"#utility.yul\":713:716   */\n          dup3\n            /* \"#utility.yul\":706:710   */\n          0x1f\n            /* \"#utility.yul\":698:704   */\n          dup4\n            /* \"#utility.yul\":694:711   */\n          add\n            /* \"#utility.yul\":690:717   */\n          slt\n            /* \"#utility.yul\":680:802   */\n          tag_41\n          jumpi\n            /* \"#utility.yul\":721:800   */\n          tag_42\n          tag_43\n          jump\t// in\n        tag_42:\n            /* \"#utility.yul\":680:802   */\n        tag_41:\n            /* \"#utility.yul\":831:837   */\n          dup2\n            /* \"#utility.yul\":825:838   */\n          mload\n            /* \"#utility.yul\":856:946   */\n          tag_44\n            /* \"#utility.yul\":942:945   */\n          dup5\n            /* \"#utility.yul\":934:940   */\n          dup3\n            /* \"#utility.yul\":927:931   */\n          0x20\n            /* \"#utility.yul\":919:925   */\n          dup7\n            /* \"#utility.yul\":915:932   */\n          add\n            /* \"#utility.yul\":856:946   */\n          tag_24\n          jump\t// in\n        tag_44:\n            /* \"#utility.yul\":847:946   */\n          swap2\n          pop\n            /* \"#utility.yul\":670:952   */\n          pop\n            /* \"#utility.yul\":597:952   */\n          swap3\n          swap2\n          pop\n          pop\n          jump\t// out\n            /* \"#utility.yul\":958:1101   */\n        tag_45:\n            /* \"#utility.yul\":1015:1020   */\n          0x00\n            /* \"#utility.yul\":1046:1052   */\n          dup2\n            /* \"#utility.yul\":1040:1053   */\n          mload\n            /* \"#utility.yul\":1031:1053   */\n          swap1\n          pop\n            /* \"#utility.yul\":1062:1095   */\n          tag_47\n            /* \"#utility.yul\":1089:1094   */\n          dup2\n            /* \"#utility.yul\":1062:1095   */\n          tag_48\n          jump\t// in\n        tag_47:\n            /* \"#utility.yul\":958:1101   */\n          swap3\n          swap2\n          pop\n          pop\n          jump\t// out\n            /* \"#utility.yul\":1107:2430   */\n        tag_3:\n            /* \"#utility.yul\":1233:1239   */\n          0x00\n            /* \"#utility.yul\":1241:1247   */\n          dup1\n            /* \"#utility.yul\":1249:1255   */\n          0x00\n            /* \"#utility.yul\":1257:1263   */\n          dup1\n            /* \"#utility.yul\":1265:1271   */\n          0x00\n            /* \"#utility.yul\":1314:1317   */\n          0xa0\n            /* \"#utility.yul\":1302:1311   */\n          dup7\n            /* \"#utility.yul\":1293:1300   */\n          dup9\n            /* \"#utility.yul\":1289:1312   */\n          sub\n            /* \"#utility.yul\":1285:1318   */\n          slt\n            /* \"#utility.yul\":1282:1402   */\n          iszero\n          tag_50\n          jumpi\n            /* \"#utility.yul\":1321:1400   */\n          tag_51\n          tag_52\n          jump\t// in\n        tag_51:\n            /* \"#utility.yul\":1282:1402   */\n        tag_50:\n            /* \"#utility.yul\":1441:1442   */\n          0x00\n            /* \"#utility.yul\":1466:1530   */\n          tag_53\n            /* \"#utility.yul\":1522:1529   */\n          dup9\n            /* \"#utility.yul\":1513:1519   */\n          dup3\n            /* \"#utility.yul\":1502:1511   */\n          dup10\n            /* \"#utility.yul\":1498:1520   */\n          add\n            /* \"#utility.yul\":1466:1530   */\n          tag_45\n          jump\t// in\n        tag_53:\n            /* \"#utility.yul\":1456:1530   */\n          swap6\n          pop\n            /* \"#utility.yul\":1412:1540   */\n          pop\n            /* \"#utility.yul\":1579:1581   */\n          0x20\n            /* \"#utility.yul\":1605:1669   */\n          tag_54\n            /* \"#utility.yul\":1661:1668   */\n          dup9\n            /* \"#utility.yul\":1652:1658   */\n          dup3\n            /* \"#utility.yul\":1641:1650   */\n          dup10\n            /* \"#utility.yul\":1637:1659   */\n          add\n            /* \"#utility.yul\":1605:1669   */\n          tag_35\n          jump\t// in\n        tag_54:\n            /* \"#utility.yul\":1595:1669   */\n          swap5\n          pop\n            /* \"#utility.yul\":1550:1679   */\n          pop\n            /* \"#utility.yul\":1739:1741   */\n          0x40\n            /* \"#utility.yul\":1728:1737   */\n          dup7\n            /* \"#utility.yul\":1724:1742   */\n          add\n            /* \"#utility.yul\":1718:1743   */\n          mload\n            /* \"#utility.yul\":1770:1788   */\n          0xffffffffffffffff\n            /* \"#utility.yul\":1762:1768   */\n          dup2\n            /* \"#utility.yul\":1759:1789   */\n          gt\n            /* \"#utility.yul\":1756:1873   */\n          iszero\n          tag_55\n          jumpi\n            /* \"#utility.yul\":1792:1871   */\n          tag_56\n          tag_57\n          jump\t// in\n        tag_56:\n            /* \"#utility.yul\":1756:1873   */\n        tag_55:\n            /* \"#utility.yul\":1897:1971   */\n          tag_58\n            /* \"#utility.yul\":1963:1970   */\n          dup9\n            /* \"#utility.yul\":1954:1960   */\n          dup3\n            /* \"#utility.yul\":1943:1952   */\n          dup10\n            /* \"#utility.yul\":1939:1961   */\n          add\n            /* \"#utility.yul\":1897:1971   */\n          tag_39\n          jump\t// in\n        tag_58:\n            /* \"#utility.yul\":1887:1971   */\n          swap4\n          pop\n            /* \"#utility.yul\":1689:1981   */\n          pop\n            /* \"#utility.yul\":2041:2043   */\n          0x60\n            /* \"#utility.yul\":2030:2039   */\n          dup7\n            /* \"#utility.yul\":2026:2044   */\n          add\n            /* \"#utility.yul\":2020:2045   */\n          mload\n            /* \"#utility.yul\":2072:2090   */\n          0xffffffffffffffff\n            /* \"#utility.yul\":2064:2070   */\n          dup2\n            /* \"#utility.yul\":2061:2091   */\n          gt\n            /* \"#utility.yul\":2058:2175   */\n          iszero\n          tag_59\n          jumpi\n            /* \"#utility.yul\":2094:2173   */\n          tag_60\n          tag_57\n          jump\t// in\n        tag_60:\n            /* \"#utility.yul\":2058:2175   */\n        tag_59:\n            /* \"#utility.yul\":2199:2273   */\n          tag_61\n            /* \"#utility.yul\":2265:2272   */\n          dup9\n            /* \"#utility.yul\":2256:2262   */\n          dup3\n            /* \"#utility.yul\":2245:2254   */\n          dup10\n            /* \"#utility.yul\":2241:2263   */\n          add\n            /* \"#utility.yul\":2199:2273   */\n          tag_39\n          jump\t// in\n        tag_61:\n            /* \"#utility.yul\":2189:2273   */\n          swap3\n          pop\n            /* \"#utility.yul\":1991:2283   */\n          pop\n            /* \"#utility.yul\":2322:2325   */\n          0x80\n            /* \"#utility.yul\":2349:2413   */\n          tag_62\n            /* \"#utility.yul\":2405:2412   */\n          dup9\n            /* \"#utility.yul\":2396:2402   */\n          dup3\n            /* \"#utility.yul\":2385:2394   */\n          dup10\n            /* \"#utility.yul\":2381:2403   */\n          add\n            /* \"#utility.yul\":2349:2413   */\n          tag_45\n          jump\t// in\n        tag_62:\n            /* \"#utility.yul\":2339:2413   */\n          swap2\n          pop\n            /* \"#utility.yul\":2293:2423   */\n          pop\n            /* \"#utility.yul\":1107:2430   */\n          swap3\n          swap6\n          pop\n          swap3\n          swap6\n          swap1\n          swap4\n          pop\n          jump\t// out\n            /* \"#utility.yul\":2436:2565   */\n        tag_29:\n            /* \"#utility.yul\":2470:2476   */\n          0x00\n            /* \"#utility.yul\":2497:2517   */\n          tag_64\n          tag_65\n          jump\t// in\n        tag_64:\n            /* \"#utility.yul\":2487:2517   */\n          swap1\n          pop\n            /* \"#utility.yul\":2526:2559   */\n          tag_66\n            /* \"#utility.yul\":2554:2558   */\n          dup3\n            /* \"#utility.yul\":2546:2552   */\n          dup3\n            /* \"#utility.yul\":2526:2559   */\n          tag_67\n          jump\t// in\n        tag_66:\n            /* \"#utility.yul\":2436:2565   */\n          swap2\n          swap1\n          pop\n          jump\t// out\n            /* \"#utility.yul\":2571:2646   */\n        tag_65:\n            /* \"#utility.yul\":2604:2610   */\n          0x00\n            /* \"#utility.yul\":2637:2639   */\n          0x40\n            /* \"#utility.yul\":2631:2640   */\n          mload\n            /* \"#utility.yul\":2621:2640   */\n          swap1\n          pop\n            /* \"#utility.yul\":2571:2646   */\n          swap1\n          jump\t// out\n            /* \"#utility.yul\":2652:2960   */\n        tag_28:\n            /* \"#utility.yul\":2714:2718   */\n          0x00\n            /* \"#utility.yul\":2804:2822   */\n          0xffffffffffffffff\n            /* \"#utility.yul\":2796:2802   */\n          dup3\n            /* \"#utility.yul\":2793:2823   */\n          gt\n            /* \"#utility.yul\":2790:2846   */\n          iszero\n          tag_70\n          jumpi\n            /* \"#utility.yul\":2826:2844   */\n          tag_71\n          tag_72\n          jump\t// in\n        tag_71:\n            /* \"#utility.yul\":2790:2846   */\n        tag_70:\n            /* \"#utility.yul\":2864:2893   */\n          tag_73\n            /* \"#utility.yul\":2886:2892   */\n          dup3\n            /* \"#utility.yul\":2864:2893   */\n          tag_74\n          jump\t// in\n        tag_73:\n            /* \"#utility.yul\":2856:2893   */\n          swap1\n          pop\n            /* \"#utility.yul\":2948:2952   */\n          0x20\n            /* \"#utility.yul\":2942:2946   */\n          dup2\n            /* \"#utility.yul\":2938:2953   */\n          add\n            /* \"#utility.yul\":2930:2953   */\n          swap1\n          pop\n            /* \"#utility.yul\":2652:2960   */\n          swap2\n          swap1\n          pop\n          jump\t// out\n            /* \"#utility.yul\":2966:3062   */\n        tag_75:\n            /* \"#utility.yul\":3003:3010   */\n          0x00\n            /* \"#utility.yul\":3032:3056   */\n          tag_77\n            /* \"#utility.yul\":3050:3055   */\n          dup3\n            /* \"#utility.yul\":3032:3056   */\n          tag_78\n          jump\t// in\n        tag_77:\n            /* \"#utility.yul\":3021:3056   */\n          swap1\n          pop\n            /* \"#utility.yul\":2966:3062   */\n          swap2\n          swap1\n          pop\n          jump\t// out\n            /* \"#utility.yul\":3068:3194   */\n        tag_78:\n            /* \"#utility.yul\":3105:3112   */\n          0x00\n            /* \"#utility.yul\":3145:3187   */\n          0xffffffffffffffffffffffffffffffffffffffff\n            /* \"#utility.yul\":3138:3143   */\n          dup3\n            /* \"#utility.yul\":3134:3188   */\n          and\n            /* \"#utility.yul\":3123:3188   */\n          swap1\n          pop\n            /* \"#utility.yul\":3068:3194   */\n          swap2\n          swap1\n          pop\n          jump\t// out\n            /* \"#utility.yul\":3200:3277   */\n        tag_80:\n            /* \"#utility.yul\":3237:3244   */\n          0x00\n            /* \"#utility.yul\":3266:3271   */\n          dup2\n            /* \"#utility.yul\":3255:3271   */\n          swap1\n          pop\n            /* \"#utility.yul\":3200:3277   */\n          swap2\n          swap1\n          pop\n          jump\t// out\n            /* \"#utility.yul\":3283:3590   */\n        tag_34:\n            /* \"#utility.yul\":3351:3352   */\n          0x00\n            /* \"#utility.yul\":3361:3474   */\n        tag_83:\n            /* \"#utility.yul\":3375:3381   */\n          dup4\n            /* \"#utility.yul\":3372:3373   */\n          dup2\n            /* \"#utility.yul\":3369:3382   */\n          lt\n            /* \"#utility.yul\":3361:3474   */\n          iszero\n          tag_85\n          jumpi\n            /* \"#utility.yul\":3460:3461   */\n          dup1\n            /* \"#utility.yul\":3455:3458   */\n          dup3\n            /* \"#utility.yul\":3451:3462   */\n          add\n            /* \"#utility.yul\":3445:3463   */\n          mload\n            /* \"#utility.yul\":3441:3442   */\n          dup2\n            /* \"#utility.yul\":3436:3439   */\n          dup5\n            /* \"#utility.yul\":3432:3443   */\n          add\n            /* \"#utility.yul\":3425:3464   */\n          mstore\n            /* \"#utility.yul\":3397:3399   */\n          0x20\n            /* \"#utility.yul\":3394:3395   */\n          dup2\n            /* \"#utility.yul\":3390:3400   */\n          add\n            /* \"#utility.yul\":3385:3400   */\n          swap1\n          pop\n            /* \"#utility.yul\":3361:3474   */\n          jump(tag_83)\n        tag_85:\n            /* \"#utility.yul\":3492:3498   */\n          dup4\n            /* \"#utility.yul\":3489:3490   */\n          dup2\n            /* \"#utility.yul\":3486:3499   */\n          gt\n            /* \"#utility.yul\":3483:3584   */\n          iszero\n          tag_86\n          jumpi\n            /* \"#utility.yul\":3572:3573   */\n          0x00\n            /* \"#utility.yul\":3563:3569   */\n          dup5\n            /* \"#utility.yul\":3558:3561   */\n          dup5\n            /* \"#utility.yul\":3554:3570   */\n          add\n            /* \"#utility.yul\":3547:3574   */\n          mstore\n            /* \"#utility.yul\":3483:3584   */\n        tag_86:\n            /* \"#utility.yul\":3332:3590   */\n          pop\n            /* \"#utility.yul\":3283:3590   */\n          pop\n          pop\n          pop\n          jump\t// out\n            /* \"#utility.yul\":3596:3916   */\n        tag_13:\n            /* \"#utility.yul\":3640:3646   */\n          0x00\n            /* \"#utility.yul\":3677:3678   */\n          0x02\n            /* \"#utility.yul\":3671:3675   */\n          dup3\n            /* \"#utility.yul\":3667:3679   */\n          div\n            /* \"#utility.yul\":3657:3679   */\n          swap1\n          pop\n            /* \"#utility.yul\":3724:3725   */\n          0x01\n            /* \"#utility.yul\":3718:3722   */\n          dup3\n            /* \"#utility.yul\":3714:3726   */\n          and\n            /* \"#utility.yul\":3745:3763   */\n          dup1\n            /* \"#utility.yul\":3735:3816   */\n          tag_88\n          jumpi\n            /* \"#utility.yul\":3801:3805   */\n          0x7f\n            /* \"#utility.yul\":3793:3799   */\n          dup3\n            /* \"#utility.yul\":3789:3806   */\n          and\n            /* \"#utility.yul\":3779:3806   */\n          swap2\n          pop\n            /* \"#utility.yul\":3735:3816   */\n        tag_88:\n            /* \"#utility.yul\":3863:3865   */\n          0x20\n            /* \"#utility.yul\":3855:3861   */\n          dup3\n            /* \"#utility.yul\":3852:3866   */\n          lt\n            /* \"#utility.yul\":3832:3850   */\n          dup2\n            /* \"#utility.yul\":3829:3867   */\n          eq\n            /* \"#utility.yul\":3826:3910   */\n          iszero\n          tag_89\n          jumpi\n            /* \"#utility.yul\":3882:3900   */\n          tag_90\n          tag_91\n          jump\t// in\n        tag_90:\n            /* \"#utility.yul\":3826:3910   */\n        tag_89:\n            /* \"#utility.yul\":3647:3916   */\n          pop\n            /* \"#utility.yul\":3596:3916   */\n          swap2\n          swap1\n          pop\n          jump\t// out\n            /* \"#utility.yul\":3922:4203   */\n        tag_67:\n            /* \"#utility.yul\":4005:4032   */\n          tag_93\n            /* \"#utility.yul\":4027:4031   */\n          dup3\n            /* \"#utility.yul\":4005:4032   */\n          tag_74\n          jump\t// in\n        tag_93:\n            /* \"#utility.yul\":3997:4003   */\n          dup2\n            /* \"#utility.yul\":3993:4033   */\n          add\n            /* \"#utility.yul\":4135:4141   */\n          dup2\n            /* \"#utility.yul\":4123:4133   */\n          dup2\n            /* \"#utility.yul\":4120:4142   */\n          lt\n            /* \"#utility.yul\":4099:4117   */\n          0xffffffffffffffff\n            /* \"#utility.yul\":4087:4097   */\n          dup3\n            /* \"#utility.yul\":4084:4118   */\n          gt\n            /* \"#utility.yul\":4081:4143   */\n          or\n            /* \"#utility.yul\":4078:4166   */\n          iszero\n          tag_94\n          jumpi\n            /* \"#utility.yul\":4146:4164   */\n          tag_95\n          tag_72\n          jump\t// in\n        tag_95:\n            /* \"#utility.yul\":4078:4166   */\n        tag_94:\n            /* \"#utility.yul\":4186:4196   */\n          dup1\n            /* \"#utility.yul\":4182:4184   */\n          0x40\n            /* \"#utility.yul\":4175:4197   */\n          mstore\n            /* \"#utility.yul\":3965:4203   */\n          pop\n            /* \"#utility.yul\":3922:4203   */\n          pop\n          pop\n          jump\t// out\n            /* \"#utility.yul\":4209:4389   */\n        tag_91:\n            /* \"#utility.yul\":4257:4334   */\n          0x4e487b7100000000000000000000000000000000000000000000000000000000\n            /* \"#utility.yul\":4254:4255   */\n          0x00\n            /* \"#utility.yul\":4247:4335   */\n          mstore\n            /* \"#utility.yul\":4354:4358   */\n          0x22\n            /* \"#utility.yul\":4351:4352   */\n          0x04\n            /* \"#utility.yul\":4344:4359   */\n          mstore\n            /* \"#utility.yul\":4378:4382   */\n          0x24\n            /* \"#utility.yul\":4375:4376   */\n          0x00\n            /* \"#utility.yul\":4368:4383   */\n          revert\n            /* \"#utility.yul\":4395:4575   */\n        tag_72:\n            /* \"#utility.yul\":4443:4520   */\n          0x4e487b7100000000000000000000000000000000000000000000000000000000\n            /* \"#utility.yul\":4440:4441   */\n          0x00\n            /* \"#utility.yul\":4433:4521   */\n          mstore\n            /* \"#utility.yul\":4540:4544   */\n          0x41\n            /* \"#utility.yul\":4537:4538   */\n          0x04\n            /* \"#utility.yul\":4530:4545   */\n          mstore\n            /* \"#utility.yul\":4564:4568   */\n          0x24\n            /* \"#utility.yul\":4561:4562   */\n          0x00\n            /* \"#utility.yul\":4554:4569   */\n          revert\n            /* \"#utility.yul\":4581:4698   */\n        tag_43:\n            /* \"#utility.yul\":4690:4691   */\n          0x00\n            /* \"#utility.yul\":4687:4688   */\n          dup1\n            /* \"#utility.yul\":4680:4692   */\n          revert\n            /* \"#utility.yul\":4704:4821   */\n        tag_32:\n            /* \"#utility.yul\":4813:4814   */\n          0x00\n            /* \"#utility.yul\":4810:4811   */\n          dup1\n            /* \"#utility.yul\":4803:4815   */\n          revert\n            /* \"#utility.yul\":4827:4944   */\n        tag_57:\n            /* \"#utility.yul\":4936:4937   */\n          0x00\n            /* \"#utility.yul\":4933:4934   */\n          dup1\n            /* \"#utility.yul\":4926:4938   */\n          revert\n            /* \"#utility.yul\":4950:5067   */\n        tag_52:\n            /* \"#utility.yul\":5059:5060   */\n          0x00\n            /* \"#utility.yul\":5056:5057   */\n          dup1\n            /* \"#utility.yul\":5049:5061   */\n          revert\n            /* \"#utility.yul\":5073:5175   */\n        tag_74:\n            /* \"#utility.yul\":5114:5120   */\n          0x00\n            /* \"#utility.yul\":5165:5167   */\n          0x1f\n            /* \"#utility.yul\":5161:5168   */\n          not\n            /* \"#utility.yul\":5156:5158   */\n          0x1f\n            /* \"#utility.yul\":5149:5154   */\n          dup4\n            /* \"#utility.yul\":5145:5159   */\n          add\n            /* \"#utility.yul\":5141:5169   */\n          and\n            /* \"#utility.yul\":5131:5169   */\n          swap1\n          pop\n            /* \"#utility.yul\":5073:5175   */\n          swap2\n          swap1\n          pop\n          jump\t// out\n            /* \"#utility.yul\":5181:5303   */\n        tag_38:\n            /* \"#utility.yul\":5254:5278   */\n          tag_104\n            /* \"#utility.yul\":5272:5277   */\n          dup2\n            /* \"#utility.yul\":5254:5278   */\n          tag_75\n          jump\t// in\n        tag_104:\n            /* \"#utility.yul\":5247:5252   */\n          dup2\n            /* \"#utility.yul\":5244:5279   */\n          eq\n            /* \"#utility.yul\":5234:5297   */\n          tag_105\n          jumpi\n            /* \"#utility.yul\":5293:5294   */\n          0x00\n            /* \"#utility.yul\":5290:5291   */\n          dup1\n            /* \"#utility.yul\":5283:5295   */\n          revert\n            /* \"#utility.yul\":5234:5297   */\n        tag_105:\n            /* \"#utility.yul\":5181:5303   */\n          pop\n          jump\t// out\n            /* \"#utility.yul\":5309:5431   */\n        tag_48:\n            /* \"#utility.yul\":5382:5406   */\n          tag_107\n            /* \"#utility.yul\":5400:5405   */\n          dup2\n            /* \"#utility.yul\":5382:5406   */\n          tag_80\n          jump\t// in\n        tag_107:\n            /* \"#utility.yul\":5375:5380   */\n          dup2\n            /* \"#utility.yul\":5372:5407   */\n          eq\n            /* \"#utility.yul\":5362:5425   */\n          tag_108\n          jumpi\n            /* \"#utility.yul\":5421:5422   */\n          0x00\n            /* \"#utility.yul\":5418:5419   */\n          dup1\n            /* \"#utility.yul\":5411:5423   */\n          revert\n            /* \"#utility.yul\":5362:5425   */\n        tag_108:\n            /* \"#utility.yul\":5309:5431   */\n          pop\n          jump\t// out\n            /* \"challenges/Consorcio/Employee.sol\":84:693  contract Employee is User {\r... */\n        tag_11:\n          dataSize(sub_0)\n          dup1\n          dataOffset(sub_0)\n          0x00\n          codecopy\n          0x00\n          return\n        stop\n\n        sub_0: assembly {\n                /* \"challenges/Consorcio/Employee.sol\":84:693  contract Employee is User {\r... */\n              mstore(0x40, 0x80)\n              jumpi(tag_1, lt(calldatasize, 0x04))\n              shr(0xe0, calldataload(0x00))\n              dup1\n              0x38cc4831\n              eq\n              tag_3\n              jumpi\n              dup1\n              0x80bfacc2\n              eq\n              tag_4\n              jumpi\n              dup1\n              0x835fc6ca\n              eq\n              tag_5\n              jumpi\n              dup1\n              0xaf640d0f\n              eq\n              tag_6\n              jumpi\n              dup1\n              0xf2bcd022\n              eq\n              tag_7\n              jumpi\n              jump(tag_2)\n            tag_1:\n              jumpi(tag_2, calldatasize)\n                /* \"challenges/Consorcio/User.sol\":329:391  EtherReceived(msg.value, address(this), address(this).balance) */\n              0x2d27851832fcac28a0d4af1344f01fed7ffcfd15171c14c564a0c42aa57ae5c0\n                /* \"challenges/Consorcio/User.sol\":343:352  msg.value */\n              callvalue\n                /* \"challenges/Consorcio/User.sol\":362:366  this */\n              address\n                /* \"challenges/Consorcio/User.sol\":369:390  address(this).balance */\n              selfbalance\n                /* \"challenges/Consorcio/User.sol\":329:391  EtherReceived(msg.value, address(this), address(this).balance) */\n              mload(0x40)\n              tag_10\n              swap4\n              swap3\n              swap2\n              swap1\n              tag_11\n              jump\t// in\n            tag_10:\n              mload(0x40)\n              dup1\n              swap2\n              sub\n              swap1\n              log1\n                /* \"challenges/Consorcio/Employee.sol\":84:693  contract Employee is User {\r... */\n              stop\n            tag_2:\n                /* \"challenges/Consorcio/User.sol\":449:511  EtherReceived(msg.value, address(this), address(this).balance) */\n              0x2d27851832fcac28a0d4af1344f01fed7ffcfd15171c14c564a0c42aa57ae5c0\n                /* \"challenges/Consorcio/User.sol\":463:472  msg.value */\n              callvalue\n                /* \"challenges/Consorcio/User.sol\":482:486  this */\n              address\n                /* \"challenges/Consorcio/User.sol\":489:510  address(this).balance */\n              selfbalance\n                /* \"challenges/Consorcio/User.sol\":449:511  EtherReceived(msg.value, address(this), address(this).balance) */\n              mload(0x40)\n              tag_14\n              swap4\n              swap3\n              swap2\n              swap1\n              tag_11\n              jump\t// in\n            tag_14:\n              mload(0x40)\n              dup1\n              swap2\n              sub\n              swap1\n              log1\n                /* \"challenges/Consorcio/Employee.sol\":84:693  contract Employee is User {\r... */\n              stop\n                /* \"challenges/Consorcio/User.sol\":1051:1142  function getAddress() public view returns (address) {\r... */\n            tag_3:\n              callvalue\n              dup1\n              iszero\n              tag_15\n              jumpi\n              0x00\n              dup1\n              revert\n            tag_15:\n              pop\n              tag_16\n              tag_17\n              jump\t// in\n            tag_16:\n              mload(0x40)\n              tag_18\n              swap2\n              swap1\n              tag_19\n              jump\t// in\n            tag_18:\n              mload(0x40)\n              dup1\n              swap2\n              sub\n              swap1\n              return\n                /* \"challenges/Consorcio/Employee.sol\":594:690  function getSalary(uint _id) public view returns(uint) {\r... */\n            tag_4:\n              callvalue\n              dup1\n              iszero\n              tag_20\n              jumpi\n              0x00\n              dup1\n              revert\n            tag_20:\n              pop\n              tag_21\n              0x04\n              dup1\n              calldatasize\n              sub\n              dup2\n              add\n              swap1\n              tag_22\n              swap2\n              swap1\n              tag_23\n              jump\t// in\n            tag_22:\n              tag_24\n              jump\t// in\n            tag_21:\n              mload(0x40)\n              tag_25\n              swap2\n              swap1\n              tag_26\n              jump\t// in\n            tag_25:\n              mload(0x40)\n              dup1\n              swap2\n              sub\n              swap1\n              return\n                /* \"challenges/Consorcio/User.sol\":649:1043  function withdrawal(uint _amount) public {\r... */\n            tag_5:\n              callvalue\n              dup1\n              iszero\n              tag_27\n              jumpi\n              0x00\n              dup1\n              revert\n            tag_27:\n              pop\n              tag_28\n              0x04\n              dup1\n              calldatasize\n              sub\n              dup2\n              add\n              swap1\n              tag_29\n              swap2\n              swap1\n              tag_23\n              jump\t// in\n            tag_29:\n              tag_30\n              jump\t// in\n            tag_28:\n              stop\n                /* \"challenges/Consorcio/User.sol\":92:106  uint public id */\n            tag_6:\n              callvalue\n              dup1\n              iszero\n              tag_31\n              jumpi\n              0x00\n              dup1\n              revert\n            tag_31:\n              pop\n              tag_32\n              tag_33\n              jump\t// in\n            tag_32:\n              mload(0x40)\n              tag_34\n              swap2\n              swap1\n              tag_26\n              jump\t// in\n            tag_34:\n              mload(0x40)\n              dup1\n              swap2\n              sub\n              swap1\n              return\n                /* \"challenges/Consorcio/User.sol\":113:145  address public withdrawalAddress */\n            tag_7:\n              callvalue\n              dup1\n              iszero\n              tag_35\n              jumpi\n              0x00\n              dup1\n              revert\n            tag_35:\n              pop\n              tag_36\n              tag_37\n              jump\t// in\n            tag_36:\n              mload(0x40)\n              tag_38\n              swap2\n              swap1\n              tag_19\n              jump\t// in\n            tag_38:\n              mload(0x40)\n              dup1\n              swap2\n              sub\n              swap1\n              return\n                /* \"challenges/Consorcio/User.sol\":1051:1142  function getAddress() public view returns (address) {\r... */\n            tag_17:\n                /* \"challenges/Consorcio/User.sol\":1094:1101  address */\n              0x00\n                /* \"challenges/Consorcio/User.sol\":1129:1133  this */\n              address\n                /* \"challenges/Consorcio/User.sol\":1114:1134  return address(this) */\n              swap1\n              pop\n                /* \"challenges/Consorcio/User.sol\":1051:1142  function getAddress() public view returns (address) {\r... */\n              swap1\n              jump\t// out\n                /* \"challenges/Consorcio/Employee.sol\":594:690  function getSalary(uint _id) public view returns(uint) {\r... */\n            tag_24:\n                /* \"challenges/Consorcio/Employee.sol\":643:647  uint */\n              0x00\n                /* \"challenges/Consorcio/Employee.sol\":667:677  salaryById */\n              0x05\n                /* \"challenges/Consorcio/Employee.sol\":667:682  salaryById[_id] */\n              0x00\n                /* \"challenges/Consorcio/Employee.sol\":678:681  _id */\n              dup4\n                /* \"challenges/Consorcio/Employee.sol\":667:682  salaryById[_id] */\n              dup2\n              mstore\n              0x20\n              add\n              swap1\n              dup2\n              mstore\n              0x20\n              add\n              0x00\n              keccak256\n              sload\n                /* \"challenges/Consorcio/Employee.sol\":660:682  return salaryById[_id] */\n              swap1\n              pop\n                /* \"challenges/Consorcio/Employee.sol\":594:690  function getSalary(uint _id) public view returns(uint) {\r... */\n              swap2\n              swap1\n              pop\n              jump\t// out\n                /* \"challenges/Consorcio/User.sol\":649:1043  function withdrawal(uint _amount) public {\r... */\n            tag_30:\n                /* \"challenges/Consorcio/User.sol\":748:755  _amount */\n              dup1\n                /* \"challenges/Consorcio/User.sol\":723:744  address(this).balance */\n              selfbalance\n                /* \"challenges/Consorcio/User.sol\":723:755  address(this).balance >= _amount */\n              lt\n              iszero\n                /* \"challenges/Consorcio/User.sol\":701:807  require(\r... */\n              tag_42\n              jumpi\n              mload(0x40)\n              0x08c379a000000000000000000000000000000000000000000000000000000000\n              dup2\n              mstore\n              0x04\n              add\n              tag_43\n              swap1\n              tag_44\n              jump\t// in\n            tag_43:\n              mload(0x40)\n              dup1\n              swap2\n              sub\n              swap1\n              revert\n            tag_42:\n                /* \"challenges/Consorcio/User.sol\":829:841  bool success */\n              0x00\n                /* \"challenges/Consorcio/User.sol\":846:863  withdrawalAddress */\n              0x01\n              0x00\n              swap1\n              sload\n              swap1\n              0x0100\n              exp\n              swap1\n              div\n              0xffffffffffffffffffffffffffffffffffffffff\n              and\n                /* \"challenges/Consorcio/User.sol\":846:868  withdrawalAddress.call */\n              0xffffffffffffffffffffffffffffffffffffffff\n              and\n                /* \"challenges/Consorcio/User.sol\":876:883  _amount */\n              dup3\n                /* \"challenges/Consorcio/User.sol\":846:888  withdrawalAddress.call{value: _amount}(\"\") */\n              mload(0x40)\n              tag_45\n              swap1\n              tag_46\n              jump\t// in\n            tag_45:\n              0x00\n              mload(0x40)\n              dup1\n              dup4\n              sub\n              dup2\n              dup6\n              dup8\n              gas\n              call\n              swap3\n              pop\n              pop\n              pop\n              returndatasize\n              dup1\n              0x00\n              dup2\n              eq\n              tag_49\n              jumpi\n              mload(0x40)\n              swap2\n              pop\n              and(add(returndatasize, 0x3f), not(0x1f))\n              dup3\n              add\n              0x40\n              mstore\n              returndatasize\n              dup3\n              mstore\n              returndatasize\n              0x00\n              0x20\n              dup5\n              add\n              returndatacopy\n              jump(tag_48)\n            tag_49:\n              0x60\n              swap2\n              pop\n            tag_48:\n              pop\n                /* \"challenges/Consorcio/User.sol\":828:888  (bool success,) = withdrawalAddress.call{value: _amount}(\"\") */\n              pop\n              swap1\n              pop\n                /* \"challenges/Consorcio/User.sol\":920:924  true */\n              0x01\n                /* \"challenges/Consorcio/User.sol\":909:924  success == true */\n              iszero\n              iszero\n                /* \"challenges/Consorcio/User.sol\":909:916  success */\n              dup2\n                /* \"challenges/Consorcio/User.sol\":909:924  success == true */\n              iszero\n              iszero\n              eq\n                /* \"challenges/Consorcio/User.sol\":901:974  require(success == true, \"Withdrawal failed. Try again in some minutes.\") */\n              tag_50\n              jumpi\n              mload(0x40)\n              0x08c379a000000000000000000000000000000000000000000000000000000000\n              dup2\n              mstore\n              0x04\n              add\n              tag_51\n              swap1\n              tag_52\n              jump\t// in\n            tag_51:\n              mload(0x40)\n              dup1\n              swap2\n              sub\n              swap1\n              revert\n            tag_50:\n                /* \"challenges/Consorcio/User.sol\":992:1035  WithdrawalSuccessful(address(this).balance) */\n              0x794032702377d1e7eb93381e2467d569394569207a770af85b3222a361126c91\n                /* \"challenges/Consorcio/User.sol\":1013:1034  address(this).balance */\n              selfbalance\n                /* \"challenges/Consorcio/User.sol\":992:1035  WithdrawalSuccessful(address(this).balance) */\n              mload(0x40)\n              tag_53\n              swap2\n              swap1\n              tag_26\n              jump\t// in\n            tag_53:\n              mload(0x40)\n              dup1\n              swap2\n              sub\n              swap1\n              log1\n                /* \"challenges/Consorcio/User.sol\":690:1043  {\r... */\n              pop\n                /* \"challenges/Consorcio/User.sol\":649:1043  function withdrawal(uint _amount) public {\r... */\n              pop\n              jump\t// out\n                /* \"challenges/Consorcio/User.sol\":92:106  uint public id */\n            tag_33:\n              sload(0x00)\n              dup2\n              jump\t// out\n                /* \"challenges/Consorcio/User.sol\":113:145  address public withdrawalAddress */\n            tag_37:\n              0x01\n              0x00\n              swap1\n              sload\n              swap1\n              0x0100\n              exp\n              swap1\n              div\n              0xffffffffffffffffffffffffffffffffffffffff\n              and\n              dup2\n              jump\t// out\n                /* \"#utility.yul\":7:146   */\n            tag_55:\n                /* \"#utility.yul\":53:58   */\n              0x00\n                /* \"#utility.yul\":91:97   */\n              dup2\n                /* \"#utility.yul\":78:98   */\n              calldataload\n                /* \"#utility.yul\":69:98   */\n              swap1\n              pop\n                /* \"#utility.yul\":107:140   */\n              tag_57\n                /* \"#utility.yul\":134:139   */\n              dup2\n                /* \"#utility.yul\":107:140   */\n              tag_58\n              jump\t// in\n            tag_57:\n                /* \"#utility.yul\":7:146   */\n              swap3\n              swap2\n              pop\n              pop\n              jump\t// out\n                /* \"#utility.yul\":152:481   */\n            tag_23:\n                /* \"#utility.yul\":211:217   */\n              0x00\n                /* \"#utility.yul\":260:262   */\n              0x20\n                /* \"#utility.yul\":248:257   */\n              dup3\n                /* \"#utility.yul\":239:246   */\n              dup5\n                /* \"#utility.yul\":235:258   */\n              sub\n                /* \"#utility.yul\":231:263   */\n              slt\n                /* \"#utility.yul\":228:347   */\n              iszero\n              tag_60\n              jumpi\n                /* \"#utility.yul\":266:345   */\n              tag_61\n              tag_62\n              jump\t// in\n            tag_61:\n                /* \"#utility.yul\":228:347   */\n            tag_60:\n                /* \"#utility.yul\":386:387   */\n              0x00\n                /* \"#utility.yul\":411:464   */\n              tag_63\n                /* \"#utility.yul\":456:463   */\n              dup5\n                /* \"#utility.yul\":447:453   */\n              dup3\n                /* \"#utility.yul\":436:445   */\n              dup6\n                /* \"#utility.yul\":432:454   */\n              add\n                /* \"#utility.yul\":411:464   */\n              tag_55\n              jump\t// in\n            tag_63:\n                /* \"#utility.yul\":401:464   */\n              swap2\n              pop\n                /* \"#utility.yul\":357:474   */\n              pop\n                /* \"#utility.yul\":152:481   */\n              swap3\n              swap2\n              pop\n              pop\n              jump\t// out\n                /* \"#utility.yul\":487:605   */\n            tag_64:\n                /* \"#utility.yul\":574:598   */\n              tag_66\n                /* \"#utility.yul\":592:597   */\n              dup2\n                /* \"#utility.yul\":574:598   */\n              tag_67\n              jump\t// in\n            tag_66:\n                /* \"#utility.yul\":569:572   */\n              dup3\n                /* \"#utility.yul\":562:599   */\n              mstore\n                /* \"#utility.yul\":487:605   */\n              pop\n              pop\n              jump\t// out\n                /* \"#utility.yul\":611:977   */\n            tag_68:\n                /* \"#utility.yul\":753:756   */\n              0x00\n                /* \"#utility.yul\":774:841   */\n              tag_70\n                /* \"#utility.yul\":838:840   */\n              0x18\n                /* \"#utility.yul\":833:836   */\n              dup4\n                /* \"#utility.yul\":774:841   */\n              tag_71\n              jump\t// in\n            tag_70:\n                /* \"#utility.yul\":767:841   */\n              swap2\n              pop\n                /* \"#utility.yul\":850:943   */\n              tag_72\n                /* \"#utility.yul\":939:942   */\n              dup3\n                /* \"#utility.yul\":850:943   */\n              tag_73\n              jump\t// in\n            tag_72:\n                /* \"#utility.yul\":968:970   */\n              0x20\n                /* \"#utility.yul\":963:966   */\n              dup3\n                /* \"#utility.yul\":959:971   */\n              add\n                /* \"#utility.yul\":952:971   */\n              swap1\n              pop\n                /* \"#utility.yul\":611:977   */\n              swap2\n              swap1\n              pop\n              jump\t// out\n                /* \"#utility.yul\":983:1381   */\n            tag_74:\n                /* \"#utility.yul\":1142:1145   */\n              0x00\n                /* \"#utility.yul\":1163:1246   */\n              tag_76\n                /* \"#utility.yul\":1244:1245   */\n              0x00\n                /* \"#utility.yul\":1239:1242   */\n              dup4\n                /* \"#utility.yul\":1163:1246   */\n              tag_77\n              jump\t// in\n            tag_76:\n                /* \"#utility.yul\":1156:1246   */\n              swap2\n              pop\n                /* \"#utility.yul\":1255:1348   */\n              tag_78\n                /* \"#utility.yul\":1344:1347   */\n              dup3\n                /* \"#utility.yul\":1255:1348   */\n              tag_79\n              jump\t// in\n            tag_78:\n                /* \"#utility.yul\":1373:1374   */\n              0x00\n                /* \"#utility.yul\":1368:1371   */\n              dup3\n                /* \"#utility.yul\":1364:1375   */\n              add\n                /* \"#utility.yul\":1357:1375   */\n              swap1\n              pop\n                /* \"#utility.yul\":983:1381   */\n              swap2\n              swap1\n              pop\n              jump\t// out\n                /* \"#utility.yul\":1387:1753   */\n            tag_80:\n                /* \"#utility.yul\":1529:1532   */\n              0x00\n                /* \"#utility.yul\":1550:1617   */\n              tag_82\n                /* \"#utility.yul\":1614:1616   */\n              0x2d\n                /* \"#utility.yul\":1609:1612   */\n              dup4\n                /* \"#utility.yul\":1550:1617   */\n              tag_71\n              jump\t// in\n            tag_82:\n                /* \"#utility.yul\":1543:1617   */\n              swap2\n              pop\n                /* \"#utility.yul\":1626:1719   */\n              tag_83\n                /* \"#utility.yul\":1715:1718   */\n              dup3\n                /* \"#utility.yul\":1626:1719   */\n              tag_84\n              jump\t// in\n            tag_83:\n                /* \"#utility.yul\":1744:1746   */\n              0x40\n                /* \"#utility.yul\":1739:1742   */\n              dup3\n                /* \"#utility.yul\":1735:1747   */\n              add\n                /* \"#utility.yul\":1728:1747   */\n              swap1\n              pop\n                /* \"#utility.yul\":1387:1753   */\n              swap2\n              swap1\n              pop\n              jump\t// out\n                /* \"#utility.yul\":1759:1877   */\n            tag_85:\n                /* \"#utility.yul\":1846:1870   */\n              tag_87\n                /* \"#utility.yul\":1864:1869   */\n              dup2\n                /* \"#utility.yul\":1846:1870   */\n              tag_88\n              jump\t// in\n            tag_87:\n                /* \"#utility.yul\":1841:1844   */\n              dup3\n                /* \"#utility.yul\":1834:1871   */\n              mstore\n                /* \"#utility.yul\":1759:1877   */\n              pop\n              pop\n              jump\t// out\n                /* \"#utility.yul\":1883:2262   */\n            tag_46:\n                /* \"#utility.yul\":2067:2070   */\n              0x00\n                /* \"#utility.yul\":2089:2236   */\n              tag_90\n                /* \"#utility.yul\":2232:2235   */\n              dup3\n                /* \"#utility.yul\":2089:2236   */\n              tag_74\n              jump\t// in\n            tag_90:\n                /* \"#utility.yul\":2082:2236   */\n              swap2\n              pop\n                /* \"#utility.yul\":2253:2256   */\n              dup2\n                /* \"#utility.yul\":2246:2256   */\n              swap1\n              pop\n                /* \"#utility.yul\":1883:2262   */\n              swap2\n              swap1\n              pop\n              jump\t// out\n                /* \"#utility.yul\":2268:2490   */\n            tag_19:\n                /* \"#utility.yul\":2361:2365   */\n              0x00\n                /* \"#utility.yul\":2399:2401   */\n              0x20\n                /* \"#utility.yul\":2388:2397   */\n              dup3\n                /* \"#utility.yul\":2384:2402   */\n              add\n                /* \"#utility.yul\":2376:2402   */\n              swap1\n              pop\n                /* \"#utility.yul\":2412:2483   */\n              tag_92\n                /* \"#utility.yul\":2480:2481   */\n              0x00\n                /* \"#utility.yul\":2469:2478   */\n              dup4\n                /* \"#utility.yul\":2465:2482   */\n              add\n                /* \"#utility.yul\":2456:2462   */\n              dup5\n                /* \"#utility.yul\":2412:2483   */\n              tag_64\n              jump\t// in\n            tag_92:\n                /* \"#utility.yul\":2268:2490   */\n              swap3\n              swap2\n              pop\n              pop\n              jump\t// out\n                /* \"#utility.yul\":2496:2915   */\n            tag_44:\n                /* \"#utility.yul\":2662:2666   */\n              0x00\n                /* \"#utility.yul\":2700:2702   */\n              0x20\n                /* \"#utility.yul\":2689:2698   */\n              dup3\n                /* \"#utility.yul\":2685:2703   */\n              add\n                /* \"#utility.yul\":2677:2703   */\n              swap1\n              pop\n                /* \"#utility.yul\":2749:2758   */\n              dup2\n                /* \"#utility.yul\":2743:2747   */\n              dup2\n                /* \"#utility.yul\":2739:2759   */\n              sub\n                /* \"#utility.yul\":2735:2736   */\n              0x00\n                /* \"#utility.yul\":2724:2733   */\n              dup4\n                /* \"#utility.yul\":2720:2737   */\n              add\n                /* \"#utility.yul\":2713:2760   */\n              mstore\n                /* \"#utility.yul\":2777:2908   */\n              tag_94\n                /* \"#utility.yul\":2903:2907   */\n              dup2\n                /* \"#utility.yul\":2777:2908   */\n              tag_68\n              jump\t// in\n            tag_94:\n                /* \"#utility.yul\":2769:2908   */\n              swap1\n              pop\n                /* \"#utility.yul\":2496:2915   */\n              swap2\n              swap1\n              pop\n              jump\t// out\n                /* \"#utility.yul\":2921:3340   */\n            tag_52:\n                /* \"#utility.yul\":3087:3091   */\n              0x00\n                /* \"#utility.yul\":3125:3127   */\n              0x20\n                /* \"#utility.yul\":3114:3123   */\n              dup3\n                /* \"#utility.yul\":3110:3128   */\n              add\n                /* \"#utility.yul\":3102:3128   */\n              swap1\n              pop\n                /* \"#utility.yul\":3174:3183   */\n              dup2\n                /* \"#utility.yul\":3168:3172   */\n              dup2\n                /* \"#utility.yul\":3164:3184   */\n              sub\n                /* \"#utility.yul\":3160:3161   */\n              0x00\n                /* \"#utility.yul\":3149:3158   */\n              dup4\n                /* \"#utility.yul\":3145:3162   */\n              add\n                /* \"#utility.yul\":3138:3185   */\n              mstore\n                /* \"#utility.yul\":3202:3333   */\n              tag_96\n                /* \"#utility.yul\":3328:3332   */\n              dup2\n                /* \"#utility.yul\":3202:3333   */\n              tag_80\n              jump\t// in\n            tag_96:\n                /* \"#utility.yul\":3194:3333   */\n              swap1\n              pop\n                /* \"#utility.yul\":2921:3340   */\n              swap2\n              swap1\n              pop\n              jump\t// out\n                /* \"#utility.yul\":3346:3568   */\n            tag_26:\n                /* \"#utility.yul\":3439:3443   */\n              0x00\n                /* \"#utility.yul\":3477:3479   */\n              0x20\n                /* \"#utility.yul\":3466:3475   */\n              dup3\n                /* \"#utility.yul\":3462:3480   */\n              add\n                /* \"#utility.yul\":3454:3480   */\n              swap1\n              pop\n                /* \"#utility.yul\":3490:3561   */\n              tag_98\n                /* \"#utility.yul\":3558:3559   */\n              0x00\n                /* \"#utility.yul\":3547:3556   */\n              dup4\n                /* \"#utility.yul\":3543:3560   */\n              add\n                /* \"#utility.yul\":3534:3540   */\n              dup5\n                /* \"#utility.yul\":3490:3561   */\n              tag_85\n              jump\t// in\n            tag_98:\n                /* \"#utility.yul\":3346:3568   */\n              swap3\n              swap2\n              pop\n              pop\n              jump\t// out\n                /* \"#utility.yul\":3574:4016   */\n            tag_11:\n                /* \"#utility.yul\":3723:3727   */\n              0x00\n                /* \"#utility.yul\":3761:3763   */\n              0x60\n                /* \"#utility.yul\":3750:3759   */\n              dup3\n                /* \"#utility.yul\":3746:3764   */\n              add\n                /* \"#utility.yul\":3738:3764   */\n              swap1\n              pop\n                /* \"#utility.yul\":3774:3845   */\n              tag_100\n                /* \"#utility.yul\":3842:3843   */\n              0x00\n                /* \"#utility.yul\":3831:3840   */\n              dup4\n                /* \"#utility.yul\":3827:3844   */\n              add\n                /* \"#utility.yul\":3818:3824   */\n              dup7\n                /* \"#utility.yul\":3774:3845   */\n              tag_85\n              jump\t// in\n            tag_100:\n                /* \"#utility.yul\":3855:3927   */\n              tag_101\n                /* \"#utility.yul\":3923:3925   */\n              0x20\n                /* \"#utility.yul\":3912:3921   */\n              dup4\n                /* \"#utility.yul\":3908:3926   */\n              add\n                /* \"#utility.yul\":3899:3905   */\n              dup6\n                /* \"#utility.yul\":3855:3927   */\n              tag_64\n              jump\t// in\n            tag_101:\n                /* \"#utility.yul\":3937:4009   */\n              tag_102\n                /* \"#utility.yul\":4005:4007   */\n              0x40\n                /* \"#utility.yul\":3994:4003   */\n              dup4\n                /* \"#utility.yul\":3990:4008   */\n              add\n                /* \"#utility.yul\":3981:3987   */\n              dup5\n                /* \"#utility.yul\":3937:4009   */\n              tag_85\n              jump\t// in\n            tag_102:\n                /* \"#utility.yul\":3574:4016   */\n              swap5\n              swap4\n              pop\n              pop\n              pop\n              pop\n              jump\t// out\n                /* \"#utility.yul\":4103:4250   */\n            tag_77:\n                /* \"#utility.yul\":4204:4215   */\n              0x00\n                /* \"#utility.yul\":4241:4244   */\n              dup2\n                /* \"#utility.yul\":4226:4244   */\n              swap1\n              pop\n                /* \"#utility.yul\":4103:4250   */\n              swap3\n              swap2\n              pop\n              pop\n              jump\t// out\n                /* \"#utility.yul\":4256:4425   */\n            tag_71:\n                /* \"#utility.yul\":4340:4351   */\n              0x00\n                /* \"#utility.yul\":4374:4380   */\n              dup3\n                /* \"#utility.yul\":4369:4372   */\n              dup3\n                /* \"#utility.yul\":4362:4381   */\n              mstore\n                /* \"#utility.yul\":4414:4418   */\n              0x20\n                /* \"#utility.yul\":4409:4412   */\n              dup3\n                /* \"#utility.yul\":4405:4419   */\n              add\n                /* \"#utility.yul\":4390:4419   */\n              swap1\n              pop\n                /* \"#utility.yul\":4256:4425   */\n              swap3\n              swap2\n              pop\n              pop\n              jump\t// out\n                /* \"#utility.yul\":4431:4527   */\n            tag_67:\n                /* \"#utility.yul\":4468:4475   */\n              0x00\n                /* \"#utility.yul\":4497:4521   */\n              tag_108\n                /* \"#utility.yul\":4515:4520   */\n              dup3\n                /* \"#utility.yul\":4497:4521   */\n              tag_109\n              jump\t// in\n            tag_108:\n                /* \"#utility.yul\":4486:4521   */\n              swap1\n              pop\n                /* \"#utility.yul\":4431:4527   */\n              swap2\n              swap1\n              pop\n              jump\t// out\n                /* \"#utility.yul\":4533:4659   */\n            tag_109:\n                /* \"#utility.yul\":4570:4577   */\n              0x00\n                /* \"#utility.yul\":4610:4652   */\n              0xffffffffffffffffffffffffffffffffffffffff\n                /* \"#utility.yul\":4603:4608   */\n              dup3\n                /* \"#utility.yul\":4599:4653   */\n              and\n                /* \"#utility.yul\":4588:4653   */\n              swap1\n              pop\n                /* \"#utility.yul\":4533:4659   */\n              swap2\n              swap1\n              pop\n              jump\t// out\n                /* \"#utility.yul\":4665:4742   */\n            tag_88:\n                /* \"#utility.yul\":4702:4709   */\n              0x00\n                /* \"#utility.yul\":4731:4736   */\n              dup2\n                /* \"#utility.yul\":4720:4736   */\n              swap1\n              pop\n                /* \"#utility.yul\":4665:4742   */\n              swap2\n              swap1\n              pop\n              jump\t// out\n                /* \"#utility.yul\":4871:4988   */\n            tag_62:\n                /* \"#utility.yul\":4980:4981   */\n              0x00\n                /* \"#utility.yul\":4977:4978   */\n              dup1\n                /* \"#utility.yul\":4970:4982   */\n              revert\n                /* \"#utility.yul\":4994:5168   */\n            tag_73:\n                /* \"#utility.yul\":5134:5160   */\n              0x557365723a20496e73756666696369656e742066756e64730000000000000000\n                /* \"#utility.yul\":5130:5131   */\n              0x00\n                /* \"#utility.yul\":5122:5128   */\n              dup3\n                /* \"#utility.yul\":5118:5132   */\n              add\n                /* \"#utility.yul\":5111:5161   */\n              mstore\n                /* \"#utility.yul\":4994:5168   */\n              pop\n              jump\t// out\n                /* \"#utility.yul\":5174:5288   */\n            tag_79:\n              pop\n              jump\t// out\n                /* \"#utility.yul\":5294:5526   */\n            tag_84:\n                /* \"#utility.yul\":5434:5468   */\n              0x5769746864726177616c206661696c65642e2054727920616761696e20696e20\n                /* \"#utility.yul\":5430:5431   */\n              0x00\n                /* \"#utility.yul\":5422:5428   */\n              dup3\n                /* \"#utility.yul\":5418:5432   */\n              add\n                /* \"#utility.yul\":5411:5469   */\n              mstore\n                /* \"#utility.yul\":5503:5518   */\n              0x736f6d65206d696e757465732e00000000000000000000000000000000000000\n                /* \"#utility.yul\":5498:5500   */\n              0x20\n                /* \"#utility.yul\":5490:5496   */\n              dup3\n                /* \"#utility.yul\":5486:5501   */\n              add\n                /* \"#utility.yul\":5479:5519   */\n              mstore\n                /* \"#utility.yul\":5294:5526   */\n              pop\n              jump\t// out\n                /* \"#utility.yul\":5532:5654   */\n            tag_58:\n                /* \"#utility.yul\":5605:5629   */\n              tag_119\n                /* \"#utility.yul\":5623:5628   */\n              dup2\n                /* \"#utility.yul\":5605:5629   */\n              tag_88\n              jump\t// in\n            tag_119:\n                /* \"#utility.yul\":5598:5603   */\n              dup2\n                /* \"#utility.yul\":5595:5630   */\n              eq\n                /* \"#utility.yul\":5585:5648   */\n              tag_120\n              jumpi\n                /* \"#utility.yul\":5644:5645   */\n              0x00\n                /* \"#utility.yul\":5641:5642   */\n              dup1\n                /* \"#utility.yul\":5634:5646   */\n              revert\n                /* \"#utility.yul\":5585:5648   */\n            tag_120:\n                /* \"#utility.yul\":5532:5654   */\n              pop\n              jump\t// out\n\n            auxdata: 0xa26469706673582212206b50d0e92213542657efbc28c967c689b85f64fcecb2c91eb61765030fe9a2d564736f6c63430008070033\n        }\n    }\n\n    sub_1: assembly {\n            /* \"challenges/Consorcio/Tenant.sol\":84:1071  contract Tenant is User {\r... */\n          mstore(0x40, 0x80)\n            /* \"challenges/Consorcio/Tenant.sol\":267:601  constructor(\r... */\n          mload(0x40)\n          sub(codesize, bytecodeSize)\n          dup1\n          bytecodeSize\n          dup4\n          codecopy\n          dup2\n          dup2\n          add\n          0x40\n          mstore\n          dup2\n          add\n          swap1\n          tag_1\n          swap2\n          swap1\n          tag_2\n          jump\t// in\n        tag_1:\n            /* \"challenges/Consorcio/Tenant.sol\":447:452  newId */\n          dup5\n            /* \"challenges/Consorcio/Tenant.sol\":454:464  newAddress */\n          dup5\n            /* \"challenges/Consorcio/User.sol\":587:592  newId */\n          dup2\n            /* \"challenges/Consorcio/User.sol\":582:584  id */\n          0x00\n            /* \"challenges/Consorcio/User.sol\":582:592  id = newId */\n          dup2\n          swap1\n          sstore\n          pop\n            /* \"challenges/Consorcio/User.sol\":623:633  newAddress */\n          dup1\n            /* \"challenges/Consorcio/User.sol\":603:620  withdrawalAddress */\n          0x01\n          0x00\n            /* \"challenges/Consorcio/User.sol\":603:633  withdrawalAddress = newAddress */\n          0x0100\n          exp\n          dup2\n          sload\n          dup2\n          0xffffffffffffffffffffffffffffffffffffffff\n          mul\n          not\n          and\n          swap1\n          dup4\n          0xffffffffffffffffffffffffffffffffffffffff\n          and\n          mul\n          or\n          swap1\n          sstore\n          pop\n            /* \"challenges/Consorcio/User.sol\":527:641  constructor(uint newId, address newAddress) {\r... */\n          pop\n          pop\n            /* \"challenges/Consorcio/Tenant.sol\":492:507  newServicePrice */\n          dup3\n            /* \"challenges/Consorcio/Tenant.sol\":477:489  servicePrice */\n          0x02\n            /* \"challenges/Consorcio/Tenant.sol\":477:507  servicePrice = newServicePrice */\n          dup2\n          swap1\n          sstore\n          pop\n            /* \"challenges/Consorcio/Tenant.sol\":531:544  newAptAddress */\n          dup2\n            /* \"challenges/Consorcio/Tenant.sol\":518:528  aptAddress */\n          0x03\n            /* \"challenges/Consorcio/Tenant.sol\":518:544  aptAddress = newAptAddress */\n          dup2\n          swap1\n          sstore\n          pop\n            /* \"challenges/Consorcio/Tenant.sol\":574:593  newConsorcioAddress */\n          dup1\n            /* \"challenges/Consorcio/Tenant.sol\":555:571  consorcioAddress */\n          0x04\n          0x00\n            /* \"challenges/Consorcio/Tenant.sol\":555:593  consorcioAddress = newConsorcioAddress */\n          0x0100\n          exp\n          dup2\n          sload\n          dup2\n          0xffffffffffffffffffffffffffffffffffffffff\n          mul\n          not\n          and\n          swap1\n          dup4\n          0xffffffffffffffffffffffffffffffffffffffff\n          and\n          mul\n          or\n          swap1\n          sstore\n          pop\n            /* \"challenges/Consorcio/Tenant.sol\":267:601  constructor(\r... */\n          pop\n          pop\n          pop\n          pop\n          pop\n            /* \"challenges/Consorcio/Tenant.sol\":84:1071  contract Tenant is User {\r... */\n          jump(tag_7)\n            /* \"#utility.yul\":7:150   */\n        tag_9:\n            /* \"#utility.yul\":64:69   */\n          0x00\n            /* \"#utility.yul\":95:101   */\n          dup2\n            /* \"#utility.yul\":89:102   */\n          mload\n            /* \"#utility.yul\":80:102   */\n          swap1\n          pop\n            /* \"#utility.yul\":111:144   */\n          tag_11\n            /* \"#utility.yul\":138:143   */\n          dup2\n            /* \"#utility.yul\":111:144   */\n          tag_12\n          jump\t// in\n        tag_11:\n            /* \"#utility.yul\":7:150   */\n          swap3\n          swap2\n          pop\n          pop\n          jump\t// out\n            /* \"#utility.yul\":156:299   */\n        tag_13:\n            /* \"#utility.yul\":213:218   */\n          0x00\n            /* \"#utility.yul\":244:250   */\n          dup2\n            /* \"#utility.yul\":238:251   */\n          mload\n            /* \"#utility.yul\":229:251   */\n          swap1\n          pop\n            /* \"#utility.yul\":260:293   */\n          tag_15\n            /* \"#utility.yul\":287:292   */\n          dup2\n            /* \"#utility.yul\":260:293   */\n          tag_16\n          jump\t// in\n        tag_15:\n            /* \"#utility.yul\":156:299   */\n          swap3\n          swap2\n          pop\n          pop\n          jump\t// out\n            /* \"#utility.yul\":305:1282   */\n        tag_2:\n            /* \"#utility.yul\":411:417   */\n          0x00\n            /* \"#utility.yul\":419:425   */\n          dup1\n            /* \"#utility.yul\":427:433   */\n          0x00\n            /* \"#utility.yul\":435:441   */\n          dup1\n            /* \"#utility.yul\":443:449   */\n          0x00\n            /* \"#utility.yul\":492:495   */\n          0xa0\n            /* \"#utility.yul\":480:489   */\n          dup7\n            /* \"#utility.yul\":471:478   */\n          dup9\n            /* \"#utility.yul\":467:490   */\n          sub\n            /* \"#utility.yul\":463:496   */\n          slt\n            /* \"#utility.yul\":460:580   */\n          iszero\n          tag_18\n          jumpi\n            /* \"#utility.yul\":499:578   */\n          tag_19\n          tag_20\n          jump\t// in\n        tag_19:\n            /* \"#utility.yul\":460:580   */\n        tag_18:\n            /* \"#utility.yul\":619:620   */\n          0x00\n            /* \"#utility.yul\":644:708   */\n          tag_21\n            /* \"#utility.yul\":700:707   */\n          dup9\n            /* \"#utility.yul\":691:697   */\n          dup3\n            /* \"#utility.yul\":680:689   */\n          dup10\n            /* \"#utility.yul\":676:698   */\n          add\n            /* \"#utility.yul\":644:708   */\n          tag_13\n          jump\t// in\n        tag_21:\n            /* \"#utility.yul\":634:708   */\n          swap6\n          pop\n            /* \"#utility.yul\":590:718   */\n          pop\n            /* \"#utility.yul\":757:759   */\n          0x20\n            /* \"#utility.yul\":783:847   */\n          tag_22\n            /* \"#utility.yul\":839:846   */\n          dup9\n            /* \"#utility.yul\":830:836   */\n          dup3\n            /* \"#utility.yul\":819:828   */\n          dup10\n            /* \"#utility.yul\":815:837   */\n          add\n            /* \"#utility.yul\":783:847   */\n          tag_9\n          jump\t// in\n        tag_22:\n            /* \"#utility.yul\":773:847   */\n          swap5\n          pop\n            /* \"#utility.yul\":728:857   */\n          pop\n            /* \"#utility.yul\":896:898   */\n          0x40\n            /* \"#utility.yul\":922:986   */\n          tag_23\n            /* \"#utility.yul\":978:985   */\n          dup9\n            /* \"#utility.yul\":969:975   */\n          dup3\n            /* \"#utility.yul\":958:967   */\n          dup10\n            /* \"#utility.yul\":954:976   */\n          add\n            /* \"#utility.yul\":922:986   */\n          tag_13\n          jump\t// in\n        tag_23:\n            /* \"#utility.yul\":912:986   */\n          swap4\n          pop\n            /* \"#utility.yul\":867:996   */\n          pop\n            /* \"#utility.yul\":1035:1037   */\n          0x60\n            /* \"#utility.yul\":1061:1125   */\n          tag_24\n            /* \"#utility.yul\":1117:1124   */\n          dup9\n            /* \"#utility.yul\":1108:1114   */\n          dup3\n            /* \"#utility.yul\":1097:1106   */\n          dup10\n            /* \"#utility.yul\":1093:1115   */\n          add\n            /* \"#utility.yul\":1061:1125   */\n          tag_13\n          jump\t// in\n        tag_24:\n            /* \"#utility.yul\":1051:1125   */\n          swap3\n          pop\n            /* \"#utility.yul\":1006:1135   */\n          pop\n            /* \"#utility.yul\":1174:1177   */\n          0x80\n            /* \"#utility.yul\":1201:1265   */\n          tag_25\n            /* \"#utility.yul\":1257:1264   */\n          dup9\n            /* \"#utility.yul\":1248:1254   */\n          dup3\n            /* \"#utility.yul\":1237:1246   */\n          dup10\n            /* \"#utility.yul\":1233:1255   */\n          add\n            /* \"#utility.yul\":1201:1265   */\n          tag_9\n          jump\t// in\n        tag_25:\n            /* \"#utility.yul\":1191:1265   */\n          swap2\n          pop\n            /* \"#utility.yul\":1145:1275   */\n          pop\n            /* \"#utility.yul\":305:1282   */\n          swap3\n          swap6\n          pop\n          swap3\n          swap6\n          swap1\n          swap4\n          pop\n          jump\t// out\n            /* \"#utility.yul\":1369:1465   */\n        tag_28:\n            /* \"#utility.yul\":1406:1413   */\n          0x00\n            /* \"#utility.yul\":1435:1459   */\n          tag_30\n            /* \"#utility.yul\":1453:1458   */\n          dup3\n            /* \"#utility.yul\":1435:1459   */\n          tag_31\n          jump\t// in\n        tag_30:\n            /* \"#utility.yul\":1424:1459   */\n          swap1\n          pop\n            /* \"#utility.yul\":1369:1465   */\n          swap2\n          swap1\n          pop\n          jump\t// out\n            /* \"#utility.yul\":1471:1597   */\n        tag_31:\n            /* \"#utility.yul\":1508:1515   */\n          0x00\n            /* \"#utility.yul\":1548:1590   */\n          0xffffffffffffffffffffffffffffffffffffffff\n            /* \"#utility.yul\":1541:1546   */\n          dup3\n            /* \"#utility.yul\":1537:1591   */\n          and\n            /* \"#utility.yul\":1526:1591   */\n          swap1\n          pop\n            /* \"#utility.yul\":1471:1597   */\n          swap2\n          swap1\n          pop\n          jump\t// out\n            /* \"#utility.yul\":1603:1680   */\n        tag_33:\n            /* \"#utility.yul\":1640:1647   */\n          0x00\n            /* \"#utility.yul\":1669:1674   */\n          dup2\n            /* \"#utility.yul\":1658:1674   */\n          swap1\n          pop\n            /* \"#utility.yul\":1603:1680   */\n          swap2\n          swap1\n          pop\n          jump\t// out\n            /* \"#utility.yul\":1809:1926   */\n        tag_20:\n            /* \"#utility.yul\":1918:1919   */\n          0x00\n            /* \"#utility.yul\":1915:1916   */\n          dup1\n            /* \"#utility.yul\":1908:1920   */\n          revert\n            /* \"#utility.yul\":1932:2054   */\n        tag_12:\n            /* \"#utility.yul\":2005:2029   */\n          tag_39\n            /* \"#utility.yul\":2023:2028   */\n          dup2\n            /* \"#utility.yul\":2005:2029   */\n          tag_28\n          jump\t// in\n        tag_39:\n            /* \"#utility.yul\":1998:2003   */\n          dup2\n            /* \"#utility.yul\":1995:2030   */\n          eq\n            /* \"#utility.yul\":1985:2048   */\n          tag_40\n          jumpi\n            /* \"#utility.yul\":2044:2045   */\n          0x00\n            /* \"#utility.yul\":2041:2042   */\n          dup1\n            /* \"#utility.yul\":2034:2046   */\n          revert\n            /* \"#utility.yul\":1985:2048   */\n        tag_40:\n            /* \"#utility.yul\":1932:2054   */\n          pop\n          jump\t// out\n            /* \"#utility.yul\":2060:2182   */\n        tag_16:\n            /* \"#utility.yul\":2133:2157   */\n          tag_42\n            /* \"#utility.yul\":2151:2156   */\n          dup2\n            /* \"#utility.yul\":2133:2157   */\n          tag_33\n          jump\t// in\n        tag_42:\n            /* \"#utility.yul\":2126:2131   */\n          dup2\n            /* \"#utility.yul\":2123:2158   */\n          eq\n            /* \"#utility.yul\":2113:2176   */\n          tag_43\n          jumpi\n            /* \"#utility.yul\":2172:2173   */\n          0x00\n            /* \"#utility.yul\":2169:2170   */\n          dup1\n            /* \"#utility.yul\":2162:2174   */\n          revert\n            /* \"#utility.yul\":2113:2176   */\n        tag_43:\n            /* \"#utility.yul\":2060:2182   */\n          pop\n          jump\t// out\n            /* \"challenges/Consorcio/Tenant.sol\":84:1071  contract Tenant is User {\r... */\n        tag_7:\n          dataSize(sub_0)\n          dup1\n          dataOffset(sub_0)\n          0x00\n          codecopy\n          0x00\n          return\n        stop\n\n        sub_0: assembly {\n                /* \"challenges/Consorcio/Tenant.sol\":84:1071  contract Tenant is User {\r... */\n              mstore(0x40, 0x80)\n              jumpi(tag_1, lt(calldatasize, 0x04))\n              shr(0xe0, calldataload(0x00))\n              dup1\n              0x38cc4831\n              eq\n              tag_3\n              jumpi\n              dup1\n              0x835fc6ca\n              eq\n              tag_4\n              jumpi\n              dup1\n              0xaf640d0f\n              eq\n              tag_5\n              jumpi\n              dup1\n              0xd0e30db0\n              eq\n              tag_6\n              jumpi\n              dup1\n              0xda6e75c2\n              eq\n              tag_7\n              jumpi\n              dup1\n              0xf2bcd022\n              eq\n              tag_8\n              jumpi\n              jump(tag_2)\n            tag_1:\n              jumpi(tag_2, calldatasize)\n                /* \"challenges/Consorcio/User.sol\":329:391  EtherReceived(msg.value, address(this), address(this).balance) */\n              0x2d27851832fcac28a0d4af1344f01fed7ffcfd15171c14c564a0c42aa57ae5c0\n                /* \"challenges/Consorcio/User.sol\":343:352  msg.value */\n              callvalue\n                /* \"challenges/Consorcio/User.sol\":362:366  this */\n              address\n                /* \"challenges/Consorcio/User.sol\":369:390  address(this).balance */\n              selfbalance\n                /* \"challenges/Consorcio/User.sol\":329:391  EtherReceived(msg.value, address(this), address(this).balance) */\n              mload(0x40)\n              tag_11\n              swap4\n              swap3\n              swap2\n              swap1\n              tag_12\n              jump\t// in\n            tag_11:\n              mload(0x40)\n              dup1\n              swap2\n              sub\n              swap1\n              log1\n                /* \"challenges/Consorcio/Tenant.sol\":84:1071  contract Tenant is User {\r... */\n              stop\n            tag_2:\n                /* \"challenges/Consorcio/User.sol\":449:511  EtherReceived(msg.value, address(this), address(this).balance) */\n              0x2d27851832fcac28a0d4af1344f01fed7ffcfd15171c14c564a0c42aa57ae5c0\n                /* \"challenges/Consorcio/User.sol\":463:472  msg.value */\n              callvalue\n                /* \"challenges/Consorcio/User.sol\":482:486  this */\n              address\n                /* \"challenges/Consorcio/User.sol\":489:510  address(this).balance */\n              selfbalance\n                /* \"challenges/Consorcio/User.sol\":449:511  EtherReceived(msg.value, address(this), address(this).balance) */\n              mload(0x40)\n              tag_15\n              swap4\n              swap3\n              swap2\n              swap1\n              tag_12\n              jump\t// in\n            tag_15:\n              mload(0x40)\n              dup1\n              swap2\n              sub\n              swap1\n              log1\n                /* \"challenges/Consorcio/Tenant.sol\":84:1071  contract Tenant is User {\r... */\n              stop\n                /* \"challenges/Consorcio/User.sol\":1051:1142  function getAddress() public view returns (address) {\r... */\n            tag_3:\n              callvalue\n              dup1\n              iszero\n              tag_16\n              jumpi\n              0x00\n              dup1\n              revert\n            tag_16:\n              pop\n              tag_17\n              tag_18\n              jump\t// in\n            tag_17:\n              mload(0x40)\n              tag_19\n              swap2\n              swap1\n              tag_20\n              jump\t// in\n            tag_19:\n              mload(0x40)\n              dup1\n              swap2\n              sub\n              swap1\n              return\n                /* \"challenges/Consorcio/User.sol\":649:1043  function withdrawal(uint _amount) public {\r... */\n            tag_4:\n              callvalue\n              dup1\n              iszero\n              tag_21\n              jumpi\n              0x00\n              dup1\n              revert\n            tag_21:\n              pop\n              tag_22\n              0x04\n              dup1\n              calldatasize\n              sub\n              dup2\n              add\n              swap1\n              tag_23\n              swap2\n              swap1\n              tag_24\n              jump\t// in\n            tag_23:\n              tag_25\n              jump\t// in\n            tag_22:\n              stop\n                /* \"challenges/Consorcio/User.sol\":92:106  uint public id */\n            tag_5:\n              callvalue\n              dup1\n              iszero\n              tag_26\n              jumpi\n              0x00\n              dup1\n              revert\n            tag_26:\n              pop\n              tag_27\n              tag_28\n              jump\t// in\n            tag_27:\n              mload(0x40)\n              tag_29\n              swap2\n              swap1\n              tag_30\n              jump\t// in\n            tag_29:\n              mload(0x40)\n              dup1\n              swap2\n              sub\n              swap1\n              return\n                /* \"challenges/Consorcio/Tenant.sol\":609:729  function deposit() public payable {\r... */\n            tag_6:\n              tag_31\n              tag_32\n              jump\t// in\n            tag_31:\n              stop\n                /* \"challenges/Consorcio/Tenant.sol\":737:1066  function payExpenses() public {\r... */\n            tag_7:\n              callvalue\n              dup1\n              iszero\n              tag_33\n              jumpi\n              0x00\n              dup1\n              revert\n            tag_33:\n              pop\n              tag_34\n              tag_35\n              jump\t// in\n            tag_34:\n              stop\n                /* \"challenges/Consorcio/User.sol\":113:145  address public withdrawalAddress */\n            tag_8:\n              callvalue\n              dup1\n              iszero\n              tag_36\n              jumpi\n              0x00\n              dup1\n              revert\n            tag_36:\n              pop\n              tag_37\n              tag_38\n              jump\t// in\n            tag_37:\n              mload(0x40)\n              tag_39\n              swap2\n              swap1\n              tag_20\n              jump\t// in\n            tag_39:\n              mload(0x40)\n              dup1\n              swap2\n              sub\n              swap1\n              return\n                /* \"challenges/Consorcio/User.sol\":1051:1142  function getAddress() public view returns (address) {\r... */\n            tag_18:\n                /* \"challenges/Consorcio/User.sol\":1094:1101  address */\n              0x00\n                /* \"challenges/Consorcio/User.sol\":1129:1133  this */\n              address\n                /* \"challenges/Consorcio/User.sol\":1114:1134  return address(this) */\n              swap1\n              pop\n                /* \"challenges/Consorcio/User.sol\":1051:1142  function getAddress() public view returns (address) {\r... */\n              swap1\n              jump\t// out\n                /* \"challenges/Consorcio/User.sol\":649:1043  function withdrawal(uint _amount) public {\r... */\n            tag_25:\n                /* \"challenges/Consorcio/User.sol\":748:755  _amount */\n              dup1\n                /* \"challenges/Consorcio/User.sol\":723:744  address(this).balance */\n              selfbalance\n                /* \"challenges/Consorcio/User.sol\":723:755  address(this).balance >= _amount */\n              lt\n              iszero\n                /* \"challenges/Consorcio/User.sol\":701:807  require(\r... */\n              tag_42\n              jumpi\n              mload(0x40)\n              0x08c379a000000000000000000000000000000000000000000000000000000000\n              dup2\n              mstore\n              0x04\n              add\n              tag_43\n              swap1\n              tag_44\n              jump\t// in\n            tag_43:\n              mload(0x40)\n              dup1\n              swap2\n              sub\n              swap1\n              revert\n            tag_42:\n                /* \"challenges/Consorcio/User.sol\":829:841  bool success */\n              0x00\n                /* \"challenges/Consorcio/User.sol\":846:863  withdrawalAddress */\n              0x01\n              0x00\n              swap1\n              sload\n              swap1\n              0x0100\n              exp\n              swap1\n              div\n              0xffffffffffffffffffffffffffffffffffffffff\n              and\n                /* \"challenges/Consorcio/User.sol\":846:868  withdrawalAddress.call */\n              0xffffffffffffffffffffffffffffffffffffffff\n              and\n                /* \"challenges/Consorcio/User.sol\":876:883  _amount */\n              dup3\n                /* \"challenges/Consorcio/User.sol\":846:888  withdrawalAddress.call{value: _amount}(\"\") */\n              mload(0x40)\n              tag_45\n              swap1\n              tag_46\n              jump\t// in\n            tag_45:\n              0x00\n              mload(0x40)\n              dup1\n              dup4\n              sub\n              dup2\n              dup6\n              dup8\n              gas\n              call\n              swap3\n              pop\n              pop\n              pop\n              returndatasize\n              dup1\n              0x00\n              dup2\n              eq\n              tag_49\n              jumpi\n              mload(0x40)\n              swap2\n              pop\n              and(add(returndatasize, 0x3f), not(0x1f))\n              dup3\n              add\n              0x40\n              mstore\n              returndatasize\n              dup3\n              mstore\n              returndatasize\n              0x00\n              0x20\n              dup5\n              add\n              returndatacopy\n              jump(tag_48)\n            tag_49:\n              0x60\n              swap2\n              pop\n            tag_48:\n              pop\n                /* \"challenges/Consorcio/User.sol\":828:888  (bool success,) = withdrawalAddress.call{value: _amount}(\"\") */\n              pop\n              swap1\n              pop\n                /* \"challenges/Consorcio/User.sol\":920:924  true */\n              0x01\n                /* \"challenges/Consorcio/User.sol\":909:924  success == true */\n              iszero\n              iszero\n                /* \"challenges/Consorcio/User.sol\":909:916  success */\n              dup2\n                /* \"challenges/Consorcio/User.sol\":909:924  success == true */\n              iszero\n              iszero\n              eq\n                /* \"challenges/Consorcio/User.sol\":901:974  require(success == true, \"Withdrawal failed. Try again in some minutes.\") */\n              tag_50\n              jumpi\n              mload(0x40)\n              0x08c379a000000000000000000000000000000000000000000000000000000000\n              dup2\n              mstore\n              0x04\n              add\n              tag_51\n              swap1\n              tag_52\n              jump\t// in\n            tag_51:\n              mload(0x40)\n              dup1\n              swap2\n              sub\n              swap1\n              revert\n            tag_50:\n                /* \"challenges/Consorcio/User.sol\":992:1035  WithdrawalSuccessful(address(this).balance) */\n              0x794032702377d1e7eb93381e2467d569394569207a770af85b3222a361126c91\n                /* \"challenges/Consorcio/User.sol\":1013:1034  address(this).balance */\n              selfbalance\n                /* \"challenges/Consorcio/User.sol\":992:1035  WithdrawalSuccessful(address(this).balance) */\n              mload(0x40)\n              tag_53\n              swap2\n              swap1\n              tag_30\n              jump\t// in\n            tag_53:\n              mload(0x40)\n              dup1\n              swap2\n              sub\n              swap1\n              log1\n                /* \"challenges/Consorcio/User.sol\":690:1043  {\r... */\n              pop\n                /* \"challenges/Consorcio/User.sol\":649:1043  function withdrawal(uint _amount) public {\r... */\n              pop\n              jump\t// out\n                /* \"challenges/Consorcio/User.sol\":92:106  uint public id */\n            tag_28:\n              sload(0x00)\n              dup2\n              jump\t// out\n                /* \"challenges/Consorcio/Tenant.sol\":609:729  function deposit() public payable {\r... */\n            tag_32:\n                /* \"challenges/Consorcio/Tenant.sol\":659:721  EtherReceived(msg.value, address(this), address(this).balance) */\n              0x2d27851832fcac28a0d4af1344f01fed7ffcfd15171c14c564a0c42aa57ae5c0\n                /* \"challenges/Consorcio/Tenant.sol\":673:682  msg.value */\n              callvalue\n                /* \"challenges/Consorcio/Tenant.sol\":692:696  this */\n              address\n                /* \"challenges/Consorcio/Tenant.sol\":699:720  address(this).balance */\n              selfbalance\n                /* \"challenges/Consorcio/Tenant.sol\":659:721  EtherReceived(msg.value, address(this), address(this).balance) */\n              mload(0x40)\n              tag_55\n              swap4\n              swap3\n              swap2\n              swap1\n              tag_12\n              jump\t// in\n            tag_55:\n              mload(0x40)\n              dup1\n              swap2\n              sub\n              swap1\n              log1\n                /* \"challenges/Consorcio/Tenant.sol\":609:729  function deposit() public payable {\r... */\n              jump\t// out\n                /* \"challenges/Consorcio/Tenant.sol\":737:1066  function payExpenses() public {\r... */\n            tag_35:\n                /* \"challenges/Consorcio/Tenant.sol\":811:823  servicePrice */\n              sload(0x02)\n                /* \"challenges/Consorcio/Tenant.sol\":786:807  address(this).balance */\n              selfbalance\n                /* \"challenges/Consorcio/Tenant.sol\":786:823  address(this).balance >= servicePrice */\n              lt\n              iszero\n                /* \"challenges/Consorcio/Tenant.sol\":778:846  require(address(this).balance >= servicePrice, \"Insufficient funds\") */\n              tag_57\n              jumpi\n              mload(0x40)\n              0x08c379a000000000000000000000000000000000000000000000000000000000\n              dup2\n              mstore\n              0x04\n              add\n              tag_58\n              swap1\n              tag_59\n              jump\t// in\n            tag_58:\n              mload(0x40)\n              dup1\n              swap2\n              sub\n              swap1\n              revert\n            tag_57:\n                /* \"challenges/Consorcio/Tenant.sol\":868:880  bool success */\n              0x00\n                /* \"challenges/Consorcio/Tenant.sol\":885:901  consorcioAddress */\n              0x04\n              0x00\n              swap1\n              sload\n              swap1\n              0x0100\n              exp\n              swap1\n              div\n              0xffffffffffffffffffffffffffffffffffffffff\n              and\n                /* \"challenges/Consorcio/Tenant.sol\":885:906  consorcioAddress.call */\n              0xffffffffffffffffffffffffffffffffffffffff\n              and\n                /* \"challenges/Consorcio/Tenant.sol\":914:926  servicePrice */\n              sload(0x02)\n                /* \"challenges/Consorcio/Tenant.sol\":885:931  consorcioAddress.call{value: servicePrice}(\"\") */\n              mload(0x40)\n              tag_60\n              swap1\n              tag_46\n              jump\t// in\n            tag_60:\n              0x00\n              mload(0x40)\n              dup1\n              dup4\n              sub\n              dup2\n              dup6\n              dup8\n              gas\n              call\n              swap3\n              pop\n              pop\n              pop\n              returndatasize\n              dup1\n              0x00\n              dup2\n              eq\n              tag_63\n              jumpi\n              mload(0x40)\n              swap2\n              pop\n              and(add(returndatasize, 0x3f), not(0x1f))\n              dup3\n              add\n              0x40\n              mstore\n              returndatasize\n              dup3\n              mstore\n              returndatasize\n              0x00\n              0x20\n              dup5\n              add\n              returndatacopy\n              jump(tag_62)\n            tag_63:\n              0x60\n              swap2\n              pop\n            tag_62:\n              pop\n                /* \"challenges/Consorcio/Tenant.sol\":867:931  (bool success,) = consorcioAddress.call{value: servicePrice}(\"\") */\n              pop\n              swap1\n              pop\n                /* \"challenges/Consorcio/Tenant.sol\":963:967  true */\n              0x01\n                /* \"challenges/Consorcio/Tenant.sol\":952:967  success == true */\n              iszero\n              iszero\n                /* \"challenges/Consorcio/Tenant.sol\":952:959  success */\n              dup2\n                /* \"challenges/Consorcio/Tenant.sol\":952:967  success == true */\n              iszero\n              iszero\n              eq\n                /* \"challenges/Consorcio/Tenant.sol\":944:1014  require(success == true, \"Payment failed. Try again in some minutes.\") */\n              tag_64\n              jumpi\n              mload(0x40)\n              0x08c379a000000000000000000000000000000000000000000000000000000000\n              dup2\n              mstore\n              0x04\n              add\n              tag_65\n              swap1\n              tag_66\n              jump\t// in\n            tag_65:\n              mload(0x40)\n              dup1\n              swap2\n              sub\n              swap1\n              revert\n            tag_64:\n                /* \"challenges/Consorcio/Tenant.sol\":1032:1058  ExpensesPaid(servicePrice) */\n              0x56e1cf8a52e84572ff49b950fa9a1a1867319bf8eba3bf8c77bc4354678a34c5\n                /* \"challenges/Consorcio/Tenant.sol\":1045:1057  servicePrice */\n              sload(0x02)\n                /* \"challenges/Consorcio/Tenant.sol\":1032:1058  ExpensesPaid(servicePrice) */\n              mload(0x40)\n              tag_67\n              swap2\n              swap1\n              tag_30\n              jump\t// in\n            tag_67:\n              mload(0x40)\n              dup1\n              swap2\n              sub\n              swap1\n              log1\n                /* \"challenges/Consorcio/Tenant.sol\":767:1066  {\r... */\n              pop\n                /* \"challenges/Consorcio/Tenant.sol\":737:1066  function payExpenses() public {\r... */\n              jump\t// out\n                /* \"challenges/Consorcio/User.sol\":113:145  address public withdrawalAddress */\n            tag_38:\n              0x01\n              0x00\n              swap1\n              sload\n              swap1\n              0x0100\n              exp\n              swap1\n              div\n              0xffffffffffffffffffffffffffffffffffffffff\n              and\n              dup2\n              jump\t// out\n                /* \"#utility.yul\":7:146   */\n            tag_69:\n                /* \"#utility.yul\":53:58   */\n              0x00\n                /* \"#utility.yul\":91:97   */\n              dup2\n                /* \"#utility.yul\":78:98   */\n              calldataload\n                /* \"#utility.yul\":69:98   */\n              swap1\n              pop\n                /* \"#utility.yul\":107:140   */\n              tag_71\n                /* \"#utility.yul\":134:139   */\n              dup2\n                /* \"#utility.yul\":107:140   */\n              tag_72\n              jump\t// in\n            tag_71:\n                /* \"#utility.yul\":7:146   */\n              swap3\n              swap2\n              pop\n              pop\n              jump\t// out\n                /* \"#utility.yul\":152:481   */\n            tag_24:\n                /* \"#utility.yul\":211:217   */\n              0x00\n                /* \"#utility.yul\":260:262   */\n              0x20\n                /* \"#utility.yul\":248:257   */\n              dup3\n                /* \"#utility.yul\":239:246   */\n              dup5\n                /* \"#utility.yul\":235:258   */\n              sub\n                /* \"#utility.yul\":231:263   */\n              slt\n                /* \"#utility.yul\":228:347   */\n              iszero\n              tag_74\n              jumpi\n                /* \"#utility.yul\":266:345   */\n              tag_75\n              tag_76\n              jump\t// in\n            tag_75:\n                /* \"#utility.yul\":228:347   */\n            tag_74:\n                /* \"#utility.yul\":386:387   */\n              0x00\n                /* \"#utility.yul\":411:464   */\n              tag_77\n                /* \"#utility.yul\":456:463   */\n              dup5\n                /* \"#utility.yul\":447:453   */\n              dup3\n                /* \"#utility.yul\":436:445   */\n              dup6\n                /* \"#utility.yul\":432:454   */\n              add\n                /* \"#utility.yul\":411:464   */\n              tag_69\n              jump\t// in\n            tag_77:\n                /* \"#utility.yul\":401:464   */\n              swap2\n              pop\n                /* \"#utility.yul\":357:474   */\n              pop\n                /* \"#utility.yul\":152:481   */\n              swap3\n              swap2\n              pop\n              pop\n              jump\t// out\n                /* \"#utility.yul\":487:605   */\n            tag_78:\n                /* \"#utility.yul\":574:598   */\n              tag_80\n                /* \"#utility.yul\":592:597   */\n              dup2\n                /* \"#utility.yul\":574:598   */\n              tag_81\n              jump\t// in\n            tag_80:\n                /* \"#utility.yul\":569:572   */\n              dup3\n                /* \"#utility.yul\":562:599   */\n              mstore\n                /* \"#utility.yul\":487:605   */\n              pop\n              pop\n              jump\t// out\n                /* \"#utility.yul\":611:977   */\n            tag_82:\n                /* \"#utility.yul\":753:756   */\n              0x00\n                /* \"#utility.yul\":774:841   */\n              tag_84\n                /* \"#utility.yul\":838:840   */\n              0x12\n                /* \"#utility.yul\":833:836   */\n              dup4\n                /* \"#utility.yul\":774:841   */\n              tag_85\n              jump\t// in\n            tag_84:\n                /* \"#utility.yul\":767:841   */\n              swap2\n              pop\n                /* \"#utility.yul\":850:943   */\n              tag_86\n                /* \"#utility.yul\":939:942   */\n              dup3\n                /* \"#utility.yul\":850:943   */\n              tag_87\n              jump\t// in\n            tag_86:\n                /* \"#utility.yul\":968:970   */\n              0x20\n                /* \"#utility.yul\":963:966   */\n              dup3\n                /* \"#utility.yul\":959:971   */\n              add\n                /* \"#utility.yul\":952:971   */\n              swap1\n              pop\n                /* \"#utility.yul\":611:977   */\n              swap2\n              swap1\n              pop\n              jump\t// out\n                /* \"#utility.yul\":983:1349   */\n            tag_88:\n                /* \"#utility.yul\":1125:1128   */\n              0x00\n                /* \"#utility.yul\":1146:1213   */\n              tag_90\n                /* \"#utility.yul\":1210:1212   */\n              0x2a\n                /* \"#utility.yul\":1205:1208   */\n              dup4\n                /* \"#utility.yul\":1146:1213   */\n              tag_85\n              jump\t// in\n            tag_90:\n                /* \"#utility.yul\":1139:1213   */\n              swap2\n              pop\n                /* \"#utility.yul\":1222:1315   */\n              tag_91\n                /* \"#utility.yul\":1311:1314   */\n              dup3\n                /* \"#utility.yul\":1222:1315   */\n              tag_92\n              jump\t// in\n            tag_91:\n                /* \"#utility.yul\":1340:1342   */\n              0x40\n                /* \"#utility.yul\":1335:1338   */\n              dup3\n                /* \"#utility.yul\":1331:1343   */\n              add\n                /* \"#utility.yul\":1324:1343   */\n              swap1\n              pop\n                /* \"#utility.yul\":983:1349   */\n              swap2\n              swap1\n              pop\n              jump\t// out\n                /* \"#utility.yul\":1355:1721   */\n            tag_93:\n                /* \"#utility.yul\":1497:1500   */\n              0x00\n                /* \"#utility.yul\":1518:1585   */\n              tag_95\n                /* \"#utility.yul\":1582:1584   */\n              0x18\n                /* \"#utility.yul\":1577:1580   */\n              dup4\n                /* \"#utility.yul\":1518:1585   */\n              tag_85\n              jump\t// in\n            tag_95:\n                /* \"#utility.yul\":1511:1585   */\n              swap2\n              pop\n                /* \"#utility.yul\":1594:1687   */\n              tag_96\n                /* \"#utility.yul\":1683:1686   */\n              dup3\n                /* \"#utility.yul\":1594:1687   */\n              tag_97\n              jump\t// in\n            tag_96:\n                /* \"#utility.yul\":1712:1714   */\n              0x20\n                /* \"#utility.yul\":1707:1710   */\n              dup3\n                /* \"#utility.yul\":1703:1715   */\n              add\n                /* \"#utility.yul\":1696:1715   */\n              swap1\n              pop\n                /* \"#utility.yul\":1355:1721   */\n              swap2\n              swap1\n              pop\n              jump\t// out\n                /* \"#utility.yul\":1727:2125   */\n            tag_98:\n                /* \"#utility.yul\":1886:1889   */\n              0x00\n                /* \"#utility.yul\":1907:1990   */\n              tag_100\n                /* \"#utility.yul\":1988:1989   */\n              0x00\n                /* \"#utility.yul\":1983:1986   */\n              dup4\n                /* \"#utility.yul\":1907:1990   */\n              tag_101\n              jump\t// in\n            tag_100:\n                /* \"#utility.yul\":1900:1990   */\n              swap2\n              pop\n                /* \"#utility.yul\":1999:2092   */\n              tag_102\n                /* \"#utility.yul\":2088:2091   */\n              dup3\n                /* \"#utility.yul\":1999:2092   */\n              tag_103\n              jump\t// in\n            tag_102:\n                /* \"#utility.yul\":2117:2118   */\n              0x00\n                /* \"#utility.yul\":2112:2115   */\n              dup3\n                /* \"#utility.yul\":2108:2119   */\n              add\n                /* \"#utility.yul\":2101:2119   */\n              swap1\n              pop\n                /* \"#utility.yul\":1727:2125   */\n              swap2\n              swap1\n              pop\n              jump\t// out\n                /* \"#utility.yul\":2131:2497   */\n            tag_104:\n                /* \"#utility.yul\":2273:2276   */\n              0x00\n                /* \"#utility.yul\":2294:2361   */\n              tag_106\n                /* \"#utility.yul\":2358:2360   */\n              0x2d\n                /* \"#utility.yul\":2353:2356   */\n              dup4\n                /* \"#utility.yul\":2294:2361   */\n              tag_85\n              jump\t// in\n            tag_106:\n                /* \"#utility.yul\":2287:2361   */\n              swap2\n              pop\n                /* \"#utility.yul\":2370:2463   */\n              tag_107\n                /* \"#utility.yul\":2459:2462   */\n              dup3\n                /* \"#utility.yul\":2370:2463   */\n              tag_108\n              jump\t// in\n            tag_107:\n                /* \"#utility.yul\":2488:2490   */\n              0x40\n                /* \"#utility.yul\":2483:2486   */\n              dup3\n                /* \"#utility.yul\":2479:2491   */\n              add\n                /* \"#utility.yul\":2472:2491   */\n              swap1\n              pop\n                /* \"#utility.yul\":2131:2497   */\n              swap2\n              swap1\n              pop\n              jump\t// out\n                /* \"#utility.yul\":2503:2621   */\n            tag_109:\n                /* \"#utility.yul\":2590:2614   */\n              tag_111\n                /* \"#utility.yul\":2608:2613   */\n              dup2\n                /* \"#utility.yul\":2590:2614   */\n              tag_112\n              jump\t// in\n            tag_111:\n                /* \"#utility.yul\":2585:2588   */\n              dup3\n                /* \"#utility.yul\":2578:2615   */\n              mstore\n                /* \"#utility.yul\":2503:2621   */\n              pop\n              pop\n              jump\t// out\n                /* \"#utility.yul\":2627:3006   */\n            tag_46:\n                /* \"#utility.yul\":2811:2814   */\n              0x00\n                /* \"#utility.yul\":2833:2980   */\n              tag_114\n                /* \"#utility.yul\":2976:2979   */\n              dup3\n                /* \"#utility.yul\":2833:2980   */\n              tag_98\n              jump\t// in\n            tag_114:\n                /* \"#utility.yul\":2826:2980   */\n              swap2\n              pop\n                /* \"#utility.yul\":2997:3000   */\n              dup2\n                /* \"#utility.yul\":2990:3000   */\n              swap1\n              pop\n                /* \"#utility.yul\":2627:3006   */\n              swap2\n              swap1\n              pop\n              jump\t// out\n                /* \"#utility.yul\":3012:3234   */\n            tag_20:\n                /* \"#utility.yul\":3105:3109   */\n              0x00\n                /* \"#utility.yul\":3143:3145   */\n              0x20\n                /* \"#utility.yul\":3132:3141   */\n              dup3\n                /* \"#utility.yul\":3128:3146   */\n              add\n                /* \"#utility.yul\":3120:3146   */\n              swap1\n              pop\n                /* \"#utility.yul\":3156:3227   */\n              tag_116\n                /* \"#utility.yul\":3224:3225   */\n              0x00\n                /* \"#utility.yul\":3213:3222   */\n              dup4\n                /* \"#utility.yul\":3209:3226   */\n              add\n                /* \"#utility.yul\":3200:3206   */\n              dup5\n                /* \"#utility.yul\":3156:3227   */\n              tag_78\n              jump\t// in\n            tag_116:\n                /* \"#utility.yul\":3012:3234   */\n              swap3\n              swap2\n              pop\n              pop\n              jump\t// out\n                /* \"#utility.yul\":3240:3659   */\n            tag_59:\n                /* \"#utility.yul\":3406:3410   */\n              0x00\n                /* \"#utility.yul\":3444:3446   */\n              0x20\n                /* \"#utility.yul\":3433:3442   */\n              dup3\n                /* \"#utility.yul\":3429:3447   */\n              add\n                /* \"#utility.yul\":3421:3447   */\n              swap1\n              pop\n                /* \"#utility.yul\":3493:3502   */\n              dup2\n                /* \"#utility.yul\":3487:3491   */\n              dup2\n                /* \"#utility.yul\":3483:3503   */\n              sub\n                /* \"#utility.yul\":3479:3480   */\n              0x00\n                /* \"#utility.yul\":3468:3477   */\n              dup4\n                /* \"#utility.yul\":3464:3481   */\n              add\n                /* \"#utility.yul\":3457:3504   */\n              mstore\n                /* \"#utility.yul\":3521:3652   */\n              tag_118\n                /* \"#utility.yul\":3647:3651   */\n              dup2\n                /* \"#utility.yul\":3521:3652   */\n              tag_82\n              jump\t// in\n            tag_118:\n                /* \"#utility.yul\":3513:3652   */\n              swap1\n              pop\n                /* \"#utility.yul\":3240:3659   */\n              swap2\n              swap1\n              pop\n              jump\t// out\n                /* \"#utility.yul\":3665:4084   */\n            tag_66:\n                /* \"#utility.yul\":3831:3835   */\n              0x00\n                /* \"#utility.yul\":3869:3871   */\n              0x20\n                /* \"#utility.yul\":3858:3867   */\n              dup3\n                /* \"#utility.yul\":3854:3872   */\n              add\n                /* \"#utility.yul\":3846:3872   */\n              swap1\n              pop\n                /* \"#utility.yul\":3918:3927   */\n              dup2\n                /* \"#utility.yul\":3912:3916   */\n              dup2\n                /* \"#utility.yul\":3908:3928   */\n              sub\n                /* \"#utility.yul\":3904:3905   */\n              0x00\n                /* \"#utility.yul\":3893:3902   */\n              dup4\n                /* \"#utility.yul\":3889:3906   */\n              add\n                /* \"#utility.yul\":3882:3929   */\n              mstore\n                /* \"#utility.yul\":3946:4077   */\n              tag_120\n                /* \"#utility.yul\":4072:4076   */\n              dup2\n                /* \"#utility.yul\":3946:4077   */\n              tag_88\n              jump\t// in\n            tag_120:\n                /* \"#utility.yul\":3938:4077   */\n              swap1\n              pop\n                /* \"#utility.yul\":3665:4084   */\n              swap2\n              swap1\n              pop\n              jump\t// out\n                /* \"#utility.yul\":4090:4509   */\n            tag_44:\n                /* \"#utility.yul\":4256:4260   */\n              0x00\n                /* \"#utility.yul\":4294:4296   */\n              0x20\n                /* \"#utility.yul\":4283:4292   */\n              dup3\n                /* \"#utility.yul\":4279:4297   */\n              add\n                /* \"#utility.yul\":4271:4297   */\n              swap1\n              pop\n                /* \"#utility.yul\":4343:4352   */\n              dup2\n                /* \"#utility.yul\":4337:4341   */\n              dup2\n                /* \"#utility.yul\":4333:4353   */\n              sub\n                /* \"#utility.yul\":4329:4330   */\n              0x00\n                /* \"#utility.yul\":4318:4327   */\n              dup4\n                /* \"#utility.yul\":4314:4331   */\n              add\n                /* \"#utility.yul\":4307:4354   */\n              mstore\n                /* \"#utility.yul\":4371:4502   */\n              tag_122\n                /* \"#utility.yul\":4497:4501   */\n              dup2\n                /* \"#utility.yul\":4371:4502   */\n              tag_93\n              jump\t// in\n            tag_122:\n                /* \"#utility.yul\":4363:4502   */\n              swap1\n              pop\n                /* \"#utility.yul\":4090:4509   */\n              swap2\n              swap1\n              pop\n              jump\t// out\n                /* \"#utility.yul\":4515:4934   */\n            tag_52:\n                /* \"#utility.yul\":4681:4685   */\n              0x00\n                /* \"#utility.yul\":4719:4721   */\n              0x20\n                /* \"#utility.yul\":4708:4717   */\n              dup3\n                /* \"#utility.yul\":4704:4722   */\n              add\n                /* \"#utility.yul\":4696:4722   */\n              swap1\n              pop\n                /* \"#utility.yul\":4768:4777   */\n              dup2\n                /* \"#utility.yul\":4762:4766   */\n              dup2\n                /* \"#utility.yul\":4758:4778   */\n              sub\n                /* \"#utility.yul\":4754:4755   */\n              0x00\n                /* \"#utility.yul\":4743:4752   */\n              dup4\n                /* \"#utility.yul\":4739:4756   */\n              add\n                /* \"#utility.yul\":4732:4779   */\n              mstore\n                /* \"#utility.yul\":4796:4927   */\n              tag_124\n                /* \"#utility.yul\":4922:4926   */\n              dup2\n                /* \"#utility.yul\":4796:4927   */\n              tag_104\n              jump\t// in\n            tag_124:\n                /* \"#utility.yul\":4788:4927   */\n              swap1\n              pop\n                /* \"#utility.yul\":4515:4934   */\n              swap2\n              swap1\n              pop\n              jump\t// out\n                /* \"#utility.yul\":4940:5162   */\n            tag_30:\n                /* \"#utility.yul\":5033:5037   */\n              0x00\n                /* \"#utility.yul\":5071:5073   */\n              0x20\n                /* \"#utility.yul\":5060:5069   */\n              dup3\n                /* \"#utility.yul\":5056:5074   */\n              add\n                /* \"#utility.yul\":5048:5074   */\n              swap1\n              pop\n                /* \"#utility.yul\":5084:5155   */\n              tag_126\n                /* \"#utility.yul\":5152:5153   */\n              0x00\n                /* \"#utility.yul\":5141:5150   */\n              dup4\n                /* \"#utility.yul\":5137:5154   */\n              add\n                /* \"#utility.yul\":5128:5134   */\n              dup5\n                /* \"#utility.yul\":5084:5155   */\n              tag_109\n              jump\t// in\n            tag_126:\n                /* \"#utility.yul\":4940:5162   */\n              swap3\n              swap2\n              pop\n              pop\n              jump\t// out\n                /* \"#utility.yul\":5168:5610   */\n            tag_12:\n                /* \"#utility.yul\":5317:5321   */\n              0x00\n                /* \"#utility.yul\":5355:5357   */\n              0x60\n                /* \"#utility.yul\":5344:5353   */\n              dup3\n                /* \"#utility.yul\":5340:5358   */\n              add\n                /* \"#utility.yul\":5332:5358   */\n              swap1\n              pop\n                /* \"#utility.yul\":5368:5439   */\n              tag_128\n                /* \"#utility.yul\":5436:5437   */\n              0x00\n                /* \"#utility.yul\":5425:5434   */\n              dup4\n                /* \"#utility.yul\":5421:5438   */\n              add\n                /* \"#utility.yul\":5412:5418   */\n              dup7\n                /* \"#utility.yul\":5368:5439   */\n              tag_109\n              jump\t// in\n            tag_128:\n                /* \"#utility.yul\":5449:5521   */\n              tag_129\n                /* \"#utility.yul\":5517:5519   */\n              0x20\n                /* \"#utility.yul\":5506:5515   */\n              dup4\n                /* \"#utility.yul\":5502:5520   */\n              add\n                /* \"#utility.yul\":5493:5499   */\n              dup6\n                /* \"#utility.yul\":5449:5521   */\n              tag_78\n              jump\t// in\n            tag_129:\n                /* \"#utility.yul\":5531:5603   */\n              tag_130\n                /* \"#utility.yul\":5599:5601   */\n              0x40\n                /* \"#utility.yul\":5588:5597   */\n              dup4\n                /* \"#utility.yul\":5584:5602   */\n              add\n                /* \"#utility.yul\":5575:5581   */\n              dup5\n                /* \"#utility.yul\":5531:5603   */\n              tag_109\n              jump\t// in\n            tag_130:\n                /* \"#utility.yul\":5168:5610   */\n              swap5\n              swap4\n              pop\n              pop\n              pop\n              pop\n              jump\t// out\n                /* \"#utility.yul\":5697:5844   */\n            tag_101:\n                /* \"#utility.yul\":5798:5809   */\n              0x00\n                /* \"#utility.yul\":5835:5838   */\n              dup2\n                /* \"#utility.yul\":5820:5838   */\n              swap1\n              pop\n                /* \"#utility.yul\":5697:5844   */\n              swap3\n              swap2\n              pop\n              pop\n              jump\t// out\n                /* \"#utility.yul\":5850:6019   */\n            tag_85:\n                /* \"#utility.yul\":5934:5945   */\n              0x00\n                /* \"#utility.yul\":5968:5974   */\n              dup3\n                /* \"#utility.yul\":5963:5966   */\n              dup3\n                /* \"#utility.yul\":5956:5975   */\n              mstore\n                /* \"#utility.yul\":6008:6012   */\n              0x20\n                /* \"#utility.yul\":6003:6006   */\n              dup3\n                /* \"#utility.yul\":5999:6013   */\n              add\n                /* \"#utility.yul\":5984:6013   */\n              swap1\n              pop\n                /* \"#utility.yul\":5850:6019   */\n              swap3\n              swap2\n              pop\n              pop\n              jump\t// out\n                /* \"#utility.yul\":6025:6121   */\n            tag_81:\n                /* \"#utility.yul\":6062:6069   */\n              0x00\n                /* \"#utility.yul\":6091:6115   */\n              tag_136\n                /* \"#utility.yul\":6109:6114   */\n              dup3\n                /* \"#utility.yul\":6091:6115   */\n              tag_137\n              jump\t// in\n            tag_136:\n                /* \"#utility.yul\":6080:6115   */\n              swap1\n              pop\n                /* \"#utility.yul\":6025:6121   */\n              swap2\n              swap1\n              pop\n              jump\t// out\n                /* \"#utility.yul\":6127:6253   */\n            tag_137:\n                /* \"#utility.yul\":6164:6171   */\n              0x00\n                /* \"#utility.yul\":6204:6246   */\n              0xffffffffffffffffffffffffffffffffffffffff\n                /* \"#utility.yul\":6197:6202   */\n              dup3\n                /* \"#utility.yul\":6193:6247   */\n              and\n                /* \"#utility.yul\":6182:6247   */\n              swap1\n              pop\n                /* \"#utility.yul\":6127:6253   */\n              swap2\n              swap1\n              pop\n              jump\t// out\n                /* \"#utility.yul\":6259:6336   */\n            tag_112:\n                /* \"#utility.yul\":6296:6303   */\n              0x00\n                /* \"#utility.yul\":6325:6330   */\n              dup2\n                /* \"#utility.yul\":6314:6330   */\n              swap1\n              pop\n                /* \"#utility.yul\":6259:6336   */\n              swap2\n              swap1\n              pop\n              jump\t// out\n                /* \"#utility.yul\":6465:6582   */\n            tag_76:\n                /* \"#utility.yul\":6574:6575   */\n              0x00\n                /* \"#utility.yul\":6571:6572   */\n              dup1\n                /* \"#utility.yul\":6564:6576   */\n              revert\n                /* \"#utility.yul\":6588:6756   */\n            tag_87:\n                /* \"#utility.yul\":6728:6748   */\n              0x496e73756666696369656e742066756e64730000000000000000000000000000\n                /* \"#utility.yul\":6724:6725   */\n              0x00\n                /* \"#utility.yul\":6716:6722   */\n              dup3\n                /* \"#utility.yul\":6712:6726   */\n              add\n                /* \"#utility.yul\":6705:6749   */\n              mstore\n                /* \"#utility.yul\":6588:6756   */\n              pop\n              jump\t// out\n                /* \"#utility.yul\":6762:6991   */\n            tag_92:\n                /* \"#utility.yul\":6902:6936   */\n              0x5061796d656e74206661696c65642e2054727920616761696e20696e20736f6d\n                /* \"#utility.yul\":6898:6899   */\n              0x00\n                /* \"#utility.yul\":6890:6896   */\n              dup3\n                /* \"#utility.yul\":6886:6900   */\n              add\n                /* \"#utility.yul\":6879:6937   */\n              mstore\n                /* \"#utility.yul\":6971:6983   */\n              0x65206d696e757465732e00000000000000000000000000000000000000000000\n                /* \"#utility.yul\":6966:6968   */\n              0x20\n                /* \"#utility.yul\":6958:6964   */\n              dup3\n                /* \"#utility.yul\":6954:6969   */\n              add\n                /* \"#utility.yul\":6947:6984   */\n              mstore\n                /* \"#utility.yul\":6762:6991   */\n              pop\n              jump\t// out\n                /* \"#utility.yul\":6997:7171   */\n            tag_97:\n                /* \"#utility.yul\":7137:7163   */\n              0x557365723a20496e73756666696369656e742066756e64730000000000000000\n                /* \"#utility.yul\":7133:7134   */\n              0x00\n                /* \"#utility.yul\":7125:7131   */\n              dup3\n                /* \"#utility.yul\":7121:7135   */\n              add\n                /* \"#utility.yul\":7114:7164   */\n              mstore\n                /* \"#utility.yul\":6997:7171   */\n              pop\n              jump\t// out\n                /* \"#utility.yul\":7177:7291   */\n            tag_103:\n              pop\n              jump\t// out\n                /* \"#utility.yul\":7297:7529   */\n            tag_108:\n                /* \"#utility.yul\":7437:7471   */\n              0x5769746864726177616c206661696c65642e2054727920616761696e20696e20\n                /* \"#utility.yul\":7433:7434   */\n              0x00\n                /* \"#utility.yul\":7425:7431   */\n              dup3\n                /* \"#utility.yul\":7421:7435   */\n              add\n                /* \"#utility.yul\":7414:7472   */\n              mstore\n                /* \"#utility.yul\":7506:7521   */\n              0x736f6d65206d696e757465732e00000000000000000000000000000000000000\n                /* \"#utility.yul\":7501:7503   */\n              0x20\n                /* \"#utility.yul\":7493:7499   */\n              dup3\n                /* \"#utility.yul\":7489:7504   */\n              add\n                /* \"#utility.yul\":7482:7522   */\n              mstore\n                /* \"#utility.yul\":7297:7529   */\n              pop\n              jump\t// out\n                /* \"#utility.yul\":7535:7657   */\n            tag_72:\n                /* \"#utility.yul\":7608:7632   */\n              tag_149\n                /* \"#utility.yul\":7626:7631   */\n              dup2\n                /* \"#utility.yul\":7608:7632   */\n              tag_112\n              jump\t// in\n            tag_149:\n                /* \"#utility.yul\":7601:7606   */\n              dup2\n                /* \"#utility.yul\":7598:7633   */\n              eq\n                /* \"#utility.yul\":7588:7651   */\n              tag_150\n              jumpi\n                /* \"#utility.yul\":7647:7648   */\n              0x00\n                /* \"#utility.yul\":7644:7645   */\n              dup1\n                /* \"#utility.yul\":7637:7649   */\n              revert\n                /* \"#utility.yul\":7588:7651   */\n            tag_150:\n                /* \"#utility.yul\":7535:7657   */\n              pop\n              jump\t// out\n\n            auxdata: 0xa2646970667358221220c17d509b097b52b946c9c19b53e5fb525fd9e1a3be38560da190a0f59eaa38bb64736f6c63430008070033\n        }\n    }\n\n    auxdata: 0xa26469706673582212203d649b78100c918a133f888a7c7a7f4e6564a60beffaa04ea5c773e1087e7ac764736f6c63430008070033\n}\n",
				"bytecode": {
					"linkReferences": {},
					"object": "608060405234801561001057600080fd5b5061002d61002261003260201b60201c565b61003a60201b60201c565b6100fe565b600033905090565b60008060009054906101000a900473ffffffffffffffffffffffffffffffffffffffff169050816000806101000a81548173ffffffffffffffffffffffffffffffffffffffff021916908373ffffffffffffffffffffffffffffffffffffffff1602179055508173ffffffffffffffffffffffffffffffffffffffff168173ffffffffffffffffffffffffffffffffffffffff167f8be0079c531659141344cd1fd0a4f28419497f9722a3daafe3b4186f6b6457e060405160405180910390a35050565b612dfa8061010d6000396000f3fe608060405260043610620000f75760003560e01c80638da5cb5b116200008b578063cd7d77c51162000061578063cd7d77c51462000267578063eb20f21a1462000295578063ec3ab27414620002af578063f2fde38b14620002c957620000ff565b80638da5cb5b14620001fd578063bce58703146200022d578063c2d2a83c146200025b57620000ff565b806342e36b3b11620000cd57806342e36b3b146200016b578063715018a6146200018557806372673e31146200019f57806385ffebd714620001cd57620000ff565b806308b567fc14620001015780630b9362a2146200012f5780632db3361b146200015f57620000ff565b36620000ff57005b005b3480156200010e57600080fd5b506200012d600480360381019062000127919062000f50565b620002f7565b005b3480156200013c57600080fd5b506200014762000404565b604051620001569190620012af565b60405180910390f35b6200016962000494565b005b3480156200017857600080fd5b5062000183620005f4565b005b3480156200019257600080fd5b506200019d62000649565b005b348015620001ac57600080fd5b50620001cb6004803603810190620001c5919062000eb8565b62000661565b005b348015620001da57600080fd5b50620001e56200070f565b604051620001f4919062001292565b60405180910390f35b3480156200020a57600080fd5b506200021562000717565b60405162000224919062001292565b60405180910390f35b3480156200023a57600080fd5b5062000259600480360381019062000253919062001016565b62000740565b005b6200026562000856565b005b3480156200027457600080fd5b506200029360048036038101906200028d919062000f1e565b620009b6565b005b348015620002a257600080fd5b50620002ad620009b9565b005b348015620002bc57600080fd5b50620002c762000a4f565b005b348015620002d657600080fd5b50620002f56004803603810190620002ef919062000e54565b62000a51565b005b84848484846040516200030a9062000c2d565b6200031a9594939291906200139a565b604051809103906000f08015801562000337573d6000803e3d6000fd5b50600460006101000a81548173ffffffffffffffffffffffffffffffffffffffff021916908373ffffffffffffffffffffffffffffffffffffffff1602179055506001600460009054906101000a900473ffffffffffffffffffffffffffffffffffffffff169080600181540180825580915050600190039060005260206000200160009091909190916101000a81548173ffffffffffffffffffffffffffffffffffffffff021916908373ffffffffffffffffffffffffffffffffffffffff1602179055505050505050565b606060018054806020026020016040519081016040528092919081815260200182805480156200048a57602002820191906000526020600020905b8160009054906101000a900473ffffffffffffffffffffffffffffffffffffffff1673ffffffffffffffffffffffffffffffffffffffff16815260200190600101908083116200043f575b5050505050905090565b6000600560009054906101000a900473ffffffffffffffffffffffffffffffffffffffff1673ffffffffffffffffffffffffffffffffffffffff166338cc48316040518163ffffffff1660e01b815260040160206040518083038186803b158015620004ff57600080fd5b505afa15801562000514573d6000803e3d6000fd5b505050506040513d601f19601f820116820180604052508101906200053a919062000e86565b73ffffffffffffffffffffffffffffffffffffffff16346040516200055f906200127b565b60006040518083038185875af1925050503d80600081146200059e576040519150601f19603f3d011682016040523d82523d6000602084013e620005a3565b606091505b505090506001151581151514620005f1576040517f08c379a0000000000000000000000000000000000000000000000000000000008152600401620005e89062001312565b60405180910390fd5b50565b620005fe62000adc565b60008047101562000646576040517f08c379a00000000000000000000000000000000000000000000000000000000081526004016200063d9062001356565b60405180910390fd5b50565b6200065362000adc565b6200065f600062000b61565b565b6200066b62000adc565b60405180604001604052808381526020018281525060066000820151816000019080519060200190620006a092919062000c3b565b50602082015181600101559050506003600690806001815401808255809150506001900390600052602060002090600202016000909190919091506000820181600001908054620006f190620015f4565b620006fe92919062000ccc565b506001820154816001015550505050565b600030905090565b60008060009054906101000a900473ffffffffffffffffffffffffffffffffffffffff16905090565b6200074a62000adc565b83838383306040516200075d9062000d64565b6200076d95949392919062001405565b604051809103906000f0801580156200078a573d6000803e3d6000fd5b50600560006101000a81548173ffffffffffffffffffffffffffffffffffffffff021916908373ffffffffffffffffffffffffffffffffffffffff1602179055506002600560009054906101000a900473ffffffffffffffffffffffffffffffffffffffff169080600181540180825580915050600190039060005260206000200160009091909190916101000a81548173ffffffffffffffffffffffffffffffffffffffff021916908373ffffffffffffffffffffffffffffffffffffffff16021790555050505050565b6000600460009054906101000a900473ffffffffffffffffffffffffffffffffffffffff1673ffffffffffffffffffffffffffffffffffffffff166338cc48316040518163ffffffff1660e01b815260040160206040518083038186803b158015620008c157600080fd5b505afa158015620008d6573d6000803e3d6000fd5b505050506040513d601f19601f82011682018060405250810190620008fc919062000e86565b73ffffffffffffffffffffffffffffffffffffffff163460405162000921906200127b565b60006040518083038185875af1925050503d806000811462000960576040519150601f19603f3d011682016040523d82523d6000602084013e62000965565b606091505b505090506001151581151514620009b3576040517f08c379a0000000000000000000000000000000000000000000000000000000008152600401620009aa9062001334565b60405180910390fd5b50565b50565b600560009054906101000a900473ffffffffffffffffffffffffffffffffffffffff1673ffffffffffffffffffffffffffffffffffffffff1663835fc6ca620186a06040518263ffffffff1660e01b815260040162000a199190620012d3565b600060405180830381600087803b15801562000a3457600080fd5b505af115801562000a49573d6000803e3d6000fd5b50505050565b565b62000a5b62000adc565b600073ffffffffffffffffffffffffffffffffffffffff168173ffffffffffffffffffffffffffffffffffffffff16141562000ace576040517f08c379a000000000000000000000000000000000000000000000000000000000815260040162000ac590620012f0565b60405180910390fd5b62000ad98162000b61565b50565b62000ae662000c25565b73ffffffffffffffffffffffffffffffffffffffff1662000b0662000717565b73ffffffffffffffffffffffffffffffffffffffff161462000b5f576040517f08c379a000000000000000000000000000000000000000000000000000000000815260040162000b569062001378565b60405180910390fd5b565b60008060009054906101000a900473ffffffffffffffffffffffffffffffffffffffff169050816000806101000a81548173ffffffffffffffffffffffffffffffffffffffff021916908373ffffffffffffffffffffffffffffffffffffffff1602179055508173ffffffffffffffffffffffffffffffffffffffff168173ffffffffffffffffffffffffffffffffffffffff167f8be0079c531659141344cd1fd0a4f28419497f9722a3daafe3b4186f6b6457e060405160405180910390a35050565b600033905090565b610b11806200185a83390190565b82805462000c4990620015f4565b90600052602060002090601f01602090048101928262000c6d576000855562000cb9565b82601f1062000c8857805160ff191683800117855562000cb9565b8280016001018555821562000cb9579182015b8281111562000cb857825182559160200191906001019062000c9b565b5b50905062000cc8919062000d72565b5090565b82805462000cda90620015f4565b90600052602060002090601f01602090048101928262000cfe576000855562000d51565b82601f1062000d11578054855562000d51565b8280016001018555821562000d5157600052602060002091601f016020900482015b8281111562000d5057825482559160010191906001019062000d33565b5b50905062000d60919062000d72565b5090565b610a5a806200236b83390190565b5b8082111562000d8d57600081600090555060010162000d73565b5090565b600062000da862000da2846200148b565b62001462565b90508281526020810184848401111562000dc75762000dc6620016c3565b5b62000dd4848285620015af565b509392505050565b60008135905062000ded8162001825565b92915050565b60008151905062000e048162001825565b92915050565b600082601f83011262000e225762000e21620016be565b5b813562000e3484826020860162000d91565b91505092915050565b60008135905062000e4e816200183f565b92915050565b60006020828403121562000e6d5762000e6c620016cd565b5b600062000e7d8482850162000ddc565b91505092915050565b60006020828403121562000e9f5762000e9e620016cd565b5b600062000eaf8482850162000df3565b91505092915050565b6000806040838503121562000ed25762000ed1620016cd565b5b600083013567ffffffffffffffff81111562000ef35762000ef2620016c8565b5b62000f018582860162000e0a565b925050602062000f148582860162000e3d565b9150509250929050565b60006020828403121562000f375762000f36620016cd565b5b600062000f478482850162000e3d565b91505092915050565b600080600080600060a0868803121562000f6f5762000f6e620016cd565b5b600062000f7f8882890162000e3d565b955050602062000f928882890162000ddc565b945050604086013567ffffffffffffffff81111562000fb65762000fb5620016c8565b5b62000fc48882890162000e0a565b935050606086013567ffffffffffffffff81111562000fe85762000fe7620016c8565b5b62000ff68882890162000e0a565b9250506080620010098882890162000e3d565b9150509295509295909350565b60008060008060808587031215620010335762001032620016cd565b5b6000620010438782880162000e3d565b9450506020620010568782880162000ddc565b9350506040620010698782880162000e3d565b92505060606200107c8782880162000e3d565b91505092959194509250565b60006200109683836200111d565b60208301905092915050565b620010ad8162001521565b82525050565b6000620010c082620014d1565b620010cc8185620014f4565b9350620010d983620014c1565b8060005b8381101562001110578151620010f4888262001088565b97506200110183620014e7565b925050600181019050620010dd565b5085935050505092915050565b62001128816200155f565b82525050565b620011398162001573565b82525050565b60006200114c82620014dc565b62001158818562001510565b93506200116a818560208601620015be565b6200117581620016d2565b840191505092915050565b60006200118f60268362001510565b91506200119c82620016e3565b604082019050919050565b6000620011b6602b8362001510565b9150620011c38262001732565b604082019050919050565b6000620011dd602a8362001510565b9150620011ea8262001781565b604082019050919050565b60006200120460128362001510565b91506200121182620017d0565b602082019050919050565b60006200122b60208362001510565b91506200123882620017f9565b602082019050919050565b60006200125260008362001505565b91506200125f8262001822565b600082019050919050565b620012758162001555565b82525050565b6000620012888262001243565b9150819050919050565b6000602082019050620012a96000830184620010a2565b92915050565b60006020820190508181036000830152620012cb8184620010b3565b905092915050565b6000602082019050620012ea60008301846200112e565b92915050565b600060208201905081810360008301526200130b8162001180565b9050919050565b600060208201905081810360008301526200132d81620011a7565b9050919050565b600060208201905081810360008301526200134f81620011ce565b9050919050565b600060208201905081810360008301526200137181620011f5565b9050919050565b6000602082019050818103600083015262001393816200121c565b9050919050565b600060a082019050620013b160008301886200126a565b620013c06020830187620010a2565b8181036040830152620013d481866200113f565b90508181036060830152620013ea81856200113f565b9050620013fb60808301846200126a565b9695505050505050565b600060a0820190506200141c60008301886200126a565b6200142b6020830187620010a2565b6200143a60408301866200126a565b6200144960608301856200126a565b620014586080830184620010a2565b9695505050505050565b60006200146e62001481565b90506200147c82826200162a565b919050565b6000604051905090565b600067ffffffffffffffff821115620014a957620014a86200168f565b5b620014b482620016d2565b9050602081019050919050565b6000819050602082019050919050565b600081519050919050565b600081519050919050565b6000602082019050919050565b600082825260208201905092915050565b600081905092915050565b600082825260208201905092915050565b60006200152e8262001535565b9050919050565b600073ffffffffffffffffffffffffffffffffffffffff82169050919050565b6000819050919050565b60006200156c8262001587565b9050919050565b6000620015808262001555565b9050919050565b600062001594826200159b565b9050919050565b6000620015a88262001535565b9050919050565b82818337600083830152505050565b60005b83811015620015de578082015181840152602081019050620015c1565b83811115620015ee576000848401525b50505050565b600060028204905060018216806200160d57607f821691505b6020821081141562001624576200162362001660565b5b50919050565b6200163582620016d2565b810181811067ffffffffffffffff821117156200165757620016566200168f565b5b80604052505050565b7f4e487b7100000000000000000000000000000000000000000000000000000000600052602260045260246000fd5b7f4e487b7100000000000000000000000000000000000000000000000000000000600052604160045260246000fd5b600080fd5b600080fd5b600080fd5b600080fd5b6000601f19601f8301169050919050565b7f4f776e61626c653a206e6577206f776e657220697320746865207a65726f206160008201527f6464726573730000000000000000000000000000000000000000000000000000602082015250565b7f4465706f736974206661696c65642e2054727920616761696e20696e20736f6d60008201527f65206d6d696e757465732e000000000000000000000000000000000000000000602082015250565b7f4465706f736974206661696c65642e2054727920616761696e20696e20736f6d60008201527f65206d696e757465732e00000000000000000000000000000000000000000000602082015250565b7f496e73756666696369656e742066756e64730000000000000000000000000000600082015250565b7f4f776e61626c653a2063616c6c6572206973206e6f7420746865206f776e6572600082015250565b50565b620018308162001521565b81146200183c57600080fd5b50565b6200184a8162001555565b81146200185657600080fd5b5056fe60806040523480156200001157600080fd5b5060405162000b1138038062000b1183398181016040528101906200003791906200023d565b84848160008190555080600160006101000a81548173ffffffffffffffffffffffffffffffffffffffff021916908373ffffffffffffffffffffffffffffffffffffffff160217905550505082600290805190602001906200009b929190620000e1565b508160039080519060200190620000b4929190620000e1565b508060048190555060045460056000878152602001908152602001600020819055505050505050620004f9565b828054620000ef90620003d6565b90600052602060002090601f0160209004810192826200011357600085556200015f565b82601f106200012e57805160ff19168380011785556200015f565b828001600101855582156200015f579182015b828111156200015e57825182559160200191906001019062000141565b5b5090506200016e919062000172565b5090565b5b808211156200018d57600081600090555060010162000173565b5090565b6000620001a8620001a2846200032c565b62000303565b905082815260208101848484011115620001c757620001c6620004a5565b5b620001d4848285620003a0565b509392505050565b600081519050620001ed81620004c5565b92915050565b600082601f8301126200020b576200020a620004a0565b5b81516200021d84826020860162000191565b91505092915050565b6000815190506200023781620004df565b92915050565b600080600080600060a086880312156200025c576200025b620004af565b5b60006200026c8882890162000226565b95505060206200027f88828901620001dc565b945050604086015167ffffffffffffffff811115620002a357620002a2620004aa565b5b620002b188828901620001f3565b935050606086015167ffffffffffffffff811115620002d557620002d4620004aa565b5b620002e388828901620001f3565b9250506080620002f68882890162000226565b9150509295509295909350565b60006200030f62000322565b90506200031d82826200040c565b919050565b6000604051905090565b600067ffffffffffffffff8211156200034a576200034962000471565b5b6200035582620004b4565b9050602081019050919050565b60006200036f8262000376565b9050919050565b600073ffffffffffffffffffffffffffffffffffffffff82169050919050565b6000819050919050565b60005b83811015620003c0578082015181840152602081019050620003a3565b83811115620003d0576000848401525b50505050565b60006002820490506001821680620003ef57607f821691505b6020821081141562000406576200040562000442565b5b50919050565b6200041782620004b4565b810181811067ffffffffffffffff8211171562000439576200043862000471565b5b80604052505050565b7f4e487b7100000000000000000000000000000000000000000000000000000000600052602260045260246000fd5b7f4e487b7100000000000000000000000000000000000000000000000000000000600052604160045260246000fd5b600080fd5b600080fd5b600080fd5b600080fd5b6000601f19601f8301169050919050565b620004d08162000362565b8114620004dc57600080fd5b50565b620004ea8162000396565b8114620004f657600080fd5b50565b61060880620005096000396000f3fe60806040526004361061004e5760003560e01c806338cc4831146100cd57806380bfacc2146100f8578063835fc6ca14610135578063af640d0f1461015e578063f2bcd0221461018957610090565b36610090577f2d27851832fcac28a0d4af1344f01fed7ffcfd15171c14c564a0c42aa57ae5c0343047604051610086939291906104ac565b60405180910390a1005b7f2d27851832fcac28a0d4af1344f01fed7ffcfd15171c14c564a0c42aa57ae5c03430476040516100c3939291906104ac565b60405180910390a1005b3480156100d957600080fd5b506100e26101b4565b6040516100ef9190610436565b60405180910390f35b34801561010457600080fd5b5061011f600480360381019061011a919061036d565b6101bc565b60405161012c9190610491565b60405180910390f35b34801561014157600080fd5b5061015c6004803603810190610157919061036d565b6101d9565b005b34801561016a57600080fd5b5061017361032c565b6040516101809190610491565b60405180910390f35b34801561019557600080fd5b5061019e610332565b6040516101ab9190610436565b60405180910390f35b600030905090565b600060056000838152602001908152602001600020549050919050565b8047101561021c576040517f08c379a000000000000000000000000000000000000000000000000000000000815260040161021390610451565b60405180910390fd5b6000600160009054906101000a900473ffffffffffffffffffffffffffffffffffffffff1673ffffffffffffffffffffffffffffffffffffffff168260405161026490610421565b60006040518083038185875af1925050503d80600081146102a1576040519150601f19603f3d011682016040523d82523d6000602084013e6102a6565b606091505b5050905060011515811515146102f1576040517f08c379a00000000000000000000000000000000000000000000000000000000081526004016102e890610471565b60405180910390fd5b7f794032702377d1e7eb93381e2467d569394569207a770af85b3222a361126c91476040516103209190610491565b60405180910390a15050565b60005481565b600160009054906101000a900473ffffffffffffffffffffffffffffffffffffffff1681565b600081359050610367816105bb565b92915050565b6000602082840312156103835761038261053b565b5b600061039184828501610358565b91505092915050565b6103a3816104ff565b82525050565b60006103b66018836104ee565b91506103c182610540565b602082019050919050565b60006103d96000836104e3565b91506103e482610569565b600082019050919050565b60006103fc602d836104ee565b91506104078261056c565b604082019050919050565b61041b81610531565b82525050565b600061042c826103cc565b9150819050919050565b600060208201905061044b600083018461039a565b92915050565b6000602082019050818103600083015261046a816103a9565b9050919050565b6000602082019050818103600083015261048a816103ef565b9050919050565b60006020820190506104a66000830184610412565b92915050565b60006060820190506104c16000830186610412565b6104ce602083018561039a565b6104db6040830184610412565b949350505050565b600081905092915050565b600082825260208201905092915050565b600061050a82610511565b9050919050565b600073ffffffffffffffffffffffffffffffffffffffff82169050919050565b6000819050919050565b600080fd5b7f557365723a20496e73756666696369656e742066756e64730000000000000000600082015250565b50565b7f5769746864726177616c206661696c65642e2054727920616761696e20696e2060008201527f736f6d65206d696e757465732e00000000000000000000000000000000000000602082015250565b6105c481610531565b81146105cf57600080fd5b5056fea26469706673582212206b50d0e92213542657efbc28c967c689b85f64fcecb2c91eb61765030fe9a2d564736f6c634300080700336080604052604051610a5a380380610a5a833981810160405281019061002591906100f4565b84848160008190555080600160006101000a81548173ffffffffffffffffffffffffffffffffffffffff021916908373ffffffffffffffffffffffffffffffffffffffff1602179055505050826002819055508160038190555080600460006101000a81548173ffffffffffffffffffffffffffffffffffffffff021916908373ffffffffffffffffffffffffffffffffffffffff16021790555050505050506101de565b6000815190506100d9816101b0565b92915050565b6000815190506100ee816101c7565b92915050565b600080600080600060a086880312156101105761010f6101ab565b5b600061011e888289016100df565b955050602061012f888289016100ca565b9450506040610140888289016100df565b9350506060610151888289016100df565b9250506080610162888289016100ca565b9150509295509295909350565b600061017a82610181565b9050919050565b600073ffffffffffffffffffffffffffffffffffffffff82169050919050565b6000819050919050565b600080fd5b6101b98161016f565b81146101c457600080fd5b50565b6101d0816101a1565b81146101db57600080fd5b50565b61086d806101ed6000396000f3fe6080604052600436106100595760003560e01c806338cc4831146100d8578063835fc6ca14610103578063af640d0f1461012c578063d0e30db014610157578063da6e75c214610161578063f2bcd022146101785761009b565b3661009b577f2d27851832fcac28a0d4af1344f01fed7ffcfd15171c14c564a0c42aa57ae5c034304760405161009193929190610699565b60405180910390a1005b7f2d27851832fcac28a0d4af1344f01fed7ffcfd15171c14c564a0c42aa57ae5c03430476040516100ce93929190610699565b60405180910390a1005b3480156100e457600080fd5b506100ed6101a3565b6040516100fa91906105e3565b60405180910390f35b34801561010f57600080fd5b5061012a600480360381019061012591906104d4565b6101ab565b005b34801561013857600080fd5b506101416102fe565b60405161014e919061067e565b60405180910390f35b61015f610304565b005b34801561016d57600080fd5b50610176610341565b005b34801561018457600080fd5b5061018d610499565b60405161019a91906105e3565b60405180910390f35b600030905090565b804710156101ee576040517f08c379a00000000000000000000000000000000000000000000000000000000081526004016101e59061063e565b60405180910390fd5b6000600160009054906101000a900473ffffffffffffffffffffffffffffffffffffffff1673ffffffffffffffffffffffffffffffffffffffff1682604051610236906105ce565b60006040518083038185875af1925050503d8060008114610273576040519150601f19603f3d011682016040523d82523d6000602084013e610278565b606091505b5050905060011515811515146102c3576040517f08c379a00000000000000000000000000000000000000000000000000000000081526004016102ba9061065e565b60405180910390fd5b7f794032702377d1e7eb93381e2467d569394569207a770af85b3222a361126c91476040516102f2919061067e565b60405180910390a15050565b60005481565b7f2d27851832fcac28a0d4af1344f01fed7ffcfd15171c14c564a0c42aa57ae5c034304760405161033793929190610699565b60405180910390a1565b600254471015610386576040517f08c379a000000000000000000000000000000000000000000000000000000000815260040161037d906105fe565b60405180910390fd5b6000600460009054906101000a900473ffffffffffffffffffffffffffffffffffffffff1673ffffffffffffffffffffffffffffffffffffffff166002546040516103d0906105ce565b60006040518083038185875af1925050503d806000811461040d576040519150601f19603f3d011682016040523d82523d6000602084013e610412565b606091505b50509050600115158115151461045d576040517f08c379a00000000000000000000000000000000000000000000000000000000081526004016104549061061e565b60405180910390fd5b7f56e1cf8a52e84572ff49b950fa9a1a1867319bf8eba3bf8c77bc4354678a34c560025460405161048e919061067e565b60405180910390a150565b600160009054906101000a900473ffffffffffffffffffffffffffffffffffffffff1681565b6000813590506104ce81610820565b92915050565b6000602082840312156104ea576104e9610728565b5b60006104f8848285016104bf565b91505092915050565b61050a816106ec565b82525050565b600061051d6012836106db565b91506105288261072d565b602082019050919050565b6000610540602a836106db565b915061054b82610756565b604082019050919050565b60006105636018836106db565b915061056e826107a5565b602082019050919050565b60006105866000836106d0565b9150610591826107ce565b600082019050919050565b60006105a9602d836106db565b91506105b4826107d1565b604082019050919050565b6105c88161071e565b82525050565b60006105d982610579565b9150819050919050565b60006020820190506105f86000830184610501565b92915050565b6000602082019050818103600083015261061781610510565b9050919050565b6000602082019050818103600083015261063781610533565b9050919050565b6000602082019050818103600083015261065781610556565b9050919050565b600060208201905081810360008301526106778161059c565b9050919050565b600060208201905061069360008301846105bf565b92915050565b60006060820190506106ae60008301866105bf565b6106bb6020830185610501565b6106c860408301846105bf565b949350505050565b600081905092915050565b600082825260208201905092915050565b60006106f7826106fe565b9050919050565b600073ffffffffffffffffffffffffffffffffffffffff82169050919050565b6000819050919050565b600080fd5b7f496e73756666696369656e742066756e64730000000000000000000000000000600082015250565b7f5061796d656e74206661696c65642e2054727920616761696e20696e20736f6d60008201527f65206d696e757465732e00000000000000000000000000000000000000000000602082015250565b7f557365723a20496e73756666696369656e742066756e64730000000000000000600082015250565b50565b7f5769746864726177616c206661696c65642e2054727920616761696e20696e2060008201527f736f6d65206d696e757465732e00000000000000000000000000000000000000602082015250565b6108298161071e565b811461083457600080fd5b5056fea2646970667358221220c17d509b097b52b946c9c19b53e5fb525fd9e1a3be38560da190a0f59eaa38bb64736f6c63430008070033a26469706673582212203d649b78100c918a133f888a7c7a7f4e6564a60beffaa04ea5c773e1087e7ac764736f6c63430008070033",
					"opcodes": "PUSH1 0x80 PUSH1 0x40 MSTORE CALLVALUE DUP1 ISZERO PUSH2 0x10 JUMPI PUSH1 0x0 DUP1 REVERT JUMPDEST POP PUSH2 0x2D PUSH2 0x22 PUSH2 0x32 PUSH1 0x20 SHL PUSH1 0x20 SHR JUMP JUMPDEST PUSH2 0x3A PUSH1 0x20 SHL PUSH1 0x20 SHR JUMP JUMPDEST PUSH2 0xFE JUMP JUMPDEST PUSH1 0x0 CALLER SWAP1 POP SWAP1 JUMP JUMPDEST PUSH1 0x0 DUP1 PUSH1 0x0 SWAP1 SLOAD SWAP1 PUSH2 0x100 EXP SWAP1 DIV PUSH20 0xFFFFFFFFFFFFFFFFFFFFFFFFFFFFFFFFFFFFFFFF AND SWAP1 POP DUP2 PUSH1 0x0 DUP1 PUSH2 0x100 EXP DUP2 SLOAD DUP2 PUSH20 0xFFFFFFFFFFFFFFFFFFFFFFFFFFFFFFFFFFFFFFFF MUL NOT AND SWAP1 DUP4 PUSH20 0xFFFFFFFFFFFFFFFFFFFFFFFFFFFFFFFFFFFFFFFF AND MUL OR SWAP1 SSTORE POP DUP2 PUSH20 0xFFFFFFFFFFFFFFFFFFFFFFFFFFFFFFFFFFFFFFFF AND DUP2 PUSH20 0xFFFFFFFFFFFFFFFFFFFFFFFFFFFFFFFFFFFFFFFF AND PUSH32 0x8BE0079C531659141344CD1FD0A4F28419497F9722A3DAAFE3B4186F6B6457E0 PUSH1 0x40 MLOAD PUSH1 0x40 MLOAD DUP1 SWAP2 SUB SWAP1 LOG3 POP POP JUMP JUMPDEST PUSH2 0x2DFA DUP1 PUSH2 0x10D PUSH1 0x0 CODECOPY PUSH1 0x0 RETURN INVALID PUSH1 0x80 PUSH1 0x40 MSTORE PUSH1 0x4 CALLDATASIZE LT PUSH3 0xF7 JUMPI PUSH1 0x0 CALLDATALOAD PUSH1 0xE0 SHR DUP1 PUSH4 0x8DA5CB5B GT PUSH3 0x8B JUMPI DUP1 PUSH4 0xCD7D77C5 GT PUSH3 0x61 JUMPI DUP1 PUSH4 0xCD7D77C5 EQ PUSH3 0x267 JUMPI DUP1 PUSH4 0xEB20F21A EQ PUSH3 0x295 JUMPI DUP1 PUSH4 0xEC3AB274 EQ PUSH3 0x2AF JUMPI DUP1 PUSH4 0xF2FDE38B EQ PUSH3 0x2C9 JUMPI PUSH3 0xFF JUMP JUMPDEST DUP1 PUSH4 0x8DA5CB5B EQ PUSH3 0x1FD JUMPI DUP1 PUSH4 0xBCE58703 EQ PUSH3 0x22D JUMPI DUP1 PUSH4 0xC2D2A83C EQ PUSH3 0x25B JUMPI PUSH3 0xFF JUMP JUMPDEST DUP1 PUSH4 0x42E36B3B GT PUSH3 0xCD JUMPI DUP1 PUSH4 0x42E36B3B EQ PUSH3 0x16B JUMPI DUP1 PUSH4 0x715018A6 EQ PUSH3 0x185 JUMPI DUP1 PUSH4 0x72673E31 EQ PUSH3 0x19F JUMPI DUP1 PUSH4 0x85FFEBD7 EQ PUSH3 0x1CD JUMPI PUSH3 0xFF JUMP JUMPDEST DUP1 PUSH4 0x8B567FC EQ PUSH3 0x101 JUMPI DUP1 PUSH4 0xB9362A2 EQ PUSH3 0x12F JUMPI DUP1 PUSH4 0x2DB3361B EQ PUSH3 0x15F JUMPI PUSH3 0xFF JUMP JUMPDEST CALLDATASIZE PUSH3 0xFF JUMPI STOP JUMPDEST STOP JUMPDEST CALLVALUE DUP1 ISZERO PUSH3 0x10E JUMPI PUSH1 0x0 DUP1 REVERT JUMPDEST POP PUSH3 0x12D PUSH1 0x4 DUP1 CALLDATASIZE SUB DUP2 ADD SWAP1 PUSH3 0x127 SWAP2 SWAP1 PUSH3 0xF50 JUMP JUMPDEST PUSH3 0x2F7 JUMP JUMPDEST STOP JUMPDEST CALLVALUE DUP1 ISZERO PUSH3 0x13C JUMPI PUSH1 0x0 DUP1 REVERT JUMPDEST POP PUSH3 0x147 PUSH3 0x404 JUMP JUMPDEST PUSH1 0x40 MLOAD PUSH3 0x156 SWAP2 SWAP1 PUSH3 0x12AF JUMP JUMPDEST PUSH1 0x40 MLOAD DUP1 SWAP2 SUB SWAP1 RETURN JUMPDEST PUSH3 0x169 PUSH3 0x494 JUMP JUMPDEST STOP JUMPDEST CALLVALUE DUP1 ISZERO PUSH3 0x178 JUMPI PUSH1 0x0 DUP1 REVERT JUMPDEST POP PUSH3 0x183 PUSH3 0x5F4 JUMP JUMPDEST STOP JUMPDEST CALLVALUE DUP1 ISZERO PUSH3 0x192 JUMPI PUSH1 0x0 DUP1 REVERT JUMPDEST POP PUSH3 0x19D PUSH3 0x649 JUMP JUMPDEST STOP JUMPDEST CALLVALUE DUP1 ISZERO PUSH3 0x1AC JUMPI PUSH1 0x0 DUP1 REVERT JUMPDEST POP PUSH3 0x1CB PUSH1 0x4 DUP1 CALLDATASIZE SUB DUP2 ADD SWAP1 PUSH3 0x1C5 SWAP2 SWAP1 PUSH3 0xEB8 JUMP JUMPDEST PUSH3 0x661 JUMP JUMPDEST STOP JUMPDEST CALLVALUE DUP1 ISZERO PUSH3 0x1DA JUMPI PUSH1 0x0 DUP1 REVERT JUMPDEST POP PUSH3 0x1E5 PUSH3 0x70F JUMP JUMPDEST PUSH1 0x40 MLOAD PUSH3 0x1F4 SWAP2 SWAP1 PUSH3 0x1292 JUMP JUMPDEST PUSH1 0x40 MLOAD DUP1 SWAP2 SUB SWAP1 RETURN JUMPDEST CALLVALUE DUP1 ISZERO PUSH3 0x20A JUMPI PUSH1 0x0 DUP1 REVERT JUMPDEST POP PUSH3 0x215 PUSH3 0x717 JUMP JUMPDEST PUSH1 0x40 MLOAD PUSH3 0x224 SWAP2 SWAP1 PUSH3 0x1292 JUMP JUMPDEST PUSH1 0x40 MLOAD DUP1 SWAP2 SUB SWAP1 RETURN JUMPDEST CALLVALUE DUP1 ISZERO PUSH3 0x23A JUMPI PUSH1 0x0 DUP1 REVERT JUMPDEST POP PUSH3 0x259 PUSH1 0x4 DUP1 CALLDATASIZE SUB DUP2 ADD SWAP1 PUSH3 0x253 SWAP2 SWAP1 PUSH3 0x1016 JUMP JUMPDEST PUSH3 0x740 JUMP JUMPDEST STOP JUMPDEST PUSH3 0x265 PUSH3 0x856 JUMP JUMPDEST STOP JUMPDEST CALLVALUE DUP1 ISZERO PUSH3 0x274 JUMPI PUSH1 0x0 DUP1 REVERT JUMPDEST POP PUSH3 0x293 PUSH1 0x4 DUP1 CALLDATASIZE SUB DUP2 ADD SWAP1 PUSH3 0x28D SWAP2 SWAP1 PUSH3 0xF1E JUMP JUMPDEST PUSH3 0x9B6 JUMP JUMPDEST STOP JUMPDEST CALLVALUE DUP1 ISZERO PUSH3 0x2A2 JUMPI PUSH1 0x0 DUP1 REVERT JUMPDEST POP PUSH3 0x2AD PUSH3 0x9B9 JUMP JUMPDEST STOP JUMPDEST CALLVALUE DUP1 ISZERO PUSH3 0x2BC JUMPI PUSH1 0x0 DUP1 REVERT JUMPDEST POP PUSH3 0x2C7 PUSH3 0xA4F JUMP JUMPDEST STOP JUMPDEST CALLVALUE DUP1 ISZERO PUSH3 0x2D6 JUMPI PUSH1 0x0 DUP1 REVERT JUMPDEST POP PUSH3 0x2F5 PUSH1 0x4 DUP1 CALLDATASIZE SUB DUP2 ADD SWAP1 PUSH3 0x2EF SWAP2 SWAP1 PUSH3 0xE54 JUMP JUMPDEST PUSH3 0xA51 JUMP JUMPDEST STOP JUMPDEST DUP5 DUP5 DUP5 DUP5 DUP5 PUSH1 0x40 MLOAD PUSH3 0x30A SWAP1 PUSH3 0xC2D JUMP JUMPDEST PUSH3 0x31A SWAP6 SWAP5 SWAP4 SWAP3 SWAP2 SWAP1 PUSH3 0x139A JUMP JUMPDEST PUSH1 0x40 MLOAD DUP1 SWAP2 SUB SWAP1 PUSH1 0x0 CREATE DUP1 ISZERO DUP1 ISZERO PUSH3 0x337 JUMPI RETURNDATASIZE PUSH1 0x0 DUP1 RETURNDATACOPY RETURNDATASIZE PUSH1 0x0 REVERT JUMPDEST POP PUSH1 0x4 PUSH1 0x0 PUSH2 0x100 EXP DUP2 SLOAD DUP2 PUSH20 0xFFFFFFFFFFFFFFFFFFFFFFFFFFFFFFFFFFFFFFFF MUL NOT AND SWAP1 DUP4 PUSH20 0xFFFFFFFFFFFFFFFFFFFFFFFFFFFFFFFFFFFFFFFF AND MUL OR SWAP1 SSTORE POP PUSH1 0x1 PUSH1 0x4 PUSH1 0x0 SWAP1 SLOAD SWAP1 PUSH2 0x100 EXP SWAP1 DIV PUSH20 0xFFFFFFFFFFFFFFFFFFFFFFFFFFFFFFFFFFFFFFFF AND SWAP1 DUP1 PUSH1 0x1 DUP2 SLOAD ADD DUP1 DUP3 SSTORE DUP1 SWAP2 POP POP PUSH1 0x1 SWAP1 SUB SWAP1 PUSH1 0x0 MSTORE PUSH1 0x20 PUSH1 0x0 KECCAK256 ADD PUSH1 0x0 SWAP1 SWAP2 SWAP1 SWAP2 SWAP1 SWAP2 PUSH2 0x100 EXP DUP2 SLOAD DUP2 PUSH20 0xFFFFFFFFFFFFFFFFFFFFFFFFFFFFFFFFFFFFFFFF MUL NOT AND SWAP1 DUP4 PUSH20 0xFFFFFFFFFFFFFFFFFFFFFFFFFFFFFFFFFFFFFFFF AND MUL OR SWAP1 SSTORE POP POP POP POP POP POP JUMP JUMPDEST PUSH1 0x60 PUSH1 0x1 DUP1 SLOAD DUP1 PUSH1 0x20 MUL PUSH1 0x20 ADD PUSH1 0x40 MLOAD SWAP1 DUP2 ADD PUSH1 0x40 MSTORE DUP1 SWAP3 SWAP2 SWAP1 DUP2 DUP2 MSTORE PUSH1 0x20 ADD DUP3 DUP1 SLOAD DUP1 ISZERO PUSH3 0x48A JUMPI PUSH1 0x20 MUL DUP3 ADD SWAP2 SWAP1 PUSH1 0x0 MSTORE PUSH1 0x20 PUSH1 0x0 KECCAK256 SWAP1 JUMPDEST DUP2 PUSH1 0x0 SWAP1 SLOAD SWAP1 PUSH2 0x100 EXP SWAP1 DIV PUSH20 0xFFFFFFFFFFFFFFFFFFFFFFFFFFFFFFFFFFFFFFFF AND PUSH20 0xFFFFFFFFFFFFFFFFFFFFFFFFFFFFFFFFFFFFFFFF AND DUP2 MSTORE PUSH1 0x20 ADD SWAP1 PUSH1 0x1 ADD SWAP1 DUP1 DUP4 GT PUSH3 0x43F JUMPI JUMPDEST POP POP POP POP POP SWAP1 POP SWAP1 JUMP JUMPDEST PUSH1 0x0 PUSH1 0x5 PUSH1 0x0 SWAP1 SLOAD SWAP1 PUSH2 0x100 EXP SWAP1 DIV PUSH20 0xFFFFFFFFFFFFFFFFFFFFFFFFFFFFFFFFFFFFFFFF AND PUSH20 0xFFFFFFFFFFFFFFFFFFFFFFFFFFFFFFFFFFFFFFFF AND PUSH4 0x38CC4831 PUSH1 0x40 MLOAD DUP2 PUSH4 0xFFFFFFFF AND PUSH1 0xE0 SHL DUP2 MSTORE PUSH1 0x4 ADD PUSH1 0x20 PUSH1 0x40 MLOAD DUP1 DUP4 SUB DUP2 DUP7 DUP1 EXTCODESIZE ISZERO DUP1 ISZERO PUSH3 0x4FF JUMPI PUSH1 0x0 DUP1 REVERT JUMPDEST POP GAS STATICCALL ISZERO DUP1 ISZERO PUSH3 0x514 JUMPI RETURNDATASIZE PUSH1 0x0 DUP1 RETURNDATACOPY RETURNDATASIZE PUSH1 0x0 REVERT JUMPDEST POP POP POP POP PUSH1 0x40 MLOAD RETURNDATASIZE PUSH1 0x1F NOT PUSH1 0x1F DUP3 ADD AND DUP3 ADD DUP1 PUSH1 0x40 MSTORE POP DUP2 ADD SWAP1 PUSH3 0x53A SWAP2 SWAP1 PUSH3 0xE86 JUMP JUMPDEST PUSH20 0xFFFFFFFFFFFFFFFFFFFFFFFFFFFFFFFFFFFFFFFF AND CALLVALUE PUSH1 0x40 MLOAD PUSH3 0x55F SWAP1 PUSH3 0x127B JUMP JUMPDEST PUSH1 0x0 PUSH1 0x40 MLOAD DUP1 DUP4 SUB DUP2 DUP6 DUP8 GAS CALL SWAP3 POP POP POP RETURNDATASIZE DUP1 PUSH1 0x0 DUP2 EQ PUSH3 0x59E JUMPI PUSH1 0x40 MLOAD SWAP2 POP PUSH1 0x1F NOT PUSH1 0x3F RETURNDATASIZE ADD AND DUP3 ADD PUSH1 0x40 MSTORE RETURNDATASIZE DUP3 MSTORE RETURNDATASIZE PUSH1 0x0 PUSH1 0x20 DUP5 ADD RETURNDATACOPY PUSH3 0x5A3 JUMP JUMPDEST PUSH1 0x60 SWAP2 POP JUMPDEST POP POP SWAP1 POP PUSH1 0x1 ISZERO ISZERO DUP2 ISZERO ISZERO EQ PUSH3 0x5F1 JUMPI PUSH1 0x40 MLOAD PUSH32 0x8C379A000000000000000000000000000000000000000000000000000000000 DUP2 MSTORE PUSH1 0x4 ADD PUSH3 0x5E8 SWAP1 PUSH3 0x1312 JUMP JUMPDEST PUSH1 0x40 MLOAD DUP1 SWAP2 SUB SWAP1 REVERT JUMPDEST POP JUMP JUMPDEST PUSH3 0x5FE PUSH3 0xADC JUMP JUMPDEST PUSH1 0x0 DUP1 SELFBALANCE LT ISZERO PUSH3 0x646 JUMPI PUSH1 0x40 MLOAD PUSH32 0x8C379A000000000000000000000000000000000000000000000000000000000 DUP2 MSTORE PUSH1 0x4 ADD PUSH3 0x63D SWAP1 PUSH3 0x1356 JUMP JUMPDEST PUSH1 0x40 MLOAD DUP1 SWAP2 SUB SWAP1 REVERT JUMPDEST POP JUMP JUMPDEST PUSH3 0x653 PUSH3 0xADC JUMP JUMPDEST PUSH3 0x65F PUSH1 0x0 PUSH3 0xB61 JUMP JUMPDEST JUMP JUMPDEST PUSH3 0x66B PUSH3 0xADC JUMP JUMPDEST PUSH1 0x40 MLOAD DUP1 PUSH1 0x40 ADD PUSH1 0x40 MSTORE DUP1 DUP4 DUP2 MSTORE PUSH1 0x20 ADD DUP3 DUP2 MSTORE POP PUSH1 0x6 PUSH1 0x0 DUP3 ADD MLOAD DUP2 PUSH1 0x0 ADD SWAP1 DUP1 MLOAD SWAP1 PUSH1 0x20 ADD SWAP1 PUSH3 0x6A0 SWAP3 SWAP2 SWAP1 PUSH3 0xC3B JUMP JUMPDEST POP PUSH1 0x20 DUP3 ADD MLOAD DUP2 PUSH1 0x1 ADD SSTORE SWAP1 POP POP PUSH1 0x3 PUSH1 0x6 SWAP1 DUP1 PUSH1 0x1 DUP2 SLOAD ADD DUP1 DUP3 SSTORE DUP1 SWAP2 POP POP PUSH1 0x1 SWAP1 SUB SWAP1 PUSH1 0x0 MSTORE PUSH1 0x20 PUSH1 0x0 KECCAK256 SWAP1 PUSH1 0x2 MUL ADD PUSH1 0x0 SWAP1 SWAP2 SWAP1 SWAP2 SWAP1 SWAP2 POP PUSH1 0x0 DUP3 ADD DUP2 PUSH1 0x0 ADD SWAP1 DUP1 SLOAD PUSH3 0x6F1 SWAP1 PUSH3 0x15F4 JUMP JUMPDEST PUSH3 0x6FE SWAP3 SWAP2 SWAP1 PUSH3 0xCCC JUMP JUMPDEST POP PUSH1 0x1 DUP3 ADD SLOAD DUP2 PUSH1 0x1 ADD SSTORE POP POP POP POP JUMP JUMPDEST PUSH1 0x0 ADDRESS SWAP1 POP SWAP1 JUMP JUMPDEST PUSH1 0x0 DUP1 PUSH1 0x0 SWAP1 SLOAD SWAP1 PUSH2 0x100 EXP SWAP1 DIV PUSH20 0xFFFFFFFFFFFFFFFFFFFFFFFFFFFFFFFFFFFFFFFF AND SWAP1 POP SWAP1 JUMP JUMPDEST PUSH3 0x74A PUSH3 0xADC JUMP JUMPDEST DUP4 DUP4 DUP4 DUP4 ADDRESS PUSH1 0x40 MLOAD PUSH3 0x75D SWAP1 PUSH3 0xD64 JUMP JUMPDEST PUSH3 0x76D SWAP6 SWAP5 SWAP4 SWAP3 SWAP2 SWAP1 PUSH3 0x1405 JUMP JUMPDEST PUSH1 0x40 MLOAD DUP1 SWAP2 SUB SWAP1 PUSH1 0x0 CREATE DUP1 ISZERO DUP1 ISZERO PUSH3 0x78A JUMPI RETURNDATASIZE PUSH1 0x0 DUP1 RETURNDATACOPY RETURNDATASIZE PUSH1 0x0 REVERT JUMPDEST POP PUSH1 0x5 PUSH1 0x0 PUSH2 0x100 EXP DUP2 SLOAD DUP2 PUSH20 0xFFFFFFFFFFFFFFFFFFFFFFFFFFFFFFFFFFFFFFFF MUL NOT AND SWAP1 DUP4 PUSH20 0xFFFFFFFFFFFFFFFFFFFFFFFFFFFFFFFFFFFFFFFF AND MUL OR SWAP1 SSTORE POP PUSH1 0x2 PUSH1 0x5 PUSH1 0x0 SWAP1 SLOAD SWAP1 PUSH2 0x100 EXP SWAP1 DIV PUSH20 0xFFFFFFFFFFFFFFFFFFFFFFFFFFFFFFFFFFFFFFFF AND SWAP1 DUP1 PUSH1 0x1 DUP2 SLOAD ADD DUP1 DUP3 SSTORE DUP1 SWAP2 POP POP PUSH1 0x1 SWAP1 SUB SWAP1 PUSH1 0x0 MSTORE PUSH1 0x20 PUSH1 0x0 KECCAK256 ADD PUSH1 0x0 SWAP1 SWAP2 SWAP1 SWAP2 SWAP1 SWAP2 PUSH2 0x100 EXP DUP2 SLOAD DUP2 PUSH20 0xFFFFFFFFFFFFFFFFFFFFFFFFFFFFFFFFFFFFFFFF MUL NOT AND SWAP1 DUP4 PUSH20 0xFFFFFFFFFFFFFFFFFFFFFFFFFFFFFFFFFFFFFFFF AND MUL OR SWAP1 SSTORE POP POP POP POP POP JUMP JUMPDEST PUSH1 0x0 PUSH1 0x4 PUSH1 0x0 SWAP1 SLOAD SWAP1 PUSH2 0x100 EXP SWAP1 DIV PUSH20 0xFFFFFFFFFFFFFFFFFFFFFFFFFFFFFFFFFFFFFFFF AND PUSH20 0xFFFFFFFFFFFFFFFFFFFFFFFFFFFFFFFFFFFFFFFF AND PUSH4 0x38CC4831 PUSH1 0x40 MLOAD DUP2 PUSH4 0xFFFFFFFF AND PUSH1 0xE0 SHL DUP2 MSTORE PUSH1 0x4 ADD PUSH1 0x20 PUSH1 0x40 MLOAD DUP1 DUP4 SUB DUP2 DUP7 DUP1 EXTCODESIZE ISZERO DUP1 ISZERO PUSH3 0x8C1 JUMPI PUSH1 0x0 DUP1 REVERT JUMPDEST POP GAS STATICCALL ISZERO DUP1 ISZERO PUSH3 0x8D6 JUMPI RETURNDATASIZE PUSH1 0x0 DUP1 RETURNDATACOPY RETURNDATASIZE PUSH1 0x0 REVERT JUMPDEST POP POP POP POP PUSH1 0x40 MLOAD RETURNDATASIZE PUSH1 0x1F NOT PUSH1 0x1F DUP3 ADD AND DUP3 ADD DUP1 PUSH1 0x40 MSTORE POP DUP2 ADD SWAP1 PUSH3 0x8FC SWAP2 SWAP1 PUSH3 0xE86 JUMP JUMPDEST PUSH20 0xFFFFFFFFFFFFFFFFFFFFFFFFFFFFFFFFFFFFFFFF AND CALLVALUE PUSH1 0x40 MLOAD PUSH3 0x921 SWAP1 PUSH3 0x127B JUMP JUMPDEST PUSH1 0x0 PUSH1 0x40 MLOAD DUP1 DUP4 SUB DUP2 DUP6 DUP8 GAS CALL SWAP3 POP POP POP RETURNDATASIZE DUP1 PUSH1 0x0 DUP2 EQ PUSH3 0x960 JUMPI PUSH1 0x40 MLOAD SWAP2 POP PUSH1 0x1F NOT PUSH1 0x3F RETURNDATASIZE ADD AND DUP3 ADD PUSH1 0x40 MSTORE RETURNDATASIZE DUP3 MSTORE RETURNDATASIZE PUSH1 0x0 PUSH1 0x20 DUP5 ADD RETURNDATACOPY PUSH3 0x965 JUMP JUMPDEST PUSH1 0x60 SWAP2 POP JUMPDEST POP POP SWAP1 POP PUSH1 0x1 ISZERO ISZERO DUP2 ISZERO ISZERO EQ PUSH3 0x9B3 JUMPI PUSH1 0x40 MLOAD PUSH32 0x8C379A000000000000000000000000000000000000000000000000000000000 DUP2 MSTORE PUSH1 0x4 ADD PUSH3 0x9AA SWAP1 PUSH3 0x1334 JUMP JUMPDEST PUSH1 0x40 MLOAD DUP1 SWAP2 SUB SWAP1 REVERT JUMPDEST POP JUMP JUMPDEST POP JUMP JUMPDEST PUSH1 0x5 PUSH1 0x0 SWAP1 SLOAD SWAP1 PUSH2 0x100 EXP SWAP1 DIV PUSH20 0xFFFFFFFFFFFFFFFFFFFFFFFFFFFFFFFFFFFFFFFF AND PUSH20 0xFFFFFFFFFFFFFFFFFFFFFFFFFFFFFFFFFFFFFFFF AND PUSH4 0x835FC6CA PUSH3 0x186A0 PUSH1 0x40 MLOAD DUP3 PUSH4 0xFFFFFFFF AND PUSH1 0xE0 SHL DUP2 MSTORE PUSH1 0x4 ADD PUSH3 0xA19 SWAP2 SWAP1 PUSH3 0x12D3 JUMP JUMPDEST PUSH1 0x0 PUSH1 0x40 MLOAD DUP1 DUP4 SUB DUP2 PUSH1 0x0 DUP8 DUP1 EXTCODESIZE ISZERO DUP1 ISZERO PUSH3 0xA34 JUMPI PUSH1 0x0 DUP1 REVERT JUMPDEST POP GAS CALL ISZERO DUP1 ISZERO PUSH3 0xA49 JUMPI RETURNDATASIZE PUSH1 0x0 DUP1 RETURNDATACOPY RETURNDATASIZE PUSH1 0x0 REVERT JUMPDEST POP POP POP POP JUMP JUMPDEST JUMP JUMPDEST PUSH3 0xA5B PUSH3 0xADC JUMP JUMPDEST PUSH1 0x0 PUSH20 0xFFFFFFFFFFFFFFFFFFFFFFFFFFFFFFFFFFFFFFFF AND DUP2 PUSH20 0xFFFFFFFFFFFFFFFFFFFFFFFFFFFFFFFFFFFFFFFF AND EQ ISZERO PUSH3 0xACE JUMPI PUSH1 0x40 MLOAD PUSH32 0x8C379A000000000000000000000000000000000000000000000000000000000 DUP2 MSTORE PUSH1 0x4 ADD PUSH3 0xAC5 SWAP1 PUSH3 0x12F0 JUMP JUMPDEST PUSH1 0x40 MLOAD DUP1 SWAP2 SUB SWAP1 REVERT JUMPDEST PUSH3 0xAD9 DUP2 PUSH3 0xB61 JUMP JUMPDEST POP JUMP JUMPDEST PUSH3 0xAE6 PUSH3 0xC25 JUMP JUMPDEST PUSH20 0xFFFFFFFFFFFFFFFFFFFFFFFFFFFFFFFFFFFFFFFF AND PUSH3 0xB06 PUSH3 0x717 JUMP JUMPDEST PUSH20 0xFFFFFFFFFFFFFFFFFFFFFFFFFFFFFFFFFFFFFFFF AND EQ PUSH3 0xB5F JUMPI PUSH1 0x40 MLOAD PUSH32 0x8C379A000000000000000000000000000000000000000000000000000000000 DUP2 MSTORE PUSH1 0x4 ADD PUSH3 0xB56 SWAP1 PUSH3 0x1378 JUMP JUMPDEST PUSH1 0x40 MLOAD DUP1 SWAP2 SUB SWAP1 REVERT JUMPDEST JUMP JUMPDEST PUSH1 0x0 DUP1 PUSH1 0x0 SWAP1 SLOAD SWAP1 PUSH2 0x100 EXP SWAP1 DIV PUSH20 0xFFFFFFFFFFFFFFFFFFFFFFFFFFFFFFFFFFFFFFFF AND SWAP1 POP DUP2 PUSH1 0x0 DUP1 PUSH2 0x100 EXP DUP2 SLOAD DUP2 PUSH20 0xFFFFFFFFFFFFFFFFFFFFFFFFFFFFFFFFFFFFFFFF MUL NOT AND SWAP1 DUP4 PUSH20 0xFFFFFFFFFFFFFFFFFFFFFFFFFFFFFFFFFFFFFFFF AND MUL OR SWAP1 SSTORE POP DUP2 PUSH20 0xFFFFFFFFFFFFFFFFFFFFFFFFFFFFFFFFFFFFFFFF AND DUP2 PUSH20 0xFFFFFFFFFFFFFFFFFFFFFFFFFFFFFFFFFFFFFFFF AND PUSH32 0x8BE0079C531659141344CD1FD0A4F28419497F9722A3DAAFE3B4186F6B6457E0 PUSH1 0x40 MLOAD PUSH1 0x40 MLOAD DUP1 SWAP2 SUB SWAP1 LOG3 POP POP JUMP JUMPDEST PUSH1 0x0 CALLER SWAP1 POP SWAP1 JUMP JUMPDEST PUSH2 0xB11 DUP1 PUSH3 0x185A DUP4 CODECOPY ADD SWAP1 JUMP JUMPDEST DUP3 DUP1 SLOAD PUSH3 0xC49 SWAP1 PUSH3 0x15F4 JUMP JUMPDEST SWAP1 PUSH1 0x0 MSTORE PUSH1 0x20 PUSH1 0x0 KECCAK256 SWAP1 PUSH1 0x1F ADD PUSH1 0x20 SWAP1 DIV DUP2 ADD SWAP3 DUP3 PUSH3 0xC6D JUMPI PUSH1 0x0 DUP6 SSTORE PUSH3 0xCB9 JUMP JUMPDEST DUP3 PUSH1 0x1F LT PUSH3 0xC88 JUMPI DUP1 MLOAD PUSH1 0xFF NOT AND DUP4 DUP1 ADD OR DUP6 SSTORE PUSH3 0xCB9 JUMP JUMPDEST DUP3 DUP1 ADD PUSH1 0x1 ADD DUP6 SSTORE DUP3 ISZERO PUSH3 0xCB9 JUMPI SWAP2 DUP3 ADD JUMPDEST DUP3 DUP2 GT ISZERO PUSH3 0xCB8 JUMPI DUP3 MLOAD DUP3 SSTORE SWAP2 PUSH1 0x20 ADD SWAP2 SWAP1 PUSH1 0x1 ADD SWAP1 PUSH3 0xC9B JUMP JUMPDEST JUMPDEST POP SWAP1 POP PUSH3 0xCC8 SWAP2 SWAP1 PUSH3 0xD72 JUMP JUMPDEST POP SWAP1 JUMP JUMPDEST DUP3 DUP1 SLOAD PUSH3 0xCDA SWAP1 PUSH3 0x15F4 JUMP JUMPDEST SWAP1 PUSH1 0x0 MSTORE PUSH1 0x20 PUSH1 0x0 KECCAK256 SWAP1 PUSH1 0x1F ADD PUSH1 0x20 SWAP1 DIV DUP2 ADD SWAP3 DUP3 PUSH3 0xCFE JUMPI PUSH1 0x0 DUP6 SSTORE PUSH3 0xD51 JUMP JUMPDEST DUP3 PUSH1 0x1F LT PUSH3 0xD11 JUMPI DUP1 SLOAD DUP6 SSTORE PUSH3 0xD51 JUMP JUMPDEST DUP3 DUP1 ADD PUSH1 0x1 ADD DUP6 SSTORE DUP3 ISZERO PUSH3 0xD51 JUMPI PUSH1 0x0 MSTORE PUSH1 0x20 PUSH1 0x0 KECCAK256 SWAP2 PUSH1 0x1F ADD PUSH1 0x20 SWAP1 DIV DUP3 ADD JUMPDEST DUP3 DUP2 GT ISZERO PUSH3 0xD50 JUMPI DUP3 SLOAD DUP3 SSTORE SWAP2 PUSH1 0x1 ADD SWAP2 SWAP1 PUSH1 0x1 ADD SWAP1 PUSH3 0xD33 JUMP JUMPDEST JUMPDEST POP SWAP1 POP PUSH3 0xD60 SWAP2 SWAP1 PUSH3 0xD72 JUMP JUMPDEST POP SWAP1 JUMP JUMPDEST PUSH2 0xA5A DUP1 PUSH3 0x236B DUP4 CODECOPY ADD SWAP1 JUMP JUMPDEST JUMPDEST DUP1 DUP3 GT ISZERO PUSH3 0xD8D JUMPI PUSH1 0x0 DUP2 PUSH1 0x0 SWAP1 SSTORE POP PUSH1 0x1 ADD PUSH3 0xD73 JUMP JUMPDEST POP SWAP1 JUMP JUMPDEST PUSH1 0x0 PUSH3 0xDA8 PUSH3 0xDA2 DUP5 PUSH3 0x148B JUMP JUMPDEST PUSH3 0x1462 JUMP JUMPDEST SWAP1 POP DUP3 DUP2 MSTORE PUSH1 0x20 DUP2 ADD DUP5 DUP5 DUP5 ADD GT ISZERO PUSH3 0xDC7 JUMPI PUSH3 0xDC6 PUSH3 0x16C3 JUMP JUMPDEST JUMPDEST PUSH3 0xDD4 DUP5 DUP3 DUP6 PUSH3 0x15AF JUMP JUMPDEST POP SWAP4 SWAP3 POP POP POP JUMP JUMPDEST PUSH1 0x0 DUP2 CALLDATALOAD SWAP1 POP PUSH3 0xDED DUP2 PUSH3 0x1825 JUMP JUMPDEST SWAP3 SWAP2 POP POP JUMP JUMPDEST PUSH1 0x0 DUP2 MLOAD SWAP1 POP PUSH3 0xE04 DUP2 PUSH3 0x1825 JUMP JUMPDEST SWAP3 SWAP2 POP POP JUMP JUMPDEST PUSH1 0x0 DUP3 PUSH1 0x1F DUP4 ADD SLT PUSH3 0xE22 JUMPI PUSH3 0xE21 PUSH3 0x16BE JUMP JUMPDEST JUMPDEST DUP2 CALLDATALOAD PUSH3 0xE34 DUP5 DUP3 PUSH1 0x20 DUP7 ADD PUSH3 0xD91 JUMP JUMPDEST SWAP2 POP POP SWAP3 SWAP2 POP POP JUMP JUMPDEST PUSH1 0x0 DUP2 CALLDATALOAD SWAP1 POP PUSH3 0xE4E DUP2 PUSH3 0x183F JUMP JUMPDEST SWAP3 SWAP2 POP POP JUMP JUMPDEST PUSH1 0x0 PUSH1 0x20 DUP3 DUP5 SUB SLT ISZERO PUSH3 0xE6D JUMPI PUSH3 0xE6C PUSH3 0x16CD JUMP JUMPDEST JUMPDEST PUSH1 0x0 PUSH3 0xE7D DUP5 DUP3 DUP6 ADD PUSH3 0xDDC JUMP JUMPDEST SWAP2 POP POP SWAP3 SWAP2 POP POP JUMP JUMPDEST PUSH1 0x0 PUSH1 0x20 DUP3 DUP5 SUB SLT ISZERO PUSH3 0xE9F JUMPI PUSH3 0xE9E PUSH3 0x16CD JUMP JUMPDEST JUMPDEST PUSH1 0x0 PUSH3 0xEAF DUP5 DUP3 DUP6 ADD PUSH3 0xDF3 JUMP JUMPDEST SWAP2 POP POP SWAP3 SWAP2 POP POP JUMP JUMPDEST PUSH1 0x0 DUP1 PUSH1 0x40 DUP4 DUP6 SUB SLT ISZERO PUSH3 0xED2 JUMPI PUSH3 0xED1 PUSH3 0x16CD JUMP JUMPDEST JUMPDEST PUSH1 0x0 DUP4 ADD CALLDATALOAD PUSH8 0xFFFFFFFFFFFFFFFF DUP2 GT ISZERO PUSH3 0xEF3 JUMPI PUSH3 0xEF2 PUSH3 0x16C8 JUMP JUMPDEST JUMPDEST PUSH3 0xF01 DUP6 DUP3 DUP7 ADD PUSH3 0xE0A JUMP JUMPDEST SWAP3 POP POP PUSH1 0x20 PUSH3 0xF14 DUP6 DUP3 DUP7 ADD PUSH3 0xE3D JUMP JUMPDEST SWAP2 POP POP SWAP3 POP SWAP3 SWAP1 POP JUMP JUMPDEST PUSH1 0x0 PUSH1 0x20 DUP3 DUP5 SUB SLT ISZERO PUSH3 0xF37 JUMPI PUSH3 0xF36 PUSH3 0x16CD JUMP JUMPDEST JUMPDEST PUSH1 0x0 PUSH3 0xF47 DUP5 DUP3 DUP6 ADD PUSH3 0xE3D JUMP JUMPDEST SWAP2 POP POP SWAP3 SWAP2 POP POP JUMP JUMPDEST PUSH1 0x0 DUP1 PUSH1 0x0 DUP1 PUSH1 0x0 PUSH1 0xA0 DUP7 DUP9 SUB SLT ISZERO PUSH3 0xF6F JUMPI PUSH3 0xF6E PUSH3 0x16CD JUMP JUMPDEST JUMPDEST PUSH1 0x0 PUSH3 0xF7F DUP9 DUP3 DUP10 ADD PUSH3 0xE3D JUMP JUMPDEST SWAP6 POP POP PUSH1 0x20 PUSH3 0xF92 DUP9 DUP3 DUP10 ADD PUSH3 0xDDC JUMP JUMPDEST SWAP5 POP POP PUSH1 0x40 DUP7 ADD CALLDATALOAD PUSH8 0xFFFFFFFFFFFFFFFF DUP2 GT ISZERO PUSH3 0xFB6 JUMPI PUSH3 0xFB5 PUSH3 0x16C8 JUMP JUMPDEST JUMPDEST PUSH3 0xFC4 DUP9 DUP3 DUP10 ADD PUSH3 0xE0A JUMP JUMPDEST SWAP4 POP POP PUSH1 0x60 DUP7 ADD CALLDATALOAD PUSH8 0xFFFFFFFFFFFFFFFF DUP2 GT ISZERO PUSH3 0xFE8 JUMPI PUSH3 0xFE7 PUSH3 0x16C8 JUMP JUMPDEST JUMPDEST PUSH3 0xFF6 DUP9 DUP3 DUP10 ADD PUSH3 0xE0A JUMP JUMPDEST SWAP3 POP POP PUSH1 0x80 PUSH3 0x1009 DUP9 DUP3 DUP10 ADD PUSH3 0xE3D JUMP JUMPDEST SWAP2 POP POP SWAP3 SWAP6 POP SWAP3 SWAP6 SWAP1 SWAP4 POP JUMP JUMPDEST PUSH1 0x0 DUP1 PUSH1 0x0 DUP1 PUSH1 0x80 DUP6 DUP8 SUB SLT ISZERO PUSH3 0x1033 JUMPI PUSH3 0x1032 PUSH3 0x16CD JUMP JUMPDEST JUMPDEST PUSH1 0x0 PUSH3 0x1043 DUP8 DUP3 DUP9 ADD PUSH3 0xE3D JUMP JUMPDEST SWAP5 POP POP PUSH1 0x20 PUSH3 0x1056 DUP8 DUP3 DUP9 ADD PUSH3 0xDDC JUMP JUMPDEST SWAP4 POP POP PUSH1 0x40 PUSH3 0x1069 DUP8 DUP3 DUP9 ADD PUSH3 0xE3D JUMP JUMPDEST SWAP3 POP POP PUSH1 0x60 PUSH3 0x107C DUP8 DUP3 DUP9 ADD PUSH3 0xE3D JUMP JUMPDEST SWAP2 POP POP SWAP3 SWAP6 SWAP2 SWAP5 POP SWAP3 POP JUMP JUMPDEST PUSH1 0x0 PUSH3 0x1096 DUP4 DUP4 PUSH3 0x111D JUMP JUMPDEST PUSH1 0x20 DUP4 ADD SWAP1 POP SWAP3 SWAP2 POP POP JUMP JUMPDEST PUSH3 0x10AD DUP2 PUSH3 0x1521 JUMP JUMPDEST DUP3 MSTORE POP POP JUMP JUMPDEST PUSH1 0x0 PUSH3 0x10C0 DUP3 PUSH3 0x14D1 JUMP JUMPDEST PUSH3 0x10CC DUP2 DUP6 PUSH3 0x14F4 JUMP JUMPDEST SWAP4 POP PUSH3 0x10D9 DUP4 PUSH3 0x14C1 JUMP JUMPDEST DUP1 PUSH1 0x0 JUMPDEST DUP4 DUP2 LT ISZERO PUSH3 0x1110 JUMPI DUP2 MLOAD PUSH3 0x10F4 DUP9 DUP3 PUSH3 0x1088 JUMP JUMPDEST SWAP8 POP PUSH3 0x1101 DUP4 PUSH3 0x14E7 JUMP JUMPDEST SWAP3 POP POP PUSH1 0x1 DUP2 ADD SWAP1 POP PUSH3 0x10DD JUMP JUMPDEST POP DUP6 SWAP4 POP POP POP POP SWAP3 SWAP2 POP POP JUMP JUMPDEST PUSH3 0x1128 DUP2 PUSH3 0x155F JUMP JUMPDEST DUP3 MSTORE POP POP JUMP JUMPDEST PUSH3 0x1139 DUP2 PUSH3 0x1573 JUMP JUMPDEST DUP3 MSTORE POP POP JUMP JUMPDEST PUSH1 0x0 PUSH3 0x114C DUP3 PUSH3 0x14DC JUMP JUMPDEST PUSH3 0x1158 DUP2 DUP6 PUSH3 0x1510 JUMP JUMPDEST SWAP4 POP PUSH3 0x116A DUP2 DUP6 PUSH1 0x20 DUP7 ADD PUSH3 0x15BE JUMP JUMPDEST PUSH3 0x1175 DUP2 PUSH3 0x16D2 JUMP JUMPDEST DUP5 ADD SWAP2 POP POP SWAP3 SWAP2 POP POP JUMP JUMPDEST PUSH1 0x0 PUSH3 0x118F PUSH1 0x26 DUP4 PUSH3 0x1510 JUMP JUMPDEST SWAP2 POP PUSH3 0x119C DUP3 PUSH3 0x16E3 JUMP JUMPDEST PUSH1 0x40 DUP3 ADD SWAP1 POP SWAP2 SWAP1 POP JUMP JUMPDEST PUSH1 0x0 PUSH3 0x11B6 PUSH1 0x2B DUP4 PUSH3 0x1510 JUMP JUMPDEST SWAP2 POP PUSH3 0x11C3 DUP3 PUSH3 0x1732 JUMP JUMPDEST PUSH1 0x40 DUP3 ADD SWAP1 POP SWAP2 SWAP1 POP JUMP JUMPDEST PUSH1 0x0 PUSH3 0x11DD PUSH1 0x2A DUP4 PUSH3 0x1510 JUMP JUMPDEST SWAP2 POP PUSH3 0x11EA DUP3 PUSH3 0x1781 JUMP JUMPDEST PUSH1 0x40 DUP3 ADD SWAP1 POP SWAP2 SWAP1 POP JUMP JUMPDEST PUSH1 0x0 PUSH3 0x1204 PUSH1 0x12 DUP4 PUSH3 0x1510 JUMP JUMPDEST SWAP2 POP PUSH3 0x1211 DUP3 PUSH3 0x17D0 JUMP JUMPDEST PUSH1 0x20 DUP3 ADD SWAP1 POP SWAP2 SWAP1 POP JUMP JUMPDEST PUSH1 0x0 PUSH3 0x122B PUSH1 0x20 DUP4 PUSH3 0x1510 JUMP JUMPDEST SWAP2 POP PUSH3 0x1238 DUP3 PUSH3 0x17F9 JUMP JUMPDEST PUSH1 0x20 DUP3 ADD SWAP1 POP SWAP2 SWAP1 POP JUMP JUMPDEST PUSH1 0x0 PUSH3 0x1252 PUSH1 0x0 DUP4 PUSH3 0x1505 JUMP JUMPDEST SWAP2 POP PUSH3 0x125F DUP3 PUSH3 0x1822 JUMP JUMPDEST PUSH1 0x0 DUP3 ADD SWAP1 POP SWAP2 SWAP1 POP JUMP JUMPDEST PUSH3 0x1275 DUP2 PUSH3 0x1555 JUMP JUMPDEST DUP3 MSTORE POP POP JUMP JUMPDEST PUSH1 0x0 PUSH3 0x1288 DUP3 PUSH3 0x1243 JUMP JUMPDEST SWAP2 POP DUP2 SWAP1 POP SWAP2 SWAP1 POP JUMP JUMPDEST PUSH1 0x0 PUSH1 0x20 DUP3 ADD SWAP1 POP PUSH3 0x12A9 PUSH1 0x0 DUP4 ADD DUP5 PUSH3 0x10A2 JUMP JUMPDEST SWAP3 SWAP2 POP POP JUMP JUMPDEST PUSH1 0x0 PUSH1 0x20 DUP3 ADD SWAP1 POP DUP2 DUP2 SUB PUSH1 0x0 DUP4 ADD MSTORE PUSH3 0x12CB DUP2 DUP5 PUSH3 0x10B3 JUMP JUMPDEST SWAP1 POP SWAP3 SWAP2 POP POP JUMP JUMPDEST PUSH1 0x0 PUSH1 0x20 DUP3 ADD SWAP1 POP PUSH3 0x12EA PUSH1 0x0 DUP4 ADD DUP5 PUSH3 0x112E JUMP JUMPDEST SWAP3 SWAP2 POP POP JUMP JUMPDEST PUSH1 0x0 PUSH1 0x20 DUP3 ADD SWAP1 POP DUP2 DUP2 SUB PUSH1 0x0 DUP4 ADD MSTORE PUSH3 0x130B DUP2 PUSH3 0x1180 JUMP JUMPDEST SWAP1 POP SWAP2 SWAP1 POP JUMP JUMPDEST PUSH1 0x0 PUSH1 0x20 DUP3 ADD SWAP1 POP DUP2 DUP2 SUB PUSH1 0x0 DUP4 ADD MSTORE PUSH3 0x132D DUP2 PUSH3 0x11A7 JUMP JUMPDEST SWAP1 POP SWAP2 SWAP1 POP JUMP JUMPDEST PUSH1 0x0 PUSH1 0x20 DUP3 ADD SWAP1 POP DUP2 DUP2 SUB PUSH1 0x0 DUP4 ADD MSTORE PUSH3 0x134F DUP2 PUSH3 0x11CE JUMP JUMPDEST SWAP1 POP SWAP2 SWAP1 POP JUMP JUMPDEST PUSH1 0x0 PUSH1 0x20 DUP3 ADD SWAP1 POP DUP2 DUP2 SUB PUSH1 0x0 DUP4 ADD MSTORE PUSH3 0x1371 DUP2 PUSH3 0x11F5 JUMP JUMPDEST SWAP1 POP SWAP2 SWAP1 POP JUMP JUMPDEST PUSH1 0x0 PUSH1 0x20 DUP3 ADD SWAP1 POP DUP2 DUP2 SUB PUSH1 0x0 DUP4 ADD MSTORE PUSH3 0x1393 DUP2 PUSH3 0x121C JUMP JUMPDEST SWAP1 POP SWAP2 SWAP1 POP JUMP JUMPDEST PUSH1 0x0 PUSH1 0xA0 DUP3 ADD SWAP1 POP PUSH3 0x13B1 PUSH1 0x0 DUP4 ADD DUP9 PUSH3 0x126A JUMP JUMPDEST PUSH3 0x13C0 PUSH1 0x20 DUP4 ADD DUP8 PUSH3 0x10A2 JUMP JUMPDEST DUP2 DUP2 SUB PUSH1 0x40 DUP4 ADD MSTORE PUSH3 0x13D4 DUP2 DUP7 PUSH3 0x113F JUMP JUMPDEST SWAP1 POP DUP2 DUP2 SUB PUSH1 0x60 DUP4 ADD MSTORE PUSH3 0x13EA DUP2 DUP6 PUSH3 0x113F JUMP JUMPDEST SWAP1 POP PUSH3 0x13FB PUSH1 0x80 DUP4 ADD DUP5 PUSH3 0x126A JUMP JUMPDEST SWAP7 SWAP6 POP POP POP POP POP POP JUMP JUMPDEST PUSH1 0x0 PUSH1 0xA0 DUP3 ADD SWAP1 POP PUSH3 0x141C PUSH1 0x0 DUP4 ADD DUP9 PUSH3 0x126A JUMP JUMPDEST PUSH3 0x142B PUSH1 0x20 DUP4 ADD DUP8 PUSH3 0x10A2 JUMP JUMPDEST PUSH3 0x143A PUSH1 0x40 DUP4 ADD DUP7 PUSH3 0x126A JUMP JUMPDEST PUSH3 0x1449 PUSH1 0x60 DUP4 ADD DUP6 PUSH3 0x126A JUMP JUMPDEST PUSH3 0x1458 PUSH1 0x80 DUP4 ADD DUP5 PUSH3 0x10A2 JUMP JUMPDEST SWAP7 SWAP6 POP POP POP POP POP POP JUMP JUMPDEST PUSH1 0x0 PUSH3 0x146E PUSH3 0x1481 JUMP JUMPDEST SWAP1 POP PUSH3 0x147C DUP3 DUP3 PUSH3 0x162A JUMP JUMPDEST SWAP2 SWAP1 POP JUMP JUMPDEST PUSH1 0x0 PUSH1 0x40 MLOAD SWAP1 POP SWAP1 JUMP JUMPDEST PUSH1 0x0 PUSH8 0xFFFFFFFFFFFFFFFF DUP3 GT ISZERO PUSH3 0x14A9 JUMPI PUSH3 0x14A8 PUSH3 0x168F JUMP JUMPDEST JUMPDEST PUSH3 0x14B4 DUP3 PUSH3 0x16D2 JUMP JUMPDEST SWAP1 POP PUSH1 0x20 DUP2 ADD SWAP1 POP SWAP2 SWAP1 POP JUMP JUMPDEST PUSH1 0x0 DUP2 SWAP1 POP PUSH1 0x20 DUP3 ADD SWAP1 POP SWAP2 SWAP1 POP JUMP JUMPDEST PUSH1 0x0 DUP2 MLOAD SWAP1 POP SWAP2 SWAP1 POP JUMP JUMPDEST PUSH1 0x0 DUP2 MLOAD SWAP1 POP SWAP2 SWAP1 POP JUMP JUMPDEST PUSH1 0x0 PUSH1 0x20 DUP3 ADD SWAP1 POP SWAP2 SWAP1 POP JUMP JUMPDEST PUSH1 0x0 DUP3 DUP3 MSTORE PUSH1 0x20 DUP3 ADD SWAP1 POP SWAP3 SWAP2 POP POP JUMP JUMPDEST PUSH1 0x0 DUP2 SWAP1 POP SWAP3 SWAP2 POP POP JUMP JUMPDEST PUSH1 0x0 DUP3 DUP3 MSTORE PUSH1 0x20 DUP3 ADD SWAP1 POP SWAP3 SWAP2 POP POP JUMP JUMPDEST PUSH1 0x0 PUSH3 0x152E DUP3 PUSH3 0x1535 JUMP JUMPDEST SWAP1 POP SWAP2 SWAP1 POP JUMP JUMPDEST PUSH1 0x0 PUSH20 0xFFFFFFFFFFFFFFFFFFFFFFFFFFFFFFFFFFFFFFFF DUP3 AND SWAP1 POP SWAP2 SWAP1 POP JUMP JUMPDEST PUSH1 0x0 DUP2 SWAP1 POP SWAP2 SWAP1 POP JUMP JUMPDEST PUSH1 0x0 PUSH3 0x156C DUP3 PUSH3 0x1587 JUMP JUMPDEST SWAP1 POP SWAP2 SWAP1 POP JUMP JUMPDEST PUSH1 0x0 PUSH3 0x1580 DUP3 PUSH3 0x1555 JUMP JUMPDEST SWAP1 POP SWAP2 SWAP1 POP JUMP JUMPDEST PUSH1 0x0 PUSH3 0x1594 DUP3 PUSH3 0x159B JUMP JUMPDEST SWAP1 POP SWAP2 SWAP1 POP JUMP JUMPDEST PUSH1 0x0 PUSH3 0x15A8 DUP3 PUSH3 0x1535 JUMP JUMPDEST SWAP1 POP SWAP2 SWAP1 POP JUMP JUMPDEST DUP3 DUP2 DUP4 CALLDATACOPY PUSH1 0x0 DUP4 DUP4 ADD MSTORE POP POP POP JUMP JUMPDEST PUSH1 0x0 JUMPDEST DUP4 DUP2 LT ISZERO PUSH3 0x15DE JUMPI DUP1 DUP3 ADD MLOAD DUP2 DUP5 ADD MSTORE PUSH1 0x20 DUP2 ADD SWAP1 POP PUSH3 0x15C1 JUMP JUMPDEST DUP4 DUP2 GT ISZERO PUSH3 0x15EE JUMPI PUSH1 0x0 DUP5 DUP5 ADD MSTORE JUMPDEST POP POP POP POP JUMP JUMPDEST PUSH1 0x0 PUSH1 0x2 DUP3 DIV SWAP1 POP PUSH1 0x1 DUP3 AND DUP1 PUSH3 0x160D JUMPI PUSH1 0x7F DUP3 AND SWAP2 POP JUMPDEST PUSH1 0x20 DUP3 LT DUP2 EQ ISZERO PUSH3 0x1624 JUMPI PUSH3 0x1623 PUSH3 0x1660 JUMP JUMPDEST JUMPDEST POP SWAP2 SWAP1 POP JUMP JUMPDEST PUSH3 0x1635 DUP3 PUSH3 0x16D2 JUMP JUMPDEST DUP2 ADD DUP2 DUP2 LT PUSH8 0xFFFFFFFFFFFFFFFF DUP3 GT OR ISZERO PUSH3 0x1657 JUMPI PUSH3 0x1656 PUSH3 0x168F JUMP JUMPDEST JUMPDEST DUP1 PUSH1 0x40 MSTORE POP POP POP JUMP JUMPDEST PUSH32 0x4E487B7100000000000000000000000000000000000000000000000000000000 PUSH1 0x0 MSTORE PUSH1 0x22 PUSH1 0x4 MSTORE PUSH1 0x24 PUSH1 0x0 REVERT JUMPDEST PUSH32 0x4E487B7100000000000000000000000000000000000000000000000000000000 PUSH1 0x0 MSTORE PUSH1 0x41 PUSH1 0x4 MSTORE PUSH1 0x24 PUSH1 0x0 REVERT JUMPDEST PUSH1 0x0 DUP1 REVERT JUMPDEST PUSH1 0x0 DUP1 REVERT JUMPDEST PUSH1 0x0 DUP1 REVERT JUMPDEST PUSH1 0x0 DUP1 REVERT JUMPDEST PUSH1 0x0 PUSH1 0x1F NOT PUSH1 0x1F DUP4 ADD AND SWAP1 POP SWAP2 SWAP1 POP JUMP JUMPDEST PUSH32 0x4F776E61626C653A206E6577206F776E657220697320746865207A65726F2061 PUSH1 0x0 DUP3 ADD MSTORE PUSH32 0x6464726573730000000000000000000000000000000000000000000000000000 PUSH1 0x20 DUP3 ADD MSTORE POP JUMP JUMPDEST PUSH32 0x4465706F736974206661696C65642E2054727920616761696E20696E20736F6D PUSH1 0x0 DUP3 ADD MSTORE PUSH32 0x65206D6D696E757465732E000000000000000000000000000000000000000000 PUSH1 0x20 DUP3 ADD MSTORE POP JUMP JUMPDEST PUSH32 0x4465706F736974206661696C65642E2054727920616761696E20696E20736F6D PUSH1 0x0 DUP3 ADD MSTORE PUSH32 0x65206D696E757465732E00000000000000000000000000000000000000000000 PUSH1 0x20 DUP3 ADD MSTORE POP JUMP JUMPDEST PUSH32 0x496E73756666696369656E742066756E64730000000000000000000000000000 PUSH1 0x0 DUP3 ADD MSTORE POP JUMP JUMPDEST PUSH32 0x4F776E61626C653A2063616C6C6572206973206E6F7420746865206F776E6572 PUSH1 0x0 DUP3 ADD MSTORE POP JUMP JUMPDEST POP JUMP JUMPDEST PUSH3 0x1830 DUP2 PUSH3 0x1521 JUMP JUMPDEST DUP2 EQ PUSH3 0x183C JUMPI PUSH1 0x0 DUP1 REVERT JUMPDEST POP JUMP JUMPDEST PUSH3 0x184A DUP2 PUSH3 0x1555 JUMP JUMPDEST DUP2 EQ PUSH3 0x1856 JUMPI PUSH1 0x0 DUP1 REVERT JUMPDEST POP JUMP INVALID PUSH1 0x80 PUSH1 0x40 MSTORE CALLVALUE DUP1 ISZERO PUSH3 0x11 JUMPI PUSH1 0x0 DUP1 REVERT JUMPDEST POP PUSH1 0x40 MLOAD PUSH3 0xB11 CODESIZE SUB DUP1 PUSH3 0xB11 DUP4 CODECOPY DUP2 DUP2 ADD PUSH1 0x40 MSTORE DUP2 ADD SWAP1 PUSH3 0x37 SWAP2 SWAP1 PUSH3 0x23D JUMP JUMPDEST DUP5 DUP5 DUP2 PUSH1 0x0 DUP2 SWAP1 SSTORE POP DUP1 PUSH1 0x1 PUSH1 0x0 PUSH2 0x100 EXP DUP2 SLOAD DUP2 PUSH20 0xFFFFFFFFFFFFFFFFFFFFFFFFFFFFFFFFFFFFFFFF MUL NOT AND SWAP1 DUP4 PUSH20 0xFFFFFFFFFFFFFFFFFFFFFFFFFFFFFFFFFFFFFFFF AND MUL OR SWAP1 SSTORE POP POP POP DUP3 PUSH1 0x2 SWAP1 DUP1 MLOAD SWAP1 PUSH1 0x20 ADD SWAP1 PUSH3 0x9B SWAP3 SWAP2 SWAP1 PUSH3 0xE1 JUMP JUMPDEST POP DUP2 PUSH1 0x3 SWAP1 DUP1 MLOAD SWAP1 PUSH1 0x20 ADD SWAP1 PUSH3 0xB4 SWAP3 SWAP2 SWAP1 PUSH3 0xE1 JUMP JUMPDEST POP DUP1 PUSH1 0x4 DUP2 SWAP1 SSTORE POP PUSH1 0x4 SLOAD PUSH1 0x5 PUSH1 0x0 DUP8 DUP2 MSTORE PUSH1 0x20 ADD SWAP1 DUP2 MSTORE PUSH1 0x20 ADD PUSH1 0x0 KECCAK256 DUP2 SWAP1 SSTORE POP POP POP POP POP POP PUSH3 0x4F9 JUMP JUMPDEST DUP3 DUP1 SLOAD PUSH3 0xEF SWAP1 PUSH3 0x3D6 JUMP JUMPDEST SWAP1 PUSH1 0x0 MSTORE PUSH1 0x20 PUSH1 0x0 KECCAK256 SWAP1 PUSH1 0x1F ADD PUSH1 0x20 SWAP1 DIV DUP2 ADD SWAP3 DUP3 PUSH3 0x113 JUMPI PUSH1 0x0 DUP6 SSTORE PUSH3 0x15F JUMP JUMPDEST DUP3 PUSH1 0x1F LT PUSH3 0x12E JUMPI DUP1 MLOAD PUSH1 0xFF NOT AND DUP4 DUP1 ADD OR DUP6 SSTORE PUSH3 0x15F JUMP JUMPDEST DUP3 DUP1 ADD PUSH1 0x1 ADD DUP6 SSTORE DUP3 ISZERO PUSH3 0x15F JUMPI SWAP2 DUP3 ADD JUMPDEST DUP3 DUP2 GT ISZERO PUSH3 0x15E JUMPI DUP3 MLOAD DUP3 SSTORE SWAP2 PUSH1 0x20 ADD SWAP2 SWAP1 PUSH1 0x1 ADD SWAP1 PUSH3 0x141 JUMP JUMPDEST JUMPDEST POP SWAP1 POP PUSH3 0x16E SWAP2 SWAP1 PUSH3 0x172 JUMP JUMPDEST POP SWAP1 JUMP JUMPDEST JUMPDEST DUP1 DUP3 GT ISZERO PUSH3 0x18D JUMPI PUSH1 0x0 DUP2 PUSH1 0x0 SWAP1 SSTORE POP PUSH1 0x1 ADD PUSH3 0x173 JUMP JUMPDEST POP SWAP1 JUMP JUMPDEST PUSH1 0x0 PUSH3 0x1A8 PUSH3 0x1A2 DUP5 PUSH3 0x32C JUMP JUMPDEST PUSH3 0x303 JUMP JUMPDEST SWAP1 POP DUP3 DUP2 MSTORE PUSH1 0x20 DUP2 ADD DUP5 DUP5 DUP5 ADD GT ISZERO PUSH3 0x1C7 JUMPI PUSH3 0x1C6 PUSH3 0x4A5 JUMP JUMPDEST JUMPDEST PUSH3 0x1D4 DUP5 DUP3 DUP6 PUSH3 0x3A0 JUMP JUMPDEST POP SWAP4 SWAP3 POP POP POP JUMP JUMPDEST PUSH1 0x0 DUP2 MLOAD SWAP1 POP PUSH3 0x1ED DUP2 PUSH3 0x4C5 JUMP JUMPDEST SWAP3 SWAP2 POP POP JUMP JUMPDEST PUSH1 0x0 DUP3 PUSH1 0x1F DUP4 ADD SLT PUSH3 0x20B JUMPI PUSH3 0x20A PUSH3 0x4A0 JUMP JUMPDEST JUMPDEST DUP2 MLOAD PUSH3 0x21D DUP5 DUP3 PUSH1 0x20 DUP7 ADD PUSH3 0x191 JUMP JUMPDEST SWAP2 POP POP SWAP3 SWAP2 POP POP JUMP JUMPDEST PUSH1 0x0 DUP2 MLOAD SWAP1 POP PUSH3 0x237 DUP2 PUSH3 0x4DF JUMP JUMPDEST SWAP3 SWAP2 POP POP JUMP JUMPDEST PUSH1 0x0 DUP1 PUSH1 0x0 DUP1 PUSH1 0x0 PUSH1 0xA0 DUP7 DUP9 SUB SLT ISZERO PUSH3 0x25C JUMPI PUSH3 0x25B PUSH3 0x4AF JUMP JUMPDEST JUMPDEST PUSH1 0x0 PUSH3 0x26C DUP9 DUP3 DUP10 ADD PUSH3 0x226 JUMP JUMPDEST SWAP6 POP POP PUSH1 0x20 PUSH3 0x27F DUP9 DUP3 DUP10 ADD PUSH3 0x1DC JUMP JUMPDEST SWAP5 POP POP PUSH1 0x40 DUP7 ADD MLOAD PUSH8 0xFFFFFFFFFFFFFFFF DUP2 GT ISZERO PUSH3 0x2A3 JUMPI PUSH3 0x2A2 PUSH3 0x4AA JUMP JUMPDEST JUMPDEST PUSH3 0x2B1 DUP9 DUP3 DUP10 ADD PUSH3 0x1F3 JUMP JUMPDEST SWAP4 POP POP PUSH1 0x60 DUP7 ADD MLOAD PUSH8 0xFFFFFFFFFFFFFFFF DUP2 GT ISZERO PUSH3 0x2D5 JUMPI PUSH3 0x2D4 PUSH3 0x4AA JUMP JUMPDEST JUMPDEST PUSH3 0x2E3 DUP9 DUP3 DUP10 ADD PUSH3 0x1F3 JUMP JUMPDEST SWAP3 POP POP PUSH1 0x80 PUSH3 0x2F6 DUP9 DUP3 DUP10 ADD PUSH3 0x226 JUMP JUMPDEST SWAP2 POP POP SWAP3 SWAP6 POP SWAP3 SWAP6 SWAP1 SWAP4 POP JUMP JUMPDEST PUSH1 0x0 PUSH3 0x30F PUSH3 0x322 JUMP JUMPDEST SWAP1 POP PUSH3 0x31D DUP3 DUP3 PUSH3 0x40C JUMP JUMPDEST SWAP2 SWAP1 POP JUMP JUMPDEST PUSH1 0x0 PUSH1 0x40 MLOAD SWAP1 POP SWAP1 JUMP JUMPDEST PUSH1 0x0 PUSH8 0xFFFFFFFFFFFFFFFF DUP3 GT ISZERO PUSH3 0x34A JUMPI PUSH3 0x349 PUSH3 0x471 JUMP JUMPDEST JUMPDEST PUSH3 0x355 DUP3 PUSH3 0x4B4 JUMP JUMPDEST SWAP1 POP PUSH1 0x20 DUP2 ADD SWAP1 POP SWAP2 SWAP1 POP JUMP JUMPDEST PUSH1 0x0 PUSH3 0x36F DUP3 PUSH3 0x376 JUMP JUMPDEST SWAP1 POP SWAP2 SWAP1 POP JUMP JUMPDEST PUSH1 0x0 PUSH20 0xFFFFFFFFFFFFFFFFFFFFFFFFFFFFFFFFFFFFFFFF DUP3 AND SWAP1 POP SWAP2 SWAP1 POP JUMP JUMPDEST PUSH1 0x0 DUP2 SWAP1 POP SWAP2 SWAP1 POP JUMP JUMPDEST PUSH1 0x0 JUMPDEST DUP4 DUP2 LT ISZERO PUSH3 0x3C0 JUMPI DUP1 DUP3 ADD MLOAD DUP2 DUP5 ADD MSTORE PUSH1 0x20 DUP2 ADD SWAP1 POP PUSH3 0x3A3 JUMP JUMPDEST DUP4 DUP2 GT ISZERO PUSH3 0x3D0 JUMPI PUSH1 0x0 DUP5 DUP5 ADD MSTORE JUMPDEST POP POP POP POP JUMP JUMPDEST PUSH1 0x0 PUSH1 0x2 DUP3 DIV SWAP1 POP PUSH1 0x1 DUP3 AND DUP1 PUSH3 0x3EF JUMPI PUSH1 0x7F DUP3 AND SWAP2 POP JUMPDEST PUSH1 0x20 DUP3 LT DUP2 EQ ISZERO PUSH3 0x406 JUMPI PUSH3 0x405 PUSH3 0x442 JUMP JUMPDEST JUMPDEST POP SWAP2 SWAP1 POP JUMP JUMPDEST PUSH3 0x417 DUP3 PUSH3 0x4B4 JUMP JUMPDEST DUP2 ADD DUP2 DUP2 LT PUSH8 0xFFFFFFFFFFFFFFFF DUP3 GT OR ISZERO PUSH3 0x439 JUMPI PUSH3 0x438 PUSH3 0x471 JUMP JUMPDEST JUMPDEST DUP1 PUSH1 0x40 MSTORE POP POP POP JUMP JUMPDEST PUSH32 0x4E487B7100000000000000000000000000000000000000000000000000000000 PUSH1 0x0 MSTORE PUSH1 0x22 PUSH1 0x4 MSTORE PUSH1 0x24 PUSH1 0x0 REVERT JUMPDEST PUSH32 0x4E487B7100000000000000000000000000000000000000000000000000000000 PUSH1 0x0 MSTORE PUSH1 0x41 PUSH1 0x4 MSTORE PUSH1 0x24 PUSH1 0x0 REVERT JUMPDEST PUSH1 0x0 DUP1 REVERT JUMPDEST PUSH1 0x0 DUP1 REVERT JUMPDEST PUSH1 0x0 DUP1 REVERT JUMPDEST PUSH1 0x0 DUP1 REVERT JUMPDEST PUSH1 0x0 PUSH1 0x1F NOT PUSH1 0x1F DUP4 ADD AND SWAP1 POP SWAP2 SWAP1 POP JUMP JUMPDEST PUSH3 0x4D0 DUP2 PUSH3 0x362 JUMP JUMPDEST DUP2 EQ PUSH3 0x4DC JUMPI PUSH1 0x0 DUP1 REVERT JUMPDEST POP JUMP JUMPDEST PUSH3 0x4EA DUP2 PUSH3 0x396 JUMP JUMPDEST DUP2 EQ PUSH3 0x4F6 JUMPI PUSH1 0x0 DUP1 REVERT JUMPDEST POP JUMP JUMPDEST PUSH2 0x608 DUP1 PUSH3 0x509 PUSH1 0x0 CODECOPY PUSH1 0x0 RETURN INVALID PUSH1 0x80 PUSH1 0x40 MSTORE PUSH1 0x4 CALLDATASIZE LT PUSH2 0x4E JUMPI PUSH1 0x0 CALLDATALOAD PUSH1 0xE0 SHR DUP1 PUSH4 0x38CC4831 EQ PUSH2 0xCD JUMPI DUP1 PUSH4 0x80BFACC2 EQ PUSH2 0xF8 JUMPI DUP1 PUSH4 0x835FC6CA EQ PUSH2 0x135 JUMPI DUP1 PUSH4 0xAF640D0F EQ PUSH2 0x15E JUMPI DUP1 PUSH4 0xF2BCD022 EQ PUSH2 0x189 JUMPI PUSH2 0x90 JUMP JUMPDEST CALLDATASIZE PUSH2 0x90 JUMPI PUSH32 0x2D27851832FCAC28A0D4AF1344F01FED7FFCFD15171C14C564A0C42AA57AE5C0 CALLVALUE ADDRESS SELFBALANCE PUSH1 0x40 MLOAD PUSH2 0x86 SWAP4 SWAP3 SWAP2 SWAP1 PUSH2 0x4AC JUMP JUMPDEST PUSH1 0x40 MLOAD DUP1 SWAP2 SUB SWAP1 LOG1 STOP JUMPDEST PUSH32 0x2D27851832FCAC28A0D4AF1344F01FED7FFCFD15171C14C564A0C42AA57AE5C0 CALLVALUE ADDRESS SELFBALANCE PUSH1 0x40 MLOAD PUSH2 0xC3 SWAP4 SWAP3 SWAP2 SWAP1 PUSH2 0x4AC JUMP JUMPDEST PUSH1 0x40 MLOAD DUP1 SWAP2 SUB SWAP1 LOG1 STOP JUMPDEST CALLVALUE DUP1 ISZERO PUSH2 0xD9 JUMPI PUSH1 0x0 DUP1 REVERT JUMPDEST POP PUSH2 0xE2 PUSH2 0x1B4 JUMP JUMPDEST PUSH1 0x40 MLOAD PUSH2 0xEF SWAP2 SWAP1 PUSH2 0x436 JUMP JUMPDEST PUSH1 0x40 MLOAD DUP1 SWAP2 SUB SWAP1 RETURN JUMPDEST CALLVALUE DUP1 ISZERO PUSH2 0x104 JUMPI PUSH1 0x0 DUP1 REVERT JUMPDEST POP PUSH2 0x11F PUSH1 0x4 DUP1 CALLDATASIZE SUB DUP2 ADD SWAP1 PUSH2 0x11A SWAP2 SWAP1 PUSH2 0x36D JUMP JUMPDEST PUSH2 0x1BC JUMP JUMPDEST PUSH1 0x40 MLOAD PUSH2 0x12C SWAP2 SWAP1 PUSH2 0x491 JUMP JUMPDEST PUSH1 0x40 MLOAD DUP1 SWAP2 SUB SWAP1 RETURN JUMPDEST CALLVALUE DUP1 ISZERO PUSH2 0x141 JUMPI PUSH1 0x0 DUP1 REVERT JUMPDEST POP PUSH2 0x15C PUSH1 0x4 DUP1 CALLDATASIZE SUB DUP2 ADD SWAP1 PUSH2 0x157 SWAP2 SWAP1 PUSH2 0x36D JUMP JUMPDEST PUSH2 0x1D9 JUMP JUMPDEST STOP JUMPDEST CALLVALUE DUP1 ISZERO PUSH2 0x16A JUMPI PUSH1 0x0 DUP1 REVERT JUMPDEST POP PUSH2 0x173 PUSH2 0x32C JUMP JUMPDEST PUSH1 0x40 MLOAD PUSH2 0x180 SWAP2 SWAP1 PUSH2 0x491 JUMP JUMPDEST PUSH1 0x40 MLOAD DUP1 SWAP2 SUB SWAP1 RETURN JUMPDEST CALLVALUE DUP1 ISZERO PUSH2 0x195 JUMPI PUSH1 0x0 DUP1 REVERT JUMPDEST POP PUSH2 0x19E PUSH2 0x332 JUMP JUMPDEST PUSH1 0x40 MLOAD PUSH2 0x1AB SWAP2 SWAP1 PUSH2 0x436 JUMP JUMPDEST PUSH1 0x40 MLOAD DUP1 SWAP2 SUB SWAP1 RETURN JUMPDEST PUSH1 0x0 ADDRESS SWAP1 POP SWAP1 JUMP JUMPDEST PUSH1 0x0 PUSH1 0x5 PUSH1 0x0 DUP4 DUP2 MSTORE PUSH1 0x20 ADD SWAP1 DUP2 MSTORE PUSH1 0x20 ADD PUSH1 0x0 KECCAK256 SLOAD SWAP1 POP SWAP2 SWAP1 POP JUMP JUMPDEST DUP1 SELFBALANCE LT ISZERO PUSH2 0x21C JUMPI PUSH1 0x40 MLOAD PUSH32 0x8C379A000000000000000000000000000000000000000000000000000000000 DUP2 MSTORE PUSH1 0x4 ADD PUSH2 0x213 SWAP1 PUSH2 0x451 JUMP JUMPDEST PUSH1 0x40 MLOAD DUP1 SWAP2 SUB SWAP1 REVERT JUMPDEST PUSH1 0x0 PUSH1 0x1 PUSH1 0x0 SWAP1 SLOAD SWAP1 PUSH2 0x100 EXP SWAP1 DIV PUSH20 0xFFFFFFFFFFFFFFFFFFFFFFFFFFFFFFFFFFFFFFFF AND PUSH20 0xFFFFFFFFFFFFFFFFFFFFFFFFFFFFFFFFFFFFFFFF AND DUP3 PUSH1 0x40 MLOAD PUSH2 0x264 SWAP1 PUSH2 0x421 JUMP JUMPDEST PUSH1 0x0 PUSH1 0x40 MLOAD DUP1 DUP4 SUB DUP2 DUP6 DUP8 GAS CALL SWAP3 POP POP POP RETURNDATASIZE DUP1 PUSH1 0x0 DUP2 EQ PUSH2 0x2A1 JUMPI PUSH1 0x40 MLOAD SWAP2 POP PUSH1 0x1F NOT PUSH1 0x3F RETURNDATASIZE ADD AND DUP3 ADD PUSH1 0x40 MSTORE RETURNDATASIZE DUP3 MSTORE RETURNDATASIZE PUSH1 0x0 PUSH1 0x20 DUP5 ADD RETURNDATACOPY PUSH2 0x2A6 JUMP JUMPDEST PUSH1 0x60 SWAP2 POP JUMPDEST POP POP SWAP1 POP PUSH1 0x1 ISZERO ISZERO DUP2 ISZERO ISZERO EQ PUSH2 0x2F1 JUMPI PUSH1 0x40 MLOAD PUSH32 0x8C379A000000000000000000000000000000000000000000000000000000000 DUP2 MSTORE PUSH1 0x4 ADD PUSH2 0x2E8 SWAP1 PUSH2 0x471 JUMP JUMPDEST PUSH1 0x40 MLOAD DUP1 SWAP2 SUB SWAP1 REVERT JUMPDEST PUSH32 0x794032702377D1E7EB93381E2467D569394569207A770AF85B3222A361126C91 SELFBALANCE PUSH1 0x40 MLOAD PUSH2 0x320 SWAP2 SWAP1 PUSH2 0x491 JUMP JUMPDEST PUSH1 0x40 MLOAD DUP1 SWAP2 SUB SWAP1 LOG1 POP POP JUMP JUMPDEST PUSH1 0x0 SLOAD DUP2 JUMP JUMPDEST PUSH1 0x1 PUSH1 0x0 SWAP1 SLOAD SWAP1 PUSH2 0x100 EXP SWAP1 DIV PUSH20 0xFFFFFFFFFFFFFFFFFFFFFFFFFFFFFFFFFFFFFFFF AND DUP2 JUMP JUMPDEST PUSH1 0x0 DUP2 CALLDATALOAD SWAP1 POP PUSH2 0x367 DUP2 PUSH2 0x5BB JUMP JUMPDEST SWAP3 SWAP2 POP POP JUMP JUMPDEST PUSH1 0x0 PUSH1 0x20 DUP3 DUP5 SUB SLT ISZERO PUSH2 0x383 JUMPI PUSH2 0x382 PUSH2 0x53B JUMP JUMPDEST JUMPDEST PUSH1 0x0 PUSH2 0x391 DUP5 DUP3 DUP6 ADD PUSH2 0x358 JUMP JUMPDEST SWAP2 POP POP SWAP3 SWAP2 POP POP JUMP JUMPDEST PUSH2 0x3A3 DUP2 PUSH2 0x4FF JUMP JUMPDEST DUP3 MSTORE POP POP JUMP JUMPDEST PUSH1 0x0 PUSH2 0x3B6 PUSH1 0x18 DUP4 PUSH2 0x4EE JUMP JUMPDEST SWAP2 POP PUSH2 0x3C1 DUP3 PUSH2 0x540 JUMP JUMPDEST PUSH1 0x20 DUP3 ADD SWAP1 POP SWAP2 SWAP1 POP JUMP JUMPDEST PUSH1 0x0 PUSH2 0x3D9 PUSH1 0x0 DUP4 PUSH2 0x4E3 JUMP JUMPDEST SWAP2 POP PUSH2 0x3E4 DUP3 PUSH2 0x569 JUMP JUMPDEST PUSH1 0x0 DUP3 ADD SWAP1 POP SWAP2 SWAP1 POP JUMP JUMPDEST PUSH1 0x0 PUSH2 0x3FC PUSH1 0x2D DUP4 PUSH2 0x4EE JUMP JUMPDEST SWAP2 POP PUSH2 0x407 DUP3 PUSH2 0x56C JUMP JUMPDEST PUSH1 0x40 DUP3 ADD SWAP1 POP SWAP2 SWAP1 POP JUMP JUMPDEST PUSH2 0x41B DUP2 PUSH2 0x531 JUMP JUMPDEST DUP3 MSTORE POP POP JUMP JUMPDEST PUSH1 0x0 PUSH2 0x42C DUP3 PUSH2 0x3CC JUMP JUMPDEST SWAP2 POP DUP2 SWAP1 POP SWAP2 SWAP1 POP JUMP JUMPDEST PUSH1 0x0 PUSH1 0x20 DUP3 ADD SWAP1 POP PUSH2 0x44B PUSH1 0x0 DUP4 ADD DUP5 PUSH2 0x39A JUMP JUMPDEST SWAP3 SWAP2 POP POP JUMP JUMPDEST PUSH1 0x0 PUSH1 0x20 DUP3 ADD SWAP1 POP DUP2 DUP2 SUB PUSH1 0x0 DUP4 ADD MSTORE PUSH2 0x46A DUP2 PUSH2 0x3A9 JUMP JUMPDEST SWAP1 POP SWAP2 SWAP1 POP JUMP JUMPDEST PUSH1 0x0 PUSH1 0x20 DUP3 ADD SWAP1 POP DUP2 DUP2 SUB PUSH1 0x0 DUP4 ADD MSTORE PUSH2 0x48A DUP2 PUSH2 0x3EF JUMP JUMPDEST SWAP1 POP SWAP2 SWAP1 POP JUMP JUMPDEST PUSH1 0x0 PUSH1 0x20 DUP3 ADD SWAP1 POP PUSH2 0x4A6 PUSH1 0x0 DUP4 ADD DUP5 PUSH2 0x412 JUMP JUMPDEST SWAP3 SWAP2 POP POP JUMP JUMPDEST PUSH1 0x0 PUSH1 0x60 DUP3 ADD SWAP1 POP PUSH2 0x4C1 PUSH1 0x0 DUP4 ADD DUP7 PUSH2 0x412 JUMP JUMPDEST PUSH2 0x4CE PUSH1 0x20 DUP4 ADD DUP6 PUSH2 0x39A JUMP JUMPDEST PUSH2 0x4DB PUSH1 0x40 DUP4 ADD DUP5 PUSH2 0x412 JUMP JUMPDEST SWAP5 SWAP4 POP POP POP POP JUMP JUMPDEST PUSH1 0x0 DUP2 SWAP1 POP SWAP3 SWAP2 POP POP JUMP JUMPDEST PUSH1 0x0 DUP3 DUP3 MSTORE PUSH1 0x20 DUP3 ADD SWAP1 POP SWAP3 SWAP2 POP POP JUMP JUMPDEST PUSH1 0x0 PUSH2 0x50A DUP3 PUSH2 0x511 JUMP JUMPDEST SWAP1 POP SWAP2 SWAP1 POP JUMP JUMPDEST PUSH1 0x0 PUSH20 0xFFFFFFFFFFFFFFFFFFFFFFFFFFFFFFFFFFFFFFFF DUP3 AND SWAP1 POP SWAP2 SWAP1 POP JUMP JUMPDEST PUSH1 0x0 DUP2 SWAP1 POP SWAP2 SWAP1 POP JUMP JUMPDEST PUSH1 0x0 DUP1 REVERT JUMPDEST PUSH32 0x557365723A20496E73756666696369656E742066756E64730000000000000000 PUSH1 0x0 DUP3 ADD MSTORE POP JUMP JUMPDEST POP JUMP JUMPDEST PUSH32 0x5769746864726177616C206661696C65642E2054727920616761696E20696E20 PUSH1 0x0 DUP3 ADD MSTORE PUSH32 0x736F6D65206D696E757465732E00000000000000000000000000000000000000 PUSH1 0x20 DUP3 ADD MSTORE POP JUMP JUMPDEST PUSH2 0x5C4 DUP2 PUSH2 0x531 JUMP JUMPDEST DUP2 EQ PUSH2 0x5CF JUMPI PUSH1 0x0 DUP1 REVERT JUMPDEST POP JUMP INVALID LOG2 PUSH5 0x6970667358 0x22 SLT KECCAK256 PUSH12 0x50D0E92213542657EFBC28C9 PUSH8 0xC689B85F64FCECB2 0xC9 0x1E 0xB6 OR PUSH6 0x30FE9A2D564 PUSH20 0x6F6C634300080700336080604052604051610A5A CODESIZE SUB DUP1 PUSH2 0xA5A DUP4 CODECOPY DUP2 DUP2 ADD PUSH1 0x40 MSTORE DUP2 ADD SWAP1 PUSH2 0x25 SWAP2 SWAP1 PUSH2 0xF4 JUMP JUMPDEST DUP5 DUP5 DUP2 PUSH1 0x0 DUP2 SWAP1 SSTORE POP DUP1 PUSH1 0x1 PUSH1 0x0 PUSH2 0x100 EXP DUP2 SLOAD DUP2 PUSH20 0xFFFFFFFFFFFFFFFFFFFFFFFFFFFFFFFFFFFFFFFF MUL NOT AND SWAP1 DUP4 PUSH20 0xFFFFFFFFFFFFFFFFFFFFFFFFFFFFFFFFFFFFFFFF AND MUL OR SWAP1 SSTORE POP POP POP DUP3 PUSH1 0x2 DUP2 SWAP1 SSTORE POP DUP2 PUSH1 0x3 DUP2 SWAP1 SSTORE POP DUP1 PUSH1 0x4 PUSH1 0x0 PUSH2 0x100 EXP DUP2 SLOAD DUP2 PUSH20 0xFFFFFFFFFFFFFFFFFFFFFFFFFFFFFFFFFFFFFFFF MUL NOT AND SWAP1 DUP4 PUSH20 0xFFFFFFFFFFFFFFFFFFFFFFFFFFFFFFFFFFFFFFFF AND MUL OR SWAP1 SSTORE POP POP POP POP POP POP PUSH2 0x1DE JUMP JUMPDEST PUSH1 0x0 DUP2 MLOAD SWAP1 POP PUSH2 0xD9 DUP2 PUSH2 0x1B0 JUMP JUMPDEST SWAP3 SWAP2 POP POP JUMP JUMPDEST PUSH1 0x0 DUP2 MLOAD SWAP1 POP PUSH2 0xEE DUP2 PUSH2 0x1C7 JUMP JUMPDEST SWAP3 SWAP2 POP POP JUMP JUMPDEST PUSH1 0x0 DUP1 PUSH1 0x0 DUP1 PUSH1 0x0 PUSH1 0xA0 DUP7 DUP9 SUB SLT ISZERO PUSH2 0x110 JUMPI PUSH2 0x10F PUSH2 0x1AB JUMP JUMPDEST JUMPDEST PUSH1 0x0 PUSH2 0x11E DUP9 DUP3 DUP10 ADD PUSH2 0xDF JUMP JUMPDEST SWAP6 POP POP PUSH1 0x20 PUSH2 0x12F DUP9 DUP3 DUP10 ADD PUSH2 0xCA JUMP JUMPDEST SWAP5 POP POP PUSH1 0x40 PUSH2 0x140 DUP9 DUP3 DUP10 ADD PUSH2 0xDF JUMP JUMPDEST SWAP4 POP POP PUSH1 0x60 PUSH2 0x151 DUP9 DUP3 DUP10 ADD PUSH2 0xDF JUMP JUMPDEST SWAP3 POP POP PUSH1 0x80 PUSH2 0x162 DUP9 DUP3 DUP10 ADD PUSH2 0xCA JUMP JUMPDEST SWAP2 POP POP SWAP3 SWAP6 POP SWAP3 SWAP6 SWAP1 SWAP4 POP JUMP JUMPDEST PUSH1 0x0 PUSH2 0x17A DUP3 PUSH2 0x181 JUMP JUMPDEST SWAP1 POP SWAP2 SWAP1 POP JUMP JUMPDEST PUSH1 0x0 PUSH20 0xFFFFFFFFFFFFFFFFFFFFFFFFFFFFFFFFFFFFFFFF DUP3 AND SWAP1 POP SWAP2 SWAP1 POP JUMP JUMPDEST PUSH1 0x0 DUP2 SWAP1 POP SWAP2 SWAP1 POP JUMP JUMPDEST PUSH1 0x0 DUP1 REVERT JUMPDEST PUSH2 0x1B9 DUP2 PUSH2 0x16F JUMP JUMPDEST DUP2 EQ PUSH2 0x1C4 JUMPI PUSH1 0x0 DUP1 REVERT JUMPDEST POP JUMP JUMPDEST PUSH2 0x1D0 DUP2 PUSH2 0x1A1 JUMP JUMPDEST DUP2 EQ PUSH2 0x1DB JUMPI PUSH1 0x0 DUP1 REVERT JUMPDEST POP JUMP JUMPDEST PUSH2 0x86D DUP1 PUSH2 0x1ED PUSH1 0x0 CODECOPY PUSH1 0x0 RETURN INVALID PUSH1 0x80 PUSH1 0x40 MSTORE PUSH1 0x4 CALLDATASIZE LT PUSH2 0x59 JUMPI PUSH1 0x0 CALLDATALOAD PUSH1 0xE0 SHR DUP1 PUSH4 0x38CC4831 EQ PUSH2 0xD8 JUMPI DUP1 PUSH4 0x835FC6CA EQ PUSH2 0x103 JUMPI DUP1 PUSH4 0xAF640D0F EQ PUSH2 0x12C JUMPI DUP1 PUSH4 0xD0E30DB0 EQ PUSH2 0x157 JUMPI DUP1 PUSH4 0xDA6E75C2 EQ PUSH2 0x161 JUMPI DUP1 PUSH4 0xF2BCD022 EQ PUSH2 0x178 JUMPI PUSH2 0x9B JUMP JUMPDEST CALLDATASIZE PUSH2 0x9B JUMPI PUSH32 0x2D27851832FCAC28A0D4AF1344F01FED7FFCFD15171C14C564A0C42AA57AE5C0 CALLVALUE ADDRESS SELFBALANCE PUSH1 0x40 MLOAD PUSH2 0x91 SWAP4 SWAP3 SWAP2 SWAP1 PUSH2 0x699 JUMP JUMPDEST PUSH1 0x40 MLOAD DUP1 SWAP2 SUB SWAP1 LOG1 STOP JUMPDEST PUSH32 0x2D27851832FCAC28A0D4AF1344F01FED7FFCFD15171C14C564A0C42AA57AE5C0 CALLVALUE ADDRESS SELFBALANCE PUSH1 0x40 MLOAD PUSH2 0xCE SWAP4 SWAP3 SWAP2 SWAP1 PUSH2 0x699 JUMP JUMPDEST PUSH1 0x40 MLOAD DUP1 SWAP2 SUB SWAP1 LOG1 STOP JUMPDEST CALLVALUE DUP1 ISZERO PUSH2 0xE4 JUMPI PUSH1 0x0 DUP1 REVERT JUMPDEST POP PUSH2 0xED PUSH2 0x1A3 JUMP JUMPDEST PUSH1 0x40 MLOAD PUSH2 0xFA SWAP2 SWAP1 PUSH2 0x5E3 JUMP JUMPDEST PUSH1 0x40 MLOAD DUP1 SWAP2 SUB SWAP1 RETURN JUMPDEST CALLVALUE DUP1 ISZERO PUSH2 0x10F JUMPI PUSH1 0x0 DUP1 REVERT JUMPDEST POP PUSH2 0x12A PUSH1 0x4 DUP1 CALLDATASIZE SUB DUP2 ADD SWAP1 PUSH2 0x125 SWAP2 SWAP1 PUSH2 0x4D4 JUMP JUMPDEST PUSH2 0x1AB JUMP JUMPDEST STOP JUMPDEST CALLVALUE DUP1 ISZERO PUSH2 0x138 JUMPI PUSH1 0x0 DUP1 REVERT JUMPDEST POP PUSH2 0x141 PUSH2 0x2FE JUMP JUMPDEST PUSH1 0x40 MLOAD PUSH2 0x14E SWAP2 SWAP1 PUSH2 0x67E JUMP JUMPDEST PUSH1 0x40 MLOAD DUP1 SWAP2 SUB SWAP1 RETURN JUMPDEST PUSH2 0x15F PUSH2 0x304 JUMP JUMPDEST STOP JUMPDEST CALLVALUE DUP1 ISZERO PUSH2 0x16D JUMPI PUSH1 0x0 DUP1 REVERT JUMPDEST POP PUSH2 0x176 PUSH2 0x341 JUMP JUMPDEST STOP JUMPDEST CALLVALUE DUP1 ISZERO PUSH2 0x184 JUMPI PUSH1 0x0 DUP1 REVERT JUMPDEST POP PUSH2 0x18D PUSH2 0x499 JUMP JUMPDEST PUSH1 0x40 MLOAD PUSH2 0x19A SWAP2 SWAP1 PUSH2 0x5E3 JUMP JUMPDEST PUSH1 0x40 MLOAD DUP1 SWAP2 SUB SWAP1 RETURN JUMPDEST PUSH1 0x0 ADDRESS SWAP1 POP SWAP1 JUMP JUMPDEST DUP1 SELFBALANCE LT ISZERO PUSH2 0x1EE JUMPI PUSH1 0x40 MLOAD PUSH32 0x8C379A000000000000000000000000000000000000000000000000000000000 DUP2 MSTORE PUSH1 0x4 ADD PUSH2 0x1E5 SWAP1 PUSH2 0x63E JUMP JUMPDEST PUSH1 0x40 MLOAD DUP1 SWAP2 SUB SWAP1 REVERT JUMPDEST PUSH1 0x0 PUSH1 0x1 PUSH1 0x0 SWAP1 SLOAD SWAP1 PUSH2 0x100 EXP SWAP1 DIV PUSH20 0xFFFFFFFFFFFFFFFFFFFFFFFFFFFFFFFFFFFFFFFF AND PUSH20 0xFFFFFFFFFFFFFFFFFFFFFFFFFFFFFFFFFFFFFFFF AND DUP3 PUSH1 0x40 MLOAD PUSH2 0x236 SWAP1 PUSH2 0x5CE JUMP JUMPDEST PUSH1 0x0 PUSH1 0x40 MLOAD DUP1 DUP4 SUB DUP2 DUP6 DUP8 GAS CALL SWAP3 POP POP POP RETURNDATASIZE DUP1 PUSH1 0x0 DUP2 EQ PUSH2 0x273 JUMPI PUSH1 0x40 MLOAD SWAP2 POP PUSH1 0x1F NOT PUSH1 0x3F RETURNDATASIZE ADD AND DUP3 ADD PUSH1 0x40 MSTORE RETURNDATASIZE DUP3 MSTORE RETURNDATASIZE PUSH1 0x0 PUSH1 0x20 DUP5 ADD RETURNDATACOPY PUSH2 0x278 JUMP JUMPDEST PUSH1 0x60 SWAP2 POP JUMPDEST POP POP SWAP1 POP PUSH1 0x1 ISZERO ISZERO DUP2 ISZERO ISZERO EQ PUSH2 0x2C3 JUMPI PUSH1 0x40 MLOAD PUSH32 0x8C379A000000000000000000000000000000000000000000000000000000000 DUP2 MSTORE PUSH1 0x4 ADD PUSH2 0x2BA SWAP1 PUSH2 0x65E JUMP JUMPDEST PUSH1 0x40 MLOAD DUP1 SWAP2 SUB SWAP1 REVERT JUMPDEST PUSH32 0x794032702377D1E7EB93381E2467D569394569207A770AF85B3222A361126C91 SELFBALANCE PUSH1 0x40 MLOAD PUSH2 0x2F2 SWAP2 SWAP1 PUSH2 0x67E JUMP JUMPDEST PUSH1 0x40 MLOAD DUP1 SWAP2 SUB SWAP1 LOG1 POP POP JUMP JUMPDEST PUSH1 0x0 SLOAD DUP2 JUMP JUMPDEST PUSH32 0x2D27851832FCAC28A0D4AF1344F01FED7FFCFD15171C14C564A0C42AA57AE5C0 CALLVALUE ADDRESS SELFBALANCE PUSH1 0x40 MLOAD PUSH2 0x337 SWAP4 SWAP3 SWAP2 SWAP1 PUSH2 0x699 JUMP JUMPDEST PUSH1 0x40 MLOAD DUP1 SWAP2 SUB SWAP1 LOG1 JUMP JUMPDEST PUSH1 0x2 SLOAD SELFBALANCE LT ISZERO PUSH2 0x386 JUMPI PUSH1 0x40 MLOAD PUSH32 0x8C379A000000000000000000000000000000000000000000000000000000000 DUP2 MSTORE PUSH1 0x4 ADD PUSH2 0x37D SWAP1 PUSH2 0x5FE JUMP JUMPDEST PUSH1 0x40 MLOAD DUP1 SWAP2 SUB SWAP1 REVERT JUMPDEST PUSH1 0x0 PUSH1 0x4 PUSH1 0x0 SWAP1 SLOAD SWAP1 PUSH2 0x100 EXP SWAP1 DIV PUSH20 0xFFFFFFFFFFFFFFFFFFFFFFFFFFFFFFFFFFFFFFFF AND PUSH20 0xFFFFFFFFFFFFFFFFFFFFFFFFFFFFFFFFFFFFFFFF AND PUSH1 0x2 SLOAD PUSH1 0x40 MLOAD PUSH2 0x3D0 SWAP1 PUSH2 0x5CE JUMP JUMPDEST PUSH1 0x0 PUSH1 0x40 MLOAD DUP1 DUP4 SUB DUP2 DUP6 DUP8 GAS CALL SWAP3 POP POP POP RETURNDATASIZE DUP1 PUSH1 0x0 DUP2 EQ PUSH2 0x40D JUMPI PUSH1 0x40 MLOAD SWAP2 POP PUSH1 0x1F NOT PUSH1 0x3F RETURNDATASIZE ADD AND DUP3 ADD PUSH1 0x40 MSTORE RETURNDATASIZE DUP3 MSTORE RETURNDATASIZE PUSH1 0x0 PUSH1 0x20 DUP5 ADD RETURNDATACOPY PUSH2 0x412 JUMP JUMPDEST PUSH1 0x60 SWAP2 POP JUMPDEST POP POP SWAP1 POP PUSH1 0x1 ISZERO ISZERO DUP2 ISZERO ISZERO EQ PUSH2 0x45D JUMPI PUSH1 0x40 MLOAD PUSH32 0x8C379A000000000000000000000000000000000000000000000000000000000 DUP2 MSTORE PUSH1 0x4 ADD PUSH2 0x454 SWAP1 PUSH2 0x61E JUMP JUMPDEST PUSH1 0x40 MLOAD DUP1 SWAP2 SUB SWAP1 REVERT JUMPDEST PUSH32 0x56E1CF8A52E84572FF49B950FA9A1A1867319BF8EBA3BF8C77BC4354678A34C5 PUSH1 0x2 SLOAD PUSH1 0x40 MLOAD PUSH2 0x48E SWAP2 SWAP1 PUSH2 0x67E JUMP JUMPDEST PUSH1 0x40 MLOAD DUP1 SWAP2 SUB SWAP1 LOG1 POP JUMP JUMPDEST PUSH1 0x1 PUSH1 0x0 SWAP1 SLOAD SWAP1 PUSH2 0x100 EXP SWAP1 DIV PUSH20 0xFFFFFFFFFFFFFFFFFFFFFFFFFFFFFFFFFFFFFFFF AND DUP2 JUMP JUMPDEST PUSH1 0x0 DUP2 CALLDATALOAD SWAP1 POP PUSH2 0x4CE DUP2 PUSH2 0x820 JUMP JUMPDEST SWAP3 SWAP2 POP POP JUMP JUMPDEST PUSH1 0x0 PUSH1 0x20 DUP3 DUP5 SUB SLT ISZERO PUSH2 0x4EA JUMPI PUSH2 0x4E9 PUSH2 0x728 JUMP JUMPDEST JUMPDEST PUSH1 0x0 PUSH2 0x4F8 DUP5 DUP3 DUP6 ADD PUSH2 0x4BF JUMP JUMPDEST SWAP2 POP POP SWAP3 SWAP2 POP POP JUMP JUMPDEST PUSH2 0x50A DUP2 PUSH2 0x6EC JUMP JUMPDEST DUP3 MSTORE POP POP JUMP JUMPDEST PUSH1 0x0 PUSH2 0x51D PUSH1 0x12 DUP4 PUSH2 0x6DB JUMP JUMPDEST SWAP2 POP PUSH2 0x528 DUP3 PUSH2 0x72D JUMP JUMPDEST PUSH1 0x20 DUP3 ADD SWAP1 POP SWAP2 SWAP1 POP JUMP JUMPDEST PUSH1 0x0 PUSH2 0x540 PUSH1 0x2A DUP4 PUSH2 0x6DB JUMP JUMPDEST SWAP2 POP PUSH2 0x54B DUP3 PUSH2 0x756 JUMP JUMPDEST PUSH1 0x40 DUP3 ADD SWAP1 POP SWAP2 SWAP1 POP JUMP JUMPDEST PUSH1 0x0 PUSH2 0x563 PUSH1 0x18 DUP4 PUSH2 0x6DB JUMP JUMPDEST SWAP2 POP PUSH2 0x56E DUP3 PUSH2 0x7A5 JUMP JUMPDEST PUSH1 0x20 DUP3 ADD SWAP1 POP SWAP2 SWAP1 POP JUMP JUMPDEST PUSH1 0x0 PUSH2 0x586 PUSH1 0x0 DUP4 PUSH2 0x6D0 JUMP JUMPDEST SWAP2 POP PUSH2 0x591 DUP3 PUSH2 0x7CE JUMP JUMPDEST PUSH1 0x0 DUP3 ADD SWAP1 POP SWAP2 SWAP1 POP JUMP JUMPDEST PUSH1 0x0 PUSH2 0x5A9 PUSH1 0x2D DUP4 PUSH2 0x6DB JUMP JUMPDEST SWAP2 POP PUSH2 0x5B4 DUP3 PUSH2 0x7D1 JUMP JUMPDEST PUSH1 0x40 DUP3 ADD SWAP1 POP SWAP2 SWAP1 POP JUMP JUMPDEST PUSH2 0x5C8 DUP2 PUSH2 0x71E JUMP JUMPDEST DUP3 MSTORE POP POP JUMP JUMPDEST PUSH1 0x0 PUSH2 0x5D9 DUP3 PUSH2 0x579 JUMP JUMPDEST SWAP2 POP DUP2 SWAP1 POP SWAP2 SWAP1 POP JUMP JUMPDEST PUSH1 0x0 PUSH1 0x20 DUP3 ADD SWAP1 POP PUSH2 0x5F8 PUSH1 0x0 DUP4 ADD DUP5 PUSH2 0x501 JUMP JUMPDEST SWAP3 SWAP2 POP POP JUMP JUMPDEST PUSH1 0x0 PUSH1 0x20 DUP3 ADD SWAP1 POP DUP2 DUP2 SUB PUSH1 0x0 DUP4 ADD MSTORE PUSH2 0x617 DUP2 PUSH2 0x510 JUMP JUMPDEST SWAP1 POP SWAP2 SWAP1 POP JUMP JUMPDEST PUSH1 0x0 PUSH1 0x20 DUP3 ADD SWAP1 POP DUP2 DUP2 SUB PUSH1 0x0 DUP4 ADD MSTORE PUSH2 0x637 DUP2 PUSH2 0x533 JUMP JUMPDEST SWAP1 POP SWAP2 SWAP1 POP JUMP JUMPDEST PUSH1 0x0 PUSH1 0x20 DUP3 ADD SWAP1 POP DUP2 DUP2 SUB PUSH1 0x0 DUP4 ADD MSTORE PUSH2 0x657 DUP2 PUSH2 0x556 JUMP JUMPDEST SWAP1 POP SWAP2 SWAP1 POP JUMP JUMPDEST PUSH1 0x0 PUSH1 0x20 DUP3 ADD SWAP1 POP DUP2 DUP2 SUB PUSH1 0x0 DUP4 ADD MSTORE PUSH2 0x677 DUP2 PUSH2 0x59C JUMP JUMPDEST SWAP1 POP SWAP2 SWAP1 POP JUMP JUMPDEST PUSH1 0x0 PUSH1 0x20 DUP3 ADD SWAP1 POP PUSH2 0x693 PUSH1 0x0 DUP4 ADD DUP5 PUSH2 0x5BF JUMP JUMPDEST SWAP3 SWAP2 POP POP JUMP JUMPDEST PUSH1 0x0 PUSH1 0x60 DUP3 ADD SWAP1 POP PUSH2 0x6AE PUSH1 0x0 DUP4 ADD DUP7 PUSH2 0x5BF JUMP JUMPDEST PUSH2 0x6BB PUSH1 0x20 DUP4 ADD DUP6 PUSH2 0x501 JUMP JUMPDEST PUSH2 0x6C8 PUSH1 0x40 DUP4 ADD DUP5 PUSH2 0x5BF JUMP JUMPDEST SWAP5 SWAP4 POP POP POP POP JUMP JUMPDEST PUSH1 0x0 DUP2 SWAP1 POP SWAP3 SWAP2 POP POP JUMP JUMPDEST PUSH1 0x0 DUP3 DUP3 MSTORE PUSH1 0x20 DUP3 ADD SWAP1 POP SWAP3 SWAP2 POP POP JUMP JUMPDEST PUSH1 0x0 PUSH2 0x6F7 DUP3 PUSH2 0x6FE JUMP JUMPDEST SWAP1 POP SWAP2 SWAP1 POP JUMP JUMPDEST PUSH1 0x0 PUSH20 0xFFFFFFFFFFFFFFFFFFFFFFFFFFFFFFFFFFFFFFFF DUP3 AND SWAP1 POP SWAP2 SWAP1 POP JUMP JUMPDEST PUSH1 0x0 DUP2 SWAP1 POP SWAP2 SWAP1 POP JUMP JUMPDEST PUSH1 0x0 DUP1 REVERT JUMPDEST PUSH32 0x496E73756666696369656E742066756E64730000000000000000000000000000 PUSH1 0x0 DUP3 ADD MSTORE POP JUMP JUMPDEST PUSH32 0x5061796D656E74206661696C65642E2054727920616761696E20696E20736F6D PUSH1 0x0 DUP3 ADD MSTORE PUSH32 0x65206D696E757465732E00000000000000000000000000000000000000000000 PUSH1 0x20 DUP3 ADD MSTORE POP JUMP JUMPDEST PUSH32 0x557365723A20496E73756666696369656E742066756E64730000000000000000 PUSH1 0x0 DUP3 ADD MSTORE POP JUMP JUMPDEST POP JUMP JUMPDEST PUSH32 0x5769746864726177616C206661696C65642E2054727920616761696E20696E20 PUSH1 0x0 DUP3 ADD MSTORE PUSH32 0x736F6D65206D696E757465732E00000000000000000000000000000000000000 PUSH1 0x20 DUP3 ADD MSTORE POP JUMP JUMPDEST PUSH2 0x829 DUP2 PUSH2 0x71E JUMP JUMPDEST DUP2 EQ PUSH2 0x834 JUMPI PUSH1 0x0 DUP1 REVERT JUMPDEST POP JUMP INVALID LOG2 PUSH5 0x6970667358 0x22 SLT KECCAK256 0xC1 PUSH30 0x509B097B52B946C9C19B53E5FB525FD9E1A3BE38560DA190A0F59EAA38BB PUSH5 0x736F6C6343 STOP ADDMOD SMOD STOP CALLER LOG2 PUSH5 0x6970667358 0x22 SLT KECCAK256 RETURNDATASIZE PUSH5 0x9B78100C91 DUP11 SGT EXTCODEHASH DUP9 DUP11 PUSH29 0x7A7F4E6564A60BEFFAA04EA5C773E1087E7AC764736F6C634300080700 CALLER "
				},
				"gasEstimates": {
					"creation": {
						"codeDepositCost": "2354000",
						"executionCost": "infinite",
						"totalCost": "infinite"
					},
					"external": {
						"": "175",
						"addNewEmployee(uint256,address,string,string,uint256)": "infinite",
						"addNewService(string,uint256)": "infinite",
						"addNewTenant(uint256,address,uint256,uint256)": "infinite",
						"depositEmployee()": "infinite",
						"depositTenant()": "infinite",
						"getEmployeeList()": "infinite",
						"owner()": "2545",
						"payAllServices()": "210",
						"paySalaries()": "2711",
						"payService(uint256)": "428",
						"renounceOwnership()": "30443",
						"showAddress()": "474",
						"tenantWithdrawal()": "infinite",
						"transferOwnership(address)": "30835"
					}
				},
				"methodIdentifiers": {
					"addNewEmployee(uint256,address,string,string,uint256)": "08b567fc",
					"addNewService(string,uint256)": "72673e31",
					"addNewTenant(uint256,address,uint256,uint256)": "bce58703",
					"depositEmployee()": "c2d2a83c",
					"depositTenant()": "2db3361b",
					"getEmployeeList()": "0b9362a2",
					"owner()": "8da5cb5b",
					"payAllServices()": "ec3ab274",
					"paySalaries()": "42e36b3b",
					"payService(uint256)": "cd7d77c5",
					"renounceOwnership()": "715018a6",
					"showAddress()": "85ffebd7",
					"tenantWithdrawal()": "eb20f21a",
					"transferOwnership(address)": "f2fde38b"
				}
			},
			"storageLayout": {
				"storage": [
					{
						"astId": 7,
						"contract": "challenges/Consorcio/Consorcio.sol:Consorcio",
						"label": "_owner",
						"offset": 0,
						"slot": "0",
						"type": "t_address"
					},
					{
						"astId": 151,
						"contract": "challenges/Consorcio/Consorcio.sol:Consorcio",
						"label": "employeeList",
						"offset": 0,
						"slot": "1",
						"type": "t_array(t_contract(Employee)445)dyn_storage"
					},
					{
						"astId": 155,
						"contract": "challenges/Consorcio/Consorcio.sol:Consorcio",
						"label": "tenantList",
						"offset": 0,
						"slot": "2",
						"type": "t_array(t_contract(Tenant)544)dyn_storage"
					},
					{
						"astId": 159,
						"contract": "challenges/Consorcio/Consorcio.sol:Consorcio",
						"label": "serviceList",
						"offset": 0,
						"slot": "3",
						"type": "t_array(t_struct(Service)147_storage)dyn_storage"
					},
					{
						"astId": 172,
						"contract": "challenges/Consorcio/Consorcio.sol:Consorcio",
						"label": "anEmployee",
						"offset": 0,
						"slot": "4",
						"type": "t_contract(Employee)445"
					},
					{
						"astId": 175,
						"contract": "challenges/Consorcio/Consorcio.sol:Consorcio",
						"label": "aTenant",
						"offset": 0,
						"slot": "5",
						"type": "t_contract(Tenant)544"
					},
					{
						"astId": 178,
						"contract": "challenges/Consorcio/Consorcio.sol:Consorcio",
						"label": "aService",
						"offset": 0,
						"slot": "6",
						"type": "t_struct(Service)147_storage"
					}
				],
				"types": {
					"t_address": {
						"encoding": "inplace",
						"label": "address",
						"numberOfBytes": "20"
					},
					"t_array(t_contract(Employee)445)dyn_storage": {
						"base": "t_contract(Employee)445",
						"encoding": "dynamic_array",
						"label": "contract Employee[]",
						"numberOfBytes": "32"
					},
					"t_array(t_contract(Tenant)544)dyn_storage": {
						"base": "t_contract(Tenant)544",
						"encoding": "dynamic_array",
						"label": "contract Tenant[]",
						"numberOfBytes": "32"
					},
					"t_array(t_struct(Service)147_storage)dyn_storage": {
						"base": "t_struct(Service)147_storage",
						"encoding": "dynamic_array",
						"label": "struct Consorcio.Service[]",
						"numberOfBytes": "32"
					},
					"t_contract(Employee)445": {
						"encoding": "inplace",
						"label": "contract Employee",
						"numberOfBytes": "20"
					},
					"t_contract(Tenant)544": {
						"encoding": "inplace",
						"label": "contract Tenant",
						"numberOfBytes": "20"
					},
					"t_string_storage": {
						"encoding": "bytes",
						"label": "string",
						"numberOfBytes": "32"
					},
					"t_struct(Service)147_storage": {
						"encoding": "inplace",
						"label": "struct Consorcio.Service",
						"members": [
							{
								"astId": 144,
								"contract": "challenges/Consorcio/Consorcio.sol:Consorcio",
								"label": "service",
								"offset": 0,
								"slot": "0",
								"type": "t_string_storage"
							},
							{
								"astId": 146,
								"contract": "challenges/Consorcio/Consorcio.sol:Consorcio",
								"label": "price",
								"offset": 0,
								"slot": "1",
								"type": "t_uint256"
							}
						],
						"numberOfBytes": "64"
					},
					"t_uint256": {
						"encoding": "inplace",
						"label": "uint256",
						"numberOfBytes": "32"
					}
				}
			},
			"userdoc": {
				"kind": "user",
				"methods": {},
				"version": 1
			}
		}
	}
}