{
	"challenges/Consorcio/Tenant.sol": {
		"Tenant": {
			"abi": [
				{
					"inputs": [
						{
							"internalType": "uint256",
							"name": "newId",
							"type": "uint256"
						},
						{
							"internalType": "address",
							"name": "newAddress",
							"type": "address"
						},
						{
							"internalType": "uint256",
							"name": "newServicePrice",
							"type": "uint256"
						},
						{
							"internalType": "uint256",
							"name": "newAptAddress",
							"type": "uint256"
						},
						{
							"internalType": "address",
							"name": "newConsorcioAddress",
							"type": "address"
						}
					],
					"stateMutability": "payable",
					"type": "constructor"
				},
				{
					"anonymous": false,
					"inputs": [
						{
							"indexed": false,
							"internalType": "uint256",
							"name": "amount",
							"type": "uint256"
						},
						{
							"indexed": false,
							"internalType": "address",
							"name": "tenantAddress",
							"type": "address"
						},
						{
							"indexed": false,
							"internalType": "uint256",
							"name": "balance",
							"type": "uint256"
						}
					],
					"name": "EtherReceived",
					"type": "event"
				},
				{
					"anonymous": false,
					"inputs": [
						{
							"indexed": false,
							"internalType": "uint256",
							"name": "pricePaid",
							"type": "uint256"
						}
					],
					"name": "ExpensesPaid",
					"type": "event"
				},
				{
					"anonymous": false,
					"inputs": [
						{
							"indexed": false,
							"internalType": "uint256",
							"name": "addressBalance",
							"type": "uint256"
						}
					],
					"name": "WithdrawalSuccessful",
					"type": "event"
				},
				{
					"stateMutability": "payable",
					"type": "fallback"
				},
				{
					"inputs": [],
					"name": "deposit",
					"outputs": [],
					"stateMutability": "payable",
					"type": "function"
				},
				{
					"inputs": [],
					"name": "getAddress",
					"outputs": [
						{
							"internalType": "address",
							"name": "",
							"type": "address"
						}
					],
					"stateMutability": "view",
					"type": "function"
				},
				{
					"inputs": [],
					"name": "id",
					"outputs": [
						{
							"internalType": "uint256",
							"name": "",
							"type": "uint256"
						}
					],
					"stateMutability": "view",
					"type": "function"
				},
				{
					"inputs": [],
					"name": "payExpenses",
					"outputs": [],
					"stateMutability": "nonpayable",
					"type": "function"
				},
				{
					"inputs": [
						{
							"internalType": "uint256",
							"name": "_amount",
							"type": "uint256"
						}
					],
					"name": "withdrawal",
					"outputs": [],
					"stateMutability": "nonpayable",
					"type": "function"
				},
				{
					"inputs": [],
					"name": "withdrawalAddress",
					"outputs": [
						{
							"internalType": "address",
							"name": "",
							"type": "address"
						}
					],
					"stateMutability": "view",
					"type": "function"
				},
				{
					"stateMutability": "payable",
					"type": "receive"
				}
			],
			"devdoc": {
				"kind": "dev",
				"methods": {},
				"version": 1
			},
			"evm": {
				"assembly": "    /* \"challenges/Consorcio/Tenant.sol\":84:1071  contract Tenant is User {\r... */\n  mstore(0x40, 0x80)\n    /* \"challenges/Consorcio/Tenant.sol\":267:601  constructor(\r... */\n  mload(0x40)\n  sub(codesize, bytecodeSize)\n  dup1\n  bytecodeSize\n  dup4\n  codecopy\n  dup2\n  dup2\n  add\n  0x40\n  mstore\n  dup2\n  add\n  swap1\n  tag_1\n  swap2\n  swap1\n  tag_2\n  jump\t// in\ntag_1:\n    /* \"challenges/Consorcio/Tenant.sol\":447:452  newId */\n  dup5\n    /* \"challenges/Consorcio/Tenant.sol\":454:464  newAddress */\n  dup5\n    /* \"challenges/Consorcio/User.sol\":587:592  newId */\n  dup2\n    /* \"challenges/Consorcio/User.sol\":582:584  id */\n  0x00\n    /* \"challenges/Consorcio/User.sol\":582:592  id = newId */\n  dup2\n  swap1\n  sstore\n  pop\n    /* \"challenges/Consorcio/User.sol\":623:633  newAddress */\n  dup1\n    /* \"challenges/Consorcio/User.sol\":603:620  withdrawalAddress */\n  0x01\n  0x00\n    /* \"challenges/Consorcio/User.sol\":603:633  withdrawalAddress = newAddress */\n  0x0100\n  exp\n  dup2\n  sload\n  dup2\n  0xffffffffffffffffffffffffffffffffffffffff\n  mul\n  not\n  and\n  swap1\n  dup4\n  0xffffffffffffffffffffffffffffffffffffffff\n  and\n  mul\n  or\n  swap1\n  sstore\n  pop\n    /* \"challenges/Consorcio/User.sol\":527:641  constructor(uint newId, address newAddress) {\r... */\n  pop\n  pop\n    /* \"challenges/Consorcio/Tenant.sol\":492:507  newServicePrice */\n  dup3\n    /* \"challenges/Consorcio/Tenant.sol\":477:489  servicePrice */\n  0x02\n    /* \"challenges/Consorcio/Tenant.sol\":477:507  servicePrice = newServicePrice */\n  dup2\n  swap1\n  sstore\n  pop\n    /* \"challenges/Consorcio/Tenant.sol\":531:544  newAptAddress */\n  dup2\n    /* \"challenges/Consorcio/Tenant.sol\":518:528  aptAddress */\n  0x03\n    /* \"challenges/Consorcio/Tenant.sol\":518:544  aptAddress = newAptAddress */\n  dup2\n  swap1\n  sstore\n  pop\n    /* \"challenges/Consorcio/Tenant.sol\":574:593  newConsorcioAddress */\n  dup1\n    /* \"challenges/Consorcio/Tenant.sol\":555:571  consorcioAddress */\n  0x04\n  0x00\n    /* \"challenges/Consorcio/Tenant.sol\":555:593  consorcioAddress = newConsorcioAddress */\n  0x0100\n  exp\n  dup2\n  sload\n  dup2\n  0xffffffffffffffffffffffffffffffffffffffff\n  mul\n  not\n  and\n  swap1\n  dup4\n  0xffffffffffffffffffffffffffffffffffffffff\n  and\n  mul\n  or\n  swap1\n  sstore\n  pop\n    /* \"challenges/Consorcio/Tenant.sol\":267:601  constructor(\r... */\n  pop\n  pop\n  pop\n  pop\n  pop\n    /* \"challenges/Consorcio/Tenant.sol\":84:1071  contract Tenant is User {\r... */\n  jump(tag_7)\n    /* \"#utility.yul\":7:150   */\ntag_9:\n    /* \"#utility.yul\":64:69   */\n  0x00\n    /* \"#utility.yul\":95:101   */\n  dup2\n    /* \"#utility.yul\":89:102   */\n  mload\n    /* \"#utility.yul\":80:102   */\n  swap1\n  pop\n    /* \"#utility.yul\":111:144   */\n  tag_11\n    /* \"#utility.yul\":138:143   */\n  dup2\n    /* \"#utility.yul\":111:144   */\n  tag_12\n  jump\t// in\ntag_11:\n    /* \"#utility.yul\":7:150   */\n  swap3\n  swap2\n  pop\n  pop\n  jump\t// out\n    /* \"#utility.yul\":156:299   */\ntag_13:\n    /* \"#utility.yul\":213:218   */\n  0x00\n    /* \"#utility.yul\":244:250   */\n  dup2\n    /* \"#utility.yul\":238:251   */\n  mload\n    /* \"#utility.yul\":229:251   */\n  swap1\n  pop\n    /* \"#utility.yul\":260:293   */\n  tag_15\n    /* \"#utility.yul\":287:292   */\n  dup2\n    /* \"#utility.yul\":260:293   */\n  tag_16\n  jump\t// in\ntag_15:\n    /* \"#utility.yul\":156:299   */\n  swap3\n  swap2\n  pop\n  pop\n  jump\t// out\n    /* \"#utility.yul\":305:1282   */\ntag_2:\n    /* \"#utility.yul\":411:417   */\n  0x00\n    /* \"#utility.yul\":419:425   */\n  dup1\n    /* \"#utility.yul\":427:433   */\n  0x00\n    /* \"#utility.yul\":435:441   */\n  dup1\n    /* \"#utility.yul\":443:449   */\n  0x00\n    /* \"#utility.yul\":492:495   */\n  0xa0\n    /* \"#utility.yul\":480:489   */\n  dup7\n    /* \"#utility.yul\":471:478   */\n  dup9\n    /* \"#utility.yul\":467:490   */\n  sub\n    /* \"#utility.yul\":463:496   */\n  slt\n    /* \"#utility.yul\":460:580   */\n  iszero\n  tag_18\n  jumpi\n    /* \"#utility.yul\":499:578   */\n  tag_19\n  tag_20\n  jump\t// in\ntag_19:\n    /* \"#utility.yul\":460:580   */\ntag_18:\n    /* \"#utility.yul\":619:620   */\n  0x00\n    /* \"#utility.yul\":644:708   */\n  tag_21\n    /* \"#utility.yul\":700:707   */\n  dup9\n    /* \"#utility.yul\":691:697   */\n  dup3\n    /* \"#utility.yul\":680:689   */\n  dup10\n    /* \"#utility.yul\":676:698   */\n  add\n    /* \"#utility.yul\":644:708   */\n  tag_13\n  jump\t// in\ntag_21:\n    /* \"#utility.yul\":634:708   */\n  swap6\n  pop\n    /* \"#utility.yul\":590:718   */\n  pop\n    /* \"#utility.yul\":757:759   */\n  0x20\n    /* \"#utility.yul\":783:847   */\n  tag_22\n    /* \"#utility.yul\":839:846   */\n  dup9\n    /* \"#utility.yul\":830:836   */\n  dup3\n    /* \"#utility.yul\":819:828   */\n  dup10\n    /* \"#utility.yul\":815:837   */\n  add\n    /* \"#utility.yul\":783:847   */\n  tag_9\n  jump\t// in\ntag_22:\n    /* \"#utility.yul\":773:847   */\n  swap5\n  pop\n    /* \"#utility.yul\":728:857   */\n  pop\n    /* \"#utility.yul\":896:898   */\n  0x40\n    /* \"#utility.yul\":922:986   */\n  tag_23\n    /* \"#utility.yul\":978:985   */\n  dup9\n    /* \"#utility.yul\":969:975   */\n  dup3\n    /* \"#utility.yul\":958:967   */\n  dup10\n    /* \"#utility.yul\":954:976   */\n  add\n    /* \"#utility.yul\":922:986   */\n  tag_13\n  jump\t// in\ntag_23:\n    /* \"#utility.yul\":912:986   */\n  swap4\n  pop\n    /* \"#utility.yul\":867:996   */\n  pop\n    /* \"#utility.yul\":1035:1037   */\n  0x60\n    /* \"#utility.yul\":1061:1125   */\n  tag_24\n    /* \"#utility.yul\":1117:1124   */\n  dup9\n    /* \"#utility.yul\":1108:1114   */\n  dup3\n    /* \"#utility.yul\":1097:1106   */\n  dup10\n    /* \"#utility.yul\":1093:1115   */\n  add\n    /* \"#utility.yul\":1061:1125   */\n  tag_13\n  jump\t// in\ntag_24:\n    /* \"#utility.yul\":1051:1125   */\n  swap3\n  pop\n    /* \"#utility.yul\":1006:1135   */\n  pop\n    /* \"#utility.yul\":1174:1177   */\n  0x80\n    /* \"#utility.yul\":1201:1265   */\n  tag_25\n    /* \"#utility.yul\":1257:1264   */\n  dup9\n    /* \"#utility.yul\":1248:1254   */\n  dup3\n    /* \"#utility.yul\":1237:1246   */\n  dup10\n    /* \"#utility.yul\":1233:1255   */\n  add\n    /* \"#utility.yul\":1201:1265   */\n  tag_9\n  jump\t// in\ntag_25:\n    /* \"#utility.yul\":1191:1265   */\n  swap2\n  pop\n    /* \"#utility.yul\":1145:1275   */\n  pop\n    /* \"#utility.yul\":305:1282   */\n  swap3\n  swap6\n  pop\n  swap3\n  swap6\n  swap1\n  swap4\n  pop\n  jump\t// out\n    /* \"#utility.yul\":1369:1465   */\ntag_28:\n    /* \"#utility.yul\":1406:1413   */\n  0x00\n    /* \"#utility.yul\":1435:1459   */\n  tag_30\n    /* \"#utility.yul\":1453:1458   */\n  dup3\n    /* \"#utility.yul\":1435:1459   */\n  tag_31\n  jump\t// in\ntag_30:\n    /* \"#utility.yul\":1424:1459   */\n  swap1\n  pop\n    /* \"#utility.yul\":1369:1465   */\n  swap2\n  swap1\n  pop\n  jump\t// out\n    /* \"#utility.yul\":1471:1597   */\ntag_31:\n    /* \"#utility.yul\":1508:1515   */\n  0x00\n    /* \"#utility.yul\":1548:1590   */\n  0xffffffffffffffffffffffffffffffffffffffff\n    /* \"#utility.yul\":1541:1546   */\n  dup3\n    /* \"#utility.yul\":1537:1591   */\n  and\n    /* \"#utility.yul\":1526:1591   */\n  swap1\n  pop\n    /* \"#utility.yul\":1471:1597   */\n  swap2\n  swap1\n  pop\n  jump\t// out\n    /* \"#utility.yul\":1603:1680   */\ntag_33:\n    /* \"#utility.yul\":1640:1647   */\n  0x00\n    /* \"#utility.yul\":1669:1674   */\n  dup2\n    /* \"#utility.yul\":1658:1674   */\n  swap1\n  pop\n    /* \"#utility.yul\":1603:1680   */\n  swap2\n  swap1\n  pop\n  jump\t// out\n    /* \"#utility.yul\":1809:1926   */\ntag_20:\n    /* \"#utility.yul\":1918:1919   */\n  0x00\n    /* \"#utility.yul\":1915:1916   */\n  dup1\n    /* \"#utility.yul\":1908:1920   */\n  revert\n    /* \"#utility.yul\":1932:2054   */\ntag_12:\n    /* \"#utility.yul\":2005:2029   */\n  tag_39\n    /* \"#utility.yul\":2023:2028   */\n  dup2\n    /* \"#utility.yul\":2005:2029   */\n  tag_28\n  jump\t// in\ntag_39:\n    /* \"#utility.yul\":1998:2003   */\n  dup2\n    /* \"#utility.yul\":1995:2030   */\n  eq\n    /* \"#utility.yul\":1985:2048   */\n  tag_40\n  jumpi\n    /* \"#utility.yul\":2044:2045   */\n  0x00\n    /* \"#utility.yul\":2041:2042   */\n  dup1\n    /* \"#utility.yul\":2034:2046   */\n  revert\n    /* \"#utility.yul\":1985:2048   */\ntag_40:\n    /* \"#utility.yul\":1932:2054   */\n  pop\n  jump\t// out\n    /* \"#utility.yul\":2060:2182   */\ntag_16:\n    /* \"#utility.yul\":2133:2157   */\n  tag_42\n    /* \"#utility.yul\":2151:2156   */\n  dup2\n    /* \"#utility.yul\":2133:2157   */\n  tag_33\n  jump\t// in\ntag_42:\n    /* \"#utility.yul\":2126:2131   */\n  dup2\n    /* \"#utility.yul\":2123:2158   */\n  eq\n    /* \"#utility.yul\":2113:2176   */\n  tag_43\n  jumpi\n    /* \"#utility.yul\":2172:2173   */\n  0x00\n    /* \"#utility.yul\":2169:2170   */\n  dup1\n    /* \"#utility.yul\":2162:2174   */\n  revert\n    /* \"#utility.yul\":2113:2176   */\ntag_43:\n    /* \"#utility.yul\":2060:2182   */\n  pop\n  jump\t// out\n    /* \"challenges/Consorcio/Tenant.sol\":84:1071  contract Tenant is User {\r... */\ntag_7:\n  dataSize(sub_0)\n  dup1\n  dataOffset(sub_0)\n  0x00\n  codecopy\n  0x00\n  return\nstop\n\nsub_0: assembly {\n        /* \"challenges/Consorcio/Tenant.sol\":84:1071  contract Tenant is User {\r... */\n      mstore(0x40, 0x80)\n      jumpi(tag_1, lt(calldatasize, 0x04))\n      shr(0xe0, calldataload(0x00))\n      dup1\n      0x38cc4831\n      eq\n      tag_3\n      jumpi\n      dup1\n      0x835fc6ca\n      eq\n      tag_4\n      jumpi\n      dup1\n      0xaf640d0f\n      eq\n      tag_5\n      jumpi\n      dup1\n      0xd0e30db0\n      eq\n      tag_6\n      jumpi\n      dup1\n      0xda6e75c2\n      eq\n      tag_7\n      jumpi\n      dup1\n      0xf2bcd022\n      eq\n      tag_8\n      jumpi\n      jump(tag_2)\n    tag_1:\n      jumpi(tag_2, calldatasize)\n        /* \"challenges/Consorcio/User.sol\":329:391  EtherReceived(msg.value, address(this), address(this).balance) */\n      0x2d27851832fcac28a0d4af1344f01fed7ffcfd15171c14c564a0c42aa57ae5c0\n        /* \"challenges/Consorcio/User.sol\":343:352  msg.value */\n      callvalue\n        /* \"challenges/Consorcio/User.sol\":362:366  this */\n      address\n        /* \"challenges/Consorcio/User.sol\":369:390  address(this).balance */\n      selfbalance\n        /* \"challenges/Consorcio/User.sol\":329:391  EtherReceived(msg.value, address(this), address(this).balance) */\n      mload(0x40)\n      tag_11\n      swap4\n      swap3\n      swap2\n      swap1\n      tag_12\n      jump\t// in\n    tag_11:\n      mload(0x40)\n      dup1\n      swap2\n      sub\n      swap1\n      log1\n        /* \"challenges/Consorcio/Tenant.sol\":84:1071  contract Tenant is User {\r... */\n      stop\n    tag_2:\n        /* \"challenges/Consorcio/User.sol\":449:511  EtherReceived(msg.value, address(this), address(this).balance) */\n      0x2d27851832fcac28a0d4af1344f01fed7ffcfd15171c14c564a0c42aa57ae5c0\n        /* \"challenges/Consorcio/User.sol\":463:472  msg.value */\n      callvalue\n        /* \"challenges/Consorcio/User.sol\":482:486  this */\n      address\n        /* \"challenges/Consorcio/User.sol\":489:510  address(this).balance */\n      selfbalance\n        /* \"challenges/Consorcio/User.sol\":449:511  EtherReceived(msg.value, address(this), address(this).balance) */\n      mload(0x40)\n      tag_15\n      swap4\n      swap3\n      swap2\n      swap1\n      tag_12\n      jump\t// in\n    tag_15:\n      mload(0x40)\n      dup1\n      swap2\n      sub\n      swap1\n      log1\n        /* \"challenges/Consorcio/Tenant.sol\":84:1071  contract Tenant is User {\r... */\n      stop\n        /* \"challenges/Consorcio/User.sol\":1051:1142  function getAddress() public view returns (address) {\r... */\n    tag_3:\n      callvalue\n      dup1\n      iszero\n      tag_16\n      jumpi\n      0x00\n      dup1\n      revert\n    tag_16:\n      pop\n      tag_17\n      tag_18\n      jump\t// in\n    tag_17:\n      mload(0x40)\n      tag_19\n      swap2\n      swap1\n      tag_20\n      jump\t// in\n    tag_19:\n      mload(0x40)\n      dup1\n      swap2\n      sub\n      swap1\n      return\n        /* \"challenges/Consorcio/User.sol\":649:1043  function withdrawal(uint _amount) public {\r... */\n    tag_4:\n      callvalue\n      dup1\n      iszero\n      tag_21\n      jumpi\n      0x00\n      dup1\n      revert\n    tag_21:\n      pop\n      tag_22\n      0x04\n      dup1\n      calldatasize\n      sub\n      dup2\n      add\n      swap1\n      tag_23\n      swap2\n      swap1\n      tag_24\n      jump\t// in\n    tag_23:\n      tag_25\n      jump\t// in\n    tag_22:\n      stop\n        /* \"challenges/Consorcio/User.sol\":92:106  uint public id */\n    tag_5:\n      callvalue\n      dup1\n      iszero\n      tag_26\n      jumpi\n      0x00\n      dup1\n      revert\n    tag_26:\n      pop\n      tag_27\n      tag_28\n      jump\t// in\n    tag_27:\n      mload(0x40)\n      tag_29\n      swap2\n      swap1\n      tag_30\n      jump\t// in\n    tag_29:\n      mload(0x40)\n      dup1\n      swap2\n      sub\n      swap1\n      return\n        /* \"challenges/Consorcio/Tenant.sol\":609:729  function deposit() public payable {\r... */\n    tag_6:\n      tag_31\n      tag_32\n      jump\t// in\n    tag_31:\n      stop\n        /* \"challenges/Consorcio/Tenant.sol\":737:1066  function payExpenses() public {\r... */\n    tag_7:\n      callvalue\n      dup1\n      iszero\n      tag_33\n      jumpi\n      0x00\n      dup1\n      revert\n    tag_33:\n      pop\n      tag_34\n      tag_35\n      jump\t// in\n    tag_34:\n      stop\n        /* \"challenges/Consorcio/User.sol\":113:145  address public withdrawalAddress */\n    tag_8:\n      callvalue\n      dup1\n      iszero\n      tag_36\n      jumpi\n      0x00\n      dup1\n      revert\n    tag_36:\n      pop\n      tag_37\n      tag_38\n      jump\t// in\n    tag_37:\n      mload(0x40)\n      tag_39\n      swap2\n      swap1\n      tag_20\n      jump\t// in\n    tag_39:\n      mload(0x40)\n      dup1\n      swap2\n      sub\n      swap1\n      return\n        /* \"challenges/Consorcio/User.sol\":1051:1142  function getAddress() public view returns (address) {\r... */\n    tag_18:\n        /* \"challenges/Consorcio/User.sol\":1094:1101  address */\n      0x00\n        /* \"challenges/Consorcio/User.sol\":1129:1133  this */\n      address\n        /* \"challenges/Consorcio/User.sol\":1114:1134  return address(this) */\n      swap1\n      pop\n        /* \"challenges/Consorcio/User.sol\":1051:1142  function getAddress() public view returns (address) {\r... */\n      swap1\n      jump\t// out\n        /* \"challenges/Consorcio/User.sol\":649:1043  function withdrawal(uint _amount) public {\r... */\n    tag_25:\n        /* \"challenges/Consorcio/User.sol\":748:755  _amount */\n      dup1\n        /* \"challenges/Consorcio/User.sol\":723:744  address(this).balance */\n      selfbalance\n        /* \"challenges/Consorcio/User.sol\":723:755  address(this).balance >= _amount */\n      lt\n      iszero\n        /* \"challenges/Consorcio/User.sol\":701:807  require(\r... */\n      tag_42\n      jumpi\n      mload(0x40)\n      0x08c379a000000000000000000000000000000000000000000000000000000000\n      dup2\n      mstore\n      0x04\n      add\n      tag_43\n      swap1\n      tag_44\n      jump\t// in\n    tag_43:\n      mload(0x40)\n      dup1\n      swap2\n      sub\n      swap1\n      revert\n    tag_42:\n        /* \"challenges/Consorcio/User.sol\":829:841  bool success */\n      0x00\n        /* \"challenges/Consorcio/User.sol\":846:863  withdrawalAddress */\n      0x01\n      0x00\n      swap1\n      sload\n      swap1\n      0x0100\n      exp\n      swap1\n      div\n      0xffffffffffffffffffffffffffffffffffffffff\n      and\n        /* \"challenges/Consorcio/User.sol\":846:868  withdrawalAddress.call */\n      0xffffffffffffffffffffffffffffffffffffffff\n      and\n        /* \"challenges/Consorcio/User.sol\":876:883  _amount */\n      dup3\n        /* \"challenges/Consorcio/User.sol\":846:888  withdrawalAddress.call{value: _amount}(\"\") */\n      mload(0x40)\n      tag_45\n      swap1\n      tag_46\n      jump\t// in\n    tag_45:\n      0x00\n      mload(0x40)\n      dup1\n      dup4\n      sub\n      dup2\n      dup6\n      dup8\n      gas\n      call\n      swap3\n      pop\n      pop\n      pop\n      returndatasize\n      dup1\n      0x00\n      dup2\n      eq\n      tag_49\n      jumpi\n      mload(0x40)\n      swap2\n      pop\n      and(add(returndatasize, 0x3f), not(0x1f))\n      dup3\n      add\n      0x40\n      mstore\n      returndatasize\n      dup3\n      mstore\n      returndatasize\n      0x00\n      0x20\n      dup5\n      add\n      returndatacopy\n      jump(tag_48)\n    tag_49:\n      0x60\n      swap2\n      pop\n    tag_48:\n      pop\n        /* \"challenges/Consorcio/User.sol\":828:888  (bool success,) = withdrawalAddress.call{value: _amount}(\"\") */\n      pop\n      swap1\n      pop\n        /* \"challenges/Consorcio/User.sol\":920:924  true */\n      0x01\n        /* \"challenges/Consorcio/User.sol\":909:924  success == true */\n      iszero\n      iszero\n        /* \"challenges/Consorcio/User.sol\":909:916  success */\n      dup2\n        /* \"challenges/Consorcio/User.sol\":909:924  success == true */\n      iszero\n      iszero\n      eq\n        /* \"challenges/Consorcio/User.sol\":901:974  require(success == true, \"Withdrawal failed. Try again in some minutes.\") */\n      tag_50\n      jumpi\n      mload(0x40)\n      0x08c379a000000000000000000000000000000000000000000000000000000000\n      dup2\n      mstore\n      0x04\n      add\n      tag_51\n      swap1\n      tag_52\n      jump\t// in\n    tag_51:\n      mload(0x40)\n      dup1\n      swap2\n      sub\n      swap1\n      revert\n    tag_50:\n        /* \"challenges/Consorcio/User.sol\":992:1035  WithdrawalSuccessful(address(this).balance) */\n      0x794032702377d1e7eb93381e2467d569394569207a770af85b3222a361126c91\n        /* \"challenges/Consorcio/User.sol\":1013:1034  address(this).balance */\n      selfbalance\n        /* \"challenges/Consorcio/User.sol\":992:1035  WithdrawalSuccessful(address(this).balance) */\n      mload(0x40)\n      tag_53\n      swap2\n      swap1\n      tag_30\n      jump\t// in\n    tag_53:\n      mload(0x40)\n      dup1\n      swap2\n      sub\n      swap1\n      log1\n        /* \"challenges/Consorcio/User.sol\":690:1043  {\r... */\n      pop\n        /* \"challenges/Consorcio/User.sol\":649:1043  function withdrawal(uint _amount) public {\r... */\n      pop\n      jump\t// out\n        /* \"challenges/Consorcio/User.sol\":92:106  uint public id */\n    tag_28:\n      sload(0x00)\n      dup2\n      jump\t// out\n        /* \"challenges/Consorcio/Tenant.sol\":609:729  function deposit() public payable {\r... */\n    tag_32:\n        /* \"challenges/Consorcio/Tenant.sol\":659:721  EtherReceived(msg.value, address(this), address(this).balance) */\n      0x2d27851832fcac28a0d4af1344f01fed7ffcfd15171c14c564a0c42aa57ae5c0\n        /* \"challenges/Consorcio/Tenant.sol\":673:682  msg.value */\n      callvalue\n        /* \"challenges/Consorcio/Tenant.sol\":692:696  this */\n      address\n        /* \"challenges/Consorcio/Tenant.sol\":699:720  address(this).balance */\n      selfbalance\n        /* \"challenges/Consorcio/Tenant.sol\":659:721  EtherReceived(msg.value, address(this), address(this).balance) */\n      mload(0x40)\n      tag_55\n      swap4\n      swap3\n      swap2\n      swap1\n      tag_12\n      jump\t// in\n    tag_55:\n      mload(0x40)\n      dup1\n      swap2\n      sub\n      swap1\n      log1\n        /* \"challenges/Consorcio/Tenant.sol\":609:729  function deposit() public payable {\r... */\n      jump\t// out\n        /* \"challenges/Consorcio/Tenant.sol\":737:1066  function payExpenses() public {\r... */\n    tag_35:\n        /* \"challenges/Consorcio/Tenant.sol\":811:823  servicePrice */\n      sload(0x02)\n        /* \"challenges/Consorcio/Tenant.sol\":786:807  address(this).balance */\n      selfbalance\n        /* \"challenges/Consorcio/Tenant.sol\":786:823  address(this).balance >= servicePrice */\n      lt\n      iszero\n        /* \"challenges/Consorcio/Tenant.sol\":778:846  require(address(this).balance >= servicePrice, \"Insufficient funds\") */\n      tag_57\n      jumpi\n      mload(0x40)\n      0x08c379a000000000000000000000000000000000000000000000000000000000\n      dup2\n      mstore\n      0x04\n      add\n      tag_58\n      swap1\n      tag_59\n      jump\t// in\n    tag_58:\n      mload(0x40)\n      dup1\n      swap2\n      sub\n      swap1\n      revert\n    tag_57:\n        /* \"challenges/Consorcio/Tenant.sol\":868:880  bool success */\n      0x00\n        /* \"challenges/Consorcio/Tenant.sol\":885:901  consorcioAddress */\n      0x04\n      0x00\n      swap1\n      sload\n      swap1\n      0x0100\n      exp\n      swap1\n      div\n      0xffffffffffffffffffffffffffffffffffffffff\n      and\n        /* \"challenges/Consorcio/Tenant.sol\":885:906  consorcioAddress.call */\n      0xffffffffffffffffffffffffffffffffffffffff\n      and\n        /* \"challenges/Consorcio/Tenant.sol\":914:926  servicePrice */\n      sload(0x02)\n        /* \"challenges/Consorcio/Tenant.sol\":885:931  consorcioAddress.call{value: servicePrice}(\"\") */\n      mload(0x40)\n      tag_60\n      swap1\n      tag_46\n      jump\t// in\n    tag_60:\n      0x00\n      mload(0x40)\n      dup1\n      dup4\n      sub\n      dup2\n      dup6\n      dup8\n      gas\n      call\n      swap3\n      pop\n      pop\n      pop\n      returndatasize\n      dup1\n      0x00\n      dup2\n      eq\n      tag_63\n      jumpi\n      mload(0x40)\n      swap2\n      pop\n      and(add(returndatasize, 0x3f), not(0x1f))\n      dup3\n      add\n      0x40\n      mstore\n      returndatasize\n      dup3\n      mstore\n      returndatasize\n      0x00\n      0x20\n      dup5\n      add\n      returndatacopy\n      jump(tag_62)\n    tag_63:\n      0x60\n      swap2\n      pop\n    tag_62:\n      pop\n        /* \"challenges/Consorcio/Tenant.sol\":867:931  (bool success,) = consorcioAddress.call{value: servicePrice}(\"\") */\n      pop\n      swap1\n      pop\n        /* \"challenges/Consorcio/Tenant.sol\":963:967  true */\n      0x01\n        /* \"challenges/Consorcio/Tenant.sol\":952:967  success == true */\n      iszero\n      iszero\n        /* \"challenges/Consorcio/Tenant.sol\":952:959  success */\n      dup2\n        /* \"challenges/Consorcio/Tenant.sol\":952:967  success == true */\n      iszero\n      iszero\n      eq\n        /* \"challenges/Consorcio/Tenant.sol\":944:1014  require(success == true, \"Payment failed. Try again in some minutes.\") */\n      tag_64\n      jumpi\n      mload(0x40)\n      0x08c379a000000000000000000000000000000000000000000000000000000000\n      dup2\n      mstore\n      0x04\n      add\n      tag_65\n      swap1\n      tag_66\n      jump\t// in\n    tag_65:\n      mload(0x40)\n      dup1\n      swap2\n      sub\n      swap1\n      revert\n    tag_64:\n        /* \"challenges/Consorcio/Tenant.sol\":1032:1058  ExpensesPaid(servicePrice) */\n      0x56e1cf8a52e84572ff49b950fa9a1a1867319bf8eba3bf8c77bc4354678a34c5\n        /* \"challenges/Consorcio/Tenant.sol\":1045:1057  servicePrice */\n      sload(0x02)\n        /* \"challenges/Consorcio/Tenant.sol\":1032:1058  ExpensesPaid(servicePrice) */\n      mload(0x40)\n      tag_67\n      swap2\n      swap1\n      tag_30\n      jump\t// in\n    tag_67:\n      mload(0x40)\n      dup1\n      swap2\n      sub\n      swap1\n      log1\n        /* \"challenges/Consorcio/Tenant.sol\":767:1066  {\r... */\n      pop\n        /* \"challenges/Consorcio/Tenant.sol\":737:1066  function payExpenses() public {\r... */\n      jump\t// out\n        /* \"challenges/Consorcio/User.sol\":113:145  address public withdrawalAddress */\n    tag_38:\n      0x01\n      0x00\n      swap1\n      sload\n      swap1\n      0x0100\n      exp\n      swap1\n      div\n      0xffffffffffffffffffffffffffffffffffffffff\n      and\n      dup2\n      jump\t// out\n        /* \"#utility.yul\":7:146   */\n    tag_69:\n        /* \"#utility.yul\":53:58   */\n      0x00\n        /* \"#utility.yul\":91:97   */\n      dup2\n        /* \"#utility.yul\":78:98   */\n      calldataload\n        /* \"#utility.yul\":69:98   */\n      swap1\n      pop\n        /* \"#utility.yul\":107:140   */\n      tag_71\n        /* \"#utility.yul\":134:139   */\n      dup2\n        /* \"#utility.yul\":107:140   */\n      tag_72\n      jump\t// in\n    tag_71:\n        /* \"#utility.yul\":7:146   */\n      swap3\n      swap2\n      pop\n      pop\n      jump\t// out\n        /* \"#utility.yul\":152:481   */\n    tag_24:\n        /* \"#utility.yul\":211:217   */\n      0x00\n        /* \"#utility.yul\":260:262   */\n      0x20\n        /* \"#utility.yul\":248:257   */\n      dup3\n        /* \"#utility.yul\":239:246   */\n      dup5\n        /* \"#utility.yul\":235:258   */\n      sub\n        /* \"#utility.yul\":231:263   */\n      slt\n        /* \"#utility.yul\":228:347   */\n      iszero\n      tag_74\n      jumpi\n        /* \"#utility.yul\":266:345   */\n      tag_75\n      tag_76\n      jump\t// in\n    tag_75:\n        /* \"#utility.yul\":228:347   */\n    tag_74:\n        /* \"#utility.yul\":386:387   */\n      0x00\n        /* \"#utility.yul\":411:464   */\n      tag_77\n        /* \"#utility.yul\":456:463   */\n      dup5\n        /* \"#utility.yul\":447:453   */\n      dup3\n        /* \"#utility.yul\":436:445   */\n      dup6\n        /* \"#utility.yul\":432:454   */\n      add\n        /* \"#utility.yul\":411:464   */\n      tag_69\n      jump\t// in\n    tag_77:\n        /* \"#utility.yul\":401:464   */\n      swap2\n      pop\n        /* \"#utility.yul\":357:474   */\n      pop\n        /* \"#utility.yul\":152:481   */\n      swap3\n      swap2\n      pop\n      pop\n      jump\t// out\n        /* \"#utility.yul\":487:605   */\n    tag_78:\n        /* \"#utility.yul\":574:598   */\n      tag_80\n        /* \"#utility.yul\":592:597   */\n      dup2\n        /* \"#utility.yul\":574:598   */\n      tag_81\n      jump\t// in\n    tag_80:\n        /* \"#utility.yul\":569:572   */\n      dup3\n        /* \"#utility.yul\":562:599   */\n      mstore\n        /* \"#utility.yul\":487:605   */\n      pop\n      pop\n      jump\t// out\n        /* \"#utility.yul\":611:977   */\n    tag_82:\n        /* \"#utility.yul\":753:756   */\n      0x00\n        /* \"#utility.yul\":774:841   */\n      tag_84\n        /* \"#utility.yul\":838:840   */\n      0x12\n        /* \"#utility.yul\":833:836   */\n      dup4\n        /* \"#utility.yul\":774:841   */\n      tag_85\n      jump\t// in\n    tag_84:\n        /* \"#utility.yul\":767:841   */\n      swap2\n      pop\n        /* \"#utility.yul\":850:943   */\n      tag_86\n        /* \"#utility.yul\":939:942   */\n      dup3\n        /* \"#utility.yul\":850:943   */\n      tag_87\n      jump\t// in\n    tag_86:\n        /* \"#utility.yul\":968:970   */\n      0x20\n        /* \"#utility.yul\":963:966   */\n      dup3\n        /* \"#utility.yul\":959:971   */\n      add\n        /* \"#utility.yul\":952:971   */\n      swap1\n      pop\n        /* \"#utility.yul\":611:977   */\n      swap2\n      swap1\n      pop\n      jump\t// out\n        /* \"#utility.yul\":983:1349   */\n    tag_88:\n        /* \"#utility.yul\":1125:1128   */\n      0x00\n        /* \"#utility.yul\":1146:1213   */\n      tag_90\n        /* \"#utility.yul\":1210:1212   */\n      0x2a\n        /* \"#utility.yul\":1205:1208   */\n      dup4\n        /* \"#utility.yul\":1146:1213   */\n      tag_85\n      jump\t// in\n    tag_90:\n        /* \"#utility.yul\":1139:1213   */\n      swap2\n      pop\n        /* \"#utility.yul\":1222:1315   */\n      tag_91\n        /* \"#utility.yul\":1311:1314   */\n      dup3\n        /* \"#utility.yul\":1222:1315   */\n      tag_92\n      jump\t// in\n    tag_91:\n        /* \"#utility.yul\":1340:1342   */\n      0x40\n        /* \"#utility.yul\":1335:1338   */\n      dup3\n        /* \"#utility.yul\":1331:1343   */\n      add\n        /* \"#utility.yul\":1324:1343   */\n      swap1\n      pop\n        /* \"#utility.yul\":983:1349   */\n      swap2\n      swap1\n      pop\n      jump\t// out\n        /* \"#utility.yul\":1355:1721   */\n    tag_93:\n        /* \"#utility.yul\":1497:1500   */\n      0x00\n        /* \"#utility.yul\":1518:1585   */\n      tag_95\n        /* \"#utility.yul\":1582:1584   */\n      0x18\n        /* \"#utility.yul\":1577:1580   */\n      dup4\n        /* \"#utility.yul\":1518:1585   */\n      tag_85\n      jump\t// in\n    tag_95:\n        /* \"#utility.yul\":1511:1585   */\n      swap2\n      pop\n        /* \"#utility.yul\":1594:1687   */\n      tag_96\n        /* \"#utility.yul\":1683:1686   */\n      dup3\n        /* \"#utility.yul\":1594:1687   */\n      tag_97\n      jump\t// in\n    tag_96:\n        /* \"#utility.yul\":1712:1714   */\n      0x20\n        /* \"#utility.yul\":1707:1710   */\n      dup3\n        /* \"#utility.yul\":1703:1715   */\n      add\n        /* \"#utility.yul\":1696:1715   */\n      swap1\n      pop\n        /* \"#utility.yul\":1355:1721   */\n      swap2\n      swap1\n      pop\n      jump\t// out\n        /* \"#utility.yul\":1727:2125   */\n    tag_98:\n        /* \"#utility.yul\":1886:1889   */\n      0x00\n        /* \"#utility.yul\":1907:1990   */\n      tag_100\n        /* \"#utility.yul\":1988:1989   */\n      0x00\n        /* \"#utility.yul\":1983:1986   */\n      dup4\n        /* \"#utility.yul\":1907:1990   */\n      tag_101\n      jump\t// in\n    tag_100:\n        /* \"#utility.yul\":1900:1990   */\n      swap2\n      pop\n        /* \"#utility.yul\":1999:2092   */\n      tag_102\n        /* \"#utility.yul\":2088:2091   */\n      dup3\n        /* \"#utility.yul\":1999:2092   */\n      tag_103\n      jump\t// in\n    tag_102:\n        /* \"#utility.yul\":2117:2118   */\n      0x00\n        /* \"#utility.yul\":2112:2115   */\n      dup3\n        /* \"#utility.yul\":2108:2119   */\n      add\n        /* \"#utility.yul\":2101:2119   */\n      swap1\n      pop\n        /* \"#utility.yul\":1727:2125   */\n      swap2\n      swap1\n      pop\n      jump\t// out\n        /* \"#utility.yul\":2131:2497   */\n    tag_104:\n        /* \"#utility.yul\":2273:2276   */\n      0x00\n        /* \"#utility.yul\":2294:2361   */\n      tag_106\n        /* \"#utility.yul\":2358:2360   */\n      0x2d\n        /* \"#utility.yul\":2353:2356   */\n      dup4\n        /* \"#utility.yul\":2294:2361   */\n      tag_85\n      jump\t// in\n    tag_106:\n        /* \"#utility.yul\":2287:2361   */\n      swap2\n      pop\n        /* \"#utility.yul\":2370:2463   */\n      tag_107\n        /* \"#utility.yul\":2459:2462   */\n      dup3\n        /* \"#utility.yul\":2370:2463   */\n      tag_108\n      jump\t// in\n    tag_107:\n        /* \"#utility.yul\":2488:2490   */\n      0x40\n        /* \"#utility.yul\":2483:2486   */\n      dup3\n        /* \"#utility.yul\":2479:2491   */\n      add\n        /* \"#utility.yul\":2472:2491   */\n      swap1\n      pop\n        /* \"#utility.yul\":2131:2497   */\n      swap2\n      swap1\n      pop\n      jump\t// out\n        /* \"#utility.yul\":2503:2621   */\n    tag_109:\n        /* \"#utility.yul\":2590:2614   */\n      tag_111\n        /* \"#utility.yul\":2608:2613   */\n      dup2\n        /* \"#utility.yul\":2590:2614   */\n      tag_112\n      jump\t// in\n    tag_111:\n        /* \"#utility.yul\":2585:2588   */\n      dup3\n        /* \"#utility.yul\":2578:2615   */\n      mstore\n        /* \"#utility.yul\":2503:2621   */\n      pop\n      pop\n      jump\t// out\n        /* \"#utility.yul\":2627:3006   */\n    tag_46:\n        /* \"#utility.yul\":2811:2814   */\n      0x00\n        /* \"#utility.yul\":2833:2980   */\n      tag_114\n        /* \"#utility.yul\":2976:2979   */\n      dup3\n        /* \"#utility.yul\":2833:2980   */\n      tag_98\n      jump\t// in\n    tag_114:\n        /* \"#utility.yul\":2826:2980   */\n      swap2\n      pop\n        /* \"#utility.yul\":2997:3000   */\n      dup2\n        /* \"#utility.yul\":2990:3000   */\n      swap1\n      pop\n        /* \"#utility.yul\":2627:3006   */\n      swap2\n      swap1\n      pop\n      jump\t// out\n        /* \"#utility.yul\":3012:3234   */\n    tag_20:\n        /* \"#utility.yul\":3105:3109   */\n      0x00\n        /* \"#utility.yul\":3143:3145   */\n      0x20\n        /* \"#utility.yul\":3132:3141   */\n      dup3\n        /* \"#utility.yul\":3128:3146   */\n      add\n        /* \"#utility.yul\":3120:3146   */\n      swap1\n      pop\n        /* \"#utility.yul\":3156:3227   */\n      tag_116\n        /* \"#utility.yul\":3224:3225   */\n      0x00\n        /* \"#utility.yul\":3213:3222   */\n      dup4\n        /* \"#utility.yul\":3209:3226   */\n      add\n        /* \"#utility.yul\":3200:3206   */\n      dup5\n        /* \"#utility.yul\":3156:3227   */\n      tag_78\n      jump\t// in\n    tag_116:\n        /* \"#utility.yul\":3012:3234   */\n      swap3\n      swap2\n      pop\n      pop\n      jump\t// out\n        /* \"#utility.yul\":3240:3659   */\n    tag_59:\n        /* \"#utility.yul\":3406:3410   */\n      0x00\n        /* \"#utility.yul\":3444:3446   */\n      0x20\n        /* \"#utility.yul\":3433:3442   */\n      dup3\n        /* \"#utility.yul\":3429:3447   */\n      add\n        /* \"#utility.yul\":3421:3447   */\n      swap1\n      pop\n        /* \"#utility.yul\":3493:3502   */\n      dup2\n        /* \"#utility.yul\":3487:3491   */\n      dup2\n        /* \"#utility.yul\":3483:3503   */\n      sub\n        /* \"#utility.yul\":3479:3480   */\n      0x00\n        /* \"#utility.yul\":3468:3477   */\n      dup4\n        /* \"#utility.yul\":3464:3481   */\n      add\n        /* \"#utility.yul\":3457:3504   */\n      mstore\n        /* \"#utility.yul\":3521:3652   */\n      tag_118\n        /* \"#utility.yul\":3647:3651   */\n      dup2\n        /* \"#utility.yul\":3521:3652   */\n      tag_82\n      jump\t// in\n    tag_118:\n        /* \"#utility.yul\":3513:3652   */\n      swap1\n      pop\n        /* \"#utility.yul\":3240:3659   */\n      swap2\n      swap1\n      pop\n      jump\t// out\n        /* \"#utility.yul\":3665:4084   */\n    tag_66:\n        /* \"#utility.yul\":3831:3835   */\n      0x00\n        /* \"#utility.yul\":3869:3871   */\n      0x20\n        /* \"#utility.yul\":3858:3867   */\n      dup3\n        /* \"#utility.yul\":3854:3872   */\n      add\n        /* \"#utility.yul\":3846:3872   */\n      swap1\n      pop\n        /* \"#utility.yul\":3918:3927   */\n      dup2\n        /* \"#utility.yul\":3912:3916   */\n      dup2\n        /* \"#utility.yul\":3908:3928   */\n      sub\n        /* \"#utility.yul\":3904:3905   */\n      0x00\n        /* \"#utility.yul\":3893:3902   */\n      dup4\n        /* \"#utility.yul\":3889:3906   */\n      add\n        /* \"#utility.yul\":3882:3929   */\n      mstore\n        /* \"#utility.yul\":3946:4077   */\n      tag_120\n        /* \"#utility.yul\":4072:4076   */\n      dup2\n        /* \"#utility.yul\":3946:4077   */\n      tag_88\n      jump\t// in\n    tag_120:\n        /* \"#utility.yul\":3938:4077   */\n      swap1\n      pop\n        /* \"#utility.yul\":3665:4084   */\n      swap2\n      swap1\n      pop\n      jump\t// out\n        /* \"#utility.yul\":4090:4509   */\n    tag_44:\n        /* \"#utility.yul\":4256:4260   */\n      0x00\n        /* \"#utility.yul\":4294:4296   */\n      0x20\n        /* \"#utility.yul\":4283:4292   */\n      dup3\n        /* \"#utility.yul\":4279:4297   */\n      add\n        /* \"#utility.yul\":4271:4297   */\n      swap1\n      pop\n        /* \"#utility.yul\":4343:4352   */\n      dup2\n        /* \"#utility.yul\":4337:4341   */\n      dup2\n        /* \"#utility.yul\":4333:4353   */\n      sub\n        /* \"#utility.yul\":4329:4330   */\n      0x00\n        /* \"#utility.yul\":4318:4327   */\n      dup4\n        /* \"#utility.yul\":4314:4331   */\n      add\n        /* \"#utility.yul\":4307:4354   */\n      mstore\n        /* \"#utility.yul\":4371:4502   */\n      tag_122\n        /* \"#utility.yul\":4497:4501   */\n      dup2\n        /* \"#utility.yul\":4371:4502   */\n      tag_93\n      jump\t// in\n    tag_122:\n        /* \"#utility.yul\":4363:4502   */\n      swap1\n      pop\n        /* \"#utility.yul\":4090:4509   */\n      swap2\n      swap1\n      pop\n      jump\t// out\n        /* \"#utility.yul\":4515:4934   */\n    tag_52:\n        /* \"#utility.yul\":4681:4685   */\n      0x00\n        /* \"#utility.yul\":4719:4721   */\n      0x20\n        /* \"#utility.yul\":4708:4717   */\n      dup3\n        /* \"#utility.yul\":4704:4722   */\n      add\n        /* \"#utility.yul\":4696:4722   */\n      swap1\n      pop\n        /* \"#utility.yul\":4768:4777   */\n      dup2\n        /* \"#utility.yul\":4762:4766   */\n      dup2\n        /* \"#utility.yul\":4758:4778   */\n      sub\n        /* \"#utility.yul\":4754:4755   */\n      0x00\n        /* \"#utility.yul\":4743:4752   */\n      dup4\n        /* \"#utility.yul\":4739:4756   */\n      add\n        /* \"#utility.yul\":4732:4779   */\n      mstore\n        /* \"#utility.yul\":4796:4927   */\n      tag_124\n        /* \"#utility.yul\":4922:4926   */\n      dup2\n        /* \"#utility.yul\":4796:4927   */\n      tag_104\n      jump\t// in\n    tag_124:\n        /* \"#utility.yul\":4788:4927   */\n      swap1\n      pop\n        /* \"#utility.yul\":4515:4934   */\n      swap2\n      swap1\n      pop\n      jump\t// out\n        /* \"#utility.yul\":4940:5162   */\n    tag_30:\n        /* \"#utility.yul\":5033:5037   */\n      0x00\n        /* \"#utility.yul\":5071:5073   */\n      0x20\n        /* \"#utility.yul\":5060:5069   */\n      dup3\n        /* \"#utility.yul\":5056:5074   */\n      add\n        /* \"#utility.yul\":5048:5074   */\n      swap1\n      pop\n        /* \"#utility.yul\":5084:5155   */\n      tag_126\n        /* \"#utility.yul\":5152:5153   */\n      0x00\n        /* \"#utility.yul\":5141:5150   */\n      dup4\n        /* \"#utility.yul\":5137:5154   */\n      add\n        /* \"#utility.yul\":5128:5134   */\n      dup5\n        /* \"#utility.yul\":5084:5155   */\n      tag_109\n      jump\t// in\n    tag_126:\n        /* \"#utility.yul\":4940:5162   */\n      swap3\n      swap2\n      pop\n      pop\n      jump\t// out\n        /* \"#utility.yul\":5168:5610   */\n    tag_12:\n        /* \"#utility.yul\":5317:5321   */\n      0x00\n        /* \"#utility.yul\":5355:5357   */\n      0x60\n        /* \"#utility.yul\":5344:5353   */\n      dup3\n        /* \"#utility.yul\":5340:5358   */\n      add\n        /* \"#utility.yul\":5332:5358   */\n      swap1\n      pop\n        /* \"#utility.yul\":5368:5439   */\n      tag_128\n        /* \"#utility.yul\":5436:5437   */\n      0x00\n        /* \"#utility.yul\":5425:5434   */\n      dup4\n        /* \"#utility.yul\":5421:5438   */\n      add\n        /* \"#utility.yul\":5412:5418   */\n      dup7\n        /* \"#utility.yul\":5368:5439   */\n      tag_109\n      jump\t// in\n    tag_128:\n        /* \"#utility.yul\":5449:5521   */\n      tag_129\n        /* \"#utility.yul\":5517:5519   */\n      0x20\n        /* \"#utility.yul\":5506:5515   */\n      dup4\n        /* \"#utility.yul\":5502:5520   */\n      add\n        /* \"#utility.yul\":5493:5499   */\n      dup6\n        /* \"#utility.yul\":5449:5521   */\n      tag_78\n      jump\t// in\n    tag_129:\n        /* \"#utility.yul\":5531:5603   */\n      tag_130\n        /* \"#utility.yul\":5599:5601   */\n      0x40\n        /* \"#utility.yul\":5588:5597   */\n      dup4\n        /* \"#utility.yul\":5584:5602   */\n      add\n        /* \"#utility.yul\":5575:5581   */\n      dup5\n        /* \"#utility.yul\":5531:5603   */\n      tag_109\n      jump\t// in\n    tag_130:\n        /* \"#utility.yul\":5168:5610   */\n      swap5\n      swap4\n      pop\n      pop\n      pop\n      pop\n      jump\t// out\n        /* \"#utility.yul\":5697:5844   */\n    tag_101:\n        /* \"#utility.yul\":5798:5809   */\n      0x00\n        /* \"#utility.yul\":5835:5838   */\n      dup2\n        /* \"#utility.yul\":5820:5838   */\n      swap1\n      pop\n        /* \"#utility.yul\":5697:5844   */\n      swap3\n      swap2\n      pop\n      pop\n      jump\t// out\n        /* \"#utility.yul\":5850:6019   */\n    tag_85:\n        /* \"#utility.yul\":5934:5945   */\n      0x00\n        /* \"#utility.yul\":5968:5974   */\n      dup3\n        /* \"#utility.yul\":5963:5966   */\n      dup3\n        /* \"#utility.yul\":5956:5975   */\n      mstore\n        /* \"#utility.yul\":6008:6012   */\n      0x20\n        /* \"#utility.yul\":6003:6006   */\n      dup3\n        /* \"#utility.yul\":5999:6013   */\n      add\n        /* \"#utility.yul\":5984:6013   */\n      swap1\n      pop\n        /* \"#utility.yul\":5850:6019   */\n      swap3\n      swap2\n      pop\n      pop\n      jump\t// out\n        /* \"#utility.yul\":6025:6121   */\n    tag_81:\n        /* \"#utility.yul\":6062:6069   */\n      0x00\n        /* \"#utility.yul\":6091:6115   */\n      tag_136\n        /* \"#utility.yul\":6109:6114   */\n      dup3\n        /* \"#utility.yul\":6091:6115   */\n      tag_137\n      jump\t// in\n    tag_136:\n        /* \"#utility.yul\":6080:6115   */\n      swap1\n      pop\n        /* \"#utility.yul\":6025:6121   */\n      swap2\n      swap1\n      pop\n      jump\t// out\n        /* \"#utility.yul\":6127:6253   */\n    tag_137:\n        /* \"#utility.yul\":6164:6171   */\n      0x00\n        /* \"#utility.yul\":6204:6246   */\n      0xffffffffffffffffffffffffffffffffffffffff\n        /* \"#utility.yul\":6197:6202   */\n      dup3\n        /* \"#utility.yul\":6193:6247   */\n      and\n        /* \"#utility.yul\":6182:6247   */\n      swap1\n      pop\n        /* \"#utility.yul\":6127:6253   */\n      swap2\n      swap1\n      pop\n      jump\t// out\n        /* \"#utility.yul\":6259:6336   */\n    tag_112:\n        /* \"#utility.yul\":6296:6303   */\n      0x00\n        /* \"#utility.yul\":6325:6330   */\n      dup2\n        /* \"#utility.yul\":6314:6330   */\n      swap1\n      pop\n        /* \"#utility.yul\":6259:6336   */\n      swap2\n      swap1\n      pop\n      jump\t// out\n        /* \"#utility.yul\":6465:6582   */\n    tag_76:\n        /* \"#utility.yul\":6574:6575   */\n      0x00\n        /* \"#utility.yul\":6571:6572   */\n      dup1\n        /* \"#utility.yul\":6564:6576   */\n      revert\n        /* \"#utility.yul\":6588:6756   */\n    tag_87:\n        /* \"#utility.yul\":6728:6748   */\n      0x496e73756666696369656e742066756e64730000000000000000000000000000\n        /* \"#utility.yul\":6724:6725   */\n      0x00\n        /* \"#utility.yul\":6716:6722   */\n      dup3\n        /* \"#utility.yul\":6712:6726   */\n      add\n        /* \"#utility.yul\":6705:6749   */\n      mstore\n        /* \"#utility.yul\":6588:6756   */\n      pop\n      jump\t// out\n        /* \"#utility.yul\":6762:6991   */\n    tag_92:\n        /* \"#utility.yul\":6902:6936   */\n      0x5061796d656e74206661696c65642e2054727920616761696e20696e20736f6d\n        /* \"#utility.yul\":6898:6899   */\n      0x00\n        /* \"#utility.yul\":6890:6896   */\n      dup3\n        /* \"#utility.yul\":6886:6900   */\n      add\n        /* \"#utility.yul\":6879:6937   */\n      mstore\n        /* \"#utility.yul\":6971:6983   */\n      0x65206d696e757465732e00000000000000000000000000000000000000000000\n        /* \"#utility.yul\":6966:6968   */\n      0x20\n        /* \"#utility.yul\":6958:6964   */\n      dup3\n        /* \"#utility.yul\":6954:6969   */\n      add\n        /* \"#utility.yul\":6947:6984   */\n      mstore\n        /* \"#utility.yul\":6762:6991   */\n      pop\n      jump\t// out\n        /* \"#utility.yul\":6997:7171   */\n    tag_97:\n        /* \"#utility.yul\":7137:7163   */\n      0x557365723a20496e73756666696369656e742066756e64730000000000000000\n        /* \"#utility.yul\":7133:7134   */\n      0x00\n        /* \"#utility.yul\":7125:7131   */\n      dup3\n        /* \"#utility.yul\":7121:7135   */\n      add\n        /* \"#utility.yul\":7114:7164   */\n      mstore\n        /* \"#utility.yul\":6997:7171   */\n      pop\n      jump\t// out\n        /* \"#utility.yul\":7177:7291   */\n    tag_103:\n      pop\n      jump\t// out\n        /* \"#utility.yul\":7297:7529   */\n    tag_108:\n        /* \"#utility.yul\":7437:7471   */\n      0x5769746864726177616c206661696c65642e2054727920616761696e20696e20\n        /* \"#utility.yul\":7433:7434   */\n      0x00\n        /* \"#utility.yul\":7425:7431   */\n      dup3\n        /* \"#utility.yul\":7421:7435   */\n      add\n        /* \"#utility.yul\":7414:7472   */\n      mstore\n        /* \"#utility.yul\":7506:7521   */\n      0x736f6d65206d696e757465732e00000000000000000000000000000000000000\n        /* \"#utility.yul\":7501:7503   */\n      0x20\n        /* \"#utility.yul\":7493:7499   */\n      dup3\n        /* \"#utility.yul\":7489:7504   */\n      add\n        /* \"#utility.yul\":7482:7522   */\n      mstore\n        /* \"#utility.yul\":7297:7529   */\n      pop\n      jump\t// out\n        /* \"#utility.yul\":7535:7657   */\n    tag_72:\n        /* \"#utility.yul\":7608:7632   */\n      tag_149\n        /* \"#utility.yul\":7626:7631   */\n      dup2\n        /* \"#utility.yul\":7608:7632   */\n      tag_112\n      jump\t// in\n    tag_149:\n        /* \"#utility.yul\":7601:7606   */\n      dup2\n        /* \"#utility.yul\":7598:7633   */\n      eq\n        /* \"#utility.yul\":7588:7651   */\n      tag_150\n      jumpi\n        /* \"#utility.yul\":7647:7648   */\n      0x00\n        /* \"#utility.yul\":7644:7645   */\n      dup1\n        /* \"#utility.yul\":7637:7649   */\n      revert\n        /* \"#utility.yul\":7588:7651   */\n    tag_150:\n        /* \"#utility.yul\":7535:7657   */\n      pop\n      jump\t// out\n\n    auxdata: 0xa2646970667358221220c17d509b097b52b946c9c19b53e5fb525fd9e1a3be38560da190a0f59eaa38bb64736f6c63430008070033\n}\n",
				"bytecode": {
					"linkReferences": {},
					"object": "6080604052604051610a5a380380610a5a833981810160405281019061002591906100f4565b84848160008190555080600160006101000a81548173ffffffffffffffffffffffffffffffffffffffff021916908373ffffffffffffffffffffffffffffffffffffffff1602179055505050826002819055508160038190555080600460006101000a81548173ffffffffffffffffffffffffffffffffffffffff021916908373ffffffffffffffffffffffffffffffffffffffff16021790555050505050506101de565b6000815190506100d9816101b0565b92915050565b6000815190506100ee816101c7565b92915050565b600080600080600060a086880312156101105761010f6101ab565b5b600061011e888289016100df565b955050602061012f888289016100ca565b9450506040610140888289016100df565b9350506060610151888289016100df565b9250506080610162888289016100ca565b9150509295509295909350565b600061017a82610181565b9050919050565b600073ffffffffffffffffffffffffffffffffffffffff82169050919050565b6000819050919050565b600080fd5b6101b98161016f565b81146101c457600080fd5b50565b6101d0816101a1565b81146101db57600080fd5b50565b61086d806101ed6000396000f3fe6080604052600436106100595760003560e01c806338cc4831146100d8578063835fc6ca14610103578063af640d0f1461012c578063d0e30db014610157578063da6e75c214610161578063f2bcd022146101785761009b565b3661009b577f2d27851832fcac28a0d4af1344f01fed7ffcfd15171c14c564a0c42aa57ae5c034304760405161009193929190610699565b60405180910390a1005b7f2d27851832fcac28a0d4af1344f01fed7ffcfd15171c14c564a0c42aa57ae5c03430476040516100ce93929190610699565b60405180910390a1005b3480156100e457600080fd5b506100ed6101a3565b6040516100fa91906105e3565b60405180910390f35b34801561010f57600080fd5b5061012a600480360381019061012591906104d4565b6101ab565b005b34801561013857600080fd5b506101416102fe565b60405161014e919061067e565b60405180910390f35b61015f610304565b005b34801561016d57600080fd5b50610176610341565b005b34801561018457600080fd5b5061018d610499565b60405161019a91906105e3565b60405180910390f35b600030905090565b804710156101ee576040517f08c379a00000000000000000000000000000000000000000000000000000000081526004016101e59061063e565b60405180910390fd5b6000600160009054906101000a900473ffffffffffffffffffffffffffffffffffffffff1673ffffffffffffffffffffffffffffffffffffffff1682604051610236906105ce565b60006040518083038185875af1925050503d8060008114610273576040519150601f19603f3d011682016040523d82523d6000602084013e610278565b606091505b5050905060011515811515146102c3576040517f08c379a00000000000000000000000000000000000000000000000000000000081526004016102ba9061065e565b60405180910390fd5b7f794032702377d1e7eb93381e2467d569394569207a770af85b3222a361126c91476040516102f2919061067e565b60405180910390a15050565b60005481565b7f2d27851832fcac28a0d4af1344f01fed7ffcfd15171c14c564a0c42aa57ae5c034304760405161033793929190610699565b60405180910390a1565b600254471015610386576040517f08c379a000000000000000000000000000000000000000000000000000000000815260040161037d906105fe565b60405180910390fd5b6000600460009054906101000a900473ffffffffffffffffffffffffffffffffffffffff1673ffffffffffffffffffffffffffffffffffffffff166002546040516103d0906105ce565b60006040518083038185875af1925050503d806000811461040d576040519150601f19603f3d011682016040523d82523d6000602084013e610412565b606091505b50509050600115158115151461045d576040517f08c379a00000000000000000000000000000000000000000000000000000000081526004016104549061061e565b60405180910390fd5b7f56e1cf8a52e84572ff49b950fa9a1a1867319bf8eba3bf8c77bc4354678a34c560025460405161048e919061067e565b60405180910390a150565b600160009054906101000a900473ffffffffffffffffffffffffffffffffffffffff1681565b6000813590506104ce81610820565b92915050565b6000602082840312156104ea576104e9610728565b5b60006104f8848285016104bf565b91505092915050565b61050a816106ec565b82525050565b600061051d6012836106db565b91506105288261072d565b602082019050919050565b6000610540602a836106db565b915061054b82610756565b604082019050919050565b60006105636018836106db565b915061056e826107a5565b602082019050919050565b60006105866000836106d0565b9150610591826107ce565b600082019050919050565b60006105a9602d836106db565b91506105b4826107d1565b604082019050919050565b6105c88161071e565b82525050565b60006105d982610579565b9150819050919050565b60006020820190506105f86000830184610501565b92915050565b6000602082019050818103600083015261061781610510565b9050919050565b6000602082019050818103600083015261063781610533565b9050919050565b6000602082019050818103600083015261065781610556565b9050919050565b600060208201905081810360008301526106778161059c565b9050919050565b600060208201905061069360008301846105bf565b92915050565b60006060820190506106ae60008301866105bf565b6106bb6020830185610501565b6106c860408301846105bf565b949350505050565b600081905092915050565b600082825260208201905092915050565b60006106f7826106fe565b9050919050565b600073ffffffffffffffffffffffffffffffffffffffff82169050919050565b6000819050919050565b600080fd5b7f496e73756666696369656e742066756e64730000000000000000000000000000600082015250565b7f5061796d656e74206661696c65642e2054727920616761696e20696e20736f6d60008201527f65206d696e757465732e00000000000000000000000000000000000000000000602082015250565b7f557365723a20496e73756666696369656e742066756e64730000000000000000600082015250565b50565b7f5769746864726177616c206661696c65642e2054727920616761696e20696e2060008201527f736f6d65206d696e757465732e00000000000000000000000000000000000000602082015250565b6108298161071e565b811461083457600080fd5b5056fea2646970667358221220c17d509b097b52b946c9c19b53e5fb525fd9e1a3be38560da190a0f59eaa38bb64736f6c63430008070033",
					"opcodes": "PUSH1 0x80 PUSH1 0x40 MSTORE PUSH1 0x40 MLOAD PUSH2 0xA5A CODESIZE SUB DUP1 PUSH2 0xA5A DUP4 CODECOPY DUP2 DUP2 ADD PUSH1 0x40 MSTORE DUP2 ADD SWAP1 PUSH2 0x25 SWAP2 SWAP1 PUSH2 0xF4 JUMP JUMPDEST DUP5 DUP5 DUP2 PUSH1 0x0 DUP2 SWAP1 SSTORE POP DUP1 PUSH1 0x1 PUSH1 0x0 PUSH2 0x100 EXP DUP2 SLOAD DUP2 PUSH20 0xFFFFFFFFFFFFFFFFFFFFFFFFFFFFFFFFFFFFFFFF MUL NOT AND SWAP1 DUP4 PUSH20 0xFFFFFFFFFFFFFFFFFFFFFFFFFFFFFFFFFFFFFFFF AND MUL OR SWAP1 SSTORE POP POP POP DUP3 PUSH1 0x2 DUP2 SWAP1 SSTORE POP DUP2 PUSH1 0x3 DUP2 SWAP1 SSTORE POP DUP1 PUSH1 0x4 PUSH1 0x0 PUSH2 0x100 EXP DUP2 SLOAD DUP2 PUSH20 0xFFFFFFFFFFFFFFFFFFFFFFFFFFFFFFFFFFFFFFFF MUL NOT AND SWAP1 DUP4 PUSH20 0xFFFFFFFFFFFFFFFFFFFFFFFFFFFFFFFFFFFFFFFF AND MUL OR SWAP1 SSTORE POP POP POP POP POP POP PUSH2 0x1DE JUMP JUMPDEST PUSH1 0x0 DUP2 MLOAD SWAP1 POP PUSH2 0xD9 DUP2 PUSH2 0x1B0 JUMP JUMPDEST SWAP3 SWAP2 POP POP JUMP JUMPDEST PUSH1 0x0 DUP2 MLOAD SWAP1 POP PUSH2 0xEE DUP2 PUSH2 0x1C7 JUMP JUMPDEST SWAP3 SWAP2 POP POP JUMP JUMPDEST PUSH1 0x0 DUP1 PUSH1 0x0 DUP1 PUSH1 0x0 PUSH1 0xA0 DUP7 DUP9 SUB SLT ISZERO PUSH2 0x110 JUMPI PUSH2 0x10F PUSH2 0x1AB JUMP JUMPDEST JUMPDEST PUSH1 0x0 PUSH2 0x11E DUP9 DUP3 DUP10 ADD PUSH2 0xDF JUMP JUMPDEST SWAP6 POP POP PUSH1 0x20 PUSH2 0x12F DUP9 DUP3 DUP10 ADD PUSH2 0xCA JUMP JUMPDEST SWAP5 POP POP PUSH1 0x40 PUSH2 0x140 DUP9 DUP3 DUP10 ADD PUSH2 0xDF JUMP JUMPDEST SWAP4 POP POP PUSH1 0x60 PUSH2 0x151 DUP9 DUP3 DUP10 ADD PUSH2 0xDF JUMP JUMPDEST SWAP3 POP POP PUSH1 0x80 PUSH2 0x162 DUP9 DUP3 DUP10 ADD PUSH2 0xCA JUMP JUMPDEST SWAP2 POP POP SWAP3 SWAP6 POP SWAP3 SWAP6 SWAP1 SWAP4 POP JUMP JUMPDEST PUSH1 0x0 PUSH2 0x17A DUP3 PUSH2 0x181 JUMP JUMPDEST SWAP1 POP SWAP2 SWAP1 POP JUMP JUMPDEST PUSH1 0x0 PUSH20 0xFFFFFFFFFFFFFFFFFFFFFFFFFFFFFFFFFFFFFFFF DUP3 AND SWAP1 POP SWAP2 SWAP1 POP JUMP JUMPDEST PUSH1 0x0 DUP2 SWAP1 POP SWAP2 SWAP1 POP JUMP JUMPDEST PUSH1 0x0 DUP1 REVERT JUMPDEST PUSH2 0x1B9 DUP2 PUSH2 0x16F JUMP JUMPDEST DUP2 EQ PUSH2 0x1C4 JUMPI PUSH1 0x0 DUP1 REVERT JUMPDEST POP JUMP JUMPDEST PUSH2 0x1D0 DUP2 PUSH2 0x1A1 JUMP JUMPDEST DUP2 EQ PUSH2 0x1DB JUMPI PUSH1 0x0 DUP1 REVERT JUMPDEST POP JUMP JUMPDEST PUSH2 0x86D DUP1 PUSH2 0x1ED PUSH1 0x0 CODECOPY PUSH1 0x0 RETURN INVALID PUSH1 0x80 PUSH1 0x40 MSTORE PUSH1 0x4 CALLDATASIZE LT PUSH2 0x59 JUMPI PUSH1 0x0 CALLDATALOAD PUSH1 0xE0 SHR DUP1 PUSH4 0x38CC4831 EQ PUSH2 0xD8 JUMPI DUP1 PUSH4 0x835FC6CA EQ PUSH2 0x103 JUMPI DUP1 PUSH4 0xAF640D0F EQ PUSH2 0x12C JUMPI DUP1 PUSH4 0xD0E30DB0 EQ PUSH2 0x157 JUMPI DUP1 PUSH4 0xDA6E75C2 EQ PUSH2 0x161 JUMPI DUP1 PUSH4 0xF2BCD022 EQ PUSH2 0x178 JUMPI PUSH2 0x9B JUMP JUMPDEST CALLDATASIZE PUSH2 0x9B JUMPI PUSH32 0x2D27851832FCAC28A0D4AF1344F01FED7FFCFD15171C14C564A0C42AA57AE5C0 CALLVALUE ADDRESS SELFBALANCE PUSH1 0x40 MLOAD PUSH2 0x91 SWAP4 SWAP3 SWAP2 SWAP1 PUSH2 0x699 JUMP JUMPDEST PUSH1 0x40 MLOAD DUP1 SWAP2 SUB SWAP1 LOG1 STOP JUMPDEST PUSH32 0x2D27851832FCAC28A0D4AF1344F01FED7FFCFD15171C14C564A0C42AA57AE5C0 CALLVALUE ADDRESS SELFBALANCE PUSH1 0x40 MLOAD PUSH2 0xCE SWAP4 SWAP3 SWAP2 SWAP1 PUSH2 0x699 JUMP JUMPDEST PUSH1 0x40 MLOAD DUP1 SWAP2 SUB SWAP1 LOG1 STOP JUMPDEST CALLVALUE DUP1 ISZERO PUSH2 0xE4 JUMPI PUSH1 0x0 DUP1 REVERT JUMPDEST POP PUSH2 0xED PUSH2 0x1A3 JUMP JUMPDEST PUSH1 0x40 MLOAD PUSH2 0xFA SWAP2 SWAP1 PUSH2 0x5E3 JUMP JUMPDEST PUSH1 0x40 MLOAD DUP1 SWAP2 SUB SWAP1 RETURN JUMPDEST CALLVALUE DUP1 ISZERO PUSH2 0x10F JUMPI PUSH1 0x0 DUP1 REVERT JUMPDEST POP PUSH2 0x12A PUSH1 0x4 DUP1 CALLDATASIZE SUB DUP2 ADD SWAP1 PUSH2 0x125 SWAP2 SWAP1 PUSH2 0x4D4 JUMP JUMPDEST PUSH2 0x1AB JUMP JUMPDEST STOP JUMPDEST CALLVALUE DUP1 ISZERO PUSH2 0x138 JUMPI PUSH1 0x0 DUP1 REVERT JUMPDEST POP PUSH2 0x141 PUSH2 0x2FE JUMP JUMPDEST PUSH1 0x40 MLOAD PUSH2 0x14E SWAP2 SWAP1 PUSH2 0x67E JUMP JUMPDEST PUSH1 0x40 MLOAD DUP1 SWAP2 SUB SWAP1 RETURN JUMPDEST PUSH2 0x15F PUSH2 0x304 JUMP JUMPDEST STOP JUMPDEST CALLVALUE DUP1 ISZERO PUSH2 0x16D JUMPI PUSH1 0x0 DUP1 REVERT JUMPDEST POP PUSH2 0x176 PUSH2 0x341 JUMP JUMPDEST STOP JUMPDEST CALLVALUE DUP1 ISZERO PUSH2 0x184 JUMPI PUSH1 0x0 DUP1 REVERT JUMPDEST POP PUSH2 0x18D PUSH2 0x499 JUMP JUMPDEST PUSH1 0x40 MLOAD PUSH2 0x19A SWAP2 SWAP1 PUSH2 0x5E3 JUMP JUMPDEST PUSH1 0x40 MLOAD DUP1 SWAP2 SUB SWAP1 RETURN JUMPDEST PUSH1 0x0 ADDRESS SWAP1 POP SWAP1 JUMP JUMPDEST DUP1 SELFBALANCE LT ISZERO PUSH2 0x1EE JUMPI PUSH1 0x40 MLOAD PUSH32 0x8C379A000000000000000000000000000000000000000000000000000000000 DUP2 MSTORE PUSH1 0x4 ADD PUSH2 0x1E5 SWAP1 PUSH2 0x63E JUMP JUMPDEST PUSH1 0x40 MLOAD DUP1 SWAP2 SUB SWAP1 REVERT JUMPDEST PUSH1 0x0 PUSH1 0x1 PUSH1 0x0 SWAP1 SLOAD SWAP1 PUSH2 0x100 EXP SWAP1 DIV PUSH20 0xFFFFFFFFFFFFFFFFFFFFFFFFFFFFFFFFFFFFFFFF AND PUSH20 0xFFFFFFFFFFFFFFFFFFFFFFFFFFFFFFFFFFFFFFFF AND DUP3 PUSH1 0x40 MLOAD PUSH2 0x236 SWAP1 PUSH2 0x5CE JUMP JUMPDEST PUSH1 0x0 PUSH1 0x40 MLOAD DUP1 DUP4 SUB DUP2 DUP6 DUP8 GAS CALL SWAP3 POP POP POP RETURNDATASIZE DUP1 PUSH1 0x0 DUP2 EQ PUSH2 0x273 JUMPI PUSH1 0x40 MLOAD SWAP2 POP PUSH1 0x1F NOT PUSH1 0x3F RETURNDATASIZE ADD AND DUP3 ADD PUSH1 0x40 MSTORE RETURNDATASIZE DUP3 MSTORE RETURNDATASIZE PUSH1 0x0 PUSH1 0x20 DUP5 ADD RETURNDATACOPY PUSH2 0x278 JUMP JUMPDEST PUSH1 0x60 SWAP2 POP JUMPDEST POP POP SWAP1 POP PUSH1 0x1 ISZERO ISZERO DUP2 ISZERO ISZERO EQ PUSH2 0x2C3 JUMPI PUSH1 0x40 MLOAD PUSH32 0x8C379A000000000000000000000000000000000000000000000000000000000 DUP2 MSTORE PUSH1 0x4 ADD PUSH2 0x2BA SWAP1 PUSH2 0x65E JUMP JUMPDEST PUSH1 0x40 MLOAD DUP1 SWAP2 SUB SWAP1 REVERT JUMPDEST PUSH32 0x794032702377D1E7EB93381E2467D569394569207A770AF85B3222A361126C91 SELFBALANCE PUSH1 0x40 MLOAD PUSH2 0x2F2 SWAP2 SWAP1 PUSH2 0x67E JUMP JUMPDEST PUSH1 0x40 MLOAD DUP1 SWAP2 SUB SWAP1 LOG1 POP POP JUMP JUMPDEST PUSH1 0x0 SLOAD DUP2 JUMP JUMPDEST PUSH32 0x2D27851832FCAC28A0D4AF1344F01FED7FFCFD15171C14C564A0C42AA57AE5C0 CALLVALUE ADDRESS SELFBALANCE PUSH1 0x40 MLOAD PUSH2 0x337 SWAP4 SWAP3 SWAP2 SWAP1 PUSH2 0x699 JUMP JUMPDEST PUSH1 0x40 MLOAD DUP1 SWAP2 SUB SWAP1 LOG1 JUMP JUMPDEST PUSH1 0x2 SLOAD SELFBALANCE LT ISZERO PUSH2 0x386 JUMPI PUSH1 0x40 MLOAD PUSH32 0x8C379A000000000000000000000000000000000000000000000000000000000 DUP2 MSTORE PUSH1 0x4 ADD PUSH2 0x37D SWAP1 PUSH2 0x5FE JUMP JUMPDEST PUSH1 0x40 MLOAD DUP1 SWAP2 SUB SWAP1 REVERT JUMPDEST PUSH1 0x0 PUSH1 0x4 PUSH1 0x0 SWAP1 SLOAD SWAP1 PUSH2 0x100 EXP SWAP1 DIV PUSH20 0xFFFFFFFFFFFFFFFFFFFFFFFFFFFFFFFFFFFFFFFF AND PUSH20 0xFFFFFFFFFFFFFFFFFFFFFFFFFFFFFFFFFFFFFFFF AND PUSH1 0x2 SLOAD PUSH1 0x40 MLOAD PUSH2 0x3D0 SWAP1 PUSH2 0x5CE JUMP JUMPDEST PUSH1 0x0 PUSH1 0x40 MLOAD DUP1 DUP4 SUB DUP2 DUP6 DUP8 GAS CALL SWAP3 POP POP POP RETURNDATASIZE DUP1 PUSH1 0x0 DUP2 EQ PUSH2 0x40D JUMPI PUSH1 0x40 MLOAD SWAP2 POP PUSH1 0x1F NOT PUSH1 0x3F RETURNDATASIZE ADD AND DUP3 ADD PUSH1 0x40 MSTORE RETURNDATASIZE DUP3 MSTORE RETURNDATASIZE PUSH1 0x0 PUSH1 0x20 DUP5 ADD RETURNDATACOPY PUSH2 0x412 JUMP JUMPDEST PUSH1 0x60 SWAP2 POP JUMPDEST POP POP SWAP1 POP PUSH1 0x1 ISZERO ISZERO DUP2 ISZERO ISZERO EQ PUSH2 0x45D JUMPI PUSH1 0x40 MLOAD PUSH32 0x8C379A000000000000000000000000000000000000000000000000000000000 DUP2 MSTORE PUSH1 0x4 ADD PUSH2 0x454 SWAP1 PUSH2 0x61E JUMP JUMPDEST PUSH1 0x40 MLOAD DUP1 SWAP2 SUB SWAP1 REVERT JUMPDEST PUSH32 0x56E1CF8A52E84572FF49B950FA9A1A1867319BF8EBA3BF8C77BC4354678A34C5 PUSH1 0x2 SLOAD PUSH1 0x40 MLOAD PUSH2 0x48E SWAP2 SWAP1 PUSH2 0x67E JUMP JUMPDEST PUSH1 0x40 MLOAD DUP1 SWAP2 SUB SWAP1 LOG1 POP JUMP JUMPDEST PUSH1 0x1 PUSH1 0x0 SWAP1 SLOAD SWAP1 PUSH2 0x100 EXP SWAP1 DIV PUSH20 0xFFFFFFFFFFFFFFFFFFFFFFFFFFFFFFFFFFFFFFFF AND DUP2 JUMP JUMPDEST PUSH1 0x0 DUP2 CALLDATALOAD SWAP1 POP PUSH2 0x4CE DUP2 PUSH2 0x820 JUMP JUMPDEST SWAP3 SWAP2 POP POP JUMP JUMPDEST PUSH1 0x0 PUSH1 0x20 DUP3 DUP5 SUB SLT ISZERO PUSH2 0x4EA JUMPI PUSH2 0x4E9 PUSH2 0x728 JUMP JUMPDEST JUMPDEST PUSH1 0x0 PUSH2 0x4F8 DUP5 DUP3 DUP6 ADD PUSH2 0x4BF JUMP JUMPDEST SWAP2 POP POP SWAP3 SWAP2 POP POP JUMP JUMPDEST PUSH2 0x50A DUP2 PUSH2 0x6EC JUMP JUMPDEST DUP3 MSTORE POP POP JUMP JUMPDEST PUSH1 0x0 PUSH2 0x51D PUSH1 0x12 DUP4 PUSH2 0x6DB JUMP JUMPDEST SWAP2 POP PUSH2 0x528 DUP3 PUSH2 0x72D JUMP JUMPDEST PUSH1 0x20 DUP3 ADD SWAP1 POP SWAP2 SWAP1 POP JUMP JUMPDEST PUSH1 0x0 PUSH2 0x540 PUSH1 0x2A DUP4 PUSH2 0x6DB JUMP JUMPDEST SWAP2 POP PUSH2 0x54B DUP3 PUSH2 0x756 JUMP JUMPDEST PUSH1 0x40 DUP3 ADD SWAP1 POP SWAP2 SWAP1 POP JUMP JUMPDEST PUSH1 0x0 PUSH2 0x563 PUSH1 0x18 DUP4 PUSH2 0x6DB JUMP JUMPDEST SWAP2 POP PUSH2 0x56E DUP3 PUSH2 0x7A5 JUMP JUMPDEST PUSH1 0x20 DUP3 ADD SWAP1 POP SWAP2 SWAP1 POP JUMP JUMPDEST PUSH1 0x0 PUSH2 0x586 PUSH1 0x0 DUP4 PUSH2 0x6D0 JUMP JUMPDEST SWAP2 POP PUSH2 0x591 DUP3 PUSH2 0x7CE JUMP JUMPDEST PUSH1 0x0 DUP3 ADD SWAP1 POP SWAP2 SWAP1 POP JUMP JUMPDEST PUSH1 0x0 PUSH2 0x5A9 PUSH1 0x2D DUP4 PUSH2 0x6DB JUMP JUMPDEST SWAP2 POP PUSH2 0x5B4 DUP3 PUSH2 0x7D1 JUMP JUMPDEST PUSH1 0x40 DUP3 ADD SWAP1 POP SWAP2 SWAP1 POP JUMP JUMPDEST PUSH2 0x5C8 DUP2 PUSH2 0x71E JUMP JUMPDEST DUP3 MSTORE POP POP JUMP JUMPDEST PUSH1 0x0 PUSH2 0x5D9 DUP3 PUSH2 0x579 JUMP JUMPDEST SWAP2 POP DUP2 SWAP1 POP SWAP2 SWAP1 POP JUMP JUMPDEST PUSH1 0x0 PUSH1 0x20 DUP3 ADD SWAP1 POP PUSH2 0x5F8 PUSH1 0x0 DUP4 ADD DUP5 PUSH2 0x501 JUMP JUMPDEST SWAP3 SWAP2 POP POP JUMP JUMPDEST PUSH1 0x0 PUSH1 0x20 DUP3 ADD SWAP1 POP DUP2 DUP2 SUB PUSH1 0x0 DUP4 ADD MSTORE PUSH2 0x617 DUP2 PUSH2 0x510 JUMP JUMPDEST SWAP1 POP SWAP2 SWAP1 POP JUMP JUMPDEST PUSH1 0x0 PUSH1 0x20 DUP3 ADD SWAP1 POP DUP2 DUP2 SUB PUSH1 0x0 DUP4 ADD MSTORE PUSH2 0x637 DUP2 PUSH2 0x533 JUMP JUMPDEST SWAP1 POP SWAP2 SWAP1 POP JUMP JUMPDEST PUSH1 0x0 PUSH1 0x20 DUP3 ADD SWAP1 POP DUP2 DUP2 SUB PUSH1 0x0 DUP4 ADD MSTORE PUSH2 0x657 DUP2 PUSH2 0x556 JUMP JUMPDEST SWAP1 POP SWAP2 SWAP1 POP JUMP JUMPDEST PUSH1 0x0 PUSH1 0x20 DUP3 ADD SWAP1 POP DUP2 DUP2 SUB PUSH1 0x0 DUP4 ADD MSTORE PUSH2 0x677 DUP2 PUSH2 0x59C JUMP JUMPDEST SWAP1 POP SWAP2 SWAP1 POP JUMP JUMPDEST PUSH1 0x0 PUSH1 0x20 DUP3 ADD SWAP1 POP PUSH2 0x693 PUSH1 0x0 DUP4 ADD DUP5 PUSH2 0x5BF JUMP JUMPDEST SWAP3 SWAP2 POP POP JUMP JUMPDEST PUSH1 0x0 PUSH1 0x60 DUP3 ADD SWAP1 POP PUSH2 0x6AE PUSH1 0x0 DUP4 ADD DUP7 PUSH2 0x5BF JUMP JUMPDEST PUSH2 0x6BB PUSH1 0x20 DUP4 ADD DUP6 PUSH2 0x501 JUMP JUMPDEST PUSH2 0x6C8 PUSH1 0x40 DUP4 ADD DUP5 PUSH2 0x5BF JUMP JUMPDEST SWAP5 SWAP4 POP POP POP POP JUMP JUMPDEST PUSH1 0x0 DUP2 SWAP1 POP SWAP3 SWAP2 POP POP JUMP JUMPDEST PUSH1 0x0 DUP3 DUP3 MSTORE PUSH1 0x20 DUP3 ADD SWAP1 POP SWAP3 SWAP2 POP POP JUMP JUMPDEST PUSH1 0x0 PUSH2 0x6F7 DUP3 PUSH2 0x6FE JUMP JUMPDEST SWAP1 POP SWAP2 SWAP1 POP JUMP JUMPDEST PUSH1 0x0 PUSH20 0xFFFFFFFFFFFFFFFFFFFFFFFFFFFFFFFFFFFFFFFF DUP3 AND SWAP1 POP SWAP2 SWAP1 POP JUMP JUMPDEST PUSH1 0x0 DUP2 SWAP1 POP SWAP2 SWAP1 POP JUMP JUMPDEST PUSH1 0x0 DUP1 REVERT JUMPDEST PUSH32 0x496E73756666696369656E742066756E64730000000000000000000000000000 PUSH1 0x0 DUP3 ADD MSTORE POP JUMP JUMPDEST PUSH32 0x5061796D656E74206661696C65642E2054727920616761696E20696E20736F6D PUSH1 0x0 DUP3 ADD MSTORE PUSH32 0x65206D696E757465732E00000000000000000000000000000000000000000000 PUSH1 0x20 DUP3 ADD MSTORE POP JUMP JUMPDEST PUSH32 0x557365723A20496E73756666696369656E742066756E64730000000000000000 PUSH1 0x0 DUP3 ADD MSTORE POP JUMP JUMPDEST POP JUMP JUMPDEST PUSH32 0x5769746864726177616C206661696C65642E2054727920616761696E20696E20 PUSH1 0x0 DUP3 ADD MSTORE PUSH32 0x736F6D65206D696E757465732E00000000000000000000000000000000000000 PUSH1 0x20 DUP3 ADD MSTORE POP JUMP JUMPDEST PUSH2 0x829 DUP2 PUSH2 0x71E JUMP JUMPDEST DUP2 EQ PUSH2 0x834 JUMPI PUSH1 0x0 DUP1 REVERT JUMPDEST POP JUMP INVALID LOG2 PUSH5 0x6970667358 0x22 SLT KECCAK256 0xC1 PUSH30 0x509B097B52B946C9C19B53E5FB525FD9E1A3BE38560DA190A0F59EAA38BB PUSH5 0x736F6C6343 STOP ADDMOD SMOD STOP CALLER "
				},
				"gasEstimates": {
					"creation": {
						"codeDepositCost": "431400",
						"executionCost": "infinite",
						"totalCost": "infinite"
					},
					"external": {
						"": "infinite",
						"deposit()": "infinite",
						"getAddress()": "363",
						"id()": "2451",
						"payExpenses()": "infinite",
						"withdrawal(uint256)": "infinite",
						"withdrawalAddress()": "2602"
					}
				},
				"methodIdentifiers": {
					"deposit()": "d0e30db0",
					"getAddress()": "38cc4831",
					"id()": "af640d0f",
					"payExpenses()": "da6e75c2",
					"withdrawal(uint256)": "835fc6ca",
					"withdrawalAddress()": "f2bcd022"
				}
			},
			"storageLayout": {
				"storage": [
					{
						"astId": 548,
						"contract": "challenges/Consorcio/Tenant.sol:Tenant",
						"label": "id",
						"offset": 0,
						"slot": "0",
						"type": "t_uint256"
					},
					{
						"astId": 550,
						"contract": "challenges/Consorcio/Tenant.sol:Tenant",
						"label": "withdrawalAddress",
						"offset": 0,
						"slot": "1",
						"type": "t_address"
					},
					{
						"astId": 452,
						"contract": "challenges/Consorcio/Tenant.sol:Tenant",
						"label": "servicePrice",
						"offset": 0,
						"slot": "2",
						"type": "t_uint256"
					},
					{
						"astId": 454,
						"contract": "challenges/Consorcio/Tenant.sol:Tenant",
						"label": "aptAddress",
						"offset": 0,
						"slot": "3",
						"type": "t_uint256"
					},
					{
						"astId": 456,
						"contract": "challenges/Consorcio/Tenant.sol:Tenant",
						"label": "consorcioAddress",
						"offset": 0,
						"slot": "4",
						"type": "t_address"
					}
				],
				"types": {
					"t_address": {
						"encoding": "inplace",
						"label": "address",
						"numberOfBytes": "20"
					},
					"t_uint256": {
						"encoding": "inplace",
						"label": "uint256",
						"numberOfBytes": "32"
					}
				}
			},
			"userdoc": {
				"kind": "user",
				"methods": {},
				"version": 1
			}
		}
	}
}