{
	"challenges/Consorcio/Occupant.sol": {
		"Occupant": {
			"abi": [
				{
					"anonymous": false,
					"inputs": [
						{
							"indexed": false,
							"internalType": "address",
							"name": "_user",
							"type": "address"
						},
						{
							"indexed": false,
							"internalType": "uint256",
							"name": "_amount",
							"type": "uint256"
						}
					],
					"name": "newPayment",
					"type": "event"
				},
				{
					"inputs": [
						{
							"internalType": "uint256",
							"name": "_amount",
							"type": "uint256"
						}
					],
					"name": "payExpenses",
					"outputs": [],
					"stateMutability": "nonpayable",
					"type": "function"
				}
			],
			"devdoc": {
				"kind": "dev",
				"methods": {},
				"version": 1
			},
			"evm": {
				"assembly": "    /* \"challenges/Consorcio/Occupant.sol\":111:361  contract Occupant is User {\r... */\n  mstore(0x40, 0x80)\n  callvalue\n  dup1\n  iszero\n  tag_1\n  jumpi\n  0x00\n  dup1\n  revert\ntag_1:\n  pop\n  dataSize(sub_0)\n  dup1\n  dataOffset(sub_0)\n  0x00\n  codecopy\n  0x00\n  return\nstop\n\nsub_0: assembly {\n        /* \"challenges/Consorcio/Occupant.sol\":111:361  contract Occupant is User {\r... */\n      mstore(0x40, 0x80)\n      callvalue\n      dup1\n      iszero\n      tag_1\n      jumpi\n      0x00\n      dup1\n      revert\n    tag_1:\n      pop\n      jumpi(tag_2, lt(calldatasize, 0x04))\n      shr(0xe0, calldataload(0x00))\n      dup1\n      0x15dbbf92\n      eq\n      tag_3\n      jumpi\n    tag_2:\n      0x00\n      dup1\n      revert\n        /* \"challenges/Consorcio/Occupant.sol\":200:356  function payExpenses(uint _amount) override public {\r... */\n    tag_3:\n      tag_4\n      0x04\n      dup1\n      calldatasize\n      sub\n      dup2\n      add\n      swap1\n      tag_5\n      swap2\n      swap1\n      tag_6\n      jump\t// in\n    tag_5:\n      tag_7\n      jump\t// in\n    tag_4:\n      stop\n    tag_7:\n        /* \"challenges/Consorcio/Occupant.sol\":294:301  _amount */\n      dup1\n        /* \"challenges/Consorcio/Occupant.sol\":262:270  userInfo */\n      0x00\n        /* \"challenges/Consorcio/Occupant.sol\":262:282  userInfo[msg.sender] */\n      dup1\n        /* \"challenges/Consorcio/Occupant.sol\":271:281  msg.sender */\n      caller\n        /* \"challenges/Consorcio/Occupant.sol\":262:282  userInfo[msg.sender] */\n      0xffffffffffffffffffffffffffffffffffffffff\n      and\n      0xffffffffffffffffffffffffffffffffffffffff\n      and\n      dup2\n      mstore\n      0x20\n      add\n      swap1\n      dup2\n      mstore\n      0x20\n      add\n      0x00\n      keccak256\n        /* \"challenges/Consorcio/Occupant.sol\":262:290  userInfo[msg.sender].balance */\n      0x02\n      add\n      0x00\n        /* \"challenges/Consorcio/Occupant.sol\":262:301  userInfo[msg.sender].balance -= _amount */\n      dup3\n      dup3\n      sload\n      tag_9\n      swap2\n      swap1\n      tag_10\n      jump\t// in\n    tag_9:\n      swap3\n      pop\n      pop\n      dup2\n      swap1\n      sstore\n      pop\n        /* \"challenges/Consorcio/Occupant.sol\":317:348  newPayment(msg.sender, _amount) */\n      0x481007a75a4407f69a4ebcf25782e3537f6d76c13b46f71db08ae80c2b699e07\n        /* \"challenges/Consorcio/Occupant.sol\":328:338  msg.sender */\n      caller\n        /* \"challenges/Consorcio/Occupant.sol\":340:347  _amount */\n      dup3\n        /* \"challenges/Consorcio/Occupant.sol\":317:348  newPayment(msg.sender, _amount) */\n      mload(0x40)\n      tag_11\n      swap3\n      swap2\n      swap1\n      tag_12\n      jump\t// in\n    tag_11:\n      mload(0x40)\n      dup1\n      swap2\n      sub\n      swap1\n      log1\n        /* \"challenges/Consorcio/Occupant.sol\":200:356  function payExpenses(uint _amount) override public {\r... */\n      pop\n      jump\t// out\n        /* \"#utility.yul\":7:146   */\n    tag_14:\n        /* \"#utility.yul\":53:58   */\n      0x00\n        /* \"#utility.yul\":91:97   */\n      dup2\n        /* \"#utility.yul\":78:98   */\n      calldataload\n        /* \"#utility.yul\":69:98   */\n      swap1\n      pop\n        /* \"#utility.yul\":107:140   */\n      tag_16\n        /* \"#utility.yul\":134:139   */\n      dup2\n        /* \"#utility.yul\":107:140   */\n      tag_17\n      jump\t// in\n    tag_16:\n        /* \"#utility.yul\":7:146   */\n      swap3\n      swap2\n      pop\n      pop\n      jump\t// out\n        /* \"#utility.yul\":152:481   */\n    tag_6:\n        /* \"#utility.yul\":211:217   */\n      0x00\n        /* \"#utility.yul\":260:262   */\n      0x20\n        /* \"#utility.yul\":248:257   */\n      dup3\n        /* \"#utility.yul\":239:246   */\n      dup5\n        /* \"#utility.yul\":235:258   */\n      sub\n        /* \"#utility.yul\":231:263   */\n      slt\n        /* \"#utility.yul\":228:347   */\n      iszero\n      tag_19\n      jumpi\n        /* \"#utility.yul\":266:345   */\n      tag_20\n      tag_21\n      jump\t// in\n    tag_20:\n        /* \"#utility.yul\":228:347   */\n    tag_19:\n        /* \"#utility.yul\":386:387   */\n      0x00\n        /* \"#utility.yul\":411:464   */\n      tag_22\n        /* \"#utility.yul\":456:463   */\n      dup5\n        /* \"#utility.yul\":447:453   */\n      dup3\n        /* \"#utility.yul\":436:445   */\n      dup6\n        /* \"#utility.yul\":432:454   */\n      add\n        /* \"#utility.yul\":411:464   */\n      tag_14\n      jump\t// in\n    tag_22:\n        /* \"#utility.yul\":401:464   */\n      swap2\n      pop\n        /* \"#utility.yul\":357:474   */\n      pop\n        /* \"#utility.yul\":152:481   */\n      swap3\n      swap2\n      pop\n      pop\n      jump\t// out\n        /* \"#utility.yul\":487:605   */\n    tag_23:\n        /* \"#utility.yul\":574:598   */\n      tag_25\n        /* \"#utility.yul\":592:597   */\n      dup2\n        /* \"#utility.yul\":574:598   */\n      tag_26\n      jump\t// in\n    tag_25:\n        /* \"#utility.yul\":569:572   */\n      dup3\n        /* \"#utility.yul\":562:599   */\n      mstore\n        /* \"#utility.yul\":487:605   */\n      pop\n      pop\n      jump\t// out\n        /* \"#utility.yul\":611:729   */\n    tag_27:\n        /* \"#utility.yul\":698:722   */\n      tag_29\n        /* \"#utility.yul\":716:721   */\n      dup2\n        /* \"#utility.yul\":698:722   */\n      tag_30\n      jump\t// in\n    tag_29:\n        /* \"#utility.yul\":693:696   */\n      dup3\n        /* \"#utility.yul\":686:723   */\n      mstore\n        /* \"#utility.yul\":611:729   */\n      pop\n      pop\n      jump\t// out\n        /* \"#utility.yul\":735:1067   */\n    tag_12:\n        /* \"#utility.yul\":856:860   */\n      0x00\n        /* \"#utility.yul\":894:896   */\n      0x40\n        /* \"#utility.yul\":883:892   */\n      dup3\n        /* \"#utility.yul\":879:897   */\n      add\n        /* \"#utility.yul\":871:897   */\n      swap1\n      pop\n        /* \"#utility.yul\":907:978   */\n      tag_32\n        /* \"#utility.yul\":975:976   */\n      0x00\n        /* \"#utility.yul\":964:973   */\n      dup4\n        /* \"#utility.yul\":960:977   */\n      add\n        /* \"#utility.yul\":951:957   */\n      dup6\n        /* \"#utility.yul\":907:978   */\n      tag_23\n      jump\t// in\n    tag_32:\n        /* \"#utility.yul\":988:1060   */\n      tag_33\n        /* \"#utility.yul\":1056:1058   */\n      0x20\n        /* \"#utility.yul\":1045:1054   */\n      dup4\n        /* \"#utility.yul\":1041:1059   */\n      add\n        /* \"#utility.yul\":1032:1038   */\n      dup5\n        /* \"#utility.yul\":988:1060   */\n      tag_27\n      jump\t// in\n    tag_33:\n        /* \"#utility.yul\":735:1067   */\n      swap4\n      swap3\n      pop\n      pop\n      pop\n      jump\t// out\n        /* \"#utility.yul\":1154:1345   */\n    tag_10:\n        /* \"#utility.yul\":1194:1198   */\n      0x00\n        /* \"#utility.yul\":1214:1234   */\n      tag_37\n        /* \"#utility.yul\":1232:1233   */\n      dup3\n        /* \"#utility.yul\":1214:1234   */\n      tag_30\n      jump\t// in\n    tag_37:\n        /* \"#utility.yul\":1209:1234   */\n      swap2\n      pop\n        /* \"#utility.yul\":1248:1268   */\n      tag_38\n        /* \"#utility.yul\":1266:1267   */\n      dup4\n        /* \"#utility.yul\":1248:1268   */\n      tag_30\n      jump\t// in\n    tag_38:\n        /* \"#utility.yul\":1243:1268   */\n      swap3\n      pop\n        /* \"#utility.yul\":1287:1288   */\n      dup3\n        /* \"#utility.yul\":1284:1285   */\n      dup3\n        /* \"#utility.yul\":1281:1289   */\n      lt\n        /* \"#utility.yul\":1278:1312   */\n      iszero\n      tag_39\n      jumpi\n        /* \"#utility.yul\":1292:1310   */\n      tag_40\n      tag_41\n      jump\t// in\n    tag_40:\n        /* \"#utility.yul\":1278:1312   */\n    tag_39:\n        /* \"#utility.yul\":1337:1338   */\n      dup3\n        /* \"#utility.yul\":1334:1335   */\n      dup3\n        /* \"#utility.yul\":1330:1339   */\n      sub\n        /* \"#utility.yul\":1322:1339   */\n      swap1\n      pop\n        /* \"#utility.yul\":1154:1345   */\n      swap3\n      swap2\n      pop\n      pop\n      jump\t// out\n        /* \"#utility.yul\":1351:1447   */\n    tag_26:\n        /* \"#utility.yul\":1388:1395   */\n      0x00\n        /* \"#utility.yul\":1417:1441   */\n      tag_43\n        /* \"#utility.yul\":1435:1440   */\n      dup3\n        /* \"#utility.yul\":1417:1441   */\n      tag_44\n      jump\t// in\n    tag_43:\n        /* \"#utility.yul\":1406:1441   */\n      swap1\n      pop\n        /* \"#utility.yul\":1351:1447   */\n      swap2\n      swap1\n      pop\n      jump\t// out\n        /* \"#utility.yul\":1453:1579   */\n    tag_44:\n        /* \"#utility.yul\":1490:1497   */\n      0x00\n        /* \"#utility.yul\":1530:1572   */\n      0xffffffffffffffffffffffffffffffffffffffff\n        /* \"#utility.yul\":1523:1528   */\n      dup3\n        /* \"#utility.yul\":1519:1573   */\n      and\n        /* \"#utility.yul\":1508:1573   */\n      swap1\n      pop\n        /* \"#utility.yul\":1453:1579   */\n      swap2\n      swap1\n      pop\n      jump\t// out\n        /* \"#utility.yul\":1585:1662   */\n    tag_30:\n        /* \"#utility.yul\":1622:1629   */\n      0x00\n        /* \"#utility.yul\":1651:1656   */\n      dup2\n        /* \"#utility.yul\":1640:1656   */\n      swap1\n      pop\n        /* \"#utility.yul\":1585:1662   */\n      swap2\n      swap1\n      pop\n      jump\t// out\n        /* \"#utility.yul\":1668:1848   */\n    tag_41:\n        /* \"#utility.yul\":1716:1793   */\n      0x4e487b7100000000000000000000000000000000000000000000000000000000\n        /* \"#utility.yul\":1713:1714   */\n      0x00\n        /* \"#utility.yul\":1706:1794   */\n      mstore\n        /* \"#utility.yul\":1813:1817   */\n      0x11\n        /* \"#utility.yul\":1810:1811   */\n      0x04\n        /* \"#utility.yul\":1803:1818   */\n      mstore\n        /* \"#utility.yul\":1837:1841   */\n      0x24\n        /* \"#utility.yul\":1834:1835   */\n      0x00\n        /* \"#utility.yul\":1827:1842   */\n      revert\n        /* \"#utility.yul\":1977:2094   */\n    tag_21:\n        /* \"#utility.yul\":2086:2087   */\n      0x00\n        /* \"#utility.yul\":2083:2084   */\n      dup1\n        /* \"#utility.yul\":2076:2088   */\n      revert\n        /* \"#utility.yul\":2100:2222   */\n    tag_17:\n        /* \"#utility.yul\":2173:2197   */\n      tag_52\n        /* \"#utility.yul\":2191:2196   */\n      dup2\n        /* \"#utility.yul\":2173:2197   */\n      tag_30\n      jump\t// in\n    tag_52:\n        /* \"#utility.yul\":2166:2171   */\n      dup2\n        /* \"#utility.yul\":2163:2198   */\n      eq\n        /* \"#utility.yul\":2153:2216   */\n      tag_53\n      jumpi\n        /* \"#utility.yul\":2212:2213   */\n      0x00\n        /* \"#utility.yul\":2209:2210   */\n      dup1\n        /* \"#utility.yul\":2202:2214   */\n      revert\n        /* \"#utility.yul\":2153:2216   */\n    tag_53:\n        /* \"#utility.yul\":2100:2222   */\n      pop\n      jump\t// out\n\n    auxdata: 0xa2646970667358221220cda89e1d6500657cdab9c7038bc8643273fd1a185b8cbd152acfcc10e8e9652164736f6c63430008070033\n}\n",
				"bytecode": {
					"linkReferences": {},
					"object": "608060405234801561001057600080fd5b5061025a806100206000396000f3fe608060405234801561001057600080fd5b506004361061002b5760003560e01c806315dbbf9214610030575b600080fd5b61004a600480360381019061004591906100f5565b61004c565b005b806000803373ffffffffffffffffffffffffffffffffffffffff1673ffffffffffffffffffffffffffffffffffffffff168152602001908152602001600020600201600082825461009d9190610169565b925050819055507f481007a75a4407f69a4ebcf25782e3537f6d76c13b46f71db08ae80c2b699e0733826040516100d5929190610140565b60405180910390a150565b6000813590506100ef8161020d565b92915050565b60006020828403121561010b5761010a610208565b5b6000610119848285016100e0565b91505092915050565b61012b8161019d565b82525050565b61013a816101cf565b82525050565b60006040820190506101556000830185610122565b6101626020830184610131565b9392505050565b6000610174826101cf565b915061017f836101cf565b925082821015610192576101916101d9565b5b828203905092915050565b60006101a8826101af565b9050919050565b600073ffffffffffffffffffffffffffffffffffffffff82169050919050565b6000819050919050565b7f4e487b7100000000000000000000000000000000000000000000000000000000600052601160045260246000fd5b600080fd5b610216816101cf565b811461022157600080fd5b5056fea2646970667358221220cda89e1d6500657cdab9c7038bc8643273fd1a185b8cbd152acfcc10e8e9652164736f6c63430008070033",
					"opcodes": "PUSH1 0x80 PUSH1 0x40 MSTORE CALLVALUE DUP1 ISZERO PUSH2 0x10 JUMPI PUSH1 0x0 DUP1 REVERT JUMPDEST POP PUSH2 0x25A DUP1 PUSH2 0x20 PUSH1 0x0 CODECOPY PUSH1 0x0 RETURN INVALID PUSH1 0x80 PUSH1 0x40 MSTORE CALLVALUE DUP1 ISZERO PUSH2 0x10 JUMPI PUSH1 0x0 DUP1 REVERT JUMPDEST POP PUSH1 0x4 CALLDATASIZE LT PUSH2 0x2B JUMPI PUSH1 0x0 CALLDATALOAD PUSH1 0xE0 SHR DUP1 PUSH4 0x15DBBF92 EQ PUSH2 0x30 JUMPI JUMPDEST PUSH1 0x0 DUP1 REVERT JUMPDEST PUSH2 0x4A PUSH1 0x4 DUP1 CALLDATASIZE SUB DUP2 ADD SWAP1 PUSH2 0x45 SWAP2 SWAP1 PUSH2 0xF5 JUMP JUMPDEST PUSH2 0x4C JUMP JUMPDEST STOP JUMPDEST DUP1 PUSH1 0x0 DUP1 CALLER PUSH20 0xFFFFFFFFFFFFFFFFFFFFFFFFFFFFFFFFFFFFFFFF AND PUSH20 0xFFFFFFFFFFFFFFFFFFFFFFFFFFFFFFFFFFFFFFFF AND DUP2 MSTORE PUSH1 0x20 ADD SWAP1 DUP2 MSTORE PUSH1 0x20 ADD PUSH1 0x0 KECCAK256 PUSH1 0x2 ADD PUSH1 0x0 DUP3 DUP3 SLOAD PUSH2 0x9D SWAP2 SWAP1 PUSH2 0x169 JUMP JUMPDEST SWAP3 POP POP DUP2 SWAP1 SSTORE POP PUSH32 0x481007A75A4407F69A4EBCF25782E3537F6D76C13B46F71DB08AE80C2B699E07 CALLER DUP3 PUSH1 0x40 MLOAD PUSH2 0xD5 SWAP3 SWAP2 SWAP1 PUSH2 0x140 JUMP JUMPDEST PUSH1 0x40 MLOAD DUP1 SWAP2 SUB SWAP1 LOG1 POP JUMP JUMPDEST PUSH1 0x0 DUP2 CALLDATALOAD SWAP1 POP PUSH2 0xEF DUP2 PUSH2 0x20D JUMP JUMPDEST SWAP3 SWAP2 POP POP JUMP JUMPDEST PUSH1 0x0 PUSH1 0x20 DUP3 DUP5 SUB SLT ISZERO PUSH2 0x10B JUMPI PUSH2 0x10A PUSH2 0x208 JUMP JUMPDEST JUMPDEST PUSH1 0x0 PUSH2 0x119 DUP5 DUP3 DUP6 ADD PUSH2 0xE0 JUMP JUMPDEST SWAP2 POP POP SWAP3 SWAP2 POP POP JUMP JUMPDEST PUSH2 0x12B DUP2 PUSH2 0x19D JUMP JUMPDEST DUP3 MSTORE POP POP JUMP JUMPDEST PUSH2 0x13A DUP2 PUSH2 0x1CF JUMP JUMPDEST DUP3 MSTORE POP POP JUMP JUMPDEST PUSH1 0x0 PUSH1 0x40 DUP3 ADD SWAP1 POP PUSH2 0x155 PUSH1 0x0 DUP4 ADD DUP6 PUSH2 0x122 JUMP JUMPDEST PUSH2 0x162 PUSH1 0x20 DUP4 ADD DUP5 PUSH2 0x131 JUMP JUMPDEST SWAP4 SWAP3 POP POP POP JUMP JUMPDEST PUSH1 0x0 PUSH2 0x174 DUP3 PUSH2 0x1CF JUMP JUMPDEST SWAP2 POP PUSH2 0x17F DUP4 PUSH2 0x1CF JUMP JUMPDEST SWAP3 POP DUP3 DUP3 LT ISZERO PUSH2 0x192 JUMPI PUSH2 0x191 PUSH2 0x1D9 JUMP JUMPDEST JUMPDEST DUP3 DUP3 SUB SWAP1 POP SWAP3 SWAP2 POP POP JUMP JUMPDEST PUSH1 0x0 PUSH2 0x1A8 DUP3 PUSH2 0x1AF JUMP JUMPDEST SWAP1 POP SWAP2 SWAP1 POP JUMP JUMPDEST PUSH1 0x0 PUSH20 0xFFFFFFFFFFFFFFFFFFFFFFFFFFFFFFFFFFFFFFFF DUP3 AND SWAP1 POP SWAP2 SWAP1 POP JUMP JUMPDEST PUSH1 0x0 DUP2 SWAP1 POP SWAP2 SWAP1 POP JUMP JUMPDEST PUSH32 0x4E487B7100000000000000000000000000000000000000000000000000000000 PUSH1 0x0 MSTORE PUSH1 0x11 PUSH1 0x4 MSTORE PUSH1 0x24 PUSH1 0x0 REVERT JUMPDEST PUSH1 0x0 DUP1 REVERT JUMPDEST PUSH2 0x216 DUP2 PUSH2 0x1CF JUMP JUMPDEST DUP2 EQ PUSH2 0x221 JUMPI PUSH1 0x0 DUP1 REVERT JUMPDEST POP JUMP INVALID LOG2 PUSH5 0x6970667358 0x22 SLT KECCAK256 0xCD 0xA8 SWAP15 SAR PUSH6 0x657CDAB9C7 SUB DUP12 0xC8 PUSH5 0x3273FD1A18 JUMPDEST DUP13 0xBD ISZERO 0x2A 0xCF 0xCC LT 0xE8 0xE9 PUSH6 0x2164736F6C63 NUMBER STOP ADDMOD SMOD STOP CALLER "
				},
				"gasEstimates": {
					"creation": {
						"codeDepositCost": "120400",
						"executionCost": "165",
						"totalCost": "120565"
					},
					"external": {
						"payExpenses(uint256)": "infinite"
					}
				},
				"methodIdentifiers": {
					"payExpenses(uint256)": "15dbbf92"
				}
			},
			"storageLayout": {
				"storage": [
					{
						"astId": 264,
						"contract": "challenges/Consorcio/Occupant.sol:Occupant",
						"label": "userInfo",
						"offset": 0,
						"slot": "0",
						"type": "t_mapping(t_address,t_struct(_User)271_storage)"
					}
				],
				"types": {
					"t_address": {
						"encoding": "inplace",
						"label": "address",
						"numberOfBytes": "20"
					},
					"t_mapping(t_address,t_struct(_User)271_storage)": {
						"encoding": "mapping",
						"key": "t_address",
						"label": "mapping(address => struct User._User)",
						"numberOfBytes": "32",
						"value": "t_struct(_User)271_storage"
					},
					"t_string_storage": {
						"encoding": "bytes",
						"label": "string",
						"numberOfBytes": "32"
					},
					"t_struct(_User)271_storage": {
						"encoding": "inplace",
						"label": "struct User._User",
						"members": [
							{
								"astId": 266,
								"contract": "challenges/Consorcio/Occupant.sol:Occupant",
								"label": "user",
								"offset": 0,
								"slot": "0",
								"type": "t_address"
							},
							{
								"astId": 268,
								"contract": "challenges/Consorcio/Occupant.sol:Occupant",
								"label": "userType",
								"offset": 0,
								"slot": "1",
								"type": "t_string_storage"
							},
							{
								"astId": 270,
								"contract": "challenges/Consorcio/Occupant.sol:Occupant",
								"label": "balance",
								"offset": 0,
								"slot": "2",
								"type": "t_uint256"
							}
						],
						"numberOfBytes": "96"
					},
					"t_uint256": {
						"encoding": "inplace",
						"label": "uint256",
						"numberOfBytes": "32"
					}
				}
			},
			"userdoc": {
				"kind": "user",
				"methods": {},
				"version": 1
			}
		}
	}
}