{
	"challenges/Consorcio/Service.sol": {
		"Service": {
			"abi": [
				{
					"inputs": [
						{
							"internalType": "uint256",
							"name": "_amount",
							"type": "uint256"
						}
					],
					"name": "payExpenses",
					"outputs": [],
					"stateMutability": "nonpayable",
					"type": "function"
				},
				{
					"stateMutability": "payable",
					"type": "receive"
				}
			],
			"devdoc": {
				"kind": "dev",
				"methods": {},
				"version": 1
			},
			"evm": {
				"assembly": "    /* \"challenges/Consorcio/Service.sol\":84:166  contract Service is User {\r... */\n  mstore(0x40, 0x80)\n  callvalue\n  dup1\n  iszero\n  tag_1\n  jumpi\n  0x00\n  dup1\n  revert\ntag_1:\n  pop\n  dataSize(sub_0)\n  dup1\n  dataOffset(sub_0)\n  0x00\n  codecopy\n  0x00\n  return\nstop\n\nsub_0: assembly {\n        /* \"challenges/Consorcio/Service.sol\":84:166  contract Service is User {\r... */\n      mstore(0x40, 0x80)\n      jumpi(tag_1, lt(calldatasize, 0x04))\n      shr(0xe0, calldataload(0x00))\n      dup1\n      0x15dbbf92\n      eq\n      tag_3\n      jumpi\n      jump(tag_2)\n    tag_1:\n      jumpi(tag_2, calldatasize)\n      stop\n    tag_2:\n      0x00\n      dup1\n      revert\n        /* \"challenges/Consorcio/User.sol\":227:379  function payExpenses(uint _amount) virtual public {\r... */\n    tag_3:\n      callvalue\n      dup1\n      iszero\n      tag_6\n      jumpi\n      0x00\n      dup1\n      revert\n    tag_6:\n      pop\n      tag_7\n      0x04\n      dup1\n      calldatasize\n      sub\n      dup2\n      add\n      swap1\n      tag_8\n      swap2\n      swap1\n      tag_9\n      jump\t// in\n    tag_8:\n      tag_10\n      jump\t// in\n    tag_7:\n      stop\n    tag_10:\n        /* \"challenges/Consorcio/User.sol\":307:328  address(this).balance */\n      selfbalance\n        /* \"challenges/Consorcio/User.sol\":296:303  _amount */\n      dup2\n        /* \"challenges/Consorcio/User.sol\":296:328  _amount <= address(this).balance */\n      gt\n      iszero\n        /* \"challenges/Consorcio/User.sol\":288:371  require(_amount <= address(this).balance, \"The amount introduced is not available\") */\n      tag_12\n      jumpi\n      mload(0x40)\n      0x08c379a000000000000000000000000000000000000000000000000000000000\n      dup2\n      mstore\n      0x04\n      add\n      tag_13\n      swap1\n      tag_14\n      jump\t// in\n    tag_13:\n      mload(0x40)\n      dup1\n      swap2\n      sub\n      swap1\n      revert\n    tag_12:\n        /* \"challenges/Consorcio/User.sol\":227:379  function payExpenses(uint _amount) virtual public {\r... */\n      pop\n      jump\t// out\n        /* \"#utility.yul\":7:146   */\n    tag_16:\n        /* \"#utility.yul\":53:58   */\n      0x00\n        /* \"#utility.yul\":91:97   */\n      dup2\n        /* \"#utility.yul\":78:98   */\n      calldataload\n        /* \"#utility.yul\":69:98   */\n      swap1\n      pop\n        /* \"#utility.yul\":107:140   */\n      tag_18\n        /* \"#utility.yul\":134:139   */\n      dup2\n        /* \"#utility.yul\":107:140   */\n      tag_19\n      jump\t// in\n    tag_18:\n        /* \"#utility.yul\":7:146   */\n      swap3\n      swap2\n      pop\n      pop\n      jump\t// out\n        /* \"#utility.yul\":152:481   */\n    tag_9:\n        /* \"#utility.yul\":211:217   */\n      0x00\n        /* \"#utility.yul\":260:262   */\n      0x20\n        /* \"#utility.yul\":248:257   */\n      dup3\n        /* \"#utility.yul\":239:246   */\n      dup5\n        /* \"#utility.yul\":235:258   */\n      sub\n        /* \"#utility.yul\":231:263   */\n      slt\n        /* \"#utility.yul\":228:347   */\n      iszero\n      tag_21\n      jumpi\n        /* \"#utility.yul\":266:345   */\n      tag_22\n      tag_23\n      jump\t// in\n    tag_22:\n        /* \"#utility.yul\":228:347   */\n    tag_21:\n        /* \"#utility.yul\":386:387   */\n      0x00\n        /* \"#utility.yul\":411:464   */\n      tag_24\n        /* \"#utility.yul\":456:463   */\n      dup5\n        /* \"#utility.yul\":447:453   */\n      dup3\n        /* \"#utility.yul\":436:445   */\n      dup6\n        /* \"#utility.yul\":432:454   */\n      add\n        /* \"#utility.yul\":411:464   */\n      tag_16\n      jump\t// in\n    tag_24:\n        /* \"#utility.yul\":401:464   */\n      swap2\n      pop\n        /* \"#utility.yul\":357:474   */\n      pop\n        /* \"#utility.yul\":152:481   */\n      swap3\n      swap2\n      pop\n      pop\n      jump\t// out\n        /* \"#utility.yul\":487:853   */\n    tag_25:\n        /* \"#utility.yul\":629:632   */\n      0x00\n        /* \"#utility.yul\":650:717   */\n      tag_27\n        /* \"#utility.yul\":714:716   */\n      0x26\n        /* \"#utility.yul\":709:712   */\n      dup4\n        /* \"#utility.yul\":650:717   */\n      tag_28\n      jump\t// in\n    tag_27:\n        /* \"#utility.yul\":643:717   */\n      swap2\n      pop\n        /* \"#utility.yul\":726:819   */\n      tag_29\n        /* \"#utility.yul\":815:818   */\n      dup3\n        /* \"#utility.yul\":726:819   */\n      tag_30\n      jump\t// in\n    tag_29:\n        /* \"#utility.yul\":844:846   */\n      0x40\n        /* \"#utility.yul\":839:842   */\n      dup3\n        /* \"#utility.yul\":835:847   */\n      add\n        /* \"#utility.yul\":828:847   */\n      swap1\n      pop\n        /* \"#utility.yul\":487:853   */\n      swap2\n      swap1\n      pop\n      jump\t// out\n        /* \"#utility.yul\":859:1278   */\n    tag_14:\n        /* \"#utility.yul\":1025:1029   */\n      0x00\n        /* \"#utility.yul\":1063:1065   */\n      0x20\n        /* \"#utility.yul\":1052:1061   */\n      dup3\n        /* \"#utility.yul\":1048:1066   */\n      add\n        /* \"#utility.yul\":1040:1066   */\n      swap1\n      pop\n        /* \"#utility.yul\":1112:1121   */\n      dup2\n        /* \"#utility.yul\":1106:1110   */\n      dup2\n        /* \"#utility.yul\":1102:1122   */\n      sub\n        /* \"#utility.yul\":1098:1099   */\n      0x00\n        /* \"#utility.yul\":1087:1096   */\n      dup4\n        /* \"#utility.yul\":1083:1100   */\n      add\n        /* \"#utility.yul\":1076:1123   */\n      mstore\n        /* \"#utility.yul\":1140:1271   */\n      tag_32\n        /* \"#utility.yul\":1266:1270   */\n      dup2\n        /* \"#utility.yul\":1140:1271   */\n      tag_25\n      jump\t// in\n    tag_32:\n        /* \"#utility.yul\":1132:1271   */\n      swap1\n      pop\n        /* \"#utility.yul\":859:1278   */\n      swap2\n      swap1\n      pop\n      jump\t// out\n        /* \"#utility.yul\":1365:1534   */\n    tag_28:\n        /* \"#utility.yul\":1449:1460   */\n      0x00\n        /* \"#utility.yul\":1483:1489   */\n      dup3\n        /* \"#utility.yul\":1478:1481   */\n      dup3\n        /* \"#utility.yul\":1471:1490   */\n      mstore\n        /* \"#utility.yul\":1523:1527   */\n      0x20\n        /* \"#utility.yul\":1518:1521   */\n      dup3\n        /* \"#utility.yul\":1514:1528   */\n      add\n        /* \"#utility.yul\":1499:1528   */\n      swap1\n      pop\n        /* \"#utility.yul\":1365:1534   */\n      swap3\n      swap2\n      pop\n      pop\n      jump\t// out\n        /* \"#utility.yul\":1540:1617   */\n    tag_36:\n        /* \"#utility.yul\":1577:1584   */\n      0x00\n        /* \"#utility.yul\":1606:1611   */\n      dup2\n        /* \"#utility.yul\":1595:1611   */\n      swap1\n      pop\n        /* \"#utility.yul\":1540:1617   */\n      swap2\n      swap1\n      pop\n      jump\t// out\n        /* \"#utility.yul\":1746:1863   */\n    tag_23:\n        /* \"#utility.yul\":1855:1856   */\n      0x00\n        /* \"#utility.yul\":1852:1853   */\n      dup1\n        /* \"#utility.yul\":1845:1857   */\n      revert\n        /* \"#utility.yul\":1869:2094   */\n    tag_30:\n        /* \"#utility.yul\":2009:2043   */\n      0x54686520616d6f756e7420696e74726f6475636564206973206e6f7420617661\n        /* \"#utility.yul\":2005:2006   */\n      0x00\n        /* \"#utility.yul\":1997:2003   */\n      dup3\n        /* \"#utility.yul\":1993:2007   */\n      add\n        /* \"#utility.yul\":1986:2044   */\n      mstore\n        /* \"#utility.yul\":2078:2086   */\n      0x696c61626c650000000000000000000000000000000000000000000000000000\n        /* \"#utility.yul\":2073:2075   */\n      0x20\n        /* \"#utility.yul\":2065:2071   */\n      dup3\n        /* \"#utility.yul\":2061:2076   */\n      add\n        /* \"#utility.yul\":2054:2087   */\n      mstore\n        /* \"#utility.yul\":1869:2094   */\n      pop\n      jump\t// out\n        /* \"#utility.yul\":2100:2222   */\n    tag_19:\n        /* \"#utility.yul\":2173:2197   */\n      tag_43\n        /* \"#utility.yul\":2191:2196   */\n      dup2\n        /* \"#utility.yul\":2173:2197   */\n      tag_36\n      jump\t// in\n    tag_43:\n        /* \"#utility.yul\":2166:2171   */\n      dup2\n        /* \"#utility.yul\":2163:2198   */\n      eq\n        /* \"#utility.yul\":2153:2216   */\n      tag_44\n      jumpi\n        /* \"#utility.yul\":2212:2213   */\n      0x00\n        /* \"#utility.yul\":2209:2210   */\n      dup1\n        /* \"#utility.yul\":2202:2214   */\n      revert\n        /* \"#utility.yul\":2153:2216   */\n    tag_44:\n        /* \"#utility.yul\":2100:2222   */\n      pop\n      jump\t// out\n\n    auxdata: 0xa2646970667358221220411d96325df005b43f6723165b7e77088ad3310758557361005651269d48f8af64736f6c63430008070033\n}\n",
				"bytecode": {
					"linkReferences": {},
					"object": "608060405234801561001057600080fd5b506101de806100206000396000f3fe6080604052600436106100225760003560e01c806315dbbf921461002e57610029565b3661002957005b600080fd5b34801561003a57600080fd5b50610055600480360381019061005091906100b2565b610057565b005b4781111561009a576040517f08c379a000000000000000000000000000000000000000000000000000000000815260040161009190610102565b60405180910390fd5b50565b6000813590506100ac81610191565b92915050565b6000602082840312156100c8576100c761013d565b5b60006100d68482850161009d565b91505092915050565b60006100ec602683610122565b91506100f782610142565b604082019050919050565b6000602082019050818103600083015261011b816100df565b9050919050565b600082825260208201905092915050565b6000819050919050565b600080fd5b7f54686520616d6f756e7420696e74726f6475636564206973206e6f742061766160008201527f696c61626c650000000000000000000000000000000000000000000000000000602082015250565b61019a81610133565b81146101a557600080fd5b5056fea2646970667358221220411d96325df005b43f6723165b7e77088ad3310758557361005651269d48f8af64736f6c63430008070033",
					"opcodes": "PUSH1 0x80 PUSH1 0x40 MSTORE CALLVALUE DUP1 ISZERO PUSH2 0x10 JUMPI PUSH1 0x0 DUP1 REVERT JUMPDEST POP PUSH2 0x1DE DUP1 PUSH2 0x20 PUSH1 0x0 CODECOPY PUSH1 0x0 RETURN INVALID PUSH1 0x80 PUSH1 0x40 MSTORE PUSH1 0x4 CALLDATASIZE LT PUSH2 0x22 JUMPI PUSH1 0x0 CALLDATALOAD PUSH1 0xE0 SHR DUP1 PUSH4 0x15DBBF92 EQ PUSH2 0x2E JUMPI PUSH2 0x29 JUMP JUMPDEST CALLDATASIZE PUSH2 0x29 JUMPI STOP JUMPDEST PUSH1 0x0 DUP1 REVERT JUMPDEST CALLVALUE DUP1 ISZERO PUSH2 0x3A JUMPI PUSH1 0x0 DUP1 REVERT JUMPDEST POP PUSH2 0x55 PUSH1 0x4 DUP1 CALLDATASIZE SUB DUP2 ADD SWAP1 PUSH2 0x50 SWAP2 SWAP1 PUSH2 0xB2 JUMP JUMPDEST PUSH2 0x57 JUMP JUMPDEST STOP JUMPDEST SELFBALANCE DUP2 GT ISZERO PUSH2 0x9A JUMPI PUSH1 0x40 MLOAD PUSH32 0x8C379A000000000000000000000000000000000000000000000000000000000 DUP2 MSTORE PUSH1 0x4 ADD PUSH2 0x91 SWAP1 PUSH2 0x102 JUMP JUMPDEST PUSH1 0x40 MLOAD DUP1 SWAP2 SUB SWAP1 REVERT JUMPDEST POP JUMP JUMPDEST PUSH1 0x0 DUP2 CALLDATALOAD SWAP1 POP PUSH2 0xAC DUP2 PUSH2 0x191 JUMP JUMPDEST SWAP3 SWAP2 POP POP JUMP JUMPDEST PUSH1 0x0 PUSH1 0x20 DUP3 DUP5 SUB SLT ISZERO PUSH2 0xC8 JUMPI PUSH2 0xC7 PUSH2 0x13D JUMP JUMPDEST JUMPDEST PUSH1 0x0 PUSH2 0xD6 DUP5 DUP3 DUP6 ADD PUSH2 0x9D JUMP JUMPDEST SWAP2 POP POP SWAP3 SWAP2 POP POP JUMP JUMPDEST PUSH1 0x0 PUSH2 0xEC PUSH1 0x26 DUP4 PUSH2 0x122 JUMP JUMPDEST SWAP2 POP PUSH2 0xF7 DUP3 PUSH2 0x142 JUMP JUMPDEST PUSH1 0x40 DUP3 ADD SWAP1 POP SWAP2 SWAP1 POP JUMP JUMPDEST PUSH1 0x0 PUSH1 0x20 DUP3 ADD SWAP1 POP DUP2 DUP2 SUB PUSH1 0x0 DUP4 ADD MSTORE PUSH2 0x11B DUP2 PUSH2 0xDF JUMP JUMPDEST SWAP1 POP SWAP2 SWAP1 POP JUMP JUMPDEST PUSH1 0x0 DUP3 DUP3 MSTORE PUSH1 0x20 DUP3 ADD SWAP1 POP SWAP3 SWAP2 POP POP JUMP JUMPDEST PUSH1 0x0 DUP2 SWAP1 POP SWAP2 SWAP1 POP JUMP JUMPDEST PUSH1 0x0 DUP1 REVERT JUMPDEST PUSH32 0x54686520616D6F756E7420696E74726F6475636564206973206E6F7420617661 PUSH1 0x0 DUP3 ADD MSTORE PUSH32 0x696C61626C650000000000000000000000000000000000000000000000000000 PUSH1 0x20 DUP3 ADD MSTORE POP JUMP JUMPDEST PUSH2 0x19A DUP2 PUSH2 0x133 JUMP JUMPDEST DUP2 EQ PUSH2 0x1A5 JUMPI PUSH1 0x0 DUP1 REVERT JUMPDEST POP JUMP INVALID LOG2 PUSH5 0x6970667358 0x22 SLT KECCAK256 COINBASE SAR SWAP7 ORIGIN 0x5D CREATE SDIV 0xB4 EXTCODEHASH PUSH8 0x23165B7E77088AD3 BALANCE SMOD PC SSTORE PUSH20 0x61005651269D48F8AF64736F6C63430008070033 "
				},
				"gasEstimates": {
					"creation": {
						"codeDepositCost": "95600",
						"executionCost": "141",
						"totalCost": "95741"
					},
					"external": {
						"payExpenses(uint256)": "717"
					}
				},
				"methodIdentifiers": {
					"payExpenses(uint256)": "15dbbf92"
				}
			},
			"storageLayout": {
				"storage": [
					{
						"astId": 264,
						"contract": "challenges/Consorcio/Service.sol:Service",
						"label": "userInfo",
						"offset": 0,
						"slot": "0",
						"type": "t_mapping(t_address,t_struct(_User)271_storage)"
					}
				],
				"types": {
					"t_address": {
						"encoding": "inplace",
						"label": "address",
						"numberOfBytes": "20"
					},
					"t_mapping(t_address,t_struct(_User)271_storage)": {
						"encoding": "mapping",
						"key": "t_address",
						"label": "mapping(address => struct User._User)",
						"numberOfBytes": "32",
						"value": "t_struct(_User)271_storage"
					},
					"t_string_storage": {
						"encoding": "bytes",
						"label": "string",
						"numberOfBytes": "32"
					},
					"t_struct(_User)271_storage": {
						"encoding": "inplace",
						"label": "struct User._User",
						"members": [
							{
								"astId": 266,
								"contract": "challenges/Consorcio/Service.sol:Service",
								"label": "user",
								"offset": 0,
								"slot": "0",
								"type": "t_address"
							},
							{
								"astId": 268,
								"contract": "challenges/Consorcio/Service.sol:Service",
								"label": "userType",
								"offset": 0,
								"slot": "1",
								"type": "t_string_storage"
							},
							{
								"astId": 270,
								"contract": "challenges/Consorcio/Service.sol:Service",
								"label": "balance",
								"offset": 0,
								"slot": "2",
								"type": "t_uint256"
							}
						],
						"numberOfBytes": "96"
					},
					"t_uint256": {
						"encoding": "inplace",
						"label": "uint256",
						"numberOfBytes": "32"
					}
				}
			},
			"userdoc": {
				"kind": "user",
				"methods": {},
				"version": 1
			}
		}
	}
}