{
	"challenges/Consorcio/Tenant.sol": {
		"Tenant": {
			"abi": [
				{
					"inputs": [
						{
							"internalType": "uint256",
							"name": "newId",
							"type": "uint256"
						},
						{
							"internalType": "address",
							"name": "newAddress",
							"type": "address"
						},
						{
							"internalType": "uint256",
							"name": "newContractPeriod",
							"type": "uint256"
						},
						{
							"internalType": "uint256",
							"name": "newAptAddress",
							"type": "uint256"
						},
						{
							"internalType": "address",
							"name": "newConsorcioAddress",
							"type": "address"
						}
					],
					"stateMutability": "payable",
					"type": "constructor"
				},
				{
					"stateMutability": "payable",
					"type": "fallback"
				},
				{
					"inputs": [],
					"name": "deposit",
					"outputs": [],
					"stateMutability": "payable",
					"type": "function"
				},
				{
					"inputs": [],
					"name": "id",
					"outputs": [
						{
							"internalType": "uint256",
							"name": "",
							"type": "uint256"
						}
					],
					"stateMutability": "view",
					"type": "function"
				},
				{
					"inputs": [],
					"name": "withdrawalAddress",
					"outputs": [
						{
							"internalType": "address",
							"name": "",
							"type": "address"
						}
					],
					"stateMutability": "view",
					"type": "function"
				},
				{
					"stateMutability": "payable",
					"type": "receive"
				}
			],
			"devdoc": {
				"kind": "dev",
				"methods": {},
				"version": 1
			},
			"evm": {
				"assembly": "    /* \"challenges/Consorcio/Tenant.sol\":84:611  contract Tenant is User {\r... */\n  mstore(0x40, 0x80)\n    /* \"challenges/Consorcio/Tenant.sol\":222:562  constructor(\r... */\n  mload(0x40)\n  sub(codesize, bytecodeSize)\n  dup1\n  bytecodeSize\n  dup4\n  codecopy\n  dup2\n  dup2\n  add\n  0x40\n  mstore\n  dup2\n  add\n  swap1\n  tag_1\n  swap2\n  swap1\n  tag_2\n  jump\t// in\ntag_1:\n    /* \"challenges/Consorcio/Tenant.sol\":404:409  newId */\n  dup5\n    /* \"challenges/Consorcio/Tenant.sol\":411:421  newAddress */\n  dup5\n    /* \"challenges/Consorcio/User.sol\":287:292  newId */\n  dup2\n    /* \"challenges/Consorcio/User.sol\":282:284  id */\n  0x00\n    /* \"challenges/Consorcio/User.sol\":282:292  id = newId */\n  dup2\n  swap1\n  sstore\n  pop\n    /* \"challenges/Consorcio/User.sol\":323:333  newAddress */\n  dup1\n    /* \"challenges/Consorcio/User.sol\":303:320  withdrawalAddress */\n  0x01\n  0x00\n    /* \"challenges/Consorcio/User.sol\":303:333  withdrawalAddress = newAddress */\n  0x0100\n  exp\n  dup2\n  sload\n  dup2\n  0xffffffffffffffffffffffffffffffffffffffff\n  mul\n  not\n  and\n  swap1\n  dup4\n  0xffffffffffffffffffffffffffffffffffffffff\n  and\n  mul\n  or\n  swap1\n  sstore\n  pop\n    /* \"challenges/Consorcio/User.sol\":227:341  constructor(uint newId, address newAddress) {\r... */\n  pop\n  pop\n    /* \"challenges/Consorcio/Tenant.sol\":451:468  newContractPeriod */\n  dup3\n    /* \"challenges/Consorcio/Tenant.sol\":434:448  contractPeriod */\n  0x02\n    /* \"challenges/Consorcio/Tenant.sol\":434:468  contractPeriod = newContractPeriod */\n  dup2\n  swap1\n  sstore\n  pop\n    /* \"challenges/Consorcio/Tenant.sol\":492:505  newAptAddress */\n  dup2\n    /* \"challenges/Consorcio/Tenant.sol\":479:489  aptAddress */\n  0x03\n    /* \"challenges/Consorcio/Tenant.sol\":479:505  aptAddress = newAptAddress */\n  dup2\n  swap1\n  sstore\n  pop\n    /* \"challenges/Consorcio/Tenant.sol\":535:554  newConsorcioAddress */\n  dup1\n    /* \"challenges/Consorcio/Tenant.sol\":516:532  consorcioAddress */\n  0x04\n  0x00\n    /* \"challenges/Consorcio/Tenant.sol\":516:554  consorcioAddress = newConsorcioAddress */\n  0x0100\n  exp\n  dup2\n  sload\n  dup2\n  0xffffffffffffffffffffffffffffffffffffffff\n  mul\n  not\n  and\n  swap1\n  dup4\n  0xffffffffffffffffffffffffffffffffffffffff\n  and\n  mul\n  or\n  swap1\n  sstore\n  pop\n    /* \"challenges/Consorcio/Tenant.sol\":222:562  constructor(\r... */\n  pop\n  pop\n  pop\n  pop\n  pop\n    /* \"challenges/Consorcio/Tenant.sol\":84:611  contract Tenant is User {\r... */\n  jump(tag_7)\n    /* \"#utility.yul\":7:150   */\ntag_9:\n    /* \"#utility.yul\":64:69   */\n  0x00\n    /* \"#utility.yul\":95:101   */\n  dup2\n    /* \"#utility.yul\":89:102   */\n  mload\n    /* \"#utility.yul\":80:102   */\n  swap1\n  pop\n    /* \"#utility.yul\":111:144   */\n  tag_11\n    /* \"#utility.yul\":138:143   */\n  dup2\n    /* \"#utility.yul\":111:144   */\n  tag_12\n  jump\t// in\ntag_11:\n    /* \"#utility.yul\":7:150   */\n  swap3\n  swap2\n  pop\n  pop\n  jump\t// out\n    /* \"#utility.yul\":156:299   */\ntag_13:\n    /* \"#utility.yul\":213:218   */\n  0x00\n    /* \"#utility.yul\":244:250   */\n  dup2\n    /* \"#utility.yul\":238:251   */\n  mload\n    /* \"#utility.yul\":229:251   */\n  swap1\n  pop\n    /* \"#utility.yul\":260:293   */\n  tag_15\n    /* \"#utility.yul\":287:292   */\n  dup2\n    /* \"#utility.yul\":260:293   */\n  tag_16\n  jump\t// in\ntag_15:\n    /* \"#utility.yul\":156:299   */\n  swap3\n  swap2\n  pop\n  pop\n  jump\t// out\n    /* \"#utility.yul\":305:1282   */\ntag_2:\n    /* \"#utility.yul\":411:417   */\n  0x00\n    /* \"#utility.yul\":419:425   */\n  dup1\n    /* \"#utility.yul\":427:433   */\n  0x00\n    /* \"#utility.yul\":435:441   */\n  dup1\n    /* \"#utility.yul\":443:449   */\n  0x00\n    /* \"#utility.yul\":492:495   */\n  0xa0\n    /* \"#utility.yul\":480:489   */\n  dup7\n    /* \"#utility.yul\":471:478   */\n  dup9\n    /* \"#utility.yul\":467:490   */\n  sub\n    /* \"#utility.yul\":463:496   */\n  slt\n    /* \"#utility.yul\":460:580   */\n  iszero\n  tag_18\n  jumpi\n    /* \"#utility.yul\":499:578   */\n  tag_19\n  tag_20\n  jump\t// in\ntag_19:\n    /* \"#utility.yul\":460:580   */\ntag_18:\n    /* \"#utility.yul\":619:620   */\n  0x00\n    /* \"#utility.yul\":644:708   */\n  tag_21\n    /* \"#utility.yul\":700:707   */\n  dup9\n    /* \"#utility.yul\":691:697   */\n  dup3\n    /* \"#utility.yul\":680:689   */\n  dup10\n    /* \"#utility.yul\":676:698   */\n  add\n    /* \"#utility.yul\":644:708   */\n  tag_13\n  jump\t// in\ntag_21:\n    /* \"#utility.yul\":634:708   */\n  swap6\n  pop\n    /* \"#utility.yul\":590:718   */\n  pop\n    /* \"#utility.yul\":757:759   */\n  0x20\n    /* \"#utility.yul\":783:847   */\n  tag_22\n    /* \"#utility.yul\":839:846   */\n  dup9\n    /* \"#utility.yul\":830:836   */\n  dup3\n    /* \"#utility.yul\":819:828   */\n  dup10\n    /* \"#utility.yul\":815:837   */\n  add\n    /* \"#utility.yul\":783:847   */\n  tag_9\n  jump\t// in\ntag_22:\n    /* \"#utility.yul\":773:847   */\n  swap5\n  pop\n    /* \"#utility.yul\":728:857   */\n  pop\n    /* \"#utility.yul\":896:898   */\n  0x40\n    /* \"#utility.yul\":922:986   */\n  tag_23\n    /* \"#utility.yul\":978:985   */\n  dup9\n    /* \"#utility.yul\":969:975   */\n  dup3\n    /* \"#utility.yul\":958:967   */\n  dup10\n    /* \"#utility.yul\":954:976   */\n  add\n    /* \"#utility.yul\":922:986   */\n  tag_13\n  jump\t// in\ntag_23:\n    /* \"#utility.yul\":912:986   */\n  swap4\n  pop\n    /* \"#utility.yul\":867:996   */\n  pop\n    /* \"#utility.yul\":1035:1037   */\n  0x60\n    /* \"#utility.yul\":1061:1125   */\n  tag_24\n    /* \"#utility.yul\":1117:1124   */\n  dup9\n    /* \"#utility.yul\":1108:1114   */\n  dup3\n    /* \"#utility.yul\":1097:1106   */\n  dup10\n    /* \"#utility.yul\":1093:1115   */\n  add\n    /* \"#utility.yul\":1061:1125   */\n  tag_13\n  jump\t// in\ntag_24:\n    /* \"#utility.yul\":1051:1125   */\n  swap3\n  pop\n    /* \"#utility.yul\":1006:1135   */\n  pop\n    /* \"#utility.yul\":1174:1177   */\n  0x80\n    /* \"#utility.yul\":1201:1265   */\n  tag_25\n    /* \"#utility.yul\":1257:1264   */\n  dup9\n    /* \"#utility.yul\":1248:1254   */\n  dup3\n    /* \"#utility.yul\":1237:1246   */\n  dup10\n    /* \"#utility.yul\":1233:1255   */\n  add\n    /* \"#utility.yul\":1201:1265   */\n  tag_9\n  jump\t// in\ntag_25:\n    /* \"#utility.yul\":1191:1265   */\n  swap2\n  pop\n    /* \"#utility.yul\":1145:1275   */\n  pop\n    /* \"#utility.yul\":305:1282   */\n  swap3\n  swap6\n  pop\n  swap3\n  swap6\n  swap1\n  swap4\n  pop\n  jump\t// out\n    /* \"#utility.yul\":1369:1465   */\ntag_28:\n    /* \"#utility.yul\":1406:1413   */\n  0x00\n    /* \"#utility.yul\":1435:1459   */\n  tag_30\n    /* \"#utility.yul\":1453:1458   */\n  dup3\n    /* \"#utility.yul\":1435:1459   */\n  tag_31\n  jump\t// in\ntag_30:\n    /* \"#utility.yul\":1424:1459   */\n  swap1\n  pop\n    /* \"#utility.yul\":1369:1465   */\n  swap2\n  swap1\n  pop\n  jump\t// out\n    /* \"#utility.yul\":1471:1597   */\ntag_31:\n    /* \"#utility.yul\":1508:1515   */\n  0x00\n    /* \"#utility.yul\":1548:1590   */\n  0xffffffffffffffffffffffffffffffffffffffff\n    /* \"#utility.yul\":1541:1546   */\n  dup3\n    /* \"#utility.yul\":1537:1591   */\n  and\n    /* \"#utility.yul\":1526:1591   */\n  swap1\n  pop\n    /* \"#utility.yul\":1471:1597   */\n  swap2\n  swap1\n  pop\n  jump\t// out\n    /* \"#utility.yul\":1603:1680   */\ntag_33:\n    /* \"#utility.yul\":1640:1647   */\n  0x00\n    /* \"#utility.yul\":1669:1674   */\n  dup2\n    /* \"#utility.yul\":1658:1674   */\n  swap1\n  pop\n    /* \"#utility.yul\":1603:1680   */\n  swap2\n  swap1\n  pop\n  jump\t// out\n    /* \"#utility.yul\":1809:1926   */\ntag_20:\n    /* \"#utility.yul\":1918:1919   */\n  0x00\n    /* \"#utility.yul\":1915:1916   */\n  dup1\n    /* \"#utility.yul\":1908:1920   */\n  revert\n    /* \"#utility.yul\":1932:2054   */\ntag_12:\n    /* \"#utility.yul\":2005:2029   */\n  tag_39\n    /* \"#utility.yul\":2023:2028   */\n  dup2\n    /* \"#utility.yul\":2005:2029   */\n  tag_28\n  jump\t// in\ntag_39:\n    /* \"#utility.yul\":1998:2003   */\n  dup2\n    /* \"#utility.yul\":1995:2030   */\n  eq\n    /* \"#utility.yul\":1985:2048   */\n  tag_40\n  jumpi\n    /* \"#utility.yul\":2044:2045   */\n  0x00\n    /* \"#utility.yul\":2041:2042   */\n  dup1\n    /* \"#utility.yul\":2034:2046   */\n  revert\n    /* \"#utility.yul\":1985:2048   */\ntag_40:\n    /* \"#utility.yul\":1932:2054   */\n  pop\n  jump\t// out\n    /* \"#utility.yul\":2060:2182   */\ntag_16:\n    /* \"#utility.yul\":2133:2157   */\n  tag_42\n    /* \"#utility.yul\":2151:2156   */\n  dup2\n    /* \"#utility.yul\":2133:2157   */\n  tag_33\n  jump\t// in\ntag_42:\n    /* \"#utility.yul\":2126:2131   */\n  dup2\n    /* \"#utility.yul\":2123:2158   */\n  eq\n    /* \"#utility.yul\":2113:2176   */\n  tag_43\n  jumpi\n    /* \"#utility.yul\":2172:2173   */\n  0x00\n    /* \"#utility.yul\":2169:2170   */\n  dup1\n    /* \"#utility.yul\":2162:2174   */\n  revert\n    /* \"#utility.yul\":2113:2176   */\ntag_43:\n    /* \"#utility.yul\":2060:2182   */\n  pop\n  jump\t// out\n    /* \"challenges/Consorcio/Tenant.sol\":84:611  contract Tenant is User {\r... */\ntag_7:\n  dataSize(sub_0)\n  dup1\n  dataOffset(sub_0)\n  0x00\n  codecopy\n  0x00\n  return\nstop\n\nsub_0: assembly {\n        /* \"challenges/Consorcio/Tenant.sol\":84:611  contract Tenant is User {\r... */\n      mstore(0x40, 0x80)\n      jumpi(tag_1, lt(calldatasize, 0x04))\n      shr(0xe0, calldataload(0x00))\n      dup1\n      0xaf640d0f\n      eq\n      tag_3\n      jumpi\n      dup1\n      0xd0e30db0\n      eq\n      tag_4\n      jumpi\n      dup1\n      0xf2bcd022\n      eq\n      tag_5\n      jumpi\n      jump(tag_2)\n    tag_1:\n      jumpi(tag_2, calldatasize)\n      stop\n    tag_2:\n      stop\n        /* \"challenges/Consorcio/User.sol\":92:106  uint public id */\n    tag_3:\n      callvalue\n      dup1\n      iszero\n      tag_10\n      jumpi\n      0x00\n      dup1\n      revert\n    tag_10:\n      pop\n      tag_11\n      tag_12\n      jump\t// in\n    tag_11:\n      mload(0x40)\n      tag_13\n      swap2\n      swap1\n      tag_14\n      jump\t// in\n    tag_13:\n      mload(0x40)\n      dup1\n      swap2\n      sub\n      swap1\n      return\n        /* \"challenges/Consorcio/Tenant.sol\":570:606  function deposit() public payable {} */\n    tag_4:\n      tag_15\n      tag_16\n      jump\t// in\n    tag_15:\n      stop\n        /* \"challenges/Consorcio/User.sol\":113:145  address public withdrawalAddress */\n    tag_5:\n      callvalue\n      dup1\n      iszero\n      tag_17\n      jumpi\n      0x00\n      dup1\n      revert\n    tag_17:\n      pop\n      tag_18\n      tag_19\n      jump\t// in\n    tag_18:\n      mload(0x40)\n      tag_20\n      swap2\n      swap1\n      tag_21\n      jump\t// in\n    tag_20:\n      mload(0x40)\n      dup1\n      swap2\n      sub\n      swap1\n      return\n        /* \"challenges/Consorcio/User.sol\":92:106  uint public id */\n    tag_12:\n      sload(0x00)\n      dup2\n      jump\t// out\n        /* \"challenges/Consorcio/Tenant.sol\":570:606  function deposit() public payable {} */\n    tag_16:\n      jump\t// out\n        /* \"challenges/Consorcio/User.sol\":113:145  address public withdrawalAddress */\n    tag_19:\n      0x01\n      0x00\n      swap1\n      sload\n      swap1\n      0x0100\n      exp\n      swap1\n      div\n      0xffffffffffffffffffffffffffffffffffffffff\n      and\n      dup2\n      jump\t// out\n        /* \"#utility.yul\":7:125   */\n    tag_24:\n        /* \"#utility.yul\":94:118   */\n      tag_26\n        /* \"#utility.yul\":112:117   */\n      dup2\n        /* \"#utility.yul\":94:118   */\n      tag_27\n      jump\t// in\n    tag_26:\n        /* \"#utility.yul\":89:92   */\n      dup3\n        /* \"#utility.yul\":82:119   */\n      mstore\n        /* \"#utility.yul\":7:125   */\n      pop\n      pop\n      jump\t// out\n        /* \"#utility.yul\":131:249   */\n    tag_28:\n        /* \"#utility.yul\":218:242   */\n      tag_30\n        /* \"#utility.yul\":236:241   */\n      dup2\n        /* \"#utility.yul\":218:242   */\n      tag_31\n      jump\t// in\n    tag_30:\n        /* \"#utility.yul\":213:216   */\n      dup3\n        /* \"#utility.yul\":206:243   */\n      mstore\n        /* \"#utility.yul\":131:249   */\n      pop\n      pop\n      jump\t// out\n        /* \"#utility.yul\":255:477   */\n    tag_21:\n        /* \"#utility.yul\":348:352   */\n      0x00\n        /* \"#utility.yul\":386:388   */\n      0x20\n        /* \"#utility.yul\":375:384   */\n      dup3\n        /* \"#utility.yul\":371:389   */\n      add\n        /* \"#utility.yul\":363:389   */\n      swap1\n      pop\n        /* \"#utility.yul\":399:470   */\n      tag_33\n        /* \"#utility.yul\":467:468   */\n      0x00\n        /* \"#utility.yul\":456:465   */\n      dup4\n        /* \"#utility.yul\":452:469   */\n      add\n        /* \"#utility.yul\":443:449   */\n      dup5\n        /* \"#utility.yul\":399:470   */\n      tag_24\n      jump\t// in\n    tag_33:\n        /* \"#utility.yul\":255:477   */\n      swap3\n      swap2\n      pop\n      pop\n      jump\t// out\n        /* \"#utility.yul\":483:705   */\n    tag_14:\n        /* \"#utility.yul\":576:580   */\n      0x00\n        /* \"#utility.yul\":614:616   */\n      0x20\n        /* \"#utility.yul\":603:612   */\n      dup3\n        /* \"#utility.yul\":599:617   */\n      add\n        /* \"#utility.yul\":591:617   */\n      swap1\n      pop\n        /* \"#utility.yul\":627:698   */\n      tag_35\n        /* \"#utility.yul\":695:696   */\n      0x00\n        /* \"#utility.yul\":684:693   */\n      dup4\n        /* \"#utility.yul\":680:697   */\n      add\n        /* \"#utility.yul\":671:677   */\n      dup5\n        /* \"#utility.yul\":627:698   */\n      tag_28\n      jump\t// in\n    tag_35:\n        /* \"#utility.yul\":483:705   */\n      swap3\n      swap2\n      pop\n      pop\n      jump\t// out\n        /* \"#utility.yul\":711:807   */\n    tag_27:\n        /* \"#utility.yul\":748:755   */\n      0x00\n        /* \"#utility.yul\":777:801   */\n      tag_37\n        /* \"#utility.yul\":795:800   */\n      dup3\n        /* \"#utility.yul\":777:801   */\n      tag_38\n      jump\t// in\n    tag_37:\n        /* \"#utility.yul\":766:801   */\n      swap1\n      pop\n        /* \"#utility.yul\":711:807   */\n      swap2\n      swap1\n      pop\n      jump\t// out\n        /* \"#utility.yul\":813:939   */\n    tag_38:\n        /* \"#utility.yul\":850:857   */\n      0x00\n        /* \"#utility.yul\":890:932   */\n      0xffffffffffffffffffffffffffffffffffffffff\n        /* \"#utility.yul\":883:888   */\n      dup3\n        /* \"#utility.yul\":879:933   */\n      and\n        /* \"#utility.yul\":868:933   */\n      swap1\n      pop\n        /* \"#utility.yul\":813:939   */\n      swap2\n      swap1\n      pop\n      jump\t// out\n        /* \"#utility.yul\":945:1022   */\n    tag_31:\n        /* \"#utility.yul\":982:989   */\n      0x00\n        /* \"#utility.yul\":1011:1016   */\n      dup2\n        /* \"#utility.yul\":1000:1016   */\n      swap1\n      pop\n        /* \"#utility.yul\":945:1022   */\n      swap2\n      swap1\n      pop\n      jump\t// out\n\n    auxdata: 0xa26469706673582212202dc7d98c90d551c2de8d3dc14b73ec3a32b2987f047481ca248090fe2d44ddc764736f6c63430008070033\n}\n",
				"bytecode": {
					"linkReferences": {},
					"object": "6080604052604051610382380380610382833981810160405281019061002591906100f4565b84848160008190555080600160006101000a81548173ffffffffffffffffffffffffffffffffffffffff021916908373ffffffffffffffffffffffffffffffffffffffff1602179055505050826002819055508160038190555080600460006101000a81548173ffffffffffffffffffffffffffffffffffffffff021916908373ffffffffffffffffffffffffffffffffffffffff16021790555050505050506101de565b6000815190506100d9816101b0565b92915050565b6000815190506100ee816101c7565b92915050565b600080600080600060a086880312156101105761010f6101ab565b5b600061011e888289016100df565b955050602061012f888289016100ca565b9450506040610140888289016100df565b9350506060610151888289016100df565b9250506080610162888289016100ca565b9150509295509295909350565b600061017a82610181565b9050919050565b600073ffffffffffffffffffffffffffffffffffffffff82169050919050565b6000819050919050565b600080fd5b6101b98161016f565b81146101c457600080fd5b50565b6101d0816101a1565b81146101db57600080fd5b50565b610195806101ed6000396000f3fe6080604052600436106100385760003560e01c8063af640d0f14610041578063d0e30db01461006c578063f2bcd022146100765761003f565b3661003f57005b005b34801561004d57600080fd5b506100566100a1565b6040516100639190610108565b60405180910390f35b6100746100a7565b005b34801561008257600080fd5b5061008b6100a9565b60405161009891906100ed565b60405180910390f35b60005481565b565b600160009054906101000a900473ffffffffffffffffffffffffffffffffffffffff1681565b6100d881610123565b82525050565b6100e781610155565b82525050565b600060208201905061010260008301846100cf565b92915050565b600060208201905061011d60008301846100de565b92915050565b600061012e82610135565b9050919050565b600073ffffffffffffffffffffffffffffffffffffffff82169050919050565b600081905091905056fea26469706673582212202dc7d98c90d551c2de8d3dc14b73ec3a32b2987f047481ca248090fe2d44ddc764736f6c63430008070033",
					"opcodes": "PUSH1 0x80 PUSH1 0x40 MSTORE PUSH1 0x40 MLOAD PUSH2 0x382 CODESIZE SUB DUP1 PUSH2 0x382 DUP4 CODECOPY DUP2 DUP2 ADD PUSH1 0x40 MSTORE DUP2 ADD SWAP1 PUSH2 0x25 SWAP2 SWAP1 PUSH2 0xF4 JUMP JUMPDEST DUP5 DUP5 DUP2 PUSH1 0x0 DUP2 SWAP1 SSTORE POP DUP1 PUSH1 0x1 PUSH1 0x0 PUSH2 0x100 EXP DUP2 SLOAD DUP2 PUSH20 0xFFFFFFFFFFFFFFFFFFFFFFFFFFFFFFFFFFFFFFFF MUL NOT AND SWAP1 DUP4 PUSH20 0xFFFFFFFFFFFFFFFFFFFFFFFFFFFFFFFFFFFFFFFF AND MUL OR SWAP1 SSTORE POP POP POP DUP3 PUSH1 0x2 DUP2 SWAP1 SSTORE POP DUP2 PUSH1 0x3 DUP2 SWAP1 SSTORE POP DUP1 PUSH1 0x4 PUSH1 0x0 PUSH2 0x100 EXP DUP2 SLOAD DUP2 PUSH20 0xFFFFFFFFFFFFFFFFFFFFFFFFFFFFFFFFFFFFFFFF MUL NOT AND SWAP1 DUP4 PUSH20 0xFFFFFFFFFFFFFFFFFFFFFFFFFFFFFFFFFFFFFFFF AND MUL OR SWAP1 SSTORE POP POP POP POP POP POP PUSH2 0x1DE JUMP JUMPDEST PUSH1 0x0 DUP2 MLOAD SWAP1 POP PUSH2 0xD9 DUP2 PUSH2 0x1B0 JUMP JUMPDEST SWAP3 SWAP2 POP POP JUMP JUMPDEST PUSH1 0x0 DUP2 MLOAD SWAP1 POP PUSH2 0xEE DUP2 PUSH2 0x1C7 JUMP JUMPDEST SWAP3 SWAP2 POP POP JUMP JUMPDEST PUSH1 0x0 DUP1 PUSH1 0x0 DUP1 PUSH1 0x0 PUSH1 0xA0 DUP7 DUP9 SUB SLT ISZERO PUSH2 0x110 JUMPI PUSH2 0x10F PUSH2 0x1AB JUMP JUMPDEST JUMPDEST PUSH1 0x0 PUSH2 0x11E DUP9 DUP3 DUP10 ADD PUSH2 0xDF JUMP JUMPDEST SWAP6 POP POP PUSH1 0x20 PUSH2 0x12F DUP9 DUP3 DUP10 ADD PUSH2 0xCA JUMP JUMPDEST SWAP5 POP POP PUSH1 0x40 PUSH2 0x140 DUP9 DUP3 DUP10 ADD PUSH2 0xDF JUMP JUMPDEST SWAP4 POP POP PUSH1 0x60 PUSH2 0x151 DUP9 DUP3 DUP10 ADD PUSH2 0xDF JUMP JUMPDEST SWAP3 POP POP PUSH1 0x80 PUSH2 0x162 DUP9 DUP3 DUP10 ADD PUSH2 0xCA JUMP JUMPDEST SWAP2 POP POP SWAP3 SWAP6 POP SWAP3 SWAP6 SWAP1 SWAP4 POP JUMP JUMPDEST PUSH1 0x0 PUSH2 0x17A DUP3 PUSH2 0x181 JUMP JUMPDEST SWAP1 POP SWAP2 SWAP1 POP JUMP JUMPDEST PUSH1 0x0 PUSH20 0xFFFFFFFFFFFFFFFFFFFFFFFFFFFFFFFFFFFFFFFF DUP3 AND SWAP1 POP SWAP2 SWAP1 POP JUMP JUMPDEST PUSH1 0x0 DUP2 SWAP1 POP SWAP2 SWAP1 POP JUMP JUMPDEST PUSH1 0x0 DUP1 REVERT JUMPDEST PUSH2 0x1B9 DUP2 PUSH2 0x16F JUMP JUMPDEST DUP2 EQ PUSH2 0x1C4 JUMPI PUSH1 0x0 DUP1 REVERT JUMPDEST POP JUMP JUMPDEST PUSH2 0x1D0 DUP2 PUSH2 0x1A1 JUMP JUMPDEST DUP2 EQ PUSH2 0x1DB JUMPI PUSH1 0x0 DUP1 REVERT JUMPDEST POP JUMP JUMPDEST PUSH2 0x195 DUP1 PUSH2 0x1ED PUSH1 0x0 CODECOPY PUSH1 0x0 RETURN INVALID PUSH1 0x80 PUSH1 0x40 MSTORE PUSH1 0x4 CALLDATASIZE LT PUSH2 0x38 JUMPI PUSH1 0x0 CALLDATALOAD PUSH1 0xE0 SHR DUP1 PUSH4 0xAF640D0F EQ PUSH2 0x41 JUMPI DUP1 PUSH4 0xD0E30DB0 EQ PUSH2 0x6C JUMPI DUP1 PUSH4 0xF2BCD022 EQ PUSH2 0x76 JUMPI PUSH2 0x3F JUMP JUMPDEST CALLDATASIZE PUSH2 0x3F JUMPI STOP JUMPDEST STOP JUMPDEST CALLVALUE DUP1 ISZERO PUSH2 0x4D JUMPI PUSH1 0x0 DUP1 REVERT JUMPDEST POP PUSH2 0x56 PUSH2 0xA1 JUMP JUMPDEST PUSH1 0x40 MLOAD PUSH2 0x63 SWAP2 SWAP1 PUSH2 0x108 JUMP JUMPDEST PUSH1 0x40 MLOAD DUP1 SWAP2 SUB SWAP1 RETURN JUMPDEST PUSH2 0x74 PUSH2 0xA7 JUMP JUMPDEST STOP JUMPDEST CALLVALUE DUP1 ISZERO PUSH2 0x82 JUMPI PUSH1 0x0 DUP1 REVERT JUMPDEST POP PUSH2 0x8B PUSH2 0xA9 JUMP JUMPDEST PUSH1 0x40 MLOAD PUSH2 0x98 SWAP2 SWAP1 PUSH2 0xED JUMP JUMPDEST PUSH1 0x40 MLOAD DUP1 SWAP2 SUB SWAP1 RETURN JUMPDEST PUSH1 0x0 SLOAD DUP2 JUMP JUMPDEST JUMP JUMPDEST PUSH1 0x1 PUSH1 0x0 SWAP1 SLOAD SWAP1 PUSH2 0x100 EXP SWAP1 DIV PUSH20 0xFFFFFFFFFFFFFFFFFFFFFFFFFFFFFFFFFFFFFFFF AND DUP2 JUMP JUMPDEST PUSH2 0xD8 DUP2 PUSH2 0x123 JUMP JUMPDEST DUP3 MSTORE POP POP JUMP JUMPDEST PUSH2 0xE7 DUP2 PUSH2 0x155 JUMP JUMPDEST DUP3 MSTORE POP POP JUMP JUMPDEST PUSH1 0x0 PUSH1 0x20 DUP3 ADD SWAP1 POP PUSH2 0x102 PUSH1 0x0 DUP4 ADD DUP5 PUSH2 0xCF JUMP JUMPDEST SWAP3 SWAP2 POP POP JUMP JUMPDEST PUSH1 0x0 PUSH1 0x20 DUP3 ADD SWAP1 POP PUSH2 0x11D PUSH1 0x0 DUP4 ADD DUP5 PUSH2 0xDE JUMP JUMPDEST SWAP3 SWAP2 POP POP JUMP JUMPDEST PUSH1 0x0 PUSH2 0x12E DUP3 PUSH2 0x135 JUMP JUMPDEST SWAP1 POP SWAP2 SWAP1 POP JUMP JUMPDEST PUSH1 0x0 PUSH20 0xFFFFFFFFFFFFFFFFFFFFFFFFFFFFFFFFFFFFFFFF DUP3 AND SWAP1 POP SWAP2 SWAP1 POP JUMP JUMPDEST PUSH1 0x0 DUP2 SWAP1 POP SWAP2 SWAP1 POP JUMP INVALID LOG2 PUSH5 0x6970667358 0x22 SLT KECCAK256 0x2D 0xC7 0xD9 DUP13 SWAP1 0xD5 MLOAD 0xC2 0xDE DUP14 RETURNDATASIZE 0xC1 0x4B PUSH20 0xEC3A32B2987F047481CA248090FE2D44DDC76473 PUSH16 0x6C634300080700330000000000000000 "
				},
				"gasEstimates": {
					"creation": {
						"codeDepositCost": "81000",
						"executionCost": "infinite",
						"totalCost": "infinite"
					},
					"external": {
						"": "129",
						"deposit()": "120",
						"id()": "2407",
						"withdrawalAddress()": "2536"
					}
				},
				"methodIdentifiers": {
					"deposit()": "d0e30db0",
					"id()": "af640d0f",
					"withdrawalAddress()": "f2bcd022"
				}
			},
			"storageLayout": {
				"storage": [
					{
						"astId": 296,
						"contract": "challenges/Consorcio/Tenant.sol:Tenant",
						"label": "id",
						"offset": 0,
						"slot": "0",
						"type": "t_uint256"
					},
					{
						"astId": 298,
						"contract": "challenges/Consorcio/Tenant.sol:Tenant",
						"label": "withdrawalAddress",
						"offset": 0,
						"slot": "1",
						"type": "t_address"
					},
					{
						"astId": 253,
						"contract": "challenges/Consorcio/Tenant.sol:Tenant",
						"label": "contractPeriod",
						"offset": 0,
						"slot": "2",
						"type": "t_uint256"
					},
					{
						"astId": 255,
						"contract": "challenges/Consorcio/Tenant.sol:Tenant",
						"label": "aptAddress",
						"offset": 0,
						"slot": "3",
						"type": "t_uint256"
					},
					{
						"astId": 257,
						"contract": "challenges/Consorcio/Tenant.sol:Tenant",
						"label": "consorcioAddress",
						"offset": 0,
						"slot": "4",
						"type": "t_address"
					}
				],
				"types": {
					"t_address": {
						"encoding": "inplace",
						"label": "address",
						"numberOfBytes": "20"
					},
					"t_uint256": {
						"encoding": "inplace",
						"label": "uint256",
						"numberOfBytes": "32"
					}
				}
			},
			"userdoc": {
				"kind": "user",
				"methods": {},
				"version": 1
			}
		}
	}
}