{
	"challenges/Consorcio/Employee.sol": {
		"Employee": {
			"abi": [
				{
					"inputs": [
						{
							"internalType": "uint256",
							"name": "newId",
							"type": "uint256"
						},
						{
							"internalType": "address",
							"name": "newAddress",
							"type": "address"
						},
						{
							"internalType": "string",
							"name": "newProffession",
							"type": "string"
						},
						{
							"internalType": "string",
							"name": "newSchedule",
							"type": "string"
						},
						{
							"internalType": "uint256",
							"name": "newSalary",
							"type": "uint256"
						}
					],
					"stateMutability": "nonpayable",
					"type": "constructor"
				},
				{
					"stateMutability": "payable",
					"type": "fallback"
				},
				{
					"inputs": [],
					"name": "id",
					"outputs": [
						{
							"internalType": "uint256",
							"name": "",
							"type": "uint256"
						}
					],
					"stateMutability": "view",
					"type": "function"
				},
				{
					"inputs": [],
					"name": "withdrawalAddress",
					"outputs": [
						{
							"internalType": "address",
							"name": "",
							"type": "address"
						}
					],
					"stateMutability": "view",
					"type": "function"
				},
				{
					"stateMutability": "payable",
					"type": "receive"
				}
			],
			"devdoc": {
				"kind": "dev",
				"methods": {},
				"version": 1
			},
			"evm": {
				"assembly": "    /* \"challenges/Consorcio/Employee.sol\":84:515  contract Employee is User {\r... */\n  mstore(0x40, 0x80)\n    /* \"challenges/Consorcio/Employee.sol\":210:512  constructor(\r... */\n  callvalue\n  dup1\n  iszero\n  tag_1\n  jumpi\n  0x00\n  dup1\n  revert\ntag_1:\n  pop\n  mload(0x40)\n  sub(codesize, bytecodeSize)\n  dup1\n  bytecodeSize\n  dup4\n  codecopy\n  dup2\n  dup2\n  add\n  0x40\n  mstore\n  dup2\n  add\n  swap1\n  tag_2\n  swap2\n  swap1\n  tag_3\n  jump\t// in\ntag_2:\n    /* \"challenges/Consorcio/Employee.sol\":384:389  newId */\n  dup5\n    /* \"challenges/Consorcio/Employee.sol\":391:401  newAddress */\n  dup5\n    /* \"challenges/Consorcio/User.sol\":287:292  newId */\n  dup2\n    /* \"challenges/Consorcio/User.sol\":282:284  id */\n  0x00\n    /* \"challenges/Consorcio/User.sol\":282:292  id = newId */\n  dup2\n  swap1\n  sstore\n  pop\n    /* \"challenges/Consorcio/User.sol\":323:333  newAddress */\n  dup1\n    /* \"challenges/Consorcio/User.sol\":303:320  withdrawalAddress */\n  0x01\n  0x00\n    /* \"challenges/Consorcio/User.sol\":303:333  withdrawalAddress = newAddress */\n  0x0100\n  exp\n  dup2\n  sload\n  dup2\n  0xffffffffffffffffffffffffffffffffffffffff\n  mul\n  not\n  and\n  swap1\n  dup4\n  0xffffffffffffffffffffffffffffffffffffffff\n  and\n  mul\n  or\n  swap1\n  sstore\n  pop\n    /* \"challenges/Consorcio/User.sol\":227:341  constructor(uint newId, address newAddress) {\r... */\n  pop\n  pop\n    /* \"challenges/Consorcio/Employee.sol\":428:442  newProffession */\n  dup3\n    /* \"challenges/Consorcio/Employee.sol\":414:425  proffession */\n  0x02\n    /* \"challenges/Consorcio/Employee.sol\":414:442  proffession = newProffession */\n  swap1\n  dup1\n  mload\n  swap1\n  0x20\n  add\n  swap1\n  tag_8\n  swap3\n  swap2\n  swap1\n  tag_9\n  jump\t// in\ntag_8:\n  pop\n    /* \"challenges/Consorcio/Employee.sol\":464:475  newSchedule */\n  dup2\n    /* \"challenges/Consorcio/Employee.sol\":453:461  schedule */\n  0x03\n    /* \"challenges/Consorcio/Employee.sol\":453:475  schedule = newSchedule */\n  swap1\n  dup1\n  mload\n  swap1\n  0x20\n  add\n  swap1\n  tag_10\n  swap3\n  swap2\n  swap1\n  tag_9\n  jump\t// in\ntag_10:\n  pop\n    /* \"challenges/Consorcio/Employee.sol\":495:504  newSalary */\n  dup1\n    /* \"challenges/Consorcio/Employee.sol\":486:492  salary */\n  0x04\n    /* \"challenges/Consorcio/Employee.sol\":486:504  salary = newSalary */\n  dup2\n  swap1\n  sstore\n  pop\n    /* \"challenges/Consorcio/Employee.sol\":210:512  constructor(\r... */\n  pop\n  pop\n  pop\n  pop\n  pop\n    /* \"challenges/Consorcio/Employee.sol\":84:515  contract Employee is User {\r... */\n  jump(tag_11)\ntag_9:\n  dup3\n  dup1\n  sload\n  tag_12\n  swap1\n  tag_13\n  jump\t// in\ntag_12:\n  swap1\n  0x00\n  mstore\n  keccak256(0x00, 0x20)\n  swap1\n  0x1f\n  add\n  0x20\n  swap1\n  div\n  dup2\n  add\n  swap3\n  dup3\n  tag_15\n  jumpi\n  0x00\n  dup6\n  sstore\n  jump(tag_14)\ntag_15:\n  dup3\n  0x1f\n  lt\n  tag_16\n  jumpi\n  dup1\n  mload\n  not(0xff)\n  and\n  dup4\n  dup1\n  add\n  or\n  dup6\n  sstore\n  jump(tag_14)\ntag_16:\n  dup3\n  dup1\n  add\n  0x01\n  add\n  dup6\n  sstore\n  dup3\n  iszero\n  tag_14\n  jumpi\n  swap2\n  dup3\n  add\ntag_17:\n  dup3\n  dup2\n  gt\n  iszero\n  tag_18\n  jumpi\n  dup3\n  mload\n  dup3\n  sstore\n  swap2\n  0x20\n  add\n  swap2\n  swap1\n  0x01\n  add\n  swap1\n  jump(tag_17)\ntag_18:\ntag_14:\n  pop\n  swap1\n  pop\n  tag_19\n  swap2\n  swap1\n  tag_20\n  jump\t// in\ntag_19:\n  pop\n  swap1\n  jump\t// out\ntag_20:\ntag_21:\n  dup1\n  dup3\n  gt\n  iszero\n  tag_22\n  jumpi\n  0x00\n  dup2\n  0x00\n  swap1\n  sstore\n  pop\n  0x01\n  add\n  jump(tag_21)\ntag_22:\n  pop\n  swap1\n  jump\t// out\n    /* \"#utility.yul\":7:428   */\ntag_24:\n    /* \"#utility.yul\":96:101   */\n  0x00\n    /* \"#utility.yul\":121:187   */\n  tag_26\n    /* \"#utility.yul\":137:186   */\n  tag_27\n    /* \"#utility.yul\":179:185   */\n  dup5\n    /* \"#utility.yul\":137:186   */\n  tag_28\n  jump\t// in\ntag_27:\n    /* \"#utility.yul\":121:187   */\n  tag_29\n  jump\t// in\ntag_26:\n    /* \"#utility.yul\":112:187   */\n  swap1\n  pop\n    /* \"#utility.yul\":210:216   */\n  dup3\n    /* \"#utility.yul\":203:208   */\n  dup2\n    /* \"#utility.yul\":196:217   */\n  mstore\n    /* \"#utility.yul\":248:252   */\n  0x20\n    /* \"#utility.yul\":241:246   */\n  dup2\n    /* \"#utility.yul\":237:253   */\n  add\n    /* \"#utility.yul\":286:289   */\n  dup5\n    /* \"#utility.yul\":277:283   */\n  dup5\n    /* \"#utility.yul\":272:275   */\n  dup5\n    /* \"#utility.yul\":268:284   */\n  add\n    /* \"#utility.yul\":265:290   */\n  gt\n    /* \"#utility.yul\":262:374   */\n  iszero\n  tag_30\n  jumpi\n    /* \"#utility.yul\":293:372   */\n  tag_31\n  tag_32\n  jump\t// in\ntag_31:\n    /* \"#utility.yul\":262:374   */\ntag_30:\n    /* \"#utility.yul\":383:422   */\n  tag_33\n    /* \"#utility.yul\":415:421   */\n  dup5\n    /* \"#utility.yul\":410:413   */\n  dup3\n    /* \"#utility.yul\":405:408   */\n  dup6\n    /* \"#utility.yul\":383:422   */\n  tag_34\n  jump\t// in\ntag_33:\n    /* \"#utility.yul\":102:428   */\n  pop\n    /* \"#utility.yul\":7:428   */\n  swap4\n  swap3\n  pop\n  pop\n  pop\n  jump\t// out\n    /* \"#utility.yul\":434:577   */\ntag_35:\n    /* \"#utility.yul\":491:496   */\n  0x00\n    /* \"#utility.yul\":522:528   */\n  dup2\n    /* \"#utility.yul\":516:529   */\n  mload\n    /* \"#utility.yul\":507:529   */\n  swap1\n  pop\n    /* \"#utility.yul\":538:571   */\n  tag_37\n    /* \"#utility.yul\":565:570   */\n  dup2\n    /* \"#utility.yul\":538:571   */\n  tag_38\n  jump\t// in\ntag_37:\n    /* \"#utility.yul\":434:577   */\n  swap3\n  swap2\n  pop\n  pop\n  jump\t// out\n    /* \"#utility.yul\":597:952   */\ntag_39:\n    /* \"#utility.yul\":664:669   */\n  0x00\n    /* \"#utility.yul\":713:716   */\n  dup3\n    /* \"#utility.yul\":706:710   */\n  0x1f\n    /* \"#utility.yul\":698:704   */\n  dup4\n    /* \"#utility.yul\":694:711   */\n  add\n    /* \"#utility.yul\":690:717   */\n  slt\n    /* \"#utility.yul\":680:802   */\n  tag_41\n  jumpi\n    /* \"#utility.yul\":721:800   */\n  tag_42\n  tag_43\n  jump\t// in\ntag_42:\n    /* \"#utility.yul\":680:802   */\ntag_41:\n    /* \"#utility.yul\":831:837   */\n  dup2\n    /* \"#utility.yul\":825:838   */\n  mload\n    /* \"#utility.yul\":856:946   */\n  tag_44\n    /* \"#utility.yul\":942:945   */\n  dup5\n    /* \"#utility.yul\":934:940   */\n  dup3\n    /* \"#utility.yul\":927:931   */\n  0x20\n    /* \"#utility.yul\":919:925   */\n  dup7\n    /* \"#utility.yul\":915:932   */\n  add\n    /* \"#utility.yul\":856:946   */\n  tag_24\n  jump\t// in\ntag_44:\n    /* \"#utility.yul\":847:946   */\n  swap2\n  pop\n    /* \"#utility.yul\":670:952   */\n  pop\n    /* \"#utility.yul\":597:952   */\n  swap3\n  swap2\n  pop\n  pop\n  jump\t// out\n    /* \"#utility.yul\":958:1101   */\ntag_45:\n    /* \"#utility.yul\":1015:1020   */\n  0x00\n    /* \"#utility.yul\":1046:1052   */\n  dup2\n    /* \"#utility.yul\":1040:1053   */\n  mload\n    /* \"#utility.yul\":1031:1053   */\n  swap1\n  pop\n    /* \"#utility.yul\":1062:1095   */\n  tag_47\n    /* \"#utility.yul\":1089:1094   */\n  dup2\n    /* \"#utility.yul\":1062:1095   */\n  tag_48\n  jump\t// in\ntag_47:\n    /* \"#utility.yul\":958:1101   */\n  swap3\n  swap2\n  pop\n  pop\n  jump\t// out\n    /* \"#utility.yul\":1107:2430   */\ntag_3:\n    /* \"#utility.yul\":1233:1239   */\n  0x00\n    /* \"#utility.yul\":1241:1247   */\n  dup1\n    /* \"#utility.yul\":1249:1255   */\n  0x00\n    /* \"#utility.yul\":1257:1263   */\n  dup1\n    /* \"#utility.yul\":1265:1271   */\n  0x00\n    /* \"#utility.yul\":1314:1317   */\n  0xa0\n    /* \"#utility.yul\":1302:1311   */\n  dup7\n    /* \"#utility.yul\":1293:1300   */\n  dup9\n    /* \"#utility.yul\":1289:1312   */\n  sub\n    /* \"#utility.yul\":1285:1318   */\n  slt\n    /* \"#utility.yul\":1282:1402   */\n  iszero\n  tag_50\n  jumpi\n    /* \"#utility.yul\":1321:1400   */\n  tag_51\n  tag_52\n  jump\t// in\ntag_51:\n    /* \"#utility.yul\":1282:1402   */\ntag_50:\n    /* \"#utility.yul\":1441:1442   */\n  0x00\n    /* \"#utility.yul\":1466:1530   */\n  tag_53\n    /* \"#utility.yul\":1522:1529   */\n  dup9\n    /* \"#utility.yul\":1513:1519   */\n  dup3\n    /* \"#utility.yul\":1502:1511   */\n  dup10\n    /* \"#utility.yul\":1498:1520   */\n  add\n    /* \"#utility.yul\":1466:1530   */\n  tag_45\n  jump\t// in\ntag_53:\n    /* \"#utility.yul\":1456:1530   */\n  swap6\n  pop\n    /* \"#utility.yul\":1412:1540   */\n  pop\n    /* \"#utility.yul\":1579:1581   */\n  0x20\n    /* \"#utility.yul\":1605:1669   */\n  tag_54\n    /* \"#utility.yul\":1661:1668   */\n  dup9\n    /* \"#utility.yul\":1652:1658   */\n  dup3\n    /* \"#utility.yul\":1641:1650   */\n  dup10\n    /* \"#utility.yul\":1637:1659   */\n  add\n    /* \"#utility.yul\":1605:1669   */\n  tag_35\n  jump\t// in\ntag_54:\n    /* \"#utility.yul\":1595:1669   */\n  swap5\n  pop\n    /* \"#utility.yul\":1550:1679   */\n  pop\n    /* \"#utility.yul\":1739:1741   */\n  0x40\n    /* \"#utility.yul\":1728:1737   */\n  dup7\n    /* \"#utility.yul\":1724:1742   */\n  add\n    /* \"#utility.yul\":1718:1743   */\n  mload\n    /* \"#utility.yul\":1770:1788   */\n  0xffffffffffffffff\n    /* \"#utility.yul\":1762:1768   */\n  dup2\n    /* \"#utility.yul\":1759:1789   */\n  gt\n    /* \"#utility.yul\":1756:1873   */\n  iszero\n  tag_55\n  jumpi\n    /* \"#utility.yul\":1792:1871   */\n  tag_56\n  tag_57\n  jump\t// in\ntag_56:\n    /* \"#utility.yul\":1756:1873   */\ntag_55:\n    /* \"#utility.yul\":1897:1971   */\n  tag_58\n    /* \"#utility.yul\":1963:1970   */\n  dup9\n    /* \"#utility.yul\":1954:1960   */\n  dup3\n    /* \"#utility.yul\":1943:1952   */\n  dup10\n    /* \"#utility.yul\":1939:1961   */\n  add\n    /* \"#utility.yul\":1897:1971   */\n  tag_39\n  jump\t// in\ntag_58:\n    /* \"#utility.yul\":1887:1971   */\n  swap4\n  pop\n    /* \"#utility.yul\":1689:1981   */\n  pop\n    /* \"#utility.yul\":2041:2043   */\n  0x60\n    /* \"#utility.yul\":2030:2039   */\n  dup7\n    /* \"#utility.yul\":2026:2044   */\n  add\n    /* \"#utility.yul\":2020:2045   */\n  mload\n    /* \"#utility.yul\":2072:2090   */\n  0xffffffffffffffff\n    /* \"#utility.yul\":2064:2070   */\n  dup2\n    /* \"#utility.yul\":2061:2091   */\n  gt\n    /* \"#utility.yul\":2058:2175   */\n  iszero\n  tag_59\n  jumpi\n    /* \"#utility.yul\":2094:2173   */\n  tag_60\n  tag_57\n  jump\t// in\ntag_60:\n    /* \"#utility.yul\":2058:2175   */\ntag_59:\n    /* \"#utility.yul\":2199:2273   */\n  tag_61\n    /* \"#utility.yul\":2265:2272   */\n  dup9\n    /* \"#utility.yul\":2256:2262   */\n  dup3\n    /* \"#utility.yul\":2245:2254   */\n  dup10\n    /* \"#utility.yul\":2241:2263   */\n  add\n    /* \"#utility.yul\":2199:2273   */\n  tag_39\n  jump\t// in\ntag_61:\n    /* \"#utility.yul\":2189:2273   */\n  swap3\n  pop\n    /* \"#utility.yul\":1991:2283   */\n  pop\n    /* \"#utility.yul\":2322:2325   */\n  0x80\n    /* \"#utility.yul\":2349:2413   */\n  tag_62\n    /* \"#utility.yul\":2405:2412   */\n  dup9\n    /* \"#utility.yul\":2396:2402   */\n  dup3\n    /* \"#utility.yul\":2385:2394   */\n  dup10\n    /* \"#utility.yul\":2381:2403   */\n  add\n    /* \"#utility.yul\":2349:2413   */\n  tag_45\n  jump\t// in\ntag_62:\n    /* \"#utility.yul\":2339:2413   */\n  swap2\n  pop\n    /* \"#utility.yul\":2293:2423   */\n  pop\n    /* \"#utility.yul\":1107:2430   */\n  swap3\n  swap6\n  pop\n  swap3\n  swap6\n  swap1\n  swap4\n  pop\n  jump\t// out\n    /* \"#utility.yul\":2436:2565   */\ntag_29:\n    /* \"#utility.yul\":2470:2476   */\n  0x00\n    /* \"#utility.yul\":2497:2517   */\n  tag_64\n  tag_65\n  jump\t// in\ntag_64:\n    /* \"#utility.yul\":2487:2517   */\n  swap1\n  pop\n    /* \"#utility.yul\":2526:2559   */\n  tag_66\n    /* \"#utility.yul\":2554:2558   */\n  dup3\n    /* \"#utility.yul\":2546:2552   */\n  dup3\n    /* \"#utility.yul\":2526:2559   */\n  tag_67\n  jump\t// in\ntag_66:\n    /* \"#utility.yul\":2436:2565   */\n  swap2\n  swap1\n  pop\n  jump\t// out\n    /* \"#utility.yul\":2571:2646   */\ntag_65:\n    /* \"#utility.yul\":2604:2610   */\n  0x00\n    /* \"#utility.yul\":2637:2639   */\n  0x40\n    /* \"#utility.yul\":2631:2640   */\n  mload\n    /* \"#utility.yul\":2621:2640   */\n  swap1\n  pop\n    /* \"#utility.yul\":2571:2646   */\n  swap1\n  jump\t// out\n    /* \"#utility.yul\":2652:2960   */\ntag_28:\n    /* \"#utility.yul\":2714:2718   */\n  0x00\n    /* \"#utility.yul\":2804:2822   */\n  0xffffffffffffffff\n    /* \"#utility.yul\":2796:2802   */\n  dup3\n    /* \"#utility.yul\":2793:2823   */\n  gt\n    /* \"#utility.yul\":2790:2846   */\n  iszero\n  tag_70\n  jumpi\n    /* \"#utility.yul\":2826:2844   */\n  tag_71\n  tag_72\n  jump\t// in\ntag_71:\n    /* \"#utility.yul\":2790:2846   */\ntag_70:\n    /* \"#utility.yul\":2864:2893   */\n  tag_73\n    /* \"#utility.yul\":2886:2892   */\n  dup3\n    /* \"#utility.yul\":2864:2893   */\n  tag_74\n  jump\t// in\ntag_73:\n    /* \"#utility.yul\":2856:2893   */\n  swap1\n  pop\n    /* \"#utility.yul\":2948:2952   */\n  0x20\n    /* \"#utility.yul\":2942:2946   */\n  dup2\n    /* \"#utility.yul\":2938:2953   */\n  add\n    /* \"#utility.yul\":2930:2953   */\n  swap1\n  pop\n    /* \"#utility.yul\":2652:2960   */\n  swap2\n  swap1\n  pop\n  jump\t// out\n    /* \"#utility.yul\":2966:3062   */\ntag_75:\n    /* \"#utility.yul\":3003:3010   */\n  0x00\n    /* \"#utility.yul\":3032:3056   */\n  tag_77\n    /* \"#utility.yul\":3050:3055   */\n  dup3\n    /* \"#utility.yul\":3032:3056   */\n  tag_78\n  jump\t// in\ntag_77:\n    /* \"#utility.yul\":3021:3056   */\n  swap1\n  pop\n    /* \"#utility.yul\":2966:3062   */\n  swap2\n  swap1\n  pop\n  jump\t// out\n    /* \"#utility.yul\":3068:3194   */\ntag_78:\n    /* \"#utility.yul\":3105:3112   */\n  0x00\n    /* \"#utility.yul\":3145:3187   */\n  0xffffffffffffffffffffffffffffffffffffffff\n    /* \"#utility.yul\":3138:3143   */\n  dup3\n    /* \"#utility.yul\":3134:3188   */\n  and\n    /* \"#utility.yul\":3123:3188   */\n  swap1\n  pop\n    /* \"#utility.yul\":3068:3194   */\n  swap2\n  swap1\n  pop\n  jump\t// out\n    /* \"#utility.yul\":3200:3277   */\ntag_80:\n    /* \"#utility.yul\":3237:3244   */\n  0x00\n    /* \"#utility.yul\":3266:3271   */\n  dup2\n    /* \"#utility.yul\":3255:3271   */\n  swap1\n  pop\n    /* \"#utility.yul\":3200:3277   */\n  swap2\n  swap1\n  pop\n  jump\t// out\n    /* \"#utility.yul\":3283:3590   */\ntag_34:\n    /* \"#utility.yul\":3351:3352   */\n  0x00\n    /* \"#utility.yul\":3361:3474   */\ntag_83:\n    /* \"#utility.yul\":3375:3381   */\n  dup4\n    /* \"#utility.yul\":3372:3373   */\n  dup2\n    /* \"#utility.yul\":3369:3382   */\n  lt\n    /* \"#utility.yul\":3361:3474   */\n  iszero\n  tag_85\n  jumpi\n    /* \"#utility.yul\":3460:3461   */\n  dup1\n    /* \"#utility.yul\":3455:3458   */\n  dup3\n    /* \"#utility.yul\":3451:3462   */\n  add\n    /* \"#utility.yul\":3445:3463   */\n  mload\n    /* \"#utility.yul\":3441:3442   */\n  dup2\n    /* \"#utility.yul\":3436:3439   */\n  dup5\n    /* \"#utility.yul\":3432:3443   */\n  add\n    /* \"#utility.yul\":3425:3464   */\n  mstore\n    /* \"#utility.yul\":3397:3399   */\n  0x20\n    /* \"#utility.yul\":3394:3395   */\n  dup2\n    /* \"#utility.yul\":3390:3400   */\n  add\n    /* \"#utility.yul\":3385:3400   */\n  swap1\n  pop\n    /* \"#utility.yul\":3361:3474   */\n  jump(tag_83)\ntag_85:\n    /* \"#utility.yul\":3492:3498   */\n  dup4\n    /* \"#utility.yul\":3489:3490   */\n  dup2\n    /* \"#utility.yul\":3486:3499   */\n  gt\n    /* \"#utility.yul\":3483:3584   */\n  iszero\n  tag_86\n  jumpi\n    /* \"#utility.yul\":3572:3573   */\n  0x00\n    /* \"#utility.yul\":3563:3569   */\n  dup5\n    /* \"#utility.yul\":3558:3561   */\n  dup5\n    /* \"#utility.yul\":3554:3570   */\n  add\n    /* \"#utility.yul\":3547:3574   */\n  mstore\n    /* \"#utility.yul\":3483:3584   */\ntag_86:\n    /* \"#utility.yul\":3332:3590   */\n  pop\n    /* \"#utility.yul\":3283:3590   */\n  pop\n  pop\n  pop\n  jump\t// out\n    /* \"#utility.yul\":3596:3916   */\ntag_13:\n    /* \"#utility.yul\":3640:3646   */\n  0x00\n    /* \"#utility.yul\":3677:3678   */\n  0x02\n    /* \"#utility.yul\":3671:3675   */\n  dup3\n    /* \"#utility.yul\":3667:3679   */\n  div\n    /* \"#utility.yul\":3657:3679   */\n  swap1\n  pop\n    /* \"#utility.yul\":3724:3725   */\n  0x01\n    /* \"#utility.yul\":3718:3722   */\n  dup3\n    /* \"#utility.yul\":3714:3726   */\n  and\n    /* \"#utility.yul\":3745:3763   */\n  dup1\n    /* \"#utility.yul\":3735:3816   */\n  tag_88\n  jumpi\n    /* \"#utility.yul\":3801:3805   */\n  0x7f\n    /* \"#utility.yul\":3793:3799   */\n  dup3\n    /* \"#utility.yul\":3789:3806   */\n  and\n    /* \"#utility.yul\":3779:3806   */\n  swap2\n  pop\n    /* \"#utility.yul\":3735:3816   */\ntag_88:\n    /* \"#utility.yul\":3863:3865   */\n  0x20\n    /* \"#utility.yul\":3855:3861   */\n  dup3\n    /* \"#utility.yul\":3852:3866   */\n  lt\n    /* \"#utility.yul\":3832:3850   */\n  dup2\n    /* \"#utility.yul\":3829:3867   */\n  eq\n    /* \"#utility.yul\":3826:3910   */\n  iszero\n  tag_89\n  jumpi\n    /* \"#utility.yul\":3882:3900   */\n  tag_90\n  tag_91\n  jump\t// in\ntag_90:\n    /* \"#utility.yul\":3826:3910   */\ntag_89:\n    /* \"#utility.yul\":3647:3916   */\n  pop\n    /* \"#utility.yul\":3596:3916   */\n  swap2\n  swap1\n  pop\n  jump\t// out\n    /* \"#utility.yul\":3922:4203   */\ntag_67:\n    /* \"#utility.yul\":4005:4032   */\n  tag_93\n    /* \"#utility.yul\":4027:4031   */\n  dup3\n    /* \"#utility.yul\":4005:4032   */\n  tag_74\n  jump\t// in\ntag_93:\n    /* \"#utility.yul\":3997:4003   */\n  dup2\n    /* \"#utility.yul\":3993:4033   */\n  add\n    /* \"#utility.yul\":4135:4141   */\n  dup2\n    /* \"#utility.yul\":4123:4133   */\n  dup2\n    /* \"#utility.yul\":4120:4142   */\n  lt\n    /* \"#utility.yul\":4099:4117   */\n  0xffffffffffffffff\n    /* \"#utility.yul\":4087:4097   */\n  dup3\n    /* \"#utility.yul\":4084:4118   */\n  gt\n    /* \"#utility.yul\":4081:4143   */\n  or\n    /* \"#utility.yul\":4078:4166   */\n  iszero\n  tag_94\n  jumpi\n    /* \"#utility.yul\":4146:4164   */\n  tag_95\n  tag_72\n  jump\t// in\ntag_95:\n    /* \"#utility.yul\":4078:4166   */\ntag_94:\n    /* \"#utility.yul\":4186:4196   */\n  dup1\n    /* \"#utility.yul\":4182:4184   */\n  0x40\n    /* \"#utility.yul\":4175:4197   */\n  mstore\n    /* \"#utility.yul\":3965:4203   */\n  pop\n    /* \"#utility.yul\":3922:4203   */\n  pop\n  pop\n  jump\t// out\n    /* \"#utility.yul\":4209:4389   */\ntag_91:\n    /* \"#utility.yul\":4257:4334   */\n  0x4e487b7100000000000000000000000000000000000000000000000000000000\n    /* \"#utility.yul\":4254:4255   */\n  0x00\n    /* \"#utility.yul\":4247:4335   */\n  mstore\n    /* \"#utility.yul\":4354:4358   */\n  0x22\n    /* \"#utility.yul\":4351:4352   */\n  0x04\n    /* \"#utility.yul\":4344:4359   */\n  mstore\n    /* \"#utility.yul\":4378:4382   */\n  0x24\n    /* \"#utility.yul\":4375:4376   */\n  0x00\n    /* \"#utility.yul\":4368:4383   */\n  revert\n    /* \"#utility.yul\":4395:4575   */\ntag_72:\n    /* \"#utility.yul\":4443:4520   */\n  0x4e487b7100000000000000000000000000000000000000000000000000000000\n    /* \"#utility.yul\":4440:4441   */\n  0x00\n    /* \"#utility.yul\":4433:4521   */\n  mstore\n    /* \"#utility.yul\":4540:4544   */\n  0x41\n    /* \"#utility.yul\":4537:4538   */\n  0x04\n    /* \"#utility.yul\":4530:4545   */\n  mstore\n    /* \"#utility.yul\":4564:4568   */\n  0x24\n    /* \"#utility.yul\":4561:4562   */\n  0x00\n    /* \"#utility.yul\":4554:4569   */\n  revert\n    /* \"#utility.yul\":4581:4698   */\ntag_43:\n    /* \"#utility.yul\":4690:4691   */\n  0x00\n    /* \"#utility.yul\":4687:4688   */\n  dup1\n    /* \"#utility.yul\":4680:4692   */\n  revert\n    /* \"#utility.yul\":4704:4821   */\ntag_32:\n    /* \"#utility.yul\":4813:4814   */\n  0x00\n    /* \"#utility.yul\":4810:4811   */\n  dup1\n    /* \"#utility.yul\":4803:4815   */\n  revert\n    /* \"#utility.yul\":4827:4944   */\ntag_57:\n    /* \"#utility.yul\":4936:4937   */\n  0x00\n    /* \"#utility.yul\":4933:4934   */\n  dup1\n    /* \"#utility.yul\":4926:4938   */\n  revert\n    /* \"#utility.yul\":4950:5067   */\ntag_52:\n    /* \"#utility.yul\":5059:5060   */\n  0x00\n    /* \"#utility.yul\":5056:5057   */\n  dup1\n    /* \"#utility.yul\":5049:5061   */\n  revert\n    /* \"#utility.yul\":5073:5175   */\ntag_74:\n    /* \"#utility.yul\":5114:5120   */\n  0x00\n    /* \"#utility.yul\":5165:5167   */\n  0x1f\n    /* \"#utility.yul\":5161:5168   */\n  not\n    /* \"#utility.yul\":5156:5158   */\n  0x1f\n    /* \"#utility.yul\":5149:5154   */\n  dup4\n    /* \"#utility.yul\":5145:5159   */\n  add\n    /* \"#utility.yul\":5141:5169   */\n  and\n    /* \"#utility.yul\":5131:5169   */\n  swap1\n  pop\n    /* \"#utility.yul\":5073:5175   */\n  swap2\n  swap1\n  pop\n  jump\t// out\n    /* \"#utility.yul\":5181:5303   */\ntag_38:\n    /* \"#utility.yul\":5254:5278   */\n  tag_104\n    /* \"#utility.yul\":5272:5277   */\n  dup2\n    /* \"#utility.yul\":5254:5278   */\n  tag_75\n  jump\t// in\ntag_104:\n    /* \"#utility.yul\":5247:5252   */\n  dup2\n    /* \"#utility.yul\":5244:5279   */\n  eq\n    /* \"#utility.yul\":5234:5297   */\n  tag_105\n  jumpi\n    /* \"#utility.yul\":5293:5294   */\n  0x00\n    /* \"#utility.yul\":5290:5291   */\n  dup1\n    /* \"#utility.yul\":5283:5295   */\n  revert\n    /* \"#utility.yul\":5234:5297   */\ntag_105:\n    /* \"#utility.yul\":5181:5303   */\n  pop\n  jump\t// out\n    /* \"#utility.yul\":5309:5431   */\ntag_48:\n    /* \"#utility.yul\":5382:5406   */\n  tag_107\n    /* \"#utility.yul\":5400:5405   */\n  dup2\n    /* \"#utility.yul\":5382:5406   */\n  tag_80\n  jump\t// in\ntag_107:\n    /* \"#utility.yul\":5375:5380   */\n  dup2\n    /* \"#utility.yul\":5372:5407   */\n  eq\n    /* \"#utility.yul\":5362:5425   */\n  tag_108\n  jumpi\n    /* \"#utility.yul\":5421:5422   */\n  0x00\n    /* \"#utility.yul\":5418:5419   */\n  dup1\n    /* \"#utility.yul\":5411:5423   */\n  revert\n    /* \"#utility.yul\":5362:5425   */\ntag_108:\n    /* \"#utility.yul\":5309:5431   */\n  pop\n  jump\t// out\n    /* \"challenges/Consorcio/Employee.sol\":84:515  contract Employee is User {\r... */\ntag_11:\n  dataSize(sub_0)\n  dup1\n  dataOffset(sub_0)\n  0x00\n  codecopy\n  0x00\n  return\nstop\n\nsub_0: assembly {\n        /* \"challenges/Consorcio/Employee.sol\":84:515  contract Employee is User {\r... */\n      mstore(0x40, 0x80)\n      jumpi(tag_1, lt(calldatasize, 0x04))\n      shr(0xe0, calldataload(0x00))\n      dup1\n      0xaf640d0f\n      eq\n      tag_3\n      jumpi\n      dup1\n      0xf2bcd022\n      eq\n      tag_4\n      jumpi\n      jump(tag_2)\n    tag_1:\n      jumpi(tag_2, calldatasize)\n      stop\n    tag_2:\n      stop\n        /* \"challenges/Consorcio/User.sol\":92:106  uint public id */\n    tag_3:\n      callvalue\n      dup1\n      iszero\n      tag_9\n      jumpi\n      0x00\n      dup1\n      revert\n    tag_9:\n      pop\n      tag_10\n      tag_11\n      jump\t// in\n    tag_10:\n      mload(0x40)\n      tag_12\n      swap2\n      swap1\n      tag_13\n      jump\t// in\n    tag_12:\n      mload(0x40)\n      dup1\n      swap2\n      sub\n      swap1\n      return\n        /* \"challenges/Consorcio/User.sol\":113:145  address public withdrawalAddress */\n    tag_4:\n      callvalue\n      dup1\n      iszero\n      tag_14\n      jumpi\n      0x00\n      dup1\n      revert\n    tag_14:\n      pop\n      tag_15\n      tag_16\n      jump\t// in\n    tag_15:\n      mload(0x40)\n      tag_17\n      swap2\n      swap1\n      tag_18\n      jump\t// in\n    tag_17:\n      mload(0x40)\n      dup1\n      swap2\n      sub\n      swap1\n      return\n        /* \"challenges/Consorcio/User.sol\":92:106  uint public id */\n    tag_11:\n      sload(0x00)\n      dup2\n      jump\t// out\n        /* \"challenges/Consorcio/User.sol\":113:145  address public withdrawalAddress */\n    tag_16:\n      0x01\n      0x00\n      swap1\n      sload\n      swap1\n      0x0100\n      exp\n      swap1\n      div\n      0xffffffffffffffffffffffffffffffffffffffff\n      and\n      dup2\n      jump\t// out\n        /* \"#utility.yul\":7:125   */\n    tag_20:\n        /* \"#utility.yul\":94:118   */\n      tag_22\n        /* \"#utility.yul\":112:117   */\n      dup2\n        /* \"#utility.yul\":94:118   */\n      tag_23\n      jump\t// in\n    tag_22:\n        /* \"#utility.yul\":89:92   */\n      dup3\n        /* \"#utility.yul\":82:119   */\n      mstore\n        /* \"#utility.yul\":7:125   */\n      pop\n      pop\n      jump\t// out\n        /* \"#utility.yul\":131:249   */\n    tag_24:\n        /* \"#utility.yul\":218:242   */\n      tag_26\n        /* \"#utility.yul\":236:241   */\n      dup2\n        /* \"#utility.yul\":218:242   */\n      tag_27\n      jump\t// in\n    tag_26:\n        /* \"#utility.yul\":213:216   */\n      dup3\n        /* \"#utility.yul\":206:243   */\n      mstore\n        /* \"#utility.yul\":131:249   */\n      pop\n      pop\n      jump\t// out\n        /* \"#utility.yul\":255:477   */\n    tag_18:\n        /* \"#utility.yul\":348:352   */\n      0x00\n        /* \"#utility.yul\":386:388   */\n      0x20\n        /* \"#utility.yul\":375:384   */\n      dup3\n        /* \"#utility.yul\":371:389   */\n      add\n        /* \"#utility.yul\":363:389   */\n      swap1\n      pop\n        /* \"#utility.yul\":399:470   */\n      tag_29\n        /* \"#utility.yul\":467:468   */\n      0x00\n        /* \"#utility.yul\":456:465   */\n      dup4\n        /* \"#utility.yul\":452:469   */\n      add\n        /* \"#utility.yul\":443:449   */\n      dup5\n        /* \"#utility.yul\":399:470   */\n      tag_20\n      jump\t// in\n    tag_29:\n        /* \"#utility.yul\":255:477   */\n      swap3\n      swap2\n      pop\n      pop\n      jump\t// out\n        /* \"#utility.yul\":483:705   */\n    tag_13:\n        /* \"#utility.yul\":576:580   */\n      0x00\n        /* \"#utility.yul\":614:616   */\n      0x20\n        /* \"#utility.yul\":603:612   */\n      dup3\n        /* \"#utility.yul\":599:617   */\n      add\n        /* \"#utility.yul\":591:617   */\n      swap1\n      pop\n        /* \"#utility.yul\":627:698   */\n      tag_31\n        /* \"#utility.yul\":695:696   */\n      0x00\n        /* \"#utility.yul\":684:693   */\n      dup4\n        /* \"#utility.yul\":680:697   */\n      add\n        /* \"#utility.yul\":671:677   */\n      dup5\n        /* \"#utility.yul\":627:698   */\n      tag_24\n      jump\t// in\n    tag_31:\n        /* \"#utility.yul\":483:705   */\n      swap3\n      swap2\n      pop\n      pop\n      jump\t// out\n        /* \"#utility.yul\":711:807   */\n    tag_23:\n        /* \"#utility.yul\":748:755   */\n      0x00\n        /* \"#utility.yul\":777:801   */\n      tag_33\n        /* \"#utility.yul\":795:800   */\n      dup3\n        /* \"#utility.yul\":777:801   */\n      tag_34\n      jump\t// in\n    tag_33:\n        /* \"#utility.yul\":766:801   */\n      swap1\n      pop\n        /* \"#utility.yul\":711:807   */\n      swap2\n      swap1\n      pop\n      jump\t// out\n        /* \"#utility.yul\":813:939   */\n    tag_34:\n        /* \"#utility.yul\":850:857   */\n      0x00\n        /* \"#utility.yul\":890:932   */\n      0xffffffffffffffffffffffffffffffffffffffff\n        /* \"#utility.yul\":883:888   */\n      dup3\n        /* \"#utility.yul\":879:933   */\n      and\n        /* \"#utility.yul\":868:933   */\n      swap1\n      pop\n        /* \"#utility.yul\":813:939   */\n      swap2\n      swap1\n      pop\n      jump\t// out\n        /* \"#utility.yul\":945:1022   */\n    tag_27:\n        /* \"#utility.yul\":982:989   */\n      0x00\n        /* \"#utility.yul\":1011:1016   */\n      dup2\n        /* \"#utility.yul\":1000:1016   */\n      swap1\n      pop\n        /* \"#utility.yul\":945:1022   */\n      swap2\n      swap1\n      pop\n      jump\t// out\n\n    auxdata: 0xa2646970667358221220a38e8011fb2ce7e5f31446660a91d58edb606cfccbb38e044fab61fbfe67414c64736f6c63430008070033\n}\n",
				"bytecode": {
					"linkReferences": {},
					"object": "608060405234801561001057600080fd5b50604051610613380380610613833981810160405281019061003291906101fa565b84848160008190555080600160006101000a81548173ffffffffffffffffffffffffffffffffffffffff021916908373ffffffffffffffffffffffffffffffffffffffff160217905550505082600290805190602001906100949291906100bd565b5081600390805190602001906100ab9291906100bd565b50806004819055505050505050610486565b8280546100c990610372565b90600052602060002090601f0160209004810192826100eb5760008555610132565b82601f1061010457805160ff1916838001178555610132565b82800160010185558215610132579182015b82811115610131578251825591602001919060010190610116565b5b50905061013f9190610143565b5090565b5b8082111561015c576000816000905550600101610144565b5090565b600061017361016e846102d2565b6102ad565b90508281526020810184848401111561018f5761018e610438565b5b61019a84828561033f565b509392505050565b6000815190506101b181610458565b92915050565b600082601f8301126101cc576101cb610433565b5b81516101dc848260208601610160565b91505092915050565b6000815190506101f48161046f565b92915050565b600080600080600060a0868803121561021657610215610442565b5b6000610224888289016101e5565b9550506020610235888289016101a2565b945050604086015167ffffffffffffffff8111156102565761025561043d565b5b610262888289016101b7565b935050606086015167ffffffffffffffff8111156102835761028261043d565b5b61028f888289016101b7565b92505060806102a0888289016101e5565b9150509295509295909350565b60006102b76102c8565b90506102c382826103a4565b919050565b6000604051905090565b600067ffffffffffffffff8211156102ed576102ec610404565b5b6102f682610447565b9050602081019050919050565b600061030e82610315565b9050919050565b600073ffffffffffffffffffffffffffffffffffffffff82169050919050565b6000819050919050565b60005b8381101561035d578082015181840152602081019050610342565b8381111561036c576000848401525b50505050565b6000600282049050600182168061038a57607f821691505b6020821081141561039e5761039d6103d5565b5b50919050565b6103ad82610447565b810181811067ffffffffffffffff821117156103cc576103cb610404565b5b80604052505050565b7f4e487b7100000000000000000000000000000000000000000000000000000000600052602260045260246000fd5b7f4e487b7100000000000000000000000000000000000000000000000000000000600052604160045260246000fd5b600080fd5b600080fd5b600080fd5b600080fd5b6000601f19601f8301169050919050565b61046181610303565b811461046c57600080fd5b50565b61047881610335565b811461048357600080fd5b50565b61017e806104956000396000f3fe60806040526004361061002d5760003560e01c8063af640d0f14610036578063f2bcd0221461006157610034565b3661003457005b005b34801561004257600080fd5b5061004b61008c565b60405161005891906100f1565b60405180910390f35b34801561006d57600080fd5b50610076610092565b60405161008391906100d6565b60405180910390f35b60005481565b600160009054906101000a900473ffffffffffffffffffffffffffffffffffffffff1681565b6100c18161010c565b82525050565b6100d08161013e565b82525050565b60006020820190506100eb60008301846100b8565b92915050565b600060208201905061010660008301846100c7565b92915050565b60006101178261011e565b9050919050565b600073ffffffffffffffffffffffffffffffffffffffff82169050919050565b600081905091905056fea2646970667358221220a38e8011fb2ce7e5f31446660a91d58edb606cfccbb38e044fab61fbfe67414c64736f6c63430008070033",
					"opcodes": "PUSH1 0x80 PUSH1 0x40 MSTORE CALLVALUE DUP1 ISZERO PUSH2 0x10 JUMPI PUSH1 0x0 DUP1 REVERT JUMPDEST POP PUSH1 0x40 MLOAD PUSH2 0x613 CODESIZE SUB DUP1 PUSH2 0x613 DUP4 CODECOPY DUP2 DUP2 ADD PUSH1 0x40 MSTORE DUP2 ADD SWAP1 PUSH2 0x32 SWAP2 SWAP1 PUSH2 0x1FA JUMP JUMPDEST DUP5 DUP5 DUP2 PUSH1 0x0 DUP2 SWAP1 SSTORE POP DUP1 PUSH1 0x1 PUSH1 0x0 PUSH2 0x100 EXP DUP2 SLOAD DUP2 PUSH20 0xFFFFFFFFFFFFFFFFFFFFFFFFFFFFFFFFFFFFFFFF MUL NOT AND SWAP1 DUP4 PUSH20 0xFFFFFFFFFFFFFFFFFFFFFFFFFFFFFFFFFFFFFFFF AND MUL OR SWAP1 SSTORE POP POP POP DUP3 PUSH1 0x2 SWAP1 DUP1 MLOAD SWAP1 PUSH1 0x20 ADD SWAP1 PUSH2 0x94 SWAP3 SWAP2 SWAP1 PUSH2 0xBD JUMP JUMPDEST POP DUP2 PUSH1 0x3 SWAP1 DUP1 MLOAD SWAP1 PUSH1 0x20 ADD SWAP1 PUSH2 0xAB SWAP3 SWAP2 SWAP1 PUSH2 0xBD JUMP JUMPDEST POP DUP1 PUSH1 0x4 DUP2 SWAP1 SSTORE POP POP POP POP POP POP PUSH2 0x486 JUMP JUMPDEST DUP3 DUP1 SLOAD PUSH2 0xC9 SWAP1 PUSH2 0x372 JUMP JUMPDEST SWAP1 PUSH1 0x0 MSTORE PUSH1 0x20 PUSH1 0x0 KECCAK256 SWAP1 PUSH1 0x1F ADD PUSH1 0x20 SWAP1 DIV DUP2 ADD SWAP3 DUP3 PUSH2 0xEB JUMPI PUSH1 0x0 DUP6 SSTORE PUSH2 0x132 JUMP JUMPDEST DUP3 PUSH1 0x1F LT PUSH2 0x104 JUMPI DUP1 MLOAD PUSH1 0xFF NOT AND DUP4 DUP1 ADD OR DUP6 SSTORE PUSH2 0x132 JUMP JUMPDEST DUP3 DUP1 ADD PUSH1 0x1 ADD DUP6 SSTORE DUP3 ISZERO PUSH2 0x132 JUMPI SWAP2 DUP3 ADD JUMPDEST DUP3 DUP2 GT ISZERO PUSH2 0x131 JUMPI DUP3 MLOAD DUP3 SSTORE SWAP2 PUSH1 0x20 ADD SWAP2 SWAP1 PUSH1 0x1 ADD SWAP1 PUSH2 0x116 JUMP JUMPDEST JUMPDEST POP SWAP1 POP PUSH2 0x13F SWAP2 SWAP1 PUSH2 0x143 JUMP JUMPDEST POP SWAP1 JUMP JUMPDEST JUMPDEST DUP1 DUP3 GT ISZERO PUSH2 0x15C JUMPI PUSH1 0x0 DUP2 PUSH1 0x0 SWAP1 SSTORE POP PUSH1 0x1 ADD PUSH2 0x144 JUMP JUMPDEST POP SWAP1 JUMP JUMPDEST PUSH1 0x0 PUSH2 0x173 PUSH2 0x16E DUP5 PUSH2 0x2D2 JUMP JUMPDEST PUSH2 0x2AD JUMP JUMPDEST SWAP1 POP DUP3 DUP2 MSTORE PUSH1 0x20 DUP2 ADD DUP5 DUP5 DUP5 ADD GT ISZERO PUSH2 0x18F JUMPI PUSH2 0x18E PUSH2 0x438 JUMP JUMPDEST JUMPDEST PUSH2 0x19A DUP5 DUP3 DUP6 PUSH2 0x33F JUMP JUMPDEST POP SWAP4 SWAP3 POP POP POP JUMP JUMPDEST PUSH1 0x0 DUP2 MLOAD SWAP1 POP PUSH2 0x1B1 DUP2 PUSH2 0x458 JUMP JUMPDEST SWAP3 SWAP2 POP POP JUMP JUMPDEST PUSH1 0x0 DUP3 PUSH1 0x1F DUP4 ADD SLT PUSH2 0x1CC JUMPI PUSH2 0x1CB PUSH2 0x433 JUMP JUMPDEST JUMPDEST DUP2 MLOAD PUSH2 0x1DC DUP5 DUP3 PUSH1 0x20 DUP7 ADD PUSH2 0x160 JUMP JUMPDEST SWAP2 POP POP SWAP3 SWAP2 POP POP JUMP JUMPDEST PUSH1 0x0 DUP2 MLOAD SWAP1 POP PUSH2 0x1F4 DUP2 PUSH2 0x46F JUMP JUMPDEST SWAP3 SWAP2 POP POP JUMP JUMPDEST PUSH1 0x0 DUP1 PUSH1 0x0 DUP1 PUSH1 0x0 PUSH1 0xA0 DUP7 DUP9 SUB SLT ISZERO PUSH2 0x216 JUMPI PUSH2 0x215 PUSH2 0x442 JUMP JUMPDEST JUMPDEST PUSH1 0x0 PUSH2 0x224 DUP9 DUP3 DUP10 ADD PUSH2 0x1E5 JUMP JUMPDEST SWAP6 POP POP PUSH1 0x20 PUSH2 0x235 DUP9 DUP3 DUP10 ADD PUSH2 0x1A2 JUMP JUMPDEST SWAP5 POP POP PUSH1 0x40 DUP7 ADD MLOAD PUSH8 0xFFFFFFFFFFFFFFFF DUP2 GT ISZERO PUSH2 0x256 JUMPI PUSH2 0x255 PUSH2 0x43D JUMP JUMPDEST JUMPDEST PUSH2 0x262 DUP9 DUP3 DUP10 ADD PUSH2 0x1B7 JUMP JUMPDEST SWAP4 POP POP PUSH1 0x60 DUP7 ADD MLOAD PUSH8 0xFFFFFFFFFFFFFFFF DUP2 GT ISZERO PUSH2 0x283 JUMPI PUSH2 0x282 PUSH2 0x43D JUMP JUMPDEST JUMPDEST PUSH2 0x28F DUP9 DUP3 DUP10 ADD PUSH2 0x1B7 JUMP JUMPDEST SWAP3 POP POP PUSH1 0x80 PUSH2 0x2A0 DUP9 DUP3 DUP10 ADD PUSH2 0x1E5 JUMP JUMPDEST SWAP2 POP POP SWAP3 SWAP6 POP SWAP3 SWAP6 SWAP1 SWAP4 POP JUMP JUMPDEST PUSH1 0x0 PUSH2 0x2B7 PUSH2 0x2C8 JUMP JUMPDEST SWAP1 POP PUSH2 0x2C3 DUP3 DUP3 PUSH2 0x3A4 JUMP JUMPDEST SWAP2 SWAP1 POP JUMP JUMPDEST PUSH1 0x0 PUSH1 0x40 MLOAD SWAP1 POP SWAP1 JUMP JUMPDEST PUSH1 0x0 PUSH8 0xFFFFFFFFFFFFFFFF DUP3 GT ISZERO PUSH2 0x2ED JUMPI PUSH2 0x2EC PUSH2 0x404 JUMP JUMPDEST JUMPDEST PUSH2 0x2F6 DUP3 PUSH2 0x447 JUMP JUMPDEST SWAP1 POP PUSH1 0x20 DUP2 ADD SWAP1 POP SWAP2 SWAP1 POP JUMP JUMPDEST PUSH1 0x0 PUSH2 0x30E DUP3 PUSH2 0x315 JUMP JUMPDEST SWAP1 POP SWAP2 SWAP1 POP JUMP JUMPDEST PUSH1 0x0 PUSH20 0xFFFFFFFFFFFFFFFFFFFFFFFFFFFFFFFFFFFFFFFF DUP3 AND SWAP1 POP SWAP2 SWAP1 POP JUMP JUMPDEST PUSH1 0x0 DUP2 SWAP1 POP SWAP2 SWAP1 POP JUMP JUMPDEST PUSH1 0x0 JUMPDEST DUP4 DUP2 LT ISZERO PUSH2 0x35D JUMPI DUP1 DUP3 ADD MLOAD DUP2 DUP5 ADD MSTORE PUSH1 0x20 DUP2 ADD SWAP1 POP PUSH2 0x342 JUMP JUMPDEST DUP4 DUP2 GT ISZERO PUSH2 0x36C JUMPI PUSH1 0x0 DUP5 DUP5 ADD MSTORE JUMPDEST POP POP POP POP JUMP JUMPDEST PUSH1 0x0 PUSH1 0x2 DUP3 DIV SWAP1 POP PUSH1 0x1 DUP3 AND DUP1 PUSH2 0x38A JUMPI PUSH1 0x7F DUP3 AND SWAP2 POP JUMPDEST PUSH1 0x20 DUP3 LT DUP2 EQ ISZERO PUSH2 0x39E JUMPI PUSH2 0x39D PUSH2 0x3D5 JUMP JUMPDEST JUMPDEST POP SWAP2 SWAP1 POP JUMP JUMPDEST PUSH2 0x3AD DUP3 PUSH2 0x447 JUMP JUMPDEST DUP2 ADD DUP2 DUP2 LT PUSH8 0xFFFFFFFFFFFFFFFF DUP3 GT OR ISZERO PUSH2 0x3CC JUMPI PUSH2 0x3CB PUSH2 0x404 JUMP JUMPDEST JUMPDEST DUP1 PUSH1 0x40 MSTORE POP POP POP JUMP JUMPDEST PUSH32 0x4E487B7100000000000000000000000000000000000000000000000000000000 PUSH1 0x0 MSTORE PUSH1 0x22 PUSH1 0x4 MSTORE PUSH1 0x24 PUSH1 0x0 REVERT JUMPDEST PUSH32 0x4E487B7100000000000000000000000000000000000000000000000000000000 PUSH1 0x0 MSTORE PUSH1 0x41 PUSH1 0x4 MSTORE PUSH1 0x24 PUSH1 0x0 REVERT JUMPDEST PUSH1 0x0 DUP1 REVERT JUMPDEST PUSH1 0x0 DUP1 REVERT JUMPDEST PUSH1 0x0 DUP1 REVERT JUMPDEST PUSH1 0x0 DUP1 REVERT JUMPDEST PUSH1 0x0 PUSH1 0x1F NOT PUSH1 0x1F DUP4 ADD AND SWAP1 POP SWAP2 SWAP1 POP JUMP JUMPDEST PUSH2 0x461 DUP2 PUSH2 0x303 JUMP JUMPDEST DUP2 EQ PUSH2 0x46C JUMPI PUSH1 0x0 DUP1 REVERT JUMPDEST POP JUMP JUMPDEST PUSH2 0x478 DUP2 PUSH2 0x335 JUMP JUMPDEST DUP2 EQ PUSH2 0x483 JUMPI PUSH1 0x0 DUP1 REVERT JUMPDEST POP JUMP JUMPDEST PUSH2 0x17E DUP1 PUSH2 0x495 PUSH1 0x0 CODECOPY PUSH1 0x0 RETURN INVALID PUSH1 0x80 PUSH1 0x40 MSTORE PUSH1 0x4 CALLDATASIZE LT PUSH2 0x2D JUMPI PUSH1 0x0 CALLDATALOAD PUSH1 0xE0 SHR DUP1 PUSH4 0xAF640D0F EQ PUSH2 0x36 JUMPI DUP1 PUSH4 0xF2BCD022 EQ PUSH2 0x61 JUMPI PUSH2 0x34 JUMP JUMPDEST CALLDATASIZE PUSH2 0x34 JUMPI STOP JUMPDEST STOP JUMPDEST CALLVALUE DUP1 ISZERO PUSH2 0x42 JUMPI PUSH1 0x0 DUP1 REVERT JUMPDEST POP PUSH2 0x4B PUSH2 0x8C JUMP JUMPDEST PUSH1 0x40 MLOAD PUSH2 0x58 SWAP2 SWAP1 PUSH2 0xF1 JUMP JUMPDEST PUSH1 0x40 MLOAD DUP1 SWAP2 SUB SWAP1 RETURN JUMPDEST CALLVALUE DUP1 ISZERO PUSH2 0x6D JUMPI PUSH1 0x0 DUP1 REVERT JUMPDEST POP PUSH2 0x76 PUSH2 0x92 JUMP JUMPDEST PUSH1 0x40 MLOAD PUSH2 0x83 SWAP2 SWAP1 PUSH2 0xD6 JUMP JUMPDEST PUSH1 0x40 MLOAD DUP1 SWAP2 SUB SWAP1 RETURN JUMPDEST PUSH1 0x0 SLOAD DUP2 JUMP JUMPDEST PUSH1 0x1 PUSH1 0x0 SWAP1 SLOAD SWAP1 PUSH2 0x100 EXP SWAP1 DIV PUSH20 0xFFFFFFFFFFFFFFFFFFFFFFFFFFFFFFFFFFFFFFFF AND DUP2 JUMP JUMPDEST PUSH2 0xC1 DUP2 PUSH2 0x10C JUMP JUMPDEST DUP3 MSTORE POP POP JUMP JUMPDEST PUSH2 0xD0 DUP2 PUSH2 0x13E JUMP JUMPDEST DUP3 MSTORE POP POP JUMP JUMPDEST PUSH1 0x0 PUSH1 0x20 DUP3 ADD SWAP1 POP PUSH2 0xEB PUSH1 0x0 DUP4 ADD DUP5 PUSH2 0xB8 JUMP JUMPDEST SWAP3 SWAP2 POP POP JUMP JUMPDEST PUSH1 0x0 PUSH1 0x20 DUP3 ADD SWAP1 POP PUSH2 0x106 PUSH1 0x0 DUP4 ADD DUP5 PUSH2 0xC7 JUMP JUMPDEST SWAP3 SWAP2 POP POP JUMP JUMPDEST PUSH1 0x0 PUSH2 0x117 DUP3 PUSH2 0x11E JUMP JUMPDEST SWAP1 POP SWAP2 SWAP1 POP JUMP JUMPDEST PUSH1 0x0 PUSH20 0xFFFFFFFFFFFFFFFFFFFFFFFFFFFFFFFFFFFFFFFF DUP3 AND SWAP1 POP SWAP2 SWAP1 POP JUMP JUMPDEST PUSH1 0x0 DUP2 SWAP1 POP SWAP2 SWAP1 POP JUMP INVALID LOG2 PUSH5 0x6970667358 0x22 SLT KECCAK256 LOG3 DUP15 DUP1 GT 0xFB 0x2C 0xE7 0xE5 RETURN EQ CHAINID PUSH7 0xA91D58EDB606C 0xFC 0xCB 0xB3 DUP15 DIV 0x4F 0xAB PUSH2 0xFBFE PUSH8 0x414C64736F6C6343 STOP ADDMOD SMOD STOP CALLER "
				},
				"gasEstimates": {
					"creation": {
						"codeDepositCost": "76400",
						"executionCost": "infinite",
						"totalCost": "infinite"
					},
					"external": {
						"": "107",
						"id()": "2407",
						"withdrawalAddress()": "2514"
					}
				},
				"methodIdentifiers": {
					"id()": "af640d0f",
					"withdrawalAddress()": "f2bcd022"
				}
			},
			"storageLayout": {
				"storage": [
					{
						"astId": 296,
						"contract": "challenges/Consorcio/Employee.sol:Employee",
						"label": "id",
						"offset": 0,
						"slot": "0",
						"type": "t_uint256"
					},
					{
						"astId": 298,
						"contract": "challenges/Consorcio/Employee.sol:Employee",
						"label": "withdrawalAddress",
						"offset": 0,
						"slot": "1",
						"type": "t_address"
					},
					{
						"astId": 211,
						"contract": "challenges/Consorcio/Employee.sol:Employee",
						"label": "proffession",
						"offset": 0,
						"slot": "2",
						"type": "t_string_storage"
					},
					{
						"astId": 213,
						"contract": "challenges/Consorcio/Employee.sol:Employee",
						"label": "schedule",
						"offset": 0,
						"slot": "3",
						"type": "t_string_storage"
					},
					{
						"astId": 215,
						"contract": "challenges/Consorcio/Employee.sol:Employee",
						"label": "salary",
						"offset": 0,
						"slot": "4",
						"type": "t_uint256"
					}
				],
				"types": {
					"t_address": {
						"encoding": "inplace",
						"label": "address",
						"numberOfBytes": "20"
					},
					"t_string_storage": {
						"encoding": "bytes",
						"label": "string",
						"numberOfBytes": "32"
					},
					"t_uint256": {
						"encoding": "inplace",
						"label": "uint256",
						"numberOfBytes": "32"
					}
				}
			},
			"userdoc": {
				"kind": "user",
				"methods": {},
				"version": 1
			}
		}
	}
}