{
	"challenges/Consorcio/Consorcio.sol": {
		"Consorcio": {
			"abi": [
				{
					"anonymous": false,
					"inputs": [
						{
							"indexed": true,
							"internalType": "address",
							"name": "previousOwner",
							"type": "address"
						},
						{
							"indexed": true,
							"internalType": "address",
							"name": "newOwner",
							"type": "address"
						}
					],
					"name": "OwnershipTransferred",
					"type": "event"
				},
				{
					"stateMutability": "payable",
					"type": "fallback"
				},
				{
					"inputs": [
						{
							"internalType": "uint256",
							"name": "_id",
							"type": "uint256"
						},
						{
							"internalType": "address",
							"name": "_address",
							"type": "address"
						},
						{
							"internalType": "string",
							"name": "_profession",
							"type": "string"
						},
						{
							"internalType": "string",
							"name": "_schedule",
							"type": "string"
						},
						{
							"internalType": "uint256",
							"name": "_salary",
							"type": "uint256"
						}
					],
					"name": "addNewEmployee",
					"outputs": [],
					"stateMutability": "nonpayable",
					"type": "function"
				},
				{
					"inputs": [
						{
							"internalType": "string",
							"name": "_service",
							"type": "string"
						},
						{
							"internalType": "uint256",
							"name": "_price",
							"type": "uint256"
						}
					],
					"name": "addNewService",
					"outputs": [],
					"stateMutability": "nonpayable",
					"type": "function"
				},
				{
					"inputs": [
						{
							"internalType": "uint256",
							"name": "_id",
							"type": "uint256"
						},
						{
							"internalType": "address",
							"name": "_address",
							"type": "address"
						},
						{
							"internalType": "uint256",
							"name": "_expenses",
							"type": "uint256"
						},
						{
							"internalType": "uint256",
							"name": "_aptAddress",
							"type": "uint256"
						}
					],
					"name": "addNewTenant",
					"outputs": [],
					"stateMutability": "nonpayable",
					"type": "function"
				},
				{
					"inputs": [],
					"name": "depositEmployee",
					"outputs": [],
					"stateMutability": "payable",
					"type": "function"
				},
				{
					"inputs": [],
					"name": "depositTenant",
					"outputs": [],
					"stateMutability": "payable",
					"type": "function"
				},
				{
					"inputs": [],
					"name": "owner",
					"outputs": [
						{
							"internalType": "address",
							"name": "",
							"type": "address"
						}
					],
					"stateMutability": "view",
					"type": "function"
				},
				{
					"inputs": [],
					"name": "payAllServices",
					"outputs": [],
					"stateMutability": "nonpayable",
					"type": "function"
				},
				{
					"inputs": [],
					"name": "paySalaries",
					"outputs": [],
					"stateMutability": "nonpayable",
					"type": "function"
				},
				{
					"inputs": [
						{
							"internalType": "uint256",
							"name": "index",
							"type": "uint256"
						}
					],
					"name": "payService",
					"outputs": [],
					"stateMutability": "nonpayable",
					"type": "function"
				},
				{
					"inputs": [],
					"name": "renounceOwnership",
					"outputs": [],
					"stateMutability": "nonpayable",
					"type": "function"
				},
				{
					"inputs": [],
					"name": "showAddress",
					"outputs": [
						{
							"internalType": "address",
							"name": "",
							"type": "address"
						}
					],
					"stateMutability": "view",
					"type": "function"
				},
				{
					"inputs": [],
					"name": "tenantWithdrawal",
					"outputs": [],
					"stateMutability": "nonpayable",
					"type": "function"
				},
				{
					"inputs": [
						{
							"internalType": "address",
							"name": "newOwner",
							"type": "address"
						}
					],
					"name": "transferOwnership",
					"outputs": [],
					"stateMutability": "nonpayable",
					"type": "function"
				},
				{
					"stateMutability": "payable",
					"type": "receive"
				}
			],
			"devdoc": {
				"kind": "dev",
				"methods": {
					"owner()": {
						"details": "Returns the address of the current owner."
					},
					"renounceOwnership()": {
						"details": "Leaves the contract without owner. It will not be possible to call `onlyOwner` functions anymore. Can only be called by the current owner. NOTE: Renouncing ownership will leave the contract without an owner, thereby removing any functionality that is only available to the owner."
					},
					"transferOwnership(address)": {
						"details": "Transfers ownership of the contract to a new account (`newOwner`). Can only be called by the current owner."
					}
				},
				"version": 1
			},
			"evm": {
				"assembly": "    /* \"challenges/Consorcio/Consorcio.sol\":188:3920  contract Consorcio is Ownable {\r... */\n  mstore(0x40, 0x80)\n  callvalue\n  dup1\n  iszero\n  tag_1\n  jumpi\n  0x00\n  dup1\n  revert\ntag_1:\n  pop\n    /* \"@openzeppelin/contracts/access/Ownable.sol\":936:968  _transferOwnership(_msgSender()) */\n  tag_4\n    /* \"@openzeppelin/contracts/access/Ownable.sol\":955:967  _msgSender() */\n  tag_5\n    /* \"@openzeppelin/contracts/access/Ownable.sol\":955:965  _msgSender */\n  shl(0x20, tag_6)\n    /* \"@openzeppelin/contracts/access/Ownable.sol\":955:967  _msgSender() */\n  0x20\n  shr\n  jump\t// in\ntag_5:\n    /* \"@openzeppelin/contracts/access/Ownable.sol\":936:954  _transferOwnership */\n  shl(0x20, tag_7)\n    /* \"@openzeppelin/contracts/access/Ownable.sol\":936:968  _transferOwnership(_msgSender()) */\n  0x20\n  shr\n  jump\t// in\ntag_4:\n    /* \"challenges/Consorcio/Consorcio.sol\":188:3920  contract Consorcio is Ownable {\r... */\n  jump(tag_8)\n    /* \"@openzeppelin/contracts/utils/Context.sol\":640:736  function _msgSender() internal view virtual returns (address) {... */\ntag_6:\n    /* \"@openzeppelin/contracts/utils/Context.sol\":693:700  address */\n  0x00\n    /* \"@openzeppelin/contracts/utils/Context.sol\":719:729  msg.sender */\n  caller\n    /* \"@openzeppelin/contracts/utils/Context.sol\":712:729  return msg.sender */\n  swap1\n  pop\n    /* \"@openzeppelin/contracts/utils/Context.sol\":640:736  function _msgSender() internal view virtual returns (address) {... */\n  swap1\n  jump\t// out\n    /* \"@openzeppelin/contracts/access/Ownable.sol\":2433:2620  function _transferOwnership(address newOwner) internal virtual {... */\ntag_7:\n    /* \"@openzeppelin/contracts/access/Ownable.sol\":2506:2522  address oldOwner */\n  0x00\n    /* \"@openzeppelin/contracts/access/Ownable.sol\":2525:2531  _owner */\n  dup1\n  0x00\n  swap1\n  sload\n  swap1\n  0x0100\n  exp\n  swap1\n  div\n  0xffffffffffffffffffffffffffffffffffffffff\n  and\n    /* \"@openzeppelin/contracts/access/Ownable.sol\":2506:2531  address oldOwner = _owner */\n  swap1\n  pop\n    /* \"@openzeppelin/contracts/access/Ownable.sol\":2550:2558  newOwner */\n  dup2\n    /* \"@openzeppelin/contracts/access/Ownable.sol\":2541:2547  _owner */\n  0x00\n  dup1\n    /* \"@openzeppelin/contracts/access/Ownable.sol\":2541:2558  _owner = newOwner */\n  0x0100\n  exp\n  dup2\n  sload\n  dup2\n  0xffffffffffffffffffffffffffffffffffffffff\n  mul\n  not\n  and\n  swap1\n  dup4\n  0xffffffffffffffffffffffffffffffffffffffff\n  and\n  mul\n  or\n  swap1\n  sstore\n  pop\n    /* \"@openzeppelin/contracts/access/Ownable.sol\":2604:2612  newOwner */\n  dup2\n    /* \"@openzeppelin/contracts/access/Ownable.sol\":2573:2613  OwnershipTransferred(oldOwner, newOwner) */\n  0xffffffffffffffffffffffffffffffffffffffff\n  and\n    /* \"@openzeppelin/contracts/access/Ownable.sol\":2594:2602  oldOwner */\n  dup2\n    /* \"@openzeppelin/contracts/access/Ownable.sol\":2573:2613  OwnershipTransferred(oldOwner, newOwner) */\n  0xffffffffffffffffffffffffffffffffffffffff\n  and\n  0x8be0079c531659141344cd1fd0a4f28419497f9722a3daafe3b4186f6b6457e0\n  mload(0x40)\n  mload(0x40)\n  dup1\n  swap2\n  sub\n  swap1\n  log3\n    /* \"@openzeppelin/contracts/access/Ownable.sol\":2496:2620  {... */\n  pop\n    /* \"@openzeppelin/contracts/access/Ownable.sol\":2433:2620  function _transferOwnership(address newOwner) internal virtual {... */\n  pop\n  jump\t// out\n    /* \"challenges/Consorcio/Consorcio.sol\":188:3920  contract Consorcio is Ownable {\r... */\ntag_8:\n  dataSize(sub_0)\n  dup1\n  dataOffset(sub_0)\n  0x00\n  codecopy\n  0x00\n  return\nstop\n\nsub_0: assembly {\n        /* \"challenges/Consorcio/Consorcio.sol\":188:3920  contract Consorcio is Ownable {\r... */\n      mstore(0x40, 0x80)\n      jumpi(tag_1, lt(calldatasize, 0x04))\n      shr(0xe0, calldataload(0x00))\n      dup1\n      0x8da5cb5b\n      gt\n      tag_16\n      jumpi\n      dup1\n      0xcd7d77c5\n      gt\n      tag_17\n      jumpi\n      dup1\n      0xcd7d77c5\n      eq\n      tag_12\n      jumpi\n      dup1\n      0xeb20f21a\n      eq\n      tag_13\n      jumpi\n      dup1\n      0xec3ab274\n      eq\n      tag_14\n      jumpi\n      dup1\n      0xf2fde38b\n      eq\n      tag_15\n      jumpi\n      jump(tag_2)\n    tag_17:\n      dup1\n      0x8da5cb5b\n      eq\n      tag_9\n      jumpi\n      dup1\n      0xbce58703\n      eq\n      tag_10\n      jumpi\n      dup1\n      0xc2d2a83c\n      eq\n      tag_11\n      jumpi\n      jump(tag_2)\n    tag_16:\n      dup1\n      0x08b567fc\n      eq\n      tag_3\n      jumpi\n      dup1\n      0x2db3361b\n      eq\n      tag_4\n      jumpi\n      dup1\n      0x42e36b3b\n      eq\n      tag_5\n      jumpi\n      dup1\n      0x715018a6\n      eq\n      tag_6\n      jumpi\n      dup1\n      0x72673e31\n      eq\n      tag_7\n      jumpi\n      dup1\n      0x85ffebd7\n      eq\n      tag_8\n      jumpi\n      jump(tag_2)\n    tag_1:\n      jumpi(tag_2, calldatasize)\n      stop\n    tag_2:\n      stop\n        /* \"challenges/Consorcio/Consorcio.sol\":3062:3604  function addNewEmployee(uint _id, address _address, string memory _profession, string memory _schedule, uint _salary) public {\r... */\n    tag_3:\n      callvalue\n      dup1\n      iszero\n      tag_22\n      jumpi\n      0x00\n      dup1\n      revert\n    tag_22:\n      pop\n      tag_23\n      0x04\n      dup1\n      calldatasize\n      sub\n      dup2\n      add\n      swap1\n      tag_24\n      swap2\n      swap1\n      tag_25\n      jump\t// in\n    tag_24:\n      tag_26\n      jump\t// in\n    tag_23:\n      stop\n        /* \"challenges/Consorcio/Consorcio.sol\":2709:2917  function depositTenant() public payable {\r... */\n    tag_4:\n      tag_27\n      tag_28\n      jump\t// in\n    tag_27:\n      stop\n        /* \"challenges/Consorcio/Consorcio.sol\":583:1349  function paySalaries() public onlyOwner {\r... */\n    tag_5:\n      callvalue\n      dup1\n      iszero\n      tag_29\n      jumpi\n      0x00\n      dup1\n      revert\n    tag_29:\n      pop\n      tag_30\n      tag_31\n      jump\t// in\n    tag_30:\n      stop\n        /* \"@openzeppelin/contracts/access/Ownable.sol\":1831:1932  function renounceOwnership() public virtual onlyOwner {... */\n    tag_6:\n      callvalue\n      dup1\n      iszero\n      tag_32\n      jumpi\n      0x00\n      dup1\n      revert\n    tag_32:\n      pop\n      tag_33\n      tag_34\n      jump\t// in\n    tag_33:\n      stop\n        /* \"challenges/Consorcio/Consorcio.sol\":1651:1954  function addNewService(string memory _service, uint _price) public onlyOwner {\r... */\n    tag_7:\n      callvalue\n      dup1\n      iszero\n      tag_35\n      jumpi\n      0x00\n      dup1\n      revert\n    tag_35:\n      pop\n      tag_36\n      0x04\n      dup1\n      calldatasize\n      sub\n      dup2\n      add\n      swap1\n      tag_37\n      swap2\n      swap1\n      tag_38\n      jump\t// in\n    tag_37:\n      tag_39\n      jump\t// in\n    tag_36:\n      stop\n        /* \"challenges/Consorcio/Consorcio.sol\":1962:2053  function showAddress() public view returns(address) {\r... */\n    tag_8:\n      callvalue\n      dup1\n      iszero\n      tag_40\n      jumpi\n      0x00\n      dup1\n      revert\n    tag_40:\n      pop\n      tag_41\n      tag_42\n      jump\t// in\n    tag_41:\n      mload(0x40)\n      tag_43\n      swap2\n      swap1\n      tag_44\n      jump\t// in\n    tag_43:\n      mload(0x40)\n      dup1\n      swap2\n      sub\n      swap1\n      return\n        /* \"@openzeppelin/contracts/access/Ownable.sol\":1201:1286  function owner() public view virtual returns (address) {... */\n    tag_9:\n      callvalue\n      dup1\n      iszero\n      tag_45\n      jumpi\n      0x00\n      dup1\n      revert\n    tag_45:\n      pop\n      tag_46\n      tag_47\n      jump\t// in\n    tag_46:\n      mload(0x40)\n      tag_48\n      swap2\n      swap1\n      tag_44\n      jump\t// in\n    tag_48:\n      mload(0x40)\n      dup1\n      swap2\n      sub\n      swap1\n      return\n        /* \"challenges/Consorcio/Consorcio.sol\":2191:2701  function addNewTenant(uint _id, address _address, uint _expenses, uint _aptAddress) public onlyOwner {\r... */\n    tag_10:\n      callvalue\n      dup1\n      iszero\n      tag_49\n      jumpi\n      0x00\n      dup1\n      revert\n    tag_49:\n      pop\n      tag_50\n      0x04\n      dup1\n      calldatasize\n      sub\n      dup2\n      add\n      swap1\n      tag_51\n      swap2\n      swap1\n      tag_52\n      jump\t// in\n    tag_51:\n      tag_53\n      jump\t// in\n    tag_50:\n      stop\n        /* \"challenges/Consorcio/Consorcio.sol\":3612:3827  function depositEmployee() public payable {\r... */\n    tag_11:\n      tag_54\n      tag_55\n      jump\t// in\n    tag_54:\n      stop\n        /* \"challenges/Consorcio/Consorcio.sol\":1602:1643  function payService(uint index) public {} */\n    tag_12:\n      callvalue\n      dup1\n      iszero\n      tag_56\n      jumpi\n      0x00\n      dup1\n      revert\n    tag_56:\n      pop\n      tag_57\n      0x04\n      dup1\n      calldatasize\n      sub\n      dup2\n      add\n      swap1\n      tag_58\n      swap2\n      swap1\n      tag_59\n      jump\t// in\n    tag_58:\n      tag_60\n      jump\t// in\n    tag_57:\n      stop\n        /* \"challenges/Consorcio/Consorcio.sol\":3835:3915  function tenantWithdrawal() public {\r... */\n    tag_13:\n      callvalue\n      dup1\n      iszero\n      tag_61\n      jumpi\n      0x00\n      dup1\n      revert\n    tag_61:\n      pop\n      tag_62\n      tag_63\n      jump\t// in\n    tag_62:\n      stop\n        /* \"challenges/Consorcio/Consorcio.sol\":1357:1594  function payAllServices() public {\r... */\n    tag_14:\n      callvalue\n      dup1\n      iszero\n      tag_64\n      jumpi\n      0x00\n      dup1\n      revert\n    tag_64:\n      pop\n      tag_65\n      tag_66\n      jump\t// in\n    tag_65:\n      stop\n        /* \"@openzeppelin/contracts/access/Ownable.sol\":2081:2279  function transferOwnership(address newOwner) public virtual onlyOwner {... */\n    tag_15:\n      callvalue\n      dup1\n      iszero\n      tag_67\n      jumpi\n      0x00\n      dup1\n      revert\n    tag_67:\n      pop\n      tag_68\n      0x04\n      dup1\n      calldatasize\n      sub\n      dup2\n      add\n      swap1\n      tag_69\n      swap2\n      swap1\n      tag_70\n      jump\t// in\n    tag_69:\n      tag_71\n      jump\t// in\n    tag_68:\n      stop\n        /* \"challenges/Consorcio/Consorcio.sol\":3062:3604  function addNewEmployee(uint _id, address _address, string memory _profession, string memory _schedule, uint _salary) public {\r... */\n    tag_26:\n        /* \"challenges/Consorcio/Consorcio.sol\":3509:3512  _id */\n      dup5\n        /* \"challenges/Consorcio/Consorcio.sol\":3514:3522  _address */\n      dup5\n        /* \"challenges/Consorcio/Consorcio.sol\":3524:3535  _profession */\n      dup5\n        /* \"challenges/Consorcio/Consorcio.sol\":3537:3546  _schedule */\n      dup5\n        /* \"challenges/Consorcio/Consorcio.sol\":3548:3555  _salary */\n      dup5\n        /* \"challenges/Consorcio/Consorcio.sol\":3496:3556  new Employee(_id, _address, _profession, _schedule, _salary) */\n      mload(0x40)\n      tag_73\n      swap1\n      tag_74\n      jump\t// in\n    tag_73:\n      tag_75\n      swap6\n      swap5\n      swap4\n      swap3\n      swap2\n      swap1\n      tag_76\n      jump\t// in\n    tag_75:\n      mload(0x40)\n      dup1\n      swap2\n      sub\n      swap1\n      0x00\n      create\n      dup1\n      iszero\n      dup1\n      iszero\n      tag_77\n      jumpi\n      returndatasize\n      0x00\n      dup1\n      returndatacopy\n      revert(0x00, returndatasize)\n    tag_77:\n      pop\n        /* \"challenges/Consorcio/Consorcio.sol\":3483:3493  anEmployee */\n      0x04\n      0x00\n        /* \"challenges/Consorcio/Consorcio.sol\":3483:3556  anEmployee = new Employee(_id, _address, _profession, _schedule, _salary) */\n      0x0100\n      exp\n      dup2\n      sload\n      dup2\n      0xffffffffffffffffffffffffffffffffffffffff\n      mul\n      not\n      and\n      swap1\n      dup4\n      0xffffffffffffffffffffffffffffffffffffffff\n      and\n      mul\n      or\n      swap1\n      sstore\n      pop\n        /* \"challenges/Consorcio/Consorcio.sol\":3567:3579  employeeList */\n      0x01\n        /* \"challenges/Consorcio/Consorcio.sol\":3585:3595  anEmployee */\n      0x04\n      0x00\n      swap1\n      sload\n      swap1\n      0x0100\n      exp\n      swap1\n      div\n      0xffffffffffffffffffffffffffffffffffffffff\n      and\n        /* \"challenges/Consorcio/Consorcio.sol\":3567:3596  employeeList.push(anEmployee) */\n      swap1\n      dup1\n      0x01\n      dup2\n      sload\n      add\n      dup1\n      dup3\n      sstore\n      dup1\n      swap2\n      pop\n      pop\n      0x01\n      swap1\n      sub\n      swap1\n      0x00\n      mstore\n      keccak256(0x00, 0x20)\n      add\n      0x00\n      swap1\n      swap2\n      swap1\n      swap2\n      swap1\n      swap2\n      0x0100\n      exp\n      dup2\n      sload\n      dup2\n      0xffffffffffffffffffffffffffffffffffffffff\n      mul\n      not\n      and\n      swap1\n      dup4\n      0xffffffffffffffffffffffffffffffffffffffff\n      and\n      mul\n      or\n      swap1\n      sstore\n      pop\n        /* \"challenges/Consorcio/Consorcio.sol\":3062:3604  function addNewEmployee(uint _id, address _address, string memory _profession, string memory _schedule, uint _salary) public {\r... */\n      pop\n      pop\n      pop\n      pop\n      pop\n      jump\t// out\n        /* \"challenges/Consorcio/Consorcio.sol\":2709:2917  function depositTenant() public payable {\r... */\n    tag_28:\n        /* \"challenges/Consorcio/Consorcio.sol\":2761:2770  bool sent */\n      0x00\n        /* \"challenges/Consorcio/Consorcio.sol\":2776:2783  aTenant */\n      0x05\n      0x00\n      swap1\n      sload\n      swap1\n      0x0100\n      exp\n      swap1\n      div\n      0xffffffffffffffffffffffffffffffffffffffff\n      and\n        /* \"challenges/Consorcio/Consorcio.sol\":2776:2794  aTenant.getAddress */\n      0xffffffffffffffffffffffffffffffffffffffff\n      and\n      0x38cc4831\n        /* \"challenges/Consorcio/Consorcio.sol\":2776:2796  aTenant.getAddress() */\n      mload(0x40)\n      dup2\n      0xffffffff\n      and\n      0xe0\n      shl\n      dup2\n      mstore\n      0x04\n      add\n      0x20\n      mload(0x40)\n      dup1\n      dup4\n      sub\n      dup2\n      dup7\n      dup1\n      extcodesize\n      iszero\n      dup1\n      iszero\n      tag_80\n      jumpi\n      0x00\n      dup1\n      revert\n    tag_80:\n      pop\n      gas\n      staticcall\n      iszero\n      dup1\n      iszero\n      tag_82\n      jumpi\n      returndatasize\n      0x00\n      dup1\n      returndatacopy\n      revert(0x00, returndatasize)\n    tag_82:\n      pop\n      pop\n      pop\n      pop\n      mload(0x40)\n      returndatasize\n      not(0x1f)\n      0x1f\n      dup3\n      add\n      and\n      dup3\n      add\n      dup1\n      0x40\n      mstore\n      pop\n      dup2\n      add\n      swap1\n      tag_83\n      swap2\n      swap1\n      tag_84\n      jump\t// in\n    tag_83:\n        /* \"challenges/Consorcio/Consorcio.sol\":2776:2801  aTenant.getAddress().call */\n      0xffffffffffffffffffffffffffffffffffffffff\n      and\n        /* \"challenges/Consorcio/Consorcio.sol\":2824:2833  msg.value */\n      callvalue\n        /* \"challenges/Consorcio/Consorcio.sol\":2776:2848  aTenant.getAddress().call {\r... */\n      mload(0x40)\n      tag_85\n      swap1\n      tag_86\n      jump\t// in\n    tag_85:\n      0x00\n      mload(0x40)\n      dup1\n      dup4\n      sub\n      dup2\n      dup6\n      dup8\n      gas\n      call\n      swap3\n      pop\n      pop\n      pop\n      returndatasize\n      dup1\n      0x00\n      dup2\n      eq\n      tag_89\n      jumpi\n      mload(0x40)\n      swap2\n      pop\n      and(add(returndatasize, 0x3f), not(0x1f))\n      dup3\n      add\n      0x40\n      mstore\n      returndatasize\n      dup3\n      mstore\n      returndatasize\n      0x00\n      0x20\n      dup5\n      add\n      returndatacopy\n      jump(tag_88)\n    tag_89:\n      0x60\n      swap2\n      pop\n    tag_88:\n      pop\n        /* \"challenges/Consorcio/Consorcio.sol\":2760:2848  (bool sent, ) = aTenant.getAddress().call {\r... */\n      pop\n      swap1\n      pop\n        /* \"challenges/Consorcio/Consorcio.sol\":2878:2882  true */\n      0x01\n        /* \"challenges/Consorcio/Consorcio.sol\":2870:2882  sent == true */\n      iszero\n      iszero\n        /* \"challenges/Consorcio/Consorcio.sol\":2870:2874  sent */\n      dup2\n        /* \"challenges/Consorcio/Consorcio.sol\":2870:2882  sent == true */\n      iszero\n      iszero\n      eq\n        /* \"challenges/Consorcio/Consorcio.sol\":2861:2909  require (sent == true, \"Tenant no pudo recibir\") */\n      tag_90\n      jumpi\n      mload(0x40)\n      0x08c379a000000000000000000000000000000000000000000000000000000000\n      dup2\n      mstore\n      0x04\n      add\n      tag_91\n      swap1\n      tag_92\n      jump\t// in\n    tag_91:\n      mload(0x40)\n      dup1\n      swap2\n      sub\n      swap1\n      revert\n    tag_90:\n        /* \"challenges/Consorcio/Consorcio.sol\":2749:2917  {\r... */\n      pop\n        /* \"challenges/Consorcio/Consorcio.sol\":2709:2917  function depositTenant() public payable {\r... */\n      jump\t// out\n        /* \"challenges/Consorcio/Consorcio.sol\":583:1349  function paySalaries() public onlyOwner {\r... */\n    tag_31:\n        /* \"@openzeppelin/contracts/access/Ownable.sol\":1094:1107  _checkOwner() */\n      tag_94\n        /* \"@openzeppelin/contracts/access/Ownable.sol\":1094:1105  _checkOwner */\n      tag_95\n        /* \"@openzeppelin/contracts/access/Ownable.sol\":1094:1107  _checkOwner() */\n      jump\t// in\n    tag_94:\n        /* \"challenges/Consorcio/Consorcio.sol\":914:930  uint totalAmount */\n      0x00\n        /* \"challenges/Consorcio/Consorcio.sol\":1127:1138  totalAmount */\n      dup1\n        /* \"challenges/Consorcio/Consorcio.sol\":1102:1123  address(this).balance */\n      selfbalance\n        /* \"challenges/Consorcio/Consorcio.sol\":1102:1138  address(this).balance >= totalAmount */\n      lt\n      iszero\n        /* \"challenges/Consorcio/Consorcio.sol\":1094:1161  require(address(this).balance >= totalAmount, \"Insufficient funds\") */\n      tag_97\n      jumpi\n      mload(0x40)\n      0x08c379a000000000000000000000000000000000000000000000000000000000\n      dup2\n      mstore\n      0x04\n      add\n      tag_98\n      swap1\n      tag_99\n      jump\t// in\n    tag_98:\n      mload(0x40)\n      dup1\n      swap2\n      sub\n      swap1\n      revert\n    tag_97:\n        /* \"challenges/Consorcio/Consorcio.sol\":623:1349  {\r... */\n      pop\n        /* \"challenges/Consorcio/Consorcio.sol\":583:1349  function paySalaries() public onlyOwner {\r... */\n      jump\t// out\n        /* \"@openzeppelin/contracts/access/Ownable.sol\":1831:1932  function renounceOwnership() public virtual onlyOwner {... */\n    tag_34:\n        /* \"@openzeppelin/contracts/access/Ownable.sol\":1094:1107  _checkOwner() */\n      tag_101\n        /* \"@openzeppelin/contracts/access/Ownable.sol\":1094:1105  _checkOwner */\n      tag_95\n        /* \"@openzeppelin/contracts/access/Ownable.sol\":1094:1107  _checkOwner() */\n      jump\t// in\n    tag_101:\n        /* \"@openzeppelin/contracts/access/Ownable.sol\":1895:1925  _transferOwnership(address(0)) */\n      tag_103\n        /* \"@openzeppelin/contracts/access/Ownable.sol\":1922:1923  0 */\n      0x00\n        /* \"@openzeppelin/contracts/access/Ownable.sol\":1895:1913  _transferOwnership */\n      tag_104\n        /* \"@openzeppelin/contracts/access/Ownable.sol\":1895:1925  _transferOwnership(address(0)) */\n      jump\t// in\n    tag_103:\n        /* \"@openzeppelin/contracts/access/Ownable.sol\":1831:1932  function renounceOwnership() public virtual onlyOwner {... */\n      jump\t// out\n        /* \"challenges/Consorcio/Consorcio.sol\":1651:1954  function addNewService(string memory _service, uint _price) public onlyOwner {\r... */\n    tag_39:\n        /* \"@openzeppelin/contracts/access/Ownable.sol\":1094:1107  _checkOwner() */\n      tag_106\n        /* \"@openzeppelin/contracts/access/Ownable.sol\":1094:1105  _checkOwner */\n      tag_95\n        /* \"@openzeppelin/contracts/access/Ownable.sol\":1094:1107  _checkOwner() */\n      jump\t// in\n    tag_106:\n        /* \"challenges/Consorcio/Consorcio.sol\":1884:1909  Service(_service, _price) */\n      mload(0x40)\n      dup1\n      0x40\n      add\n      0x40\n      mstore\n      dup1\n        /* \"challenges/Consorcio/Consorcio.sol\":1892:1900  _service */\n      dup4\n        /* \"challenges/Consorcio/Consorcio.sol\":1884:1909  Service(_service, _price) */\n      dup2\n      mstore\n      0x20\n      add\n        /* \"challenges/Consorcio/Consorcio.sol\":1902:1908  _price */\n      dup3\n        /* \"challenges/Consorcio/Consorcio.sol\":1884:1909  Service(_service, _price) */\n      dup2\n      mstore\n      pop\n        /* \"challenges/Consorcio/Consorcio.sol\":1873:1881  aService */\n      0x06\n        /* \"challenges/Consorcio/Consorcio.sol\":1873:1909  aService = Service(_service, _price) */\n      0x00\n      dup3\n      add\n      mload\n      dup2\n      0x00\n      add\n      swap1\n      dup1\n      mload\n      swap1\n      0x20\n      add\n      swap1\n      tag_108\n      swap3\n      swap2\n      swap1\n      tag_109\n      jump\t// in\n    tag_108:\n      pop\n      0x20\n      dup3\n      add\n      mload\n      dup2\n      0x01\n      add\n      sstore\n      swap1\n      pop\n      pop\n        /* \"challenges/Consorcio/Consorcio.sol\":1920:1931  serviceList */\n      0x03\n        /* \"challenges/Consorcio/Consorcio.sol\":1937:1945  aService */\n      0x06\n        /* \"challenges/Consorcio/Consorcio.sol\":1920:1946  serviceList.push(aService) */\n      swap1\n      dup1\n      0x01\n      dup2\n      sload\n      add\n      dup1\n      dup3\n      sstore\n      dup1\n      swap2\n      pop\n      pop\n      0x01\n      swap1\n      sub\n      swap1\n      0x00\n      mstore\n      keccak256(0x00, 0x20)\n      swap1\n      0x02\n      mul\n      add\n      0x00\n      swap1\n      swap2\n      swap1\n      swap2\n      swap1\n      swap2\n      pop\n      0x00\n      dup3\n      add\n      dup2\n      0x00\n      add\n      swap1\n      dup1\n      sload\n      tag_111\n      swap1\n      tag_112\n      jump\t// in\n    tag_111:\n      tag_113\n      swap3\n      swap2\n      swap1\n      tag_114\n      jump\t// in\n    tag_113:\n      pop\n      0x01\n      dup3\n      add\n      sload\n      dup2\n      0x01\n      add\n      sstore\n      pop\n      pop\n        /* \"challenges/Consorcio/Consorcio.sol\":1651:1954  function addNewService(string memory _service, uint _price) public onlyOwner {\r... */\n      pop\n      pop\n      jump\t// out\n        /* \"challenges/Consorcio/Consorcio.sol\":1962:2053  function showAddress() public view returns(address) {\r... */\n    tag_42:\n        /* \"challenges/Consorcio/Consorcio.sol\":2005:2012  address */\n      0x00\n        /* \"challenges/Consorcio/Consorcio.sol\":2040:2044  this */\n      address\n        /* \"challenges/Consorcio/Consorcio.sol\":2025:2045  return address(this) */\n      swap1\n      pop\n        /* \"challenges/Consorcio/Consorcio.sol\":1962:2053  function showAddress() public view returns(address) {\r... */\n      swap1\n      jump\t// out\n        /* \"@openzeppelin/contracts/access/Ownable.sol\":1201:1286  function owner() public view virtual returns (address) {... */\n    tag_47:\n        /* \"@openzeppelin/contracts/access/Ownable.sol\":1247:1254  address */\n      0x00\n        /* \"@openzeppelin/contracts/access/Ownable.sol\":1273:1279  _owner */\n      dup1\n      0x00\n      swap1\n      sload\n      swap1\n      0x0100\n      exp\n      swap1\n      div\n      0xffffffffffffffffffffffffffffffffffffffff\n      and\n        /* \"@openzeppelin/contracts/access/Ownable.sol\":1266:1279  return _owner */\n      swap1\n      pop\n        /* \"@openzeppelin/contracts/access/Ownable.sol\":1201:1286  function owner() public view virtual returns (address) {... */\n      swap1\n      jump\t// out\n        /* \"challenges/Consorcio/Consorcio.sol\":2191:2701  function addNewTenant(uint _id, address _address, uint _expenses, uint _aptAddress) public onlyOwner {\r... */\n    tag_53:\n        /* \"@openzeppelin/contracts/access/Ownable.sol\":1094:1107  _checkOwner() */\n      tag_118\n        /* \"@openzeppelin/contracts/access/Ownable.sol\":1094:1105  _checkOwner */\n      tag_95\n        /* \"@openzeppelin/contracts/access/Ownable.sol\":1094:1107  _checkOwner() */\n      jump\t// in\n    tag_118:\n        /* \"challenges/Consorcio/Consorcio.sol\":2605:2608  _id */\n      dup4\n        /* \"challenges/Consorcio/Consorcio.sol\":2610:2618  _address */\n      dup4\n        /* \"challenges/Consorcio/Consorcio.sol\":2620:2629  _expenses */\n      dup4\n        /* \"challenges/Consorcio/Consorcio.sol\":2631:2642  _aptAddress */\n      dup4\n        /* \"challenges/Consorcio/Consorcio.sol\":2652:2656  this */\n      address\n        /* \"challenges/Consorcio/Consorcio.sol\":2594:2658  new Tenant(_id, _address, _expenses, _aptAddress, address(this)) */\n      mload(0x40)\n      tag_120\n      swap1\n      tag_121\n      jump\t// in\n    tag_120:\n      tag_122\n      swap6\n      swap5\n      swap4\n      swap3\n      swap2\n      swap1\n      tag_123\n      jump\t// in\n    tag_122:\n      mload(0x40)\n      dup1\n      swap2\n      sub\n      swap1\n      0x00\n      create\n      dup1\n      iszero\n      dup1\n      iszero\n      tag_124\n      jumpi\n      returndatasize\n      0x00\n      dup1\n      returndatacopy\n      revert(0x00, returndatasize)\n    tag_124:\n      pop\n        /* \"challenges/Consorcio/Consorcio.sol\":2584:2591  aTenant */\n      0x05\n      0x00\n        /* \"challenges/Consorcio/Consorcio.sol\":2584:2658  aTenant = new Tenant(_id, _address, _expenses, _aptAddress, address(this)) */\n      0x0100\n      exp\n      dup2\n      sload\n      dup2\n      0xffffffffffffffffffffffffffffffffffffffff\n      mul\n      not\n      and\n      swap1\n      dup4\n      0xffffffffffffffffffffffffffffffffffffffff\n      and\n      mul\n      or\n      swap1\n      sstore\n      pop\n        /* \"challenges/Consorcio/Consorcio.sol\":2669:2679  tenantList */\n      0x02\n        /* \"challenges/Consorcio/Consorcio.sol\":2685:2692  aTenant */\n      0x05\n      0x00\n      swap1\n      sload\n      swap1\n      0x0100\n      exp\n      swap1\n      div\n      0xffffffffffffffffffffffffffffffffffffffff\n      and\n        /* \"challenges/Consorcio/Consorcio.sol\":2669:2693  tenantList.push(aTenant) */\n      swap1\n      dup1\n      0x01\n      dup2\n      sload\n      add\n      dup1\n      dup3\n      sstore\n      dup1\n      swap2\n      pop\n      pop\n      0x01\n      swap1\n      sub\n      swap1\n      0x00\n      mstore\n      keccak256(0x00, 0x20)\n      add\n      0x00\n      swap1\n      swap2\n      swap1\n      swap2\n      swap1\n      swap2\n      0x0100\n      exp\n      dup2\n      sload\n      dup2\n      0xffffffffffffffffffffffffffffffffffffffff\n      mul\n      not\n      and\n      swap1\n      dup4\n      0xffffffffffffffffffffffffffffffffffffffff\n      and\n      mul\n      or\n      swap1\n      sstore\n      pop\n        /* \"challenges/Consorcio/Consorcio.sol\":2191:2701  function addNewTenant(uint _id, address _address, uint _expenses, uint _aptAddress) public onlyOwner {\r... */\n      pop\n      pop\n      pop\n      pop\n      jump\t// out\n        /* \"challenges/Consorcio/Consorcio.sol\":3612:3827  function depositEmployee() public payable {\r... */\n    tag_55:\n        /* \"challenges/Consorcio/Consorcio.sol\":3666:3675  bool sent */\n      0x00\n        /* \"challenges/Consorcio/Consorcio.sol\":3681:3691  anEmployee */\n      0x04\n      0x00\n      swap1\n      sload\n      swap1\n      0x0100\n      exp\n      swap1\n      div\n      0xffffffffffffffffffffffffffffffffffffffff\n      and\n        /* \"challenges/Consorcio/Consorcio.sol\":3681:3702  anEmployee.getAddress */\n      0xffffffffffffffffffffffffffffffffffffffff\n      and\n      0x38cc4831\n        /* \"challenges/Consorcio/Consorcio.sol\":3681:3704  anEmployee.getAddress() */\n      mload(0x40)\n      dup2\n      0xffffffff\n      and\n      0xe0\n      shl\n      dup2\n      mstore\n      0x04\n      add\n      0x20\n      mload(0x40)\n      dup1\n      dup4\n      sub\n      dup2\n      dup7\n      dup1\n      extcodesize\n      iszero\n      dup1\n      iszero\n      tag_127\n      jumpi\n      0x00\n      dup1\n      revert\n    tag_127:\n      pop\n      gas\n      staticcall\n      iszero\n      dup1\n      iszero\n      tag_129\n      jumpi\n      returndatasize\n      0x00\n      dup1\n      returndatacopy\n      revert(0x00, returndatasize)\n    tag_129:\n      pop\n      pop\n      pop\n      pop\n      mload(0x40)\n      returndatasize\n      not(0x1f)\n      0x1f\n      dup3\n      add\n      and\n      dup3\n      add\n      dup1\n      0x40\n      mstore\n      pop\n      dup2\n      add\n      swap1\n      tag_130\n      swap2\n      swap1\n      tag_84\n      jump\t// in\n    tag_130:\n        /* \"challenges/Consorcio/Consorcio.sol\":3681:3709  anEmployee.getAddress().call */\n      0xffffffffffffffffffffffffffffffffffffffff\n      and\n        /* \"challenges/Consorcio/Consorcio.sol\":3732:3741  msg.value */\n      callvalue\n        /* \"challenges/Consorcio/Consorcio.sol\":3681:3756  anEmployee.getAddress().call {\r... */\n      mload(0x40)\n      tag_131\n      swap1\n      tag_86\n      jump\t// in\n    tag_131:\n      0x00\n      mload(0x40)\n      dup1\n      dup4\n      sub\n      dup2\n      dup6\n      dup8\n      gas\n      call\n      swap3\n      pop\n      pop\n      pop\n      returndatasize\n      dup1\n      0x00\n      dup2\n      eq\n      tag_134\n      jumpi\n      mload(0x40)\n      swap2\n      pop\n      and(add(returndatasize, 0x3f), not(0x1f))\n      dup3\n      add\n      0x40\n      mstore\n      returndatasize\n      dup3\n      mstore\n      returndatasize\n      0x00\n      0x20\n      dup5\n      add\n      returndatacopy\n      jump(tag_133)\n    tag_134:\n      0x60\n      swap2\n      pop\n    tag_133:\n      pop\n        /* \"challenges/Consorcio/Consorcio.sol\":3665:3756  (bool sent, ) = anEmployee.getAddress().call {\r... */\n      pop\n      swap1\n      pop\n        /* \"challenges/Consorcio/Consorcio.sol\":3786:3790  true */\n      0x01\n        /* \"challenges/Consorcio/Consorcio.sol\":3778:3790  sent == true */\n      iszero\n      iszero\n        /* \"challenges/Consorcio/Consorcio.sol\":3778:3782  sent */\n      dup2\n        /* \"challenges/Consorcio/Consorcio.sol\":3778:3790  sent == true */\n      iszero\n      iszero\n      eq\n        /* \"challenges/Consorcio/Consorcio.sol\":3769:3819  require (sent == true, \"Employee no pudo recibir\") */\n      tag_135\n      jumpi\n      mload(0x40)\n      0x08c379a000000000000000000000000000000000000000000000000000000000\n      dup2\n      mstore\n      0x04\n      add\n      tag_136\n      swap1\n      tag_137\n      jump\t// in\n    tag_136:\n      mload(0x40)\n      dup1\n      swap2\n      sub\n      swap1\n      revert\n    tag_135:\n        /* \"challenges/Consorcio/Consorcio.sol\":3654:3827  {\r... */\n      pop\n        /* \"challenges/Consorcio/Consorcio.sol\":3612:3827  function depositEmployee() public payable {\r... */\n      jump\t// out\n        /* \"challenges/Consorcio/Consorcio.sol\":1602:1643  function payService(uint index) public {} */\n    tag_60:\n      pop\n      jump\t// out\n        /* \"challenges/Consorcio/Consorcio.sol\":3835:3915  function tenantWithdrawal() public {\r... */\n    tag_63:\n        /* \"challenges/Consorcio/Consorcio.sol\":3881:3888  aTenant */\n      0x05\n      0x00\n      swap1\n      sload\n      swap1\n      0x0100\n      exp\n      swap1\n      div\n      0xffffffffffffffffffffffffffffffffffffffff\n      and\n        /* \"challenges/Consorcio/Consorcio.sol\":3881:3899  aTenant.withdrawal */\n      0xffffffffffffffffffffffffffffffffffffffff\n      and\n      0x835fc6ca\n        /* \"challenges/Consorcio/Consorcio.sol\":3900:3906  100000 */\n      0x0186a0\n        /* \"challenges/Consorcio/Consorcio.sol\":3881:3907  aTenant.withdrawal(100000) */\n      mload(0x40)\n      dup3\n      0xffffffff\n      and\n      0xe0\n      shl\n      dup2\n      mstore\n      0x04\n      add\n      tag_140\n      swap2\n      swap1\n      tag_141\n      jump\t// in\n    tag_140:\n      0x00\n      mload(0x40)\n      dup1\n      dup4\n      sub\n      dup2\n      0x00\n      dup8\n      dup1\n      extcodesize\n      iszero\n      dup1\n      iszero\n      tag_142\n      jumpi\n      0x00\n      dup1\n      revert\n    tag_142:\n      pop\n      gas\n      call\n      iszero\n      dup1\n      iszero\n      tag_144\n      jumpi\n      returndatasize\n      0x00\n      dup1\n      returndatacopy\n      revert(0x00, returndatasize)\n    tag_144:\n      pop\n      pop\n      pop\n      pop\n        /* \"challenges/Consorcio/Consorcio.sol\":3835:3915  function tenantWithdrawal() public {\r... */\n      jump\t// out\n        /* \"challenges/Consorcio/Consorcio.sol\":1357:1594  function payAllServices() public {\r... */\n    tag_66:\n      jump\t// out\n        /* \"@openzeppelin/contracts/access/Ownable.sol\":2081:2279  function transferOwnership(address newOwner) public virtual onlyOwner {... */\n    tag_71:\n        /* \"@openzeppelin/contracts/access/Ownable.sol\":1094:1107  _checkOwner() */\n      tag_147\n        /* \"@openzeppelin/contracts/access/Ownable.sol\":1094:1105  _checkOwner */\n      tag_95\n        /* \"@openzeppelin/contracts/access/Ownable.sol\":1094:1107  _checkOwner() */\n      jump\t// in\n    tag_147:\n        /* \"@openzeppelin/contracts/access/Ownable.sol\":2189:2190  0 */\n      0x00\n        /* \"@openzeppelin/contracts/access/Ownable.sol\":2169:2191  newOwner != address(0) */\n      0xffffffffffffffffffffffffffffffffffffffff\n      and\n        /* \"@openzeppelin/contracts/access/Ownable.sol\":2169:2177  newOwner */\n      dup2\n        /* \"@openzeppelin/contracts/access/Ownable.sol\":2169:2191  newOwner != address(0) */\n      0xffffffffffffffffffffffffffffffffffffffff\n      and\n      eq\n      iszero\n        /* \"@openzeppelin/contracts/access/Ownable.sol\":2161:2234  require(newOwner != address(0), \"Ownable: new owner is the zero address\") */\n      tag_149\n      jumpi\n      mload(0x40)\n      0x08c379a000000000000000000000000000000000000000000000000000000000\n      dup2\n      mstore\n      0x04\n      add\n      tag_150\n      swap1\n      tag_151\n      jump\t// in\n    tag_150:\n      mload(0x40)\n      dup1\n      swap2\n      sub\n      swap1\n      revert\n    tag_149:\n        /* \"@openzeppelin/contracts/access/Ownable.sol\":2244:2272  _transferOwnership(newOwner) */\n      tag_152\n        /* \"@openzeppelin/contracts/access/Ownable.sol\":2263:2271  newOwner */\n      dup2\n        /* \"@openzeppelin/contracts/access/Ownable.sol\":2244:2262  _transferOwnership */\n      tag_104\n        /* \"@openzeppelin/contracts/access/Ownable.sol\":2244:2272  _transferOwnership(newOwner) */\n      jump\t// in\n    tag_152:\n        /* \"@openzeppelin/contracts/access/Ownable.sol\":2081:2279  function transferOwnership(address newOwner) public virtual onlyOwner {... */\n      pop\n      jump\t// out\n        /* \"@openzeppelin/contracts/access/Ownable.sol\":1359:1489  function _checkOwner() internal view virtual {... */\n    tag_95:\n        /* \"@openzeppelin/contracts/access/Ownable.sol\":1433:1445  _msgSender() */\n      tag_154\n        /* \"@openzeppelin/contracts/access/Ownable.sol\":1433:1443  _msgSender */\n      tag_155\n        /* \"@openzeppelin/contracts/access/Ownable.sol\":1433:1445  _msgSender() */\n      jump\t// in\n    tag_154:\n        /* \"@openzeppelin/contracts/access/Ownable.sol\":1422:1445  owner() == _msgSender() */\n      0xffffffffffffffffffffffffffffffffffffffff\n      and\n        /* \"@openzeppelin/contracts/access/Ownable.sol\":1422:1429  owner() */\n      tag_156\n        /* \"@openzeppelin/contracts/access/Ownable.sol\":1422:1427  owner */\n      tag_47\n        /* \"@openzeppelin/contracts/access/Ownable.sol\":1422:1429  owner() */\n      jump\t// in\n    tag_156:\n        /* \"@openzeppelin/contracts/access/Ownable.sol\":1422:1445  owner() == _msgSender() */\n      0xffffffffffffffffffffffffffffffffffffffff\n      and\n      eq\n        /* \"@openzeppelin/contracts/access/Ownable.sol\":1414:1482  require(owner() == _msgSender(), \"Ownable: caller is not the owner\") */\n      tag_157\n      jumpi\n      mload(0x40)\n      0x08c379a000000000000000000000000000000000000000000000000000000000\n      dup2\n      mstore\n      0x04\n      add\n      tag_158\n      swap1\n      tag_159\n      jump\t// in\n    tag_158:\n      mload(0x40)\n      dup1\n      swap2\n      sub\n      swap1\n      revert\n    tag_157:\n        /* \"@openzeppelin/contracts/access/Ownable.sol\":1359:1489  function _checkOwner() internal view virtual {... */\n      jump\t// out\n        /* \"@openzeppelin/contracts/access/Ownable.sol\":2433:2620  function _transferOwnership(address newOwner) internal virtual {... */\n    tag_104:\n        /* \"@openzeppelin/contracts/access/Ownable.sol\":2506:2522  address oldOwner */\n      0x00\n        /* \"@openzeppelin/contracts/access/Ownable.sol\":2525:2531  _owner */\n      dup1\n      0x00\n      swap1\n      sload\n      swap1\n      0x0100\n      exp\n      swap1\n      div\n      0xffffffffffffffffffffffffffffffffffffffff\n      and\n        /* \"@openzeppelin/contracts/access/Ownable.sol\":2506:2531  address oldOwner = _owner */\n      swap1\n      pop\n        /* \"@openzeppelin/contracts/access/Ownable.sol\":2550:2558  newOwner */\n      dup2\n        /* \"@openzeppelin/contracts/access/Ownable.sol\":2541:2547  _owner */\n      0x00\n      dup1\n        /* \"@openzeppelin/contracts/access/Ownable.sol\":2541:2558  _owner = newOwner */\n      0x0100\n      exp\n      dup2\n      sload\n      dup2\n      0xffffffffffffffffffffffffffffffffffffffff\n      mul\n      not\n      and\n      swap1\n      dup4\n      0xffffffffffffffffffffffffffffffffffffffff\n      and\n      mul\n      or\n      swap1\n      sstore\n      pop\n        /* \"@openzeppelin/contracts/access/Ownable.sol\":2604:2612  newOwner */\n      dup2\n        /* \"@openzeppelin/contracts/access/Ownable.sol\":2573:2613  OwnershipTransferred(oldOwner, newOwner) */\n      0xffffffffffffffffffffffffffffffffffffffff\n      and\n        /* \"@openzeppelin/contracts/access/Ownable.sol\":2594:2602  oldOwner */\n      dup2\n        /* \"@openzeppelin/contracts/access/Ownable.sol\":2573:2613  OwnershipTransferred(oldOwner, newOwner) */\n      0xffffffffffffffffffffffffffffffffffffffff\n      and\n      0x8be0079c531659141344cd1fd0a4f28419497f9722a3daafe3b4186f6b6457e0\n      mload(0x40)\n      mload(0x40)\n      dup1\n      swap2\n      sub\n      swap1\n      log3\n        /* \"@openzeppelin/contracts/access/Ownable.sol\":2496:2620  {... */\n      pop\n        /* \"@openzeppelin/contracts/access/Ownable.sol\":2433:2620  function _transferOwnership(address newOwner) internal virtual {... */\n      pop\n      jump\t// out\n        /* \"@openzeppelin/contracts/utils/Context.sol\":640:736  function _msgSender() internal view virtual returns (address) {... */\n    tag_155:\n        /* \"@openzeppelin/contracts/utils/Context.sol\":693:700  address */\n      0x00\n        /* \"@openzeppelin/contracts/utils/Context.sol\":719:729  msg.sender */\n      caller\n        /* \"@openzeppelin/contracts/utils/Context.sol\":712:729  return msg.sender */\n      swap1\n      pop\n        /* \"@openzeppelin/contracts/utils/Context.sol\":640:736  function _msgSender() internal view virtual returns (address) {... */\n      swap1\n      jump\t// out\n    tag_74:\n      dataSize(sub_0)\n      dup1\n      dataOffset(sub_0)\n      dup4\n      codecopy\n      add\n      swap1\n      jump\t// out\n    tag_109:\n      dup3\n      dup1\n      sload\n      tag_162\n      swap1\n      tag_112\n      jump\t// in\n    tag_162:\n      swap1\n      0x00\n      mstore\n      keccak256(0x00, 0x20)\n      swap1\n      0x1f\n      add\n      0x20\n      swap1\n      div\n      dup2\n      add\n      swap3\n      dup3\n      tag_164\n      jumpi\n      0x00\n      dup6\n      sstore\n      jump(tag_163)\n    tag_164:\n      dup3\n      0x1f\n      lt\n      tag_165\n      jumpi\n      dup1\n      mload\n      not(0xff)\n      and\n      dup4\n      dup1\n      add\n      or\n      dup6\n      sstore\n      jump(tag_163)\n    tag_165:\n      dup3\n      dup1\n      add\n      0x01\n      add\n      dup6\n      sstore\n      dup3\n      iszero\n      tag_163\n      jumpi\n      swap2\n      dup3\n      add\n    tag_166:\n      dup3\n      dup2\n      gt\n      iszero\n      tag_167\n      jumpi\n      dup3\n      mload\n      dup3\n      sstore\n      swap2\n      0x20\n      add\n      swap2\n      swap1\n      0x01\n      add\n      swap1\n      jump(tag_166)\n    tag_167:\n    tag_163:\n      pop\n      swap1\n      pop\n      tag_168\n      swap2\n      swap1\n      tag_169\n      jump\t// in\n    tag_168:\n      pop\n      swap1\n      jump\t// out\n    tag_114:\n      dup3\n      dup1\n      sload\n      tag_170\n      swap1\n      tag_112\n      jump\t// in\n    tag_170:\n      swap1\n      0x00\n      mstore\n      keccak256(0x00, 0x20)\n      swap1\n      0x1f\n      add\n      0x20\n      swap1\n      div\n      dup2\n      add\n      swap3\n      dup3\n      tag_172\n      jumpi\n      0x00\n      dup6\n      sstore\n      jump(tag_171)\n    tag_172:\n      dup3\n      0x1f\n      lt\n      tag_173\n      jumpi\n      dup1\n      sload\n      dup6\n      sstore\n      jump(tag_171)\n    tag_173:\n      dup3\n      dup1\n      add\n      0x01\n      add\n      dup6\n      sstore\n      dup3\n      iszero\n      tag_171\n      jumpi\n      0x00\n      mstore\n      keccak256(0x00, 0x20)\n      swap2\n      0x1f\n      add\n      0x20\n      swap1\n      div\n      dup3\n      add\n    tag_174:\n      dup3\n      dup2\n      gt\n      iszero\n      tag_175\n      jumpi\n      dup3\n      sload\n      dup3\n      sstore\n      swap2\n      0x01\n      add\n      swap2\n      swap1\n      0x01\n      add\n      swap1\n      jump(tag_174)\n    tag_175:\n    tag_171:\n      pop\n      swap1\n      pop\n      tag_176\n      swap2\n      swap1\n      tag_169\n      jump\t// in\n    tag_176:\n      pop\n      swap1\n      jump\t// out\n    tag_121:\n      dataSize(sub_1)\n      dup1\n      dataOffset(sub_1)\n      dup4\n      codecopy\n      add\n      swap1\n      jump\t// out\n    tag_169:\n    tag_177:\n      dup1\n      dup3\n      gt\n      iszero\n      tag_178\n      jumpi\n      0x00\n      dup2\n      0x00\n      swap1\n      sstore\n      pop\n      0x01\n      add\n      jump(tag_177)\n    tag_178:\n      pop\n      swap1\n      jump\t// out\n        /* \"#utility.yul\":7:419   */\n    tag_180:\n        /* \"#utility.yul\":85:90   */\n      0x00\n        /* \"#utility.yul\":110:176   */\n      tag_182\n        /* \"#utility.yul\":126:175   */\n      tag_183\n        /* \"#utility.yul\":168:174   */\n      dup5\n        /* \"#utility.yul\":126:175   */\n      tag_184\n      jump\t// in\n    tag_183:\n        /* \"#utility.yul\":110:176   */\n      tag_185\n      jump\t// in\n    tag_182:\n        /* \"#utility.yul\":101:176   */\n      swap1\n      pop\n        /* \"#utility.yul\":199:205   */\n      dup3\n        /* \"#utility.yul\":192:197   */\n      dup2\n        /* \"#utility.yul\":185:206   */\n      mstore\n        /* \"#utility.yul\":237:241   */\n      0x20\n        /* \"#utility.yul\":230:235   */\n      dup2\n        /* \"#utility.yul\":226:242   */\n      add\n        /* \"#utility.yul\":275:278   */\n      dup5\n        /* \"#utility.yul\":266:272   */\n      dup5\n        /* \"#utility.yul\":261:264   */\n      dup5\n        /* \"#utility.yul\":257:273   */\n      add\n        /* \"#utility.yul\":254:279   */\n      gt\n        /* \"#utility.yul\":251:363   */\n      iszero\n      tag_186\n      jumpi\n        /* \"#utility.yul\":282:361   */\n      tag_187\n      tag_188\n      jump\t// in\n    tag_187:\n        /* \"#utility.yul\":251:363   */\n    tag_186:\n        /* \"#utility.yul\":372:413   */\n      tag_189\n        /* \"#utility.yul\":406:412   */\n      dup5\n        /* \"#utility.yul\":401:404   */\n      dup3\n        /* \"#utility.yul\":396:399   */\n      dup6\n        /* \"#utility.yul\":372:413   */\n      tag_190\n      jump\t// in\n    tag_189:\n        /* \"#utility.yul\":91:419   */\n      pop\n        /* \"#utility.yul\":7:419   */\n      swap4\n      swap3\n      pop\n      pop\n      pop\n      jump\t// out\n        /* \"#utility.yul\":425:564   */\n    tag_191:\n        /* \"#utility.yul\":471:476   */\n      0x00\n        /* \"#utility.yul\":509:515   */\n      dup2\n        /* \"#utility.yul\":496:516   */\n      calldataload\n        /* \"#utility.yul\":487:516   */\n      swap1\n      pop\n        /* \"#utility.yul\":525:558   */\n      tag_193\n        /* \"#utility.yul\":552:557   */\n      dup2\n        /* \"#utility.yul\":525:558   */\n      tag_194\n      jump\t// in\n    tag_193:\n        /* \"#utility.yul\":425:564   */\n      swap3\n      swap2\n      pop\n      pop\n      jump\t// out\n        /* \"#utility.yul\":570:713   */\n    tag_195:\n        /* \"#utility.yul\":627:632   */\n      0x00\n        /* \"#utility.yul\":658:664   */\n      dup2\n        /* \"#utility.yul\":652:665   */\n      mload\n        /* \"#utility.yul\":643:665   */\n      swap1\n      pop\n        /* \"#utility.yul\":674:707   */\n      tag_197\n        /* \"#utility.yul\":701:706   */\n      dup2\n        /* \"#utility.yul\":674:707   */\n      tag_194\n      jump\t// in\n    tag_197:\n        /* \"#utility.yul\":570:713   */\n      swap3\n      swap2\n      pop\n      pop\n      jump\t// out\n        /* \"#utility.yul\":733:1073   */\n    tag_198:\n        /* \"#utility.yul\":789:794   */\n      0x00\n        /* \"#utility.yul\":838:841   */\n      dup3\n        /* \"#utility.yul\":831:835   */\n      0x1f\n        /* \"#utility.yul\":823:829   */\n      dup4\n        /* \"#utility.yul\":819:836   */\n      add\n        /* \"#utility.yul\":815:842   */\n      slt\n        /* \"#utility.yul\":805:927   */\n      tag_200\n      jumpi\n        /* \"#utility.yul\":846:925   */\n      tag_201\n      tag_202\n      jump\t// in\n    tag_201:\n        /* \"#utility.yul\":805:927   */\n    tag_200:\n        /* \"#utility.yul\":963:969   */\n      dup2\n        /* \"#utility.yul\":950:970   */\n      calldataload\n        /* \"#utility.yul\":988:1067   */\n      tag_203\n        /* \"#utility.yul\":1063:1066   */\n      dup5\n        /* \"#utility.yul\":1055:1061   */\n      dup3\n        /* \"#utility.yul\":1048:1052   */\n      0x20\n        /* \"#utility.yul\":1040:1046   */\n      dup7\n        /* \"#utility.yul\":1036:1053   */\n      add\n        /* \"#utility.yul\":988:1067   */\n      tag_180\n      jump\t// in\n    tag_203:\n        /* \"#utility.yul\":979:1067   */\n      swap2\n      pop\n        /* \"#utility.yul\":795:1073   */\n      pop\n        /* \"#utility.yul\":733:1073   */\n      swap3\n      swap2\n      pop\n      pop\n      jump\t// out\n        /* \"#utility.yul\":1079:1218   */\n    tag_204:\n        /* \"#utility.yul\":1125:1130   */\n      0x00\n        /* \"#utility.yul\":1163:1169   */\n      dup2\n        /* \"#utility.yul\":1150:1170   */\n      calldataload\n        /* \"#utility.yul\":1141:1170   */\n      swap1\n      pop\n        /* \"#utility.yul\":1179:1212   */\n      tag_206\n        /* \"#utility.yul\":1206:1211   */\n      dup2\n        /* \"#utility.yul\":1179:1212   */\n      tag_207\n      jump\t// in\n    tag_206:\n        /* \"#utility.yul\":1079:1218   */\n      swap3\n      swap2\n      pop\n      pop\n      jump\t// out\n        /* \"#utility.yul\":1224:1553   */\n    tag_70:\n        /* \"#utility.yul\":1283:1289   */\n      0x00\n        /* \"#utility.yul\":1332:1334   */\n      0x20\n        /* \"#utility.yul\":1320:1329   */\n      dup3\n        /* \"#utility.yul\":1311:1318   */\n      dup5\n        /* \"#utility.yul\":1307:1330   */\n      sub\n        /* \"#utility.yul\":1303:1335   */\n      slt\n        /* \"#utility.yul\":1300:1419   */\n      iszero\n      tag_209\n      jumpi\n        /* \"#utility.yul\":1338:1417   */\n      tag_210\n      tag_211\n      jump\t// in\n    tag_210:\n        /* \"#utility.yul\":1300:1419   */\n    tag_209:\n        /* \"#utility.yul\":1458:1459   */\n      0x00\n        /* \"#utility.yul\":1483:1536   */\n      tag_212\n        /* \"#utility.yul\":1528:1535   */\n      dup5\n        /* \"#utility.yul\":1519:1525   */\n      dup3\n        /* \"#utility.yul\":1508:1517   */\n      dup6\n        /* \"#utility.yul\":1504:1526   */\n      add\n        /* \"#utility.yul\":1483:1536   */\n      tag_191\n      jump\t// in\n    tag_212:\n        /* \"#utility.yul\":1473:1536   */\n      swap2\n      pop\n        /* \"#utility.yul\":1429:1546   */\n      pop\n        /* \"#utility.yul\":1224:1553   */\n      swap3\n      swap2\n      pop\n      pop\n      jump\t// out\n        /* \"#utility.yul\":1559:1910   */\n    tag_84:\n        /* \"#utility.yul\":1629:1635   */\n      0x00\n        /* \"#utility.yul\":1678:1680   */\n      0x20\n        /* \"#utility.yul\":1666:1675   */\n      dup3\n        /* \"#utility.yul\":1657:1664   */\n      dup5\n        /* \"#utility.yul\":1653:1676   */\n      sub\n        /* \"#utility.yul\":1649:1681   */\n      slt\n        /* \"#utility.yul\":1646:1765   */\n      iszero\n      tag_214\n      jumpi\n        /* \"#utility.yul\":1684:1763   */\n      tag_215\n      tag_211\n      jump\t// in\n    tag_215:\n        /* \"#utility.yul\":1646:1765   */\n    tag_214:\n        /* \"#utility.yul\":1804:1805   */\n      0x00\n        /* \"#utility.yul\":1829:1893   */\n      tag_216\n        /* \"#utility.yul\":1885:1892   */\n      dup5\n        /* \"#utility.yul\":1876:1882   */\n      dup3\n        /* \"#utility.yul\":1865:1874   */\n      dup6\n        /* \"#utility.yul\":1861:1883   */\n      add\n        /* \"#utility.yul\":1829:1893   */\n      tag_195\n      jump\t// in\n    tag_216:\n        /* \"#utility.yul\":1819:1893   */\n      swap2\n      pop\n        /* \"#utility.yul\":1775:1903   */\n      pop\n        /* \"#utility.yul\":1559:1910   */\n      swap3\n      swap2\n      pop\n      pop\n      jump\t// out\n        /* \"#utility.yul\":1916:2570   */\n    tag_38:\n        /* \"#utility.yul\":1994:2000   */\n      0x00\n        /* \"#utility.yul\":2002:2008   */\n      dup1\n        /* \"#utility.yul\":2051:2053   */\n      0x40\n        /* \"#utility.yul\":2039:2048   */\n      dup4\n        /* \"#utility.yul\":2030:2037   */\n      dup6\n        /* \"#utility.yul\":2026:2049   */\n      sub\n        /* \"#utility.yul\":2022:2054   */\n      slt\n        /* \"#utility.yul\":2019:2138   */\n      iszero\n      tag_218\n      jumpi\n        /* \"#utility.yul\":2057:2136   */\n      tag_219\n      tag_211\n      jump\t// in\n    tag_219:\n        /* \"#utility.yul\":2019:2138   */\n    tag_218:\n        /* \"#utility.yul\":2205:2206   */\n      0x00\n        /* \"#utility.yul\":2194:2203   */\n      dup4\n        /* \"#utility.yul\":2190:2207   */\n      add\n        /* \"#utility.yul\":2177:2208   */\n      calldataload\n        /* \"#utility.yul\":2235:2253   */\n      0xffffffffffffffff\n        /* \"#utility.yul\":2227:2233   */\n      dup2\n        /* \"#utility.yul\":2224:2254   */\n      gt\n        /* \"#utility.yul\":2221:2338   */\n      iszero\n      tag_220\n      jumpi\n        /* \"#utility.yul\":2257:2336   */\n      tag_221\n      tag_222\n      jump\t// in\n    tag_221:\n        /* \"#utility.yul\":2221:2338   */\n    tag_220:\n        /* \"#utility.yul\":2362:2425   */\n      tag_223\n        /* \"#utility.yul\":2417:2424   */\n      dup6\n        /* \"#utility.yul\":2408:2414   */\n      dup3\n        /* \"#utility.yul\":2397:2406   */\n      dup7\n        /* \"#utility.yul\":2393:2415   */\n      add\n        /* \"#utility.yul\":2362:2425   */\n      tag_198\n      jump\t// in\n    tag_223:\n        /* \"#utility.yul\":2352:2425   */\n      swap3\n      pop\n        /* \"#utility.yul\":2148:2435   */\n      pop\n        /* \"#utility.yul\":2474:2476   */\n      0x20\n        /* \"#utility.yul\":2500:2553   */\n      tag_224\n        /* \"#utility.yul\":2545:2552   */\n      dup6\n        /* \"#utility.yul\":2536:2542   */\n      dup3\n        /* \"#utility.yul\":2525:2534   */\n      dup7\n        /* \"#utility.yul\":2521:2543   */\n      add\n        /* \"#utility.yul\":2500:2553   */\n      tag_204\n      jump\t// in\n    tag_224:\n        /* \"#utility.yul\":2490:2553   */\n      swap2\n      pop\n        /* \"#utility.yul\":2445:2563   */\n      pop\n        /* \"#utility.yul\":1916:2570   */\n      swap3\n      pop\n      swap3\n      swap1\n      pop\n      jump\t// out\n        /* \"#utility.yul\":2576:2905   */\n    tag_59:\n        /* \"#utility.yul\":2635:2641   */\n      0x00\n        /* \"#utility.yul\":2684:2686   */\n      0x20\n        /* \"#utility.yul\":2672:2681   */\n      dup3\n        /* \"#utility.yul\":2663:2670   */\n      dup5\n        /* \"#utility.yul\":2659:2682   */\n      sub\n        /* \"#utility.yul\":2655:2687   */\n      slt\n        /* \"#utility.yul\":2652:2771   */\n      iszero\n      tag_226\n      jumpi\n        /* \"#utility.yul\":2690:2769   */\n      tag_227\n      tag_211\n      jump\t// in\n    tag_227:\n        /* \"#utility.yul\":2652:2771   */\n    tag_226:\n        /* \"#utility.yul\":2810:2811   */\n      0x00\n        /* \"#utility.yul\":2835:2888   */\n      tag_228\n        /* \"#utility.yul\":2880:2887   */\n      dup5\n        /* \"#utility.yul\":2871:2877   */\n      dup3\n        /* \"#utility.yul\":2860:2869   */\n      dup6\n        /* \"#utility.yul\":2856:2878   */\n      add\n        /* \"#utility.yul\":2835:2888   */\n      tag_204\n      jump\t// in\n    tag_228:\n        /* \"#utility.yul\":2825:2888   */\n      swap2\n      pop\n        /* \"#utility.yul\":2781:2898   */\n      pop\n        /* \"#utility.yul\":2576:2905   */\n      swap3\n      swap2\n      pop\n      pop\n      jump\t// out\n        /* \"#utility.yul\":2911:4182   */\n    tag_25:\n        /* \"#utility.yul\":3026:3032   */\n      0x00\n        /* \"#utility.yul\":3034:3040   */\n      dup1\n        /* \"#utility.yul\":3042:3048   */\n      0x00\n        /* \"#utility.yul\":3050:3056   */\n      dup1\n        /* \"#utility.yul\":3058:3064   */\n      0x00\n        /* \"#utility.yul\":3107:3110   */\n      0xa0\n        /* \"#utility.yul\":3095:3104   */\n      dup7\n        /* \"#utility.yul\":3086:3093   */\n      dup9\n        /* \"#utility.yul\":3082:3105   */\n      sub\n        /* \"#utility.yul\":3078:3111   */\n      slt\n        /* \"#utility.yul\":3075:3195   */\n      iszero\n      tag_230\n      jumpi\n        /* \"#utility.yul\":3114:3193   */\n      tag_231\n      tag_211\n      jump\t// in\n    tag_231:\n        /* \"#utility.yul\":3075:3195   */\n    tag_230:\n        /* \"#utility.yul\":3234:3235   */\n      0x00\n        /* \"#utility.yul\":3259:3312   */\n      tag_232\n        /* \"#utility.yul\":3304:3311   */\n      dup9\n        /* \"#utility.yul\":3295:3301   */\n      dup3\n        /* \"#utility.yul\":3284:3293   */\n      dup10\n        /* \"#utility.yul\":3280:3302   */\n      add\n        /* \"#utility.yul\":3259:3312   */\n      tag_204\n      jump\t// in\n    tag_232:\n        /* \"#utility.yul\":3249:3312   */\n      swap6\n      pop\n        /* \"#utility.yul\":3205:3322   */\n      pop\n        /* \"#utility.yul\":3361:3363   */\n      0x20\n        /* \"#utility.yul\":3387:3440   */\n      tag_233\n        /* \"#utility.yul\":3432:3439   */\n      dup9\n        /* \"#utility.yul\":3423:3429   */\n      dup3\n        /* \"#utility.yul\":3412:3421   */\n      dup10\n        /* \"#utility.yul\":3408:3430   */\n      add\n        /* \"#utility.yul\":3387:3440   */\n      tag_191\n      jump\t// in\n    tag_233:\n        /* \"#utility.yul\":3377:3440   */\n      swap5\n      pop\n        /* \"#utility.yul\":3332:3450   */\n      pop\n        /* \"#utility.yul\":3517:3519   */\n      0x40\n        /* \"#utility.yul\":3506:3515   */\n      dup7\n        /* \"#utility.yul\":3502:3520   */\n      add\n        /* \"#utility.yul\":3489:3521   */\n      calldataload\n        /* \"#utility.yul\":3548:3566   */\n      0xffffffffffffffff\n        /* \"#utility.yul\":3540:3546   */\n      dup2\n        /* \"#utility.yul\":3537:3567   */\n      gt\n        /* \"#utility.yul\":3534:3651   */\n      iszero\n      tag_234\n      jumpi\n        /* \"#utility.yul\":3570:3649   */\n      tag_235\n      tag_222\n      jump\t// in\n    tag_235:\n        /* \"#utility.yul\":3534:3651   */\n    tag_234:\n        /* \"#utility.yul\":3675:3738   */\n      tag_236\n        /* \"#utility.yul\":3730:3737   */\n      dup9\n        /* \"#utility.yul\":3721:3727   */\n      dup3\n        /* \"#utility.yul\":3710:3719   */\n      dup10\n        /* \"#utility.yul\":3706:3728   */\n      add\n        /* \"#utility.yul\":3675:3738   */\n      tag_198\n      jump\t// in\n    tag_236:\n        /* \"#utility.yul\":3665:3738   */\n      swap4\n      pop\n        /* \"#utility.yul\":3460:3748   */\n      pop\n        /* \"#utility.yul\":3815:3817   */\n      0x60\n        /* \"#utility.yul\":3804:3813   */\n      dup7\n        /* \"#utility.yul\":3800:3818   */\n      add\n        /* \"#utility.yul\":3787:3819   */\n      calldataload\n        /* \"#utility.yul\":3846:3864   */\n      0xffffffffffffffff\n        /* \"#utility.yul\":3838:3844   */\n      dup2\n        /* \"#utility.yul\":3835:3865   */\n      gt\n        /* \"#utility.yul\":3832:3949   */\n      iszero\n      tag_237\n      jumpi\n        /* \"#utility.yul\":3868:3947   */\n      tag_238\n      tag_222\n      jump\t// in\n    tag_238:\n        /* \"#utility.yul\":3832:3949   */\n    tag_237:\n        /* \"#utility.yul\":3973:4036   */\n      tag_239\n        /* \"#utility.yul\":4028:4035   */\n      dup9\n        /* \"#utility.yul\":4019:4025   */\n      dup3\n        /* \"#utility.yul\":4008:4017   */\n      dup10\n        /* \"#utility.yul\":4004:4026   */\n      add\n        /* \"#utility.yul\":3973:4036   */\n      tag_198\n      jump\t// in\n    tag_239:\n        /* \"#utility.yul\":3963:4036   */\n      swap3\n      pop\n        /* \"#utility.yul\":3758:4046   */\n      pop\n        /* \"#utility.yul\":4085:4088   */\n      0x80\n        /* \"#utility.yul\":4112:4165   */\n      tag_240\n        /* \"#utility.yul\":4157:4164   */\n      dup9\n        /* \"#utility.yul\":4148:4154   */\n      dup3\n        /* \"#utility.yul\":4137:4146   */\n      dup10\n        /* \"#utility.yul\":4133:4155   */\n      add\n        /* \"#utility.yul\":4112:4165   */\n      tag_204\n      jump\t// in\n    tag_240:\n        /* \"#utility.yul\":4102:4165   */\n      swap2\n      pop\n        /* \"#utility.yul\":4056:4175   */\n      pop\n        /* \"#utility.yul\":2911:4182   */\n      swap3\n      swap6\n      pop\n      swap3\n      swap6\n      swap1\n      swap4\n      pop\n      jump\t// out\n        /* \"#utility.yul\":4188:4953   */\n    tag_52:\n        /* \"#utility.yul\":4274:4280   */\n      0x00\n        /* \"#utility.yul\":4282:4288   */\n      dup1\n        /* \"#utility.yul\":4290:4296   */\n      0x00\n        /* \"#utility.yul\":4298:4304   */\n      dup1\n        /* \"#utility.yul\":4347:4350   */\n      0x80\n        /* \"#utility.yul\":4335:4344   */\n      dup6\n        /* \"#utility.yul\":4326:4333   */\n      dup8\n        /* \"#utility.yul\":4322:4345   */\n      sub\n        /* \"#utility.yul\":4318:4351   */\n      slt\n        /* \"#utility.yul\":4315:4435   */\n      iszero\n      tag_242\n      jumpi\n        /* \"#utility.yul\":4354:4433   */\n      tag_243\n      tag_211\n      jump\t// in\n    tag_243:\n        /* \"#utility.yul\":4315:4435   */\n    tag_242:\n        /* \"#utility.yul\":4474:4475   */\n      0x00\n        /* \"#utility.yul\":4499:4552   */\n      tag_244\n        /* \"#utility.yul\":4544:4551   */\n      dup8\n        /* \"#utility.yul\":4535:4541   */\n      dup3\n        /* \"#utility.yul\":4524:4533   */\n      dup9\n        /* \"#utility.yul\":4520:4542   */\n      add\n        /* \"#utility.yul\":4499:4552   */\n      tag_204\n      jump\t// in\n    tag_244:\n        /* \"#utility.yul\":4489:4552   */\n      swap5\n      pop\n        /* \"#utility.yul\":4445:4562   */\n      pop\n        /* \"#utility.yul\":4601:4603   */\n      0x20\n        /* \"#utility.yul\":4627:4680   */\n      tag_245\n        /* \"#utility.yul\":4672:4679   */\n      dup8\n        /* \"#utility.yul\":4663:4669   */\n      dup3\n        /* \"#utility.yul\":4652:4661   */\n      dup9\n        /* \"#utility.yul\":4648:4670   */\n      add\n        /* \"#utility.yul\":4627:4680   */\n      tag_191\n      jump\t// in\n    tag_245:\n        /* \"#utility.yul\":4617:4680   */\n      swap4\n      pop\n        /* \"#utility.yul\":4572:4690   */\n      pop\n        /* \"#utility.yul\":4729:4731   */\n      0x40\n        /* \"#utility.yul\":4755:4808   */\n      tag_246\n        /* \"#utility.yul\":4800:4807   */\n      dup8\n        /* \"#utility.yul\":4791:4797   */\n      dup3\n        /* \"#utility.yul\":4780:4789   */\n      dup9\n        /* \"#utility.yul\":4776:4798   */\n      add\n        /* \"#utility.yul\":4755:4808   */\n      tag_204\n      jump\t// in\n    tag_246:\n        /* \"#utility.yul\":4745:4808   */\n      swap3\n      pop\n        /* \"#utility.yul\":4700:4818   */\n      pop\n        /* \"#utility.yul\":4857:4859   */\n      0x60\n        /* \"#utility.yul\":4883:4936   */\n      tag_247\n        /* \"#utility.yul\":4928:4935   */\n      dup8\n        /* \"#utility.yul\":4919:4925   */\n      dup3\n        /* \"#utility.yul\":4908:4917   */\n      dup9\n        /* \"#utility.yul\":4904:4926   */\n      add\n        /* \"#utility.yul\":4883:4936   */\n      tag_204\n      jump\t// in\n    tag_247:\n        /* \"#utility.yul\":4873:4936   */\n      swap2\n      pop\n        /* \"#utility.yul\":4828:4946   */\n      pop\n        /* \"#utility.yul\":4188:4953   */\n      swap3\n      swap6\n      swap2\n      swap5\n      pop\n      swap3\n      pop\n      jump\t// out\n        /* \"#utility.yul\":4959:5077   */\n    tag_248:\n        /* \"#utility.yul\":5046:5070   */\n      tag_250\n        /* \"#utility.yul\":5064:5069   */\n      dup2\n        /* \"#utility.yul\":5046:5070   */\n      tag_251\n      jump\t// in\n    tag_250:\n        /* \"#utility.yul\":5041:5044   */\n      dup3\n        /* \"#utility.yul\":5034:5071   */\n      mstore\n        /* \"#utility.yul\":4959:5077   */\n      pop\n      pop\n      jump\t// out\n        /* \"#utility.yul\":5083:5240   */\n    tag_252:\n        /* \"#utility.yul\":5183:5233   */\n      tag_254\n        /* \"#utility.yul\":5227:5232   */\n      dup2\n        /* \"#utility.yul\":5183:5233   */\n      tag_255\n      jump\t// in\n    tag_254:\n        /* \"#utility.yul\":5178:5181   */\n      dup3\n        /* \"#utility.yul\":5171:5234   */\n      mstore\n        /* \"#utility.yul\":5083:5240   */\n      pop\n      pop\n      jump\t// out\n        /* \"#utility.yul\":5246:5610   */\n    tag_256:\n        /* \"#utility.yul\":5334:5337   */\n      0x00\n        /* \"#utility.yul\":5362:5401   */\n      tag_258\n        /* \"#utility.yul\":5395:5400   */\n      dup3\n        /* \"#utility.yul\":5362:5401   */\n      tag_259\n      jump\t// in\n    tag_258:\n        /* \"#utility.yul\":5417:5488   */\n      tag_260\n        /* \"#utility.yul\":5481:5487   */\n      dup2\n        /* \"#utility.yul\":5476:5479   */\n      dup6\n        /* \"#utility.yul\":5417:5488   */\n      tag_261\n      jump\t// in\n    tag_260:\n        /* \"#utility.yul\":5410:5488   */\n      swap4\n      pop\n        /* \"#utility.yul\":5497:5549   */\n      tag_262\n        /* \"#utility.yul\":5542:5548   */\n      dup2\n        /* \"#utility.yul\":5537:5540   */\n      dup6\n        /* \"#utility.yul\":5530:5534   */\n      0x20\n        /* \"#utility.yul\":5523:5528   */\n      dup7\n        /* \"#utility.yul\":5519:5535   */\n      add\n        /* \"#utility.yul\":5497:5549   */\n      tag_263\n      jump\t// in\n    tag_262:\n        /* \"#utility.yul\":5574:5603   */\n      tag_264\n        /* \"#utility.yul\":5596:5602   */\n      dup2\n        /* \"#utility.yul\":5574:5603   */\n      tag_265\n      jump\t// in\n    tag_264:\n        /* \"#utility.yul\":5569:5572   */\n      dup5\n        /* \"#utility.yul\":5565:5604   */\n      add\n        /* \"#utility.yul\":5558:5604   */\n      swap2\n      pop\n        /* \"#utility.yul\":5338:5610   */\n      pop\n        /* \"#utility.yul\":5246:5610   */\n      swap3\n      swap2\n      pop\n      pop\n      jump\t// out\n        /* \"#utility.yul\":5616:5982   */\n    tag_266:\n        /* \"#utility.yul\":5758:5761   */\n      0x00\n        /* \"#utility.yul\":5779:5846   */\n      tag_268\n        /* \"#utility.yul\":5843:5845   */\n      0x26\n        /* \"#utility.yul\":5838:5841   */\n      dup4\n        /* \"#utility.yul\":5779:5846   */\n      tag_261\n      jump\t// in\n    tag_268:\n        /* \"#utility.yul\":5772:5846   */\n      swap2\n      pop\n        /* \"#utility.yul\":5855:5948   */\n      tag_269\n        /* \"#utility.yul\":5944:5947   */\n      dup3\n        /* \"#utility.yul\":5855:5948   */\n      tag_270\n      jump\t// in\n    tag_269:\n        /* \"#utility.yul\":5973:5975   */\n      0x40\n        /* \"#utility.yul\":5968:5971   */\n      dup3\n        /* \"#utility.yul\":5964:5976   */\n      add\n        /* \"#utility.yul\":5957:5976   */\n      swap1\n      pop\n        /* \"#utility.yul\":5616:5982   */\n      swap2\n      swap1\n      pop\n      jump\t// out\n        /* \"#utility.yul\":5988:6354   */\n    tag_271:\n        /* \"#utility.yul\":6130:6133   */\n      0x00\n        /* \"#utility.yul\":6151:6218   */\n      tag_273\n        /* \"#utility.yul\":6215:6217   */\n      0x12\n        /* \"#utility.yul\":6210:6213   */\n      dup4\n        /* \"#utility.yul\":6151:6218   */\n      tag_261\n      jump\t// in\n    tag_273:\n        /* \"#utility.yul\":6144:6218   */\n      swap2\n      pop\n        /* \"#utility.yul\":6227:6320   */\n      tag_274\n        /* \"#utility.yul\":6316:6319   */\n      dup3\n        /* \"#utility.yul\":6227:6320   */\n      tag_275\n      jump\t// in\n    tag_274:\n        /* \"#utility.yul\":6345:6347   */\n      0x20\n        /* \"#utility.yul\":6340:6343   */\n      dup3\n        /* \"#utility.yul\":6336:6348   */\n      add\n        /* \"#utility.yul\":6329:6348   */\n      swap1\n      pop\n        /* \"#utility.yul\":5988:6354   */\n      swap2\n      swap1\n      pop\n      jump\t// out\n        /* \"#utility.yul\":6360:6726   */\n    tag_276:\n        /* \"#utility.yul\":6502:6505   */\n      0x00\n        /* \"#utility.yul\":6523:6590   */\n      tag_278\n        /* \"#utility.yul\":6587:6589   */\n      0x16\n        /* \"#utility.yul\":6582:6585   */\n      dup4\n        /* \"#utility.yul\":6523:6590   */\n      tag_261\n      jump\t// in\n    tag_278:\n        /* \"#utility.yul\":6516:6590   */\n      swap2\n      pop\n        /* \"#utility.yul\":6599:6692   */\n      tag_279\n        /* \"#utility.yul\":6688:6691   */\n      dup3\n        /* \"#utility.yul\":6599:6692   */\n      tag_280\n      jump\t// in\n    tag_279:\n        /* \"#utility.yul\":6717:6719   */\n      0x20\n        /* \"#utility.yul\":6712:6715   */\n      dup3\n        /* \"#utility.yul\":6708:6720   */\n      add\n        /* \"#utility.yul\":6701:6720   */\n      swap1\n      pop\n        /* \"#utility.yul\":6360:6726   */\n      swap2\n      swap1\n      pop\n      jump\t// out\n        /* \"#utility.yul\":6732:7098   */\n    tag_281:\n        /* \"#utility.yul\":6874:6877   */\n      0x00\n        /* \"#utility.yul\":6895:6962   */\n      tag_283\n        /* \"#utility.yul\":6959:6961   */\n      0x18\n        /* \"#utility.yul\":6954:6957   */\n      dup4\n        /* \"#utility.yul\":6895:6962   */\n      tag_261\n      jump\t// in\n    tag_283:\n        /* \"#utility.yul\":6888:6962   */\n      swap2\n      pop\n        /* \"#utility.yul\":6971:7064   */\n      tag_284\n        /* \"#utility.yul\":7060:7063   */\n      dup3\n        /* \"#utility.yul\":6971:7064   */\n      tag_285\n      jump\t// in\n    tag_284:\n        /* \"#utility.yul\":7089:7091   */\n      0x20\n        /* \"#utility.yul\":7084:7087   */\n      dup3\n        /* \"#utility.yul\":7080:7092   */\n      add\n        /* \"#utility.yul\":7073:7092   */\n      swap1\n      pop\n        /* \"#utility.yul\":6732:7098   */\n      swap2\n      swap1\n      pop\n      jump\t// out\n        /* \"#utility.yul\":7104:7470   */\n    tag_286:\n        /* \"#utility.yul\":7246:7249   */\n      0x00\n        /* \"#utility.yul\":7267:7334   */\n      tag_288\n        /* \"#utility.yul\":7331:7333   */\n      0x20\n        /* \"#utility.yul\":7326:7329   */\n      dup4\n        /* \"#utility.yul\":7267:7334   */\n      tag_261\n      jump\t// in\n    tag_288:\n        /* \"#utility.yul\":7260:7334   */\n      swap2\n      pop\n        /* \"#utility.yul\":7343:7436   */\n      tag_289\n        /* \"#utility.yul\":7432:7435   */\n      dup3\n        /* \"#utility.yul\":7343:7436   */\n      tag_290\n      jump\t// in\n    tag_289:\n        /* \"#utility.yul\":7461:7463   */\n      0x20\n        /* \"#utility.yul\":7456:7459   */\n      dup3\n        /* \"#utility.yul\":7452:7464   */\n      add\n        /* \"#utility.yul\":7445:7464   */\n      swap1\n      pop\n        /* \"#utility.yul\":7104:7470   */\n      swap2\n      swap1\n      pop\n      jump\t// out\n        /* \"#utility.yul\":7476:7874   */\n    tag_291:\n        /* \"#utility.yul\":7635:7638   */\n      0x00\n        /* \"#utility.yul\":7656:7739   */\n      tag_293\n        /* \"#utility.yul\":7737:7738   */\n      0x00\n        /* \"#utility.yul\":7732:7735   */\n      dup4\n        /* \"#utility.yul\":7656:7739   */\n      tag_294\n      jump\t// in\n    tag_293:\n        /* \"#utility.yul\":7649:7739   */\n      swap2\n      pop\n        /* \"#utility.yul\":7748:7841   */\n      tag_295\n        /* \"#utility.yul\":7837:7840   */\n      dup3\n        /* \"#utility.yul\":7748:7841   */\n      tag_296\n      jump\t// in\n    tag_295:\n        /* \"#utility.yul\":7866:7867   */\n      0x00\n        /* \"#utility.yul\":7861:7864   */\n      dup3\n        /* \"#utility.yul\":7857:7868   */\n      add\n        /* \"#utility.yul\":7850:7868   */\n      swap1\n      pop\n        /* \"#utility.yul\":7476:7874   */\n      swap2\n      swap1\n      pop\n      jump\t// out\n        /* \"#utility.yul\":7880:7998   */\n    tag_297:\n        /* \"#utility.yul\":7967:7991   */\n      tag_299\n        /* \"#utility.yul\":7985:7990   */\n      dup2\n        /* \"#utility.yul\":7967:7991   */\n      tag_300\n      jump\t// in\n    tag_299:\n        /* \"#utility.yul\":7962:7965   */\n      dup3\n        /* \"#utility.yul\":7955:7992   */\n      mstore\n        /* \"#utility.yul\":7880:7998   */\n      pop\n      pop\n      jump\t// out\n        /* \"#utility.yul\":8004:8383   */\n    tag_86:\n        /* \"#utility.yul\":8188:8191   */\n      0x00\n        /* \"#utility.yul\":8210:8357   */\n      tag_302\n        /* \"#utility.yul\":8353:8356   */\n      dup3\n        /* \"#utility.yul\":8210:8357   */\n      tag_291\n      jump\t// in\n    tag_302:\n        /* \"#utility.yul\":8203:8357   */\n      swap2\n      pop\n        /* \"#utility.yul\":8374:8377   */\n      dup2\n        /* \"#utility.yul\":8367:8377   */\n      swap1\n      pop\n        /* \"#utility.yul\":8004:8383   */\n      swap2\n      swap1\n      pop\n      jump\t// out\n        /* \"#utility.yul\":8389:8611   */\n    tag_44:\n        /* \"#utility.yul\":8482:8486   */\n      0x00\n        /* \"#utility.yul\":8520:8522   */\n      0x20\n        /* \"#utility.yul\":8509:8518   */\n      dup3\n        /* \"#utility.yul\":8505:8523   */\n      add\n        /* \"#utility.yul\":8497:8523   */\n      swap1\n      pop\n        /* \"#utility.yul\":8533:8604   */\n      tag_304\n        /* \"#utility.yul\":8601:8602   */\n      0x00\n        /* \"#utility.yul\":8590:8599   */\n      dup4\n        /* \"#utility.yul\":8586:8603   */\n      add\n        /* \"#utility.yul\":8577:8583   */\n      dup5\n        /* \"#utility.yul\":8533:8604   */\n      tag_248\n      jump\t// in\n    tag_304:\n        /* \"#utility.yul\":8389:8611   */\n      swap3\n      swap2\n      pop\n      pop\n      jump\t// out\n        /* \"#utility.yul\":8617:8865   */\n    tag_141:\n        /* \"#utility.yul\":8723:8727   */\n      0x00\n        /* \"#utility.yul\":8761:8763   */\n      0x20\n        /* \"#utility.yul\":8750:8759   */\n      dup3\n        /* \"#utility.yul\":8746:8764   */\n      add\n        /* \"#utility.yul\":8738:8764   */\n      swap1\n      pop\n        /* \"#utility.yul\":8774:8858   */\n      tag_306\n        /* \"#utility.yul\":8855:8856   */\n      0x00\n        /* \"#utility.yul\":8844:8853   */\n      dup4\n        /* \"#utility.yul\":8840:8857   */\n      add\n        /* \"#utility.yul\":8831:8837   */\n      dup5\n        /* \"#utility.yul\":8774:8858   */\n      tag_252\n      jump\t// in\n    tag_306:\n        /* \"#utility.yul\":8617:8865   */\n      swap3\n      swap2\n      pop\n      pop\n      jump\t// out\n        /* \"#utility.yul\":8871:9290   */\n    tag_151:\n        /* \"#utility.yul\":9037:9041   */\n      0x00\n        /* \"#utility.yul\":9075:9077   */\n      0x20\n        /* \"#utility.yul\":9064:9073   */\n      dup3\n        /* \"#utility.yul\":9060:9078   */\n      add\n        /* \"#utility.yul\":9052:9078   */\n      swap1\n      pop\n        /* \"#utility.yul\":9124:9133   */\n      dup2\n        /* \"#utility.yul\":9118:9122   */\n      dup2\n        /* \"#utility.yul\":9114:9134   */\n      sub\n        /* \"#utility.yul\":9110:9111   */\n      0x00\n        /* \"#utility.yul\":9099:9108   */\n      dup4\n        /* \"#utility.yul\":9095:9112   */\n      add\n        /* \"#utility.yul\":9088:9135   */\n      mstore\n        /* \"#utility.yul\":9152:9283   */\n      tag_308\n        /* \"#utility.yul\":9278:9282   */\n      dup2\n        /* \"#utility.yul\":9152:9283   */\n      tag_266\n      jump\t// in\n    tag_308:\n        /* \"#utility.yul\":9144:9283   */\n      swap1\n      pop\n        /* \"#utility.yul\":8871:9290   */\n      swap2\n      swap1\n      pop\n      jump\t// out\n        /* \"#utility.yul\":9296:9715   */\n    tag_99:\n        /* \"#utility.yul\":9462:9466   */\n      0x00\n        /* \"#utility.yul\":9500:9502   */\n      0x20\n        /* \"#utility.yul\":9489:9498   */\n      dup3\n        /* \"#utility.yul\":9485:9503   */\n      add\n        /* \"#utility.yul\":9477:9503   */\n      swap1\n      pop\n        /* \"#utility.yul\":9549:9558   */\n      dup2\n        /* \"#utility.yul\":9543:9547   */\n      dup2\n        /* \"#utility.yul\":9539:9559   */\n      sub\n        /* \"#utility.yul\":9535:9536   */\n      0x00\n        /* \"#utility.yul\":9524:9533   */\n      dup4\n        /* \"#utility.yul\":9520:9537   */\n      add\n        /* \"#utility.yul\":9513:9560   */\n      mstore\n        /* \"#utility.yul\":9577:9708   */\n      tag_310\n        /* \"#utility.yul\":9703:9707   */\n      dup2\n        /* \"#utility.yul\":9577:9708   */\n      tag_271\n      jump\t// in\n    tag_310:\n        /* \"#utility.yul\":9569:9708   */\n      swap1\n      pop\n        /* \"#utility.yul\":9296:9715   */\n      swap2\n      swap1\n      pop\n      jump\t// out\n        /* \"#utility.yul\":9721:10140   */\n    tag_92:\n        /* \"#utility.yul\":9887:9891   */\n      0x00\n        /* \"#utility.yul\":9925:9927   */\n      0x20\n        /* \"#utility.yul\":9914:9923   */\n      dup3\n        /* \"#utility.yul\":9910:9928   */\n      add\n        /* \"#utility.yul\":9902:9928   */\n      swap1\n      pop\n        /* \"#utility.yul\":9974:9983   */\n      dup2\n        /* \"#utility.yul\":9968:9972   */\n      dup2\n        /* \"#utility.yul\":9964:9984   */\n      sub\n        /* \"#utility.yul\":9960:9961   */\n      0x00\n        /* \"#utility.yul\":9949:9958   */\n      dup4\n        /* \"#utility.yul\":9945:9962   */\n      add\n        /* \"#utility.yul\":9938:9985   */\n      mstore\n        /* \"#utility.yul\":10002:10133   */\n      tag_312\n        /* \"#utility.yul\":10128:10132   */\n      dup2\n        /* \"#utility.yul\":10002:10133   */\n      tag_276\n      jump\t// in\n    tag_312:\n        /* \"#utility.yul\":9994:10133   */\n      swap1\n      pop\n        /* \"#utility.yul\":9721:10140   */\n      swap2\n      swap1\n      pop\n      jump\t// out\n        /* \"#utility.yul\":10146:10565   */\n    tag_137:\n        /* \"#utility.yul\":10312:10316   */\n      0x00\n        /* \"#utility.yul\":10350:10352   */\n      0x20\n        /* \"#utility.yul\":10339:10348   */\n      dup3\n        /* \"#utility.yul\":10335:10353   */\n      add\n        /* \"#utility.yul\":10327:10353   */\n      swap1\n      pop\n        /* \"#utility.yul\":10399:10408   */\n      dup2\n        /* \"#utility.yul\":10393:10397   */\n      dup2\n        /* \"#utility.yul\":10389:10409   */\n      sub\n        /* \"#utility.yul\":10385:10386   */\n      0x00\n        /* \"#utility.yul\":10374:10383   */\n      dup4\n        /* \"#utility.yul\":10370:10387   */\n      add\n        /* \"#utility.yul\":10363:10410   */\n      mstore\n        /* \"#utility.yul\":10427:10558   */\n      tag_314\n        /* \"#utility.yul\":10553:10557   */\n      dup2\n        /* \"#utility.yul\":10427:10558   */\n      tag_281\n      jump\t// in\n    tag_314:\n        /* \"#utility.yul\":10419:10558   */\n      swap1\n      pop\n        /* \"#utility.yul\":10146:10565   */\n      swap2\n      swap1\n      pop\n      jump\t// out\n        /* \"#utility.yul\":10571:10990   */\n    tag_159:\n        /* \"#utility.yul\":10737:10741   */\n      0x00\n        /* \"#utility.yul\":10775:10777   */\n      0x20\n        /* \"#utility.yul\":10764:10773   */\n      dup3\n        /* \"#utility.yul\":10760:10778   */\n      add\n        /* \"#utility.yul\":10752:10778   */\n      swap1\n      pop\n        /* \"#utility.yul\":10824:10833   */\n      dup2\n        /* \"#utility.yul\":10818:10822   */\n      dup2\n        /* \"#utility.yul\":10814:10834   */\n      sub\n        /* \"#utility.yul\":10810:10811   */\n      0x00\n        /* \"#utility.yul\":10799:10808   */\n      dup4\n        /* \"#utility.yul\":10795:10812   */\n      add\n        /* \"#utility.yul\":10788:10835   */\n      mstore\n        /* \"#utility.yul\":10852:10983   */\n      tag_316\n        /* \"#utility.yul\":10978:10982   */\n      dup2\n        /* \"#utility.yul\":10852:10983   */\n      tag_286\n      jump\t// in\n    tag_316:\n        /* \"#utility.yul\":10844:10983   */\n      swap1\n      pop\n        /* \"#utility.yul\":10571:10990   */\n      swap2\n      swap1\n      pop\n      jump\t// out\n        /* \"#utility.yul\":10996:11842   */\n    tag_76:\n        /* \"#utility.yul\":11241:11245   */\n      0x00\n        /* \"#utility.yul\":11279:11282   */\n      0xa0\n        /* \"#utility.yul\":11268:11277   */\n      dup3\n        /* \"#utility.yul\":11264:11283   */\n      add\n        /* \"#utility.yul\":11256:11283   */\n      swap1\n      pop\n        /* \"#utility.yul\":11293:11364   */\n      tag_318\n        /* \"#utility.yul\":11361:11362   */\n      0x00\n        /* \"#utility.yul\":11350:11359   */\n      dup4\n        /* \"#utility.yul\":11346:11363   */\n      add\n        /* \"#utility.yul\":11337:11343   */\n      dup9\n        /* \"#utility.yul\":11293:11364   */\n      tag_297\n      jump\t// in\n    tag_318:\n        /* \"#utility.yul\":11374:11446   */\n      tag_319\n        /* \"#utility.yul\":11442:11444   */\n      0x20\n        /* \"#utility.yul\":11431:11440   */\n      dup4\n        /* \"#utility.yul\":11427:11445   */\n      add\n        /* \"#utility.yul\":11418:11424   */\n      dup8\n        /* \"#utility.yul\":11374:11446   */\n      tag_248\n      jump\t// in\n    tag_319:\n        /* \"#utility.yul\":11493:11502   */\n      dup2\n        /* \"#utility.yul\":11487:11491   */\n      dup2\n        /* \"#utility.yul\":11483:11503   */\n      sub\n        /* \"#utility.yul\":11478:11480   */\n      0x40\n        /* \"#utility.yul\":11467:11476   */\n      dup4\n        /* \"#utility.yul\":11463:11481   */\n      add\n        /* \"#utility.yul\":11456:11504   */\n      mstore\n        /* \"#utility.yul\":11521:11599   */\n      tag_320\n        /* \"#utility.yul\":11594:11598   */\n      dup2\n        /* \"#utility.yul\":11585:11591   */\n      dup7\n        /* \"#utility.yul\":11521:11599   */\n      tag_256\n      jump\t// in\n    tag_320:\n        /* \"#utility.yul\":11513:11599   */\n      swap1\n      pop\n        /* \"#utility.yul\":11646:11655   */\n      dup2\n        /* \"#utility.yul\":11640:11644   */\n      dup2\n        /* \"#utility.yul\":11636:11656   */\n      sub\n        /* \"#utility.yul\":11631:11633   */\n      0x60\n        /* \"#utility.yul\":11620:11629   */\n      dup4\n        /* \"#utility.yul\":11616:11634   */\n      add\n        /* \"#utility.yul\":11609:11657   */\n      mstore\n        /* \"#utility.yul\":11674:11752   */\n      tag_321\n        /* \"#utility.yul\":11747:11751   */\n      dup2\n        /* \"#utility.yul\":11738:11744   */\n      dup6\n        /* \"#utility.yul\":11674:11752   */\n      tag_256\n      jump\t// in\n    tag_321:\n        /* \"#utility.yul\":11666:11752   */\n      swap1\n      pop\n        /* \"#utility.yul\":11762:11835   */\n      tag_322\n        /* \"#utility.yul\":11830:11833   */\n      0x80\n        /* \"#utility.yul\":11819:11828   */\n      dup4\n        /* \"#utility.yul\":11815:11834   */\n      add\n        /* \"#utility.yul\":11806:11812   */\n      dup5\n        /* \"#utility.yul\":11762:11835   */\n      tag_297\n      jump\t// in\n    tag_322:\n        /* \"#utility.yul\":10996:11842   */\n      swap7\n      swap6\n      pop\n      pop\n      pop\n      pop\n      pop\n      pop\n      jump\t// out\n        /* \"#utility.yul\":11848:12512   */\n    tag_123:\n        /* \"#utility.yul\":12053:12057   */\n      0x00\n        /* \"#utility.yul\":12091:12094   */\n      0xa0\n        /* \"#utility.yul\":12080:12089   */\n      dup3\n        /* \"#utility.yul\":12076:12095   */\n      add\n        /* \"#utility.yul\":12068:12095   */\n      swap1\n      pop\n        /* \"#utility.yul\":12105:12176   */\n      tag_324\n        /* \"#utility.yul\":12173:12174   */\n      0x00\n        /* \"#utility.yul\":12162:12171   */\n      dup4\n        /* \"#utility.yul\":12158:12175   */\n      add\n        /* \"#utility.yul\":12149:12155   */\n      dup9\n        /* \"#utility.yul\":12105:12176   */\n      tag_297\n      jump\t// in\n    tag_324:\n        /* \"#utility.yul\":12186:12258   */\n      tag_325\n        /* \"#utility.yul\":12254:12256   */\n      0x20\n        /* \"#utility.yul\":12243:12252   */\n      dup4\n        /* \"#utility.yul\":12239:12257   */\n      add\n        /* \"#utility.yul\":12230:12236   */\n      dup8\n        /* \"#utility.yul\":12186:12258   */\n      tag_248\n      jump\t// in\n    tag_325:\n        /* \"#utility.yul\":12268:12340   */\n      tag_326\n        /* \"#utility.yul\":12336:12338   */\n      0x40\n        /* \"#utility.yul\":12325:12334   */\n      dup4\n        /* \"#utility.yul\":12321:12339   */\n      add\n        /* \"#utility.yul\":12312:12318   */\n      dup7\n        /* \"#utility.yul\":12268:12340   */\n      tag_297\n      jump\t// in\n    tag_326:\n        /* \"#utility.yul\":12350:12422   */\n      tag_327\n        /* \"#utility.yul\":12418:12420   */\n      0x60\n        /* \"#utility.yul\":12407:12416   */\n      dup4\n        /* \"#utility.yul\":12403:12421   */\n      add\n        /* \"#utility.yul\":12394:12400   */\n      dup6\n        /* \"#utility.yul\":12350:12422   */\n      tag_297\n      jump\t// in\n    tag_327:\n        /* \"#utility.yul\":12432:12505   */\n      tag_328\n        /* \"#utility.yul\":12500:12503   */\n      0x80\n        /* \"#utility.yul\":12489:12498   */\n      dup4\n        /* \"#utility.yul\":12485:12504   */\n      add\n        /* \"#utility.yul\":12476:12482   */\n      dup5\n        /* \"#utility.yul\":12432:12505   */\n      tag_248\n      jump\t// in\n    tag_328:\n        /* \"#utility.yul\":11848:12512   */\n      swap7\n      swap6\n      pop\n      pop\n      pop\n      pop\n      pop\n      pop\n      jump\t// out\n        /* \"#utility.yul\":12518:12647   */\n    tag_185:\n        /* \"#utility.yul\":12552:12558   */\n      0x00\n        /* \"#utility.yul\":12579:12599   */\n      tag_330\n      tag_331\n      jump\t// in\n    tag_330:\n        /* \"#utility.yul\":12569:12599   */\n      swap1\n      pop\n        /* \"#utility.yul\":12608:12641   */\n      tag_332\n        /* \"#utility.yul\":12636:12640   */\n      dup3\n        /* \"#utility.yul\":12628:12634   */\n      dup3\n        /* \"#utility.yul\":12608:12641   */\n      tag_333\n      jump\t// in\n    tag_332:\n        /* \"#utility.yul\":12518:12647   */\n      swap2\n      swap1\n      pop\n      jump\t// out\n        /* \"#utility.yul\":12653:12728   */\n    tag_331:\n        /* \"#utility.yul\":12686:12692   */\n      0x00\n        /* \"#utility.yul\":12719:12721   */\n      0x40\n        /* \"#utility.yul\":12713:12722   */\n      mload\n        /* \"#utility.yul\":12703:12722   */\n      swap1\n      pop\n        /* \"#utility.yul\":12653:12728   */\n      swap1\n      jump\t// out\n        /* \"#utility.yul\":12734:13042   */\n    tag_184:\n        /* \"#utility.yul\":12796:12800   */\n      0x00\n        /* \"#utility.yul\":12886:12904   */\n      0xffffffffffffffff\n        /* \"#utility.yul\":12878:12884   */\n      dup3\n        /* \"#utility.yul\":12875:12905   */\n      gt\n        /* \"#utility.yul\":12872:12928   */\n      iszero\n      tag_336\n      jumpi\n        /* \"#utility.yul\":12908:12926   */\n      tag_337\n      tag_338\n      jump\t// in\n    tag_337:\n        /* \"#utility.yul\":12872:12928   */\n    tag_336:\n        /* \"#utility.yul\":12946:12975   */\n      tag_339\n        /* \"#utility.yul\":12968:12974   */\n      dup3\n        /* \"#utility.yul\":12946:12975   */\n      tag_265\n      jump\t// in\n    tag_339:\n        /* \"#utility.yul\":12938:12975   */\n      swap1\n      pop\n        /* \"#utility.yul\":13030:13034   */\n      0x20\n        /* \"#utility.yul\":13024:13028   */\n      dup2\n        /* \"#utility.yul\":13020:13035   */\n      add\n        /* \"#utility.yul\":13012:13035   */\n      swap1\n      pop\n        /* \"#utility.yul\":12734:13042   */\n      swap2\n      swap1\n      pop\n      jump\t// out\n        /* \"#utility.yul\":13048:13147   */\n    tag_259:\n        /* \"#utility.yul\":13100:13106   */\n      0x00\n        /* \"#utility.yul\":13134:13139   */\n      dup2\n        /* \"#utility.yul\":13128:13140   */\n      mload\n        /* \"#utility.yul\":13118:13140   */\n      swap1\n      pop\n        /* \"#utility.yul\":13048:13147   */\n      swap2\n      swap1\n      pop\n      jump\t// out\n        /* \"#utility.yul\":13153:13300   */\n    tag_294:\n        /* \"#utility.yul\":13254:13265   */\n      0x00\n        /* \"#utility.yul\":13291:13294   */\n      dup2\n        /* \"#utility.yul\":13276:13294   */\n      swap1\n      pop\n        /* \"#utility.yul\":13153:13300   */\n      swap3\n      swap2\n      pop\n      pop\n      jump\t// out\n        /* \"#utility.yul\":13306:13475   */\n    tag_261:\n        /* \"#utility.yul\":13390:13401   */\n      0x00\n        /* \"#utility.yul\":13424:13430   */\n      dup3\n        /* \"#utility.yul\":13419:13422   */\n      dup3\n        /* \"#utility.yul\":13412:13431   */\n      mstore\n        /* \"#utility.yul\":13464:13468   */\n      0x20\n        /* \"#utility.yul\":13459:13462   */\n      dup3\n        /* \"#utility.yul\":13455:13469   */\n      add\n        /* \"#utility.yul\":13440:13469   */\n      swap1\n      pop\n        /* \"#utility.yul\":13306:13475   */\n      swap3\n      swap2\n      pop\n      pop\n      jump\t// out\n        /* \"#utility.yul\":13481:13577   */\n    tag_251:\n        /* \"#utility.yul\":13518:13525   */\n      0x00\n        /* \"#utility.yul\":13547:13571   */\n      tag_344\n        /* \"#utility.yul\":13565:13570   */\n      dup3\n        /* \"#utility.yul\":13547:13571   */\n      tag_345\n      jump\t// in\n    tag_344:\n        /* \"#utility.yul\":13536:13571   */\n      swap1\n      pop\n        /* \"#utility.yul\":13481:13577   */\n      swap2\n      swap1\n      pop\n      jump\t// out\n        /* \"#utility.yul\":13583:13709   */\n    tag_345:\n        /* \"#utility.yul\":13620:13627   */\n      0x00\n        /* \"#utility.yul\":13660:13702   */\n      0xffffffffffffffffffffffffffffffffffffffff\n        /* \"#utility.yul\":13653:13658   */\n      dup3\n        /* \"#utility.yul\":13649:13703   */\n      and\n        /* \"#utility.yul\":13638:13703   */\n      swap1\n      pop\n        /* \"#utility.yul\":13583:13709   */\n      swap2\n      swap1\n      pop\n      jump\t// out\n        /* \"#utility.yul\":13715:13792   */\n    tag_300:\n        /* \"#utility.yul\":13752:13759   */\n      0x00\n        /* \"#utility.yul\":13781:13786   */\n      dup2\n        /* \"#utility.yul\":13770:13786   */\n      swap1\n      pop\n        /* \"#utility.yul\":13715:13792   */\n      swap2\n      swap1\n      pop\n      jump\t// out\n        /* \"#utility.yul\":13798:13924   */\n    tag_255:\n        /* \"#utility.yul\":13861:13870   */\n      0x00\n        /* \"#utility.yul\":13894:13918   */\n      tag_349\n        /* \"#utility.yul\":13912:13917   */\n      dup3\n        /* \"#utility.yul\":13894:13918   */\n      tag_300\n      jump\t// in\n    tag_349:\n        /* \"#utility.yul\":13881:13918   */\n      swap1\n      pop\n        /* \"#utility.yul\":13798:13924   */\n      swap2\n      swap1\n      pop\n      jump\t// out\n        /* \"#utility.yul\":13930:14084   */\n    tag_190:\n        /* \"#utility.yul\":14014:14020   */\n      dup3\n        /* \"#utility.yul\":14009:14012   */\n      dup2\n        /* \"#utility.yul\":14004:14007   */\n      dup4\n        /* \"#utility.yul\":13991:14021   */\n      calldatacopy\n        /* \"#utility.yul\":14076:14077   */\n      0x00\n        /* \"#utility.yul\":14067:14073   */\n      dup4\n        /* \"#utility.yul\":14062:14065   */\n      dup4\n        /* \"#utility.yul\":14058:14074   */\n      add\n        /* \"#utility.yul\":14051:14078   */\n      mstore\n        /* \"#utility.yul\":13930:14084   */\n      pop\n      pop\n      pop\n      jump\t// out\n        /* \"#utility.yul\":14090:14397   */\n    tag_263:\n        /* \"#utility.yul\":14158:14159   */\n      0x00\n        /* \"#utility.yul\":14168:14281   */\n    tag_352:\n        /* \"#utility.yul\":14182:14188   */\n      dup4\n        /* \"#utility.yul\":14179:14180   */\n      dup2\n        /* \"#utility.yul\":14176:14189   */\n      lt\n        /* \"#utility.yul\":14168:14281   */\n      iszero\n      tag_354\n      jumpi\n        /* \"#utility.yul\":14267:14268   */\n      dup1\n        /* \"#utility.yul\":14262:14265   */\n      dup3\n        /* \"#utility.yul\":14258:14269   */\n      add\n        /* \"#utility.yul\":14252:14270   */\n      mload\n        /* \"#utility.yul\":14248:14249   */\n      dup2\n        /* \"#utility.yul\":14243:14246   */\n      dup5\n        /* \"#utility.yul\":14239:14250   */\n      add\n        /* \"#utility.yul\":14232:14271   */\n      mstore\n        /* \"#utility.yul\":14204:14206   */\n      0x20\n        /* \"#utility.yul\":14201:14202   */\n      dup2\n        /* \"#utility.yul\":14197:14207   */\n      add\n        /* \"#utility.yul\":14192:14207   */\n      swap1\n      pop\n        /* \"#utility.yul\":14168:14281   */\n      jump(tag_352)\n    tag_354:\n        /* \"#utility.yul\":14299:14305   */\n      dup4\n        /* \"#utility.yul\":14296:14297   */\n      dup2\n        /* \"#utility.yul\":14293:14306   */\n      gt\n        /* \"#utility.yul\":14290:14391   */\n      iszero\n      tag_355\n      jumpi\n        /* \"#utility.yul\":14379:14380   */\n      0x00\n        /* \"#utility.yul\":14370:14376   */\n      dup5\n        /* \"#utility.yul\":14365:14368   */\n      dup5\n        /* \"#utility.yul\":14361:14377   */\n      add\n        /* \"#utility.yul\":14354:14381   */\n      mstore\n        /* \"#utility.yul\":14290:14391   */\n    tag_355:\n        /* \"#utility.yul\":14139:14397   */\n      pop\n        /* \"#utility.yul\":14090:14397   */\n      pop\n      pop\n      pop\n      jump\t// out\n        /* \"#utility.yul\":14403:14723   */\n    tag_112:\n        /* \"#utility.yul\":14447:14453   */\n      0x00\n        /* \"#utility.yul\":14484:14485   */\n      0x02\n        /* \"#utility.yul\":14478:14482   */\n      dup3\n        /* \"#utility.yul\":14474:14486   */\n      div\n        /* \"#utility.yul\":14464:14486   */\n      swap1\n      pop\n        /* \"#utility.yul\":14531:14532   */\n      0x01\n        /* \"#utility.yul\":14525:14529   */\n      dup3\n        /* \"#utility.yul\":14521:14533   */\n      and\n        /* \"#utility.yul\":14552:14570   */\n      dup1\n        /* \"#utility.yul\":14542:14623   */\n      tag_357\n      jumpi\n        /* \"#utility.yul\":14608:14612   */\n      0x7f\n        /* \"#utility.yul\":14600:14606   */\n      dup3\n        /* \"#utility.yul\":14596:14613   */\n      and\n        /* \"#utility.yul\":14586:14613   */\n      swap2\n      pop\n        /* \"#utility.yul\":14542:14623   */\n    tag_357:\n        /* \"#utility.yul\":14670:14672   */\n      0x20\n        /* \"#utility.yul\":14662:14668   */\n      dup3\n        /* \"#utility.yul\":14659:14673   */\n      lt\n        /* \"#utility.yul\":14639:14657   */\n      dup2\n        /* \"#utility.yul\":14636:14674   */\n      eq\n        /* \"#utility.yul\":14633:14717   */\n      iszero\n      tag_358\n      jumpi\n        /* \"#utility.yul\":14689:14707   */\n      tag_359\n      tag_360\n      jump\t// in\n    tag_359:\n        /* \"#utility.yul\":14633:14717   */\n    tag_358:\n        /* \"#utility.yul\":14454:14723   */\n      pop\n        /* \"#utility.yul\":14403:14723   */\n      swap2\n      swap1\n      pop\n      jump\t// out\n        /* \"#utility.yul\":14729:15010   */\n    tag_333:\n        /* \"#utility.yul\":14812:14839   */\n      tag_362\n        /* \"#utility.yul\":14834:14838   */\n      dup3\n        /* \"#utility.yul\":14812:14839   */\n      tag_265\n      jump\t// in\n    tag_362:\n        /* \"#utility.yul\":14804:14810   */\n      dup2\n        /* \"#utility.yul\":14800:14840   */\n      add\n        /* \"#utility.yul\":14942:14948   */\n      dup2\n        /* \"#utility.yul\":14930:14940   */\n      dup2\n        /* \"#utility.yul\":14927:14949   */\n      lt\n        /* \"#utility.yul\":14906:14924   */\n      0xffffffffffffffff\n        /* \"#utility.yul\":14894:14904   */\n      dup3\n        /* \"#utility.yul\":14891:14925   */\n      gt\n        /* \"#utility.yul\":14888:14950   */\n      or\n        /* \"#utility.yul\":14885:14973   */\n      iszero\n      tag_363\n      jumpi\n        /* \"#utility.yul\":14953:14971   */\n      tag_364\n      tag_338\n      jump\t// in\n    tag_364:\n        /* \"#utility.yul\":14885:14973   */\n    tag_363:\n        /* \"#utility.yul\":14993:15003   */\n      dup1\n        /* \"#utility.yul\":14989:14991   */\n      0x40\n        /* \"#utility.yul\":14982:15004   */\n      mstore\n        /* \"#utility.yul\":14772:15010   */\n      pop\n        /* \"#utility.yul\":14729:15010   */\n      pop\n      pop\n      jump\t// out\n        /* \"#utility.yul\":15016:15196   */\n    tag_360:\n        /* \"#utility.yul\":15064:15141   */\n      0x4e487b7100000000000000000000000000000000000000000000000000000000\n        /* \"#utility.yul\":15061:15062   */\n      0x00\n        /* \"#utility.yul\":15054:15142   */\n      mstore\n        /* \"#utility.yul\":15161:15165   */\n      0x22\n        /* \"#utility.yul\":15158:15159   */\n      0x04\n        /* \"#utility.yul\":15151:15166   */\n      mstore\n        /* \"#utility.yul\":15185:15189   */\n      0x24\n        /* \"#utility.yul\":15182:15183   */\n      0x00\n        /* \"#utility.yul\":15175:15190   */\n      revert\n        /* \"#utility.yul\":15202:15382   */\n    tag_338:\n        /* \"#utility.yul\":15250:15327   */\n      0x4e487b7100000000000000000000000000000000000000000000000000000000\n        /* \"#utility.yul\":15247:15248   */\n      0x00\n        /* \"#utility.yul\":15240:15328   */\n      mstore\n        /* \"#utility.yul\":15347:15351   */\n      0x41\n        /* \"#utility.yul\":15344:15345   */\n      0x04\n        /* \"#utility.yul\":15337:15352   */\n      mstore\n        /* \"#utility.yul\":15371:15375   */\n      0x24\n        /* \"#utility.yul\":15368:15369   */\n      0x00\n        /* \"#utility.yul\":15361:15376   */\n      revert\n        /* \"#utility.yul\":15388:15505   */\n    tag_202:\n        /* \"#utility.yul\":15497:15498   */\n      0x00\n        /* \"#utility.yul\":15494:15495   */\n      dup1\n        /* \"#utility.yul\":15487:15499   */\n      revert\n        /* \"#utility.yul\":15511:15628   */\n    tag_188:\n        /* \"#utility.yul\":15620:15621   */\n      0x00\n        /* \"#utility.yul\":15617:15618   */\n      dup1\n        /* \"#utility.yul\":15610:15622   */\n      revert\n        /* \"#utility.yul\":15634:15751   */\n    tag_222:\n        /* \"#utility.yul\":15743:15744   */\n      0x00\n        /* \"#utility.yul\":15740:15741   */\n      dup1\n        /* \"#utility.yul\":15733:15745   */\n      revert\n        /* \"#utility.yul\":15757:15874   */\n    tag_211:\n        /* \"#utility.yul\":15866:15867   */\n      0x00\n        /* \"#utility.yul\":15863:15864   */\n      dup1\n        /* \"#utility.yul\":15856:15868   */\n      revert\n        /* \"#utility.yul\":15880:15982   */\n    tag_265:\n        /* \"#utility.yul\":15921:15927   */\n      0x00\n        /* \"#utility.yul\":15972:15974   */\n      0x1f\n        /* \"#utility.yul\":15968:15975   */\n      not\n        /* \"#utility.yul\":15963:15965   */\n      0x1f\n        /* \"#utility.yul\":15956:15961   */\n      dup4\n        /* \"#utility.yul\":15952:15966   */\n      add\n        /* \"#utility.yul\":15948:15976   */\n      and\n        /* \"#utility.yul\":15938:15976   */\n      swap1\n      pop\n        /* \"#utility.yul\":15880:15982   */\n      swap2\n      swap1\n      pop\n      jump\t// out\n        /* \"#utility.yul\":15988:16213   */\n    tag_270:\n        /* \"#utility.yul\":16128:16162   */\n      0x4f776e61626c653a206e6577206f776e657220697320746865207a65726f2061\n        /* \"#utility.yul\":16124:16125   */\n      0x00\n        /* \"#utility.yul\":16116:16122   */\n      dup3\n        /* \"#utility.yul\":16112:16126   */\n      add\n        /* \"#utility.yul\":16105:16163   */\n      mstore\n        /* \"#utility.yul\":16197:16205   */\n      0x6464726573730000000000000000000000000000000000000000000000000000\n        /* \"#utility.yul\":16192:16194   */\n      0x20\n        /* \"#utility.yul\":16184:16190   */\n      dup3\n        /* \"#utility.yul\":16180:16195   */\n      add\n        /* \"#utility.yul\":16173:16206   */\n      mstore\n        /* \"#utility.yul\":15988:16213   */\n      pop\n      jump\t// out\n        /* \"#utility.yul\":16219:16387   */\n    tag_275:\n        /* \"#utility.yul\":16359:16379   */\n      0x496e73756666696369656e742066756e64730000000000000000000000000000\n        /* \"#utility.yul\":16355:16356   */\n      0x00\n        /* \"#utility.yul\":16347:16353   */\n      dup3\n        /* \"#utility.yul\":16343:16357   */\n      add\n        /* \"#utility.yul\":16336:16380   */\n      mstore\n        /* \"#utility.yul\":16219:16387   */\n      pop\n      jump\t// out\n        /* \"#utility.yul\":16393:16565   */\n    tag_280:\n        /* \"#utility.yul\":16533:16557   */\n      0x54656e616e74206e6f207075646f207265636962697200000000000000000000\n        /* \"#utility.yul\":16529:16530   */\n      0x00\n        /* \"#utility.yul\":16521:16527   */\n      dup3\n        /* \"#utility.yul\":16517:16531   */\n      add\n        /* \"#utility.yul\":16510:16558   */\n      mstore\n        /* \"#utility.yul\":16393:16565   */\n      pop\n      jump\t// out\n        /* \"#utility.yul\":16571:16745   */\n    tag_285:\n        /* \"#utility.yul\":16711:16737   */\n      0x456d706c6f796565206e6f207075646f20726563696269720000000000000000\n        /* \"#utility.yul\":16707:16708   */\n      0x00\n        /* \"#utility.yul\":16699:16705   */\n      dup3\n        /* \"#utility.yul\":16695:16709   */\n      add\n        /* \"#utility.yul\":16688:16738   */\n      mstore\n        /* \"#utility.yul\":16571:16745   */\n      pop\n      jump\t// out\n        /* \"#utility.yul\":16751:16933   */\n    tag_290:\n        /* \"#utility.yul\":16891:16925   */\n      0x4f776e61626c653a2063616c6c6572206973206e6f7420746865206f776e6572\n        /* \"#utility.yul\":16887:16888   */\n      0x00\n        /* \"#utility.yul\":16879:16885   */\n      dup3\n        /* \"#utility.yul\":16875:16889   */\n      add\n        /* \"#utility.yul\":16868:16926   */\n      mstore\n        /* \"#utility.yul\":16751:16933   */\n      pop\n      jump\t// out\n        /* \"#utility.yul\":16939:17053   */\n    tag_296:\n      pop\n      jump\t// out\n        /* \"#utility.yul\":17059:17181   */\n    tag_194:\n        /* \"#utility.yul\":17132:17156   */\n      tag_379\n        /* \"#utility.yul\":17150:17155   */\n      dup2\n        /* \"#utility.yul\":17132:17156   */\n      tag_251\n      jump\t// in\n    tag_379:\n        /* \"#utility.yul\":17125:17130   */\n      dup2\n        /* \"#utility.yul\":17122:17157   */\n      eq\n        /* \"#utility.yul\":17112:17175   */\n      tag_380\n      jumpi\n        /* \"#utility.yul\":17171:17172   */\n      0x00\n        /* \"#utility.yul\":17168:17169   */\n      dup1\n        /* \"#utility.yul\":17161:17173   */\n      revert\n        /* \"#utility.yul\":17112:17175   */\n    tag_380:\n        /* \"#utility.yul\":17059:17181   */\n      pop\n      jump\t// out\n        /* \"#utility.yul\":17187:17309   */\n    tag_207:\n        /* \"#utility.yul\":17260:17284   */\n      tag_382\n        /* \"#utility.yul\":17278:17283   */\n      dup2\n        /* \"#utility.yul\":17260:17284   */\n      tag_300\n      jump\t// in\n    tag_382:\n        /* \"#utility.yul\":17253:17258   */\n      dup2\n        /* \"#utility.yul\":17250:17285   */\n      eq\n        /* \"#utility.yul\":17240:17303   */\n      tag_383\n      jumpi\n        /* \"#utility.yul\":17299:17300   */\n      0x00\n        /* \"#utility.yul\":17296:17297   */\n      dup1\n        /* \"#utility.yul\":17289:17301   */\n      revert\n        /* \"#utility.yul\":17240:17303   */\n    tag_383:\n        /* \"#utility.yul\":17187:17309   */\n      pop\n      jump\t// out\n    stop\n\n    sub_0: assembly {\n            /* \"challenges/Consorcio/Employee.sol\":84:511  contract Employee is User {\r... */\n          mstore(0x40, 0x80)\n            /* \"challenges/Consorcio/Employee.sol\":209:508  constructor(\r... */\n          callvalue\n          dup1\n          iszero\n          tag_1\n          jumpi\n          0x00\n          dup1\n          revert\n        tag_1:\n          pop\n          mload(0x40)\n          sub(codesize, bytecodeSize)\n          dup1\n          bytecodeSize\n          dup4\n          codecopy\n          dup2\n          dup2\n          add\n          0x40\n          mstore\n          dup2\n          add\n          swap1\n          tag_2\n          swap2\n          swap1\n          tag_3\n          jump\t// in\n        tag_2:\n            /* \"challenges/Consorcio/Employee.sol\":382:387  newId */\n          dup5\n            /* \"challenges/Consorcio/Employee.sol\":389:399  newAddress */\n          dup5\n            /* \"challenges/Consorcio/User.sol\":587:592  newId */\n          dup2\n            /* \"challenges/Consorcio/User.sol\":582:584  id */\n          0x00\n            /* \"challenges/Consorcio/User.sol\":582:592  id = newId */\n          dup2\n          swap1\n          sstore\n          pop\n            /* \"challenges/Consorcio/User.sol\":623:633  newAddress */\n          dup1\n            /* \"challenges/Consorcio/User.sol\":603:620  withdrawalAddress */\n          0x01\n          0x00\n            /* \"challenges/Consorcio/User.sol\":603:633  withdrawalAddress = newAddress */\n          0x0100\n          exp\n          dup2\n          sload\n          dup2\n          0xffffffffffffffffffffffffffffffffffffffff\n          mul\n          not\n          and\n          swap1\n          dup4\n          0xffffffffffffffffffffffffffffffffffffffff\n          and\n          mul\n          or\n          swap1\n          sstore\n          pop\n            /* \"challenges/Consorcio/User.sol\":527:641  constructor(uint newId, address newAddress) {\r... */\n          pop\n          pop\n            /* \"challenges/Consorcio/Employee.sol\":425:438  newProfession */\n          dup3\n            /* \"challenges/Consorcio/Employee.sol\":412:422  profession */\n          0x02\n            /* \"challenges/Consorcio/Employee.sol\":412:438  profession = newProfession */\n          swap1\n          dup1\n          mload\n          swap1\n          0x20\n          add\n          swap1\n          tag_8\n          swap3\n          swap2\n          swap1\n          tag_9\n          jump\t// in\n        tag_8:\n          pop\n            /* \"challenges/Consorcio/Employee.sol\":460:471  newSchedule */\n          dup2\n            /* \"challenges/Consorcio/Employee.sol\":449:457  schedule */\n          0x03\n            /* \"challenges/Consorcio/Employee.sol\":449:471  schedule = newSchedule */\n          swap1\n          dup1\n          mload\n          swap1\n          0x20\n          add\n          swap1\n          tag_10\n          swap3\n          swap2\n          swap1\n          tag_9\n          jump\t// in\n        tag_10:\n          pop\n            /* \"challenges/Consorcio/Employee.sol\":491:500  newSalary */\n          dup1\n            /* \"challenges/Consorcio/Employee.sol\":482:488  salary */\n          0x04\n            /* \"challenges/Consorcio/Employee.sol\":482:500  salary = newSalary */\n          dup2\n          swap1\n          sstore\n          pop\n            /* \"challenges/Consorcio/Employee.sol\":209:508  constructor(\r... */\n          pop\n          pop\n          pop\n          pop\n          pop\n            /* \"challenges/Consorcio/Employee.sol\":84:511  contract Employee is User {\r... */\n          jump(tag_11)\n        tag_9:\n          dup3\n          dup1\n          sload\n          tag_12\n          swap1\n          tag_13\n          jump\t// in\n        tag_12:\n          swap1\n          0x00\n          mstore\n          keccak256(0x00, 0x20)\n          swap1\n          0x1f\n          add\n          0x20\n          swap1\n          div\n          dup2\n          add\n          swap3\n          dup3\n          tag_15\n          jumpi\n          0x00\n          dup6\n          sstore\n          jump(tag_14)\n        tag_15:\n          dup3\n          0x1f\n          lt\n          tag_16\n          jumpi\n          dup1\n          mload\n          not(0xff)\n          and\n          dup4\n          dup1\n          add\n          or\n          dup6\n          sstore\n          jump(tag_14)\n        tag_16:\n          dup3\n          dup1\n          add\n          0x01\n          add\n          dup6\n          sstore\n          dup3\n          iszero\n          tag_14\n          jumpi\n          swap2\n          dup3\n          add\n        tag_17:\n          dup3\n          dup2\n          gt\n          iszero\n          tag_18\n          jumpi\n          dup3\n          mload\n          dup3\n          sstore\n          swap2\n          0x20\n          add\n          swap2\n          swap1\n          0x01\n          add\n          swap1\n          jump(tag_17)\n        tag_18:\n        tag_14:\n          pop\n          swap1\n          pop\n          tag_19\n          swap2\n          swap1\n          tag_20\n          jump\t// in\n        tag_19:\n          pop\n          swap1\n          jump\t// out\n        tag_20:\n        tag_21:\n          dup1\n          dup3\n          gt\n          iszero\n          tag_22\n          jumpi\n          0x00\n          dup2\n          0x00\n          swap1\n          sstore\n          pop\n          0x01\n          add\n          jump(tag_21)\n        tag_22:\n          pop\n          swap1\n          jump\t// out\n            /* \"#utility.yul\":7:428   */\n        tag_24:\n            /* \"#utility.yul\":96:101   */\n          0x00\n            /* \"#utility.yul\":121:187   */\n          tag_26\n            /* \"#utility.yul\":137:186   */\n          tag_27\n            /* \"#utility.yul\":179:185   */\n          dup5\n            /* \"#utility.yul\":137:186   */\n          tag_28\n          jump\t// in\n        tag_27:\n            /* \"#utility.yul\":121:187   */\n          tag_29\n          jump\t// in\n        tag_26:\n            /* \"#utility.yul\":112:187   */\n          swap1\n          pop\n            /* \"#utility.yul\":210:216   */\n          dup3\n            /* \"#utility.yul\":203:208   */\n          dup2\n            /* \"#utility.yul\":196:217   */\n          mstore\n            /* \"#utility.yul\":248:252   */\n          0x20\n            /* \"#utility.yul\":241:246   */\n          dup2\n            /* \"#utility.yul\":237:253   */\n          add\n            /* \"#utility.yul\":286:289   */\n          dup5\n            /* \"#utility.yul\":277:283   */\n          dup5\n            /* \"#utility.yul\":272:275   */\n          dup5\n            /* \"#utility.yul\":268:284   */\n          add\n            /* \"#utility.yul\":265:290   */\n          gt\n            /* \"#utility.yul\":262:374   */\n          iszero\n          tag_30\n          jumpi\n            /* \"#utility.yul\":293:372   */\n          tag_31\n          tag_32\n          jump\t// in\n        tag_31:\n            /* \"#utility.yul\":262:374   */\n        tag_30:\n            /* \"#utility.yul\":383:422   */\n          tag_33\n            /* \"#utility.yul\":415:421   */\n          dup5\n            /* \"#utility.yul\":410:413   */\n          dup3\n            /* \"#utility.yul\":405:408   */\n          dup6\n            /* \"#utility.yul\":383:422   */\n          tag_34\n          jump\t// in\n        tag_33:\n            /* \"#utility.yul\":102:428   */\n          pop\n            /* \"#utility.yul\":7:428   */\n          swap4\n          swap3\n          pop\n          pop\n          pop\n          jump\t// out\n            /* \"#utility.yul\":434:577   */\n        tag_35:\n            /* \"#utility.yul\":491:496   */\n          0x00\n            /* \"#utility.yul\":522:528   */\n          dup2\n            /* \"#utility.yul\":516:529   */\n          mload\n            /* \"#utility.yul\":507:529   */\n          swap1\n          pop\n            /* \"#utility.yul\":538:571   */\n          tag_37\n            /* \"#utility.yul\":565:570   */\n          dup2\n            /* \"#utility.yul\":538:571   */\n          tag_38\n          jump\t// in\n        tag_37:\n            /* \"#utility.yul\":434:577   */\n          swap3\n          swap2\n          pop\n          pop\n          jump\t// out\n            /* \"#utility.yul\":597:952   */\n        tag_39:\n            /* \"#utility.yul\":664:669   */\n          0x00\n            /* \"#utility.yul\":713:716   */\n          dup3\n            /* \"#utility.yul\":706:710   */\n          0x1f\n            /* \"#utility.yul\":698:704   */\n          dup4\n            /* \"#utility.yul\":694:711   */\n          add\n            /* \"#utility.yul\":690:717   */\n          slt\n            /* \"#utility.yul\":680:802   */\n          tag_41\n          jumpi\n            /* \"#utility.yul\":721:800   */\n          tag_42\n          tag_43\n          jump\t// in\n        tag_42:\n            /* \"#utility.yul\":680:802   */\n        tag_41:\n            /* \"#utility.yul\":831:837   */\n          dup2\n            /* \"#utility.yul\":825:838   */\n          mload\n            /* \"#utility.yul\":856:946   */\n          tag_44\n            /* \"#utility.yul\":942:945   */\n          dup5\n            /* \"#utility.yul\":934:940   */\n          dup3\n            /* \"#utility.yul\":927:931   */\n          0x20\n            /* \"#utility.yul\":919:925   */\n          dup7\n            /* \"#utility.yul\":915:932   */\n          add\n            /* \"#utility.yul\":856:946   */\n          tag_24\n          jump\t// in\n        tag_44:\n            /* \"#utility.yul\":847:946   */\n          swap2\n          pop\n            /* \"#utility.yul\":670:952   */\n          pop\n            /* \"#utility.yul\":597:952   */\n          swap3\n          swap2\n          pop\n          pop\n          jump\t// out\n            /* \"#utility.yul\":958:1101   */\n        tag_45:\n            /* \"#utility.yul\":1015:1020   */\n          0x00\n            /* \"#utility.yul\":1046:1052   */\n          dup2\n            /* \"#utility.yul\":1040:1053   */\n          mload\n            /* \"#utility.yul\":1031:1053   */\n          swap1\n          pop\n            /* \"#utility.yul\":1062:1095   */\n          tag_47\n            /* \"#utility.yul\":1089:1094   */\n          dup2\n            /* \"#utility.yul\":1062:1095   */\n          tag_48\n          jump\t// in\n        tag_47:\n            /* \"#utility.yul\":958:1101   */\n          swap3\n          swap2\n          pop\n          pop\n          jump\t// out\n            /* \"#utility.yul\":1107:2430   */\n        tag_3:\n            /* \"#utility.yul\":1233:1239   */\n          0x00\n            /* \"#utility.yul\":1241:1247   */\n          dup1\n            /* \"#utility.yul\":1249:1255   */\n          0x00\n            /* \"#utility.yul\":1257:1263   */\n          dup1\n            /* \"#utility.yul\":1265:1271   */\n          0x00\n            /* \"#utility.yul\":1314:1317   */\n          0xa0\n            /* \"#utility.yul\":1302:1311   */\n          dup7\n            /* \"#utility.yul\":1293:1300   */\n          dup9\n            /* \"#utility.yul\":1289:1312   */\n          sub\n            /* \"#utility.yul\":1285:1318   */\n          slt\n            /* \"#utility.yul\":1282:1402   */\n          iszero\n          tag_50\n          jumpi\n            /* \"#utility.yul\":1321:1400   */\n          tag_51\n          tag_52\n          jump\t// in\n        tag_51:\n            /* \"#utility.yul\":1282:1402   */\n        tag_50:\n            /* \"#utility.yul\":1441:1442   */\n          0x00\n            /* \"#utility.yul\":1466:1530   */\n          tag_53\n            /* \"#utility.yul\":1522:1529   */\n          dup9\n            /* \"#utility.yul\":1513:1519   */\n          dup3\n            /* \"#utility.yul\":1502:1511   */\n          dup10\n            /* \"#utility.yul\":1498:1520   */\n          add\n            /* \"#utility.yul\":1466:1530   */\n          tag_45\n          jump\t// in\n        tag_53:\n            /* \"#utility.yul\":1456:1530   */\n          swap6\n          pop\n            /* \"#utility.yul\":1412:1540   */\n          pop\n            /* \"#utility.yul\":1579:1581   */\n          0x20\n            /* \"#utility.yul\":1605:1669   */\n          tag_54\n            /* \"#utility.yul\":1661:1668   */\n          dup9\n            /* \"#utility.yul\":1652:1658   */\n          dup3\n            /* \"#utility.yul\":1641:1650   */\n          dup10\n            /* \"#utility.yul\":1637:1659   */\n          add\n            /* \"#utility.yul\":1605:1669   */\n          tag_35\n          jump\t// in\n        tag_54:\n            /* \"#utility.yul\":1595:1669   */\n          swap5\n          pop\n            /* \"#utility.yul\":1550:1679   */\n          pop\n            /* \"#utility.yul\":1739:1741   */\n          0x40\n            /* \"#utility.yul\":1728:1737   */\n          dup7\n            /* \"#utility.yul\":1724:1742   */\n          add\n            /* \"#utility.yul\":1718:1743   */\n          mload\n            /* \"#utility.yul\":1770:1788   */\n          0xffffffffffffffff\n            /* \"#utility.yul\":1762:1768   */\n          dup2\n            /* \"#utility.yul\":1759:1789   */\n          gt\n            /* \"#utility.yul\":1756:1873   */\n          iszero\n          tag_55\n          jumpi\n            /* \"#utility.yul\":1792:1871   */\n          tag_56\n          tag_57\n          jump\t// in\n        tag_56:\n            /* \"#utility.yul\":1756:1873   */\n        tag_55:\n            /* \"#utility.yul\":1897:1971   */\n          tag_58\n            /* \"#utility.yul\":1963:1970   */\n          dup9\n            /* \"#utility.yul\":1954:1960   */\n          dup3\n            /* \"#utility.yul\":1943:1952   */\n          dup10\n            /* \"#utility.yul\":1939:1961   */\n          add\n            /* \"#utility.yul\":1897:1971   */\n          tag_39\n          jump\t// in\n        tag_58:\n            /* \"#utility.yul\":1887:1971   */\n          swap4\n          pop\n            /* \"#utility.yul\":1689:1981   */\n          pop\n            /* \"#utility.yul\":2041:2043   */\n          0x60\n            /* \"#utility.yul\":2030:2039   */\n          dup7\n            /* \"#utility.yul\":2026:2044   */\n          add\n            /* \"#utility.yul\":2020:2045   */\n          mload\n            /* \"#utility.yul\":2072:2090   */\n          0xffffffffffffffff\n            /* \"#utility.yul\":2064:2070   */\n          dup2\n            /* \"#utility.yul\":2061:2091   */\n          gt\n            /* \"#utility.yul\":2058:2175   */\n          iszero\n          tag_59\n          jumpi\n            /* \"#utility.yul\":2094:2173   */\n          tag_60\n          tag_57\n          jump\t// in\n        tag_60:\n            /* \"#utility.yul\":2058:2175   */\n        tag_59:\n            /* \"#utility.yul\":2199:2273   */\n          tag_61\n            /* \"#utility.yul\":2265:2272   */\n          dup9\n            /* \"#utility.yul\":2256:2262   */\n          dup3\n            /* \"#utility.yul\":2245:2254   */\n          dup10\n            /* \"#utility.yul\":2241:2263   */\n          add\n            /* \"#utility.yul\":2199:2273   */\n          tag_39\n          jump\t// in\n        tag_61:\n            /* \"#utility.yul\":2189:2273   */\n          swap3\n          pop\n            /* \"#utility.yul\":1991:2283   */\n          pop\n            /* \"#utility.yul\":2322:2325   */\n          0x80\n            /* \"#utility.yul\":2349:2413   */\n          tag_62\n            /* \"#utility.yul\":2405:2412   */\n          dup9\n            /* \"#utility.yul\":2396:2402   */\n          dup3\n            /* \"#utility.yul\":2385:2394   */\n          dup10\n            /* \"#utility.yul\":2381:2403   */\n          add\n            /* \"#utility.yul\":2349:2413   */\n          tag_45\n          jump\t// in\n        tag_62:\n            /* \"#utility.yul\":2339:2413   */\n          swap2\n          pop\n            /* \"#utility.yul\":2293:2423   */\n          pop\n            /* \"#utility.yul\":1107:2430   */\n          swap3\n          swap6\n          pop\n          swap3\n          swap6\n          swap1\n          swap4\n          pop\n          jump\t// out\n            /* \"#utility.yul\":2436:2565   */\n        tag_29:\n            /* \"#utility.yul\":2470:2476   */\n          0x00\n            /* \"#utility.yul\":2497:2517   */\n          tag_64\n          tag_65\n          jump\t// in\n        tag_64:\n            /* \"#utility.yul\":2487:2517   */\n          swap1\n          pop\n            /* \"#utility.yul\":2526:2559   */\n          tag_66\n            /* \"#utility.yul\":2554:2558   */\n          dup3\n            /* \"#utility.yul\":2546:2552   */\n          dup3\n            /* \"#utility.yul\":2526:2559   */\n          tag_67\n          jump\t// in\n        tag_66:\n            /* \"#utility.yul\":2436:2565   */\n          swap2\n          swap1\n          pop\n          jump\t// out\n            /* \"#utility.yul\":2571:2646   */\n        tag_65:\n            /* \"#utility.yul\":2604:2610   */\n          0x00\n            /* \"#utility.yul\":2637:2639   */\n          0x40\n            /* \"#utility.yul\":2631:2640   */\n          mload\n            /* \"#utility.yul\":2621:2640   */\n          swap1\n          pop\n            /* \"#utility.yul\":2571:2646   */\n          swap1\n          jump\t// out\n            /* \"#utility.yul\":2652:2960   */\n        tag_28:\n            /* \"#utility.yul\":2714:2718   */\n          0x00\n            /* \"#utility.yul\":2804:2822   */\n          0xffffffffffffffff\n            /* \"#utility.yul\":2796:2802   */\n          dup3\n            /* \"#utility.yul\":2793:2823   */\n          gt\n            /* \"#utility.yul\":2790:2846   */\n          iszero\n          tag_70\n          jumpi\n            /* \"#utility.yul\":2826:2844   */\n          tag_71\n          tag_72\n          jump\t// in\n        tag_71:\n            /* \"#utility.yul\":2790:2846   */\n        tag_70:\n            /* \"#utility.yul\":2864:2893   */\n          tag_73\n            /* \"#utility.yul\":2886:2892   */\n          dup3\n            /* \"#utility.yul\":2864:2893   */\n          tag_74\n          jump\t// in\n        tag_73:\n            /* \"#utility.yul\":2856:2893   */\n          swap1\n          pop\n            /* \"#utility.yul\":2948:2952   */\n          0x20\n            /* \"#utility.yul\":2942:2946   */\n          dup2\n            /* \"#utility.yul\":2938:2953   */\n          add\n            /* \"#utility.yul\":2930:2953   */\n          swap1\n          pop\n            /* \"#utility.yul\":2652:2960   */\n          swap2\n          swap1\n          pop\n          jump\t// out\n            /* \"#utility.yul\":2966:3062   */\n        tag_75:\n            /* \"#utility.yul\":3003:3010   */\n          0x00\n            /* \"#utility.yul\":3032:3056   */\n          tag_77\n            /* \"#utility.yul\":3050:3055   */\n          dup3\n            /* \"#utility.yul\":3032:3056   */\n          tag_78\n          jump\t// in\n        tag_77:\n            /* \"#utility.yul\":3021:3056   */\n          swap1\n          pop\n            /* \"#utility.yul\":2966:3062   */\n          swap2\n          swap1\n          pop\n          jump\t// out\n            /* \"#utility.yul\":3068:3194   */\n        tag_78:\n            /* \"#utility.yul\":3105:3112   */\n          0x00\n            /* \"#utility.yul\":3145:3187   */\n          0xffffffffffffffffffffffffffffffffffffffff\n            /* \"#utility.yul\":3138:3143   */\n          dup3\n            /* \"#utility.yul\":3134:3188   */\n          and\n            /* \"#utility.yul\":3123:3188   */\n          swap1\n          pop\n            /* \"#utility.yul\":3068:3194   */\n          swap2\n          swap1\n          pop\n          jump\t// out\n            /* \"#utility.yul\":3200:3277   */\n        tag_80:\n            /* \"#utility.yul\":3237:3244   */\n          0x00\n            /* \"#utility.yul\":3266:3271   */\n          dup2\n            /* \"#utility.yul\":3255:3271   */\n          swap1\n          pop\n            /* \"#utility.yul\":3200:3277   */\n          swap2\n          swap1\n          pop\n          jump\t// out\n            /* \"#utility.yul\":3283:3590   */\n        tag_34:\n            /* \"#utility.yul\":3351:3352   */\n          0x00\n            /* \"#utility.yul\":3361:3474   */\n        tag_83:\n            /* \"#utility.yul\":3375:3381   */\n          dup4\n            /* \"#utility.yul\":3372:3373   */\n          dup2\n            /* \"#utility.yul\":3369:3382   */\n          lt\n            /* \"#utility.yul\":3361:3474   */\n          iszero\n          tag_85\n          jumpi\n            /* \"#utility.yul\":3460:3461   */\n          dup1\n            /* \"#utility.yul\":3455:3458   */\n          dup3\n            /* \"#utility.yul\":3451:3462   */\n          add\n            /* \"#utility.yul\":3445:3463   */\n          mload\n            /* \"#utility.yul\":3441:3442   */\n          dup2\n            /* \"#utility.yul\":3436:3439   */\n          dup5\n            /* \"#utility.yul\":3432:3443   */\n          add\n            /* \"#utility.yul\":3425:3464   */\n          mstore\n            /* \"#utility.yul\":3397:3399   */\n          0x20\n            /* \"#utility.yul\":3394:3395   */\n          dup2\n            /* \"#utility.yul\":3390:3400   */\n          add\n            /* \"#utility.yul\":3385:3400   */\n          swap1\n          pop\n            /* \"#utility.yul\":3361:3474   */\n          jump(tag_83)\n        tag_85:\n            /* \"#utility.yul\":3492:3498   */\n          dup4\n            /* \"#utility.yul\":3489:3490   */\n          dup2\n            /* \"#utility.yul\":3486:3499   */\n          gt\n            /* \"#utility.yul\":3483:3584   */\n          iszero\n          tag_86\n          jumpi\n            /* \"#utility.yul\":3572:3573   */\n          0x00\n            /* \"#utility.yul\":3563:3569   */\n          dup5\n            /* \"#utility.yul\":3558:3561   */\n          dup5\n            /* \"#utility.yul\":3554:3570   */\n          add\n            /* \"#utility.yul\":3547:3574   */\n          mstore\n            /* \"#utility.yul\":3483:3584   */\n        tag_86:\n            /* \"#utility.yul\":3332:3590   */\n          pop\n            /* \"#utility.yul\":3283:3590   */\n          pop\n          pop\n          pop\n          jump\t// out\n            /* \"#utility.yul\":3596:3916   */\n        tag_13:\n            /* \"#utility.yul\":3640:3646   */\n          0x00\n            /* \"#utility.yul\":3677:3678   */\n          0x02\n            /* \"#utility.yul\":3671:3675   */\n          dup3\n            /* \"#utility.yul\":3667:3679   */\n          div\n            /* \"#utility.yul\":3657:3679   */\n          swap1\n          pop\n            /* \"#utility.yul\":3724:3725   */\n          0x01\n            /* \"#utility.yul\":3718:3722   */\n          dup3\n            /* \"#utility.yul\":3714:3726   */\n          and\n            /* \"#utility.yul\":3745:3763   */\n          dup1\n            /* \"#utility.yul\":3735:3816   */\n          tag_88\n          jumpi\n            /* \"#utility.yul\":3801:3805   */\n          0x7f\n            /* \"#utility.yul\":3793:3799   */\n          dup3\n            /* \"#utility.yul\":3789:3806   */\n          and\n            /* \"#utility.yul\":3779:3806   */\n          swap2\n          pop\n            /* \"#utility.yul\":3735:3816   */\n        tag_88:\n            /* \"#utility.yul\":3863:3865   */\n          0x20\n            /* \"#utility.yul\":3855:3861   */\n          dup3\n            /* \"#utility.yul\":3852:3866   */\n          lt\n            /* \"#utility.yul\":3832:3850   */\n          dup2\n            /* \"#utility.yul\":3829:3867   */\n          eq\n            /* \"#utility.yul\":3826:3910   */\n          iszero\n          tag_89\n          jumpi\n            /* \"#utility.yul\":3882:3900   */\n          tag_90\n          tag_91\n          jump\t// in\n        tag_90:\n            /* \"#utility.yul\":3826:3910   */\n        tag_89:\n            /* \"#utility.yul\":3647:3916   */\n          pop\n            /* \"#utility.yul\":3596:3916   */\n          swap2\n          swap1\n          pop\n          jump\t// out\n            /* \"#utility.yul\":3922:4203   */\n        tag_67:\n            /* \"#utility.yul\":4005:4032   */\n          tag_93\n            /* \"#utility.yul\":4027:4031   */\n          dup3\n            /* \"#utility.yul\":4005:4032   */\n          tag_74\n          jump\t// in\n        tag_93:\n            /* \"#utility.yul\":3997:4003   */\n          dup2\n            /* \"#utility.yul\":3993:4033   */\n          add\n            /* \"#utility.yul\":4135:4141   */\n          dup2\n            /* \"#utility.yul\":4123:4133   */\n          dup2\n            /* \"#utility.yul\":4120:4142   */\n          lt\n            /* \"#utility.yul\":4099:4117   */\n          0xffffffffffffffff\n            /* \"#utility.yul\":4087:4097   */\n          dup3\n            /* \"#utility.yul\":4084:4118   */\n          gt\n            /* \"#utility.yul\":4081:4143   */\n          or\n            /* \"#utility.yul\":4078:4166   */\n          iszero\n          tag_94\n          jumpi\n            /* \"#utility.yul\":4146:4164   */\n          tag_95\n          tag_72\n          jump\t// in\n        tag_95:\n            /* \"#utility.yul\":4078:4166   */\n        tag_94:\n            /* \"#utility.yul\":4186:4196   */\n          dup1\n            /* \"#utility.yul\":4182:4184   */\n          0x40\n            /* \"#utility.yul\":4175:4197   */\n          mstore\n            /* \"#utility.yul\":3965:4203   */\n          pop\n            /* \"#utility.yul\":3922:4203   */\n          pop\n          pop\n          jump\t// out\n            /* \"#utility.yul\":4209:4389   */\n        tag_91:\n            /* \"#utility.yul\":4257:4334   */\n          0x4e487b7100000000000000000000000000000000000000000000000000000000\n            /* \"#utility.yul\":4254:4255   */\n          0x00\n            /* \"#utility.yul\":4247:4335   */\n          mstore\n            /* \"#utility.yul\":4354:4358   */\n          0x22\n            /* \"#utility.yul\":4351:4352   */\n          0x04\n            /* \"#utility.yul\":4344:4359   */\n          mstore\n            /* \"#utility.yul\":4378:4382   */\n          0x24\n            /* \"#utility.yul\":4375:4376   */\n          0x00\n            /* \"#utility.yul\":4368:4383   */\n          revert\n            /* \"#utility.yul\":4395:4575   */\n        tag_72:\n            /* \"#utility.yul\":4443:4520   */\n          0x4e487b7100000000000000000000000000000000000000000000000000000000\n            /* \"#utility.yul\":4440:4441   */\n          0x00\n            /* \"#utility.yul\":4433:4521   */\n          mstore\n            /* \"#utility.yul\":4540:4544   */\n          0x41\n            /* \"#utility.yul\":4537:4538   */\n          0x04\n            /* \"#utility.yul\":4530:4545   */\n          mstore\n            /* \"#utility.yul\":4564:4568   */\n          0x24\n            /* \"#utility.yul\":4561:4562   */\n          0x00\n            /* \"#utility.yul\":4554:4569   */\n          revert\n            /* \"#utility.yul\":4581:4698   */\n        tag_43:\n            /* \"#utility.yul\":4690:4691   */\n          0x00\n            /* \"#utility.yul\":4687:4688   */\n          dup1\n            /* \"#utility.yul\":4680:4692   */\n          revert\n            /* \"#utility.yul\":4704:4821   */\n        tag_32:\n            /* \"#utility.yul\":4813:4814   */\n          0x00\n            /* \"#utility.yul\":4810:4811   */\n          dup1\n            /* \"#utility.yul\":4803:4815   */\n          revert\n            /* \"#utility.yul\":4827:4944   */\n        tag_57:\n            /* \"#utility.yul\":4936:4937   */\n          0x00\n            /* \"#utility.yul\":4933:4934   */\n          dup1\n            /* \"#utility.yul\":4926:4938   */\n          revert\n            /* \"#utility.yul\":4950:5067   */\n        tag_52:\n            /* \"#utility.yul\":5059:5060   */\n          0x00\n            /* \"#utility.yul\":5056:5057   */\n          dup1\n            /* \"#utility.yul\":5049:5061   */\n          revert\n            /* \"#utility.yul\":5073:5175   */\n        tag_74:\n            /* \"#utility.yul\":5114:5120   */\n          0x00\n            /* \"#utility.yul\":5165:5167   */\n          0x1f\n            /* \"#utility.yul\":5161:5168   */\n          not\n            /* \"#utility.yul\":5156:5158   */\n          0x1f\n            /* \"#utility.yul\":5149:5154   */\n          dup4\n            /* \"#utility.yul\":5145:5159   */\n          add\n            /* \"#utility.yul\":5141:5169   */\n          and\n            /* \"#utility.yul\":5131:5169   */\n          swap1\n          pop\n            /* \"#utility.yul\":5073:5175   */\n          swap2\n          swap1\n          pop\n          jump\t// out\n            /* \"#utility.yul\":5181:5303   */\n        tag_38:\n            /* \"#utility.yul\":5254:5278   */\n          tag_104\n            /* \"#utility.yul\":5272:5277   */\n          dup2\n            /* \"#utility.yul\":5254:5278   */\n          tag_75\n          jump\t// in\n        tag_104:\n            /* \"#utility.yul\":5247:5252   */\n          dup2\n            /* \"#utility.yul\":5244:5279   */\n          eq\n            /* \"#utility.yul\":5234:5297   */\n          tag_105\n          jumpi\n            /* \"#utility.yul\":5293:5294   */\n          0x00\n            /* \"#utility.yul\":5290:5291   */\n          dup1\n            /* \"#utility.yul\":5283:5295   */\n          revert\n            /* \"#utility.yul\":5234:5297   */\n        tag_105:\n            /* \"#utility.yul\":5181:5303   */\n          pop\n          jump\t// out\n            /* \"#utility.yul\":5309:5431   */\n        tag_48:\n            /* \"#utility.yul\":5382:5406   */\n          tag_107\n            /* \"#utility.yul\":5400:5405   */\n          dup2\n            /* \"#utility.yul\":5382:5406   */\n          tag_80\n          jump\t// in\n        tag_107:\n            /* \"#utility.yul\":5375:5380   */\n          dup2\n            /* \"#utility.yul\":5372:5407   */\n          eq\n            /* \"#utility.yul\":5362:5425   */\n          tag_108\n          jumpi\n            /* \"#utility.yul\":5421:5422   */\n          0x00\n            /* \"#utility.yul\":5418:5419   */\n          dup1\n            /* \"#utility.yul\":5411:5423   */\n          revert\n            /* \"#utility.yul\":5362:5425   */\n        tag_108:\n            /* \"#utility.yul\":5309:5431   */\n          pop\n          jump\t// out\n            /* \"challenges/Consorcio/Employee.sol\":84:511  contract Employee is User {\r... */\n        tag_11:\n          dataSize(sub_0)\n          dup1\n          dataOffset(sub_0)\n          0x00\n          codecopy\n          0x00\n          return\n        stop\n\n        sub_0: assembly {\n                /* \"challenges/Consorcio/Employee.sol\":84:511  contract Employee is User {\r... */\n              mstore(0x40, 0x80)\n              jumpi(tag_1, lt(calldatasize, 0x04))\n              shr(0xe0, calldataload(0x00))\n              dup1\n              0x38cc4831\n              eq\n              tag_3\n              jumpi\n              dup1\n              0x835fc6ca\n              eq\n              tag_4\n              jumpi\n              dup1\n              0xaf640d0f\n              eq\n              tag_5\n              jumpi\n              dup1\n              0xf2bcd022\n              eq\n              tag_6\n              jumpi\n              jump(tag_2)\n            tag_1:\n              jumpi(tag_2, calldatasize)\n                /* \"challenges/Consorcio/User.sol\":329:391  EtherReceived(msg.value, address(this), address(this).balance) */\n              0x2d27851832fcac28a0d4af1344f01fed7ffcfd15171c14c564a0c42aa57ae5c0\n                /* \"challenges/Consorcio/User.sol\":343:352  msg.value */\n              callvalue\n                /* \"challenges/Consorcio/User.sol\":362:366  this */\n              address\n                /* \"challenges/Consorcio/User.sol\":369:390  address(this).balance */\n              selfbalance\n                /* \"challenges/Consorcio/User.sol\":329:391  EtherReceived(msg.value, address(this), address(this).balance) */\n              mload(0x40)\n              tag_9\n              swap4\n              swap3\n              swap2\n              swap1\n              tag_10\n              jump\t// in\n            tag_9:\n              mload(0x40)\n              dup1\n              swap2\n              sub\n              swap1\n              log1\n                /* \"challenges/Consorcio/Employee.sol\":84:511  contract Employee is User {\r... */\n              stop\n            tag_2:\n                /* \"challenges/Consorcio/User.sol\":449:511  EtherReceived(msg.value, address(this), address(this).balance) */\n              0x2d27851832fcac28a0d4af1344f01fed7ffcfd15171c14c564a0c42aa57ae5c0\n                /* \"challenges/Consorcio/User.sol\":463:472  msg.value */\n              callvalue\n                /* \"challenges/Consorcio/User.sol\":482:486  this */\n              address\n                /* \"challenges/Consorcio/User.sol\":489:510  address(this).balance */\n              selfbalance\n                /* \"challenges/Consorcio/User.sol\":449:511  EtherReceived(msg.value, address(this), address(this).balance) */\n              mload(0x40)\n              tag_13\n              swap4\n              swap3\n              swap2\n              swap1\n              tag_10\n              jump\t// in\n            tag_13:\n              mload(0x40)\n              dup1\n              swap2\n              sub\n              swap1\n              log1\n                /* \"challenges/Consorcio/Employee.sol\":84:511  contract Employee is User {\r... */\n              stop\n                /* \"challenges/Consorcio/User.sol\":1051:1142  function getAddress() public view returns (address) {\r... */\n            tag_3:\n              callvalue\n              dup1\n              iszero\n              tag_14\n              jumpi\n              0x00\n              dup1\n              revert\n            tag_14:\n              pop\n              tag_15\n              tag_16\n              jump\t// in\n            tag_15:\n              mload(0x40)\n              tag_17\n              swap2\n              swap1\n              tag_18\n              jump\t// in\n            tag_17:\n              mload(0x40)\n              dup1\n              swap2\n              sub\n              swap1\n              return\n                /* \"challenges/Consorcio/User.sol\":649:1043  function withdrawal(uint _amount) public {\r... */\n            tag_4:\n              callvalue\n              dup1\n              iszero\n              tag_19\n              jumpi\n              0x00\n              dup1\n              revert\n            tag_19:\n              pop\n              tag_20\n              0x04\n              dup1\n              calldatasize\n              sub\n              dup2\n              add\n              swap1\n              tag_21\n              swap2\n              swap1\n              tag_22\n              jump\t// in\n            tag_21:\n              tag_23\n              jump\t// in\n            tag_20:\n              stop\n                /* \"challenges/Consorcio/User.sol\":92:106  uint public id */\n            tag_5:\n              callvalue\n              dup1\n              iszero\n              tag_24\n              jumpi\n              0x00\n              dup1\n              revert\n            tag_24:\n              pop\n              tag_25\n              tag_26\n              jump\t// in\n            tag_25:\n              mload(0x40)\n              tag_27\n              swap2\n              swap1\n              tag_28\n              jump\t// in\n            tag_27:\n              mload(0x40)\n              dup1\n              swap2\n              sub\n              swap1\n              return\n                /* \"challenges/Consorcio/User.sol\":113:145  address public withdrawalAddress */\n            tag_6:\n              callvalue\n              dup1\n              iszero\n              tag_29\n              jumpi\n              0x00\n              dup1\n              revert\n            tag_29:\n              pop\n              tag_30\n              tag_31\n              jump\t// in\n            tag_30:\n              mload(0x40)\n              tag_32\n              swap2\n              swap1\n              tag_18\n              jump\t// in\n            tag_32:\n              mload(0x40)\n              dup1\n              swap2\n              sub\n              swap1\n              return\n                /* \"challenges/Consorcio/User.sol\":1051:1142  function getAddress() public view returns (address) {\r... */\n            tag_16:\n                /* \"challenges/Consorcio/User.sol\":1094:1101  address */\n              0x00\n                /* \"challenges/Consorcio/User.sol\":1129:1133  this */\n              address\n                /* \"challenges/Consorcio/User.sol\":1114:1134  return address(this) */\n              swap1\n              pop\n                /* \"challenges/Consorcio/User.sol\":1051:1142  function getAddress() public view returns (address) {\r... */\n              swap1\n              jump\t// out\n                /* \"challenges/Consorcio/User.sol\":649:1043  function withdrawal(uint _amount) public {\r... */\n            tag_23:\n                /* \"challenges/Consorcio/User.sol\":748:755  _amount */\n              dup1\n                /* \"challenges/Consorcio/User.sol\":723:744  address(this).balance */\n              selfbalance\n                /* \"challenges/Consorcio/User.sol\":723:755  address(this).balance >= _amount */\n              lt\n              iszero\n                /* \"challenges/Consorcio/User.sol\":701:807  require(\r... */\n              tag_35\n              jumpi\n              mload(0x40)\n              0x08c379a000000000000000000000000000000000000000000000000000000000\n              dup2\n              mstore\n              0x04\n              add\n              tag_36\n              swap1\n              tag_37\n              jump\t// in\n            tag_36:\n              mload(0x40)\n              dup1\n              swap2\n              sub\n              swap1\n              revert\n            tag_35:\n                /* \"challenges/Consorcio/User.sol\":829:841  bool success */\n              0x00\n                /* \"challenges/Consorcio/User.sol\":846:863  withdrawalAddress */\n              0x01\n              0x00\n              swap1\n              sload\n              swap1\n              0x0100\n              exp\n              swap1\n              div\n              0xffffffffffffffffffffffffffffffffffffffff\n              and\n                /* \"challenges/Consorcio/User.sol\":846:868  withdrawalAddress.call */\n              0xffffffffffffffffffffffffffffffffffffffff\n              and\n                /* \"challenges/Consorcio/User.sol\":876:883  _amount */\n              dup3\n                /* \"challenges/Consorcio/User.sol\":846:888  withdrawalAddress.call{value: _amount}(\"\") */\n              mload(0x40)\n              tag_38\n              swap1\n              tag_39\n              jump\t// in\n            tag_38:\n              0x00\n              mload(0x40)\n              dup1\n              dup4\n              sub\n              dup2\n              dup6\n              dup8\n              gas\n              call\n              swap3\n              pop\n              pop\n              pop\n              returndatasize\n              dup1\n              0x00\n              dup2\n              eq\n              tag_42\n              jumpi\n              mload(0x40)\n              swap2\n              pop\n              and(add(returndatasize, 0x3f), not(0x1f))\n              dup3\n              add\n              0x40\n              mstore\n              returndatasize\n              dup3\n              mstore\n              returndatasize\n              0x00\n              0x20\n              dup5\n              add\n              returndatacopy\n              jump(tag_41)\n            tag_42:\n              0x60\n              swap2\n              pop\n            tag_41:\n              pop\n                /* \"challenges/Consorcio/User.sol\":828:888  (bool success,) = withdrawalAddress.call{value: _amount}(\"\") */\n              pop\n              swap1\n              pop\n                /* \"challenges/Consorcio/User.sol\":920:924  true */\n              0x01\n                /* \"challenges/Consorcio/User.sol\":909:924  success == true */\n              iszero\n              iszero\n                /* \"challenges/Consorcio/User.sol\":909:916  success */\n              dup2\n                /* \"challenges/Consorcio/User.sol\":909:924  success == true */\n              iszero\n              iszero\n              eq\n                /* \"challenges/Consorcio/User.sol\":901:974  require(success == true, \"Withdrawal failed. Try again in some minutes.\") */\n              tag_43\n              jumpi\n              mload(0x40)\n              0x08c379a000000000000000000000000000000000000000000000000000000000\n              dup2\n              mstore\n              0x04\n              add\n              tag_44\n              swap1\n              tag_45\n              jump\t// in\n            tag_44:\n              mload(0x40)\n              dup1\n              swap2\n              sub\n              swap1\n              revert\n            tag_43:\n                /* \"challenges/Consorcio/User.sol\":992:1035  WithdrawalSuccessful(address(this).balance) */\n              0x794032702377d1e7eb93381e2467d569394569207a770af85b3222a361126c91\n                /* \"challenges/Consorcio/User.sol\":1013:1034  address(this).balance */\n              selfbalance\n                /* \"challenges/Consorcio/User.sol\":992:1035  WithdrawalSuccessful(address(this).balance) */\n              mload(0x40)\n              tag_46\n              swap2\n              swap1\n              tag_28\n              jump\t// in\n            tag_46:\n              mload(0x40)\n              dup1\n              swap2\n              sub\n              swap1\n              log1\n                /* \"challenges/Consorcio/User.sol\":690:1043  {\r... */\n              pop\n                /* \"challenges/Consorcio/User.sol\":649:1043  function withdrawal(uint _amount) public {\r... */\n              pop\n              jump\t// out\n                /* \"challenges/Consorcio/User.sol\":92:106  uint public id */\n            tag_26:\n              sload(0x00)\n              dup2\n              jump\t// out\n                /* \"challenges/Consorcio/User.sol\":113:145  address public withdrawalAddress */\n            tag_31:\n              0x01\n              0x00\n              swap1\n              sload\n              swap1\n              0x0100\n              exp\n              swap1\n              div\n              0xffffffffffffffffffffffffffffffffffffffff\n              and\n              dup2\n              jump\t// out\n                /* \"#utility.yul\":7:146   */\n            tag_48:\n                /* \"#utility.yul\":53:58   */\n              0x00\n                /* \"#utility.yul\":91:97   */\n              dup2\n                /* \"#utility.yul\":78:98   */\n              calldataload\n                /* \"#utility.yul\":69:98   */\n              swap1\n              pop\n                /* \"#utility.yul\":107:140   */\n              tag_50\n                /* \"#utility.yul\":134:139   */\n              dup2\n                /* \"#utility.yul\":107:140   */\n              tag_51\n              jump\t// in\n            tag_50:\n                /* \"#utility.yul\":7:146   */\n              swap3\n              swap2\n              pop\n              pop\n              jump\t// out\n                /* \"#utility.yul\":152:481   */\n            tag_22:\n                /* \"#utility.yul\":211:217   */\n              0x00\n                /* \"#utility.yul\":260:262   */\n              0x20\n                /* \"#utility.yul\":248:257   */\n              dup3\n                /* \"#utility.yul\":239:246   */\n              dup5\n                /* \"#utility.yul\":235:258   */\n              sub\n                /* \"#utility.yul\":231:263   */\n              slt\n                /* \"#utility.yul\":228:347   */\n              iszero\n              tag_53\n              jumpi\n                /* \"#utility.yul\":266:345   */\n              tag_54\n              tag_55\n              jump\t// in\n            tag_54:\n                /* \"#utility.yul\":228:347   */\n            tag_53:\n                /* \"#utility.yul\":386:387   */\n              0x00\n                /* \"#utility.yul\":411:464   */\n              tag_56\n                /* \"#utility.yul\":456:463   */\n              dup5\n                /* \"#utility.yul\":447:453   */\n              dup3\n                /* \"#utility.yul\":436:445   */\n              dup6\n                /* \"#utility.yul\":432:454   */\n              add\n                /* \"#utility.yul\":411:464   */\n              tag_48\n              jump\t// in\n            tag_56:\n                /* \"#utility.yul\":401:464   */\n              swap2\n              pop\n                /* \"#utility.yul\":357:474   */\n              pop\n                /* \"#utility.yul\":152:481   */\n              swap3\n              swap2\n              pop\n              pop\n              jump\t// out\n                /* \"#utility.yul\":487:605   */\n            tag_57:\n                /* \"#utility.yul\":574:598   */\n              tag_59\n                /* \"#utility.yul\":592:597   */\n              dup2\n                /* \"#utility.yul\":574:598   */\n              tag_60\n              jump\t// in\n            tag_59:\n                /* \"#utility.yul\":569:572   */\n              dup3\n                /* \"#utility.yul\":562:599   */\n              mstore\n                /* \"#utility.yul\":487:605   */\n              pop\n              pop\n              jump\t// out\n                /* \"#utility.yul\":611:977   */\n            tag_61:\n                /* \"#utility.yul\":753:756   */\n              0x00\n                /* \"#utility.yul\":774:841   */\n              tag_63\n                /* \"#utility.yul\":838:840   */\n              0x18\n                /* \"#utility.yul\":833:836   */\n              dup4\n                /* \"#utility.yul\":774:841   */\n              tag_64\n              jump\t// in\n            tag_63:\n                /* \"#utility.yul\":767:841   */\n              swap2\n              pop\n                /* \"#utility.yul\":850:943   */\n              tag_65\n                /* \"#utility.yul\":939:942   */\n              dup3\n                /* \"#utility.yul\":850:943   */\n              tag_66\n              jump\t// in\n            tag_65:\n                /* \"#utility.yul\":968:970   */\n              0x20\n                /* \"#utility.yul\":963:966   */\n              dup3\n                /* \"#utility.yul\":959:971   */\n              add\n                /* \"#utility.yul\":952:971   */\n              swap1\n              pop\n                /* \"#utility.yul\":611:977   */\n              swap2\n              swap1\n              pop\n              jump\t// out\n                /* \"#utility.yul\":983:1381   */\n            tag_67:\n                /* \"#utility.yul\":1142:1145   */\n              0x00\n                /* \"#utility.yul\":1163:1246   */\n              tag_69\n                /* \"#utility.yul\":1244:1245   */\n              0x00\n                /* \"#utility.yul\":1239:1242   */\n              dup4\n                /* \"#utility.yul\":1163:1246   */\n              tag_70\n              jump\t// in\n            tag_69:\n                /* \"#utility.yul\":1156:1246   */\n              swap2\n              pop\n                /* \"#utility.yul\":1255:1348   */\n              tag_71\n                /* \"#utility.yul\":1344:1347   */\n              dup3\n                /* \"#utility.yul\":1255:1348   */\n              tag_72\n              jump\t// in\n            tag_71:\n                /* \"#utility.yul\":1373:1374   */\n              0x00\n                /* \"#utility.yul\":1368:1371   */\n              dup3\n                /* \"#utility.yul\":1364:1375   */\n              add\n                /* \"#utility.yul\":1357:1375   */\n              swap1\n              pop\n                /* \"#utility.yul\":983:1381   */\n              swap2\n              swap1\n              pop\n              jump\t// out\n                /* \"#utility.yul\":1387:1753   */\n            tag_73:\n                /* \"#utility.yul\":1529:1532   */\n              0x00\n                /* \"#utility.yul\":1550:1617   */\n              tag_75\n                /* \"#utility.yul\":1614:1616   */\n              0x2d\n                /* \"#utility.yul\":1609:1612   */\n              dup4\n                /* \"#utility.yul\":1550:1617   */\n              tag_64\n              jump\t// in\n            tag_75:\n                /* \"#utility.yul\":1543:1617   */\n              swap2\n              pop\n                /* \"#utility.yul\":1626:1719   */\n              tag_76\n                /* \"#utility.yul\":1715:1718   */\n              dup3\n                /* \"#utility.yul\":1626:1719   */\n              tag_77\n              jump\t// in\n            tag_76:\n                /* \"#utility.yul\":1744:1746   */\n              0x40\n                /* \"#utility.yul\":1739:1742   */\n              dup3\n                /* \"#utility.yul\":1735:1747   */\n              add\n                /* \"#utility.yul\":1728:1747   */\n              swap1\n              pop\n                /* \"#utility.yul\":1387:1753   */\n              swap2\n              swap1\n              pop\n              jump\t// out\n                /* \"#utility.yul\":1759:1877   */\n            tag_78:\n                /* \"#utility.yul\":1846:1870   */\n              tag_80\n                /* \"#utility.yul\":1864:1869   */\n              dup2\n                /* \"#utility.yul\":1846:1870   */\n              tag_81\n              jump\t// in\n            tag_80:\n                /* \"#utility.yul\":1841:1844   */\n              dup3\n                /* \"#utility.yul\":1834:1871   */\n              mstore\n                /* \"#utility.yul\":1759:1877   */\n              pop\n              pop\n              jump\t// out\n                /* \"#utility.yul\":1883:2262   */\n            tag_39:\n                /* \"#utility.yul\":2067:2070   */\n              0x00\n                /* \"#utility.yul\":2089:2236   */\n              tag_83\n                /* \"#utility.yul\":2232:2235   */\n              dup3\n                /* \"#utility.yul\":2089:2236   */\n              tag_67\n              jump\t// in\n            tag_83:\n                /* \"#utility.yul\":2082:2236   */\n              swap2\n              pop\n                /* \"#utility.yul\":2253:2256   */\n              dup2\n                /* \"#utility.yul\":2246:2256   */\n              swap1\n              pop\n                /* \"#utility.yul\":1883:2262   */\n              swap2\n              swap1\n              pop\n              jump\t// out\n                /* \"#utility.yul\":2268:2490   */\n            tag_18:\n                /* \"#utility.yul\":2361:2365   */\n              0x00\n                /* \"#utility.yul\":2399:2401   */\n              0x20\n                /* \"#utility.yul\":2388:2397   */\n              dup3\n                /* \"#utility.yul\":2384:2402   */\n              add\n                /* \"#utility.yul\":2376:2402   */\n              swap1\n              pop\n                /* \"#utility.yul\":2412:2483   */\n              tag_85\n                /* \"#utility.yul\":2480:2481   */\n              0x00\n                /* \"#utility.yul\":2469:2478   */\n              dup4\n                /* \"#utility.yul\":2465:2482   */\n              add\n                /* \"#utility.yul\":2456:2462   */\n              dup5\n                /* \"#utility.yul\":2412:2483   */\n              tag_57\n              jump\t// in\n            tag_85:\n                /* \"#utility.yul\":2268:2490   */\n              swap3\n              swap2\n              pop\n              pop\n              jump\t// out\n                /* \"#utility.yul\":2496:2915   */\n            tag_37:\n                /* \"#utility.yul\":2662:2666   */\n              0x00\n                /* \"#utility.yul\":2700:2702   */\n              0x20\n                /* \"#utility.yul\":2689:2698   */\n              dup3\n                /* \"#utility.yul\":2685:2703   */\n              add\n                /* \"#utility.yul\":2677:2703   */\n              swap1\n              pop\n                /* \"#utility.yul\":2749:2758   */\n              dup2\n                /* \"#utility.yul\":2743:2747   */\n              dup2\n                /* \"#utility.yul\":2739:2759   */\n              sub\n                /* \"#utility.yul\":2735:2736   */\n              0x00\n                /* \"#utility.yul\":2724:2733   */\n              dup4\n                /* \"#utility.yul\":2720:2737   */\n              add\n                /* \"#utility.yul\":2713:2760   */\n              mstore\n                /* \"#utility.yul\":2777:2908   */\n              tag_87\n                /* \"#utility.yul\":2903:2907   */\n              dup2\n                /* \"#utility.yul\":2777:2908   */\n              tag_61\n              jump\t// in\n            tag_87:\n                /* \"#utility.yul\":2769:2908   */\n              swap1\n              pop\n                /* \"#utility.yul\":2496:2915   */\n              swap2\n              swap1\n              pop\n              jump\t// out\n                /* \"#utility.yul\":2921:3340   */\n            tag_45:\n                /* \"#utility.yul\":3087:3091   */\n              0x00\n                /* \"#utility.yul\":3125:3127   */\n              0x20\n                /* \"#utility.yul\":3114:3123   */\n              dup3\n                /* \"#utility.yul\":3110:3128   */\n              add\n                /* \"#utility.yul\":3102:3128   */\n              swap1\n              pop\n                /* \"#utility.yul\":3174:3183   */\n              dup2\n                /* \"#utility.yul\":3168:3172   */\n              dup2\n                /* \"#utility.yul\":3164:3184   */\n              sub\n                /* \"#utility.yul\":3160:3161   */\n              0x00\n                /* \"#utility.yul\":3149:3158   */\n              dup4\n                /* \"#utility.yul\":3145:3162   */\n              add\n                /* \"#utility.yul\":3138:3185   */\n              mstore\n                /* \"#utility.yul\":3202:3333   */\n              tag_89\n                /* \"#utility.yul\":3328:3332   */\n              dup2\n                /* \"#utility.yul\":3202:3333   */\n              tag_73\n              jump\t// in\n            tag_89:\n                /* \"#utility.yul\":3194:3333   */\n              swap1\n              pop\n                /* \"#utility.yul\":2921:3340   */\n              swap2\n              swap1\n              pop\n              jump\t// out\n                /* \"#utility.yul\":3346:3568   */\n            tag_28:\n                /* \"#utility.yul\":3439:3443   */\n              0x00\n                /* \"#utility.yul\":3477:3479   */\n              0x20\n                /* \"#utility.yul\":3466:3475   */\n              dup3\n                /* \"#utility.yul\":3462:3480   */\n              add\n                /* \"#utility.yul\":3454:3480   */\n              swap1\n              pop\n                /* \"#utility.yul\":3490:3561   */\n              tag_91\n                /* \"#utility.yul\":3558:3559   */\n              0x00\n                /* \"#utility.yul\":3547:3556   */\n              dup4\n                /* \"#utility.yul\":3543:3560   */\n              add\n                /* \"#utility.yul\":3534:3540   */\n              dup5\n                /* \"#utility.yul\":3490:3561   */\n              tag_78\n              jump\t// in\n            tag_91:\n                /* \"#utility.yul\":3346:3568   */\n              swap3\n              swap2\n              pop\n              pop\n              jump\t// out\n                /* \"#utility.yul\":3574:4016   */\n            tag_10:\n                /* \"#utility.yul\":3723:3727   */\n              0x00\n                /* \"#utility.yul\":3761:3763   */\n              0x60\n                /* \"#utility.yul\":3750:3759   */\n              dup3\n                /* \"#utility.yul\":3746:3764   */\n              add\n                /* \"#utility.yul\":3738:3764   */\n              swap1\n              pop\n                /* \"#utility.yul\":3774:3845   */\n              tag_93\n                /* \"#utility.yul\":3842:3843   */\n              0x00\n                /* \"#utility.yul\":3831:3840   */\n              dup4\n                /* \"#utility.yul\":3827:3844   */\n              add\n                /* \"#utility.yul\":3818:3824   */\n              dup7\n                /* \"#utility.yul\":3774:3845   */\n              tag_78\n              jump\t// in\n            tag_93:\n                /* \"#utility.yul\":3855:3927   */\n              tag_94\n                /* \"#utility.yul\":3923:3925   */\n              0x20\n                /* \"#utility.yul\":3912:3921   */\n              dup4\n                /* \"#utility.yul\":3908:3926   */\n              add\n                /* \"#utility.yul\":3899:3905   */\n              dup6\n                /* \"#utility.yul\":3855:3927   */\n              tag_57\n              jump\t// in\n            tag_94:\n                /* \"#utility.yul\":3937:4009   */\n              tag_95\n                /* \"#utility.yul\":4005:4007   */\n              0x40\n                /* \"#utility.yul\":3994:4003   */\n              dup4\n                /* \"#utility.yul\":3990:4008   */\n              add\n                /* \"#utility.yul\":3981:3987   */\n              dup5\n                /* \"#utility.yul\":3937:4009   */\n              tag_78\n              jump\t// in\n            tag_95:\n                /* \"#utility.yul\":3574:4016   */\n              swap5\n              swap4\n              pop\n              pop\n              pop\n              pop\n              jump\t// out\n                /* \"#utility.yul\":4103:4250   */\n            tag_70:\n                /* \"#utility.yul\":4204:4215   */\n              0x00\n                /* \"#utility.yul\":4241:4244   */\n              dup2\n                /* \"#utility.yul\":4226:4244   */\n              swap1\n              pop\n                /* \"#utility.yul\":4103:4250   */\n              swap3\n              swap2\n              pop\n              pop\n              jump\t// out\n                /* \"#utility.yul\":4256:4425   */\n            tag_64:\n                /* \"#utility.yul\":4340:4351   */\n              0x00\n                /* \"#utility.yul\":4374:4380   */\n              dup3\n                /* \"#utility.yul\":4369:4372   */\n              dup3\n                /* \"#utility.yul\":4362:4381   */\n              mstore\n                /* \"#utility.yul\":4414:4418   */\n              0x20\n                /* \"#utility.yul\":4409:4412   */\n              dup3\n                /* \"#utility.yul\":4405:4419   */\n              add\n                /* \"#utility.yul\":4390:4419   */\n              swap1\n              pop\n                /* \"#utility.yul\":4256:4425   */\n              swap3\n              swap2\n              pop\n              pop\n              jump\t// out\n                /* \"#utility.yul\":4431:4527   */\n            tag_60:\n                /* \"#utility.yul\":4468:4475   */\n              0x00\n                /* \"#utility.yul\":4497:4521   */\n              tag_101\n                /* \"#utility.yul\":4515:4520   */\n              dup3\n                /* \"#utility.yul\":4497:4521   */\n              tag_102\n              jump\t// in\n            tag_101:\n                /* \"#utility.yul\":4486:4521   */\n              swap1\n              pop\n                /* \"#utility.yul\":4431:4527   */\n              swap2\n              swap1\n              pop\n              jump\t// out\n                /* \"#utility.yul\":4533:4659   */\n            tag_102:\n                /* \"#utility.yul\":4570:4577   */\n              0x00\n                /* \"#utility.yul\":4610:4652   */\n              0xffffffffffffffffffffffffffffffffffffffff\n                /* \"#utility.yul\":4603:4608   */\n              dup3\n                /* \"#utility.yul\":4599:4653   */\n              and\n                /* \"#utility.yul\":4588:4653   */\n              swap1\n              pop\n                /* \"#utility.yul\":4533:4659   */\n              swap2\n              swap1\n              pop\n              jump\t// out\n                /* \"#utility.yul\":4665:4742   */\n            tag_81:\n                /* \"#utility.yul\":4702:4709   */\n              0x00\n                /* \"#utility.yul\":4731:4736   */\n              dup2\n                /* \"#utility.yul\":4720:4736   */\n              swap1\n              pop\n                /* \"#utility.yul\":4665:4742   */\n              swap2\n              swap1\n              pop\n              jump\t// out\n                /* \"#utility.yul\":4871:4988   */\n            tag_55:\n                /* \"#utility.yul\":4980:4981   */\n              0x00\n                /* \"#utility.yul\":4977:4978   */\n              dup1\n                /* \"#utility.yul\":4970:4982   */\n              revert\n                /* \"#utility.yul\":4994:5168   */\n            tag_66:\n                /* \"#utility.yul\":5134:5160   */\n              0x557365723a20496e73756666696369656e742066756e64730000000000000000\n                /* \"#utility.yul\":5130:5131   */\n              0x00\n                /* \"#utility.yul\":5122:5128   */\n              dup3\n                /* \"#utility.yul\":5118:5132   */\n              add\n                /* \"#utility.yul\":5111:5161   */\n              mstore\n                /* \"#utility.yul\":4994:5168   */\n              pop\n              jump\t// out\n                /* \"#utility.yul\":5174:5288   */\n            tag_72:\n              pop\n              jump\t// out\n                /* \"#utility.yul\":5294:5526   */\n            tag_77:\n                /* \"#utility.yul\":5434:5468   */\n              0x5769746864726177616c206661696c65642e2054727920616761696e20696e20\n                /* \"#utility.yul\":5430:5431   */\n              0x00\n                /* \"#utility.yul\":5422:5428   */\n              dup3\n                /* \"#utility.yul\":5418:5432   */\n              add\n                /* \"#utility.yul\":5411:5469   */\n              mstore\n                /* \"#utility.yul\":5503:5518   */\n              0x736f6d65206d696e757465732e00000000000000000000000000000000000000\n                /* \"#utility.yul\":5498:5500   */\n              0x20\n                /* \"#utility.yul\":5490:5496   */\n              dup3\n                /* \"#utility.yul\":5486:5501   */\n              add\n                /* \"#utility.yul\":5479:5519   */\n              mstore\n                /* \"#utility.yul\":5294:5526   */\n              pop\n              jump\t// out\n                /* \"#utility.yul\":5532:5654   */\n            tag_51:\n                /* \"#utility.yul\":5605:5629   */\n              tag_112\n                /* \"#utility.yul\":5623:5628   */\n              dup2\n                /* \"#utility.yul\":5605:5629   */\n              tag_81\n              jump\t// in\n            tag_112:\n                /* \"#utility.yul\":5598:5603   */\n              dup2\n                /* \"#utility.yul\":5595:5630   */\n              eq\n                /* \"#utility.yul\":5585:5648   */\n              tag_113\n              jumpi\n                /* \"#utility.yul\":5644:5645   */\n              0x00\n                /* \"#utility.yul\":5641:5642   */\n              dup1\n                /* \"#utility.yul\":5634:5646   */\n              revert\n                /* \"#utility.yul\":5585:5648   */\n            tag_113:\n                /* \"#utility.yul\":5532:5654   */\n              pop\n              jump\t// out\n\n            auxdata: 0xa264697066735822122075d7c4a30508924e7adf60115b1b926f16dcc09549c27bd332fa9dd71da50e2364736f6c63430008070033\n        }\n    }\n\n    sub_1: assembly {\n            /* \"challenges/Consorcio/Tenant.sol\":84:1071  contract Tenant is User {\r... */\n          mstore(0x40, 0x80)\n            /* \"challenges/Consorcio/Tenant.sol\":267:601  constructor(\r... */\n          mload(0x40)\n          sub(codesize, bytecodeSize)\n          dup1\n          bytecodeSize\n          dup4\n          codecopy\n          dup2\n          dup2\n          add\n          0x40\n          mstore\n          dup2\n          add\n          swap1\n          tag_1\n          swap2\n          swap1\n          tag_2\n          jump\t// in\n        tag_1:\n            /* \"challenges/Consorcio/Tenant.sol\":447:452  newId */\n          dup5\n            /* \"challenges/Consorcio/Tenant.sol\":454:464  newAddress */\n          dup5\n            /* \"challenges/Consorcio/User.sol\":587:592  newId */\n          dup2\n            /* \"challenges/Consorcio/User.sol\":582:584  id */\n          0x00\n            /* \"challenges/Consorcio/User.sol\":582:592  id = newId */\n          dup2\n          swap1\n          sstore\n          pop\n            /* \"challenges/Consorcio/User.sol\":623:633  newAddress */\n          dup1\n            /* \"challenges/Consorcio/User.sol\":603:620  withdrawalAddress */\n          0x01\n          0x00\n            /* \"challenges/Consorcio/User.sol\":603:633  withdrawalAddress = newAddress */\n          0x0100\n          exp\n          dup2\n          sload\n          dup2\n          0xffffffffffffffffffffffffffffffffffffffff\n          mul\n          not\n          and\n          swap1\n          dup4\n          0xffffffffffffffffffffffffffffffffffffffff\n          and\n          mul\n          or\n          swap1\n          sstore\n          pop\n            /* \"challenges/Consorcio/User.sol\":527:641  constructor(uint newId, address newAddress) {\r... */\n          pop\n          pop\n            /* \"challenges/Consorcio/Tenant.sol\":492:507  newServicePrice */\n          dup3\n            /* \"challenges/Consorcio/Tenant.sol\":477:489  servicePrice */\n          0x02\n            /* \"challenges/Consorcio/Tenant.sol\":477:507  servicePrice = newServicePrice */\n          dup2\n          swap1\n          sstore\n          pop\n            /* \"challenges/Consorcio/Tenant.sol\":531:544  newAptAddress */\n          dup2\n            /* \"challenges/Consorcio/Tenant.sol\":518:528  aptAddress */\n          0x03\n            /* \"challenges/Consorcio/Tenant.sol\":518:544  aptAddress = newAptAddress */\n          dup2\n          swap1\n          sstore\n          pop\n            /* \"challenges/Consorcio/Tenant.sol\":574:593  newConsorcioAddress */\n          dup1\n            /* \"challenges/Consorcio/Tenant.sol\":555:571  consorcioAddress */\n          0x04\n          0x00\n            /* \"challenges/Consorcio/Tenant.sol\":555:593  consorcioAddress = newConsorcioAddress */\n          0x0100\n          exp\n          dup2\n          sload\n          dup2\n          0xffffffffffffffffffffffffffffffffffffffff\n          mul\n          not\n          and\n          swap1\n          dup4\n          0xffffffffffffffffffffffffffffffffffffffff\n          and\n          mul\n          or\n          swap1\n          sstore\n          pop\n            /* \"challenges/Consorcio/Tenant.sol\":267:601  constructor(\r... */\n          pop\n          pop\n          pop\n          pop\n          pop\n            /* \"challenges/Consorcio/Tenant.sol\":84:1071  contract Tenant is User {\r... */\n          jump(tag_7)\n            /* \"#utility.yul\":7:150   */\n        tag_9:\n            /* \"#utility.yul\":64:69   */\n          0x00\n            /* \"#utility.yul\":95:101   */\n          dup2\n            /* \"#utility.yul\":89:102   */\n          mload\n            /* \"#utility.yul\":80:102   */\n          swap1\n          pop\n            /* \"#utility.yul\":111:144   */\n          tag_11\n            /* \"#utility.yul\":138:143   */\n          dup2\n            /* \"#utility.yul\":111:144   */\n          tag_12\n          jump\t// in\n        tag_11:\n            /* \"#utility.yul\":7:150   */\n          swap3\n          swap2\n          pop\n          pop\n          jump\t// out\n            /* \"#utility.yul\":156:299   */\n        tag_13:\n            /* \"#utility.yul\":213:218   */\n          0x00\n            /* \"#utility.yul\":244:250   */\n          dup2\n            /* \"#utility.yul\":238:251   */\n          mload\n            /* \"#utility.yul\":229:251   */\n          swap1\n          pop\n            /* \"#utility.yul\":260:293   */\n          tag_15\n            /* \"#utility.yul\":287:292   */\n          dup2\n            /* \"#utility.yul\":260:293   */\n          tag_16\n          jump\t// in\n        tag_15:\n            /* \"#utility.yul\":156:299   */\n          swap3\n          swap2\n          pop\n          pop\n          jump\t// out\n            /* \"#utility.yul\":305:1282   */\n        tag_2:\n            /* \"#utility.yul\":411:417   */\n          0x00\n            /* \"#utility.yul\":419:425   */\n          dup1\n            /* \"#utility.yul\":427:433   */\n          0x00\n            /* \"#utility.yul\":435:441   */\n          dup1\n            /* \"#utility.yul\":443:449   */\n          0x00\n            /* \"#utility.yul\":492:495   */\n          0xa0\n            /* \"#utility.yul\":480:489   */\n          dup7\n            /* \"#utility.yul\":471:478   */\n          dup9\n            /* \"#utility.yul\":467:490   */\n          sub\n            /* \"#utility.yul\":463:496   */\n          slt\n            /* \"#utility.yul\":460:580   */\n          iszero\n          tag_18\n          jumpi\n            /* \"#utility.yul\":499:578   */\n          tag_19\n          tag_20\n          jump\t// in\n        tag_19:\n            /* \"#utility.yul\":460:580   */\n        tag_18:\n            /* \"#utility.yul\":619:620   */\n          0x00\n            /* \"#utility.yul\":644:708   */\n          tag_21\n            /* \"#utility.yul\":700:707   */\n          dup9\n            /* \"#utility.yul\":691:697   */\n          dup3\n            /* \"#utility.yul\":680:689   */\n          dup10\n            /* \"#utility.yul\":676:698   */\n          add\n            /* \"#utility.yul\":644:708   */\n          tag_13\n          jump\t// in\n        tag_21:\n            /* \"#utility.yul\":634:708   */\n          swap6\n          pop\n            /* \"#utility.yul\":590:718   */\n          pop\n            /* \"#utility.yul\":757:759   */\n          0x20\n            /* \"#utility.yul\":783:847   */\n          tag_22\n            /* \"#utility.yul\":839:846   */\n          dup9\n            /* \"#utility.yul\":830:836   */\n          dup3\n            /* \"#utility.yul\":819:828   */\n          dup10\n            /* \"#utility.yul\":815:837   */\n          add\n            /* \"#utility.yul\":783:847   */\n          tag_9\n          jump\t// in\n        tag_22:\n            /* \"#utility.yul\":773:847   */\n          swap5\n          pop\n            /* \"#utility.yul\":728:857   */\n          pop\n            /* \"#utility.yul\":896:898   */\n          0x40\n            /* \"#utility.yul\":922:986   */\n          tag_23\n            /* \"#utility.yul\":978:985   */\n          dup9\n            /* \"#utility.yul\":969:975   */\n          dup3\n            /* \"#utility.yul\":958:967   */\n          dup10\n            /* \"#utility.yul\":954:976   */\n          add\n            /* \"#utility.yul\":922:986   */\n          tag_13\n          jump\t// in\n        tag_23:\n            /* \"#utility.yul\":912:986   */\n          swap4\n          pop\n            /* \"#utility.yul\":867:996   */\n          pop\n            /* \"#utility.yul\":1035:1037   */\n          0x60\n            /* \"#utility.yul\":1061:1125   */\n          tag_24\n            /* \"#utility.yul\":1117:1124   */\n          dup9\n            /* \"#utility.yul\":1108:1114   */\n          dup3\n            /* \"#utility.yul\":1097:1106   */\n          dup10\n            /* \"#utility.yul\":1093:1115   */\n          add\n            /* \"#utility.yul\":1061:1125   */\n          tag_13\n          jump\t// in\n        tag_24:\n            /* \"#utility.yul\":1051:1125   */\n          swap3\n          pop\n            /* \"#utility.yul\":1006:1135   */\n          pop\n            /* \"#utility.yul\":1174:1177   */\n          0x80\n            /* \"#utility.yul\":1201:1265   */\n          tag_25\n            /* \"#utility.yul\":1257:1264   */\n          dup9\n            /* \"#utility.yul\":1248:1254   */\n          dup3\n            /* \"#utility.yul\":1237:1246   */\n          dup10\n            /* \"#utility.yul\":1233:1255   */\n          add\n            /* \"#utility.yul\":1201:1265   */\n          tag_9\n          jump\t// in\n        tag_25:\n            /* \"#utility.yul\":1191:1265   */\n          swap2\n          pop\n            /* \"#utility.yul\":1145:1275   */\n          pop\n            /* \"#utility.yul\":305:1282   */\n          swap3\n          swap6\n          pop\n          swap3\n          swap6\n          swap1\n          swap4\n          pop\n          jump\t// out\n            /* \"#utility.yul\":1369:1465   */\n        tag_28:\n            /* \"#utility.yul\":1406:1413   */\n          0x00\n            /* \"#utility.yul\":1435:1459   */\n          tag_30\n            /* \"#utility.yul\":1453:1458   */\n          dup3\n            /* \"#utility.yul\":1435:1459   */\n          tag_31\n          jump\t// in\n        tag_30:\n            /* \"#utility.yul\":1424:1459   */\n          swap1\n          pop\n            /* \"#utility.yul\":1369:1465   */\n          swap2\n          swap1\n          pop\n          jump\t// out\n            /* \"#utility.yul\":1471:1597   */\n        tag_31:\n            /* \"#utility.yul\":1508:1515   */\n          0x00\n            /* \"#utility.yul\":1548:1590   */\n          0xffffffffffffffffffffffffffffffffffffffff\n            /* \"#utility.yul\":1541:1546   */\n          dup3\n            /* \"#utility.yul\":1537:1591   */\n          and\n            /* \"#utility.yul\":1526:1591   */\n          swap1\n          pop\n            /* \"#utility.yul\":1471:1597   */\n          swap2\n          swap1\n          pop\n          jump\t// out\n            /* \"#utility.yul\":1603:1680   */\n        tag_33:\n            /* \"#utility.yul\":1640:1647   */\n          0x00\n            /* \"#utility.yul\":1669:1674   */\n          dup2\n            /* \"#utility.yul\":1658:1674   */\n          swap1\n          pop\n            /* \"#utility.yul\":1603:1680   */\n          swap2\n          swap1\n          pop\n          jump\t// out\n            /* \"#utility.yul\":1809:1926   */\n        tag_20:\n            /* \"#utility.yul\":1918:1919   */\n          0x00\n            /* \"#utility.yul\":1915:1916   */\n          dup1\n            /* \"#utility.yul\":1908:1920   */\n          revert\n            /* \"#utility.yul\":1932:2054   */\n        tag_12:\n            /* \"#utility.yul\":2005:2029   */\n          tag_39\n            /* \"#utility.yul\":2023:2028   */\n          dup2\n            /* \"#utility.yul\":2005:2029   */\n          tag_28\n          jump\t// in\n        tag_39:\n            /* \"#utility.yul\":1998:2003   */\n          dup2\n            /* \"#utility.yul\":1995:2030   */\n          eq\n            /* \"#utility.yul\":1985:2048   */\n          tag_40\n          jumpi\n            /* \"#utility.yul\":2044:2045   */\n          0x00\n            /* \"#utility.yul\":2041:2042   */\n          dup1\n            /* \"#utility.yul\":2034:2046   */\n          revert\n            /* \"#utility.yul\":1985:2048   */\n        tag_40:\n            /* \"#utility.yul\":1932:2054   */\n          pop\n          jump\t// out\n            /* \"#utility.yul\":2060:2182   */\n        tag_16:\n            /* \"#utility.yul\":2133:2157   */\n          tag_42\n            /* \"#utility.yul\":2151:2156   */\n          dup2\n            /* \"#utility.yul\":2133:2157   */\n          tag_33\n          jump\t// in\n        tag_42:\n            /* \"#utility.yul\":2126:2131   */\n          dup2\n            /* \"#utility.yul\":2123:2158   */\n          eq\n            /* \"#utility.yul\":2113:2176   */\n          tag_43\n          jumpi\n            /* \"#utility.yul\":2172:2173   */\n          0x00\n            /* \"#utility.yul\":2169:2170   */\n          dup1\n            /* \"#utility.yul\":2162:2174   */\n          revert\n            /* \"#utility.yul\":2113:2176   */\n        tag_43:\n            /* \"#utility.yul\":2060:2182   */\n          pop\n          jump\t// out\n            /* \"challenges/Consorcio/Tenant.sol\":84:1071  contract Tenant is User {\r... */\n        tag_7:\n          dataSize(sub_0)\n          dup1\n          dataOffset(sub_0)\n          0x00\n          codecopy\n          0x00\n          return\n        stop\n\n        sub_0: assembly {\n                /* \"challenges/Consorcio/Tenant.sol\":84:1071  contract Tenant is User {\r... */\n              mstore(0x40, 0x80)\n              jumpi(tag_1, lt(calldatasize, 0x04))\n              shr(0xe0, calldataload(0x00))\n              dup1\n              0x38cc4831\n              eq\n              tag_3\n              jumpi\n              dup1\n              0x835fc6ca\n              eq\n              tag_4\n              jumpi\n              dup1\n              0xaf640d0f\n              eq\n              tag_5\n              jumpi\n              dup1\n              0xd0e30db0\n              eq\n              tag_6\n              jumpi\n              dup1\n              0xda6e75c2\n              eq\n              tag_7\n              jumpi\n              dup1\n              0xf2bcd022\n              eq\n              tag_8\n              jumpi\n              jump(tag_2)\n            tag_1:\n              jumpi(tag_2, calldatasize)\n                /* \"challenges/Consorcio/User.sol\":329:391  EtherReceived(msg.value, address(this), address(this).balance) */\n              0x2d27851832fcac28a0d4af1344f01fed7ffcfd15171c14c564a0c42aa57ae5c0\n                /* \"challenges/Consorcio/User.sol\":343:352  msg.value */\n              callvalue\n                /* \"challenges/Consorcio/User.sol\":362:366  this */\n              address\n                /* \"challenges/Consorcio/User.sol\":369:390  address(this).balance */\n              selfbalance\n                /* \"challenges/Consorcio/User.sol\":329:391  EtherReceived(msg.value, address(this), address(this).balance) */\n              mload(0x40)\n              tag_11\n              swap4\n              swap3\n              swap2\n              swap1\n              tag_12\n              jump\t// in\n            tag_11:\n              mload(0x40)\n              dup1\n              swap2\n              sub\n              swap1\n              log1\n                /* \"challenges/Consorcio/Tenant.sol\":84:1071  contract Tenant is User {\r... */\n              stop\n            tag_2:\n                /* \"challenges/Consorcio/User.sol\":449:511  EtherReceived(msg.value, address(this), address(this).balance) */\n              0x2d27851832fcac28a0d4af1344f01fed7ffcfd15171c14c564a0c42aa57ae5c0\n                /* \"challenges/Consorcio/User.sol\":463:472  msg.value */\n              callvalue\n                /* \"challenges/Consorcio/User.sol\":482:486  this */\n              address\n                /* \"challenges/Consorcio/User.sol\":489:510  address(this).balance */\n              selfbalance\n                /* \"challenges/Consorcio/User.sol\":449:511  EtherReceived(msg.value, address(this), address(this).balance) */\n              mload(0x40)\n              tag_15\n              swap4\n              swap3\n              swap2\n              swap1\n              tag_12\n              jump\t// in\n            tag_15:\n              mload(0x40)\n              dup1\n              swap2\n              sub\n              swap1\n              log1\n                /* \"challenges/Consorcio/Tenant.sol\":84:1071  contract Tenant is User {\r... */\n              stop\n                /* \"challenges/Consorcio/User.sol\":1051:1142  function getAddress() public view returns (address) {\r... */\n            tag_3:\n              callvalue\n              dup1\n              iszero\n              tag_16\n              jumpi\n              0x00\n              dup1\n              revert\n            tag_16:\n              pop\n              tag_17\n              tag_18\n              jump\t// in\n            tag_17:\n              mload(0x40)\n              tag_19\n              swap2\n              swap1\n              tag_20\n              jump\t// in\n            tag_19:\n              mload(0x40)\n              dup1\n              swap2\n              sub\n              swap1\n              return\n                /* \"challenges/Consorcio/User.sol\":649:1043  function withdrawal(uint _amount) public {\r... */\n            tag_4:\n              callvalue\n              dup1\n              iszero\n              tag_21\n              jumpi\n              0x00\n              dup1\n              revert\n            tag_21:\n              pop\n              tag_22\n              0x04\n              dup1\n              calldatasize\n              sub\n              dup2\n              add\n              swap1\n              tag_23\n              swap2\n              swap1\n              tag_24\n              jump\t// in\n            tag_23:\n              tag_25\n              jump\t// in\n            tag_22:\n              stop\n                /* \"challenges/Consorcio/User.sol\":92:106  uint public id */\n            tag_5:\n              callvalue\n              dup1\n              iszero\n              tag_26\n              jumpi\n              0x00\n              dup1\n              revert\n            tag_26:\n              pop\n              tag_27\n              tag_28\n              jump\t// in\n            tag_27:\n              mload(0x40)\n              tag_29\n              swap2\n              swap1\n              tag_30\n              jump\t// in\n            tag_29:\n              mload(0x40)\n              dup1\n              swap2\n              sub\n              swap1\n              return\n                /* \"challenges/Consorcio/Tenant.sol\":609:729  function deposit() public payable {\r... */\n            tag_6:\n              tag_31\n              tag_32\n              jump\t// in\n            tag_31:\n              stop\n                /* \"challenges/Consorcio/Tenant.sol\":737:1066  function payExpenses() public {\r... */\n            tag_7:\n              callvalue\n              dup1\n              iszero\n              tag_33\n              jumpi\n              0x00\n              dup1\n              revert\n            tag_33:\n              pop\n              tag_34\n              tag_35\n              jump\t// in\n            tag_34:\n              stop\n                /* \"challenges/Consorcio/User.sol\":113:145  address public withdrawalAddress */\n            tag_8:\n              callvalue\n              dup1\n              iszero\n              tag_36\n              jumpi\n              0x00\n              dup1\n              revert\n            tag_36:\n              pop\n              tag_37\n              tag_38\n              jump\t// in\n            tag_37:\n              mload(0x40)\n              tag_39\n              swap2\n              swap1\n              tag_20\n              jump\t// in\n            tag_39:\n              mload(0x40)\n              dup1\n              swap2\n              sub\n              swap1\n              return\n                /* \"challenges/Consorcio/User.sol\":1051:1142  function getAddress() public view returns (address) {\r... */\n            tag_18:\n                /* \"challenges/Consorcio/User.sol\":1094:1101  address */\n              0x00\n                /* \"challenges/Consorcio/User.sol\":1129:1133  this */\n              address\n                /* \"challenges/Consorcio/User.sol\":1114:1134  return address(this) */\n              swap1\n              pop\n                /* \"challenges/Consorcio/User.sol\":1051:1142  function getAddress() public view returns (address) {\r... */\n              swap1\n              jump\t// out\n                /* \"challenges/Consorcio/User.sol\":649:1043  function withdrawal(uint _amount) public {\r... */\n            tag_25:\n                /* \"challenges/Consorcio/User.sol\":748:755  _amount */\n              dup1\n                /* \"challenges/Consorcio/User.sol\":723:744  address(this).balance */\n              selfbalance\n                /* \"challenges/Consorcio/User.sol\":723:755  address(this).balance >= _amount */\n              lt\n              iszero\n                /* \"challenges/Consorcio/User.sol\":701:807  require(\r... */\n              tag_42\n              jumpi\n              mload(0x40)\n              0x08c379a000000000000000000000000000000000000000000000000000000000\n              dup2\n              mstore\n              0x04\n              add\n              tag_43\n              swap1\n              tag_44\n              jump\t// in\n            tag_43:\n              mload(0x40)\n              dup1\n              swap2\n              sub\n              swap1\n              revert\n            tag_42:\n                /* \"challenges/Consorcio/User.sol\":829:841  bool success */\n              0x00\n                /* \"challenges/Consorcio/User.sol\":846:863  withdrawalAddress */\n              0x01\n              0x00\n              swap1\n              sload\n              swap1\n              0x0100\n              exp\n              swap1\n              div\n              0xffffffffffffffffffffffffffffffffffffffff\n              and\n                /* \"challenges/Consorcio/User.sol\":846:868  withdrawalAddress.call */\n              0xffffffffffffffffffffffffffffffffffffffff\n              and\n                /* \"challenges/Consorcio/User.sol\":876:883  _amount */\n              dup3\n                /* \"challenges/Consorcio/User.sol\":846:888  withdrawalAddress.call{value: _amount}(\"\") */\n              mload(0x40)\n              tag_45\n              swap1\n              tag_46\n              jump\t// in\n            tag_45:\n              0x00\n              mload(0x40)\n              dup1\n              dup4\n              sub\n              dup2\n              dup6\n              dup8\n              gas\n              call\n              swap3\n              pop\n              pop\n              pop\n              returndatasize\n              dup1\n              0x00\n              dup2\n              eq\n              tag_49\n              jumpi\n              mload(0x40)\n              swap2\n              pop\n              and(add(returndatasize, 0x3f), not(0x1f))\n              dup3\n              add\n              0x40\n              mstore\n              returndatasize\n              dup3\n              mstore\n              returndatasize\n              0x00\n              0x20\n              dup5\n              add\n              returndatacopy\n              jump(tag_48)\n            tag_49:\n              0x60\n              swap2\n              pop\n            tag_48:\n              pop\n                /* \"challenges/Consorcio/User.sol\":828:888  (bool success,) = withdrawalAddress.call{value: _amount}(\"\") */\n              pop\n              swap1\n              pop\n                /* \"challenges/Consorcio/User.sol\":920:924  true */\n              0x01\n                /* \"challenges/Consorcio/User.sol\":909:924  success == true */\n              iszero\n              iszero\n                /* \"challenges/Consorcio/User.sol\":909:916  success */\n              dup2\n                /* \"challenges/Consorcio/User.sol\":909:924  success == true */\n              iszero\n              iszero\n              eq\n                /* \"challenges/Consorcio/User.sol\":901:974  require(success == true, \"Withdrawal failed. Try again in some minutes.\") */\n              tag_50\n              jumpi\n              mload(0x40)\n              0x08c379a000000000000000000000000000000000000000000000000000000000\n              dup2\n              mstore\n              0x04\n              add\n              tag_51\n              swap1\n              tag_52\n              jump\t// in\n            tag_51:\n              mload(0x40)\n              dup1\n              swap2\n              sub\n              swap1\n              revert\n            tag_50:\n                /* \"challenges/Consorcio/User.sol\":992:1035  WithdrawalSuccessful(address(this).balance) */\n              0x794032702377d1e7eb93381e2467d569394569207a770af85b3222a361126c91\n                /* \"challenges/Consorcio/User.sol\":1013:1034  address(this).balance */\n              selfbalance\n                /* \"challenges/Consorcio/User.sol\":992:1035  WithdrawalSuccessful(address(this).balance) */\n              mload(0x40)\n              tag_53\n              swap2\n              swap1\n              tag_30\n              jump\t// in\n            tag_53:\n              mload(0x40)\n              dup1\n              swap2\n              sub\n              swap1\n              log1\n                /* \"challenges/Consorcio/User.sol\":690:1043  {\r... */\n              pop\n                /* \"challenges/Consorcio/User.sol\":649:1043  function withdrawal(uint _amount) public {\r... */\n              pop\n              jump\t// out\n                /* \"challenges/Consorcio/User.sol\":92:106  uint public id */\n            tag_28:\n              sload(0x00)\n              dup2\n              jump\t// out\n                /* \"challenges/Consorcio/Tenant.sol\":609:729  function deposit() public payable {\r... */\n            tag_32:\n                /* \"challenges/Consorcio/Tenant.sol\":659:721  EtherReceived(msg.value, address(this), address(this).balance) */\n              0x2d27851832fcac28a0d4af1344f01fed7ffcfd15171c14c564a0c42aa57ae5c0\n                /* \"challenges/Consorcio/Tenant.sol\":673:682  msg.value */\n              callvalue\n                /* \"challenges/Consorcio/Tenant.sol\":692:696  this */\n              address\n                /* \"challenges/Consorcio/Tenant.sol\":699:720  address(this).balance */\n              selfbalance\n                /* \"challenges/Consorcio/Tenant.sol\":659:721  EtherReceived(msg.value, address(this), address(this).balance) */\n              mload(0x40)\n              tag_55\n              swap4\n              swap3\n              swap2\n              swap1\n              tag_12\n              jump\t// in\n            tag_55:\n              mload(0x40)\n              dup1\n              swap2\n              sub\n              swap1\n              log1\n                /* \"challenges/Consorcio/Tenant.sol\":609:729  function deposit() public payable {\r... */\n              jump\t// out\n                /* \"challenges/Consorcio/Tenant.sol\":737:1066  function payExpenses() public {\r... */\n            tag_35:\n                /* \"challenges/Consorcio/Tenant.sol\":811:823  servicePrice */\n              sload(0x02)\n                /* \"challenges/Consorcio/Tenant.sol\":786:807  address(this).balance */\n              selfbalance\n                /* \"challenges/Consorcio/Tenant.sol\":786:823  address(this).balance >= servicePrice */\n              lt\n              iszero\n                /* \"challenges/Consorcio/Tenant.sol\":778:846  require(address(this).balance >= servicePrice, \"Insufficient funds\") */\n              tag_57\n              jumpi\n              mload(0x40)\n              0x08c379a000000000000000000000000000000000000000000000000000000000\n              dup2\n              mstore\n              0x04\n              add\n              tag_58\n              swap1\n              tag_59\n              jump\t// in\n            tag_58:\n              mload(0x40)\n              dup1\n              swap2\n              sub\n              swap1\n              revert\n            tag_57:\n                /* \"challenges/Consorcio/Tenant.sol\":868:880  bool success */\n              0x00\n                /* \"challenges/Consorcio/Tenant.sol\":885:901  consorcioAddress */\n              0x04\n              0x00\n              swap1\n              sload\n              swap1\n              0x0100\n              exp\n              swap1\n              div\n              0xffffffffffffffffffffffffffffffffffffffff\n              and\n                /* \"challenges/Consorcio/Tenant.sol\":885:906  consorcioAddress.call */\n              0xffffffffffffffffffffffffffffffffffffffff\n              and\n                /* \"challenges/Consorcio/Tenant.sol\":914:926  servicePrice */\n              sload(0x02)\n                /* \"challenges/Consorcio/Tenant.sol\":885:931  consorcioAddress.call{value: servicePrice}(\"\") */\n              mload(0x40)\n              tag_60\n              swap1\n              tag_46\n              jump\t// in\n            tag_60:\n              0x00\n              mload(0x40)\n              dup1\n              dup4\n              sub\n              dup2\n              dup6\n              dup8\n              gas\n              call\n              swap3\n              pop\n              pop\n              pop\n              returndatasize\n              dup1\n              0x00\n              dup2\n              eq\n              tag_63\n              jumpi\n              mload(0x40)\n              swap2\n              pop\n              and(add(returndatasize, 0x3f), not(0x1f))\n              dup3\n              add\n              0x40\n              mstore\n              returndatasize\n              dup3\n              mstore\n              returndatasize\n              0x00\n              0x20\n              dup5\n              add\n              returndatacopy\n              jump(tag_62)\n            tag_63:\n              0x60\n              swap2\n              pop\n            tag_62:\n              pop\n                /* \"challenges/Consorcio/Tenant.sol\":867:931  (bool success,) = consorcioAddress.call{value: servicePrice}(\"\") */\n              pop\n              swap1\n              pop\n                /* \"challenges/Consorcio/Tenant.sol\":963:967  true */\n              0x01\n                /* \"challenges/Consorcio/Tenant.sol\":952:967  success == true */\n              iszero\n              iszero\n                /* \"challenges/Consorcio/Tenant.sol\":952:959  success */\n              dup2\n                /* \"challenges/Consorcio/Tenant.sol\":952:967  success == true */\n              iszero\n              iszero\n              eq\n                /* \"challenges/Consorcio/Tenant.sol\":944:1014  require(success == true, \"Payment failed. Try again in some minutes.\") */\n              tag_64\n              jumpi\n              mload(0x40)\n              0x08c379a000000000000000000000000000000000000000000000000000000000\n              dup2\n              mstore\n              0x04\n              add\n              tag_65\n              swap1\n              tag_66\n              jump\t// in\n            tag_65:\n              mload(0x40)\n              dup1\n              swap2\n              sub\n              swap1\n              revert\n            tag_64:\n                /* \"challenges/Consorcio/Tenant.sol\":1032:1058  ExpensesPaid(servicePrice) */\n              0x56e1cf8a52e84572ff49b950fa9a1a1867319bf8eba3bf8c77bc4354678a34c5\n                /* \"challenges/Consorcio/Tenant.sol\":1045:1057  servicePrice */\n              sload(0x02)\n                /* \"challenges/Consorcio/Tenant.sol\":1032:1058  ExpensesPaid(servicePrice) */\n              mload(0x40)\n              tag_67\n              swap2\n              swap1\n              tag_30\n              jump\t// in\n            tag_67:\n              mload(0x40)\n              dup1\n              swap2\n              sub\n              swap1\n              log1\n                /* \"challenges/Consorcio/Tenant.sol\":767:1066  {\r... */\n              pop\n                /* \"challenges/Consorcio/Tenant.sol\":737:1066  function payExpenses() public {\r... */\n              jump\t// out\n                /* \"challenges/Consorcio/User.sol\":113:145  address public withdrawalAddress */\n            tag_38:\n              0x01\n              0x00\n              swap1\n              sload\n              swap1\n              0x0100\n              exp\n              swap1\n              div\n              0xffffffffffffffffffffffffffffffffffffffff\n              and\n              dup2\n              jump\t// out\n                /* \"#utility.yul\":7:146   */\n            tag_69:\n                /* \"#utility.yul\":53:58   */\n              0x00\n                /* \"#utility.yul\":91:97   */\n              dup2\n                /* \"#utility.yul\":78:98   */\n              calldataload\n                /* \"#utility.yul\":69:98   */\n              swap1\n              pop\n                /* \"#utility.yul\":107:140   */\n              tag_71\n                /* \"#utility.yul\":134:139   */\n              dup2\n                /* \"#utility.yul\":107:140   */\n              tag_72\n              jump\t// in\n            tag_71:\n                /* \"#utility.yul\":7:146   */\n              swap3\n              swap2\n              pop\n              pop\n              jump\t// out\n                /* \"#utility.yul\":152:481   */\n            tag_24:\n                /* \"#utility.yul\":211:217   */\n              0x00\n                /* \"#utility.yul\":260:262   */\n              0x20\n                /* \"#utility.yul\":248:257   */\n              dup3\n                /* \"#utility.yul\":239:246   */\n              dup5\n                /* \"#utility.yul\":235:258   */\n              sub\n                /* \"#utility.yul\":231:263   */\n              slt\n                /* \"#utility.yul\":228:347   */\n              iszero\n              tag_74\n              jumpi\n                /* \"#utility.yul\":266:345   */\n              tag_75\n              tag_76\n              jump\t// in\n            tag_75:\n                /* \"#utility.yul\":228:347   */\n            tag_74:\n                /* \"#utility.yul\":386:387   */\n              0x00\n                /* \"#utility.yul\":411:464   */\n              tag_77\n                /* \"#utility.yul\":456:463   */\n              dup5\n                /* \"#utility.yul\":447:453   */\n              dup3\n                /* \"#utility.yul\":436:445   */\n              dup6\n                /* \"#utility.yul\":432:454   */\n              add\n                /* \"#utility.yul\":411:464   */\n              tag_69\n              jump\t// in\n            tag_77:\n                /* \"#utility.yul\":401:464   */\n              swap2\n              pop\n                /* \"#utility.yul\":357:474   */\n              pop\n                /* \"#utility.yul\":152:481   */\n              swap3\n              swap2\n              pop\n              pop\n              jump\t// out\n                /* \"#utility.yul\":487:605   */\n            tag_78:\n                /* \"#utility.yul\":574:598   */\n              tag_80\n                /* \"#utility.yul\":592:597   */\n              dup2\n                /* \"#utility.yul\":574:598   */\n              tag_81\n              jump\t// in\n            tag_80:\n                /* \"#utility.yul\":569:572   */\n              dup3\n                /* \"#utility.yul\":562:599   */\n              mstore\n                /* \"#utility.yul\":487:605   */\n              pop\n              pop\n              jump\t// out\n                /* \"#utility.yul\":611:977   */\n            tag_82:\n                /* \"#utility.yul\":753:756   */\n              0x00\n                /* \"#utility.yul\":774:841   */\n              tag_84\n                /* \"#utility.yul\":838:840   */\n              0x12\n                /* \"#utility.yul\":833:836   */\n              dup4\n                /* \"#utility.yul\":774:841   */\n              tag_85\n              jump\t// in\n            tag_84:\n                /* \"#utility.yul\":767:841   */\n              swap2\n              pop\n                /* \"#utility.yul\":850:943   */\n              tag_86\n                /* \"#utility.yul\":939:942   */\n              dup3\n                /* \"#utility.yul\":850:943   */\n              tag_87\n              jump\t// in\n            tag_86:\n                /* \"#utility.yul\":968:970   */\n              0x20\n                /* \"#utility.yul\":963:966   */\n              dup3\n                /* \"#utility.yul\":959:971   */\n              add\n                /* \"#utility.yul\":952:971   */\n              swap1\n              pop\n                /* \"#utility.yul\":611:977   */\n              swap2\n              swap1\n              pop\n              jump\t// out\n                /* \"#utility.yul\":983:1349   */\n            tag_88:\n                /* \"#utility.yul\":1125:1128   */\n              0x00\n                /* \"#utility.yul\":1146:1213   */\n              tag_90\n                /* \"#utility.yul\":1210:1212   */\n              0x2a\n                /* \"#utility.yul\":1205:1208   */\n              dup4\n                /* \"#utility.yul\":1146:1213   */\n              tag_85\n              jump\t// in\n            tag_90:\n                /* \"#utility.yul\":1139:1213   */\n              swap2\n              pop\n                /* \"#utility.yul\":1222:1315   */\n              tag_91\n                /* \"#utility.yul\":1311:1314   */\n              dup3\n                /* \"#utility.yul\":1222:1315   */\n              tag_92\n              jump\t// in\n            tag_91:\n                /* \"#utility.yul\":1340:1342   */\n              0x40\n                /* \"#utility.yul\":1335:1338   */\n              dup3\n                /* \"#utility.yul\":1331:1343   */\n              add\n                /* \"#utility.yul\":1324:1343   */\n              swap1\n              pop\n                /* \"#utility.yul\":983:1349   */\n              swap2\n              swap1\n              pop\n              jump\t// out\n                /* \"#utility.yul\":1355:1721   */\n            tag_93:\n                /* \"#utility.yul\":1497:1500   */\n              0x00\n                /* \"#utility.yul\":1518:1585   */\n              tag_95\n                /* \"#utility.yul\":1582:1584   */\n              0x18\n                /* \"#utility.yul\":1577:1580   */\n              dup4\n                /* \"#utility.yul\":1518:1585   */\n              tag_85\n              jump\t// in\n            tag_95:\n                /* \"#utility.yul\":1511:1585   */\n              swap2\n              pop\n                /* \"#utility.yul\":1594:1687   */\n              tag_96\n                /* \"#utility.yul\":1683:1686   */\n              dup3\n                /* \"#utility.yul\":1594:1687   */\n              tag_97\n              jump\t// in\n            tag_96:\n                /* \"#utility.yul\":1712:1714   */\n              0x20\n                /* \"#utility.yul\":1707:1710   */\n              dup3\n                /* \"#utility.yul\":1703:1715   */\n              add\n                /* \"#utility.yul\":1696:1715   */\n              swap1\n              pop\n                /* \"#utility.yul\":1355:1721   */\n              swap2\n              swap1\n              pop\n              jump\t// out\n                /* \"#utility.yul\":1727:2125   */\n            tag_98:\n                /* \"#utility.yul\":1886:1889   */\n              0x00\n                /* \"#utility.yul\":1907:1990   */\n              tag_100\n                /* \"#utility.yul\":1988:1989   */\n              0x00\n                /* \"#utility.yul\":1983:1986   */\n              dup4\n                /* \"#utility.yul\":1907:1990   */\n              tag_101\n              jump\t// in\n            tag_100:\n                /* \"#utility.yul\":1900:1990   */\n              swap2\n              pop\n                /* \"#utility.yul\":1999:2092   */\n              tag_102\n                /* \"#utility.yul\":2088:2091   */\n              dup3\n                /* \"#utility.yul\":1999:2092   */\n              tag_103\n              jump\t// in\n            tag_102:\n                /* \"#utility.yul\":2117:2118   */\n              0x00\n                /* \"#utility.yul\":2112:2115   */\n              dup3\n                /* \"#utility.yul\":2108:2119   */\n              add\n                /* \"#utility.yul\":2101:2119   */\n              swap1\n              pop\n                /* \"#utility.yul\":1727:2125   */\n              swap2\n              swap1\n              pop\n              jump\t// out\n                /* \"#utility.yul\":2131:2497   */\n            tag_104:\n                /* \"#utility.yul\":2273:2276   */\n              0x00\n                /* \"#utility.yul\":2294:2361   */\n              tag_106\n                /* \"#utility.yul\":2358:2360   */\n              0x2d\n                /* \"#utility.yul\":2353:2356   */\n              dup4\n                /* \"#utility.yul\":2294:2361   */\n              tag_85\n              jump\t// in\n            tag_106:\n                /* \"#utility.yul\":2287:2361   */\n              swap2\n              pop\n                /* \"#utility.yul\":2370:2463   */\n              tag_107\n                /* \"#utility.yul\":2459:2462   */\n              dup3\n                /* \"#utility.yul\":2370:2463   */\n              tag_108\n              jump\t// in\n            tag_107:\n                /* \"#utility.yul\":2488:2490   */\n              0x40\n                /* \"#utility.yul\":2483:2486   */\n              dup3\n                /* \"#utility.yul\":2479:2491   */\n              add\n                /* \"#utility.yul\":2472:2491   */\n              swap1\n              pop\n                /* \"#utility.yul\":2131:2497   */\n              swap2\n              swap1\n              pop\n              jump\t// out\n                /* \"#utility.yul\":2503:2621   */\n            tag_109:\n                /* \"#utility.yul\":2590:2614   */\n              tag_111\n                /* \"#utility.yul\":2608:2613   */\n              dup2\n                /* \"#utility.yul\":2590:2614   */\n              tag_112\n              jump\t// in\n            tag_111:\n                /* \"#utility.yul\":2585:2588   */\n              dup3\n                /* \"#utility.yul\":2578:2615   */\n              mstore\n                /* \"#utility.yul\":2503:2621   */\n              pop\n              pop\n              jump\t// out\n                /* \"#utility.yul\":2627:3006   */\n            tag_46:\n                /* \"#utility.yul\":2811:2814   */\n              0x00\n                /* \"#utility.yul\":2833:2980   */\n              tag_114\n                /* \"#utility.yul\":2976:2979   */\n              dup3\n                /* \"#utility.yul\":2833:2980   */\n              tag_98\n              jump\t// in\n            tag_114:\n                /* \"#utility.yul\":2826:2980   */\n              swap2\n              pop\n                /* \"#utility.yul\":2997:3000   */\n              dup2\n                /* \"#utility.yul\":2990:3000   */\n              swap1\n              pop\n                /* \"#utility.yul\":2627:3006   */\n              swap2\n              swap1\n              pop\n              jump\t// out\n                /* \"#utility.yul\":3012:3234   */\n            tag_20:\n                /* \"#utility.yul\":3105:3109   */\n              0x00\n                /* \"#utility.yul\":3143:3145   */\n              0x20\n                /* \"#utility.yul\":3132:3141   */\n              dup3\n                /* \"#utility.yul\":3128:3146   */\n              add\n                /* \"#utility.yul\":3120:3146   */\n              swap1\n              pop\n                /* \"#utility.yul\":3156:3227   */\n              tag_116\n                /* \"#utility.yul\":3224:3225   */\n              0x00\n                /* \"#utility.yul\":3213:3222   */\n              dup4\n                /* \"#utility.yul\":3209:3226   */\n              add\n                /* \"#utility.yul\":3200:3206   */\n              dup5\n                /* \"#utility.yul\":3156:3227   */\n              tag_78\n              jump\t// in\n            tag_116:\n                /* \"#utility.yul\":3012:3234   */\n              swap3\n              swap2\n              pop\n              pop\n              jump\t// out\n                /* \"#utility.yul\":3240:3659   */\n            tag_59:\n                /* \"#utility.yul\":3406:3410   */\n              0x00\n                /* \"#utility.yul\":3444:3446   */\n              0x20\n                /* \"#utility.yul\":3433:3442   */\n              dup3\n                /* \"#utility.yul\":3429:3447   */\n              add\n                /* \"#utility.yul\":3421:3447   */\n              swap1\n              pop\n                /* \"#utility.yul\":3493:3502   */\n              dup2\n                /* \"#utility.yul\":3487:3491   */\n              dup2\n                /* \"#utility.yul\":3483:3503   */\n              sub\n                /* \"#utility.yul\":3479:3480   */\n              0x00\n                /* \"#utility.yul\":3468:3477   */\n              dup4\n                /* \"#utility.yul\":3464:3481   */\n              add\n                /* \"#utility.yul\":3457:3504   */\n              mstore\n                /* \"#utility.yul\":3521:3652   */\n              tag_118\n                /* \"#utility.yul\":3647:3651   */\n              dup2\n                /* \"#utility.yul\":3521:3652   */\n              tag_82\n              jump\t// in\n            tag_118:\n                /* \"#utility.yul\":3513:3652   */\n              swap1\n              pop\n                /* \"#utility.yul\":3240:3659   */\n              swap2\n              swap1\n              pop\n              jump\t// out\n                /* \"#utility.yul\":3665:4084   */\n            tag_66:\n                /* \"#utility.yul\":3831:3835   */\n              0x00\n                /* \"#utility.yul\":3869:3871   */\n              0x20\n                /* \"#utility.yul\":3858:3867   */\n              dup3\n                /* \"#utility.yul\":3854:3872   */\n              add\n                /* \"#utility.yul\":3846:3872   */\n              swap1\n              pop\n                /* \"#utility.yul\":3918:3927   */\n              dup2\n                /* \"#utility.yul\":3912:3916   */\n              dup2\n                /* \"#utility.yul\":3908:3928   */\n              sub\n                /* \"#utility.yul\":3904:3905   */\n              0x00\n                /* \"#utility.yul\":3893:3902   */\n              dup4\n                /* \"#utility.yul\":3889:3906   */\n              add\n                /* \"#utility.yul\":3882:3929   */\n              mstore\n                /* \"#utility.yul\":3946:4077   */\n              tag_120\n                /* \"#utility.yul\":4072:4076   */\n              dup2\n                /* \"#utility.yul\":3946:4077   */\n              tag_88\n              jump\t// in\n            tag_120:\n                /* \"#utility.yul\":3938:4077   */\n              swap1\n              pop\n                /* \"#utility.yul\":3665:4084   */\n              swap2\n              swap1\n              pop\n              jump\t// out\n                /* \"#utility.yul\":4090:4509   */\n            tag_44:\n                /* \"#utility.yul\":4256:4260   */\n              0x00\n                /* \"#utility.yul\":4294:4296   */\n              0x20\n                /* \"#utility.yul\":4283:4292   */\n              dup3\n                /* \"#utility.yul\":4279:4297   */\n              add\n                /* \"#utility.yul\":4271:4297   */\n              swap1\n              pop\n                /* \"#utility.yul\":4343:4352   */\n              dup2\n                /* \"#utility.yul\":4337:4341   */\n              dup2\n                /* \"#utility.yul\":4333:4353   */\n              sub\n                /* \"#utility.yul\":4329:4330   */\n              0x00\n                /* \"#utility.yul\":4318:4327   */\n              dup4\n                /* \"#utility.yul\":4314:4331   */\n              add\n                /* \"#utility.yul\":4307:4354   */\n              mstore\n                /* \"#utility.yul\":4371:4502   */\n              tag_122\n                /* \"#utility.yul\":4497:4501   */\n              dup2\n                /* \"#utility.yul\":4371:4502   */\n              tag_93\n              jump\t// in\n            tag_122:\n                /* \"#utility.yul\":4363:4502   */\n              swap1\n              pop\n                /* \"#utility.yul\":4090:4509   */\n              swap2\n              swap1\n              pop\n              jump\t// out\n                /* \"#utility.yul\":4515:4934   */\n            tag_52:\n                /* \"#utility.yul\":4681:4685   */\n              0x00\n                /* \"#utility.yul\":4719:4721   */\n              0x20\n                /* \"#utility.yul\":4708:4717   */\n              dup3\n                /* \"#utility.yul\":4704:4722   */\n              add\n                /* \"#utility.yul\":4696:4722   */\n              swap1\n              pop\n                /* \"#utility.yul\":4768:4777   */\n              dup2\n                /* \"#utility.yul\":4762:4766   */\n              dup2\n                /* \"#utility.yul\":4758:4778   */\n              sub\n                /* \"#utility.yul\":4754:4755   */\n              0x00\n                /* \"#utility.yul\":4743:4752   */\n              dup4\n                /* \"#utility.yul\":4739:4756   */\n              add\n                /* \"#utility.yul\":4732:4779   */\n              mstore\n                /* \"#utility.yul\":4796:4927   */\n              tag_124\n                /* \"#utility.yul\":4922:4926   */\n              dup2\n                /* \"#utility.yul\":4796:4927   */\n              tag_104\n              jump\t// in\n            tag_124:\n                /* \"#utility.yul\":4788:4927   */\n              swap1\n              pop\n                /* \"#utility.yul\":4515:4934   */\n              swap2\n              swap1\n              pop\n              jump\t// out\n                /* \"#utility.yul\":4940:5162   */\n            tag_30:\n                /* \"#utility.yul\":5033:5037   */\n              0x00\n                /* \"#utility.yul\":5071:5073   */\n              0x20\n                /* \"#utility.yul\":5060:5069   */\n              dup3\n                /* \"#utility.yul\":5056:5074   */\n              add\n                /* \"#utility.yul\":5048:5074   */\n              swap1\n              pop\n                /* \"#utility.yul\":5084:5155   */\n              tag_126\n                /* \"#utility.yul\":5152:5153   */\n              0x00\n                /* \"#utility.yul\":5141:5150   */\n              dup4\n                /* \"#utility.yul\":5137:5154   */\n              add\n                /* \"#utility.yul\":5128:5134   */\n              dup5\n                /* \"#utility.yul\":5084:5155   */\n              tag_109\n              jump\t// in\n            tag_126:\n                /* \"#utility.yul\":4940:5162   */\n              swap3\n              swap2\n              pop\n              pop\n              jump\t// out\n                /* \"#utility.yul\":5168:5610   */\n            tag_12:\n                /* \"#utility.yul\":5317:5321   */\n              0x00\n                /* \"#utility.yul\":5355:5357   */\n              0x60\n                /* \"#utility.yul\":5344:5353   */\n              dup3\n                /* \"#utility.yul\":5340:5358   */\n              add\n                /* \"#utility.yul\":5332:5358   */\n              swap1\n              pop\n                /* \"#utility.yul\":5368:5439   */\n              tag_128\n                /* \"#utility.yul\":5436:5437   */\n              0x00\n                /* \"#utility.yul\":5425:5434   */\n              dup4\n                /* \"#utility.yul\":5421:5438   */\n              add\n                /* \"#utility.yul\":5412:5418   */\n              dup7\n                /* \"#utility.yul\":5368:5439   */\n              tag_109\n              jump\t// in\n            tag_128:\n                /* \"#utility.yul\":5449:5521   */\n              tag_129\n                /* \"#utility.yul\":5517:5519   */\n              0x20\n                /* \"#utility.yul\":5506:5515   */\n              dup4\n                /* \"#utility.yul\":5502:5520   */\n              add\n                /* \"#utility.yul\":5493:5499   */\n              dup6\n                /* \"#utility.yul\":5449:5521   */\n              tag_78\n              jump\t// in\n            tag_129:\n                /* \"#utility.yul\":5531:5603   */\n              tag_130\n                /* \"#utility.yul\":5599:5601   */\n              0x40\n                /* \"#utility.yul\":5588:5597   */\n              dup4\n                /* \"#utility.yul\":5584:5602   */\n              add\n                /* \"#utility.yul\":5575:5581   */\n              dup5\n                /* \"#utility.yul\":5531:5603   */\n              tag_109\n              jump\t// in\n            tag_130:\n                /* \"#utility.yul\":5168:5610   */\n              swap5\n              swap4\n              pop\n              pop\n              pop\n              pop\n              jump\t// out\n                /* \"#utility.yul\":5697:5844   */\n            tag_101:\n                /* \"#utility.yul\":5798:5809   */\n              0x00\n                /* \"#utility.yul\":5835:5838   */\n              dup2\n                /* \"#utility.yul\":5820:5838   */\n              swap1\n              pop\n                /* \"#utility.yul\":5697:5844   */\n              swap3\n              swap2\n              pop\n              pop\n              jump\t// out\n                /* \"#utility.yul\":5850:6019   */\n            tag_85:\n                /* \"#utility.yul\":5934:5945   */\n              0x00\n                /* \"#utility.yul\":5968:5974   */\n              dup3\n                /* \"#utility.yul\":5963:5966   */\n              dup3\n                /* \"#utility.yul\":5956:5975   */\n              mstore\n                /* \"#utility.yul\":6008:6012   */\n              0x20\n                /* \"#utility.yul\":6003:6006   */\n              dup3\n                /* \"#utility.yul\":5999:6013   */\n              add\n                /* \"#utility.yul\":5984:6013   */\n              swap1\n              pop\n                /* \"#utility.yul\":5850:6019   */\n              swap3\n              swap2\n              pop\n              pop\n              jump\t// out\n                /* \"#utility.yul\":6025:6121   */\n            tag_81:\n                /* \"#utility.yul\":6062:6069   */\n              0x00\n                /* \"#utility.yul\":6091:6115   */\n              tag_136\n                /* \"#utility.yul\":6109:6114   */\n              dup3\n                /* \"#utility.yul\":6091:6115   */\n              tag_137\n              jump\t// in\n            tag_136:\n                /* \"#utility.yul\":6080:6115   */\n              swap1\n              pop\n                /* \"#utility.yul\":6025:6121   */\n              swap2\n              swap1\n              pop\n              jump\t// out\n                /* \"#utility.yul\":6127:6253   */\n            tag_137:\n                /* \"#utility.yul\":6164:6171   */\n              0x00\n                /* \"#utility.yul\":6204:6246   */\n              0xffffffffffffffffffffffffffffffffffffffff\n                /* \"#utility.yul\":6197:6202   */\n              dup3\n                /* \"#utility.yul\":6193:6247   */\n              and\n                /* \"#utility.yul\":6182:6247   */\n              swap1\n              pop\n                /* \"#utility.yul\":6127:6253   */\n              swap2\n              swap1\n              pop\n              jump\t// out\n                /* \"#utility.yul\":6259:6336   */\n            tag_112:\n                /* \"#utility.yul\":6296:6303   */\n              0x00\n                /* \"#utility.yul\":6325:6330   */\n              dup2\n                /* \"#utility.yul\":6314:6330   */\n              swap1\n              pop\n                /* \"#utility.yul\":6259:6336   */\n              swap2\n              swap1\n              pop\n              jump\t// out\n                /* \"#utility.yul\":6465:6582   */\n            tag_76:\n                /* \"#utility.yul\":6574:6575   */\n              0x00\n                /* \"#utility.yul\":6571:6572   */\n              dup1\n                /* \"#utility.yul\":6564:6576   */\n              revert\n                /* \"#utility.yul\":6588:6756   */\n            tag_87:\n                /* \"#utility.yul\":6728:6748   */\n              0x496e73756666696369656e742066756e64730000000000000000000000000000\n                /* \"#utility.yul\":6724:6725   */\n              0x00\n                /* \"#utility.yul\":6716:6722   */\n              dup3\n                /* \"#utility.yul\":6712:6726   */\n              add\n                /* \"#utility.yul\":6705:6749   */\n              mstore\n                /* \"#utility.yul\":6588:6756   */\n              pop\n              jump\t// out\n                /* \"#utility.yul\":6762:6991   */\n            tag_92:\n                /* \"#utility.yul\":6902:6936   */\n              0x5061796d656e74206661696c65642e2054727920616761696e20696e20736f6d\n                /* \"#utility.yul\":6898:6899   */\n              0x00\n                /* \"#utility.yul\":6890:6896   */\n              dup3\n                /* \"#utility.yul\":6886:6900   */\n              add\n                /* \"#utility.yul\":6879:6937   */\n              mstore\n                /* \"#utility.yul\":6971:6983   */\n              0x65206d696e757465732e00000000000000000000000000000000000000000000\n                /* \"#utility.yul\":6966:6968   */\n              0x20\n                /* \"#utility.yul\":6958:6964   */\n              dup3\n                /* \"#utility.yul\":6954:6969   */\n              add\n                /* \"#utility.yul\":6947:6984   */\n              mstore\n                /* \"#utility.yul\":6762:6991   */\n              pop\n              jump\t// out\n                /* \"#utility.yul\":6997:7171   */\n            tag_97:\n                /* \"#utility.yul\":7137:7163   */\n              0x557365723a20496e73756666696369656e742066756e64730000000000000000\n                /* \"#utility.yul\":7133:7134   */\n              0x00\n                /* \"#utility.yul\":7125:7131   */\n              dup3\n                /* \"#utility.yul\":7121:7135   */\n              add\n                /* \"#utility.yul\":7114:7164   */\n              mstore\n                /* \"#utility.yul\":6997:7171   */\n              pop\n              jump\t// out\n                /* \"#utility.yul\":7177:7291   */\n            tag_103:\n              pop\n              jump\t// out\n                /* \"#utility.yul\":7297:7529   */\n            tag_108:\n                /* \"#utility.yul\":7437:7471   */\n              0x5769746864726177616c206661696c65642e2054727920616761696e20696e20\n                /* \"#utility.yul\":7433:7434   */\n              0x00\n                /* \"#utility.yul\":7425:7431   */\n              dup3\n                /* \"#utility.yul\":7421:7435   */\n              add\n                /* \"#utility.yul\":7414:7472   */\n              mstore\n                /* \"#utility.yul\":7506:7521   */\n              0x736f6d65206d696e757465732e00000000000000000000000000000000000000\n                /* \"#utility.yul\":7501:7503   */\n              0x20\n                /* \"#utility.yul\":7493:7499   */\n              dup3\n                /* \"#utility.yul\":7489:7504   */\n              add\n                /* \"#utility.yul\":7482:7522   */\n              mstore\n                /* \"#utility.yul\":7297:7529   */\n              pop\n              jump\t// out\n                /* \"#utility.yul\":7535:7657   */\n            tag_72:\n                /* \"#utility.yul\":7608:7632   */\n              tag_149\n                /* \"#utility.yul\":7626:7631   */\n              dup2\n                /* \"#utility.yul\":7608:7632   */\n              tag_112\n              jump\t// in\n            tag_149:\n                /* \"#utility.yul\":7601:7606   */\n              dup2\n                /* \"#utility.yul\":7598:7633   */\n              eq\n                /* \"#utility.yul\":7588:7651   */\n              tag_150\n              jumpi\n                /* \"#utility.yul\":7647:7648   */\n              0x00\n                /* \"#utility.yul\":7644:7645   */\n              dup1\n                /* \"#utility.yul\":7637:7649   */\n              revert\n                /* \"#utility.yul\":7588:7651   */\n            tag_150:\n                /* \"#utility.yul\":7535:7657   */\n              pop\n              jump\t// out\n\n            auxdata: 0xa2646970667358221220c17d509b097b52b946c9c19b53e5fb525fd9e1a3be38560da190a0f59eaa38bb64736f6c63430008070033\n        }\n    }\n\n    auxdata: 0xa26469706673582212204aae3400f78e73cf3d35cbf3d4d00b2f21ee2237f2a55dcd91ab056677b16f9064736f6c63430008070033\n}\n",
				"bytecode": {
					"linkReferences": {},
					"object": "608060405234801561001057600080fd5b5061002d61002261003260201b60201c565b61003a60201b60201c565b6100fe565b600033905090565b60008060009054906101000a900473ffffffffffffffffffffffffffffffffffffffff169050816000806101000a81548173ffffffffffffffffffffffffffffffffffffffff021916908373ffffffffffffffffffffffffffffffffffffffff1602179055508173ffffffffffffffffffffffffffffffffffffffff168173ffffffffffffffffffffffffffffffffffffffff167f8be0079c531659141344cd1fd0a4f28419497f9722a3daafe3b4186f6b6457e060405160405180910390a35050565b612b238061010d6000396000f3fe608060405260043610620000d95760003560e01c80638da5cb5b116200008b578063cd7d77c51162000061578063cd7d77c51462000219578063eb20f21a1462000247578063ec3ab2741462000261578063f2fde38b146200027b57620000e1565b80638da5cb5b14620001af578063bce5870314620001df578063c2d2a83c146200020d57620000e1565b806308b567fc14620000e35780632db3361b146200011157806342e36b3b146200011d578063715018a6146200013757806372673e31146200015157806385ffebd7146200017f57620000e1565b36620000e157005b005b348015620000f057600080fd5b506200010f600480360381019062000109919062000e72565b620002a9565b005b6200011b620003b6565b005b3480156200012a57600080fd5b506200013562000516565b005b3480156200014457600080fd5b506200014f6200056b565b005b3480156200015e57600080fd5b506200017d600480360381019062000177919062000dda565b62000583565b005b3480156200018c57600080fd5b506200019762000631565b604051620001a691906200111f565b60405180910390f35b348015620001bc57600080fd5b50620001c762000639565b604051620001d691906200111f565b60405180910390f35b348015620001ec57600080fd5b506200020b600480360381019062000205919062000f38565b62000662565b005b6200021762000778565b005b3480156200022657600080fd5b506200024560048036038101906200023f919062000e40565b620008d8565b005b3480156200025457600080fd5b506200025f620008db565b005b3480156200026e57600080fd5b506200027962000971565b005b3480156200028857600080fd5b50620002a76004803603810190620002a1919062000d76565b62000973565b005b8484848484604051620002bc9062000b4f565b620002cc95949392919062001203565b604051809103906000f080158015620002e9573d6000803e3d6000fd5b50600460006101000a81548173ffffffffffffffffffffffffffffffffffffffff021916908373ffffffffffffffffffffffffffffffffffffffff1602179055506001600460009054906101000a900473ffffffffffffffffffffffffffffffffffffffff169080600181540180825580915050600190039060005260206000200160009091909190916101000a81548173ffffffffffffffffffffffffffffffffffffffff021916908373ffffffffffffffffffffffffffffffffffffffff1602179055505050505050565b6000600560009054906101000a900473ffffffffffffffffffffffffffffffffffffffff1673ffffffffffffffffffffffffffffffffffffffff166338cc48316040518163ffffffff1660e01b815260040160206040518083038186803b1580156200042157600080fd5b505afa15801562000436573d6000803e3d6000fd5b505050506040513d601f19601f820116820180604052508101906200045c919062000da8565b73ffffffffffffffffffffffffffffffffffffffff1634604051620004819062001108565b60006040518083038185875af1925050503d8060008114620004c0576040519150601f19603f3d011682016040523d82523d6000602084013e620004c5565b606091505b50509050600115158115151462000513576040517f08c379a00000000000000000000000000000000000000000000000000000000081526004016200050a906200119d565b60405180910390fd5b50565b62000520620009fe565b60008047101562000568576040517f08c379a00000000000000000000000000000000000000000000000000000000081526004016200055f906200117b565b60405180910390fd5b50565b62000575620009fe565b62000581600062000a83565b565b6200058d620009fe565b60405180604001604052808381526020018281525060066000820151816000019080519060200190620005c292919062000b5d565b506020820151816001015590505060036006908060018154018082558091505060019003906000526020600020906002020160009091909190915060008201816000019080546200061390620013e8565b6200062092919062000bee565b506001820154816001015550505050565b600030905090565b60008060009054906101000a900473ffffffffffffffffffffffffffffffffffffffff16905090565b6200066c620009fe565b83838383306040516200067f9062000c86565b6200068f9594939291906200126e565b604051809103906000f080158015620006ac573d6000803e3d6000fd5b50600560006101000a81548173ffffffffffffffffffffffffffffffffffffffff021916908373ffffffffffffffffffffffffffffffffffffffff1602179055506002600560009054906101000a900473ffffffffffffffffffffffffffffffffffffffff169080600181540180825580915050600190039060005260206000200160009091909190916101000a81548173ffffffffffffffffffffffffffffffffffffffff021916908373ffffffffffffffffffffffffffffffffffffffff16021790555050505050565b6000600460009054906101000a900473ffffffffffffffffffffffffffffffffffffffff1673ffffffffffffffffffffffffffffffffffffffff166338cc48316040518163ffffffff1660e01b815260040160206040518083038186803b158015620007e357600080fd5b505afa158015620007f8573d6000803e3d6000fd5b505050506040513d601f19601f820116820180604052508101906200081e919062000da8565b73ffffffffffffffffffffffffffffffffffffffff1634604051620008439062001108565b60006040518083038185875af1925050503d806000811462000882576040519150601f19603f3d011682016040523d82523d6000602084013e62000887565b606091505b505090506001151581151514620008d5576040517f08c379a0000000000000000000000000000000000000000000000000000000008152600401620008cc90620011bf565b60405180910390fd5b50565b50565b600560009054906101000a900473ffffffffffffffffffffffffffffffffffffffff1673ffffffffffffffffffffffffffffffffffffffff1663835fc6ca620186a06040518263ffffffff1660e01b81526004016200093b91906200113c565b600060405180830381600087803b1580156200095657600080fd5b505af11580156200096b573d6000803e3d6000fd5b50505050565b565b6200097d620009fe565b600073ffffffffffffffffffffffffffffffffffffffff168173ffffffffffffffffffffffffffffffffffffffff161415620009f0576040517f08c379a0000000000000000000000000000000000000000000000000000000008152600401620009e79062001159565b60405180910390fd5b620009fb8162000a83565b50565b62000a0862000b47565b73ffffffffffffffffffffffffffffffffffffffff1662000a2862000639565b73ffffffffffffffffffffffffffffffffffffffff161462000a81576040517f08c379a000000000000000000000000000000000000000000000000000000000815260040162000a7890620011e1565b60405180910390fd5b565b60008060009054906101000a900473ffffffffffffffffffffffffffffffffffffffff169050816000806101000a81548173ffffffffffffffffffffffffffffffffffffffff021916908373ffffffffffffffffffffffffffffffffffffffff1602179055508173ffffffffffffffffffffffffffffffffffffffff168173ffffffffffffffffffffffffffffffffffffffff167f8be0079c531659141344cd1fd0a4f28419497f9722a3daafe3b4186f6b6457e060405160405180910390a35050565b600033905090565b610a92806200160283390190565b82805462000b6b90620013e8565b90600052602060002090601f01602090048101928262000b8f576000855562000bdb565b82601f1062000baa57805160ff191683800117855562000bdb565b8280016001018555821562000bdb579182015b8281111562000bda57825182559160200191906001019062000bbd565b5b50905062000bea919062000c94565b5090565b82805462000bfc90620013e8565b90600052602060002090601f01602090048101928262000c20576000855562000c73565b82601f1062000c33578054855562000c73565b8280016001018555821562000c7357600052602060002091601f016020900482015b8281111562000c7257825482559160010191906001019062000c55565b5b50905062000c82919062000c94565b5090565b610a5a806200209483390190565b5b8082111562000caf57600081600090555060010162000c95565b5090565b600062000cca62000cc484620012f4565b620012cb565b90508281526020810184848401111562000ce95762000ce8620014b7565b5b62000cf6848285620013a3565b509392505050565b60008135905062000d0f81620015cd565b92915050565b60008151905062000d2681620015cd565b92915050565b600082601f83011262000d445762000d43620014b2565b5b813562000d5684826020860162000cb3565b91505092915050565b60008135905062000d7081620015e7565b92915050565b60006020828403121562000d8f5762000d8e620014c1565b5b600062000d9f8482850162000cfe565b91505092915050565b60006020828403121562000dc15762000dc0620014c1565b5b600062000dd18482850162000d15565b91505092915050565b6000806040838503121562000df45762000df3620014c1565b5b600083013567ffffffffffffffff81111562000e155762000e14620014bc565b5b62000e238582860162000d2c565b925050602062000e368582860162000d5f565b9150509250929050565b60006020828403121562000e595762000e58620014c1565b5b600062000e698482850162000d5f565b91505092915050565b600080600080600060a0868803121562000e915762000e90620014c1565b5b600062000ea18882890162000d5f565b955050602062000eb48882890162000cfe565b945050604086013567ffffffffffffffff81111562000ed85762000ed7620014bc565b5b62000ee68882890162000d2c565b935050606086013567ffffffffffffffff81111562000f0a5762000f09620014bc565b5b62000f188882890162000d2c565b925050608062000f2b8882890162000d5f565b9150509295509295909350565b6000806000806080858703121562000f555762000f54620014c1565b5b600062000f658782880162000d5f565b945050602062000f788782880162000cfe565b935050604062000f8b8782880162000d5f565b925050606062000f9e8782880162000d5f565b91505092959194509250565b62000fb58162001351565b82525050565b62000fc6816200138f565b82525050565b600062000fd9826200132a565b62000fe5818562001340565b935062000ff7818560208601620013b2565b6200100281620014c6565b840191505092915050565b60006200101c60268362001340565b91506200102982620014d7565b604082019050919050565b60006200104360128362001340565b9150620010508262001526565b602082019050919050565b60006200106a60168362001340565b915062001077826200154f565b602082019050919050565b60006200109160188362001340565b91506200109e8262001578565b602082019050919050565b6000620010b860208362001340565b9150620010c582620015a1565b602082019050919050565b6000620010df60008362001335565b9150620010ec82620015ca565b600082019050919050565b620011028162001385565b82525050565b60006200111582620010d0565b9150819050919050565b600060208201905062001136600083018462000faa565b92915050565b600060208201905062001153600083018462000fbb565b92915050565b6000602082019050818103600083015262001174816200100d565b9050919050565b60006020820190508181036000830152620011968162001034565b9050919050565b60006020820190508181036000830152620011b8816200105b565b9050919050565b60006020820190508181036000830152620011da8162001082565b9050919050565b60006020820190508181036000830152620011fc81620010a9565b9050919050565b600060a0820190506200121a6000830188620010f7565b62001229602083018762000faa565b81810360408301526200123d818662000fcc565b9050818103606083015262001253818562000fcc565b9050620012646080830184620010f7565b9695505050505050565b600060a082019050620012856000830188620010f7565b62001294602083018762000faa565b620012a36040830186620010f7565b620012b26060830185620010f7565b620012c1608083018462000faa565b9695505050505050565b6000620012d7620012ea565b9050620012e582826200141e565b919050565b6000604051905090565b600067ffffffffffffffff82111562001312576200131162001483565b5b6200131d82620014c6565b9050602081019050919050565b600081519050919050565b600081905092915050565b600082825260208201905092915050565b60006200135e8262001365565b9050919050565b600073ffffffffffffffffffffffffffffffffffffffff82169050919050565b6000819050919050565b60006200139c8262001385565b9050919050565b82818337600083830152505050565b60005b83811015620013d2578082015181840152602081019050620013b5565b83811115620013e2576000848401525b50505050565b600060028204905060018216806200140157607f821691505b6020821081141562001418576200141762001454565b5b50919050565b6200142982620014c6565b810181811067ffffffffffffffff821117156200144b576200144a62001483565b5b80604052505050565b7f4e487b7100000000000000000000000000000000000000000000000000000000600052602260045260246000fd5b7f4e487b7100000000000000000000000000000000000000000000000000000000600052604160045260246000fd5b600080fd5b600080fd5b600080fd5b600080fd5b6000601f19601f8301169050919050565b7f4f776e61626c653a206e6577206f776e657220697320746865207a65726f206160008201527f6464726573730000000000000000000000000000000000000000000000000000602082015250565b7f496e73756666696369656e742066756e64730000000000000000000000000000600082015250565b7f54656e616e74206e6f207075646f207265636962697200000000000000000000600082015250565b7f456d706c6f796565206e6f207075646f20726563696269720000000000000000600082015250565b7f4f776e61626c653a2063616c6c6572206973206e6f7420746865206f776e6572600082015250565b50565b620015d88162001351565b8114620015e457600080fd5b50565b620015f28162001385565b8114620015fe57600080fd5b5056fe60806040523480156200001157600080fd5b5060405162000a9238038062000a92833981810160405281019062000037919062000223565b84848160008190555080600160006101000a81548173ffffffffffffffffffffffffffffffffffffffff021916908373ffffffffffffffffffffffffffffffffffffffff160217905550505082600290805190602001906200009b929190620000c7565b508160039080519060200190620000b4929190620000c7565b50806004819055505050505050620004df565b828054620000d590620003bc565b90600052602060002090601f016020900481019282620000f9576000855562000145565b82601f106200011457805160ff191683800117855562000145565b8280016001018555821562000145579182015b828111156200014457825182559160200191906001019062000127565b5b50905062000154919062000158565b5090565b5b808211156200017357600081600090555060010162000159565b5090565b60006200018e620001888462000312565b620002e9565b905082815260208101848484011115620001ad57620001ac6200048b565b5b620001ba84828562000386565b509392505050565b600081519050620001d381620004ab565b92915050565b600082601f830112620001f157620001f062000486565b5b81516200020384826020860162000177565b91505092915050565b6000815190506200021d81620004c5565b92915050565b600080600080600060a0868803121562000242576200024162000495565b5b600062000252888289016200020c565b95505060206200026588828901620001c2565b945050604086015167ffffffffffffffff81111562000289576200028862000490565b5b6200029788828901620001d9565b935050606086015167ffffffffffffffff811115620002bb57620002ba62000490565b5b620002c988828901620001d9565b9250506080620002dc888289016200020c565b9150509295509295909350565b6000620002f562000308565b9050620003038282620003f2565b919050565b6000604051905090565b600067ffffffffffffffff82111562000330576200032f62000457565b5b6200033b826200049a565b9050602081019050919050565b600062000355826200035c565b9050919050565b600073ffffffffffffffffffffffffffffffffffffffff82169050919050565b6000819050919050565b60005b83811015620003a657808201518184015260208101905062000389565b83811115620003b6576000848401525b50505050565b60006002820490506001821680620003d557607f821691505b60208210811415620003ec57620003eb62000428565b5b50919050565b620003fd826200049a565b810181811067ffffffffffffffff821117156200041f576200041e62000457565b5b80604052505050565b7f4e487b7100000000000000000000000000000000000000000000000000000000600052602260045260246000fd5b7f4e487b7100000000000000000000000000000000000000000000000000000000600052604160045260246000fd5b600080fd5b600080fd5b600080fd5b600080fd5b6000601f19601f8301169050919050565b620004b68162000348565b8114620004c257600080fd5b50565b620004d0816200037c565b8114620004dc57600080fd5b50565b6105a380620004ef6000396000f3fe6080604052600436106100435760003560e01c806338cc4831146100c2578063835fc6ca146100ed578063af640d0f14610116578063f2bcd0221461014157610085565b36610085577f2d27851832fcac28a0d4af1344f01fed7ffcfd15171c14c564a0c42aa57ae5c034304760405161007b93929190610447565b60405180910390a1005b7f2d27851832fcac28a0d4af1344f01fed7ffcfd15171c14c564a0c42aa57ae5c03430476040516100b893929190610447565b60405180910390a1005b3480156100ce57600080fd5b506100d761016c565b6040516100e491906103d1565b60405180910390f35b3480156100f957600080fd5b50610114600480360381019061010f9190610308565b610174565b005b34801561012257600080fd5b5061012b6102c7565b604051610138919061042c565b60405180910390f35b34801561014d57600080fd5b506101566102cd565b60405161016391906103d1565b60405180910390f35b600030905090565b804710156101b7576040517f08c379a00000000000000000000000000000000000000000000000000000000081526004016101ae906103ec565b60405180910390fd5b6000600160009054906101000a900473ffffffffffffffffffffffffffffffffffffffff1673ffffffffffffffffffffffffffffffffffffffff16826040516101ff906103bc565b60006040518083038185875af1925050503d806000811461023c576040519150601f19603f3d011682016040523d82523d6000602084013e610241565b606091505b50509050600115158115151461028c576040517f08c379a00000000000000000000000000000000000000000000000000000000081526004016102839061040c565b60405180910390fd5b7f794032702377d1e7eb93381e2467d569394569207a770af85b3222a361126c91476040516102bb919061042c565b60405180910390a15050565b60005481565b600160009054906101000a900473ffffffffffffffffffffffffffffffffffffffff1681565b60008135905061030281610556565b92915050565b60006020828403121561031e5761031d6104d6565b5b600061032c848285016102f3565b91505092915050565b61033e8161049a565b82525050565b6000610351601883610489565b915061035c826104db565b602082019050919050565b600061037460008361047e565b915061037f82610504565b600082019050919050565b6000610397602d83610489565b91506103a282610507565b604082019050919050565b6103b6816104cc565b82525050565b60006103c782610367565b9150819050919050565b60006020820190506103e66000830184610335565b92915050565b6000602082019050818103600083015261040581610344565b9050919050565b600060208201905081810360008301526104258161038a565b9050919050565b600060208201905061044160008301846103ad565b92915050565b600060608201905061045c60008301866103ad565b6104696020830185610335565b61047660408301846103ad565b949350505050565b600081905092915050565b600082825260208201905092915050565b60006104a5826104ac565b9050919050565b600073ffffffffffffffffffffffffffffffffffffffff82169050919050565b6000819050919050565b600080fd5b7f557365723a20496e73756666696369656e742066756e64730000000000000000600082015250565b50565b7f5769746864726177616c206661696c65642e2054727920616761696e20696e2060008201527f736f6d65206d696e757465732e00000000000000000000000000000000000000602082015250565b61055f816104cc565b811461056a57600080fd5b5056fea264697066735822122075d7c4a30508924e7adf60115b1b926f16dcc09549c27bd332fa9dd71da50e2364736f6c634300080700336080604052604051610a5a380380610a5a833981810160405281019061002591906100f4565b84848160008190555080600160006101000a81548173ffffffffffffffffffffffffffffffffffffffff021916908373ffffffffffffffffffffffffffffffffffffffff1602179055505050826002819055508160038190555080600460006101000a81548173ffffffffffffffffffffffffffffffffffffffff021916908373ffffffffffffffffffffffffffffffffffffffff16021790555050505050506101de565b6000815190506100d9816101b0565b92915050565b6000815190506100ee816101c7565b92915050565b600080600080600060a086880312156101105761010f6101ab565b5b600061011e888289016100df565b955050602061012f888289016100ca565b9450506040610140888289016100df565b9350506060610151888289016100df565b9250506080610162888289016100ca565b9150509295509295909350565b600061017a82610181565b9050919050565b600073ffffffffffffffffffffffffffffffffffffffff82169050919050565b6000819050919050565b600080fd5b6101b98161016f565b81146101c457600080fd5b50565b6101d0816101a1565b81146101db57600080fd5b50565b61086d806101ed6000396000f3fe6080604052600436106100595760003560e01c806338cc4831146100d8578063835fc6ca14610103578063af640d0f1461012c578063d0e30db014610157578063da6e75c214610161578063f2bcd022146101785761009b565b3661009b577f2d27851832fcac28a0d4af1344f01fed7ffcfd15171c14c564a0c42aa57ae5c034304760405161009193929190610699565b60405180910390a1005b7f2d27851832fcac28a0d4af1344f01fed7ffcfd15171c14c564a0c42aa57ae5c03430476040516100ce93929190610699565b60405180910390a1005b3480156100e457600080fd5b506100ed6101a3565b6040516100fa91906105e3565b60405180910390f35b34801561010f57600080fd5b5061012a600480360381019061012591906104d4565b6101ab565b005b34801561013857600080fd5b506101416102fe565b60405161014e919061067e565b60405180910390f35b61015f610304565b005b34801561016d57600080fd5b50610176610341565b005b34801561018457600080fd5b5061018d610499565b60405161019a91906105e3565b60405180910390f35b600030905090565b804710156101ee576040517f08c379a00000000000000000000000000000000000000000000000000000000081526004016101e59061063e565b60405180910390fd5b6000600160009054906101000a900473ffffffffffffffffffffffffffffffffffffffff1673ffffffffffffffffffffffffffffffffffffffff1682604051610236906105ce565b60006040518083038185875af1925050503d8060008114610273576040519150601f19603f3d011682016040523d82523d6000602084013e610278565b606091505b5050905060011515811515146102c3576040517f08c379a00000000000000000000000000000000000000000000000000000000081526004016102ba9061065e565b60405180910390fd5b7f794032702377d1e7eb93381e2467d569394569207a770af85b3222a361126c91476040516102f2919061067e565b60405180910390a15050565b60005481565b7f2d27851832fcac28a0d4af1344f01fed7ffcfd15171c14c564a0c42aa57ae5c034304760405161033793929190610699565b60405180910390a1565b600254471015610386576040517f08c379a000000000000000000000000000000000000000000000000000000000815260040161037d906105fe565b60405180910390fd5b6000600460009054906101000a900473ffffffffffffffffffffffffffffffffffffffff1673ffffffffffffffffffffffffffffffffffffffff166002546040516103d0906105ce565b60006040518083038185875af1925050503d806000811461040d576040519150601f19603f3d011682016040523d82523d6000602084013e610412565b606091505b50509050600115158115151461045d576040517f08c379a00000000000000000000000000000000000000000000000000000000081526004016104549061061e565b60405180910390fd5b7f56e1cf8a52e84572ff49b950fa9a1a1867319bf8eba3bf8c77bc4354678a34c560025460405161048e919061067e565b60405180910390a150565b600160009054906101000a900473ffffffffffffffffffffffffffffffffffffffff1681565b6000813590506104ce81610820565b92915050565b6000602082840312156104ea576104e9610728565b5b60006104f8848285016104bf565b91505092915050565b61050a816106ec565b82525050565b600061051d6012836106db565b91506105288261072d565b602082019050919050565b6000610540602a836106db565b915061054b82610756565b604082019050919050565b60006105636018836106db565b915061056e826107a5565b602082019050919050565b60006105866000836106d0565b9150610591826107ce565b600082019050919050565b60006105a9602d836106db565b91506105b4826107d1565b604082019050919050565b6105c88161071e565b82525050565b60006105d982610579565b9150819050919050565b60006020820190506105f86000830184610501565b92915050565b6000602082019050818103600083015261061781610510565b9050919050565b6000602082019050818103600083015261063781610533565b9050919050565b6000602082019050818103600083015261065781610556565b9050919050565b600060208201905081810360008301526106778161059c565b9050919050565b600060208201905061069360008301846105bf565b92915050565b60006060820190506106ae60008301866105bf565b6106bb6020830185610501565b6106c860408301846105bf565b949350505050565b600081905092915050565b600082825260208201905092915050565b60006106f7826106fe565b9050919050565b600073ffffffffffffffffffffffffffffffffffffffff82169050919050565b6000819050919050565b600080fd5b7f496e73756666696369656e742066756e64730000000000000000000000000000600082015250565b7f5061796d656e74206661696c65642e2054727920616761696e20696e20736f6d60008201527f65206d696e757465732e00000000000000000000000000000000000000000000602082015250565b7f557365723a20496e73756666696369656e742066756e64730000000000000000600082015250565b50565b7f5769746864726177616c206661696c65642e2054727920616761696e20696e2060008201527f736f6d65206d696e757465732e00000000000000000000000000000000000000602082015250565b6108298161071e565b811461083457600080fd5b5056fea2646970667358221220c17d509b097b52b946c9c19b53e5fb525fd9e1a3be38560da190a0f59eaa38bb64736f6c63430008070033a26469706673582212204aae3400f78e73cf3d35cbf3d4d00b2f21ee2237f2a55dcd91ab056677b16f9064736f6c63430008070033",
					"opcodes": "PUSH1 0x80 PUSH1 0x40 MSTORE CALLVALUE DUP1 ISZERO PUSH2 0x10 JUMPI PUSH1 0x0 DUP1 REVERT JUMPDEST POP PUSH2 0x2D PUSH2 0x22 PUSH2 0x32 PUSH1 0x20 SHL PUSH1 0x20 SHR JUMP JUMPDEST PUSH2 0x3A PUSH1 0x20 SHL PUSH1 0x20 SHR JUMP JUMPDEST PUSH2 0xFE JUMP JUMPDEST PUSH1 0x0 CALLER SWAP1 POP SWAP1 JUMP JUMPDEST PUSH1 0x0 DUP1 PUSH1 0x0 SWAP1 SLOAD SWAP1 PUSH2 0x100 EXP SWAP1 DIV PUSH20 0xFFFFFFFFFFFFFFFFFFFFFFFFFFFFFFFFFFFFFFFF AND SWAP1 POP DUP2 PUSH1 0x0 DUP1 PUSH2 0x100 EXP DUP2 SLOAD DUP2 PUSH20 0xFFFFFFFFFFFFFFFFFFFFFFFFFFFFFFFFFFFFFFFF MUL NOT AND SWAP1 DUP4 PUSH20 0xFFFFFFFFFFFFFFFFFFFFFFFFFFFFFFFFFFFFFFFF AND MUL OR SWAP1 SSTORE POP DUP2 PUSH20 0xFFFFFFFFFFFFFFFFFFFFFFFFFFFFFFFFFFFFFFFF AND DUP2 PUSH20 0xFFFFFFFFFFFFFFFFFFFFFFFFFFFFFFFFFFFFFFFF AND PUSH32 0x8BE0079C531659141344CD1FD0A4F28419497F9722A3DAAFE3B4186F6B6457E0 PUSH1 0x40 MLOAD PUSH1 0x40 MLOAD DUP1 SWAP2 SUB SWAP1 LOG3 POP POP JUMP JUMPDEST PUSH2 0x2B23 DUP1 PUSH2 0x10D PUSH1 0x0 CODECOPY PUSH1 0x0 RETURN INVALID PUSH1 0x80 PUSH1 0x40 MSTORE PUSH1 0x4 CALLDATASIZE LT PUSH3 0xD9 JUMPI PUSH1 0x0 CALLDATALOAD PUSH1 0xE0 SHR DUP1 PUSH4 0x8DA5CB5B GT PUSH3 0x8B JUMPI DUP1 PUSH4 0xCD7D77C5 GT PUSH3 0x61 JUMPI DUP1 PUSH4 0xCD7D77C5 EQ PUSH3 0x219 JUMPI DUP1 PUSH4 0xEB20F21A EQ PUSH3 0x247 JUMPI DUP1 PUSH4 0xEC3AB274 EQ PUSH3 0x261 JUMPI DUP1 PUSH4 0xF2FDE38B EQ PUSH3 0x27B JUMPI PUSH3 0xE1 JUMP JUMPDEST DUP1 PUSH4 0x8DA5CB5B EQ PUSH3 0x1AF JUMPI DUP1 PUSH4 0xBCE58703 EQ PUSH3 0x1DF JUMPI DUP1 PUSH4 0xC2D2A83C EQ PUSH3 0x20D JUMPI PUSH3 0xE1 JUMP JUMPDEST DUP1 PUSH4 0x8B567FC EQ PUSH3 0xE3 JUMPI DUP1 PUSH4 0x2DB3361B EQ PUSH3 0x111 JUMPI DUP1 PUSH4 0x42E36B3B EQ PUSH3 0x11D JUMPI DUP1 PUSH4 0x715018A6 EQ PUSH3 0x137 JUMPI DUP1 PUSH4 0x72673E31 EQ PUSH3 0x151 JUMPI DUP1 PUSH4 0x85FFEBD7 EQ PUSH3 0x17F JUMPI PUSH3 0xE1 JUMP JUMPDEST CALLDATASIZE PUSH3 0xE1 JUMPI STOP JUMPDEST STOP JUMPDEST CALLVALUE DUP1 ISZERO PUSH3 0xF0 JUMPI PUSH1 0x0 DUP1 REVERT JUMPDEST POP PUSH3 0x10F PUSH1 0x4 DUP1 CALLDATASIZE SUB DUP2 ADD SWAP1 PUSH3 0x109 SWAP2 SWAP1 PUSH3 0xE72 JUMP JUMPDEST PUSH3 0x2A9 JUMP JUMPDEST STOP JUMPDEST PUSH3 0x11B PUSH3 0x3B6 JUMP JUMPDEST STOP JUMPDEST CALLVALUE DUP1 ISZERO PUSH3 0x12A JUMPI PUSH1 0x0 DUP1 REVERT JUMPDEST POP PUSH3 0x135 PUSH3 0x516 JUMP JUMPDEST STOP JUMPDEST CALLVALUE DUP1 ISZERO PUSH3 0x144 JUMPI PUSH1 0x0 DUP1 REVERT JUMPDEST POP PUSH3 0x14F PUSH3 0x56B JUMP JUMPDEST STOP JUMPDEST CALLVALUE DUP1 ISZERO PUSH3 0x15E JUMPI PUSH1 0x0 DUP1 REVERT JUMPDEST POP PUSH3 0x17D PUSH1 0x4 DUP1 CALLDATASIZE SUB DUP2 ADD SWAP1 PUSH3 0x177 SWAP2 SWAP1 PUSH3 0xDDA JUMP JUMPDEST PUSH3 0x583 JUMP JUMPDEST STOP JUMPDEST CALLVALUE DUP1 ISZERO PUSH3 0x18C JUMPI PUSH1 0x0 DUP1 REVERT JUMPDEST POP PUSH3 0x197 PUSH3 0x631 JUMP JUMPDEST PUSH1 0x40 MLOAD PUSH3 0x1A6 SWAP2 SWAP1 PUSH3 0x111F JUMP JUMPDEST PUSH1 0x40 MLOAD DUP1 SWAP2 SUB SWAP1 RETURN JUMPDEST CALLVALUE DUP1 ISZERO PUSH3 0x1BC JUMPI PUSH1 0x0 DUP1 REVERT JUMPDEST POP PUSH3 0x1C7 PUSH3 0x639 JUMP JUMPDEST PUSH1 0x40 MLOAD PUSH3 0x1D6 SWAP2 SWAP1 PUSH3 0x111F JUMP JUMPDEST PUSH1 0x40 MLOAD DUP1 SWAP2 SUB SWAP1 RETURN JUMPDEST CALLVALUE DUP1 ISZERO PUSH3 0x1EC JUMPI PUSH1 0x0 DUP1 REVERT JUMPDEST POP PUSH3 0x20B PUSH1 0x4 DUP1 CALLDATASIZE SUB DUP2 ADD SWAP1 PUSH3 0x205 SWAP2 SWAP1 PUSH3 0xF38 JUMP JUMPDEST PUSH3 0x662 JUMP JUMPDEST STOP JUMPDEST PUSH3 0x217 PUSH3 0x778 JUMP JUMPDEST STOP JUMPDEST CALLVALUE DUP1 ISZERO PUSH3 0x226 JUMPI PUSH1 0x0 DUP1 REVERT JUMPDEST POP PUSH3 0x245 PUSH1 0x4 DUP1 CALLDATASIZE SUB DUP2 ADD SWAP1 PUSH3 0x23F SWAP2 SWAP1 PUSH3 0xE40 JUMP JUMPDEST PUSH3 0x8D8 JUMP JUMPDEST STOP JUMPDEST CALLVALUE DUP1 ISZERO PUSH3 0x254 JUMPI PUSH1 0x0 DUP1 REVERT JUMPDEST POP PUSH3 0x25F PUSH3 0x8DB JUMP JUMPDEST STOP JUMPDEST CALLVALUE DUP1 ISZERO PUSH3 0x26E JUMPI PUSH1 0x0 DUP1 REVERT JUMPDEST POP PUSH3 0x279 PUSH3 0x971 JUMP JUMPDEST STOP JUMPDEST CALLVALUE DUP1 ISZERO PUSH3 0x288 JUMPI PUSH1 0x0 DUP1 REVERT JUMPDEST POP PUSH3 0x2A7 PUSH1 0x4 DUP1 CALLDATASIZE SUB DUP2 ADD SWAP1 PUSH3 0x2A1 SWAP2 SWAP1 PUSH3 0xD76 JUMP JUMPDEST PUSH3 0x973 JUMP JUMPDEST STOP JUMPDEST DUP5 DUP5 DUP5 DUP5 DUP5 PUSH1 0x40 MLOAD PUSH3 0x2BC SWAP1 PUSH3 0xB4F JUMP JUMPDEST PUSH3 0x2CC SWAP6 SWAP5 SWAP4 SWAP3 SWAP2 SWAP1 PUSH3 0x1203 JUMP JUMPDEST PUSH1 0x40 MLOAD DUP1 SWAP2 SUB SWAP1 PUSH1 0x0 CREATE DUP1 ISZERO DUP1 ISZERO PUSH3 0x2E9 JUMPI RETURNDATASIZE PUSH1 0x0 DUP1 RETURNDATACOPY RETURNDATASIZE PUSH1 0x0 REVERT JUMPDEST POP PUSH1 0x4 PUSH1 0x0 PUSH2 0x100 EXP DUP2 SLOAD DUP2 PUSH20 0xFFFFFFFFFFFFFFFFFFFFFFFFFFFFFFFFFFFFFFFF MUL NOT AND SWAP1 DUP4 PUSH20 0xFFFFFFFFFFFFFFFFFFFFFFFFFFFFFFFFFFFFFFFF AND MUL OR SWAP1 SSTORE POP PUSH1 0x1 PUSH1 0x4 PUSH1 0x0 SWAP1 SLOAD SWAP1 PUSH2 0x100 EXP SWAP1 DIV PUSH20 0xFFFFFFFFFFFFFFFFFFFFFFFFFFFFFFFFFFFFFFFF AND SWAP1 DUP1 PUSH1 0x1 DUP2 SLOAD ADD DUP1 DUP3 SSTORE DUP1 SWAP2 POP POP PUSH1 0x1 SWAP1 SUB SWAP1 PUSH1 0x0 MSTORE PUSH1 0x20 PUSH1 0x0 KECCAK256 ADD PUSH1 0x0 SWAP1 SWAP2 SWAP1 SWAP2 SWAP1 SWAP2 PUSH2 0x100 EXP DUP2 SLOAD DUP2 PUSH20 0xFFFFFFFFFFFFFFFFFFFFFFFFFFFFFFFFFFFFFFFF MUL NOT AND SWAP1 DUP4 PUSH20 0xFFFFFFFFFFFFFFFFFFFFFFFFFFFFFFFFFFFFFFFF AND MUL OR SWAP1 SSTORE POP POP POP POP POP POP JUMP JUMPDEST PUSH1 0x0 PUSH1 0x5 PUSH1 0x0 SWAP1 SLOAD SWAP1 PUSH2 0x100 EXP SWAP1 DIV PUSH20 0xFFFFFFFFFFFFFFFFFFFFFFFFFFFFFFFFFFFFFFFF AND PUSH20 0xFFFFFFFFFFFFFFFFFFFFFFFFFFFFFFFFFFFFFFFF AND PUSH4 0x38CC4831 PUSH1 0x40 MLOAD DUP2 PUSH4 0xFFFFFFFF AND PUSH1 0xE0 SHL DUP2 MSTORE PUSH1 0x4 ADD PUSH1 0x20 PUSH1 0x40 MLOAD DUP1 DUP4 SUB DUP2 DUP7 DUP1 EXTCODESIZE ISZERO DUP1 ISZERO PUSH3 0x421 JUMPI PUSH1 0x0 DUP1 REVERT JUMPDEST POP GAS STATICCALL ISZERO DUP1 ISZERO PUSH3 0x436 JUMPI RETURNDATASIZE PUSH1 0x0 DUP1 RETURNDATACOPY RETURNDATASIZE PUSH1 0x0 REVERT JUMPDEST POP POP POP POP PUSH1 0x40 MLOAD RETURNDATASIZE PUSH1 0x1F NOT PUSH1 0x1F DUP3 ADD AND DUP3 ADD DUP1 PUSH1 0x40 MSTORE POP DUP2 ADD SWAP1 PUSH3 0x45C SWAP2 SWAP1 PUSH3 0xDA8 JUMP JUMPDEST PUSH20 0xFFFFFFFFFFFFFFFFFFFFFFFFFFFFFFFFFFFFFFFF AND CALLVALUE PUSH1 0x40 MLOAD PUSH3 0x481 SWAP1 PUSH3 0x1108 JUMP JUMPDEST PUSH1 0x0 PUSH1 0x40 MLOAD DUP1 DUP4 SUB DUP2 DUP6 DUP8 GAS CALL SWAP3 POP POP POP RETURNDATASIZE DUP1 PUSH1 0x0 DUP2 EQ PUSH3 0x4C0 JUMPI PUSH1 0x40 MLOAD SWAP2 POP PUSH1 0x1F NOT PUSH1 0x3F RETURNDATASIZE ADD AND DUP3 ADD PUSH1 0x40 MSTORE RETURNDATASIZE DUP3 MSTORE RETURNDATASIZE PUSH1 0x0 PUSH1 0x20 DUP5 ADD RETURNDATACOPY PUSH3 0x4C5 JUMP JUMPDEST PUSH1 0x60 SWAP2 POP JUMPDEST POP POP SWAP1 POP PUSH1 0x1 ISZERO ISZERO DUP2 ISZERO ISZERO EQ PUSH3 0x513 JUMPI PUSH1 0x40 MLOAD PUSH32 0x8C379A000000000000000000000000000000000000000000000000000000000 DUP2 MSTORE PUSH1 0x4 ADD PUSH3 0x50A SWAP1 PUSH3 0x119D JUMP JUMPDEST PUSH1 0x40 MLOAD DUP1 SWAP2 SUB SWAP1 REVERT JUMPDEST POP JUMP JUMPDEST PUSH3 0x520 PUSH3 0x9FE JUMP JUMPDEST PUSH1 0x0 DUP1 SELFBALANCE LT ISZERO PUSH3 0x568 JUMPI PUSH1 0x40 MLOAD PUSH32 0x8C379A000000000000000000000000000000000000000000000000000000000 DUP2 MSTORE PUSH1 0x4 ADD PUSH3 0x55F SWAP1 PUSH3 0x117B JUMP JUMPDEST PUSH1 0x40 MLOAD DUP1 SWAP2 SUB SWAP1 REVERT JUMPDEST POP JUMP JUMPDEST PUSH3 0x575 PUSH3 0x9FE JUMP JUMPDEST PUSH3 0x581 PUSH1 0x0 PUSH3 0xA83 JUMP JUMPDEST JUMP JUMPDEST PUSH3 0x58D PUSH3 0x9FE JUMP JUMPDEST PUSH1 0x40 MLOAD DUP1 PUSH1 0x40 ADD PUSH1 0x40 MSTORE DUP1 DUP4 DUP2 MSTORE PUSH1 0x20 ADD DUP3 DUP2 MSTORE POP PUSH1 0x6 PUSH1 0x0 DUP3 ADD MLOAD DUP2 PUSH1 0x0 ADD SWAP1 DUP1 MLOAD SWAP1 PUSH1 0x20 ADD SWAP1 PUSH3 0x5C2 SWAP3 SWAP2 SWAP1 PUSH3 0xB5D JUMP JUMPDEST POP PUSH1 0x20 DUP3 ADD MLOAD DUP2 PUSH1 0x1 ADD SSTORE SWAP1 POP POP PUSH1 0x3 PUSH1 0x6 SWAP1 DUP1 PUSH1 0x1 DUP2 SLOAD ADD DUP1 DUP3 SSTORE DUP1 SWAP2 POP POP PUSH1 0x1 SWAP1 SUB SWAP1 PUSH1 0x0 MSTORE PUSH1 0x20 PUSH1 0x0 KECCAK256 SWAP1 PUSH1 0x2 MUL ADD PUSH1 0x0 SWAP1 SWAP2 SWAP1 SWAP2 SWAP1 SWAP2 POP PUSH1 0x0 DUP3 ADD DUP2 PUSH1 0x0 ADD SWAP1 DUP1 SLOAD PUSH3 0x613 SWAP1 PUSH3 0x13E8 JUMP JUMPDEST PUSH3 0x620 SWAP3 SWAP2 SWAP1 PUSH3 0xBEE JUMP JUMPDEST POP PUSH1 0x1 DUP3 ADD SLOAD DUP2 PUSH1 0x1 ADD SSTORE POP POP POP POP JUMP JUMPDEST PUSH1 0x0 ADDRESS SWAP1 POP SWAP1 JUMP JUMPDEST PUSH1 0x0 DUP1 PUSH1 0x0 SWAP1 SLOAD SWAP1 PUSH2 0x100 EXP SWAP1 DIV PUSH20 0xFFFFFFFFFFFFFFFFFFFFFFFFFFFFFFFFFFFFFFFF AND SWAP1 POP SWAP1 JUMP JUMPDEST PUSH3 0x66C PUSH3 0x9FE JUMP JUMPDEST DUP4 DUP4 DUP4 DUP4 ADDRESS PUSH1 0x40 MLOAD PUSH3 0x67F SWAP1 PUSH3 0xC86 JUMP JUMPDEST PUSH3 0x68F SWAP6 SWAP5 SWAP4 SWAP3 SWAP2 SWAP1 PUSH3 0x126E JUMP JUMPDEST PUSH1 0x40 MLOAD DUP1 SWAP2 SUB SWAP1 PUSH1 0x0 CREATE DUP1 ISZERO DUP1 ISZERO PUSH3 0x6AC JUMPI RETURNDATASIZE PUSH1 0x0 DUP1 RETURNDATACOPY RETURNDATASIZE PUSH1 0x0 REVERT JUMPDEST POP PUSH1 0x5 PUSH1 0x0 PUSH2 0x100 EXP DUP2 SLOAD DUP2 PUSH20 0xFFFFFFFFFFFFFFFFFFFFFFFFFFFFFFFFFFFFFFFF MUL NOT AND SWAP1 DUP4 PUSH20 0xFFFFFFFFFFFFFFFFFFFFFFFFFFFFFFFFFFFFFFFF AND MUL OR SWAP1 SSTORE POP PUSH1 0x2 PUSH1 0x5 PUSH1 0x0 SWAP1 SLOAD SWAP1 PUSH2 0x100 EXP SWAP1 DIV PUSH20 0xFFFFFFFFFFFFFFFFFFFFFFFFFFFFFFFFFFFFFFFF AND SWAP1 DUP1 PUSH1 0x1 DUP2 SLOAD ADD DUP1 DUP3 SSTORE DUP1 SWAP2 POP POP PUSH1 0x1 SWAP1 SUB SWAP1 PUSH1 0x0 MSTORE PUSH1 0x20 PUSH1 0x0 KECCAK256 ADD PUSH1 0x0 SWAP1 SWAP2 SWAP1 SWAP2 SWAP1 SWAP2 PUSH2 0x100 EXP DUP2 SLOAD DUP2 PUSH20 0xFFFFFFFFFFFFFFFFFFFFFFFFFFFFFFFFFFFFFFFF MUL NOT AND SWAP1 DUP4 PUSH20 0xFFFFFFFFFFFFFFFFFFFFFFFFFFFFFFFFFFFFFFFF AND MUL OR SWAP1 SSTORE POP POP POP POP POP JUMP JUMPDEST PUSH1 0x0 PUSH1 0x4 PUSH1 0x0 SWAP1 SLOAD SWAP1 PUSH2 0x100 EXP SWAP1 DIV PUSH20 0xFFFFFFFFFFFFFFFFFFFFFFFFFFFFFFFFFFFFFFFF AND PUSH20 0xFFFFFFFFFFFFFFFFFFFFFFFFFFFFFFFFFFFFFFFF AND PUSH4 0x38CC4831 PUSH1 0x40 MLOAD DUP2 PUSH4 0xFFFFFFFF AND PUSH1 0xE0 SHL DUP2 MSTORE PUSH1 0x4 ADD PUSH1 0x20 PUSH1 0x40 MLOAD DUP1 DUP4 SUB DUP2 DUP7 DUP1 EXTCODESIZE ISZERO DUP1 ISZERO PUSH3 0x7E3 JUMPI PUSH1 0x0 DUP1 REVERT JUMPDEST POP GAS STATICCALL ISZERO DUP1 ISZERO PUSH3 0x7F8 JUMPI RETURNDATASIZE PUSH1 0x0 DUP1 RETURNDATACOPY RETURNDATASIZE PUSH1 0x0 REVERT JUMPDEST POP POP POP POP PUSH1 0x40 MLOAD RETURNDATASIZE PUSH1 0x1F NOT PUSH1 0x1F DUP3 ADD AND DUP3 ADD DUP1 PUSH1 0x40 MSTORE POP DUP2 ADD SWAP1 PUSH3 0x81E SWAP2 SWAP1 PUSH3 0xDA8 JUMP JUMPDEST PUSH20 0xFFFFFFFFFFFFFFFFFFFFFFFFFFFFFFFFFFFFFFFF AND CALLVALUE PUSH1 0x40 MLOAD PUSH3 0x843 SWAP1 PUSH3 0x1108 JUMP JUMPDEST PUSH1 0x0 PUSH1 0x40 MLOAD DUP1 DUP4 SUB DUP2 DUP6 DUP8 GAS CALL SWAP3 POP POP POP RETURNDATASIZE DUP1 PUSH1 0x0 DUP2 EQ PUSH3 0x882 JUMPI PUSH1 0x40 MLOAD SWAP2 POP PUSH1 0x1F NOT PUSH1 0x3F RETURNDATASIZE ADD AND DUP3 ADD PUSH1 0x40 MSTORE RETURNDATASIZE DUP3 MSTORE RETURNDATASIZE PUSH1 0x0 PUSH1 0x20 DUP5 ADD RETURNDATACOPY PUSH3 0x887 JUMP JUMPDEST PUSH1 0x60 SWAP2 POP JUMPDEST POP POP SWAP1 POP PUSH1 0x1 ISZERO ISZERO DUP2 ISZERO ISZERO EQ PUSH3 0x8D5 JUMPI PUSH1 0x40 MLOAD PUSH32 0x8C379A000000000000000000000000000000000000000000000000000000000 DUP2 MSTORE PUSH1 0x4 ADD PUSH3 0x8CC SWAP1 PUSH3 0x11BF JUMP JUMPDEST PUSH1 0x40 MLOAD DUP1 SWAP2 SUB SWAP1 REVERT JUMPDEST POP JUMP JUMPDEST POP JUMP JUMPDEST PUSH1 0x5 PUSH1 0x0 SWAP1 SLOAD SWAP1 PUSH2 0x100 EXP SWAP1 DIV PUSH20 0xFFFFFFFFFFFFFFFFFFFFFFFFFFFFFFFFFFFFFFFF AND PUSH20 0xFFFFFFFFFFFFFFFFFFFFFFFFFFFFFFFFFFFFFFFF AND PUSH4 0x835FC6CA PUSH3 0x186A0 PUSH1 0x40 MLOAD DUP3 PUSH4 0xFFFFFFFF AND PUSH1 0xE0 SHL DUP2 MSTORE PUSH1 0x4 ADD PUSH3 0x93B SWAP2 SWAP1 PUSH3 0x113C JUMP JUMPDEST PUSH1 0x0 PUSH1 0x40 MLOAD DUP1 DUP4 SUB DUP2 PUSH1 0x0 DUP8 DUP1 EXTCODESIZE ISZERO DUP1 ISZERO PUSH3 0x956 JUMPI PUSH1 0x0 DUP1 REVERT JUMPDEST POP GAS CALL ISZERO DUP1 ISZERO PUSH3 0x96B JUMPI RETURNDATASIZE PUSH1 0x0 DUP1 RETURNDATACOPY RETURNDATASIZE PUSH1 0x0 REVERT JUMPDEST POP POP POP POP JUMP JUMPDEST JUMP JUMPDEST PUSH3 0x97D PUSH3 0x9FE JUMP JUMPDEST PUSH1 0x0 PUSH20 0xFFFFFFFFFFFFFFFFFFFFFFFFFFFFFFFFFFFFFFFF AND DUP2 PUSH20 0xFFFFFFFFFFFFFFFFFFFFFFFFFFFFFFFFFFFFFFFF AND EQ ISZERO PUSH3 0x9F0 JUMPI PUSH1 0x40 MLOAD PUSH32 0x8C379A000000000000000000000000000000000000000000000000000000000 DUP2 MSTORE PUSH1 0x4 ADD PUSH3 0x9E7 SWAP1 PUSH3 0x1159 JUMP JUMPDEST PUSH1 0x40 MLOAD DUP1 SWAP2 SUB SWAP1 REVERT JUMPDEST PUSH3 0x9FB DUP2 PUSH3 0xA83 JUMP JUMPDEST POP JUMP JUMPDEST PUSH3 0xA08 PUSH3 0xB47 JUMP JUMPDEST PUSH20 0xFFFFFFFFFFFFFFFFFFFFFFFFFFFFFFFFFFFFFFFF AND PUSH3 0xA28 PUSH3 0x639 JUMP JUMPDEST PUSH20 0xFFFFFFFFFFFFFFFFFFFFFFFFFFFFFFFFFFFFFFFF AND EQ PUSH3 0xA81 JUMPI PUSH1 0x40 MLOAD PUSH32 0x8C379A000000000000000000000000000000000000000000000000000000000 DUP2 MSTORE PUSH1 0x4 ADD PUSH3 0xA78 SWAP1 PUSH3 0x11E1 JUMP JUMPDEST PUSH1 0x40 MLOAD DUP1 SWAP2 SUB SWAP1 REVERT JUMPDEST JUMP JUMPDEST PUSH1 0x0 DUP1 PUSH1 0x0 SWAP1 SLOAD SWAP1 PUSH2 0x100 EXP SWAP1 DIV PUSH20 0xFFFFFFFFFFFFFFFFFFFFFFFFFFFFFFFFFFFFFFFF AND SWAP1 POP DUP2 PUSH1 0x0 DUP1 PUSH2 0x100 EXP DUP2 SLOAD DUP2 PUSH20 0xFFFFFFFFFFFFFFFFFFFFFFFFFFFFFFFFFFFFFFFF MUL NOT AND SWAP1 DUP4 PUSH20 0xFFFFFFFFFFFFFFFFFFFFFFFFFFFFFFFFFFFFFFFF AND MUL OR SWAP1 SSTORE POP DUP2 PUSH20 0xFFFFFFFFFFFFFFFFFFFFFFFFFFFFFFFFFFFFFFFF AND DUP2 PUSH20 0xFFFFFFFFFFFFFFFFFFFFFFFFFFFFFFFFFFFFFFFF AND PUSH32 0x8BE0079C531659141344CD1FD0A4F28419497F9722A3DAAFE3B4186F6B6457E0 PUSH1 0x40 MLOAD PUSH1 0x40 MLOAD DUP1 SWAP2 SUB SWAP1 LOG3 POP POP JUMP JUMPDEST PUSH1 0x0 CALLER SWAP1 POP SWAP1 JUMP JUMPDEST PUSH2 0xA92 DUP1 PUSH3 0x1602 DUP4 CODECOPY ADD SWAP1 JUMP JUMPDEST DUP3 DUP1 SLOAD PUSH3 0xB6B SWAP1 PUSH3 0x13E8 JUMP JUMPDEST SWAP1 PUSH1 0x0 MSTORE PUSH1 0x20 PUSH1 0x0 KECCAK256 SWAP1 PUSH1 0x1F ADD PUSH1 0x20 SWAP1 DIV DUP2 ADD SWAP3 DUP3 PUSH3 0xB8F JUMPI PUSH1 0x0 DUP6 SSTORE PUSH3 0xBDB JUMP JUMPDEST DUP3 PUSH1 0x1F LT PUSH3 0xBAA JUMPI DUP1 MLOAD PUSH1 0xFF NOT AND DUP4 DUP1 ADD OR DUP6 SSTORE PUSH3 0xBDB JUMP JUMPDEST DUP3 DUP1 ADD PUSH1 0x1 ADD DUP6 SSTORE DUP3 ISZERO PUSH3 0xBDB JUMPI SWAP2 DUP3 ADD JUMPDEST DUP3 DUP2 GT ISZERO PUSH3 0xBDA JUMPI DUP3 MLOAD DUP3 SSTORE SWAP2 PUSH1 0x20 ADD SWAP2 SWAP1 PUSH1 0x1 ADD SWAP1 PUSH3 0xBBD JUMP JUMPDEST JUMPDEST POP SWAP1 POP PUSH3 0xBEA SWAP2 SWAP1 PUSH3 0xC94 JUMP JUMPDEST POP SWAP1 JUMP JUMPDEST DUP3 DUP1 SLOAD PUSH3 0xBFC SWAP1 PUSH3 0x13E8 JUMP JUMPDEST SWAP1 PUSH1 0x0 MSTORE PUSH1 0x20 PUSH1 0x0 KECCAK256 SWAP1 PUSH1 0x1F ADD PUSH1 0x20 SWAP1 DIV DUP2 ADD SWAP3 DUP3 PUSH3 0xC20 JUMPI PUSH1 0x0 DUP6 SSTORE PUSH3 0xC73 JUMP JUMPDEST DUP3 PUSH1 0x1F LT PUSH3 0xC33 JUMPI DUP1 SLOAD DUP6 SSTORE PUSH3 0xC73 JUMP JUMPDEST DUP3 DUP1 ADD PUSH1 0x1 ADD DUP6 SSTORE DUP3 ISZERO PUSH3 0xC73 JUMPI PUSH1 0x0 MSTORE PUSH1 0x20 PUSH1 0x0 KECCAK256 SWAP2 PUSH1 0x1F ADD PUSH1 0x20 SWAP1 DIV DUP3 ADD JUMPDEST DUP3 DUP2 GT ISZERO PUSH3 0xC72 JUMPI DUP3 SLOAD DUP3 SSTORE SWAP2 PUSH1 0x1 ADD SWAP2 SWAP1 PUSH1 0x1 ADD SWAP1 PUSH3 0xC55 JUMP JUMPDEST JUMPDEST POP SWAP1 POP PUSH3 0xC82 SWAP2 SWAP1 PUSH3 0xC94 JUMP JUMPDEST POP SWAP1 JUMP JUMPDEST PUSH2 0xA5A DUP1 PUSH3 0x2094 DUP4 CODECOPY ADD SWAP1 JUMP JUMPDEST JUMPDEST DUP1 DUP3 GT ISZERO PUSH3 0xCAF JUMPI PUSH1 0x0 DUP2 PUSH1 0x0 SWAP1 SSTORE POP PUSH1 0x1 ADD PUSH3 0xC95 JUMP JUMPDEST POP SWAP1 JUMP JUMPDEST PUSH1 0x0 PUSH3 0xCCA PUSH3 0xCC4 DUP5 PUSH3 0x12F4 JUMP JUMPDEST PUSH3 0x12CB JUMP JUMPDEST SWAP1 POP DUP3 DUP2 MSTORE PUSH1 0x20 DUP2 ADD DUP5 DUP5 DUP5 ADD GT ISZERO PUSH3 0xCE9 JUMPI PUSH3 0xCE8 PUSH3 0x14B7 JUMP JUMPDEST JUMPDEST PUSH3 0xCF6 DUP5 DUP3 DUP6 PUSH3 0x13A3 JUMP JUMPDEST POP SWAP4 SWAP3 POP POP POP JUMP JUMPDEST PUSH1 0x0 DUP2 CALLDATALOAD SWAP1 POP PUSH3 0xD0F DUP2 PUSH3 0x15CD JUMP JUMPDEST SWAP3 SWAP2 POP POP JUMP JUMPDEST PUSH1 0x0 DUP2 MLOAD SWAP1 POP PUSH3 0xD26 DUP2 PUSH3 0x15CD JUMP JUMPDEST SWAP3 SWAP2 POP POP JUMP JUMPDEST PUSH1 0x0 DUP3 PUSH1 0x1F DUP4 ADD SLT PUSH3 0xD44 JUMPI PUSH3 0xD43 PUSH3 0x14B2 JUMP JUMPDEST JUMPDEST DUP2 CALLDATALOAD PUSH3 0xD56 DUP5 DUP3 PUSH1 0x20 DUP7 ADD PUSH3 0xCB3 JUMP JUMPDEST SWAP2 POP POP SWAP3 SWAP2 POP POP JUMP JUMPDEST PUSH1 0x0 DUP2 CALLDATALOAD SWAP1 POP PUSH3 0xD70 DUP2 PUSH3 0x15E7 JUMP JUMPDEST SWAP3 SWAP2 POP POP JUMP JUMPDEST PUSH1 0x0 PUSH1 0x20 DUP3 DUP5 SUB SLT ISZERO PUSH3 0xD8F JUMPI PUSH3 0xD8E PUSH3 0x14C1 JUMP JUMPDEST JUMPDEST PUSH1 0x0 PUSH3 0xD9F DUP5 DUP3 DUP6 ADD PUSH3 0xCFE JUMP JUMPDEST SWAP2 POP POP SWAP3 SWAP2 POP POP JUMP JUMPDEST PUSH1 0x0 PUSH1 0x20 DUP3 DUP5 SUB SLT ISZERO PUSH3 0xDC1 JUMPI PUSH3 0xDC0 PUSH3 0x14C1 JUMP JUMPDEST JUMPDEST PUSH1 0x0 PUSH3 0xDD1 DUP5 DUP3 DUP6 ADD PUSH3 0xD15 JUMP JUMPDEST SWAP2 POP POP SWAP3 SWAP2 POP POP JUMP JUMPDEST PUSH1 0x0 DUP1 PUSH1 0x40 DUP4 DUP6 SUB SLT ISZERO PUSH3 0xDF4 JUMPI PUSH3 0xDF3 PUSH3 0x14C1 JUMP JUMPDEST JUMPDEST PUSH1 0x0 DUP4 ADD CALLDATALOAD PUSH8 0xFFFFFFFFFFFFFFFF DUP2 GT ISZERO PUSH3 0xE15 JUMPI PUSH3 0xE14 PUSH3 0x14BC JUMP JUMPDEST JUMPDEST PUSH3 0xE23 DUP6 DUP3 DUP7 ADD PUSH3 0xD2C JUMP JUMPDEST SWAP3 POP POP PUSH1 0x20 PUSH3 0xE36 DUP6 DUP3 DUP7 ADD PUSH3 0xD5F JUMP JUMPDEST SWAP2 POP POP SWAP3 POP SWAP3 SWAP1 POP JUMP JUMPDEST PUSH1 0x0 PUSH1 0x20 DUP3 DUP5 SUB SLT ISZERO PUSH3 0xE59 JUMPI PUSH3 0xE58 PUSH3 0x14C1 JUMP JUMPDEST JUMPDEST PUSH1 0x0 PUSH3 0xE69 DUP5 DUP3 DUP6 ADD PUSH3 0xD5F JUMP JUMPDEST SWAP2 POP POP SWAP3 SWAP2 POP POP JUMP JUMPDEST PUSH1 0x0 DUP1 PUSH1 0x0 DUP1 PUSH1 0x0 PUSH1 0xA0 DUP7 DUP9 SUB SLT ISZERO PUSH3 0xE91 JUMPI PUSH3 0xE90 PUSH3 0x14C1 JUMP JUMPDEST JUMPDEST PUSH1 0x0 PUSH3 0xEA1 DUP9 DUP3 DUP10 ADD PUSH3 0xD5F JUMP JUMPDEST SWAP6 POP POP PUSH1 0x20 PUSH3 0xEB4 DUP9 DUP3 DUP10 ADD PUSH3 0xCFE JUMP JUMPDEST SWAP5 POP POP PUSH1 0x40 DUP7 ADD CALLDATALOAD PUSH8 0xFFFFFFFFFFFFFFFF DUP2 GT ISZERO PUSH3 0xED8 JUMPI PUSH3 0xED7 PUSH3 0x14BC JUMP JUMPDEST JUMPDEST PUSH3 0xEE6 DUP9 DUP3 DUP10 ADD PUSH3 0xD2C JUMP JUMPDEST SWAP4 POP POP PUSH1 0x60 DUP7 ADD CALLDATALOAD PUSH8 0xFFFFFFFFFFFFFFFF DUP2 GT ISZERO PUSH3 0xF0A JUMPI PUSH3 0xF09 PUSH3 0x14BC JUMP JUMPDEST JUMPDEST PUSH3 0xF18 DUP9 DUP3 DUP10 ADD PUSH3 0xD2C JUMP JUMPDEST SWAP3 POP POP PUSH1 0x80 PUSH3 0xF2B DUP9 DUP3 DUP10 ADD PUSH3 0xD5F JUMP JUMPDEST SWAP2 POP POP SWAP3 SWAP6 POP SWAP3 SWAP6 SWAP1 SWAP4 POP JUMP JUMPDEST PUSH1 0x0 DUP1 PUSH1 0x0 DUP1 PUSH1 0x80 DUP6 DUP8 SUB SLT ISZERO PUSH3 0xF55 JUMPI PUSH3 0xF54 PUSH3 0x14C1 JUMP JUMPDEST JUMPDEST PUSH1 0x0 PUSH3 0xF65 DUP8 DUP3 DUP9 ADD PUSH3 0xD5F JUMP JUMPDEST SWAP5 POP POP PUSH1 0x20 PUSH3 0xF78 DUP8 DUP3 DUP9 ADD PUSH3 0xCFE JUMP JUMPDEST SWAP4 POP POP PUSH1 0x40 PUSH3 0xF8B DUP8 DUP3 DUP9 ADD PUSH3 0xD5F JUMP JUMPDEST SWAP3 POP POP PUSH1 0x60 PUSH3 0xF9E DUP8 DUP3 DUP9 ADD PUSH3 0xD5F JUMP JUMPDEST SWAP2 POP POP SWAP3 SWAP6 SWAP2 SWAP5 POP SWAP3 POP JUMP JUMPDEST PUSH3 0xFB5 DUP2 PUSH3 0x1351 JUMP JUMPDEST DUP3 MSTORE POP POP JUMP JUMPDEST PUSH3 0xFC6 DUP2 PUSH3 0x138F JUMP JUMPDEST DUP3 MSTORE POP POP JUMP JUMPDEST PUSH1 0x0 PUSH3 0xFD9 DUP3 PUSH3 0x132A JUMP JUMPDEST PUSH3 0xFE5 DUP2 DUP6 PUSH3 0x1340 JUMP JUMPDEST SWAP4 POP PUSH3 0xFF7 DUP2 DUP6 PUSH1 0x20 DUP7 ADD PUSH3 0x13B2 JUMP JUMPDEST PUSH3 0x1002 DUP2 PUSH3 0x14C6 JUMP JUMPDEST DUP5 ADD SWAP2 POP POP SWAP3 SWAP2 POP POP JUMP JUMPDEST PUSH1 0x0 PUSH3 0x101C PUSH1 0x26 DUP4 PUSH3 0x1340 JUMP JUMPDEST SWAP2 POP PUSH3 0x1029 DUP3 PUSH3 0x14D7 JUMP JUMPDEST PUSH1 0x40 DUP3 ADD SWAP1 POP SWAP2 SWAP1 POP JUMP JUMPDEST PUSH1 0x0 PUSH3 0x1043 PUSH1 0x12 DUP4 PUSH3 0x1340 JUMP JUMPDEST SWAP2 POP PUSH3 0x1050 DUP3 PUSH3 0x1526 JUMP JUMPDEST PUSH1 0x20 DUP3 ADD SWAP1 POP SWAP2 SWAP1 POP JUMP JUMPDEST PUSH1 0x0 PUSH3 0x106A PUSH1 0x16 DUP4 PUSH3 0x1340 JUMP JUMPDEST SWAP2 POP PUSH3 0x1077 DUP3 PUSH3 0x154F JUMP JUMPDEST PUSH1 0x20 DUP3 ADD SWAP1 POP SWAP2 SWAP1 POP JUMP JUMPDEST PUSH1 0x0 PUSH3 0x1091 PUSH1 0x18 DUP4 PUSH3 0x1340 JUMP JUMPDEST SWAP2 POP PUSH3 0x109E DUP3 PUSH3 0x1578 JUMP JUMPDEST PUSH1 0x20 DUP3 ADD SWAP1 POP SWAP2 SWAP1 POP JUMP JUMPDEST PUSH1 0x0 PUSH3 0x10B8 PUSH1 0x20 DUP4 PUSH3 0x1340 JUMP JUMPDEST SWAP2 POP PUSH3 0x10C5 DUP3 PUSH3 0x15A1 JUMP JUMPDEST PUSH1 0x20 DUP3 ADD SWAP1 POP SWAP2 SWAP1 POP JUMP JUMPDEST PUSH1 0x0 PUSH3 0x10DF PUSH1 0x0 DUP4 PUSH3 0x1335 JUMP JUMPDEST SWAP2 POP PUSH3 0x10EC DUP3 PUSH3 0x15CA JUMP JUMPDEST PUSH1 0x0 DUP3 ADD SWAP1 POP SWAP2 SWAP1 POP JUMP JUMPDEST PUSH3 0x1102 DUP2 PUSH3 0x1385 JUMP JUMPDEST DUP3 MSTORE POP POP JUMP JUMPDEST PUSH1 0x0 PUSH3 0x1115 DUP3 PUSH3 0x10D0 JUMP JUMPDEST SWAP2 POP DUP2 SWAP1 POP SWAP2 SWAP1 POP JUMP JUMPDEST PUSH1 0x0 PUSH1 0x20 DUP3 ADD SWAP1 POP PUSH3 0x1136 PUSH1 0x0 DUP4 ADD DUP5 PUSH3 0xFAA JUMP JUMPDEST SWAP3 SWAP2 POP POP JUMP JUMPDEST PUSH1 0x0 PUSH1 0x20 DUP3 ADD SWAP1 POP PUSH3 0x1153 PUSH1 0x0 DUP4 ADD DUP5 PUSH3 0xFBB JUMP JUMPDEST SWAP3 SWAP2 POP POP JUMP JUMPDEST PUSH1 0x0 PUSH1 0x20 DUP3 ADD SWAP1 POP DUP2 DUP2 SUB PUSH1 0x0 DUP4 ADD MSTORE PUSH3 0x1174 DUP2 PUSH3 0x100D JUMP JUMPDEST SWAP1 POP SWAP2 SWAP1 POP JUMP JUMPDEST PUSH1 0x0 PUSH1 0x20 DUP3 ADD SWAP1 POP DUP2 DUP2 SUB PUSH1 0x0 DUP4 ADD MSTORE PUSH3 0x1196 DUP2 PUSH3 0x1034 JUMP JUMPDEST SWAP1 POP SWAP2 SWAP1 POP JUMP JUMPDEST PUSH1 0x0 PUSH1 0x20 DUP3 ADD SWAP1 POP DUP2 DUP2 SUB PUSH1 0x0 DUP4 ADD MSTORE PUSH3 0x11B8 DUP2 PUSH3 0x105B JUMP JUMPDEST SWAP1 POP SWAP2 SWAP1 POP JUMP JUMPDEST PUSH1 0x0 PUSH1 0x20 DUP3 ADD SWAP1 POP DUP2 DUP2 SUB PUSH1 0x0 DUP4 ADD MSTORE PUSH3 0x11DA DUP2 PUSH3 0x1082 JUMP JUMPDEST SWAP1 POP SWAP2 SWAP1 POP JUMP JUMPDEST PUSH1 0x0 PUSH1 0x20 DUP3 ADD SWAP1 POP DUP2 DUP2 SUB PUSH1 0x0 DUP4 ADD MSTORE PUSH3 0x11FC DUP2 PUSH3 0x10A9 JUMP JUMPDEST SWAP1 POP SWAP2 SWAP1 POP JUMP JUMPDEST PUSH1 0x0 PUSH1 0xA0 DUP3 ADD SWAP1 POP PUSH3 0x121A PUSH1 0x0 DUP4 ADD DUP9 PUSH3 0x10F7 JUMP JUMPDEST PUSH3 0x1229 PUSH1 0x20 DUP4 ADD DUP8 PUSH3 0xFAA JUMP JUMPDEST DUP2 DUP2 SUB PUSH1 0x40 DUP4 ADD MSTORE PUSH3 0x123D DUP2 DUP7 PUSH3 0xFCC JUMP JUMPDEST SWAP1 POP DUP2 DUP2 SUB PUSH1 0x60 DUP4 ADD MSTORE PUSH3 0x1253 DUP2 DUP6 PUSH3 0xFCC JUMP JUMPDEST SWAP1 POP PUSH3 0x1264 PUSH1 0x80 DUP4 ADD DUP5 PUSH3 0x10F7 JUMP JUMPDEST SWAP7 SWAP6 POP POP POP POP POP POP JUMP JUMPDEST PUSH1 0x0 PUSH1 0xA0 DUP3 ADD SWAP1 POP PUSH3 0x1285 PUSH1 0x0 DUP4 ADD DUP9 PUSH3 0x10F7 JUMP JUMPDEST PUSH3 0x1294 PUSH1 0x20 DUP4 ADD DUP8 PUSH3 0xFAA JUMP JUMPDEST PUSH3 0x12A3 PUSH1 0x40 DUP4 ADD DUP7 PUSH3 0x10F7 JUMP JUMPDEST PUSH3 0x12B2 PUSH1 0x60 DUP4 ADD DUP6 PUSH3 0x10F7 JUMP JUMPDEST PUSH3 0x12C1 PUSH1 0x80 DUP4 ADD DUP5 PUSH3 0xFAA JUMP JUMPDEST SWAP7 SWAP6 POP POP POP POP POP POP JUMP JUMPDEST PUSH1 0x0 PUSH3 0x12D7 PUSH3 0x12EA JUMP JUMPDEST SWAP1 POP PUSH3 0x12E5 DUP3 DUP3 PUSH3 0x141E JUMP JUMPDEST SWAP2 SWAP1 POP JUMP JUMPDEST PUSH1 0x0 PUSH1 0x40 MLOAD SWAP1 POP SWAP1 JUMP JUMPDEST PUSH1 0x0 PUSH8 0xFFFFFFFFFFFFFFFF DUP3 GT ISZERO PUSH3 0x1312 JUMPI PUSH3 0x1311 PUSH3 0x1483 JUMP JUMPDEST JUMPDEST PUSH3 0x131D DUP3 PUSH3 0x14C6 JUMP JUMPDEST SWAP1 POP PUSH1 0x20 DUP2 ADD SWAP1 POP SWAP2 SWAP1 POP JUMP JUMPDEST PUSH1 0x0 DUP2 MLOAD SWAP1 POP SWAP2 SWAP1 POP JUMP JUMPDEST PUSH1 0x0 DUP2 SWAP1 POP SWAP3 SWAP2 POP POP JUMP JUMPDEST PUSH1 0x0 DUP3 DUP3 MSTORE PUSH1 0x20 DUP3 ADD SWAP1 POP SWAP3 SWAP2 POP POP JUMP JUMPDEST PUSH1 0x0 PUSH3 0x135E DUP3 PUSH3 0x1365 JUMP JUMPDEST SWAP1 POP SWAP2 SWAP1 POP JUMP JUMPDEST PUSH1 0x0 PUSH20 0xFFFFFFFFFFFFFFFFFFFFFFFFFFFFFFFFFFFFFFFF DUP3 AND SWAP1 POP SWAP2 SWAP1 POP JUMP JUMPDEST PUSH1 0x0 DUP2 SWAP1 POP SWAP2 SWAP1 POP JUMP JUMPDEST PUSH1 0x0 PUSH3 0x139C DUP3 PUSH3 0x1385 JUMP JUMPDEST SWAP1 POP SWAP2 SWAP1 POP JUMP JUMPDEST DUP3 DUP2 DUP4 CALLDATACOPY PUSH1 0x0 DUP4 DUP4 ADD MSTORE POP POP POP JUMP JUMPDEST PUSH1 0x0 JUMPDEST DUP4 DUP2 LT ISZERO PUSH3 0x13D2 JUMPI DUP1 DUP3 ADD MLOAD DUP2 DUP5 ADD MSTORE PUSH1 0x20 DUP2 ADD SWAP1 POP PUSH3 0x13B5 JUMP JUMPDEST DUP4 DUP2 GT ISZERO PUSH3 0x13E2 JUMPI PUSH1 0x0 DUP5 DUP5 ADD MSTORE JUMPDEST POP POP POP POP JUMP JUMPDEST PUSH1 0x0 PUSH1 0x2 DUP3 DIV SWAP1 POP PUSH1 0x1 DUP3 AND DUP1 PUSH3 0x1401 JUMPI PUSH1 0x7F DUP3 AND SWAP2 POP JUMPDEST PUSH1 0x20 DUP3 LT DUP2 EQ ISZERO PUSH3 0x1418 JUMPI PUSH3 0x1417 PUSH3 0x1454 JUMP JUMPDEST JUMPDEST POP SWAP2 SWAP1 POP JUMP JUMPDEST PUSH3 0x1429 DUP3 PUSH3 0x14C6 JUMP JUMPDEST DUP2 ADD DUP2 DUP2 LT PUSH8 0xFFFFFFFFFFFFFFFF DUP3 GT OR ISZERO PUSH3 0x144B JUMPI PUSH3 0x144A PUSH3 0x1483 JUMP JUMPDEST JUMPDEST DUP1 PUSH1 0x40 MSTORE POP POP POP JUMP JUMPDEST PUSH32 0x4E487B7100000000000000000000000000000000000000000000000000000000 PUSH1 0x0 MSTORE PUSH1 0x22 PUSH1 0x4 MSTORE PUSH1 0x24 PUSH1 0x0 REVERT JUMPDEST PUSH32 0x4E487B7100000000000000000000000000000000000000000000000000000000 PUSH1 0x0 MSTORE PUSH1 0x41 PUSH1 0x4 MSTORE PUSH1 0x24 PUSH1 0x0 REVERT JUMPDEST PUSH1 0x0 DUP1 REVERT JUMPDEST PUSH1 0x0 DUP1 REVERT JUMPDEST PUSH1 0x0 DUP1 REVERT JUMPDEST PUSH1 0x0 DUP1 REVERT JUMPDEST PUSH1 0x0 PUSH1 0x1F NOT PUSH1 0x1F DUP4 ADD AND SWAP1 POP SWAP2 SWAP1 POP JUMP JUMPDEST PUSH32 0x4F776E61626C653A206E6577206F776E657220697320746865207A65726F2061 PUSH1 0x0 DUP3 ADD MSTORE PUSH32 0x6464726573730000000000000000000000000000000000000000000000000000 PUSH1 0x20 DUP3 ADD MSTORE POP JUMP JUMPDEST PUSH32 0x496E73756666696369656E742066756E64730000000000000000000000000000 PUSH1 0x0 DUP3 ADD MSTORE POP JUMP JUMPDEST PUSH32 0x54656E616E74206E6F207075646F207265636962697200000000000000000000 PUSH1 0x0 DUP3 ADD MSTORE POP JUMP JUMPDEST PUSH32 0x456D706C6F796565206E6F207075646F20726563696269720000000000000000 PUSH1 0x0 DUP3 ADD MSTORE POP JUMP JUMPDEST PUSH32 0x4F776E61626C653A2063616C6C6572206973206E6F7420746865206F776E6572 PUSH1 0x0 DUP3 ADD MSTORE POP JUMP JUMPDEST POP JUMP JUMPDEST PUSH3 0x15D8 DUP2 PUSH3 0x1351 JUMP JUMPDEST DUP2 EQ PUSH3 0x15E4 JUMPI PUSH1 0x0 DUP1 REVERT JUMPDEST POP JUMP JUMPDEST PUSH3 0x15F2 DUP2 PUSH3 0x1385 JUMP JUMPDEST DUP2 EQ PUSH3 0x15FE JUMPI PUSH1 0x0 DUP1 REVERT JUMPDEST POP JUMP INVALID PUSH1 0x80 PUSH1 0x40 MSTORE CALLVALUE DUP1 ISZERO PUSH3 0x11 JUMPI PUSH1 0x0 DUP1 REVERT JUMPDEST POP PUSH1 0x40 MLOAD PUSH3 0xA92 CODESIZE SUB DUP1 PUSH3 0xA92 DUP4 CODECOPY DUP2 DUP2 ADD PUSH1 0x40 MSTORE DUP2 ADD SWAP1 PUSH3 0x37 SWAP2 SWAP1 PUSH3 0x223 JUMP JUMPDEST DUP5 DUP5 DUP2 PUSH1 0x0 DUP2 SWAP1 SSTORE POP DUP1 PUSH1 0x1 PUSH1 0x0 PUSH2 0x100 EXP DUP2 SLOAD DUP2 PUSH20 0xFFFFFFFFFFFFFFFFFFFFFFFFFFFFFFFFFFFFFFFF MUL NOT AND SWAP1 DUP4 PUSH20 0xFFFFFFFFFFFFFFFFFFFFFFFFFFFFFFFFFFFFFFFF AND MUL OR SWAP1 SSTORE POP POP POP DUP3 PUSH1 0x2 SWAP1 DUP1 MLOAD SWAP1 PUSH1 0x20 ADD SWAP1 PUSH3 0x9B SWAP3 SWAP2 SWAP1 PUSH3 0xC7 JUMP JUMPDEST POP DUP2 PUSH1 0x3 SWAP1 DUP1 MLOAD SWAP1 PUSH1 0x20 ADD SWAP1 PUSH3 0xB4 SWAP3 SWAP2 SWAP1 PUSH3 0xC7 JUMP JUMPDEST POP DUP1 PUSH1 0x4 DUP2 SWAP1 SSTORE POP POP POP POP POP POP PUSH3 0x4DF JUMP JUMPDEST DUP3 DUP1 SLOAD PUSH3 0xD5 SWAP1 PUSH3 0x3BC JUMP JUMPDEST SWAP1 PUSH1 0x0 MSTORE PUSH1 0x20 PUSH1 0x0 KECCAK256 SWAP1 PUSH1 0x1F ADD PUSH1 0x20 SWAP1 DIV DUP2 ADD SWAP3 DUP3 PUSH3 0xF9 JUMPI PUSH1 0x0 DUP6 SSTORE PUSH3 0x145 JUMP JUMPDEST DUP3 PUSH1 0x1F LT PUSH3 0x114 JUMPI DUP1 MLOAD PUSH1 0xFF NOT AND DUP4 DUP1 ADD OR DUP6 SSTORE PUSH3 0x145 JUMP JUMPDEST DUP3 DUP1 ADD PUSH1 0x1 ADD DUP6 SSTORE DUP3 ISZERO PUSH3 0x145 JUMPI SWAP2 DUP3 ADD JUMPDEST DUP3 DUP2 GT ISZERO PUSH3 0x144 JUMPI DUP3 MLOAD DUP3 SSTORE SWAP2 PUSH1 0x20 ADD SWAP2 SWAP1 PUSH1 0x1 ADD SWAP1 PUSH3 0x127 JUMP JUMPDEST JUMPDEST POP SWAP1 POP PUSH3 0x154 SWAP2 SWAP1 PUSH3 0x158 JUMP JUMPDEST POP SWAP1 JUMP JUMPDEST JUMPDEST DUP1 DUP3 GT ISZERO PUSH3 0x173 JUMPI PUSH1 0x0 DUP2 PUSH1 0x0 SWAP1 SSTORE POP PUSH1 0x1 ADD PUSH3 0x159 JUMP JUMPDEST POP SWAP1 JUMP JUMPDEST PUSH1 0x0 PUSH3 0x18E PUSH3 0x188 DUP5 PUSH3 0x312 JUMP JUMPDEST PUSH3 0x2E9 JUMP JUMPDEST SWAP1 POP DUP3 DUP2 MSTORE PUSH1 0x20 DUP2 ADD DUP5 DUP5 DUP5 ADD GT ISZERO PUSH3 0x1AD JUMPI PUSH3 0x1AC PUSH3 0x48B JUMP JUMPDEST JUMPDEST PUSH3 0x1BA DUP5 DUP3 DUP6 PUSH3 0x386 JUMP JUMPDEST POP SWAP4 SWAP3 POP POP POP JUMP JUMPDEST PUSH1 0x0 DUP2 MLOAD SWAP1 POP PUSH3 0x1D3 DUP2 PUSH3 0x4AB JUMP JUMPDEST SWAP3 SWAP2 POP POP JUMP JUMPDEST PUSH1 0x0 DUP3 PUSH1 0x1F DUP4 ADD SLT PUSH3 0x1F1 JUMPI PUSH3 0x1F0 PUSH3 0x486 JUMP JUMPDEST JUMPDEST DUP2 MLOAD PUSH3 0x203 DUP5 DUP3 PUSH1 0x20 DUP7 ADD PUSH3 0x177 JUMP JUMPDEST SWAP2 POP POP SWAP3 SWAP2 POP POP JUMP JUMPDEST PUSH1 0x0 DUP2 MLOAD SWAP1 POP PUSH3 0x21D DUP2 PUSH3 0x4C5 JUMP JUMPDEST SWAP3 SWAP2 POP POP JUMP JUMPDEST PUSH1 0x0 DUP1 PUSH1 0x0 DUP1 PUSH1 0x0 PUSH1 0xA0 DUP7 DUP9 SUB SLT ISZERO PUSH3 0x242 JUMPI PUSH3 0x241 PUSH3 0x495 JUMP JUMPDEST JUMPDEST PUSH1 0x0 PUSH3 0x252 DUP9 DUP3 DUP10 ADD PUSH3 0x20C JUMP JUMPDEST SWAP6 POP POP PUSH1 0x20 PUSH3 0x265 DUP9 DUP3 DUP10 ADD PUSH3 0x1C2 JUMP JUMPDEST SWAP5 POP POP PUSH1 0x40 DUP7 ADD MLOAD PUSH8 0xFFFFFFFFFFFFFFFF DUP2 GT ISZERO PUSH3 0x289 JUMPI PUSH3 0x288 PUSH3 0x490 JUMP JUMPDEST JUMPDEST PUSH3 0x297 DUP9 DUP3 DUP10 ADD PUSH3 0x1D9 JUMP JUMPDEST SWAP4 POP POP PUSH1 0x60 DUP7 ADD MLOAD PUSH8 0xFFFFFFFFFFFFFFFF DUP2 GT ISZERO PUSH3 0x2BB JUMPI PUSH3 0x2BA PUSH3 0x490 JUMP JUMPDEST JUMPDEST PUSH3 0x2C9 DUP9 DUP3 DUP10 ADD PUSH3 0x1D9 JUMP JUMPDEST SWAP3 POP POP PUSH1 0x80 PUSH3 0x2DC DUP9 DUP3 DUP10 ADD PUSH3 0x20C JUMP JUMPDEST SWAP2 POP POP SWAP3 SWAP6 POP SWAP3 SWAP6 SWAP1 SWAP4 POP JUMP JUMPDEST PUSH1 0x0 PUSH3 0x2F5 PUSH3 0x308 JUMP JUMPDEST SWAP1 POP PUSH3 0x303 DUP3 DUP3 PUSH3 0x3F2 JUMP JUMPDEST SWAP2 SWAP1 POP JUMP JUMPDEST PUSH1 0x0 PUSH1 0x40 MLOAD SWAP1 POP SWAP1 JUMP JUMPDEST PUSH1 0x0 PUSH8 0xFFFFFFFFFFFFFFFF DUP3 GT ISZERO PUSH3 0x330 JUMPI PUSH3 0x32F PUSH3 0x457 JUMP JUMPDEST JUMPDEST PUSH3 0x33B DUP3 PUSH3 0x49A JUMP JUMPDEST SWAP1 POP PUSH1 0x20 DUP2 ADD SWAP1 POP SWAP2 SWAP1 POP JUMP JUMPDEST PUSH1 0x0 PUSH3 0x355 DUP3 PUSH3 0x35C JUMP JUMPDEST SWAP1 POP SWAP2 SWAP1 POP JUMP JUMPDEST PUSH1 0x0 PUSH20 0xFFFFFFFFFFFFFFFFFFFFFFFFFFFFFFFFFFFFFFFF DUP3 AND SWAP1 POP SWAP2 SWAP1 POP JUMP JUMPDEST PUSH1 0x0 DUP2 SWAP1 POP SWAP2 SWAP1 POP JUMP JUMPDEST PUSH1 0x0 JUMPDEST DUP4 DUP2 LT ISZERO PUSH3 0x3A6 JUMPI DUP1 DUP3 ADD MLOAD DUP2 DUP5 ADD MSTORE PUSH1 0x20 DUP2 ADD SWAP1 POP PUSH3 0x389 JUMP JUMPDEST DUP4 DUP2 GT ISZERO PUSH3 0x3B6 JUMPI PUSH1 0x0 DUP5 DUP5 ADD MSTORE JUMPDEST POP POP POP POP JUMP JUMPDEST PUSH1 0x0 PUSH1 0x2 DUP3 DIV SWAP1 POP PUSH1 0x1 DUP3 AND DUP1 PUSH3 0x3D5 JUMPI PUSH1 0x7F DUP3 AND SWAP2 POP JUMPDEST PUSH1 0x20 DUP3 LT DUP2 EQ ISZERO PUSH3 0x3EC JUMPI PUSH3 0x3EB PUSH3 0x428 JUMP JUMPDEST JUMPDEST POP SWAP2 SWAP1 POP JUMP JUMPDEST PUSH3 0x3FD DUP3 PUSH3 0x49A JUMP JUMPDEST DUP2 ADD DUP2 DUP2 LT PUSH8 0xFFFFFFFFFFFFFFFF DUP3 GT OR ISZERO PUSH3 0x41F JUMPI PUSH3 0x41E PUSH3 0x457 JUMP JUMPDEST JUMPDEST DUP1 PUSH1 0x40 MSTORE POP POP POP JUMP JUMPDEST PUSH32 0x4E487B7100000000000000000000000000000000000000000000000000000000 PUSH1 0x0 MSTORE PUSH1 0x22 PUSH1 0x4 MSTORE PUSH1 0x24 PUSH1 0x0 REVERT JUMPDEST PUSH32 0x4E487B7100000000000000000000000000000000000000000000000000000000 PUSH1 0x0 MSTORE PUSH1 0x41 PUSH1 0x4 MSTORE PUSH1 0x24 PUSH1 0x0 REVERT JUMPDEST PUSH1 0x0 DUP1 REVERT JUMPDEST PUSH1 0x0 DUP1 REVERT JUMPDEST PUSH1 0x0 DUP1 REVERT JUMPDEST PUSH1 0x0 DUP1 REVERT JUMPDEST PUSH1 0x0 PUSH1 0x1F NOT PUSH1 0x1F DUP4 ADD AND SWAP1 POP SWAP2 SWAP1 POP JUMP JUMPDEST PUSH3 0x4B6 DUP2 PUSH3 0x348 JUMP JUMPDEST DUP2 EQ PUSH3 0x4C2 JUMPI PUSH1 0x0 DUP1 REVERT JUMPDEST POP JUMP JUMPDEST PUSH3 0x4D0 DUP2 PUSH3 0x37C JUMP JUMPDEST DUP2 EQ PUSH3 0x4DC JUMPI PUSH1 0x0 DUP1 REVERT JUMPDEST POP JUMP JUMPDEST PUSH2 0x5A3 DUP1 PUSH3 0x4EF PUSH1 0x0 CODECOPY PUSH1 0x0 RETURN INVALID PUSH1 0x80 PUSH1 0x40 MSTORE PUSH1 0x4 CALLDATASIZE LT PUSH2 0x43 JUMPI PUSH1 0x0 CALLDATALOAD PUSH1 0xE0 SHR DUP1 PUSH4 0x38CC4831 EQ PUSH2 0xC2 JUMPI DUP1 PUSH4 0x835FC6CA EQ PUSH2 0xED JUMPI DUP1 PUSH4 0xAF640D0F EQ PUSH2 0x116 JUMPI DUP1 PUSH4 0xF2BCD022 EQ PUSH2 0x141 JUMPI PUSH2 0x85 JUMP JUMPDEST CALLDATASIZE PUSH2 0x85 JUMPI PUSH32 0x2D27851832FCAC28A0D4AF1344F01FED7FFCFD15171C14C564A0C42AA57AE5C0 CALLVALUE ADDRESS SELFBALANCE PUSH1 0x40 MLOAD PUSH2 0x7B SWAP4 SWAP3 SWAP2 SWAP1 PUSH2 0x447 JUMP JUMPDEST PUSH1 0x40 MLOAD DUP1 SWAP2 SUB SWAP1 LOG1 STOP JUMPDEST PUSH32 0x2D27851832FCAC28A0D4AF1344F01FED7FFCFD15171C14C564A0C42AA57AE5C0 CALLVALUE ADDRESS SELFBALANCE PUSH1 0x40 MLOAD PUSH2 0xB8 SWAP4 SWAP3 SWAP2 SWAP1 PUSH2 0x447 JUMP JUMPDEST PUSH1 0x40 MLOAD DUP1 SWAP2 SUB SWAP1 LOG1 STOP JUMPDEST CALLVALUE DUP1 ISZERO PUSH2 0xCE JUMPI PUSH1 0x0 DUP1 REVERT JUMPDEST POP PUSH2 0xD7 PUSH2 0x16C JUMP JUMPDEST PUSH1 0x40 MLOAD PUSH2 0xE4 SWAP2 SWAP1 PUSH2 0x3D1 JUMP JUMPDEST PUSH1 0x40 MLOAD DUP1 SWAP2 SUB SWAP1 RETURN JUMPDEST CALLVALUE DUP1 ISZERO PUSH2 0xF9 JUMPI PUSH1 0x0 DUP1 REVERT JUMPDEST POP PUSH2 0x114 PUSH1 0x4 DUP1 CALLDATASIZE SUB DUP2 ADD SWAP1 PUSH2 0x10F SWAP2 SWAP1 PUSH2 0x308 JUMP JUMPDEST PUSH2 0x174 JUMP JUMPDEST STOP JUMPDEST CALLVALUE DUP1 ISZERO PUSH2 0x122 JUMPI PUSH1 0x0 DUP1 REVERT JUMPDEST POP PUSH2 0x12B PUSH2 0x2C7 JUMP JUMPDEST PUSH1 0x40 MLOAD PUSH2 0x138 SWAP2 SWAP1 PUSH2 0x42C JUMP JUMPDEST PUSH1 0x40 MLOAD DUP1 SWAP2 SUB SWAP1 RETURN JUMPDEST CALLVALUE DUP1 ISZERO PUSH2 0x14D JUMPI PUSH1 0x0 DUP1 REVERT JUMPDEST POP PUSH2 0x156 PUSH2 0x2CD JUMP JUMPDEST PUSH1 0x40 MLOAD PUSH2 0x163 SWAP2 SWAP1 PUSH2 0x3D1 JUMP JUMPDEST PUSH1 0x40 MLOAD DUP1 SWAP2 SUB SWAP1 RETURN JUMPDEST PUSH1 0x0 ADDRESS SWAP1 POP SWAP1 JUMP JUMPDEST DUP1 SELFBALANCE LT ISZERO PUSH2 0x1B7 JUMPI PUSH1 0x40 MLOAD PUSH32 0x8C379A000000000000000000000000000000000000000000000000000000000 DUP2 MSTORE PUSH1 0x4 ADD PUSH2 0x1AE SWAP1 PUSH2 0x3EC JUMP JUMPDEST PUSH1 0x40 MLOAD DUP1 SWAP2 SUB SWAP1 REVERT JUMPDEST PUSH1 0x0 PUSH1 0x1 PUSH1 0x0 SWAP1 SLOAD SWAP1 PUSH2 0x100 EXP SWAP1 DIV PUSH20 0xFFFFFFFFFFFFFFFFFFFFFFFFFFFFFFFFFFFFFFFF AND PUSH20 0xFFFFFFFFFFFFFFFFFFFFFFFFFFFFFFFFFFFFFFFF AND DUP3 PUSH1 0x40 MLOAD PUSH2 0x1FF SWAP1 PUSH2 0x3BC JUMP JUMPDEST PUSH1 0x0 PUSH1 0x40 MLOAD DUP1 DUP4 SUB DUP2 DUP6 DUP8 GAS CALL SWAP3 POP POP POP RETURNDATASIZE DUP1 PUSH1 0x0 DUP2 EQ PUSH2 0x23C JUMPI PUSH1 0x40 MLOAD SWAP2 POP PUSH1 0x1F NOT PUSH1 0x3F RETURNDATASIZE ADD AND DUP3 ADD PUSH1 0x40 MSTORE RETURNDATASIZE DUP3 MSTORE RETURNDATASIZE PUSH1 0x0 PUSH1 0x20 DUP5 ADD RETURNDATACOPY PUSH2 0x241 JUMP JUMPDEST PUSH1 0x60 SWAP2 POP JUMPDEST POP POP SWAP1 POP PUSH1 0x1 ISZERO ISZERO DUP2 ISZERO ISZERO EQ PUSH2 0x28C JUMPI PUSH1 0x40 MLOAD PUSH32 0x8C379A000000000000000000000000000000000000000000000000000000000 DUP2 MSTORE PUSH1 0x4 ADD PUSH2 0x283 SWAP1 PUSH2 0x40C JUMP JUMPDEST PUSH1 0x40 MLOAD DUP1 SWAP2 SUB SWAP1 REVERT JUMPDEST PUSH32 0x794032702377D1E7EB93381E2467D569394569207A770AF85B3222A361126C91 SELFBALANCE PUSH1 0x40 MLOAD PUSH2 0x2BB SWAP2 SWAP1 PUSH2 0x42C JUMP JUMPDEST PUSH1 0x40 MLOAD DUP1 SWAP2 SUB SWAP1 LOG1 POP POP JUMP JUMPDEST PUSH1 0x0 SLOAD DUP2 JUMP JUMPDEST PUSH1 0x1 PUSH1 0x0 SWAP1 SLOAD SWAP1 PUSH2 0x100 EXP SWAP1 DIV PUSH20 0xFFFFFFFFFFFFFFFFFFFFFFFFFFFFFFFFFFFFFFFF AND DUP2 JUMP JUMPDEST PUSH1 0x0 DUP2 CALLDATALOAD SWAP1 POP PUSH2 0x302 DUP2 PUSH2 0x556 JUMP JUMPDEST SWAP3 SWAP2 POP POP JUMP JUMPDEST PUSH1 0x0 PUSH1 0x20 DUP3 DUP5 SUB SLT ISZERO PUSH2 0x31E JUMPI PUSH2 0x31D PUSH2 0x4D6 JUMP JUMPDEST JUMPDEST PUSH1 0x0 PUSH2 0x32C DUP5 DUP3 DUP6 ADD PUSH2 0x2F3 JUMP JUMPDEST SWAP2 POP POP SWAP3 SWAP2 POP POP JUMP JUMPDEST PUSH2 0x33E DUP2 PUSH2 0x49A JUMP JUMPDEST DUP3 MSTORE POP POP JUMP JUMPDEST PUSH1 0x0 PUSH2 0x351 PUSH1 0x18 DUP4 PUSH2 0x489 JUMP JUMPDEST SWAP2 POP PUSH2 0x35C DUP3 PUSH2 0x4DB JUMP JUMPDEST PUSH1 0x20 DUP3 ADD SWAP1 POP SWAP2 SWAP1 POP JUMP JUMPDEST PUSH1 0x0 PUSH2 0x374 PUSH1 0x0 DUP4 PUSH2 0x47E JUMP JUMPDEST SWAP2 POP PUSH2 0x37F DUP3 PUSH2 0x504 JUMP JUMPDEST PUSH1 0x0 DUP3 ADD SWAP1 POP SWAP2 SWAP1 POP JUMP JUMPDEST PUSH1 0x0 PUSH2 0x397 PUSH1 0x2D DUP4 PUSH2 0x489 JUMP JUMPDEST SWAP2 POP PUSH2 0x3A2 DUP3 PUSH2 0x507 JUMP JUMPDEST PUSH1 0x40 DUP3 ADD SWAP1 POP SWAP2 SWAP1 POP JUMP JUMPDEST PUSH2 0x3B6 DUP2 PUSH2 0x4CC JUMP JUMPDEST DUP3 MSTORE POP POP JUMP JUMPDEST PUSH1 0x0 PUSH2 0x3C7 DUP3 PUSH2 0x367 JUMP JUMPDEST SWAP2 POP DUP2 SWAP1 POP SWAP2 SWAP1 POP JUMP JUMPDEST PUSH1 0x0 PUSH1 0x20 DUP3 ADD SWAP1 POP PUSH2 0x3E6 PUSH1 0x0 DUP4 ADD DUP5 PUSH2 0x335 JUMP JUMPDEST SWAP3 SWAP2 POP POP JUMP JUMPDEST PUSH1 0x0 PUSH1 0x20 DUP3 ADD SWAP1 POP DUP2 DUP2 SUB PUSH1 0x0 DUP4 ADD MSTORE PUSH2 0x405 DUP2 PUSH2 0x344 JUMP JUMPDEST SWAP1 POP SWAP2 SWAP1 POP JUMP JUMPDEST PUSH1 0x0 PUSH1 0x20 DUP3 ADD SWAP1 POP DUP2 DUP2 SUB PUSH1 0x0 DUP4 ADD MSTORE PUSH2 0x425 DUP2 PUSH2 0x38A JUMP JUMPDEST SWAP1 POP SWAP2 SWAP1 POP JUMP JUMPDEST PUSH1 0x0 PUSH1 0x20 DUP3 ADD SWAP1 POP PUSH2 0x441 PUSH1 0x0 DUP4 ADD DUP5 PUSH2 0x3AD JUMP JUMPDEST SWAP3 SWAP2 POP POP JUMP JUMPDEST PUSH1 0x0 PUSH1 0x60 DUP3 ADD SWAP1 POP PUSH2 0x45C PUSH1 0x0 DUP4 ADD DUP7 PUSH2 0x3AD JUMP JUMPDEST PUSH2 0x469 PUSH1 0x20 DUP4 ADD DUP6 PUSH2 0x335 JUMP JUMPDEST PUSH2 0x476 PUSH1 0x40 DUP4 ADD DUP5 PUSH2 0x3AD JUMP JUMPDEST SWAP5 SWAP4 POP POP POP POP JUMP JUMPDEST PUSH1 0x0 DUP2 SWAP1 POP SWAP3 SWAP2 POP POP JUMP JUMPDEST PUSH1 0x0 DUP3 DUP3 MSTORE PUSH1 0x20 DUP3 ADD SWAP1 POP SWAP3 SWAP2 POP POP JUMP JUMPDEST PUSH1 0x0 PUSH2 0x4A5 DUP3 PUSH2 0x4AC JUMP JUMPDEST SWAP1 POP SWAP2 SWAP1 POP JUMP JUMPDEST PUSH1 0x0 PUSH20 0xFFFFFFFFFFFFFFFFFFFFFFFFFFFFFFFFFFFFFFFF DUP3 AND SWAP1 POP SWAP2 SWAP1 POP JUMP JUMPDEST PUSH1 0x0 DUP2 SWAP1 POP SWAP2 SWAP1 POP JUMP JUMPDEST PUSH1 0x0 DUP1 REVERT JUMPDEST PUSH32 0x557365723A20496E73756666696369656E742066756E64730000000000000000 PUSH1 0x0 DUP3 ADD MSTORE POP JUMP JUMPDEST POP JUMP JUMPDEST PUSH32 0x5769746864726177616C206661696C65642E2054727920616761696E20696E20 PUSH1 0x0 DUP3 ADD MSTORE PUSH32 0x736F6D65206D696E757465732E00000000000000000000000000000000000000 PUSH1 0x20 DUP3 ADD MSTORE POP JUMP JUMPDEST PUSH2 0x55F DUP2 PUSH2 0x4CC JUMP JUMPDEST DUP2 EQ PUSH2 0x56A JUMPI PUSH1 0x0 DUP1 REVERT JUMPDEST POP JUMP INVALID LOG2 PUSH5 0x6970667358 0x22 SLT KECCAK256 PUSH22 0xD7C4A30508924E7ADF60115B1B926F16DCC09549C27B 0xD3 ORIGIN STATICCALL SWAP14 0xD7 SAR 0xA5 0xE 0x23 PUSH5 0x736F6C6343 STOP ADDMOD SMOD STOP CALLER PUSH1 0x80 PUSH1 0x40 MSTORE PUSH1 0x40 MLOAD PUSH2 0xA5A CODESIZE SUB DUP1 PUSH2 0xA5A DUP4 CODECOPY DUP2 DUP2 ADD PUSH1 0x40 MSTORE DUP2 ADD SWAP1 PUSH2 0x25 SWAP2 SWAP1 PUSH2 0xF4 JUMP JUMPDEST DUP5 DUP5 DUP2 PUSH1 0x0 DUP2 SWAP1 SSTORE POP DUP1 PUSH1 0x1 PUSH1 0x0 PUSH2 0x100 EXP DUP2 SLOAD DUP2 PUSH20 0xFFFFFFFFFFFFFFFFFFFFFFFFFFFFFFFFFFFFFFFF MUL NOT AND SWAP1 DUP4 PUSH20 0xFFFFFFFFFFFFFFFFFFFFFFFFFFFFFFFFFFFFFFFF AND MUL OR SWAP1 SSTORE POP POP POP DUP3 PUSH1 0x2 DUP2 SWAP1 SSTORE POP DUP2 PUSH1 0x3 DUP2 SWAP1 SSTORE POP DUP1 PUSH1 0x4 PUSH1 0x0 PUSH2 0x100 EXP DUP2 SLOAD DUP2 PUSH20 0xFFFFFFFFFFFFFFFFFFFFFFFFFFFFFFFFFFFFFFFF MUL NOT AND SWAP1 DUP4 PUSH20 0xFFFFFFFFFFFFFFFFFFFFFFFFFFFFFFFFFFFFFFFF AND MUL OR SWAP1 SSTORE POP POP POP POP POP POP PUSH2 0x1DE JUMP JUMPDEST PUSH1 0x0 DUP2 MLOAD SWAP1 POP PUSH2 0xD9 DUP2 PUSH2 0x1B0 JUMP JUMPDEST SWAP3 SWAP2 POP POP JUMP JUMPDEST PUSH1 0x0 DUP2 MLOAD SWAP1 POP PUSH2 0xEE DUP2 PUSH2 0x1C7 JUMP JUMPDEST SWAP3 SWAP2 POP POP JUMP JUMPDEST PUSH1 0x0 DUP1 PUSH1 0x0 DUP1 PUSH1 0x0 PUSH1 0xA0 DUP7 DUP9 SUB SLT ISZERO PUSH2 0x110 JUMPI PUSH2 0x10F PUSH2 0x1AB JUMP JUMPDEST JUMPDEST PUSH1 0x0 PUSH2 0x11E DUP9 DUP3 DUP10 ADD PUSH2 0xDF JUMP JUMPDEST SWAP6 POP POP PUSH1 0x20 PUSH2 0x12F DUP9 DUP3 DUP10 ADD PUSH2 0xCA JUMP JUMPDEST SWAP5 POP POP PUSH1 0x40 PUSH2 0x140 DUP9 DUP3 DUP10 ADD PUSH2 0xDF JUMP JUMPDEST SWAP4 POP POP PUSH1 0x60 PUSH2 0x151 DUP9 DUP3 DUP10 ADD PUSH2 0xDF JUMP JUMPDEST SWAP3 POP POP PUSH1 0x80 PUSH2 0x162 DUP9 DUP3 DUP10 ADD PUSH2 0xCA JUMP JUMPDEST SWAP2 POP POP SWAP3 SWAP6 POP SWAP3 SWAP6 SWAP1 SWAP4 POP JUMP JUMPDEST PUSH1 0x0 PUSH2 0x17A DUP3 PUSH2 0x181 JUMP JUMPDEST SWAP1 POP SWAP2 SWAP1 POP JUMP JUMPDEST PUSH1 0x0 PUSH20 0xFFFFFFFFFFFFFFFFFFFFFFFFFFFFFFFFFFFFFFFF DUP3 AND SWAP1 POP SWAP2 SWAP1 POP JUMP JUMPDEST PUSH1 0x0 DUP2 SWAP1 POP SWAP2 SWAP1 POP JUMP JUMPDEST PUSH1 0x0 DUP1 REVERT JUMPDEST PUSH2 0x1B9 DUP2 PUSH2 0x16F JUMP JUMPDEST DUP2 EQ PUSH2 0x1C4 JUMPI PUSH1 0x0 DUP1 REVERT JUMPDEST POP JUMP JUMPDEST PUSH2 0x1D0 DUP2 PUSH2 0x1A1 JUMP JUMPDEST DUP2 EQ PUSH2 0x1DB JUMPI PUSH1 0x0 DUP1 REVERT JUMPDEST POP JUMP JUMPDEST PUSH2 0x86D DUP1 PUSH2 0x1ED PUSH1 0x0 CODECOPY PUSH1 0x0 RETURN INVALID PUSH1 0x80 PUSH1 0x40 MSTORE PUSH1 0x4 CALLDATASIZE LT PUSH2 0x59 JUMPI PUSH1 0x0 CALLDATALOAD PUSH1 0xE0 SHR DUP1 PUSH4 0x38CC4831 EQ PUSH2 0xD8 JUMPI DUP1 PUSH4 0x835FC6CA EQ PUSH2 0x103 JUMPI DUP1 PUSH4 0xAF640D0F EQ PUSH2 0x12C JUMPI DUP1 PUSH4 0xD0E30DB0 EQ PUSH2 0x157 JUMPI DUP1 PUSH4 0xDA6E75C2 EQ PUSH2 0x161 JUMPI DUP1 PUSH4 0xF2BCD022 EQ PUSH2 0x178 JUMPI PUSH2 0x9B JUMP JUMPDEST CALLDATASIZE PUSH2 0x9B JUMPI PUSH32 0x2D27851832FCAC28A0D4AF1344F01FED7FFCFD15171C14C564A0C42AA57AE5C0 CALLVALUE ADDRESS SELFBALANCE PUSH1 0x40 MLOAD PUSH2 0x91 SWAP4 SWAP3 SWAP2 SWAP1 PUSH2 0x699 JUMP JUMPDEST PUSH1 0x40 MLOAD DUP1 SWAP2 SUB SWAP1 LOG1 STOP JUMPDEST PUSH32 0x2D27851832FCAC28A0D4AF1344F01FED7FFCFD15171C14C564A0C42AA57AE5C0 CALLVALUE ADDRESS SELFBALANCE PUSH1 0x40 MLOAD PUSH2 0xCE SWAP4 SWAP3 SWAP2 SWAP1 PUSH2 0x699 JUMP JUMPDEST PUSH1 0x40 MLOAD DUP1 SWAP2 SUB SWAP1 LOG1 STOP JUMPDEST CALLVALUE DUP1 ISZERO PUSH2 0xE4 JUMPI PUSH1 0x0 DUP1 REVERT JUMPDEST POP PUSH2 0xED PUSH2 0x1A3 JUMP JUMPDEST PUSH1 0x40 MLOAD PUSH2 0xFA SWAP2 SWAP1 PUSH2 0x5E3 JUMP JUMPDEST PUSH1 0x40 MLOAD DUP1 SWAP2 SUB SWAP1 RETURN JUMPDEST CALLVALUE DUP1 ISZERO PUSH2 0x10F JUMPI PUSH1 0x0 DUP1 REVERT JUMPDEST POP PUSH2 0x12A PUSH1 0x4 DUP1 CALLDATASIZE SUB DUP2 ADD SWAP1 PUSH2 0x125 SWAP2 SWAP1 PUSH2 0x4D4 JUMP JUMPDEST PUSH2 0x1AB JUMP JUMPDEST STOP JUMPDEST CALLVALUE DUP1 ISZERO PUSH2 0x138 JUMPI PUSH1 0x0 DUP1 REVERT JUMPDEST POP PUSH2 0x141 PUSH2 0x2FE JUMP JUMPDEST PUSH1 0x40 MLOAD PUSH2 0x14E SWAP2 SWAP1 PUSH2 0x67E JUMP JUMPDEST PUSH1 0x40 MLOAD DUP1 SWAP2 SUB SWAP1 RETURN JUMPDEST PUSH2 0x15F PUSH2 0x304 JUMP JUMPDEST STOP JUMPDEST CALLVALUE DUP1 ISZERO PUSH2 0x16D JUMPI PUSH1 0x0 DUP1 REVERT JUMPDEST POP PUSH2 0x176 PUSH2 0x341 JUMP JUMPDEST STOP JUMPDEST CALLVALUE DUP1 ISZERO PUSH2 0x184 JUMPI PUSH1 0x0 DUP1 REVERT JUMPDEST POP PUSH2 0x18D PUSH2 0x499 JUMP JUMPDEST PUSH1 0x40 MLOAD PUSH2 0x19A SWAP2 SWAP1 PUSH2 0x5E3 JUMP JUMPDEST PUSH1 0x40 MLOAD DUP1 SWAP2 SUB SWAP1 RETURN JUMPDEST PUSH1 0x0 ADDRESS SWAP1 POP SWAP1 JUMP JUMPDEST DUP1 SELFBALANCE LT ISZERO PUSH2 0x1EE JUMPI PUSH1 0x40 MLOAD PUSH32 0x8C379A000000000000000000000000000000000000000000000000000000000 DUP2 MSTORE PUSH1 0x4 ADD PUSH2 0x1E5 SWAP1 PUSH2 0x63E JUMP JUMPDEST PUSH1 0x40 MLOAD DUP1 SWAP2 SUB SWAP1 REVERT JUMPDEST PUSH1 0x0 PUSH1 0x1 PUSH1 0x0 SWAP1 SLOAD SWAP1 PUSH2 0x100 EXP SWAP1 DIV PUSH20 0xFFFFFFFFFFFFFFFFFFFFFFFFFFFFFFFFFFFFFFFF AND PUSH20 0xFFFFFFFFFFFFFFFFFFFFFFFFFFFFFFFFFFFFFFFF AND DUP3 PUSH1 0x40 MLOAD PUSH2 0x236 SWAP1 PUSH2 0x5CE JUMP JUMPDEST PUSH1 0x0 PUSH1 0x40 MLOAD DUP1 DUP4 SUB DUP2 DUP6 DUP8 GAS CALL SWAP3 POP POP POP RETURNDATASIZE DUP1 PUSH1 0x0 DUP2 EQ PUSH2 0x273 JUMPI PUSH1 0x40 MLOAD SWAP2 POP PUSH1 0x1F NOT PUSH1 0x3F RETURNDATASIZE ADD AND DUP3 ADD PUSH1 0x40 MSTORE RETURNDATASIZE DUP3 MSTORE RETURNDATASIZE PUSH1 0x0 PUSH1 0x20 DUP5 ADD RETURNDATACOPY PUSH2 0x278 JUMP JUMPDEST PUSH1 0x60 SWAP2 POP JUMPDEST POP POP SWAP1 POP PUSH1 0x1 ISZERO ISZERO DUP2 ISZERO ISZERO EQ PUSH2 0x2C3 JUMPI PUSH1 0x40 MLOAD PUSH32 0x8C379A000000000000000000000000000000000000000000000000000000000 DUP2 MSTORE PUSH1 0x4 ADD PUSH2 0x2BA SWAP1 PUSH2 0x65E JUMP JUMPDEST PUSH1 0x40 MLOAD DUP1 SWAP2 SUB SWAP1 REVERT JUMPDEST PUSH32 0x794032702377D1E7EB93381E2467D569394569207A770AF85B3222A361126C91 SELFBALANCE PUSH1 0x40 MLOAD PUSH2 0x2F2 SWAP2 SWAP1 PUSH2 0x67E JUMP JUMPDEST PUSH1 0x40 MLOAD DUP1 SWAP2 SUB SWAP1 LOG1 POP POP JUMP JUMPDEST PUSH1 0x0 SLOAD DUP2 JUMP JUMPDEST PUSH32 0x2D27851832FCAC28A0D4AF1344F01FED7FFCFD15171C14C564A0C42AA57AE5C0 CALLVALUE ADDRESS SELFBALANCE PUSH1 0x40 MLOAD PUSH2 0x337 SWAP4 SWAP3 SWAP2 SWAP1 PUSH2 0x699 JUMP JUMPDEST PUSH1 0x40 MLOAD DUP1 SWAP2 SUB SWAP1 LOG1 JUMP JUMPDEST PUSH1 0x2 SLOAD SELFBALANCE LT ISZERO PUSH2 0x386 JUMPI PUSH1 0x40 MLOAD PUSH32 0x8C379A000000000000000000000000000000000000000000000000000000000 DUP2 MSTORE PUSH1 0x4 ADD PUSH2 0x37D SWAP1 PUSH2 0x5FE JUMP JUMPDEST PUSH1 0x40 MLOAD DUP1 SWAP2 SUB SWAP1 REVERT JUMPDEST PUSH1 0x0 PUSH1 0x4 PUSH1 0x0 SWAP1 SLOAD SWAP1 PUSH2 0x100 EXP SWAP1 DIV PUSH20 0xFFFFFFFFFFFFFFFFFFFFFFFFFFFFFFFFFFFFFFFF AND PUSH20 0xFFFFFFFFFFFFFFFFFFFFFFFFFFFFFFFFFFFFFFFF AND PUSH1 0x2 SLOAD PUSH1 0x40 MLOAD PUSH2 0x3D0 SWAP1 PUSH2 0x5CE JUMP JUMPDEST PUSH1 0x0 PUSH1 0x40 MLOAD DUP1 DUP4 SUB DUP2 DUP6 DUP8 GAS CALL SWAP3 POP POP POP RETURNDATASIZE DUP1 PUSH1 0x0 DUP2 EQ PUSH2 0x40D JUMPI PUSH1 0x40 MLOAD SWAP2 POP PUSH1 0x1F NOT PUSH1 0x3F RETURNDATASIZE ADD AND DUP3 ADD PUSH1 0x40 MSTORE RETURNDATASIZE DUP3 MSTORE RETURNDATASIZE PUSH1 0x0 PUSH1 0x20 DUP5 ADD RETURNDATACOPY PUSH2 0x412 JUMP JUMPDEST PUSH1 0x60 SWAP2 POP JUMPDEST POP POP SWAP1 POP PUSH1 0x1 ISZERO ISZERO DUP2 ISZERO ISZERO EQ PUSH2 0x45D JUMPI PUSH1 0x40 MLOAD PUSH32 0x8C379A000000000000000000000000000000000000000000000000000000000 DUP2 MSTORE PUSH1 0x4 ADD PUSH2 0x454 SWAP1 PUSH2 0x61E JUMP JUMPDEST PUSH1 0x40 MLOAD DUP1 SWAP2 SUB SWAP1 REVERT JUMPDEST PUSH32 0x56E1CF8A52E84572FF49B950FA9A1A1867319BF8EBA3BF8C77BC4354678A34C5 PUSH1 0x2 SLOAD PUSH1 0x40 MLOAD PUSH2 0x48E SWAP2 SWAP1 PUSH2 0x67E JUMP JUMPDEST PUSH1 0x40 MLOAD DUP1 SWAP2 SUB SWAP1 LOG1 POP JUMP JUMPDEST PUSH1 0x1 PUSH1 0x0 SWAP1 SLOAD SWAP1 PUSH2 0x100 EXP SWAP1 DIV PUSH20 0xFFFFFFFFFFFFFFFFFFFFFFFFFFFFFFFFFFFFFFFF AND DUP2 JUMP JUMPDEST PUSH1 0x0 DUP2 CALLDATALOAD SWAP1 POP PUSH2 0x4CE DUP2 PUSH2 0x820 JUMP JUMPDEST SWAP3 SWAP2 POP POP JUMP JUMPDEST PUSH1 0x0 PUSH1 0x20 DUP3 DUP5 SUB SLT ISZERO PUSH2 0x4EA JUMPI PUSH2 0x4E9 PUSH2 0x728 JUMP JUMPDEST JUMPDEST PUSH1 0x0 PUSH2 0x4F8 DUP5 DUP3 DUP6 ADD PUSH2 0x4BF JUMP JUMPDEST SWAP2 POP POP SWAP3 SWAP2 POP POP JUMP JUMPDEST PUSH2 0x50A DUP2 PUSH2 0x6EC JUMP JUMPDEST DUP3 MSTORE POP POP JUMP JUMPDEST PUSH1 0x0 PUSH2 0x51D PUSH1 0x12 DUP4 PUSH2 0x6DB JUMP JUMPDEST SWAP2 POP PUSH2 0x528 DUP3 PUSH2 0x72D JUMP JUMPDEST PUSH1 0x20 DUP3 ADD SWAP1 POP SWAP2 SWAP1 POP JUMP JUMPDEST PUSH1 0x0 PUSH2 0x540 PUSH1 0x2A DUP4 PUSH2 0x6DB JUMP JUMPDEST SWAP2 POP PUSH2 0x54B DUP3 PUSH2 0x756 JUMP JUMPDEST PUSH1 0x40 DUP3 ADD SWAP1 POP SWAP2 SWAP1 POP JUMP JUMPDEST PUSH1 0x0 PUSH2 0x563 PUSH1 0x18 DUP4 PUSH2 0x6DB JUMP JUMPDEST SWAP2 POP PUSH2 0x56E DUP3 PUSH2 0x7A5 JUMP JUMPDEST PUSH1 0x20 DUP3 ADD SWAP1 POP SWAP2 SWAP1 POP JUMP JUMPDEST PUSH1 0x0 PUSH2 0x586 PUSH1 0x0 DUP4 PUSH2 0x6D0 JUMP JUMPDEST SWAP2 POP PUSH2 0x591 DUP3 PUSH2 0x7CE JUMP JUMPDEST PUSH1 0x0 DUP3 ADD SWAP1 POP SWAP2 SWAP1 POP JUMP JUMPDEST PUSH1 0x0 PUSH2 0x5A9 PUSH1 0x2D DUP4 PUSH2 0x6DB JUMP JUMPDEST SWAP2 POP PUSH2 0x5B4 DUP3 PUSH2 0x7D1 JUMP JUMPDEST PUSH1 0x40 DUP3 ADD SWAP1 POP SWAP2 SWAP1 POP JUMP JUMPDEST PUSH2 0x5C8 DUP2 PUSH2 0x71E JUMP JUMPDEST DUP3 MSTORE POP POP JUMP JUMPDEST PUSH1 0x0 PUSH2 0x5D9 DUP3 PUSH2 0x579 JUMP JUMPDEST SWAP2 POP DUP2 SWAP1 POP SWAP2 SWAP1 POP JUMP JUMPDEST PUSH1 0x0 PUSH1 0x20 DUP3 ADD SWAP1 POP PUSH2 0x5F8 PUSH1 0x0 DUP4 ADD DUP5 PUSH2 0x501 JUMP JUMPDEST SWAP3 SWAP2 POP POP JUMP JUMPDEST PUSH1 0x0 PUSH1 0x20 DUP3 ADD SWAP1 POP DUP2 DUP2 SUB PUSH1 0x0 DUP4 ADD MSTORE PUSH2 0x617 DUP2 PUSH2 0x510 JUMP JUMPDEST SWAP1 POP SWAP2 SWAP1 POP JUMP JUMPDEST PUSH1 0x0 PUSH1 0x20 DUP3 ADD SWAP1 POP DUP2 DUP2 SUB PUSH1 0x0 DUP4 ADD MSTORE PUSH2 0x637 DUP2 PUSH2 0x533 JUMP JUMPDEST SWAP1 POP SWAP2 SWAP1 POP JUMP JUMPDEST PUSH1 0x0 PUSH1 0x20 DUP3 ADD SWAP1 POP DUP2 DUP2 SUB PUSH1 0x0 DUP4 ADD MSTORE PUSH2 0x657 DUP2 PUSH2 0x556 JUMP JUMPDEST SWAP1 POP SWAP2 SWAP1 POP JUMP JUMPDEST PUSH1 0x0 PUSH1 0x20 DUP3 ADD SWAP1 POP DUP2 DUP2 SUB PUSH1 0x0 DUP4 ADD MSTORE PUSH2 0x677 DUP2 PUSH2 0x59C JUMP JUMPDEST SWAP1 POP SWAP2 SWAP1 POP JUMP JUMPDEST PUSH1 0x0 PUSH1 0x20 DUP3 ADD SWAP1 POP PUSH2 0x693 PUSH1 0x0 DUP4 ADD DUP5 PUSH2 0x5BF JUMP JUMPDEST SWAP3 SWAP2 POP POP JUMP JUMPDEST PUSH1 0x0 PUSH1 0x60 DUP3 ADD SWAP1 POP PUSH2 0x6AE PUSH1 0x0 DUP4 ADD DUP7 PUSH2 0x5BF JUMP JUMPDEST PUSH2 0x6BB PUSH1 0x20 DUP4 ADD DUP6 PUSH2 0x501 JUMP JUMPDEST PUSH2 0x6C8 PUSH1 0x40 DUP4 ADD DUP5 PUSH2 0x5BF JUMP JUMPDEST SWAP5 SWAP4 POP POP POP POP JUMP JUMPDEST PUSH1 0x0 DUP2 SWAP1 POP SWAP3 SWAP2 POP POP JUMP JUMPDEST PUSH1 0x0 DUP3 DUP3 MSTORE PUSH1 0x20 DUP3 ADD SWAP1 POP SWAP3 SWAP2 POP POP JUMP JUMPDEST PUSH1 0x0 PUSH2 0x6F7 DUP3 PUSH2 0x6FE JUMP JUMPDEST SWAP1 POP SWAP2 SWAP1 POP JUMP JUMPDEST PUSH1 0x0 PUSH20 0xFFFFFFFFFFFFFFFFFFFFFFFFFFFFFFFFFFFFFFFF DUP3 AND SWAP1 POP SWAP2 SWAP1 POP JUMP JUMPDEST PUSH1 0x0 DUP2 SWAP1 POP SWAP2 SWAP1 POP JUMP JUMPDEST PUSH1 0x0 DUP1 REVERT JUMPDEST PUSH32 0x496E73756666696369656E742066756E64730000000000000000000000000000 PUSH1 0x0 DUP3 ADD MSTORE POP JUMP JUMPDEST PUSH32 0x5061796D656E74206661696C65642E2054727920616761696E20696E20736F6D PUSH1 0x0 DUP3 ADD MSTORE PUSH32 0x65206D696E757465732E00000000000000000000000000000000000000000000 PUSH1 0x20 DUP3 ADD MSTORE POP JUMP JUMPDEST PUSH32 0x557365723A20496E73756666696369656E742066756E64730000000000000000 PUSH1 0x0 DUP3 ADD MSTORE POP JUMP JUMPDEST POP JUMP JUMPDEST PUSH32 0x5769746864726177616C206661696C65642E2054727920616761696E20696E20 PUSH1 0x0 DUP3 ADD MSTORE PUSH32 0x736F6D65206D696E757465732E00000000000000000000000000000000000000 PUSH1 0x20 DUP3 ADD MSTORE POP JUMP JUMPDEST PUSH2 0x829 DUP2 PUSH2 0x71E JUMP JUMPDEST DUP2 EQ PUSH2 0x834 JUMPI PUSH1 0x0 DUP1 REVERT JUMPDEST POP JUMP INVALID LOG2 PUSH5 0x6970667358 0x22 SLT KECCAK256 0xC1 PUSH30 0x509B097B52B946C9C19B53E5FB525FD9E1A3BE38560DA190A0F59EAA38BB PUSH5 0x736F6C6343 STOP ADDMOD SMOD STOP CALLER LOG2 PUSH5 0x6970667358 0x22 SLT KECCAK256 0x4A 0xAE CALLVALUE STOP 0xF7 DUP15 PUSH20 0xCF3D35CBF3D4D00B2F21EE2237F2A55DCD91AB05 PUSH7 0x77B16F9064736F PUSH13 0x63430008070033000000000000 "
				},
				"gasEstimates": {
					"creation": {
						"codeDepositCost": "2208600",
						"executionCost": "infinite",
						"totalCost": "infinite"
					},
					"external": {
						"": "218",
						"addNewEmployee(uint256,address,string,string,uint256)": "infinite",
						"addNewService(string,uint256)": "infinite",
						"addNewTenant(uint256,address,uint256,uint256)": "infinite",
						"depositEmployee()": "infinite",
						"depositTenant()": "infinite",
						"owner()": "2545",
						"payAllServices()": "210",
						"paySalaries()": "2733",
						"payService(uint256)": "428",
						"renounceOwnership()": "30465",
						"showAddress()": "496",
						"tenantWithdrawal()": "infinite",
						"transferOwnership(address)": "30835"
					}
				},
				"methodIdentifiers": {
					"addNewEmployee(uint256,address,string,string,uint256)": "08b567fc",
					"addNewService(string,uint256)": "72673e31",
					"addNewTenant(uint256,address,uint256,uint256)": "bce58703",
					"depositEmployee()": "c2d2a83c",
					"depositTenant()": "2db3361b",
					"owner()": "8da5cb5b",
					"payAllServices()": "ec3ab274",
					"paySalaries()": "42e36b3b",
					"payService(uint256)": "cd7d77c5",
					"renounceOwnership()": "715018a6",
					"showAddress()": "85ffebd7",
					"tenantWithdrawal()": "eb20f21a",
					"transferOwnership(address)": "f2fde38b"
				}
			},
			"storageLayout": {
				"storage": [
					{
						"astId": 7,
						"contract": "challenges/Consorcio/Consorcio.sol:Consorcio",
						"label": "_owner",
						"offset": 0,
						"slot": "0",
						"type": "t_address"
					},
					{
						"astId": 151,
						"contract": "challenges/Consorcio/Consorcio.sol:Consorcio",
						"label": "employeeList",
						"offset": 0,
						"slot": "1",
						"type": "t_array(t_contract(Employee)408)dyn_storage"
					},
					{
						"astId": 155,
						"contract": "challenges/Consorcio/Consorcio.sol:Consorcio",
						"label": "tenantList",
						"offset": 0,
						"slot": "2",
						"type": "t_array(t_contract(Tenant)507)dyn_storage"
					},
					{
						"astId": 159,
						"contract": "challenges/Consorcio/Consorcio.sol:Consorcio",
						"label": "serviceList",
						"offset": 0,
						"slot": "3",
						"type": "t_array(t_struct(Service)147_storage)dyn_storage"
					},
					{
						"astId": 162,
						"contract": "challenges/Consorcio/Consorcio.sol:Consorcio",
						"label": "anEmployee",
						"offset": 0,
						"slot": "4",
						"type": "t_contract(Employee)408"
					},
					{
						"astId": 165,
						"contract": "challenges/Consorcio/Consorcio.sol:Consorcio",
						"label": "aTenant",
						"offset": 0,
						"slot": "5",
						"type": "t_contract(Tenant)507"
					},
					{
						"astId": 168,
						"contract": "challenges/Consorcio/Consorcio.sol:Consorcio",
						"label": "aService",
						"offset": 0,
						"slot": "6",
						"type": "t_struct(Service)147_storage"
					}
				],
				"types": {
					"t_address": {
						"encoding": "inplace",
						"label": "address",
						"numberOfBytes": "20"
					},
					"t_array(t_contract(Employee)408)dyn_storage": {
						"base": "t_contract(Employee)408",
						"encoding": "dynamic_array",
						"label": "contract Employee[]",
						"numberOfBytes": "32"
					},
					"t_array(t_contract(Tenant)507)dyn_storage": {
						"base": "t_contract(Tenant)507",
						"encoding": "dynamic_array",
						"label": "contract Tenant[]",
						"numberOfBytes": "32"
					},
					"t_array(t_struct(Service)147_storage)dyn_storage": {
						"base": "t_struct(Service)147_storage",
						"encoding": "dynamic_array",
						"label": "struct Consorcio.Service[]",
						"numberOfBytes": "32"
					},
					"t_contract(Employee)408": {
						"encoding": "inplace",
						"label": "contract Employee",
						"numberOfBytes": "20"
					},
					"t_contract(Tenant)507": {
						"encoding": "inplace",
						"label": "contract Tenant",
						"numberOfBytes": "20"
					},
					"t_string_storage": {
						"encoding": "bytes",
						"label": "string",
						"numberOfBytes": "32"
					},
					"t_struct(Service)147_storage": {
						"encoding": "inplace",
						"label": "struct Consorcio.Service",
						"members": [
							{
								"astId": 144,
								"contract": "challenges/Consorcio/Consorcio.sol:Consorcio",
								"label": "service",
								"offset": 0,
								"slot": "0",
								"type": "t_string_storage"
							},
							{
								"astId": 146,
								"contract": "challenges/Consorcio/Consorcio.sol:Consorcio",
								"label": "price",
								"offset": 0,
								"slot": "1",
								"type": "t_uint256"
							}
						],
						"numberOfBytes": "64"
					},
					"t_uint256": {
						"encoding": "inplace",
						"label": "uint256",
						"numberOfBytes": "32"
					}
				}
			},
			"userdoc": {
				"kind": "user",
				"methods": {},
				"version": 1
			}
		}
	}
}