{
	"challenges/Consorcio/Employee.sol": {
		"Employee": {
			"abi": [
				{
					"inputs": [
						{
							"internalType": "uint256",
							"name": "newId",
							"type": "uint256"
						},
						{
							"internalType": "address",
							"name": "newAddress",
							"type": "address"
						},
						{
							"internalType": "string",
							"name": "newProfession",
							"type": "string"
						},
						{
							"internalType": "string",
							"name": "newSchedule",
							"type": "string"
						},
						{
							"internalType": "uint256",
							"name": "newSalary",
							"type": "uint256"
						}
					],
					"stateMutability": "nonpayable",
					"type": "constructor"
				},
				{
					"anonymous": false,
					"inputs": [
						{
							"indexed": false,
							"internalType": "uint256",
							"name": "amount",
							"type": "uint256"
						},
						{
							"indexed": false,
							"internalType": "address",
							"name": "tenantAddress",
							"type": "address"
						},
						{
							"indexed": false,
							"internalType": "uint256",
							"name": "balance",
							"type": "uint256"
						}
					],
					"name": "EtherReceived",
					"type": "event"
				},
				{
					"anonymous": false,
					"inputs": [
						{
							"indexed": false,
							"internalType": "uint256",
							"name": "addressBalance",
							"type": "uint256"
						}
					],
					"name": "WithdrawalSuccessful",
					"type": "event"
				},
				{
					"stateMutability": "payable",
					"type": "fallback"
				},
				{
					"inputs": [],
					"name": "getAddress",
					"outputs": [
						{
							"internalType": "address",
							"name": "",
							"type": "address"
						}
					],
					"stateMutability": "view",
					"type": "function"
				},
				{
					"inputs": [],
					"name": "id",
					"outputs": [
						{
							"internalType": "uint256",
							"name": "",
							"type": "uint256"
						}
					],
					"stateMutability": "view",
					"type": "function"
				},
				{
					"inputs": [
						{
							"internalType": "uint256",
							"name": "_amount",
							"type": "uint256"
						}
					],
					"name": "withdrawal",
					"outputs": [],
					"stateMutability": "nonpayable",
					"type": "function"
				},
				{
					"inputs": [],
					"name": "withdrawalAddress",
					"outputs": [
						{
							"internalType": "address",
							"name": "",
							"type": "address"
						}
					],
					"stateMutability": "view",
					"type": "function"
				},
				{
					"stateMutability": "payable",
					"type": "receive"
				}
			],
			"devdoc": {
				"kind": "dev",
				"methods": {},
				"version": 1
			},
			"evm": {
				"assembly": "    /* \"challenges/Consorcio/Employee.sol\":84:511  contract Employee is User {\r... */\n  mstore(0x40, 0x80)\n    /* \"challenges/Consorcio/Employee.sol\":209:508  constructor(\r... */\n  callvalue\n  dup1\n  iszero\n  tag_1\n  jumpi\n  0x00\n  dup1\n  revert\ntag_1:\n  pop\n  mload(0x40)\n  sub(codesize, bytecodeSize)\n  dup1\n  bytecodeSize\n  dup4\n  codecopy\n  dup2\n  dup2\n  add\n  0x40\n  mstore\n  dup2\n  add\n  swap1\n  tag_2\n  swap2\n  swap1\n  tag_3\n  jump\t// in\ntag_2:\n    /* \"challenges/Consorcio/Employee.sol\":382:387  newId */\n  dup5\n    /* \"challenges/Consorcio/Employee.sol\":389:399  newAddress */\n  dup5\n    /* \"challenges/Consorcio/User.sol\":587:592  newId */\n  dup2\n    /* \"challenges/Consorcio/User.sol\":582:584  id */\n  0x00\n    /* \"challenges/Consorcio/User.sol\":582:592  id = newId */\n  dup2\n  swap1\n  sstore\n  pop\n    /* \"challenges/Consorcio/User.sol\":623:633  newAddress */\n  dup1\n    /* \"challenges/Consorcio/User.sol\":603:620  withdrawalAddress */\n  0x01\n  0x00\n    /* \"challenges/Consorcio/User.sol\":603:633  withdrawalAddress = newAddress */\n  0x0100\n  exp\n  dup2\n  sload\n  dup2\n  0xffffffffffffffffffffffffffffffffffffffff\n  mul\n  not\n  and\n  swap1\n  dup4\n  0xffffffffffffffffffffffffffffffffffffffff\n  and\n  mul\n  or\n  swap1\n  sstore\n  pop\n    /* \"challenges/Consorcio/User.sol\":527:641  constructor(uint newId, address newAddress) {\r... */\n  pop\n  pop\n    /* \"challenges/Consorcio/Employee.sol\":425:438  newProfession */\n  dup3\n    /* \"challenges/Consorcio/Employee.sol\":412:422  profession */\n  0x02\n    /* \"challenges/Consorcio/Employee.sol\":412:438  profession = newProfession */\n  swap1\n  dup1\n  mload\n  swap1\n  0x20\n  add\n  swap1\n  tag_8\n  swap3\n  swap2\n  swap1\n  tag_9\n  jump\t// in\ntag_8:\n  pop\n    /* \"challenges/Consorcio/Employee.sol\":460:471  newSchedule */\n  dup2\n    /* \"challenges/Consorcio/Employee.sol\":449:457  schedule */\n  0x03\n    /* \"challenges/Consorcio/Employee.sol\":449:471  schedule = newSchedule */\n  swap1\n  dup1\n  mload\n  swap1\n  0x20\n  add\n  swap1\n  tag_10\n  swap3\n  swap2\n  swap1\n  tag_9\n  jump\t// in\ntag_10:\n  pop\n    /* \"challenges/Consorcio/Employee.sol\":491:500  newSalary */\n  dup1\n    /* \"challenges/Consorcio/Employee.sol\":482:488  salary */\n  0x04\n    /* \"challenges/Consorcio/Employee.sol\":482:500  salary = newSalary */\n  dup2\n  swap1\n  sstore\n  pop\n    /* \"challenges/Consorcio/Employee.sol\":209:508  constructor(\r... */\n  pop\n  pop\n  pop\n  pop\n  pop\n    /* \"challenges/Consorcio/Employee.sol\":84:511  contract Employee is User {\r... */\n  jump(tag_11)\ntag_9:\n  dup3\n  dup1\n  sload\n  tag_12\n  swap1\n  tag_13\n  jump\t// in\ntag_12:\n  swap1\n  0x00\n  mstore\n  keccak256(0x00, 0x20)\n  swap1\n  0x1f\n  add\n  0x20\n  swap1\n  div\n  dup2\n  add\n  swap3\n  dup3\n  tag_15\n  jumpi\n  0x00\n  dup6\n  sstore\n  jump(tag_14)\ntag_15:\n  dup3\n  0x1f\n  lt\n  tag_16\n  jumpi\n  dup1\n  mload\n  not(0xff)\n  and\n  dup4\n  dup1\n  add\n  or\n  dup6\n  sstore\n  jump(tag_14)\ntag_16:\n  dup3\n  dup1\n  add\n  0x01\n  add\n  dup6\n  sstore\n  dup3\n  iszero\n  tag_14\n  jumpi\n  swap2\n  dup3\n  add\ntag_17:\n  dup3\n  dup2\n  gt\n  iszero\n  tag_18\n  jumpi\n  dup3\n  mload\n  dup3\n  sstore\n  swap2\n  0x20\n  add\n  swap2\n  swap1\n  0x01\n  add\n  swap1\n  jump(tag_17)\ntag_18:\ntag_14:\n  pop\n  swap1\n  pop\n  tag_19\n  swap2\n  swap1\n  tag_20\n  jump\t// in\ntag_19:\n  pop\n  swap1\n  jump\t// out\ntag_20:\ntag_21:\n  dup1\n  dup3\n  gt\n  iszero\n  tag_22\n  jumpi\n  0x00\n  dup2\n  0x00\n  swap1\n  sstore\n  pop\n  0x01\n  add\n  jump(tag_21)\ntag_22:\n  pop\n  swap1\n  jump\t// out\n    /* \"#utility.yul\":7:428   */\ntag_24:\n    /* \"#utility.yul\":96:101   */\n  0x00\n    /* \"#utility.yul\":121:187   */\n  tag_26\n    /* \"#utility.yul\":137:186   */\n  tag_27\n    /* \"#utility.yul\":179:185   */\n  dup5\n    /* \"#utility.yul\":137:186   */\n  tag_28\n  jump\t// in\ntag_27:\n    /* \"#utility.yul\":121:187   */\n  tag_29\n  jump\t// in\ntag_26:\n    /* \"#utility.yul\":112:187   */\n  swap1\n  pop\n    /* \"#utility.yul\":210:216   */\n  dup3\n    /* \"#utility.yul\":203:208   */\n  dup2\n    /* \"#utility.yul\":196:217   */\n  mstore\n    /* \"#utility.yul\":248:252   */\n  0x20\n    /* \"#utility.yul\":241:246   */\n  dup2\n    /* \"#utility.yul\":237:253   */\n  add\n    /* \"#utility.yul\":286:289   */\n  dup5\n    /* \"#utility.yul\":277:283   */\n  dup5\n    /* \"#utility.yul\":272:275   */\n  dup5\n    /* \"#utility.yul\":268:284   */\n  add\n    /* \"#utility.yul\":265:290   */\n  gt\n    /* \"#utility.yul\":262:374   */\n  iszero\n  tag_30\n  jumpi\n    /* \"#utility.yul\":293:372   */\n  tag_31\n  tag_32\n  jump\t// in\ntag_31:\n    /* \"#utility.yul\":262:374   */\ntag_30:\n    /* \"#utility.yul\":383:422   */\n  tag_33\n    /* \"#utility.yul\":415:421   */\n  dup5\n    /* \"#utility.yul\":410:413   */\n  dup3\n    /* \"#utility.yul\":405:408   */\n  dup6\n    /* \"#utility.yul\":383:422   */\n  tag_34\n  jump\t// in\ntag_33:\n    /* \"#utility.yul\":102:428   */\n  pop\n    /* \"#utility.yul\":7:428   */\n  swap4\n  swap3\n  pop\n  pop\n  pop\n  jump\t// out\n    /* \"#utility.yul\":434:577   */\ntag_35:\n    /* \"#utility.yul\":491:496   */\n  0x00\n    /* \"#utility.yul\":522:528   */\n  dup2\n    /* \"#utility.yul\":516:529   */\n  mload\n    /* \"#utility.yul\":507:529   */\n  swap1\n  pop\n    /* \"#utility.yul\":538:571   */\n  tag_37\n    /* \"#utility.yul\":565:570   */\n  dup2\n    /* \"#utility.yul\":538:571   */\n  tag_38\n  jump\t// in\ntag_37:\n    /* \"#utility.yul\":434:577   */\n  swap3\n  swap2\n  pop\n  pop\n  jump\t// out\n    /* \"#utility.yul\":597:952   */\ntag_39:\n    /* \"#utility.yul\":664:669   */\n  0x00\n    /* \"#utility.yul\":713:716   */\n  dup3\n    /* \"#utility.yul\":706:710   */\n  0x1f\n    /* \"#utility.yul\":698:704   */\n  dup4\n    /* \"#utility.yul\":694:711   */\n  add\n    /* \"#utility.yul\":690:717   */\n  slt\n    /* \"#utility.yul\":680:802   */\n  tag_41\n  jumpi\n    /* \"#utility.yul\":721:800   */\n  tag_42\n  tag_43\n  jump\t// in\ntag_42:\n    /* \"#utility.yul\":680:802   */\ntag_41:\n    /* \"#utility.yul\":831:837   */\n  dup2\n    /* \"#utility.yul\":825:838   */\n  mload\n    /* \"#utility.yul\":856:946   */\n  tag_44\n    /* \"#utility.yul\":942:945   */\n  dup5\n    /* \"#utility.yul\":934:940   */\n  dup3\n    /* \"#utility.yul\":927:931   */\n  0x20\n    /* \"#utility.yul\":919:925   */\n  dup7\n    /* \"#utility.yul\":915:932   */\n  add\n    /* \"#utility.yul\":856:946   */\n  tag_24\n  jump\t// in\ntag_44:\n    /* \"#utility.yul\":847:946   */\n  swap2\n  pop\n    /* \"#utility.yul\":670:952   */\n  pop\n    /* \"#utility.yul\":597:952   */\n  swap3\n  swap2\n  pop\n  pop\n  jump\t// out\n    /* \"#utility.yul\":958:1101   */\ntag_45:\n    /* \"#utility.yul\":1015:1020   */\n  0x00\n    /* \"#utility.yul\":1046:1052   */\n  dup2\n    /* \"#utility.yul\":1040:1053   */\n  mload\n    /* \"#utility.yul\":1031:1053   */\n  swap1\n  pop\n    /* \"#utility.yul\":1062:1095   */\n  tag_47\n    /* \"#utility.yul\":1089:1094   */\n  dup2\n    /* \"#utility.yul\":1062:1095   */\n  tag_48\n  jump\t// in\ntag_47:\n    /* \"#utility.yul\":958:1101   */\n  swap3\n  swap2\n  pop\n  pop\n  jump\t// out\n    /* \"#utility.yul\":1107:2430   */\ntag_3:\n    /* \"#utility.yul\":1233:1239   */\n  0x00\n    /* \"#utility.yul\":1241:1247   */\n  dup1\n    /* \"#utility.yul\":1249:1255   */\n  0x00\n    /* \"#utility.yul\":1257:1263   */\n  dup1\n    /* \"#utility.yul\":1265:1271   */\n  0x00\n    /* \"#utility.yul\":1314:1317   */\n  0xa0\n    /* \"#utility.yul\":1302:1311   */\n  dup7\n    /* \"#utility.yul\":1293:1300   */\n  dup9\n    /* \"#utility.yul\":1289:1312   */\n  sub\n    /* \"#utility.yul\":1285:1318   */\n  slt\n    /* \"#utility.yul\":1282:1402   */\n  iszero\n  tag_50\n  jumpi\n    /* \"#utility.yul\":1321:1400   */\n  tag_51\n  tag_52\n  jump\t// in\ntag_51:\n    /* \"#utility.yul\":1282:1402   */\ntag_50:\n    /* \"#utility.yul\":1441:1442   */\n  0x00\n    /* \"#utility.yul\":1466:1530   */\n  tag_53\n    /* \"#utility.yul\":1522:1529   */\n  dup9\n    /* \"#utility.yul\":1513:1519   */\n  dup3\n    /* \"#utility.yul\":1502:1511   */\n  dup10\n    /* \"#utility.yul\":1498:1520   */\n  add\n    /* \"#utility.yul\":1466:1530   */\n  tag_45\n  jump\t// in\ntag_53:\n    /* \"#utility.yul\":1456:1530   */\n  swap6\n  pop\n    /* \"#utility.yul\":1412:1540   */\n  pop\n    /* \"#utility.yul\":1579:1581   */\n  0x20\n    /* \"#utility.yul\":1605:1669   */\n  tag_54\n    /* \"#utility.yul\":1661:1668   */\n  dup9\n    /* \"#utility.yul\":1652:1658   */\n  dup3\n    /* \"#utility.yul\":1641:1650   */\n  dup10\n    /* \"#utility.yul\":1637:1659   */\n  add\n    /* \"#utility.yul\":1605:1669   */\n  tag_35\n  jump\t// in\ntag_54:\n    /* \"#utility.yul\":1595:1669   */\n  swap5\n  pop\n    /* \"#utility.yul\":1550:1679   */\n  pop\n    /* \"#utility.yul\":1739:1741   */\n  0x40\n    /* \"#utility.yul\":1728:1737   */\n  dup7\n    /* \"#utility.yul\":1724:1742   */\n  add\n    /* \"#utility.yul\":1718:1743   */\n  mload\n    /* \"#utility.yul\":1770:1788   */\n  0xffffffffffffffff\n    /* \"#utility.yul\":1762:1768   */\n  dup2\n    /* \"#utility.yul\":1759:1789   */\n  gt\n    /* \"#utility.yul\":1756:1873   */\n  iszero\n  tag_55\n  jumpi\n    /* \"#utility.yul\":1792:1871   */\n  tag_56\n  tag_57\n  jump\t// in\ntag_56:\n    /* \"#utility.yul\":1756:1873   */\ntag_55:\n    /* \"#utility.yul\":1897:1971   */\n  tag_58\n    /* \"#utility.yul\":1963:1970   */\n  dup9\n    /* \"#utility.yul\":1954:1960   */\n  dup3\n    /* \"#utility.yul\":1943:1952   */\n  dup10\n    /* \"#utility.yul\":1939:1961   */\n  add\n    /* \"#utility.yul\":1897:1971   */\n  tag_39\n  jump\t// in\ntag_58:\n    /* \"#utility.yul\":1887:1971   */\n  swap4\n  pop\n    /* \"#utility.yul\":1689:1981   */\n  pop\n    /* \"#utility.yul\":2041:2043   */\n  0x60\n    /* \"#utility.yul\":2030:2039   */\n  dup7\n    /* \"#utility.yul\":2026:2044   */\n  add\n    /* \"#utility.yul\":2020:2045   */\n  mload\n    /* \"#utility.yul\":2072:2090   */\n  0xffffffffffffffff\n    /* \"#utility.yul\":2064:2070   */\n  dup2\n    /* \"#utility.yul\":2061:2091   */\n  gt\n    /* \"#utility.yul\":2058:2175   */\n  iszero\n  tag_59\n  jumpi\n    /* \"#utility.yul\":2094:2173   */\n  tag_60\n  tag_57\n  jump\t// in\ntag_60:\n    /* \"#utility.yul\":2058:2175   */\ntag_59:\n    /* \"#utility.yul\":2199:2273   */\n  tag_61\n    /* \"#utility.yul\":2265:2272   */\n  dup9\n    /* \"#utility.yul\":2256:2262   */\n  dup3\n    /* \"#utility.yul\":2245:2254   */\n  dup10\n    /* \"#utility.yul\":2241:2263   */\n  add\n    /* \"#utility.yul\":2199:2273   */\n  tag_39\n  jump\t// in\ntag_61:\n    /* \"#utility.yul\":2189:2273   */\n  swap3\n  pop\n    /* \"#utility.yul\":1991:2283   */\n  pop\n    /* \"#utility.yul\":2322:2325   */\n  0x80\n    /* \"#utility.yul\":2349:2413   */\n  tag_62\n    /* \"#utility.yul\":2405:2412   */\n  dup9\n    /* \"#utility.yul\":2396:2402   */\n  dup3\n    /* \"#utility.yul\":2385:2394   */\n  dup10\n    /* \"#utility.yul\":2381:2403   */\n  add\n    /* \"#utility.yul\":2349:2413   */\n  tag_45\n  jump\t// in\ntag_62:\n    /* \"#utility.yul\":2339:2413   */\n  swap2\n  pop\n    /* \"#utility.yul\":2293:2423   */\n  pop\n    /* \"#utility.yul\":1107:2430   */\n  swap3\n  swap6\n  pop\n  swap3\n  swap6\n  swap1\n  swap4\n  pop\n  jump\t// out\n    /* \"#utility.yul\":2436:2565   */\ntag_29:\n    /* \"#utility.yul\":2470:2476   */\n  0x00\n    /* \"#utility.yul\":2497:2517   */\n  tag_64\n  tag_65\n  jump\t// in\ntag_64:\n    /* \"#utility.yul\":2487:2517   */\n  swap1\n  pop\n    /* \"#utility.yul\":2526:2559   */\n  tag_66\n    /* \"#utility.yul\":2554:2558   */\n  dup3\n    /* \"#utility.yul\":2546:2552   */\n  dup3\n    /* \"#utility.yul\":2526:2559   */\n  tag_67\n  jump\t// in\ntag_66:\n    /* \"#utility.yul\":2436:2565   */\n  swap2\n  swap1\n  pop\n  jump\t// out\n    /* \"#utility.yul\":2571:2646   */\ntag_65:\n    /* \"#utility.yul\":2604:2610   */\n  0x00\n    /* \"#utility.yul\":2637:2639   */\n  0x40\n    /* \"#utility.yul\":2631:2640   */\n  mload\n    /* \"#utility.yul\":2621:2640   */\n  swap1\n  pop\n    /* \"#utility.yul\":2571:2646   */\n  swap1\n  jump\t// out\n    /* \"#utility.yul\":2652:2960   */\ntag_28:\n    /* \"#utility.yul\":2714:2718   */\n  0x00\n    /* \"#utility.yul\":2804:2822   */\n  0xffffffffffffffff\n    /* \"#utility.yul\":2796:2802   */\n  dup3\n    /* \"#utility.yul\":2793:2823   */\n  gt\n    /* \"#utility.yul\":2790:2846   */\n  iszero\n  tag_70\n  jumpi\n    /* \"#utility.yul\":2826:2844   */\n  tag_71\n  tag_72\n  jump\t// in\ntag_71:\n    /* \"#utility.yul\":2790:2846   */\ntag_70:\n    /* \"#utility.yul\":2864:2893   */\n  tag_73\n    /* \"#utility.yul\":2886:2892   */\n  dup3\n    /* \"#utility.yul\":2864:2893   */\n  tag_74\n  jump\t// in\ntag_73:\n    /* \"#utility.yul\":2856:2893   */\n  swap1\n  pop\n    /* \"#utility.yul\":2948:2952   */\n  0x20\n    /* \"#utility.yul\":2942:2946   */\n  dup2\n    /* \"#utility.yul\":2938:2953   */\n  add\n    /* \"#utility.yul\":2930:2953   */\n  swap1\n  pop\n    /* \"#utility.yul\":2652:2960   */\n  swap2\n  swap1\n  pop\n  jump\t// out\n    /* \"#utility.yul\":2966:3062   */\ntag_75:\n    /* \"#utility.yul\":3003:3010   */\n  0x00\n    /* \"#utility.yul\":3032:3056   */\n  tag_77\n    /* \"#utility.yul\":3050:3055   */\n  dup3\n    /* \"#utility.yul\":3032:3056   */\n  tag_78\n  jump\t// in\ntag_77:\n    /* \"#utility.yul\":3021:3056   */\n  swap1\n  pop\n    /* \"#utility.yul\":2966:3062   */\n  swap2\n  swap1\n  pop\n  jump\t// out\n    /* \"#utility.yul\":3068:3194   */\ntag_78:\n    /* \"#utility.yul\":3105:3112   */\n  0x00\n    /* \"#utility.yul\":3145:3187   */\n  0xffffffffffffffffffffffffffffffffffffffff\n    /* \"#utility.yul\":3138:3143   */\n  dup3\n    /* \"#utility.yul\":3134:3188   */\n  and\n    /* \"#utility.yul\":3123:3188   */\n  swap1\n  pop\n    /* \"#utility.yul\":3068:3194   */\n  swap2\n  swap1\n  pop\n  jump\t// out\n    /* \"#utility.yul\":3200:3277   */\ntag_80:\n    /* \"#utility.yul\":3237:3244   */\n  0x00\n    /* \"#utility.yul\":3266:3271   */\n  dup2\n    /* \"#utility.yul\":3255:3271   */\n  swap1\n  pop\n    /* \"#utility.yul\":3200:3277   */\n  swap2\n  swap1\n  pop\n  jump\t// out\n    /* \"#utility.yul\":3283:3590   */\ntag_34:\n    /* \"#utility.yul\":3351:3352   */\n  0x00\n    /* \"#utility.yul\":3361:3474   */\ntag_83:\n    /* \"#utility.yul\":3375:3381   */\n  dup4\n    /* \"#utility.yul\":3372:3373   */\n  dup2\n    /* \"#utility.yul\":3369:3382   */\n  lt\n    /* \"#utility.yul\":3361:3474   */\n  iszero\n  tag_85\n  jumpi\n    /* \"#utility.yul\":3460:3461   */\n  dup1\n    /* \"#utility.yul\":3455:3458   */\n  dup3\n    /* \"#utility.yul\":3451:3462   */\n  add\n    /* \"#utility.yul\":3445:3463   */\n  mload\n    /* \"#utility.yul\":3441:3442   */\n  dup2\n    /* \"#utility.yul\":3436:3439   */\n  dup5\n    /* \"#utility.yul\":3432:3443   */\n  add\n    /* \"#utility.yul\":3425:3464   */\n  mstore\n    /* \"#utility.yul\":3397:3399   */\n  0x20\n    /* \"#utility.yul\":3394:3395   */\n  dup2\n    /* \"#utility.yul\":3390:3400   */\n  add\n    /* \"#utility.yul\":3385:3400   */\n  swap1\n  pop\n    /* \"#utility.yul\":3361:3474   */\n  jump(tag_83)\ntag_85:\n    /* \"#utility.yul\":3492:3498   */\n  dup4\n    /* \"#utility.yul\":3489:3490   */\n  dup2\n    /* \"#utility.yul\":3486:3499   */\n  gt\n    /* \"#utility.yul\":3483:3584   */\n  iszero\n  tag_86\n  jumpi\n    /* \"#utility.yul\":3572:3573   */\n  0x00\n    /* \"#utility.yul\":3563:3569   */\n  dup5\n    /* \"#utility.yul\":3558:3561   */\n  dup5\n    /* \"#utility.yul\":3554:3570   */\n  add\n    /* \"#utility.yul\":3547:3574   */\n  mstore\n    /* \"#utility.yul\":3483:3584   */\ntag_86:\n    /* \"#utility.yul\":3332:3590   */\n  pop\n    /* \"#utility.yul\":3283:3590   */\n  pop\n  pop\n  pop\n  jump\t// out\n    /* \"#utility.yul\":3596:3916   */\ntag_13:\n    /* \"#utility.yul\":3640:3646   */\n  0x00\n    /* \"#utility.yul\":3677:3678   */\n  0x02\n    /* \"#utility.yul\":3671:3675   */\n  dup3\n    /* \"#utility.yul\":3667:3679   */\n  div\n    /* \"#utility.yul\":3657:3679   */\n  swap1\n  pop\n    /* \"#utility.yul\":3724:3725   */\n  0x01\n    /* \"#utility.yul\":3718:3722   */\n  dup3\n    /* \"#utility.yul\":3714:3726   */\n  and\n    /* \"#utility.yul\":3745:3763   */\n  dup1\n    /* \"#utility.yul\":3735:3816   */\n  tag_88\n  jumpi\n    /* \"#utility.yul\":3801:3805   */\n  0x7f\n    /* \"#utility.yul\":3793:3799   */\n  dup3\n    /* \"#utility.yul\":3789:3806   */\n  and\n    /* \"#utility.yul\":3779:3806   */\n  swap2\n  pop\n    /* \"#utility.yul\":3735:3816   */\ntag_88:\n    /* \"#utility.yul\":3863:3865   */\n  0x20\n    /* \"#utility.yul\":3855:3861   */\n  dup3\n    /* \"#utility.yul\":3852:3866   */\n  lt\n    /* \"#utility.yul\":3832:3850   */\n  dup2\n    /* \"#utility.yul\":3829:3867   */\n  eq\n    /* \"#utility.yul\":3826:3910   */\n  iszero\n  tag_89\n  jumpi\n    /* \"#utility.yul\":3882:3900   */\n  tag_90\n  tag_91\n  jump\t// in\ntag_90:\n    /* \"#utility.yul\":3826:3910   */\ntag_89:\n    /* \"#utility.yul\":3647:3916   */\n  pop\n    /* \"#utility.yul\":3596:3916   */\n  swap2\n  swap1\n  pop\n  jump\t// out\n    /* \"#utility.yul\":3922:4203   */\ntag_67:\n    /* \"#utility.yul\":4005:4032   */\n  tag_93\n    /* \"#utility.yul\":4027:4031   */\n  dup3\n    /* \"#utility.yul\":4005:4032   */\n  tag_74\n  jump\t// in\ntag_93:\n    /* \"#utility.yul\":3997:4003   */\n  dup2\n    /* \"#utility.yul\":3993:4033   */\n  add\n    /* \"#utility.yul\":4135:4141   */\n  dup2\n    /* \"#utility.yul\":4123:4133   */\n  dup2\n    /* \"#utility.yul\":4120:4142   */\n  lt\n    /* \"#utility.yul\":4099:4117   */\n  0xffffffffffffffff\n    /* \"#utility.yul\":4087:4097   */\n  dup3\n    /* \"#utility.yul\":4084:4118   */\n  gt\n    /* \"#utility.yul\":4081:4143   */\n  or\n    /* \"#utility.yul\":4078:4166   */\n  iszero\n  tag_94\n  jumpi\n    /* \"#utility.yul\":4146:4164   */\n  tag_95\n  tag_72\n  jump\t// in\ntag_95:\n    /* \"#utility.yul\":4078:4166   */\ntag_94:\n    /* \"#utility.yul\":4186:4196   */\n  dup1\n    /* \"#utility.yul\":4182:4184   */\n  0x40\n    /* \"#utility.yul\":4175:4197   */\n  mstore\n    /* \"#utility.yul\":3965:4203   */\n  pop\n    /* \"#utility.yul\":3922:4203   */\n  pop\n  pop\n  jump\t// out\n    /* \"#utility.yul\":4209:4389   */\ntag_91:\n    /* \"#utility.yul\":4257:4334   */\n  0x4e487b7100000000000000000000000000000000000000000000000000000000\n    /* \"#utility.yul\":4254:4255   */\n  0x00\n    /* \"#utility.yul\":4247:4335   */\n  mstore\n    /* \"#utility.yul\":4354:4358   */\n  0x22\n    /* \"#utility.yul\":4351:4352   */\n  0x04\n    /* \"#utility.yul\":4344:4359   */\n  mstore\n    /* \"#utility.yul\":4378:4382   */\n  0x24\n    /* \"#utility.yul\":4375:4376   */\n  0x00\n    /* \"#utility.yul\":4368:4383   */\n  revert\n    /* \"#utility.yul\":4395:4575   */\ntag_72:\n    /* \"#utility.yul\":4443:4520   */\n  0x4e487b7100000000000000000000000000000000000000000000000000000000\n    /* \"#utility.yul\":4440:4441   */\n  0x00\n    /* \"#utility.yul\":4433:4521   */\n  mstore\n    /* \"#utility.yul\":4540:4544   */\n  0x41\n    /* \"#utility.yul\":4537:4538   */\n  0x04\n    /* \"#utility.yul\":4530:4545   */\n  mstore\n    /* \"#utility.yul\":4564:4568   */\n  0x24\n    /* \"#utility.yul\":4561:4562   */\n  0x00\n    /* \"#utility.yul\":4554:4569   */\n  revert\n    /* \"#utility.yul\":4581:4698   */\ntag_43:\n    /* \"#utility.yul\":4690:4691   */\n  0x00\n    /* \"#utility.yul\":4687:4688   */\n  dup1\n    /* \"#utility.yul\":4680:4692   */\n  revert\n    /* \"#utility.yul\":4704:4821   */\ntag_32:\n    /* \"#utility.yul\":4813:4814   */\n  0x00\n    /* \"#utility.yul\":4810:4811   */\n  dup1\n    /* \"#utility.yul\":4803:4815   */\n  revert\n    /* \"#utility.yul\":4827:4944   */\ntag_57:\n    /* \"#utility.yul\":4936:4937   */\n  0x00\n    /* \"#utility.yul\":4933:4934   */\n  dup1\n    /* \"#utility.yul\":4926:4938   */\n  revert\n    /* \"#utility.yul\":4950:5067   */\ntag_52:\n    /* \"#utility.yul\":5059:5060   */\n  0x00\n    /* \"#utility.yul\":5056:5057   */\n  dup1\n    /* \"#utility.yul\":5049:5061   */\n  revert\n    /* \"#utility.yul\":5073:5175   */\ntag_74:\n    /* \"#utility.yul\":5114:5120   */\n  0x00\n    /* \"#utility.yul\":5165:5167   */\n  0x1f\n    /* \"#utility.yul\":5161:5168   */\n  not\n    /* \"#utility.yul\":5156:5158   */\n  0x1f\n    /* \"#utility.yul\":5149:5154   */\n  dup4\n    /* \"#utility.yul\":5145:5159   */\n  add\n    /* \"#utility.yul\":5141:5169   */\n  and\n    /* \"#utility.yul\":5131:5169   */\n  swap1\n  pop\n    /* \"#utility.yul\":5073:5175   */\n  swap2\n  swap1\n  pop\n  jump\t// out\n    /* \"#utility.yul\":5181:5303   */\ntag_38:\n    /* \"#utility.yul\":5254:5278   */\n  tag_104\n    /* \"#utility.yul\":5272:5277   */\n  dup2\n    /* \"#utility.yul\":5254:5278   */\n  tag_75\n  jump\t// in\ntag_104:\n    /* \"#utility.yul\":5247:5252   */\n  dup2\n    /* \"#utility.yul\":5244:5279   */\n  eq\n    /* \"#utility.yul\":5234:5297   */\n  tag_105\n  jumpi\n    /* \"#utility.yul\":5293:5294   */\n  0x00\n    /* \"#utility.yul\":5290:5291   */\n  dup1\n    /* \"#utility.yul\":5283:5295   */\n  revert\n    /* \"#utility.yul\":5234:5297   */\ntag_105:\n    /* \"#utility.yul\":5181:5303   */\n  pop\n  jump\t// out\n    /* \"#utility.yul\":5309:5431   */\ntag_48:\n    /* \"#utility.yul\":5382:5406   */\n  tag_107\n    /* \"#utility.yul\":5400:5405   */\n  dup2\n    /* \"#utility.yul\":5382:5406   */\n  tag_80\n  jump\t// in\ntag_107:\n    /* \"#utility.yul\":5375:5380   */\n  dup2\n    /* \"#utility.yul\":5372:5407   */\n  eq\n    /* \"#utility.yul\":5362:5425   */\n  tag_108\n  jumpi\n    /* \"#utility.yul\":5421:5422   */\n  0x00\n    /* \"#utility.yul\":5418:5419   */\n  dup1\n    /* \"#utility.yul\":5411:5423   */\n  revert\n    /* \"#utility.yul\":5362:5425   */\ntag_108:\n    /* \"#utility.yul\":5309:5431   */\n  pop\n  jump\t// out\n    /* \"challenges/Consorcio/Employee.sol\":84:511  contract Employee is User {\r... */\ntag_11:\n  dataSize(sub_0)\n  dup1\n  dataOffset(sub_0)\n  0x00\n  codecopy\n  0x00\n  return\nstop\n\nsub_0: assembly {\n        /* \"challenges/Consorcio/Employee.sol\":84:511  contract Employee is User {\r... */\n      mstore(0x40, 0x80)\n      jumpi(tag_1, lt(calldatasize, 0x04))\n      shr(0xe0, calldataload(0x00))\n      dup1\n      0x38cc4831\n      eq\n      tag_3\n      jumpi\n      dup1\n      0x835fc6ca\n      eq\n      tag_4\n      jumpi\n      dup1\n      0xaf640d0f\n      eq\n      tag_5\n      jumpi\n      dup1\n      0xf2bcd022\n      eq\n      tag_6\n      jumpi\n      jump(tag_2)\n    tag_1:\n      jumpi(tag_2, calldatasize)\n        /* \"challenges/Consorcio/User.sol\":329:391  EtherReceived(msg.value, address(this), address(this).balance) */\n      0x2d27851832fcac28a0d4af1344f01fed7ffcfd15171c14c564a0c42aa57ae5c0\n        /* \"challenges/Consorcio/User.sol\":343:352  msg.value */\n      callvalue\n        /* \"challenges/Consorcio/User.sol\":362:366  this */\n      address\n        /* \"challenges/Consorcio/User.sol\":369:390  address(this).balance */\n      selfbalance\n        /* \"challenges/Consorcio/User.sol\":329:391  EtherReceived(msg.value, address(this), address(this).balance) */\n      mload(0x40)\n      tag_9\n      swap4\n      swap3\n      swap2\n      swap1\n      tag_10\n      jump\t// in\n    tag_9:\n      mload(0x40)\n      dup1\n      swap2\n      sub\n      swap1\n      log1\n        /* \"challenges/Consorcio/Employee.sol\":84:511  contract Employee is User {\r... */\n      stop\n    tag_2:\n        /* \"challenges/Consorcio/User.sol\":449:511  EtherReceived(msg.value, address(this), address(this).balance) */\n      0x2d27851832fcac28a0d4af1344f01fed7ffcfd15171c14c564a0c42aa57ae5c0\n        /* \"challenges/Consorcio/User.sol\":463:472  msg.value */\n      callvalue\n        /* \"challenges/Consorcio/User.sol\":482:486  this */\n      address\n        /* \"challenges/Consorcio/User.sol\":489:510  address(this).balance */\n      selfbalance\n        /* \"challenges/Consorcio/User.sol\":449:511  EtherReceived(msg.value, address(this), address(this).balance) */\n      mload(0x40)\n      tag_13\n      swap4\n      swap3\n      swap2\n      swap1\n      tag_10\n      jump\t// in\n    tag_13:\n      mload(0x40)\n      dup1\n      swap2\n      sub\n      swap1\n      log1\n        /* \"challenges/Consorcio/Employee.sol\":84:511  contract Employee is User {\r... */\n      stop\n        /* \"challenges/Consorcio/User.sol\":1051:1142  function getAddress() public view returns (address) {\r... */\n    tag_3:\n      callvalue\n      dup1\n      iszero\n      tag_14\n      jumpi\n      0x00\n      dup1\n      revert\n    tag_14:\n      pop\n      tag_15\n      tag_16\n      jump\t// in\n    tag_15:\n      mload(0x40)\n      tag_17\n      swap2\n      swap1\n      tag_18\n      jump\t// in\n    tag_17:\n      mload(0x40)\n      dup1\n      swap2\n      sub\n      swap1\n      return\n        /* \"challenges/Consorcio/User.sol\":649:1043  function withdrawal(uint _amount) public {\r... */\n    tag_4:\n      callvalue\n      dup1\n      iszero\n      tag_19\n      jumpi\n      0x00\n      dup1\n      revert\n    tag_19:\n      pop\n      tag_20\n      0x04\n      dup1\n      calldatasize\n      sub\n      dup2\n      add\n      swap1\n      tag_21\n      swap2\n      swap1\n      tag_22\n      jump\t// in\n    tag_21:\n      tag_23\n      jump\t// in\n    tag_20:\n      stop\n        /* \"challenges/Consorcio/User.sol\":92:106  uint public id */\n    tag_5:\n      callvalue\n      dup1\n      iszero\n      tag_24\n      jumpi\n      0x00\n      dup1\n      revert\n    tag_24:\n      pop\n      tag_25\n      tag_26\n      jump\t// in\n    tag_25:\n      mload(0x40)\n      tag_27\n      swap2\n      swap1\n      tag_28\n      jump\t// in\n    tag_27:\n      mload(0x40)\n      dup1\n      swap2\n      sub\n      swap1\n      return\n        /* \"challenges/Consorcio/User.sol\":113:145  address public withdrawalAddress */\n    tag_6:\n      callvalue\n      dup1\n      iszero\n      tag_29\n      jumpi\n      0x00\n      dup1\n      revert\n    tag_29:\n      pop\n      tag_30\n      tag_31\n      jump\t// in\n    tag_30:\n      mload(0x40)\n      tag_32\n      swap2\n      swap1\n      tag_18\n      jump\t// in\n    tag_32:\n      mload(0x40)\n      dup1\n      swap2\n      sub\n      swap1\n      return\n        /* \"challenges/Consorcio/User.sol\":1051:1142  function getAddress() public view returns (address) {\r... */\n    tag_16:\n        /* \"challenges/Consorcio/User.sol\":1094:1101  address */\n      0x00\n        /* \"challenges/Consorcio/User.sol\":1129:1133  this */\n      address\n        /* \"challenges/Consorcio/User.sol\":1114:1134  return address(this) */\n      swap1\n      pop\n        /* \"challenges/Consorcio/User.sol\":1051:1142  function getAddress() public view returns (address) {\r... */\n      swap1\n      jump\t// out\n        /* \"challenges/Consorcio/User.sol\":649:1043  function withdrawal(uint _amount) public {\r... */\n    tag_23:\n        /* \"challenges/Consorcio/User.sol\":748:755  _amount */\n      dup1\n        /* \"challenges/Consorcio/User.sol\":723:744  address(this).balance */\n      selfbalance\n        /* \"challenges/Consorcio/User.sol\":723:755  address(this).balance >= _amount */\n      lt\n      iszero\n        /* \"challenges/Consorcio/User.sol\":701:807  require(\r... */\n      tag_35\n      jumpi\n      mload(0x40)\n      0x08c379a000000000000000000000000000000000000000000000000000000000\n      dup2\n      mstore\n      0x04\n      add\n      tag_36\n      swap1\n      tag_37\n      jump\t// in\n    tag_36:\n      mload(0x40)\n      dup1\n      swap2\n      sub\n      swap1\n      revert\n    tag_35:\n        /* \"challenges/Consorcio/User.sol\":829:841  bool success */\n      0x00\n        /* \"challenges/Consorcio/User.sol\":846:863  withdrawalAddress */\n      0x01\n      0x00\n      swap1\n      sload\n      swap1\n      0x0100\n      exp\n      swap1\n      div\n      0xffffffffffffffffffffffffffffffffffffffff\n      and\n        /* \"challenges/Consorcio/User.sol\":846:868  withdrawalAddress.call */\n      0xffffffffffffffffffffffffffffffffffffffff\n      and\n        /* \"challenges/Consorcio/User.sol\":876:883  _amount */\n      dup3\n        /* \"challenges/Consorcio/User.sol\":846:888  withdrawalAddress.call{value: _amount}(\"\") */\n      mload(0x40)\n      tag_38\n      swap1\n      tag_39\n      jump\t// in\n    tag_38:\n      0x00\n      mload(0x40)\n      dup1\n      dup4\n      sub\n      dup2\n      dup6\n      dup8\n      gas\n      call\n      swap3\n      pop\n      pop\n      pop\n      returndatasize\n      dup1\n      0x00\n      dup2\n      eq\n      tag_42\n      jumpi\n      mload(0x40)\n      swap2\n      pop\n      and(add(returndatasize, 0x3f), not(0x1f))\n      dup3\n      add\n      0x40\n      mstore\n      returndatasize\n      dup3\n      mstore\n      returndatasize\n      0x00\n      0x20\n      dup5\n      add\n      returndatacopy\n      jump(tag_41)\n    tag_42:\n      0x60\n      swap2\n      pop\n    tag_41:\n      pop\n        /* \"challenges/Consorcio/User.sol\":828:888  (bool success,) = withdrawalAddress.call{value: _amount}(\"\") */\n      pop\n      swap1\n      pop\n        /* \"challenges/Consorcio/User.sol\":920:924  true */\n      0x01\n        /* \"challenges/Consorcio/User.sol\":909:924  success == true */\n      iszero\n      iszero\n        /* \"challenges/Consorcio/User.sol\":909:916  success */\n      dup2\n        /* \"challenges/Consorcio/User.sol\":909:924  success == true */\n      iszero\n      iszero\n      eq\n        /* \"challenges/Consorcio/User.sol\":901:974  require(success == true, \"Withdrawal failed. Try again in some minutes.\") */\n      tag_43\n      jumpi\n      mload(0x40)\n      0x08c379a000000000000000000000000000000000000000000000000000000000\n      dup2\n      mstore\n      0x04\n      add\n      tag_44\n      swap1\n      tag_45\n      jump\t// in\n    tag_44:\n      mload(0x40)\n      dup1\n      swap2\n      sub\n      swap1\n      revert\n    tag_43:\n        /* \"challenges/Consorcio/User.sol\":992:1035  WithdrawalSuccessful(address(this).balance) */\n      0x794032702377d1e7eb93381e2467d569394569207a770af85b3222a361126c91\n        /* \"challenges/Consorcio/User.sol\":1013:1034  address(this).balance */\n      selfbalance\n        /* \"challenges/Consorcio/User.sol\":992:1035  WithdrawalSuccessful(address(this).balance) */\n      mload(0x40)\n      tag_46\n      swap2\n      swap1\n      tag_28\n      jump\t// in\n    tag_46:\n      mload(0x40)\n      dup1\n      swap2\n      sub\n      swap1\n      log1\n        /* \"challenges/Consorcio/User.sol\":690:1043  {\r... */\n      pop\n        /* \"challenges/Consorcio/User.sol\":649:1043  function withdrawal(uint _amount) public {\r... */\n      pop\n      jump\t// out\n        /* \"challenges/Consorcio/User.sol\":92:106  uint public id */\n    tag_26:\n      sload(0x00)\n      dup2\n      jump\t// out\n        /* \"challenges/Consorcio/User.sol\":113:145  address public withdrawalAddress */\n    tag_31:\n      0x01\n      0x00\n      swap1\n      sload\n      swap1\n      0x0100\n      exp\n      swap1\n      div\n      0xffffffffffffffffffffffffffffffffffffffff\n      and\n      dup2\n      jump\t// out\n        /* \"#utility.yul\":7:146   */\n    tag_48:\n        /* \"#utility.yul\":53:58   */\n      0x00\n        /* \"#utility.yul\":91:97   */\n      dup2\n        /* \"#utility.yul\":78:98   */\n      calldataload\n        /* \"#utility.yul\":69:98   */\n      swap1\n      pop\n        /* \"#utility.yul\":107:140   */\n      tag_50\n        /* \"#utility.yul\":134:139   */\n      dup2\n        /* \"#utility.yul\":107:140   */\n      tag_51\n      jump\t// in\n    tag_50:\n        /* \"#utility.yul\":7:146   */\n      swap3\n      swap2\n      pop\n      pop\n      jump\t// out\n        /* \"#utility.yul\":152:481   */\n    tag_22:\n        /* \"#utility.yul\":211:217   */\n      0x00\n        /* \"#utility.yul\":260:262   */\n      0x20\n        /* \"#utility.yul\":248:257   */\n      dup3\n        /* \"#utility.yul\":239:246   */\n      dup5\n        /* \"#utility.yul\":235:258   */\n      sub\n        /* \"#utility.yul\":231:263   */\n      slt\n        /* \"#utility.yul\":228:347   */\n      iszero\n      tag_53\n      jumpi\n        /* \"#utility.yul\":266:345   */\n      tag_54\n      tag_55\n      jump\t// in\n    tag_54:\n        /* \"#utility.yul\":228:347   */\n    tag_53:\n        /* \"#utility.yul\":386:387   */\n      0x00\n        /* \"#utility.yul\":411:464   */\n      tag_56\n        /* \"#utility.yul\":456:463   */\n      dup5\n        /* \"#utility.yul\":447:453   */\n      dup3\n        /* \"#utility.yul\":436:445   */\n      dup6\n        /* \"#utility.yul\":432:454   */\n      add\n        /* \"#utility.yul\":411:464   */\n      tag_48\n      jump\t// in\n    tag_56:\n        /* \"#utility.yul\":401:464   */\n      swap2\n      pop\n        /* \"#utility.yul\":357:474   */\n      pop\n        /* \"#utility.yul\":152:481   */\n      swap3\n      swap2\n      pop\n      pop\n      jump\t// out\n        /* \"#utility.yul\":487:605   */\n    tag_57:\n        /* \"#utility.yul\":574:598   */\n      tag_59\n        /* \"#utility.yul\":592:597   */\n      dup2\n        /* \"#utility.yul\":574:598   */\n      tag_60\n      jump\t// in\n    tag_59:\n        /* \"#utility.yul\":569:572   */\n      dup3\n        /* \"#utility.yul\":562:599   */\n      mstore\n        /* \"#utility.yul\":487:605   */\n      pop\n      pop\n      jump\t// out\n        /* \"#utility.yul\":611:977   */\n    tag_61:\n        /* \"#utility.yul\":753:756   */\n      0x00\n        /* \"#utility.yul\":774:841   */\n      tag_63\n        /* \"#utility.yul\":838:840   */\n      0x18\n        /* \"#utility.yul\":833:836   */\n      dup4\n        /* \"#utility.yul\":774:841   */\n      tag_64\n      jump\t// in\n    tag_63:\n        /* \"#utility.yul\":767:841   */\n      swap2\n      pop\n        /* \"#utility.yul\":850:943   */\n      tag_65\n        /* \"#utility.yul\":939:942   */\n      dup3\n        /* \"#utility.yul\":850:943   */\n      tag_66\n      jump\t// in\n    tag_65:\n        /* \"#utility.yul\":968:970   */\n      0x20\n        /* \"#utility.yul\":963:966   */\n      dup3\n        /* \"#utility.yul\":959:971   */\n      add\n        /* \"#utility.yul\":952:971   */\n      swap1\n      pop\n        /* \"#utility.yul\":611:977   */\n      swap2\n      swap1\n      pop\n      jump\t// out\n        /* \"#utility.yul\":983:1381   */\n    tag_67:\n        /* \"#utility.yul\":1142:1145   */\n      0x00\n        /* \"#utility.yul\":1163:1246   */\n      tag_69\n        /* \"#utility.yul\":1244:1245   */\n      0x00\n        /* \"#utility.yul\":1239:1242   */\n      dup4\n        /* \"#utility.yul\":1163:1246   */\n      tag_70\n      jump\t// in\n    tag_69:\n        /* \"#utility.yul\":1156:1246   */\n      swap2\n      pop\n        /* \"#utility.yul\":1255:1348   */\n      tag_71\n        /* \"#utility.yul\":1344:1347   */\n      dup3\n        /* \"#utility.yul\":1255:1348   */\n      tag_72\n      jump\t// in\n    tag_71:\n        /* \"#utility.yul\":1373:1374   */\n      0x00\n        /* \"#utility.yul\":1368:1371   */\n      dup3\n        /* \"#utility.yul\":1364:1375   */\n      add\n        /* \"#utility.yul\":1357:1375   */\n      swap1\n      pop\n        /* \"#utility.yul\":983:1381   */\n      swap2\n      swap1\n      pop\n      jump\t// out\n        /* \"#utility.yul\":1387:1753   */\n    tag_73:\n        /* \"#utility.yul\":1529:1532   */\n      0x00\n        /* \"#utility.yul\":1550:1617   */\n      tag_75\n        /* \"#utility.yul\":1614:1616   */\n      0x2d\n        /* \"#utility.yul\":1609:1612   */\n      dup4\n        /* \"#utility.yul\":1550:1617   */\n      tag_64\n      jump\t// in\n    tag_75:\n        /* \"#utility.yul\":1543:1617   */\n      swap2\n      pop\n        /* \"#utility.yul\":1626:1719   */\n      tag_76\n        /* \"#utility.yul\":1715:1718   */\n      dup3\n        /* \"#utility.yul\":1626:1719   */\n      tag_77\n      jump\t// in\n    tag_76:\n        /* \"#utility.yul\":1744:1746   */\n      0x40\n        /* \"#utility.yul\":1739:1742   */\n      dup3\n        /* \"#utility.yul\":1735:1747   */\n      add\n        /* \"#utility.yul\":1728:1747   */\n      swap1\n      pop\n        /* \"#utility.yul\":1387:1753   */\n      swap2\n      swap1\n      pop\n      jump\t// out\n        /* \"#utility.yul\":1759:1877   */\n    tag_78:\n        /* \"#utility.yul\":1846:1870   */\n      tag_80\n        /* \"#utility.yul\":1864:1869   */\n      dup2\n        /* \"#utility.yul\":1846:1870   */\n      tag_81\n      jump\t// in\n    tag_80:\n        /* \"#utility.yul\":1841:1844   */\n      dup3\n        /* \"#utility.yul\":1834:1871   */\n      mstore\n        /* \"#utility.yul\":1759:1877   */\n      pop\n      pop\n      jump\t// out\n        /* \"#utility.yul\":1883:2262   */\n    tag_39:\n        /* \"#utility.yul\":2067:2070   */\n      0x00\n        /* \"#utility.yul\":2089:2236   */\n      tag_83\n        /* \"#utility.yul\":2232:2235   */\n      dup3\n        /* \"#utility.yul\":2089:2236   */\n      tag_67\n      jump\t// in\n    tag_83:\n        /* \"#utility.yul\":2082:2236   */\n      swap2\n      pop\n        /* \"#utility.yul\":2253:2256   */\n      dup2\n        /* \"#utility.yul\":2246:2256   */\n      swap1\n      pop\n        /* \"#utility.yul\":1883:2262   */\n      swap2\n      swap1\n      pop\n      jump\t// out\n        /* \"#utility.yul\":2268:2490   */\n    tag_18:\n        /* \"#utility.yul\":2361:2365   */\n      0x00\n        /* \"#utility.yul\":2399:2401   */\n      0x20\n        /* \"#utility.yul\":2388:2397   */\n      dup3\n        /* \"#utility.yul\":2384:2402   */\n      add\n        /* \"#utility.yul\":2376:2402   */\n      swap1\n      pop\n        /* \"#utility.yul\":2412:2483   */\n      tag_85\n        /* \"#utility.yul\":2480:2481   */\n      0x00\n        /* \"#utility.yul\":2469:2478   */\n      dup4\n        /* \"#utility.yul\":2465:2482   */\n      add\n        /* \"#utility.yul\":2456:2462   */\n      dup5\n        /* \"#utility.yul\":2412:2483   */\n      tag_57\n      jump\t// in\n    tag_85:\n        /* \"#utility.yul\":2268:2490   */\n      swap3\n      swap2\n      pop\n      pop\n      jump\t// out\n        /* \"#utility.yul\":2496:2915   */\n    tag_37:\n        /* \"#utility.yul\":2662:2666   */\n      0x00\n        /* \"#utility.yul\":2700:2702   */\n      0x20\n        /* \"#utility.yul\":2689:2698   */\n      dup3\n        /* \"#utility.yul\":2685:2703   */\n      add\n        /* \"#utility.yul\":2677:2703   */\n      swap1\n      pop\n        /* \"#utility.yul\":2749:2758   */\n      dup2\n        /* \"#utility.yul\":2743:2747   */\n      dup2\n        /* \"#utility.yul\":2739:2759   */\n      sub\n        /* \"#utility.yul\":2735:2736   */\n      0x00\n        /* \"#utility.yul\":2724:2733   */\n      dup4\n        /* \"#utility.yul\":2720:2737   */\n      add\n        /* \"#utility.yul\":2713:2760   */\n      mstore\n        /* \"#utility.yul\":2777:2908   */\n      tag_87\n        /* \"#utility.yul\":2903:2907   */\n      dup2\n        /* \"#utility.yul\":2777:2908   */\n      tag_61\n      jump\t// in\n    tag_87:\n        /* \"#utility.yul\":2769:2908   */\n      swap1\n      pop\n        /* \"#utility.yul\":2496:2915   */\n      swap2\n      swap1\n      pop\n      jump\t// out\n        /* \"#utility.yul\":2921:3340   */\n    tag_45:\n        /* \"#utility.yul\":3087:3091   */\n      0x00\n        /* \"#utility.yul\":3125:3127   */\n      0x20\n        /* \"#utility.yul\":3114:3123   */\n      dup3\n        /* \"#utility.yul\":3110:3128   */\n      add\n        /* \"#utility.yul\":3102:3128   */\n      swap1\n      pop\n        /* \"#utility.yul\":3174:3183   */\n      dup2\n        /* \"#utility.yul\":3168:3172   */\n      dup2\n        /* \"#utility.yul\":3164:3184   */\n      sub\n        /* \"#utility.yul\":3160:3161   */\n      0x00\n        /* \"#utility.yul\":3149:3158   */\n      dup4\n        /* \"#utility.yul\":3145:3162   */\n      add\n        /* \"#utility.yul\":3138:3185   */\n      mstore\n        /* \"#utility.yul\":3202:3333   */\n      tag_89\n        /* \"#utility.yul\":3328:3332   */\n      dup2\n        /* \"#utility.yul\":3202:3333   */\n      tag_73\n      jump\t// in\n    tag_89:\n        /* \"#utility.yul\":3194:3333   */\n      swap1\n      pop\n        /* \"#utility.yul\":2921:3340   */\n      swap2\n      swap1\n      pop\n      jump\t// out\n        /* \"#utility.yul\":3346:3568   */\n    tag_28:\n        /* \"#utility.yul\":3439:3443   */\n      0x00\n        /* \"#utility.yul\":3477:3479   */\n      0x20\n        /* \"#utility.yul\":3466:3475   */\n      dup3\n        /* \"#utility.yul\":3462:3480   */\n      add\n        /* \"#utility.yul\":3454:3480   */\n      swap1\n      pop\n        /* \"#utility.yul\":3490:3561   */\n      tag_91\n        /* \"#utility.yul\":3558:3559   */\n      0x00\n        /* \"#utility.yul\":3547:3556   */\n      dup4\n        /* \"#utility.yul\":3543:3560   */\n      add\n        /* \"#utility.yul\":3534:3540   */\n      dup5\n        /* \"#utility.yul\":3490:3561   */\n      tag_78\n      jump\t// in\n    tag_91:\n        /* \"#utility.yul\":3346:3568   */\n      swap3\n      swap2\n      pop\n      pop\n      jump\t// out\n        /* \"#utility.yul\":3574:4016   */\n    tag_10:\n        /* \"#utility.yul\":3723:3727   */\n      0x00\n        /* \"#utility.yul\":3761:3763   */\n      0x60\n        /* \"#utility.yul\":3750:3759   */\n      dup3\n        /* \"#utility.yul\":3746:3764   */\n      add\n        /* \"#utility.yul\":3738:3764   */\n      swap1\n      pop\n        /* \"#utility.yul\":3774:3845   */\n      tag_93\n        /* \"#utility.yul\":3842:3843   */\n      0x00\n        /* \"#utility.yul\":3831:3840   */\n      dup4\n        /* \"#utility.yul\":3827:3844   */\n      add\n        /* \"#utility.yul\":3818:3824   */\n      dup7\n        /* \"#utility.yul\":3774:3845   */\n      tag_78\n      jump\t// in\n    tag_93:\n        /* \"#utility.yul\":3855:3927   */\n      tag_94\n        /* \"#utility.yul\":3923:3925   */\n      0x20\n        /* \"#utility.yul\":3912:3921   */\n      dup4\n        /* \"#utility.yul\":3908:3926   */\n      add\n        /* \"#utility.yul\":3899:3905   */\n      dup6\n        /* \"#utility.yul\":3855:3927   */\n      tag_57\n      jump\t// in\n    tag_94:\n        /* \"#utility.yul\":3937:4009   */\n      tag_95\n        /* \"#utility.yul\":4005:4007   */\n      0x40\n        /* \"#utility.yul\":3994:4003   */\n      dup4\n        /* \"#utility.yul\":3990:4008   */\n      add\n        /* \"#utility.yul\":3981:3987   */\n      dup5\n        /* \"#utility.yul\":3937:4009   */\n      tag_78\n      jump\t// in\n    tag_95:\n        /* \"#utility.yul\":3574:4016   */\n      swap5\n      swap4\n      pop\n      pop\n      pop\n      pop\n      jump\t// out\n        /* \"#utility.yul\":4103:4250   */\n    tag_70:\n        /* \"#utility.yul\":4204:4215   */\n      0x00\n        /* \"#utility.yul\":4241:4244   */\n      dup2\n        /* \"#utility.yul\":4226:4244   */\n      swap1\n      pop\n        /* \"#utility.yul\":4103:4250   */\n      swap3\n      swap2\n      pop\n      pop\n      jump\t// out\n        /* \"#utility.yul\":4256:4425   */\n    tag_64:\n        /* \"#utility.yul\":4340:4351   */\n      0x00\n        /* \"#utility.yul\":4374:4380   */\n      dup3\n        /* \"#utility.yul\":4369:4372   */\n      dup3\n        /* \"#utility.yul\":4362:4381   */\n      mstore\n        /* \"#utility.yul\":4414:4418   */\n      0x20\n        /* \"#utility.yul\":4409:4412   */\n      dup3\n        /* \"#utility.yul\":4405:4419   */\n      add\n        /* \"#utility.yul\":4390:4419   */\n      swap1\n      pop\n        /* \"#utility.yul\":4256:4425   */\n      swap3\n      swap2\n      pop\n      pop\n      jump\t// out\n        /* \"#utility.yul\":4431:4527   */\n    tag_60:\n        /* \"#utility.yul\":4468:4475   */\n      0x00\n        /* \"#utility.yul\":4497:4521   */\n      tag_101\n        /* \"#utility.yul\":4515:4520   */\n      dup3\n        /* \"#utility.yul\":4497:4521   */\n      tag_102\n      jump\t// in\n    tag_101:\n        /* \"#utility.yul\":4486:4521   */\n      swap1\n      pop\n        /* \"#utility.yul\":4431:4527   */\n      swap2\n      swap1\n      pop\n      jump\t// out\n        /* \"#utility.yul\":4533:4659   */\n    tag_102:\n        /* \"#utility.yul\":4570:4577   */\n      0x00\n        /* \"#utility.yul\":4610:4652   */\n      0xffffffffffffffffffffffffffffffffffffffff\n        /* \"#utility.yul\":4603:4608   */\n      dup3\n        /* \"#utility.yul\":4599:4653   */\n      and\n        /* \"#utility.yul\":4588:4653   */\n      swap1\n      pop\n        /* \"#utility.yul\":4533:4659   */\n      swap2\n      swap1\n      pop\n      jump\t// out\n        /* \"#utility.yul\":4665:4742   */\n    tag_81:\n        /* \"#utility.yul\":4702:4709   */\n      0x00\n        /* \"#utility.yul\":4731:4736   */\n      dup2\n        /* \"#utility.yul\":4720:4736   */\n      swap1\n      pop\n        /* \"#utility.yul\":4665:4742   */\n      swap2\n      swap1\n      pop\n      jump\t// out\n        /* \"#utility.yul\":4871:4988   */\n    tag_55:\n        /* \"#utility.yul\":4980:4981   */\n      0x00\n        /* \"#utility.yul\":4977:4978   */\n      dup1\n        /* \"#utility.yul\":4970:4982   */\n      revert\n        /* \"#utility.yul\":4994:5168   */\n    tag_66:\n        /* \"#utility.yul\":5134:5160   */\n      0x557365723a20496e73756666696369656e742066756e64730000000000000000\n        /* \"#utility.yul\":5130:5131   */\n      0x00\n        /* \"#utility.yul\":5122:5128   */\n      dup3\n        /* \"#utility.yul\":5118:5132   */\n      add\n        /* \"#utility.yul\":5111:5161   */\n      mstore\n        /* \"#utility.yul\":4994:5168   */\n      pop\n      jump\t// out\n        /* \"#utility.yul\":5174:5288   */\n    tag_72:\n      pop\n      jump\t// out\n        /* \"#utility.yul\":5294:5526   */\n    tag_77:\n        /* \"#utility.yul\":5434:5468   */\n      0x5769746864726177616c206661696c65642e2054727920616761696e20696e20\n        /* \"#utility.yul\":5430:5431   */\n      0x00\n        /* \"#utility.yul\":5422:5428   */\n      dup3\n        /* \"#utility.yul\":5418:5432   */\n      add\n        /* \"#utility.yul\":5411:5469   */\n      mstore\n        /* \"#utility.yul\":5503:5518   */\n      0x736f6d65206d696e757465732e00000000000000000000000000000000000000\n        /* \"#utility.yul\":5498:5500   */\n      0x20\n        /* \"#utility.yul\":5490:5496   */\n      dup3\n        /* \"#utility.yul\":5486:5501   */\n      add\n        /* \"#utility.yul\":5479:5519   */\n      mstore\n        /* \"#utility.yul\":5294:5526   */\n      pop\n      jump\t// out\n        /* \"#utility.yul\":5532:5654   */\n    tag_51:\n        /* \"#utility.yul\":5605:5629   */\n      tag_112\n        /* \"#utility.yul\":5623:5628   */\n      dup2\n        /* \"#utility.yul\":5605:5629   */\n      tag_81\n      jump\t// in\n    tag_112:\n        /* \"#utility.yul\":5598:5603   */\n      dup2\n        /* \"#utility.yul\":5595:5630   */\n      eq\n        /* \"#utility.yul\":5585:5648   */\n      tag_113\n      jumpi\n        /* \"#utility.yul\":5644:5645   */\n      0x00\n        /* \"#utility.yul\":5641:5642   */\n      dup1\n        /* \"#utility.yul\":5634:5646   */\n      revert\n        /* \"#utility.yul\":5585:5648   */\n    tag_113:\n        /* \"#utility.yul\":5532:5654   */\n      pop\n      jump\t// out\n\n    auxdata: 0xa264697066735822122075d7c4a30508924e7adf60115b1b926f16dcc09549c27bd332fa9dd71da50e2364736f6c63430008070033\n}\n",
				"bytecode": {
					"linkReferences": {},
					"object": "60806040523480156200001157600080fd5b5060405162000a9238038062000a92833981810160405281019062000037919062000223565b84848160008190555080600160006101000a81548173ffffffffffffffffffffffffffffffffffffffff021916908373ffffffffffffffffffffffffffffffffffffffff160217905550505082600290805190602001906200009b929190620000c7565b508160039080519060200190620000b4929190620000c7565b50806004819055505050505050620004df565b828054620000d590620003bc565b90600052602060002090601f016020900481019282620000f9576000855562000145565b82601f106200011457805160ff191683800117855562000145565b8280016001018555821562000145579182015b828111156200014457825182559160200191906001019062000127565b5b50905062000154919062000158565b5090565b5b808211156200017357600081600090555060010162000159565b5090565b60006200018e620001888462000312565b620002e9565b905082815260208101848484011115620001ad57620001ac6200048b565b5b620001ba84828562000386565b509392505050565b600081519050620001d381620004ab565b92915050565b600082601f830112620001f157620001f062000486565b5b81516200020384826020860162000177565b91505092915050565b6000815190506200021d81620004c5565b92915050565b600080600080600060a0868803121562000242576200024162000495565b5b600062000252888289016200020c565b95505060206200026588828901620001c2565b945050604086015167ffffffffffffffff81111562000289576200028862000490565b5b6200029788828901620001d9565b935050606086015167ffffffffffffffff811115620002bb57620002ba62000490565b5b620002c988828901620001d9565b9250506080620002dc888289016200020c565b9150509295509295909350565b6000620002f562000308565b9050620003038282620003f2565b919050565b6000604051905090565b600067ffffffffffffffff82111562000330576200032f62000457565b5b6200033b826200049a565b9050602081019050919050565b600062000355826200035c565b9050919050565b600073ffffffffffffffffffffffffffffffffffffffff82169050919050565b6000819050919050565b60005b83811015620003a657808201518184015260208101905062000389565b83811115620003b6576000848401525b50505050565b60006002820490506001821680620003d557607f821691505b60208210811415620003ec57620003eb62000428565b5b50919050565b620003fd826200049a565b810181811067ffffffffffffffff821117156200041f576200041e62000457565b5b80604052505050565b7f4e487b7100000000000000000000000000000000000000000000000000000000600052602260045260246000fd5b7f4e487b7100000000000000000000000000000000000000000000000000000000600052604160045260246000fd5b600080fd5b600080fd5b600080fd5b600080fd5b6000601f19601f8301169050919050565b620004b68162000348565b8114620004c257600080fd5b50565b620004d0816200037c565b8114620004dc57600080fd5b50565b6105a380620004ef6000396000f3fe6080604052600436106100435760003560e01c806338cc4831146100c2578063835fc6ca146100ed578063af640d0f14610116578063f2bcd0221461014157610085565b36610085577f2d27851832fcac28a0d4af1344f01fed7ffcfd15171c14c564a0c42aa57ae5c034304760405161007b93929190610447565b60405180910390a1005b7f2d27851832fcac28a0d4af1344f01fed7ffcfd15171c14c564a0c42aa57ae5c03430476040516100b893929190610447565b60405180910390a1005b3480156100ce57600080fd5b506100d761016c565b6040516100e491906103d1565b60405180910390f35b3480156100f957600080fd5b50610114600480360381019061010f9190610308565b610174565b005b34801561012257600080fd5b5061012b6102c7565b604051610138919061042c565b60405180910390f35b34801561014d57600080fd5b506101566102cd565b60405161016391906103d1565b60405180910390f35b600030905090565b804710156101b7576040517f08c379a00000000000000000000000000000000000000000000000000000000081526004016101ae906103ec565b60405180910390fd5b6000600160009054906101000a900473ffffffffffffffffffffffffffffffffffffffff1673ffffffffffffffffffffffffffffffffffffffff16826040516101ff906103bc565b60006040518083038185875af1925050503d806000811461023c576040519150601f19603f3d011682016040523d82523d6000602084013e610241565b606091505b50509050600115158115151461028c576040517f08c379a00000000000000000000000000000000000000000000000000000000081526004016102839061040c565b60405180910390fd5b7f794032702377d1e7eb93381e2467d569394569207a770af85b3222a361126c91476040516102bb919061042c565b60405180910390a15050565b60005481565b600160009054906101000a900473ffffffffffffffffffffffffffffffffffffffff1681565b60008135905061030281610556565b92915050565b60006020828403121561031e5761031d6104d6565b5b600061032c848285016102f3565b91505092915050565b61033e8161049a565b82525050565b6000610351601883610489565b915061035c826104db565b602082019050919050565b600061037460008361047e565b915061037f82610504565b600082019050919050565b6000610397602d83610489565b91506103a282610507565b604082019050919050565b6103b6816104cc565b82525050565b60006103c782610367565b9150819050919050565b60006020820190506103e66000830184610335565b92915050565b6000602082019050818103600083015261040581610344565b9050919050565b600060208201905081810360008301526104258161038a565b9050919050565b600060208201905061044160008301846103ad565b92915050565b600060608201905061045c60008301866103ad565b6104696020830185610335565b61047660408301846103ad565b949350505050565b600081905092915050565b600082825260208201905092915050565b60006104a5826104ac565b9050919050565b600073ffffffffffffffffffffffffffffffffffffffff82169050919050565b6000819050919050565b600080fd5b7f557365723a20496e73756666696369656e742066756e64730000000000000000600082015250565b50565b7f5769746864726177616c206661696c65642e2054727920616761696e20696e2060008201527f736f6d65206d696e757465732e00000000000000000000000000000000000000602082015250565b61055f816104cc565b811461056a57600080fd5b5056fea264697066735822122075d7c4a30508924e7adf60115b1b926f16dcc09549c27bd332fa9dd71da50e2364736f6c63430008070033",
					"opcodes": "PUSH1 0x80 PUSH1 0x40 MSTORE CALLVALUE DUP1 ISZERO PUSH3 0x11 JUMPI PUSH1 0x0 DUP1 REVERT JUMPDEST POP PUSH1 0x40 MLOAD PUSH3 0xA92 CODESIZE SUB DUP1 PUSH3 0xA92 DUP4 CODECOPY DUP2 DUP2 ADD PUSH1 0x40 MSTORE DUP2 ADD SWAP1 PUSH3 0x37 SWAP2 SWAP1 PUSH3 0x223 JUMP JUMPDEST DUP5 DUP5 DUP2 PUSH1 0x0 DUP2 SWAP1 SSTORE POP DUP1 PUSH1 0x1 PUSH1 0x0 PUSH2 0x100 EXP DUP2 SLOAD DUP2 PUSH20 0xFFFFFFFFFFFFFFFFFFFFFFFFFFFFFFFFFFFFFFFF MUL NOT AND SWAP1 DUP4 PUSH20 0xFFFFFFFFFFFFFFFFFFFFFFFFFFFFFFFFFFFFFFFF AND MUL OR SWAP1 SSTORE POP POP POP DUP3 PUSH1 0x2 SWAP1 DUP1 MLOAD SWAP1 PUSH1 0x20 ADD SWAP1 PUSH3 0x9B SWAP3 SWAP2 SWAP1 PUSH3 0xC7 JUMP JUMPDEST POP DUP2 PUSH1 0x3 SWAP1 DUP1 MLOAD SWAP1 PUSH1 0x20 ADD SWAP1 PUSH3 0xB4 SWAP3 SWAP2 SWAP1 PUSH3 0xC7 JUMP JUMPDEST POP DUP1 PUSH1 0x4 DUP2 SWAP1 SSTORE POP POP POP POP POP POP PUSH3 0x4DF JUMP JUMPDEST DUP3 DUP1 SLOAD PUSH3 0xD5 SWAP1 PUSH3 0x3BC JUMP JUMPDEST SWAP1 PUSH1 0x0 MSTORE PUSH1 0x20 PUSH1 0x0 KECCAK256 SWAP1 PUSH1 0x1F ADD PUSH1 0x20 SWAP1 DIV DUP2 ADD SWAP3 DUP3 PUSH3 0xF9 JUMPI PUSH1 0x0 DUP6 SSTORE PUSH3 0x145 JUMP JUMPDEST DUP3 PUSH1 0x1F LT PUSH3 0x114 JUMPI DUP1 MLOAD PUSH1 0xFF NOT AND DUP4 DUP1 ADD OR DUP6 SSTORE PUSH3 0x145 JUMP JUMPDEST DUP3 DUP1 ADD PUSH1 0x1 ADD DUP6 SSTORE DUP3 ISZERO PUSH3 0x145 JUMPI SWAP2 DUP3 ADD JUMPDEST DUP3 DUP2 GT ISZERO PUSH3 0x144 JUMPI DUP3 MLOAD DUP3 SSTORE SWAP2 PUSH1 0x20 ADD SWAP2 SWAP1 PUSH1 0x1 ADD SWAP1 PUSH3 0x127 JUMP JUMPDEST JUMPDEST POP SWAP1 POP PUSH3 0x154 SWAP2 SWAP1 PUSH3 0x158 JUMP JUMPDEST POP SWAP1 JUMP JUMPDEST JUMPDEST DUP1 DUP3 GT ISZERO PUSH3 0x173 JUMPI PUSH1 0x0 DUP2 PUSH1 0x0 SWAP1 SSTORE POP PUSH1 0x1 ADD PUSH3 0x159 JUMP JUMPDEST POP SWAP1 JUMP JUMPDEST PUSH1 0x0 PUSH3 0x18E PUSH3 0x188 DUP5 PUSH3 0x312 JUMP JUMPDEST PUSH3 0x2E9 JUMP JUMPDEST SWAP1 POP DUP3 DUP2 MSTORE PUSH1 0x20 DUP2 ADD DUP5 DUP5 DUP5 ADD GT ISZERO PUSH3 0x1AD JUMPI PUSH3 0x1AC PUSH3 0x48B JUMP JUMPDEST JUMPDEST PUSH3 0x1BA DUP5 DUP3 DUP6 PUSH3 0x386 JUMP JUMPDEST POP SWAP4 SWAP3 POP POP POP JUMP JUMPDEST PUSH1 0x0 DUP2 MLOAD SWAP1 POP PUSH3 0x1D3 DUP2 PUSH3 0x4AB JUMP JUMPDEST SWAP3 SWAP2 POP POP JUMP JUMPDEST PUSH1 0x0 DUP3 PUSH1 0x1F DUP4 ADD SLT PUSH3 0x1F1 JUMPI PUSH3 0x1F0 PUSH3 0x486 JUMP JUMPDEST JUMPDEST DUP2 MLOAD PUSH3 0x203 DUP5 DUP3 PUSH1 0x20 DUP7 ADD PUSH3 0x177 JUMP JUMPDEST SWAP2 POP POP SWAP3 SWAP2 POP POP JUMP JUMPDEST PUSH1 0x0 DUP2 MLOAD SWAP1 POP PUSH3 0x21D DUP2 PUSH3 0x4C5 JUMP JUMPDEST SWAP3 SWAP2 POP POP JUMP JUMPDEST PUSH1 0x0 DUP1 PUSH1 0x0 DUP1 PUSH1 0x0 PUSH1 0xA0 DUP7 DUP9 SUB SLT ISZERO PUSH3 0x242 JUMPI PUSH3 0x241 PUSH3 0x495 JUMP JUMPDEST JUMPDEST PUSH1 0x0 PUSH3 0x252 DUP9 DUP3 DUP10 ADD PUSH3 0x20C JUMP JUMPDEST SWAP6 POP POP PUSH1 0x20 PUSH3 0x265 DUP9 DUP3 DUP10 ADD PUSH3 0x1C2 JUMP JUMPDEST SWAP5 POP POP PUSH1 0x40 DUP7 ADD MLOAD PUSH8 0xFFFFFFFFFFFFFFFF DUP2 GT ISZERO PUSH3 0x289 JUMPI PUSH3 0x288 PUSH3 0x490 JUMP JUMPDEST JUMPDEST PUSH3 0x297 DUP9 DUP3 DUP10 ADD PUSH3 0x1D9 JUMP JUMPDEST SWAP4 POP POP PUSH1 0x60 DUP7 ADD MLOAD PUSH8 0xFFFFFFFFFFFFFFFF DUP2 GT ISZERO PUSH3 0x2BB JUMPI PUSH3 0x2BA PUSH3 0x490 JUMP JUMPDEST JUMPDEST PUSH3 0x2C9 DUP9 DUP3 DUP10 ADD PUSH3 0x1D9 JUMP JUMPDEST SWAP3 POP POP PUSH1 0x80 PUSH3 0x2DC DUP9 DUP3 DUP10 ADD PUSH3 0x20C JUMP JUMPDEST SWAP2 POP POP SWAP3 SWAP6 POP SWAP3 SWAP6 SWAP1 SWAP4 POP JUMP JUMPDEST PUSH1 0x0 PUSH3 0x2F5 PUSH3 0x308 JUMP JUMPDEST SWAP1 POP PUSH3 0x303 DUP3 DUP3 PUSH3 0x3F2 JUMP JUMPDEST SWAP2 SWAP1 POP JUMP JUMPDEST PUSH1 0x0 PUSH1 0x40 MLOAD SWAP1 POP SWAP1 JUMP JUMPDEST PUSH1 0x0 PUSH8 0xFFFFFFFFFFFFFFFF DUP3 GT ISZERO PUSH3 0x330 JUMPI PUSH3 0x32F PUSH3 0x457 JUMP JUMPDEST JUMPDEST PUSH3 0x33B DUP3 PUSH3 0x49A JUMP JUMPDEST SWAP1 POP PUSH1 0x20 DUP2 ADD SWAP1 POP SWAP2 SWAP1 POP JUMP JUMPDEST PUSH1 0x0 PUSH3 0x355 DUP3 PUSH3 0x35C JUMP JUMPDEST SWAP1 POP SWAP2 SWAP1 POP JUMP JUMPDEST PUSH1 0x0 PUSH20 0xFFFFFFFFFFFFFFFFFFFFFFFFFFFFFFFFFFFFFFFF DUP3 AND SWAP1 POP SWAP2 SWAP1 POP JUMP JUMPDEST PUSH1 0x0 DUP2 SWAP1 POP SWAP2 SWAP1 POP JUMP JUMPDEST PUSH1 0x0 JUMPDEST DUP4 DUP2 LT ISZERO PUSH3 0x3A6 JUMPI DUP1 DUP3 ADD MLOAD DUP2 DUP5 ADD MSTORE PUSH1 0x20 DUP2 ADD SWAP1 POP PUSH3 0x389 JUMP JUMPDEST DUP4 DUP2 GT ISZERO PUSH3 0x3B6 JUMPI PUSH1 0x0 DUP5 DUP5 ADD MSTORE JUMPDEST POP POP POP POP JUMP JUMPDEST PUSH1 0x0 PUSH1 0x2 DUP3 DIV SWAP1 POP PUSH1 0x1 DUP3 AND DUP1 PUSH3 0x3D5 JUMPI PUSH1 0x7F DUP3 AND SWAP2 POP JUMPDEST PUSH1 0x20 DUP3 LT DUP2 EQ ISZERO PUSH3 0x3EC JUMPI PUSH3 0x3EB PUSH3 0x428 JUMP JUMPDEST JUMPDEST POP SWAP2 SWAP1 POP JUMP JUMPDEST PUSH3 0x3FD DUP3 PUSH3 0x49A JUMP JUMPDEST DUP2 ADD DUP2 DUP2 LT PUSH8 0xFFFFFFFFFFFFFFFF DUP3 GT OR ISZERO PUSH3 0x41F JUMPI PUSH3 0x41E PUSH3 0x457 JUMP JUMPDEST JUMPDEST DUP1 PUSH1 0x40 MSTORE POP POP POP JUMP JUMPDEST PUSH32 0x4E487B7100000000000000000000000000000000000000000000000000000000 PUSH1 0x0 MSTORE PUSH1 0x22 PUSH1 0x4 MSTORE PUSH1 0x24 PUSH1 0x0 REVERT JUMPDEST PUSH32 0x4E487B7100000000000000000000000000000000000000000000000000000000 PUSH1 0x0 MSTORE PUSH1 0x41 PUSH1 0x4 MSTORE PUSH1 0x24 PUSH1 0x0 REVERT JUMPDEST PUSH1 0x0 DUP1 REVERT JUMPDEST PUSH1 0x0 DUP1 REVERT JUMPDEST PUSH1 0x0 DUP1 REVERT JUMPDEST PUSH1 0x0 DUP1 REVERT JUMPDEST PUSH1 0x0 PUSH1 0x1F NOT PUSH1 0x1F DUP4 ADD AND SWAP1 POP SWAP2 SWAP1 POP JUMP JUMPDEST PUSH3 0x4B6 DUP2 PUSH3 0x348 JUMP JUMPDEST DUP2 EQ PUSH3 0x4C2 JUMPI PUSH1 0x0 DUP1 REVERT JUMPDEST POP JUMP JUMPDEST PUSH3 0x4D0 DUP2 PUSH3 0x37C JUMP JUMPDEST DUP2 EQ PUSH3 0x4DC JUMPI PUSH1 0x0 DUP1 REVERT JUMPDEST POP JUMP JUMPDEST PUSH2 0x5A3 DUP1 PUSH3 0x4EF PUSH1 0x0 CODECOPY PUSH1 0x0 RETURN INVALID PUSH1 0x80 PUSH1 0x40 MSTORE PUSH1 0x4 CALLDATASIZE LT PUSH2 0x43 JUMPI PUSH1 0x0 CALLDATALOAD PUSH1 0xE0 SHR DUP1 PUSH4 0x38CC4831 EQ PUSH2 0xC2 JUMPI DUP1 PUSH4 0x835FC6CA EQ PUSH2 0xED JUMPI DUP1 PUSH4 0xAF640D0F EQ PUSH2 0x116 JUMPI DUP1 PUSH4 0xF2BCD022 EQ PUSH2 0x141 JUMPI PUSH2 0x85 JUMP JUMPDEST CALLDATASIZE PUSH2 0x85 JUMPI PUSH32 0x2D27851832FCAC28A0D4AF1344F01FED7FFCFD15171C14C564A0C42AA57AE5C0 CALLVALUE ADDRESS SELFBALANCE PUSH1 0x40 MLOAD PUSH2 0x7B SWAP4 SWAP3 SWAP2 SWAP1 PUSH2 0x447 JUMP JUMPDEST PUSH1 0x40 MLOAD DUP1 SWAP2 SUB SWAP1 LOG1 STOP JUMPDEST PUSH32 0x2D27851832FCAC28A0D4AF1344F01FED7FFCFD15171C14C564A0C42AA57AE5C0 CALLVALUE ADDRESS SELFBALANCE PUSH1 0x40 MLOAD PUSH2 0xB8 SWAP4 SWAP3 SWAP2 SWAP1 PUSH2 0x447 JUMP JUMPDEST PUSH1 0x40 MLOAD DUP1 SWAP2 SUB SWAP1 LOG1 STOP JUMPDEST CALLVALUE DUP1 ISZERO PUSH2 0xCE JUMPI PUSH1 0x0 DUP1 REVERT JUMPDEST POP PUSH2 0xD7 PUSH2 0x16C JUMP JUMPDEST PUSH1 0x40 MLOAD PUSH2 0xE4 SWAP2 SWAP1 PUSH2 0x3D1 JUMP JUMPDEST PUSH1 0x40 MLOAD DUP1 SWAP2 SUB SWAP1 RETURN JUMPDEST CALLVALUE DUP1 ISZERO PUSH2 0xF9 JUMPI PUSH1 0x0 DUP1 REVERT JUMPDEST POP PUSH2 0x114 PUSH1 0x4 DUP1 CALLDATASIZE SUB DUP2 ADD SWAP1 PUSH2 0x10F SWAP2 SWAP1 PUSH2 0x308 JUMP JUMPDEST PUSH2 0x174 JUMP JUMPDEST STOP JUMPDEST CALLVALUE DUP1 ISZERO PUSH2 0x122 JUMPI PUSH1 0x0 DUP1 REVERT JUMPDEST POP PUSH2 0x12B PUSH2 0x2C7 JUMP JUMPDEST PUSH1 0x40 MLOAD PUSH2 0x138 SWAP2 SWAP1 PUSH2 0x42C JUMP JUMPDEST PUSH1 0x40 MLOAD DUP1 SWAP2 SUB SWAP1 RETURN JUMPDEST CALLVALUE DUP1 ISZERO PUSH2 0x14D JUMPI PUSH1 0x0 DUP1 REVERT JUMPDEST POP PUSH2 0x156 PUSH2 0x2CD JUMP JUMPDEST PUSH1 0x40 MLOAD PUSH2 0x163 SWAP2 SWAP1 PUSH2 0x3D1 JUMP JUMPDEST PUSH1 0x40 MLOAD DUP1 SWAP2 SUB SWAP1 RETURN JUMPDEST PUSH1 0x0 ADDRESS SWAP1 POP SWAP1 JUMP JUMPDEST DUP1 SELFBALANCE LT ISZERO PUSH2 0x1B7 JUMPI PUSH1 0x40 MLOAD PUSH32 0x8C379A000000000000000000000000000000000000000000000000000000000 DUP2 MSTORE PUSH1 0x4 ADD PUSH2 0x1AE SWAP1 PUSH2 0x3EC JUMP JUMPDEST PUSH1 0x40 MLOAD DUP1 SWAP2 SUB SWAP1 REVERT JUMPDEST PUSH1 0x0 PUSH1 0x1 PUSH1 0x0 SWAP1 SLOAD SWAP1 PUSH2 0x100 EXP SWAP1 DIV PUSH20 0xFFFFFFFFFFFFFFFFFFFFFFFFFFFFFFFFFFFFFFFF AND PUSH20 0xFFFFFFFFFFFFFFFFFFFFFFFFFFFFFFFFFFFFFFFF AND DUP3 PUSH1 0x40 MLOAD PUSH2 0x1FF SWAP1 PUSH2 0x3BC JUMP JUMPDEST PUSH1 0x0 PUSH1 0x40 MLOAD DUP1 DUP4 SUB DUP2 DUP6 DUP8 GAS CALL SWAP3 POP POP POP RETURNDATASIZE DUP1 PUSH1 0x0 DUP2 EQ PUSH2 0x23C JUMPI PUSH1 0x40 MLOAD SWAP2 POP PUSH1 0x1F NOT PUSH1 0x3F RETURNDATASIZE ADD AND DUP3 ADD PUSH1 0x40 MSTORE RETURNDATASIZE DUP3 MSTORE RETURNDATASIZE PUSH1 0x0 PUSH1 0x20 DUP5 ADD RETURNDATACOPY PUSH2 0x241 JUMP JUMPDEST PUSH1 0x60 SWAP2 POP JUMPDEST POP POP SWAP1 POP PUSH1 0x1 ISZERO ISZERO DUP2 ISZERO ISZERO EQ PUSH2 0x28C JUMPI PUSH1 0x40 MLOAD PUSH32 0x8C379A000000000000000000000000000000000000000000000000000000000 DUP2 MSTORE PUSH1 0x4 ADD PUSH2 0x283 SWAP1 PUSH2 0x40C JUMP JUMPDEST PUSH1 0x40 MLOAD DUP1 SWAP2 SUB SWAP1 REVERT JUMPDEST PUSH32 0x794032702377D1E7EB93381E2467D569394569207A770AF85B3222A361126C91 SELFBALANCE PUSH1 0x40 MLOAD PUSH2 0x2BB SWAP2 SWAP1 PUSH2 0x42C JUMP JUMPDEST PUSH1 0x40 MLOAD DUP1 SWAP2 SUB SWAP1 LOG1 POP POP JUMP JUMPDEST PUSH1 0x0 SLOAD DUP2 JUMP JUMPDEST PUSH1 0x1 PUSH1 0x0 SWAP1 SLOAD SWAP1 PUSH2 0x100 EXP SWAP1 DIV PUSH20 0xFFFFFFFFFFFFFFFFFFFFFFFFFFFFFFFFFFFFFFFF AND DUP2 JUMP JUMPDEST PUSH1 0x0 DUP2 CALLDATALOAD SWAP1 POP PUSH2 0x302 DUP2 PUSH2 0x556 JUMP JUMPDEST SWAP3 SWAP2 POP POP JUMP JUMPDEST PUSH1 0x0 PUSH1 0x20 DUP3 DUP5 SUB SLT ISZERO PUSH2 0x31E JUMPI PUSH2 0x31D PUSH2 0x4D6 JUMP JUMPDEST JUMPDEST PUSH1 0x0 PUSH2 0x32C DUP5 DUP3 DUP6 ADD PUSH2 0x2F3 JUMP JUMPDEST SWAP2 POP POP SWAP3 SWAP2 POP POP JUMP JUMPDEST PUSH2 0x33E DUP2 PUSH2 0x49A JUMP JUMPDEST DUP3 MSTORE POP POP JUMP JUMPDEST PUSH1 0x0 PUSH2 0x351 PUSH1 0x18 DUP4 PUSH2 0x489 JUMP JUMPDEST SWAP2 POP PUSH2 0x35C DUP3 PUSH2 0x4DB JUMP JUMPDEST PUSH1 0x20 DUP3 ADD SWAP1 POP SWAP2 SWAP1 POP JUMP JUMPDEST PUSH1 0x0 PUSH2 0x374 PUSH1 0x0 DUP4 PUSH2 0x47E JUMP JUMPDEST SWAP2 POP PUSH2 0x37F DUP3 PUSH2 0x504 JUMP JUMPDEST PUSH1 0x0 DUP3 ADD SWAP1 POP SWAP2 SWAP1 POP JUMP JUMPDEST PUSH1 0x0 PUSH2 0x397 PUSH1 0x2D DUP4 PUSH2 0x489 JUMP JUMPDEST SWAP2 POP PUSH2 0x3A2 DUP3 PUSH2 0x507 JUMP JUMPDEST PUSH1 0x40 DUP3 ADD SWAP1 POP SWAP2 SWAP1 POP JUMP JUMPDEST PUSH2 0x3B6 DUP2 PUSH2 0x4CC JUMP JUMPDEST DUP3 MSTORE POP POP JUMP JUMPDEST PUSH1 0x0 PUSH2 0x3C7 DUP3 PUSH2 0x367 JUMP JUMPDEST SWAP2 POP DUP2 SWAP1 POP SWAP2 SWAP1 POP JUMP JUMPDEST PUSH1 0x0 PUSH1 0x20 DUP3 ADD SWAP1 POP PUSH2 0x3E6 PUSH1 0x0 DUP4 ADD DUP5 PUSH2 0x335 JUMP JUMPDEST SWAP3 SWAP2 POP POP JUMP JUMPDEST PUSH1 0x0 PUSH1 0x20 DUP3 ADD SWAP1 POP DUP2 DUP2 SUB PUSH1 0x0 DUP4 ADD MSTORE PUSH2 0x405 DUP2 PUSH2 0x344 JUMP JUMPDEST SWAP1 POP SWAP2 SWAP1 POP JUMP JUMPDEST PUSH1 0x0 PUSH1 0x20 DUP3 ADD SWAP1 POP DUP2 DUP2 SUB PUSH1 0x0 DUP4 ADD MSTORE PUSH2 0x425 DUP2 PUSH2 0x38A JUMP JUMPDEST SWAP1 POP SWAP2 SWAP1 POP JUMP JUMPDEST PUSH1 0x0 PUSH1 0x20 DUP3 ADD SWAP1 POP PUSH2 0x441 PUSH1 0x0 DUP4 ADD DUP5 PUSH2 0x3AD JUMP JUMPDEST SWAP3 SWAP2 POP POP JUMP JUMPDEST PUSH1 0x0 PUSH1 0x60 DUP3 ADD SWAP1 POP PUSH2 0x45C PUSH1 0x0 DUP4 ADD DUP7 PUSH2 0x3AD JUMP JUMPDEST PUSH2 0x469 PUSH1 0x20 DUP4 ADD DUP6 PUSH2 0x335 JUMP JUMPDEST PUSH2 0x476 PUSH1 0x40 DUP4 ADD DUP5 PUSH2 0x3AD JUMP JUMPDEST SWAP5 SWAP4 POP POP POP POP JUMP JUMPDEST PUSH1 0x0 DUP2 SWAP1 POP SWAP3 SWAP2 POP POP JUMP JUMPDEST PUSH1 0x0 DUP3 DUP3 MSTORE PUSH1 0x20 DUP3 ADD SWAP1 POP SWAP3 SWAP2 POP POP JUMP JUMPDEST PUSH1 0x0 PUSH2 0x4A5 DUP3 PUSH2 0x4AC JUMP JUMPDEST SWAP1 POP SWAP2 SWAP1 POP JUMP JUMPDEST PUSH1 0x0 PUSH20 0xFFFFFFFFFFFFFFFFFFFFFFFFFFFFFFFFFFFFFFFF DUP3 AND SWAP1 POP SWAP2 SWAP1 POP JUMP JUMPDEST PUSH1 0x0 DUP2 SWAP1 POP SWAP2 SWAP1 POP JUMP JUMPDEST PUSH1 0x0 DUP1 REVERT JUMPDEST PUSH32 0x557365723A20496E73756666696369656E742066756E64730000000000000000 PUSH1 0x0 DUP3 ADD MSTORE POP JUMP JUMPDEST POP JUMP JUMPDEST PUSH32 0x5769746864726177616C206661696C65642E2054727920616761696E20696E20 PUSH1 0x0 DUP3 ADD MSTORE PUSH32 0x736F6D65206D696E757465732E00000000000000000000000000000000000000 PUSH1 0x20 DUP3 ADD MSTORE POP JUMP JUMPDEST PUSH2 0x55F DUP2 PUSH2 0x4CC JUMP JUMPDEST DUP2 EQ PUSH2 0x56A JUMPI PUSH1 0x0 DUP1 REVERT JUMPDEST POP JUMP INVALID LOG2 PUSH5 0x6970667358 0x22 SLT KECCAK256 PUSH22 0xD7C4A30508924E7ADF60115B1B926F16DCC09549C27B 0xD3 ORIGIN STATICCALL SWAP14 0xD7 SAR 0xA5 0xE 0x23 PUSH5 0x736F6C6343 STOP ADDMOD SMOD STOP CALLER "
				},
				"gasEstimates": {
					"creation": {
						"codeDepositCost": "288600",
						"executionCost": "infinite",
						"totalCost": "infinite"
					},
					"external": {
						"": "infinite",
						"getAddress()": "363",
						"id()": "2451",
						"withdrawal(uint256)": "infinite",
						"withdrawalAddress()": "2558"
					}
				},
				"methodIdentifiers": {
					"getAddress()": "38cc4831",
					"id()": "af640d0f",
					"withdrawal(uint256)": "835fc6ca",
					"withdrawalAddress()": "f2bcd022"
				}
			},
			"storageLayout": {
				"storage": [
					{
						"astId": 511,
						"contract": "challenges/Consorcio/Employee.sol:Employee",
						"label": "id",
						"offset": 0,
						"slot": "0",
						"type": "t_uint256"
					},
					{
						"astId": 513,
						"contract": "challenges/Consorcio/Employee.sol:Employee",
						"label": "withdrawalAddress",
						"offset": 0,
						"slot": "1",
						"type": "t_address"
					},
					{
						"astId": 373,
						"contract": "challenges/Consorcio/Employee.sol:Employee",
						"label": "profession",
						"offset": 0,
						"slot": "2",
						"type": "t_string_storage"
					},
					{
						"astId": 375,
						"contract": "challenges/Consorcio/Employee.sol:Employee",
						"label": "schedule",
						"offset": 0,
						"slot": "3",
						"type": "t_string_storage"
					},
					{
						"astId": 377,
						"contract": "challenges/Consorcio/Employee.sol:Employee",
						"label": "salary",
						"offset": 0,
						"slot": "4",
						"type": "t_uint256"
					}
				],
				"types": {
					"t_address": {
						"encoding": "inplace",
						"label": "address",
						"numberOfBytes": "20"
					},
					"t_string_storage": {
						"encoding": "bytes",
						"label": "string",
						"numberOfBytes": "32"
					},
					"t_uint256": {
						"encoding": "inplace",
						"label": "uint256",
						"numberOfBytes": "32"
					}
				}
			},
			"userdoc": {
				"kind": "user",
				"methods": {},
				"version": 1
			}
		}
	}
}