{
	"data": {
		"bytecode": {
			"linkReferences": {},
			"object": "60806040523480156200001157600080fd5b5060405162000b1138038062000b1183398181016040528101906200003791906200023d565b84848160008190555080600160006101000a81548173ffffffffffffffffffffffffffffffffffffffff021916908373ffffffffffffffffffffffffffffffffffffffff160217905550505082600290805190602001906200009b929190620000e1565b508160039080519060200190620000b4929190620000e1565b508060048190555060045460056000878152602001908152602001600020819055505050505050620004f9565b828054620000ef90620003d6565b90600052602060002090601f0160209004810192826200011357600085556200015f565b82601f106200012e57805160ff19168380011785556200015f565b828001600101855582156200015f579182015b828111156200015e57825182559160200191906001019062000141565b5b5090506200016e919062000172565b5090565b5b808211156200018d57600081600090555060010162000173565b5090565b6000620001a8620001a2846200032c565b62000303565b905082815260208101848484011115620001c757620001c6620004a5565b5b620001d4848285620003a0565b509392505050565b600081519050620001ed81620004c5565b92915050565b600082601f8301126200020b576200020a620004a0565b5b81516200021d84826020860162000191565b91505092915050565b6000815190506200023781620004df565b92915050565b600080600080600060a086880312156200025c576200025b620004af565b5b60006200026c8882890162000226565b95505060206200027f88828901620001dc565b945050604086015167ffffffffffffffff811115620002a357620002a2620004aa565b5b620002b188828901620001f3565b935050606086015167ffffffffffffffff811115620002d557620002d4620004aa565b5b620002e388828901620001f3565b9250506080620002f68882890162000226565b9150509295509295909350565b60006200030f62000322565b90506200031d82826200040c565b919050565b6000604051905090565b600067ffffffffffffffff8211156200034a576200034962000471565b5b6200035582620004b4565b9050602081019050919050565b60006200036f8262000376565b9050919050565b600073ffffffffffffffffffffffffffffffffffffffff82169050919050565b6000819050919050565b60005b83811015620003c0578082015181840152602081019050620003a3565b83811115620003d0576000848401525b50505050565b60006002820490506001821680620003ef57607f821691505b6020821081141562000406576200040562000442565b5b50919050565b6200041782620004b4565b810181811067ffffffffffffffff8211171562000439576200043862000471565b5b80604052505050565b7f4e487b7100000000000000000000000000000000000000000000000000000000600052602260045260246000fd5b7f4e487b7100000000000000000000000000000000000000000000000000000000600052604160045260246000fd5b600080fd5b600080fd5b600080fd5b600080fd5b6000601f19601f8301169050919050565b620004d08162000362565b8114620004dc57600080fd5b50565b620004ea8162000396565b8114620004f657600080fd5b50565b61060880620005096000396000f3fe60806040526004361061004e5760003560e01c806338cc4831146100cd57806380bfacc2146100f8578063835fc6ca14610135578063af640d0f1461015e578063f2bcd0221461018957610090565b36610090577f2d27851832fcac28a0d4af1344f01fed7ffcfd15171c14c564a0c42aa57ae5c0343047604051610086939291906104ac565b60405180910390a1005b7f2d27851832fcac28a0d4af1344f01fed7ffcfd15171c14c564a0c42aa57ae5c03430476040516100c3939291906104ac565b60405180910390a1005b3480156100d957600080fd5b506100e26101b4565b6040516100ef9190610436565b60405180910390f35b34801561010457600080fd5b5061011f600480360381019061011a919061036d565b6101bc565b60405161012c9190610491565b60405180910390f35b34801561014157600080fd5b5061015c6004803603810190610157919061036d565b6101d9565b005b34801561016a57600080fd5b5061017361032c565b6040516101809190610491565b60405180910390f35b34801561019557600080fd5b5061019e610332565b6040516101ab9190610436565b60405180910390f35b600030905090565b600060056000838152602001908152602001600020549050919050565b8047101561021c576040517f08c379a000000000000000000000000000000000000000000000000000000000815260040161021390610451565b60405180910390fd5b6000600160009054906101000a900473ffffffffffffffffffffffffffffffffffffffff1673ffffffffffffffffffffffffffffffffffffffff168260405161026490610421565b60006040518083038185875af1925050503d80600081146102a1576040519150601f19603f3d011682016040523d82523d6000602084013e6102a6565b606091505b5050905060011515811515146102f1576040517f08c379a00000000000000000000000000000000000000000000000000000000081526004016102e890610471565b60405180910390fd5b7f794032702377d1e7eb93381e2467d569394569207a770af85b3222a361126c91476040516103209190610491565b60405180910390a15050565b60005481565b600160009054906101000a900473ffffffffffffffffffffffffffffffffffffffff1681565b600081359050610367816105bb565b92915050565b6000602082840312156103835761038261053b565b5b600061039184828501610358565b91505092915050565b6103a3816104ff565b82525050565b60006103b66018836104ee565b91506103c182610540565b602082019050919050565b60006103d96000836104e3565b91506103e482610569565b600082019050919050565b60006103fc602d836104ee565b91506104078261056c565b604082019050919050565b61041b81610531565b82525050565b600061042c826103cc565b9150819050919050565b600060208201905061044b600083018461039a565b92915050565b6000602082019050818103600083015261046a816103a9565b9050919050565b6000602082019050818103600083015261048a816103ef565b9050919050565b60006020820190506104a66000830184610412565b92915050565b60006060820190506104c16000830186610412565b6104ce602083018561039a565b6104db6040830184610412565b949350505050565b600081905092915050565b600082825260208201905092915050565b600061050a82610511565b9050919050565b600073ffffffffffffffffffffffffffffffffffffffff82169050919050565b6000819050919050565b600080fd5b7f557365723a20496e73756666696369656e742066756e64730000000000000000600082015250565b50565b7f5769746864726177616c206661696c65642e2054727920616761696e20696e2060008201527f736f6d65206d696e757465732e00000000000000000000000000000000000000602082015250565b6105c481610531565b81146105cf57600080fd5b5056fea26469706673582212206b50d0e92213542657efbc28c967c689b85f64fcecb2c91eb61765030fe9a2d564736f6c63430008070033",
			"opcodes": "PUSH1 0x80 PUSH1 0x40 MSTORE CALLVALUE DUP1 ISZERO PUSH3 0x11 JUMPI PUSH1 0x0 DUP1 REVERT JUMPDEST POP PUSH1 0x40 MLOAD PUSH3 0xB11 CODESIZE SUB DUP1 PUSH3 0xB11 DUP4 CODECOPY DUP2 DUP2 ADD PUSH1 0x40 MSTORE DUP2 ADD SWAP1 PUSH3 0x37 SWAP2 SWAP1 PUSH3 0x23D JUMP JUMPDEST DUP5 DUP5 DUP2 PUSH1 0x0 DUP2 SWAP1 SSTORE POP DUP1 PUSH1 0x1 PUSH1 0x0 PUSH2 0x100 EXP DUP2 SLOAD DUP2 PUSH20 0xFFFFFFFFFFFFFFFFFFFFFFFFFFFFFFFFFFFFFFFF MUL NOT AND SWAP1 DUP4 PUSH20 0xFFFFFFFFFFFFFFFFFFFFFFFFFFFFFFFFFFFFFFFF AND MUL OR SWAP1 SSTORE POP POP POP DUP3 PUSH1 0x2 SWAP1 DUP1 MLOAD SWAP1 PUSH1 0x20 ADD SWAP1 PUSH3 0x9B SWAP3 SWAP2 SWAP1 PUSH3 0xE1 JUMP JUMPDEST POP DUP2 PUSH1 0x3 SWAP1 DUP1 MLOAD SWAP1 PUSH1 0x20 ADD SWAP1 PUSH3 0xB4 SWAP3 SWAP2 SWAP1 PUSH3 0xE1 JUMP JUMPDEST POP DUP1 PUSH1 0x4 DUP2 SWAP1 SSTORE POP PUSH1 0x4 SLOAD PUSH1 0x5 PUSH1 0x0 DUP8 DUP2 MSTORE PUSH1 0x20 ADD SWAP1 DUP2 MSTORE PUSH1 0x20 ADD PUSH1 0x0 KECCAK256 DUP2 SWAP1 SSTORE POP POP POP POP POP POP PUSH3 0x4F9 JUMP JUMPDEST DUP3 DUP1 SLOAD PUSH3 0xEF SWAP1 PUSH3 0x3D6 JUMP JUMPDEST SWAP1 PUSH1 0x0 MSTORE PUSH1 0x20 PUSH1 0x0 KECCAK256 SWAP1 PUSH1 0x1F ADD PUSH1 0x20 SWAP1 DIV DUP2 ADD SWAP3 DUP3 PUSH3 0x113 JUMPI PUSH1 0x0 DUP6 SSTORE PUSH3 0x15F JUMP JUMPDEST DUP3 PUSH1 0x1F LT PUSH3 0x12E JUMPI DUP1 MLOAD PUSH1 0xFF NOT AND DUP4 DUP1 ADD OR DUP6 SSTORE PUSH3 0x15F JUMP JUMPDEST DUP3 DUP1 ADD PUSH1 0x1 ADD DUP6 SSTORE DUP3 ISZERO PUSH3 0x15F JUMPI SWAP2 DUP3 ADD JUMPDEST DUP3 DUP2 GT ISZERO PUSH3 0x15E JUMPI DUP3 MLOAD DUP3 SSTORE SWAP2 PUSH1 0x20 ADD SWAP2 SWAP1 PUSH1 0x1 ADD SWAP1 PUSH3 0x141 JUMP JUMPDEST JUMPDEST POP SWAP1 POP PUSH3 0x16E SWAP2 SWAP1 PUSH3 0x172 JUMP JUMPDEST POP SWAP1 JUMP JUMPDEST JUMPDEST DUP1 DUP3 GT ISZERO PUSH3 0x18D JUMPI PUSH1 0x0 DUP2 PUSH1 0x0 SWAP1 SSTORE POP PUSH1 0x1 ADD PUSH3 0x173 JUMP JUMPDEST POP SWAP1 JUMP JUMPDEST PUSH1 0x0 PUSH3 0x1A8 PUSH3 0x1A2 DUP5 PUSH3 0x32C JUMP JUMPDEST PUSH3 0x303 JUMP JUMPDEST SWAP1 POP DUP3 DUP2 MSTORE PUSH1 0x20 DUP2 ADD DUP5 DUP5 DUP5 ADD GT ISZERO PUSH3 0x1C7 JUMPI PUSH3 0x1C6 PUSH3 0x4A5 JUMP JUMPDEST JUMPDEST PUSH3 0x1D4 DUP5 DUP3 DUP6 PUSH3 0x3A0 JUMP JUMPDEST POP SWAP4 SWAP3 POP POP POP JUMP JUMPDEST PUSH1 0x0 DUP2 MLOAD SWAP1 POP PUSH3 0x1ED DUP2 PUSH3 0x4C5 JUMP JUMPDEST SWAP3 SWAP2 POP POP JUMP JUMPDEST PUSH1 0x0 DUP3 PUSH1 0x1F DUP4 ADD SLT PUSH3 0x20B JUMPI PUSH3 0x20A PUSH3 0x4A0 JUMP JUMPDEST JUMPDEST DUP2 MLOAD PUSH3 0x21D DUP5 DUP3 PUSH1 0x20 DUP7 ADD PUSH3 0x191 JUMP JUMPDEST SWAP2 POP POP SWAP3 SWAP2 POP POP JUMP JUMPDEST PUSH1 0x0 DUP2 MLOAD SWAP1 POP PUSH3 0x237 DUP2 PUSH3 0x4DF JUMP JUMPDEST SWAP3 SWAP2 POP POP JUMP JUMPDEST PUSH1 0x0 DUP1 PUSH1 0x0 DUP1 PUSH1 0x0 PUSH1 0xA0 DUP7 DUP9 SUB SLT ISZERO PUSH3 0x25C JUMPI PUSH3 0x25B PUSH3 0x4AF JUMP JUMPDEST JUMPDEST PUSH1 0x0 PUSH3 0x26C DUP9 DUP3 DUP10 ADD PUSH3 0x226 JUMP JUMPDEST SWAP6 POP POP PUSH1 0x20 PUSH3 0x27F DUP9 DUP3 DUP10 ADD PUSH3 0x1DC JUMP JUMPDEST SWAP5 POP POP PUSH1 0x40 DUP7 ADD MLOAD PUSH8 0xFFFFFFFFFFFFFFFF DUP2 GT ISZERO PUSH3 0x2A3 JUMPI PUSH3 0x2A2 PUSH3 0x4AA JUMP JUMPDEST JUMPDEST PUSH3 0x2B1 DUP9 DUP3 DUP10 ADD PUSH3 0x1F3 JUMP JUMPDEST SWAP4 POP POP PUSH1 0x60 DUP7 ADD MLOAD PUSH8 0xFFFFFFFFFFFFFFFF DUP2 GT ISZERO PUSH3 0x2D5 JUMPI PUSH3 0x2D4 PUSH3 0x4AA JUMP JUMPDEST JUMPDEST PUSH3 0x2E3 DUP9 DUP3 DUP10 ADD PUSH3 0x1F3 JUMP JUMPDEST SWAP3 POP POP PUSH1 0x80 PUSH3 0x2F6 DUP9 DUP3 DUP10 ADD PUSH3 0x226 JUMP JUMPDEST SWAP2 POP POP SWAP3 SWAP6 POP SWAP3 SWAP6 SWAP1 SWAP4 POP JUMP JUMPDEST PUSH1 0x0 PUSH3 0x30F PUSH3 0x322 JUMP JUMPDEST SWAP1 POP PUSH3 0x31D DUP3 DUP3 PUSH3 0x40C JUMP JUMPDEST SWAP2 SWAP1 POP JUMP JUMPDEST PUSH1 0x0 PUSH1 0x40 MLOAD SWAP1 POP SWAP1 JUMP JUMPDEST PUSH1 0x0 PUSH8 0xFFFFFFFFFFFFFFFF DUP3 GT ISZERO PUSH3 0x34A JUMPI PUSH3 0x349 PUSH3 0x471 JUMP JUMPDEST JUMPDEST PUSH3 0x355 DUP3 PUSH3 0x4B4 JUMP JUMPDEST SWAP1 POP PUSH1 0x20 DUP2 ADD SWAP1 POP SWAP2 SWAP1 POP JUMP JUMPDEST PUSH1 0x0 PUSH3 0x36F DUP3 PUSH3 0x376 JUMP JUMPDEST SWAP1 POP SWAP2 SWAP1 POP JUMP JUMPDEST PUSH1 0x0 PUSH20 0xFFFFFFFFFFFFFFFFFFFFFFFFFFFFFFFFFFFFFFFF DUP3 AND SWAP1 POP SWAP2 SWAP1 POP JUMP JUMPDEST PUSH1 0x0 DUP2 SWAP1 POP SWAP2 SWAP1 POP JUMP JUMPDEST PUSH1 0x0 JUMPDEST DUP4 DUP2 LT ISZERO PUSH3 0x3C0 JUMPI DUP1 DUP3 ADD MLOAD DUP2 DUP5 ADD MSTORE PUSH1 0x20 DUP2 ADD SWAP1 POP PUSH3 0x3A3 JUMP JUMPDEST DUP4 DUP2 GT ISZERO PUSH3 0x3D0 JUMPI PUSH1 0x0 DUP5 DUP5 ADD MSTORE JUMPDEST POP POP POP POP JUMP JUMPDEST PUSH1 0x0 PUSH1 0x2 DUP3 DIV SWAP1 POP PUSH1 0x1 DUP3 AND DUP1 PUSH3 0x3EF JUMPI PUSH1 0x7F DUP3 AND SWAP2 POP JUMPDEST PUSH1 0x20 DUP3 LT DUP2 EQ ISZERO PUSH3 0x406 JUMPI PUSH3 0x405 PUSH3 0x442 JUMP JUMPDEST JUMPDEST POP SWAP2 SWAP1 POP JUMP JUMPDEST PUSH3 0x417 DUP3 PUSH3 0x4B4 JUMP JUMPDEST DUP2 ADD DUP2 DUP2 LT PUSH8 0xFFFFFFFFFFFFFFFF DUP3 GT OR ISZERO PUSH3 0x439 JUMPI PUSH3 0x438 PUSH3 0x471 JUMP JUMPDEST JUMPDEST DUP1 PUSH1 0x40 MSTORE POP POP POP JUMP JUMPDEST PUSH32 0x4E487B7100000000000000000000000000000000000000000000000000000000 PUSH1 0x0 MSTORE PUSH1 0x22 PUSH1 0x4 MSTORE PUSH1 0x24 PUSH1 0x0 REVERT JUMPDEST PUSH32 0x4E487B7100000000000000000000000000000000000000000000000000000000 PUSH1 0x0 MSTORE PUSH1 0x41 PUSH1 0x4 MSTORE PUSH1 0x24 PUSH1 0x0 REVERT JUMPDEST PUSH1 0x0 DUP1 REVERT JUMPDEST PUSH1 0x0 DUP1 REVERT JUMPDEST PUSH1 0x0 DUP1 REVERT JUMPDEST PUSH1 0x0 DUP1 REVERT JUMPDEST PUSH1 0x0 PUSH1 0x1F NOT PUSH1 0x1F DUP4 ADD AND SWAP1 POP SWAP2 SWAP1 POP JUMP JUMPDEST PUSH3 0x4D0 DUP2 PUSH3 0x362 JUMP JUMPDEST DUP2 EQ PUSH3 0x4DC JUMPI PUSH1 0x0 DUP1 REVERT JUMPDEST POP JUMP JUMPDEST PUSH3 0x4EA DUP2 PUSH3 0x396 JUMP JUMPDEST DUP2 EQ PUSH3 0x4F6 JUMPI PUSH1 0x0 DUP1 REVERT JUMPDEST POP JUMP JUMPDEST PUSH2 0x608 DUP1 PUSH3 0x509 PUSH1 0x0 CODECOPY PUSH1 0x0 RETURN INVALID PUSH1 0x80 PUSH1 0x40 MSTORE PUSH1 0x4 CALLDATASIZE LT PUSH2 0x4E JUMPI PUSH1 0x0 CALLDATALOAD PUSH1 0xE0 SHR DUP1 PUSH4 0x38CC4831 EQ PUSH2 0xCD JUMPI DUP1 PUSH4 0x80BFACC2 EQ PUSH2 0xF8 JUMPI DUP1 PUSH4 0x835FC6CA EQ PUSH2 0x135 JUMPI DUP1 PUSH4 0xAF640D0F EQ PUSH2 0x15E JUMPI DUP1 PUSH4 0xF2BCD022 EQ PUSH2 0x189 JUMPI PUSH2 0x90 JUMP JUMPDEST CALLDATASIZE PUSH2 0x90 JUMPI PUSH32 0x2D27851832FCAC28A0D4AF1344F01FED7FFCFD15171C14C564A0C42AA57AE5C0 CALLVALUE ADDRESS SELFBALANCE PUSH1 0x40 MLOAD PUSH2 0x86 SWAP4 SWAP3 SWAP2 SWAP1 PUSH2 0x4AC JUMP JUMPDEST PUSH1 0x40 MLOAD DUP1 SWAP2 SUB SWAP1 LOG1 STOP JUMPDEST PUSH32 0x2D27851832FCAC28A0D4AF1344F01FED7FFCFD15171C14C564A0C42AA57AE5C0 CALLVALUE ADDRESS SELFBALANCE PUSH1 0x40 MLOAD PUSH2 0xC3 SWAP4 SWAP3 SWAP2 SWAP1 PUSH2 0x4AC JUMP JUMPDEST PUSH1 0x40 MLOAD DUP1 SWAP2 SUB SWAP1 LOG1 STOP JUMPDEST CALLVALUE DUP1 ISZERO PUSH2 0xD9 JUMPI PUSH1 0x0 DUP1 REVERT JUMPDEST POP PUSH2 0xE2 PUSH2 0x1B4 JUMP JUMPDEST PUSH1 0x40 MLOAD PUSH2 0xEF SWAP2 SWAP1 PUSH2 0x436 JUMP JUMPDEST PUSH1 0x40 MLOAD DUP1 SWAP2 SUB SWAP1 RETURN JUMPDEST CALLVALUE DUP1 ISZERO PUSH2 0x104 JUMPI PUSH1 0x0 DUP1 REVERT JUMPDEST POP PUSH2 0x11F PUSH1 0x4 DUP1 CALLDATASIZE SUB DUP2 ADD SWAP1 PUSH2 0x11A SWAP2 SWAP1 PUSH2 0x36D JUMP JUMPDEST PUSH2 0x1BC JUMP JUMPDEST PUSH1 0x40 MLOAD PUSH2 0x12C SWAP2 SWAP1 PUSH2 0x491 JUMP JUMPDEST PUSH1 0x40 MLOAD DUP1 SWAP2 SUB SWAP1 RETURN JUMPDEST CALLVALUE DUP1 ISZERO PUSH2 0x141 JUMPI PUSH1 0x0 DUP1 REVERT JUMPDEST POP PUSH2 0x15C PUSH1 0x4 DUP1 CALLDATASIZE SUB DUP2 ADD SWAP1 PUSH2 0x157 SWAP2 SWAP1 PUSH2 0x36D JUMP JUMPDEST PUSH2 0x1D9 JUMP JUMPDEST STOP JUMPDEST CALLVALUE DUP1 ISZERO PUSH2 0x16A JUMPI PUSH1 0x0 DUP1 REVERT JUMPDEST POP PUSH2 0x173 PUSH2 0x32C JUMP JUMPDEST PUSH1 0x40 MLOAD PUSH2 0x180 SWAP2 SWAP1 PUSH2 0x491 JUMP JUMPDEST PUSH1 0x40 MLOAD DUP1 SWAP2 SUB SWAP1 RETURN JUMPDEST CALLVALUE DUP1 ISZERO PUSH2 0x195 JUMPI PUSH1 0x0 DUP1 REVERT JUMPDEST POP PUSH2 0x19E PUSH2 0x332 JUMP JUMPDEST PUSH1 0x40 MLOAD PUSH2 0x1AB SWAP2 SWAP1 PUSH2 0x436 JUMP JUMPDEST PUSH1 0x40 MLOAD DUP1 SWAP2 SUB SWAP1 RETURN JUMPDEST PUSH1 0x0 ADDRESS SWAP1 POP SWAP1 JUMP JUMPDEST PUSH1 0x0 PUSH1 0x5 PUSH1 0x0 DUP4 DUP2 MSTORE PUSH1 0x20 ADD SWAP1 DUP2 MSTORE PUSH1 0x20 ADD PUSH1 0x0 KECCAK256 SLOAD SWAP1 POP SWAP2 SWAP1 POP JUMP JUMPDEST DUP1 SELFBALANCE LT ISZERO PUSH2 0x21C JUMPI PUSH1 0x40 MLOAD PUSH32 0x8C379A000000000000000000000000000000000000000000000000000000000 DUP2 MSTORE PUSH1 0x4 ADD PUSH2 0x213 SWAP1 PUSH2 0x451 JUMP JUMPDEST PUSH1 0x40 MLOAD DUP1 SWAP2 SUB SWAP1 REVERT JUMPDEST PUSH1 0x0 PUSH1 0x1 PUSH1 0x0 SWAP1 SLOAD SWAP1 PUSH2 0x100 EXP SWAP1 DIV PUSH20 0xFFFFFFFFFFFFFFFFFFFFFFFFFFFFFFFFFFFFFFFF AND PUSH20 0xFFFFFFFFFFFFFFFFFFFFFFFFFFFFFFFFFFFFFFFF AND DUP3 PUSH1 0x40 MLOAD PUSH2 0x264 SWAP1 PUSH2 0x421 JUMP JUMPDEST PUSH1 0x0 PUSH1 0x40 MLOAD DUP1 DUP4 SUB DUP2 DUP6 DUP8 GAS CALL SWAP3 POP POP POP RETURNDATASIZE DUP1 PUSH1 0x0 DUP2 EQ PUSH2 0x2A1 JUMPI PUSH1 0x40 MLOAD SWAP2 POP PUSH1 0x1F NOT PUSH1 0x3F RETURNDATASIZE ADD AND DUP3 ADD PUSH1 0x40 MSTORE RETURNDATASIZE DUP3 MSTORE RETURNDATASIZE PUSH1 0x0 PUSH1 0x20 DUP5 ADD RETURNDATACOPY PUSH2 0x2A6 JUMP JUMPDEST PUSH1 0x60 SWAP2 POP JUMPDEST POP POP SWAP1 POP PUSH1 0x1 ISZERO ISZERO DUP2 ISZERO ISZERO EQ PUSH2 0x2F1 JUMPI PUSH1 0x40 MLOAD PUSH32 0x8C379A000000000000000000000000000000000000000000000000000000000 DUP2 MSTORE PUSH1 0x4 ADD PUSH2 0x2E8 SWAP1 PUSH2 0x471 JUMP JUMPDEST PUSH1 0x40 MLOAD DUP1 SWAP2 SUB SWAP1 REVERT JUMPDEST PUSH32 0x794032702377D1E7EB93381E2467D569394569207A770AF85B3222A361126C91 SELFBALANCE PUSH1 0x40 MLOAD PUSH2 0x320 SWAP2 SWAP1 PUSH2 0x491 JUMP JUMPDEST PUSH1 0x40 MLOAD DUP1 SWAP2 SUB SWAP1 LOG1 POP POP JUMP JUMPDEST PUSH1 0x0 SLOAD DUP2 JUMP JUMPDEST PUSH1 0x1 PUSH1 0x0 SWAP1 SLOAD SWAP1 PUSH2 0x100 EXP SWAP1 DIV PUSH20 0xFFFFFFFFFFFFFFFFFFFFFFFFFFFFFFFFFFFFFFFF AND DUP2 JUMP JUMPDEST PUSH1 0x0 DUP2 CALLDATALOAD SWAP1 POP PUSH2 0x367 DUP2 PUSH2 0x5BB JUMP JUMPDEST SWAP3 SWAP2 POP POP JUMP JUMPDEST PUSH1 0x0 PUSH1 0x20 DUP3 DUP5 SUB SLT ISZERO PUSH2 0x383 JUMPI PUSH2 0x382 PUSH2 0x53B JUMP JUMPDEST JUMPDEST PUSH1 0x0 PUSH2 0x391 DUP5 DUP3 DUP6 ADD PUSH2 0x358 JUMP JUMPDEST SWAP2 POP POP SWAP3 SWAP2 POP POP JUMP JUMPDEST PUSH2 0x3A3 DUP2 PUSH2 0x4FF JUMP JUMPDEST DUP3 MSTORE POP POP JUMP JUMPDEST PUSH1 0x0 PUSH2 0x3B6 PUSH1 0x18 DUP4 PUSH2 0x4EE JUMP JUMPDEST SWAP2 POP PUSH2 0x3C1 DUP3 PUSH2 0x540 JUMP JUMPDEST PUSH1 0x20 DUP3 ADD SWAP1 POP SWAP2 SWAP1 POP JUMP JUMPDEST PUSH1 0x0 PUSH2 0x3D9 PUSH1 0x0 DUP4 PUSH2 0x4E3 JUMP JUMPDEST SWAP2 POP PUSH2 0x3E4 DUP3 PUSH2 0x569 JUMP JUMPDEST PUSH1 0x0 DUP3 ADD SWAP1 POP SWAP2 SWAP1 POP JUMP JUMPDEST PUSH1 0x0 PUSH2 0x3FC PUSH1 0x2D DUP4 PUSH2 0x4EE JUMP JUMPDEST SWAP2 POP PUSH2 0x407 DUP3 PUSH2 0x56C JUMP JUMPDEST PUSH1 0x40 DUP3 ADD SWAP1 POP SWAP2 SWAP1 POP JUMP JUMPDEST PUSH2 0x41B DUP2 PUSH2 0x531 JUMP JUMPDEST DUP3 MSTORE POP POP JUMP JUMPDEST PUSH1 0x0 PUSH2 0x42C DUP3 PUSH2 0x3CC JUMP JUMPDEST SWAP2 POP DUP2 SWAP1 POP SWAP2 SWAP1 POP JUMP JUMPDEST PUSH1 0x0 PUSH1 0x20 DUP3 ADD SWAP1 POP PUSH2 0x44B PUSH1 0x0 DUP4 ADD DUP5 PUSH2 0x39A JUMP JUMPDEST SWAP3 SWAP2 POP POP JUMP JUMPDEST PUSH1 0x0 PUSH1 0x20 DUP3 ADD SWAP1 POP DUP2 DUP2 SUB PUSH1 0x0 DUP4 ADD MSTORE PUSH2 0x46A DUP2 PUSH2 0x3A9 JUMP JUMPDEST SWAP1 POP SWAP2 SWAP1 POP JUMP JUMPDEST PUSH1 0x0 PUSH1 0x20 DUP3 ADD SWAP1 POP DUP2 DUP2 SUB PUSH1 0x0 DUP4 ADD MSTORE PUSH2 0x48A DUP2 PUSH2 0x3EF JUMP JUMPDEST SWAP1 POP SWAP2 SWAP1 POP JUMP JUMPDEST PUSH1 0x0 PUSH1 0x20 DUP3 ADD SWAP1 POP PUSH2 0x4A6 PUSH1 0x0 DUP4 ADD DUP5 PUSH2 0x412 JUMP JUMPDEST SWAP3 SWAP2 POP POP JUMP JUMPDEST PUSH1 0x0 PUSH1 0x60 DUP3 ADD SWAP1 POP PUSH2 0x4C1 PUSH1 0x0 DUP4 ADD DUP7 PUSH2 0x412 JUMP JUMPDEST PUSH2 0x4CE PUSH1 0x20 DUP4 ADD DUP6 PUSH2 0x39A JUMP JUMPDEST PUSH2 0x4DB PUSH1 0x40 DUP4 ADD DUP5 PUSH2 0x412 JUMP JUMPDEST SWAP5 SWAP4 POP POP POP POP JUMP JUMPDEST PUSH1 0x0 DUP2 SWAP1 POP SWAP3 SWAP2 POP POP JUMP JUMPDEST PUSH1 0x0 DUP3 DUP3 MSTORE PUSH1 0x20 DUP3 ADD SWAP1 POP SWAP3 SWAP2 POP POP JUMP JUMPDEST PUSH1 0x0 PUSH2 0x50A DUP3 PUSH2 0x511 JUMP JUMPDEST SWAP1 POP SWAP2 SWAP1 POP JUMP JUMPDEST PUSH1 0x0 PUSH20 0xFFFFFFFFFFFFFFFFFFFFFFFFFFFFFFFFFFFFFFFF DUP3 AND SWAP1 POP SWAP2 SWAP1 POP JUMP JUMPDEST PUSH1 0x0 DUP2 SWAP1 POP SWAP2 SWAP1 POP JUMP JUMPDEST PUSH1 0x0 DUP1 REVERT JUMPDEST PUSH32 0x557365723A20496E73756666696369656E742066756E64730000000000000000 PUSH1 0x0 DUP3 ADD MSTORE POP JUMP JUMPDEST POP JUMP JUMPDEST PUSH32 0x5769746864726177616C206661696C65642E2054727920616761696E20696E20 PUSH1 0x0 DUP3 ADD MSTORE PUSH32 0x736F6D65206D696E757465732E00000000000000000000000000000000000000 PUSH1 0x20 DUP3 ADD MSTORE POP JUMP JUMPDEST PUSH2 0x5C4 DUP2 PUSH2 0x531 JUMP JUMPDEST DUP2 EQ PUSH2 0x5CF JUMPI PUSH1 0x0 DUP1 REVERT JUMPDEST POP JUMP INVALID LOG2 PUSH5 0x6970667358 0x22 SLT KECCAK256 PUSH12 0x50D0E92213542657EFBC28C9 PUSH8 0xC689B85F64FCECB2 0xC9 0x1E 0xB6 OR PUSH6 0x30FE9A2D564 PUSH20 0x6F6C634300080700330000000000000000000000 "
		},
		"gasEstimates": {
			"creation": {
				"codeDepositCost": "308800",
				"executionCost": "infinite",
				"totalCost": "infinite"
			},
			"external": {
				"": "infinite",
				"getAddress()": "363",
				"getSalary(uint256)": "infinite",
				"id()": "2473",
				"withdrawal(uint256)": "infinite",
				"withdrawalAddress()": "2580"
			}
		},
		"methodIdentifiers": {
			"getAddress()": "38cc4831",
			"getSalary(uint256)": "80bfacc2",
			"id()": "af640d0f",
			"withdrawal(uint256)": "835fc6ca",
			"withdrawalAddress()": "f2bcd022"
		}
	},
	"abi": [
		{
			"inputs": [
				{
					"internalType": "uint256",
					"name": "newId",
					"type": "uint256"
				},
				{
					"internalType": "address",
					"name": "newAddress",
					"type": "address"
				},
				{
					"internalType": "string",
					"name": "newProfession",
					"type": "string"
				},
				{
					"internalType": "string",
					"name": "newSchedule",
					"type": "string"
				},
				{
					"internalType": "uint256",
					"name": "newSalary",
					"type": "uint256"
				}
			],
			"stateMutability": "nonpayable",
			"type": "constructor"
		},
		{
			"anonymous": false,
			"inputs": [
				{
					"indexed": false,
					"internalType": "uint256",
					"name": "amount",
					"type": "uint256"
				},
				{
					"indexed": false,
					"internalType": "address",
					"name": "tenantAddress",
					"type": "address"
				},
				{
					"indexed": false,
					"internalType": "uint256",
					"name": "balance",
					"type": "uint256"
				}
			],
			"name": "EtherReceived",
			"type": "event"
		},
		{
			"anonymous": false,
			"inputs": [
				{
					"indexed": false,
					"internalType": "uint256",
					"name": "addressBalance",
					"type": "uint256"
				}
			],
			"name": "WithdrawalSuccessful",
			"type": "event"
		},
		{
			"stateMutability": "payable",
			"type": "fallback"
		},
		{
			"inputs": [],
			"name": "getAddress",
			"outputs": [
				{
					"internalType": "address",
					"name": "",
					"type": "address"
				}
			],
			"stateMutability": "view",
			"type": "function"
		},
		{
			"inputs": [
				{
					"internalType": "uint256",
					"name": "_id",
					"type": "uint256"
				}
			],
			"name": "getSalary",
			"outputs": [
				{
					"internalType": "uint256",
					"name": "",
					"type": "uint256"
				}
			],
			"stateMutability": "view",
			"type": "function"
		},
		{
			"inputs": [],
			"name": "id",
			"outputs": [
				{
					"internalType": "uint256",
					"name": "",
					"type": "uint256"
				}
			],
			"stateMutability": "view",
			"type": "function"
		},
		{
			"inputs": [
				{
					"internalType": "uint256",
					"name": "_amount",
					"type": "uint256"
				}
			],
			"name": "withdrawal",
			"outputs": [],
			"stateMutability": "nonpayable",
			"type": "function"
		},
		{
			"inputs": [],
			"name": "withdrawalAddress",
			"outputs": [
				{
					"internalType": "address",
					"name": "",
					"type": "address"
				}
			],
			"stateMutability": "view",
			"type": "function"
		},
		{
			"stateMutability": "payable",
			"type": "receive"
		}
	]
}